S02E0000526F616420426F61726420526576204D2E3520424153454C494E4520446563203920323031362E737265637A
S31508000000500900202D1801082D1A0108311A010877
S31508000010351A0108391A01083D1A010800000000BE
S31508000020000000000000000000000000B301010805
S31508000030411A0108000000006101010835020108A3
S31508000040451A0108491A01084D1A0108511A0108EA
S31508000050551A0108591A01085D1A0108611A01089A
S31508000060651A0108691A01086D1A01083D02010896
S31508000070711A0108751A0108791A01087D1A01080A
S31508000080811A0108851A0108891A01088D1A0108BA
S3150800009047020108911A0108951A0108991A0108D8
S315080000A09D1A0108A11A0108A51A0108A91A01082A
S315080000B0830201088D020108510201086F02010836
S315080000C079020108AD1A0108B11A0108B51A010822
S315080000D0B91A0108BD1A0108650201085B02010880
S315080000E0C11A0108C51A0108C91A010847290008D2
S315080000F0CD1A010800000000D11A0108D51A010816
S31508000100D91A0108DD1A0108E11A0108E51A0108D9
S31508000110E91A0108ED1A0108F11A010800000000A1
S31508000120F51A01082DE9F04FADF5237D04002000EE
S3150800013001F01EFF0500207830282FD031283CD04A
S31508000140322860D0332800F08480342800F0A78055
S31508000150352800F0CA80362800F01F81412800F0B3
S315080001602781422800F05982432800F061844428F8
S3150800017000F0EC85452800F02687462800F02A87F7
S31508000180472800F03987482800F0A587502801F04D
S315080001906082542801F07A8201F086BD01F036FFAC
S315080001A082465FFA8AFABAF1000F04D1DFF8781DA1
S315080001B00EA802F011F801F07BBD81A801F069FFD5
S315080001C08246DFF8681D0EA802F006F80EA9002080
S315080001D002F0DAF882465FFA8AFABAF1000F03D01B
S315080001E05046C0B201F0E5BDDFF8F81D0EA802F0D2
S315080001F073FA81A90EA802F089FAD2A10EA802F014
S3150800020085FA01F055BD81A801F063FF8246DFF843
S31508000210D81D0EA801F0E0FF0EA9002002F0B4F8E0
S3150800022082465FFA8AFABAF1000F03D05046C0B286
S3150800023001F0BFBDDFF8B41D0EA802F04DFA81A982
S315080002400EA802F063FABFA10EA802F05FFA01F049
S315080002502FBD81A801F05EFF8246DFF8941D0EA827
S3150800026001F0BAFF0EA9002002F08EF882465FFA66
S315080002708AFABAF1000F03D05046C0B201F099BD10
S31508000280DFF8701D0EA802F027FA81A90EA802F061
S315080002903DFAACA10EA802F039FA01F009BD81A811
S315080002A001F05AFF8246DFF8EC1D0EA801F094FF14
S315080002B00EA9002002F068F882465FFA8AFABAF1B7
S315080002C0000F03D05046C0B201F073BDDFF8C81D59
S315080002D00EA802F001FA81A90EA802F017FA99A150
S315080002E00EA802F013FA01F0E3BC01F067FE3190A4
S315080002F0DFF8A81D0EA801F06FFF81A801F0C9FE5E
S3150800030082460EA9002002F03FF882465FFA8AFA72
S31508000310BAF1000F03D05046C0B201F04ABD002022
S315080003208146B9A10EA802F0D7F900208346BBF191
S31508000330800F2BDA319810F80B20DFF8681D0AA811
S3150800034002F0CAF90AA90EA802F0E0F919F10109A2
S31508000350B9F1100F17DB7BA10EA802F0D7F9002020
S3150800036081460EA9002002F00FF882465FFA8AFA43
S31508000370BAF1000F03D05046C0B201F01ABDA2A1CF
S315080003800EA802F0A9F91BF1010BD0E7DFF8E01D72
S315080003900EA802F0A1F901F08BBC0020824601F0FC
S315080003A0FDFEDFF8D01D0EA801F016FF01F080BC97
S315080003B0EDB2012D00F02F81607836282FD038282D
S315080003C000F0A480392800F00981492840F01E81F0
S315080003D002F0AAF982465FFA8AFABAF1000F05D145
S315080003E0DFF8D41D0EA801F0F7FE17E0DFF8CC1DE4
S315080003F00EA801F0F1FE8DF834A00EA9002001F038
S31508000400C3FF82465FFA8AFABAF1000F03D0504654
S31508000410C0B201F0CEBC9DF834008246FBE08AA843
S3150800042002F0ACF982465FFA8AFABAF1000F54D1A3
S31508000430DFF8E81D0EA801F0CFFE0EA9002001F096
S31508000440A3FF82465FFA8AFABAF1000F03D0504634
S31508000450C0B201F0AEBCDFF8C81D0EA802F03CF928
S315080004600EA9002001F090FF82465FFA8AFABAF1D7
S31508000470000F03D05046C0B201F09BBCDFF8A41DA4
S315080004800EA802F029F98AA90EA802F03FF92DA1B3
S315080004900EA802F03BF90EA9002001F075FF82466E
S315080004A05FFA8AFABAF1000F03D05046C0B201F0DB
S315080004B080BCDFF8001E0EA802F00EF98DA90EA862
S315080004C002F024F9909ADFF8F01D0AA802F004F960
S315080004D00AA90EA802F01AF917E0DFF8E01D0EA81F
S315080004E001F07AFE8DF834A00EA9002001F04CFF29
S315080004F082465FFA8AFABAF1000F03D05046C0B2B4
S3150800050001F057BC9DF83400824684E027A802F023
S3150800051079F982465FFA8AFABAF1000F2CD1DFF828
S31508000520E81D0EA801F058FE0EA9002001F02CFFC8
S3150800053082465FFA8AFABAF1000F05D05046C0B271
S3150800054001F037BC0D0A0000DFF8C01D0EA802F046
S31508000550C3F82AA90EA802F0D9F8B5A10EA802F088
S31508000560D5F80EA9002001F00FFF82465FFA8AFA35
S31508000570BAF1000F01D104E04DE05046C0B201F0D7
S3150800058018BCBDF8B020DFF8F41D0EA802F0A4F8D8
S315080005900EA9002001F0F8FE82465FFA8AFABAF13F
S315080005A0000F03D05046C0B201F003BCDFF8D01DDF
S315080005B00EA802F091F827A90EA802F0A7F8DFF80E
S315080005C0C41D0EA802F0A2F80DF1A2010EA802F0B1
S315080005D09DF897A10EA802F099F81CE002F07AF9A6
S315080005E082465FFA8AFABAF1000F05D1DFF8DC1DF8
S315080005F00EA801F0F1FD06E0DFF8D41D0EA801F003
S31508000600EBFD0020824606E000000000DFF8C41D6E
S315080006100EA801F0E1FD01F04BBBEDB2012D40F053
S31508000620F080052003F08AF8002804D03BA803F0E0
S3150800063053FD82460BE0062003F080F8002804D01C
S315080006403BA803F0B5F9824601E0012082465FFA2D
S315080006508AFABAF1000F40F0D280DFF8C41D0EA85E
S3150800066001F0BAFD0EA9002001F08EFE82465FFA5F
S315080006708AFABAF1000F03D05046C0B201F099BB0E
S3150800068000208346BBF1090F80F2A680BBF1000F5C
S3150800069010D0BBF1020F2AD01AD3BBF1040F43D0F6
S315080006A033D3BBF1060F5CD04CD3BBF1080F75D022
S315080006B065D380E0BDF8000101900DF1F2000090CD
S315080006C03BAB3EAADFF8001E0EA802F005F872E062
S315080006D0BDF81601019042A800900DF581730DF53D
S315080006E08772DFF8E81D0EA801F0F6FF63E0BDF893
S315080006F02C0101900DF58F70009046AB49AADFF8E2
S31508000700D01D0EA801F0E8FF55E0BDF842010190A2
S315080007104DA800900DF597730DF59D72DFF8B41D81
S315080007200EA801F0D9FF46E0BDF8580101900DF575
S31508000730A570009051AB54AADFF89C1D0EA801F0D5
S31508000740CBFF38E0BDF86E01019058A800900DF572
S31508000750AD730DF5B372DFF8841D0EA801F0BCFF6A
S3150800076029E0BDF8840101900DF5BB7000905CABE3
S315080007705FAADFF86C1D0EA801F0AEFF1BE0BDF8FE
S315080007809A01019063A800900DF5C3730DF5C9721F
S31508000790DFF8501D0EA801F09FFF0CE0BDF8B00170
S315080007A001900DF5D170009067AB6AAADFF8381D85
S315080007B00EA801F091FF0EA9002001F0E5FD824682
S315080007C05FFA8AFABAF1000F03D05046C0B201F0B8
S315080007D0F0BA1BF1010B55E7DFF8101D0EA801F062
S315080007E07BFF2FA90EA801F091FF11A10EA801F019
S315080007F08DFFDFF8001E0EA801F06EFF16E101F06E
S3150800080057BA6078302815D0312800F00281492877
S3150800081040F00C8103F0AAFB82465FFA8AFABAF125
S31508000820000F04D1DFF8D01D0EA801F0D5FCFDE0BD
S315080008300D0A0000052002F081FF002804D03BA81D
S3150800084003F04AFC82460BE0062002F077FF0028F8
S3150800085004D03BA803F0ACF8824601E001208246AA
S315080008605FFA8AFABAF1000F40F0D280DFF8B01BBF
S315080008700EA801F0B1FC0EA9002001F085FD824604
S315080008805FFA8AFABAF1000F03D05046C0B201F0F7
S3150800089090BA00208346BBF1090F80F2A680BBF10F
S315080008A0000F10D0BBF1020F2AD01AD3BBF1040FE8
S315080008B043D033D3BBF1060F5CD04CD3BBF1080F42
S315080008C075D065D380E0BDF8000101900DF1F20006
S315080008D000903BAB3EAADFF8F01B0EA801F0FCFE29
S315080008E072E0BDF81601019042A800900DF58173DB
S315080008F00DF58772DFF8D41B0EA801F0EDFE63E054
S31508000900BDF82C0101900DF58F70009046AB49AAF1
S31508000910DFF8BC1B0EA801F0DFFE55E0BDF842016A
S3150800092001904DA800900DF597730DF59D72DFF8AF
S31508000930A41B0EA801F0D0FE46E0BDF858010190B0
S315080009400DF5A570009051AB54AADFF88C1B0EA8C4
S3150800095001F0C2FE38E0BDF86E01019058A800907B
S315080009600DF5AD730DF5B372DFF8701B0EA801F027
S31508000970B3FE29E0BDF8840101900DF5BB70009027
S315080009805CAB5FAADFF8581B0EA801F0A5FE1BE0BA
S31508000990BDF89A01019063A800900DF5C3730DF593
S315080009A0C972DFF8401B0EA801F096FE0CE0BDF8F0
S315080009B0B00101900DF5D170009067AB6AAADFF817
S315080009C0281B0EA801F088FE0EA9002001F0DCFC09
S315080009D082465FFA8AFABAF1000F03D05046C0B2CF
S315080009E001F0E7B91BF1010B55E7DFF8001B0EA86C
S315080009F001F072FE2FA90EA801F088FED2A10EA85A
S31508000A0001F084FEDFF8EC1B0EA801F065FE0DE090
S31508000A100CE003F016FB82465FFA8AFABAF1000F79
S31508000A2004D1DFF8901D0EA801F0D6FB01F040B9FD
S31508000A30EDB2012D47D12DA804F014F882465FFACD
S31508000A408AFABAF1000F2AD1DFF8F41D0EA801F0D0
S31508000A50C3FB0EA9002001F097FC82465FFA8AFACA
S31508000A60BAF1000F03D05046C0B201F0A2B9DFF8C0
S31508000A70D41D0EA801F030FE2FA90EA801F046FEDF
S31508000A80B1A10EA801F042FE0EA9002001F07CFCDF
S31508000A9082465FFA8AFABAF1000F02D105E001F040
S31508000AA007B95046C0B201F084B9DFF8A01D0EA8F8
S31508000AB001F012FE2DA90EA801F028FEA2A10EA88B
S31508000AC001F024FE3EE16078302818D031285DD048
S31508000AD0322800F0A380332800F0E880492840F047
S31508000AE02C8103F0FBFD82465FFA8AFABAF1000F01
S31508000AF004D1DFF8E41D0EA801F06EFB22E12DA853
S31508000B0003F047FE82465FFA8AFABAF1000F2AD145
S31508000B10DFF80C190EA801F05FFB0EA9002001F002
S31508000B2033FC82465FFA8AFABAF1000F03D05046C0
S31508000B30C0B201F03EB9DFF8B4190EA801F0CCFD39
S31508000B402FA90EA801F0E2FD7FA10EA801F0DEFD97
S31508000B500EA9002001F018FC82465FFA8AFABAF15B
S31508000B60000F01D104E0EDE05046C0B201F021B912
S31508000B70DFF8CC1D0EA801F0AFFD2DA90EA801F0D7
S31508000B80C5FD71A10EA801F0C1FDDBE09FA803F029
S31508000B9076FE82465FFA8AFABAF1000F2BD1DFF8A1
S31508000BA0A41D0EA801F018FB0EA9002001F0ECFB0D
S31508000BB082465FFA8AFABAF1000F03D05046C0B2ED
S31508000BC001F0F7B8DFF8801D0EA801F085FDA1A990
S31508000BD0491C0EA801F09AFD5BA10EA801F096FD2E
S31508000BE00EA9002001F0D0FB82465FFA8AFABAF114
S31508000BF0000F01D104E0A5E05046C0B201F0D9B813
S31508000C00DFF8481D0EA801F067FD9FA90EA801F0A0
S31508000C107DFD4DA10EA801F079FD93E09BA803F098
S31508000C20A4FE82465FFA8AFABAF1000F2BD1DFF8E2
S31508000C30201D0EA801F0D0FA0EA9002001F0A4FB91
S31508000C4082465FFA8AFABAF1000F03D05046C0B25C
S31508000C5001F0AFB8DFF8F81D0EA801F03DFD9DA91B
S31508000C60491C0EA801F052FD37A10EA801F04EFD51
S31508000C700EA9002001F088FB82465FFA8AFABAF1CB
S31508000C80000F01D104E05DE05046C0B201F091B812
S31508000C90DFF8C01D0EA801F01FFD9BA90EA801F0E4
S31508000CA035FD29A10EA801F031FD4BE02DA803F072
S31508000CB0D9FE82465FFA8AFABAF1000F2AD1DFF81E
S31508000CC0801B0EA801F088FA0EA9002001F05CFB33
S31508000CD082465FFA8AFABAF1000F03D05046C0B2CC
S31508000CE001F067B8DFF85C1B0EA801F0F5FC2FA928
S31508000CF00EA801F00BFD14A10EA801F007FD0EA920
S31508000D00002001F041FB82465FFA8AFABAF1000F29
S31508000D1001D104E016E05046C0B201F04AB8DFF847
S31508000D202C1B0EA801F0D8FC2DA90EA801F0EEFC8C
S31508000D3005A10EA801F0EAFC04E0DFF898160EA853
S31508000D4001F04AFA00F0B4BF0D0A0000EDB2012D19
S31508000D505CD136A803F075FF82465FFA8AFABAF1C3
S31508000D60000F2AD1DFF8AC1D0EA801F035FA0EA93E
S31508000D70002001F009FB82465FFA8AFABAF1000FF1
S31508000D8003D05046C0B201F014B8DFF8E01D0EA833
S31508000D9001F0A2FC38A90EA801F0B8FCC0A10EA863
S31508000DA001F0B4FC0EA9002001F0EEFA82465FFAC3
S31508000DB08AFABAF1000F02D105E000F079BF504671
S31508000DC0C0B200F0F6BFBDF8E820DFF8A41D0EA8F3
S31508000DD001F082FC0EA9002001F0D6FA82465FFADD
S31508000DE08AFABAF1000F03D05046C0B200F0E1BF4C
S31508000DF0DFF8801D0EA801F06FFC36A90EA801F0D9
S31508000E0085FCA7A10EA801F081FCDAE060783028FD
S31508000E1012D031286CD0492840F0D38003F0BEFEAA
S31508000E2082465FFA8AFABAF1000F04D1DFF8481D44
S31508000E300EA801F0D1F9C4E036A803F002FF8246F5
S31508000E405FFA8AFABAF1000F2AD1DFF8C81C0EA891
S31508000E5001F0C2F90EA9002001F096FA82465FFA5F
S31508000E608AFABAF1000F03D05046C0B200F0A1BF0B
S31508000E70DFF8F81C0EA801F02FFC38A90EA801F01F
S31508000E8045FC87A10EA801F041FC0EA9002001F03F
S31508000E907BFA82465FFA8AFABAF1000F01D104E0BA
S31508000EA08FE05046C0B200F084BFBDF8E820DFF8F6
S31508000EB0C01C0EA801F010FC0EA9002001F064FA6F
S31508000EC082465FFA8AFABAF1000F03D05046C0B2DA
S31508000ED000F06FBFDFF89C1C0EA801F0FDFB36A9D9
S31508000EE00EA801F013FC6EA10EA801F00FFC68E035
S31508000EF027A804F025F882465FFA8AFABAF1000FA5
S31508000F002ED1DFF8101C0EA801F066F90EA90020F4
S31508000F1001F03AFA82465FFA8AFABAF1000F07D068
S31508000F205046C0B200F045BFA4040108380D0108B8
S31508000F30DFF8D8130EA801F0CFFB2AA90EA801F0F6
S31508000F40E5FB57A10EA801F0E1FB0EA9002001F070
S31508000F501BFA82465FFA8AFABAF1000F01D104E059
S31508000F602FE05046C0B200F024BFBDF8B020DFF82D
S31508000F700C140EA801F0B0FB0EA9002001F004FA2B
S31508000F8082465FFA8AFABAF1000F03D05046C0B219
S31508000F9000F00FBFDFF8E8130EA801F09DFB27A9A4
S31508000FA00EA801F0B3FBDFF8DC130EA801F0AEFBC8
S31508000FB00DF1A2010EA801F0A9FB39A10EA801F0B6
S31508000FC0A5FB00F075BEDFF8841D0EA801F004F934
S31508000FD000F06EBEDFF8781D0EA801F0FDF800F0EF
S31508000FE067BE00BFC8130108600D0108E8130108B1
S31508000FF0880D01080814010827A804F033F9824669
S315080010005FFA8AFABAF1000F29D1DFF8481D0EA84F
S3150800101001F0E2F80EA9002001F0B6F982465FFA5F
S315080010208AFABAF1000F03D05046C0B200F0C1BE2A
S31508001030B6490EA801F050FB2AA90EA801F066FBD6
S3150800104017A10EA801F062FB0EA9002001F09CF979
S3150800105082465FFA8AFABAF1000F02D105E000F07B
S3150800106027BE5046C0B200F0A4BEBDF8B020C349A2
S315080010700EA801F031FB0EA9002001F085F9824681
S315080010805FFA8AFABAF1000F0ED05046C0B200F0E5
S3150800109090BE00BFB00D010828140108D80D01083C
S315080010A00D0A0000B0190108B5490EA801F014FB95
S315080010B027A90EA801F02AFBB2490EA801F026FBC3
S315080010C00DF1A2010EA801F021FBD4A10EA801F092
S315080010D01DFB00F0EDBDEDB2012D73D191A804F012
S315080010E081FA82465FFA8AFABAF1000F68D1DFF808
S315080010F0D01C0EA801F070F80EA9002001F044F9E2
S3150800110082465FFA8AFABAF1000F03D05046C0B297
S3150800111000F04FBEDFF8AC1C0EA801F0DDFA0EA9F0
S31508001120002001F031F982465FFA8AFABAF1000F17
S3150800113003D05046C0B200F03CBEDFF88C1C0EA8A7
S3150800114001F04AF897A90EA801F0E0FAB3A10EA893
S3150800115001F0DCFA0EA9002001F016F982465FFAC2
S315080011608AFABAF1000F07D05046C0B200F021BE85
S31508001170E816010888120108DFF8501C0EA801F0CD
S315080011802BF891A90EA801F0C1FADFF8441C0EA8A5
S3150800119001F0BCFA93A90EA801F0B8FADFF8341CDE
S315080011A00EA801F0B3FA95A90EA801F0AFFA9BA113
S315080011B00EA801F0ABFA4BE2000E0108280E010852
S315080011C000F076BD6078302800F06181312800F0A3
S315080011D0DE81322800F0FF81332800F0108249288A
S315080011E040F03182EDB2022D0ED104F0F1F88246BC
S315080011F05FFA8AFABAF1000F40F04881DFF8D81B87
S315080012000EA800F0E9FF41E1EDB21D2D0CD0DFF884
S31508001210CC1B0EA800F0E0FF38E100BF500E010815
S31508001220A00801083C180108A0783A2817D1607967
S315080012302E2814D1207A2E2811D1E07A2E280ED104
S31508001240A07B2E280BD1607C2E2808D1207D2E2845
S3150800125005D1E07D2E2802D1A07E2E2805D0DFF804
S31508001260801B0EA800F0B8FF10E100208046002081
S315080012708346BBF1090F2CDA032000FB0BF0204450
S31508001280C0788DF82800032000FB0BF02044007975
S315080012908DF8290000208DF82A000AA800F012FE11
S315080012A000280DD1DFF83C1B0EA800F095FF0120A1
S315080012B080460EE0AC17010848180108780E0108A8
S315080012C00AA800F024FE6DA901F80B001BF1010B1A
S315080012D0CFE79DF8B401082805DBDFF80C1B0EA83C
S315080012E000F07AFFB4E19DF8B40110F007008DF81C
S315080012F08D009DF8B50102280ADBDFF8F01A0EA862
S3150800130000F06AFFA4E100BFA00E0108FC16010860
S315080013109DF8B50110F00100C0B2C0008DF88C0030
S315080013209DF8B601022805DBDFF8C41A0EA800F0FE
S3150800133053FF8DE19DF8B60110F00100C0B200011F
S315080013408DF88B009DF8B701022805DBDFF8A41A93
S315080013500EA800F041FF7BE19DF8B70110F00100EF
S31508001360C0B240018DF88A009DF8B80140280BDB11
S31508001370DFF8841A0EA800F02FFF69E14814010867
S31508001380BC170108CC1701089DF8B80110F03F00FA
S315080013908DF889009DF8B901022805DBDFF85C1A8B
S315080013A00EA800F019FF53E19DF8B90110F00100ED
S315080013B0802148438DF888009DF8BA0104280BDB84
S315080013C0DFF83C1A0EA800F007FF41E1C80E010835
S315080013D0F00E0108681401089DF8BA0110F0030020
S315080013E08DF837009DF8BB01042805DBDFF8141AD1
S315080013F00EA800F0F1FE2BE19DF8BB0110F00300EA
S31508001400C0B280008DF836009DF8BC01022809DBC1
S31508001410DFF8F4190EA800F0DFFE19E10D0A000046
S31508001420AC1201089DF8BC0110F00100C0B2000121
S315080014308DF835009DF88D009DF88C1008189DF8DC
S315080014408B1008189DF88A1008188DF894009DF8D6
S3150800145089009DF8881008188DF895009DF83700C2
S315080014609DF8361008189DF8351008188DF896005E
S3150800147025A803F0D5FF82465FFA8AFABAF1000F6B
S3150800148004D1DFF888190EA800F0A6FEE0E091A8BE
S3150800149004F0A8F882465FFA8AFABAF1000F75D105
S315080014A0DFF81C190EA800F097FE0EA9002000F020
S315080014B06BFF82465FFA8AFABAF1000F18D05046D7
S315080014C0C0B200F076BC00BFD80B0108180F01089F
S315080014D0400F0108680F0108900F0108B80F0108AE
S315080014E0E00F01080810010830100108A4150108CA
S315080014F0DFF8D0180EA801F0EFF80EA9002000F0CA
S3150800150043FF82465FFA8AFABAF1000F03D05046C3
S31508001510C0B200F04EBCDFF8B0180EA800F05CFEB2
S3150800152097A90EA801F0F2F8C7A10EA801F0EEF8E7
S315080015300EA9002000F028FF82465FFA8AFABAF15F
S31508001540000F03D05046C0B200F033BCDFF87C1859
S315080015500EA800F041FE91A90EA801F0D7F8DFF811
S3150800156070180EA801F0D2F893A90EA801F0CEF8CB
S31508001570DFF860180EA801F0C9F895A90EA801F0C1
S31508001580C5F8B1A10EA801F0C1F861E060E032A883
S3150800159003F0DDFF82465FFA8AFABAF1000F19D125
S315080015A0DFF86C180EA800F017FE9DF8C820DFF8C3
S315080015B064180AA801F090F80AA90EA801F0A6F87E
S315080015C00DF1C9010EA801F0A1F89FA10EA801F01E
S315080015D09DF83DE03CE003F04DFF82465FFA8AFA4B
S315080015E0BAF1000F0AD1DFF830180EA800F0F4FDA2
S315080015F02EE000BF10170108D808010828E034A813
S3150800160003F05AFF82465FFA8AFABAF1000F19D137
S31508001610DFF808180EA800F0DFFD9DF8D020DFF8E7
S31508001620F4170AA801F058F80AA90EA801F06EF8EE
S315080016300DF1D1010EA801F069F883A10EA801F0F9
S3150800164065F805E004E0DFF8D8170EA800F0C4FD39
S315080016502EE3607844280AD0552811D1042004F0D6
S3150800166011F9DFF8C0170EA800F0B6FD0DE004204A
S3150800167004F016F9DFF8B0170EA800F0ADFD04E087
S31508001680DFF8A8170EA800F0A7FD11E3EDB2022DAA
S3150800169005DADFF89C170EA800F09EFD03E36078D4
S315080016A0432800F07082442800F0E782492803D0D6
S315080016B0522800F0ED82F2E2EDB2092D05DADFF8E4
S315080016C074170EA800F088FD5CE2A078512800F097
S315080016D0C381C0F05382532802D0C0F0A1804DE2E6
S315080016E0E0783A2802D1A0792E2805D0DFF84817E5
S315080016F00EA800F071FD92E020798DF82800607937
S315080017008DF8290000208DF82A000AA800F0DAFBD7
S31508001710002805D1DFF824170EA800F05DFD7EE04D
S315080017200AA800F0F4FB0600E0798DF82800207A74
S315080017308DF8290000208DF82A000AA800F0C2FBBF
S31508001740002805D1DFF8F8160EA800F045FD66E07A
S315080017500AA800F0DCFB0700002F06D13200DFF8EC
S31508001760E4160EA800F0B8FF2FE0002080460020FF
S315080017708346BB4529DA032000FB0BF02044807A18
S315080017808DF82800032000FB0BF02044C07A8DF862
S31508001790290000208DF82A000AA800F093FB0028EB
S315080017A00AD1DFF898160EA800F016FD012080462B
S315080017B00BE000BF040C01080AA800F0A8FB6DA9FD
S315080017C001F80B001BF1010BD3E7B8F1000F05D1A7
S315080017D03200DFF874160EA800F07EFF002083465C
S315080017E0BB450DDA6DA810F80B20C9A10AA800F0B0
S315080017F073FF0AA90EA800F089FF1BF1010BEFE79A
S3150800180011A10EA800F082FF4FF4FA733800020007
S3150800181092B26DA9300080B204F060F98246B1E157
S31508001820E0783A2805D1A0792E2802D1607A2E28A8
S315080018300ED0DFF818160EA800F0CEFC06E100BFA1
S3150800184058100108BC1501080D0A000024170108E4
S3150800185020798DF8280060798DF8290000208DF808
S315080018602A000AA800F02EFB002805D1DFF8E015AB
S315080018700EA800F0B1FCE9E00AA800F048FB060053
S31508001880E0798DF82800207A8DF8290000208DF857
S315080018902A000AA800F016FB002805D1DFF8B415BF
S315080018A00EA800F099FCD1E00AA800F030FB07006A
S315080018B0A07A8DF82800E07A8DF8290000208DF8A6
S315080018C02A000AA800F0FEFA002807D1DFF88815D2
S315080018D00EA800F081FCB9E0300C01080AA800F057
S315080018E016FB2490002F06D13200DFF870150EA8DB
S315080018F000F0F2FE37E00020804600208346BB4514
S3150800190031DA032000FB0BF02044407B8DF82800D9
S31508001910032000FB0BF02044807B8DF82900002073
S315080019208DF82A000AA800F0CDFA002812D1DFF8AF
S3150800193030150EA800F050FC0120804613E000BFC9
S31508001940D4150108D012010838170108DC17010858
S31508001950881401080AA800F0DAFA6DA901F80B0044
S315080019601BF1010BCBE7B8F1000F05D13200DFF808
S31508001970F4140EA800F0B0FE00208346BB450DDA2D
S315080019806DA810F80B2062A10AA800F0A5FE0AA906
S315080019900EA800F0BBFE1BF1010BEFE7CBA10EA8CA
S315080019A000F0B4FE4FF4FA733800020092B26DA943
S315080019B0300080B204F092F882465FFA8AFABAF1E9
S315080019C0000F10D14FF4FA732498020092B26DA951
S315080019D0300080B204F0CDF882465FFA8AFABAF18E
S315080019E0000F05D100E0CDE0142004F0FDF8824692
S315080019F05FFA8AFABAF1000F28D10EA9002000F082
S31508001A00C3FC82465FFA8AFABAF1000F02D0504642
S31508001A10C0B2CEE1DFF850140EA800F05DFE00203B
S31508001A208346249883450DDA6DA810F80B2038A153
S31508001A300AA800F051FE0AA90EA800F067FE1BF1DD
S31508001A40010BEEE7A1A10EA800F060FE9AE000BF28
S31508001A504C170108EC170108E0783A2802D1A0795A
S31508001A602E2805D0DFF804140EA800F0B5FB7CE09C
S31508001A7020798DF8280060798DF8290000208DF8E6
S31508001A802A000AA800F01EFA002805D1DFF8E0139C
S31508001A900EA800F0A1FB68E00AA800F038FA0600D4
S31508001AA0E0798DF82800207A8DF8290000208DF835
S31508001AB02A000AA800F006FA002805D1DFF8B413B0
S31508001AC00EA800F089FB50E00AA800F020FA24903E
S31508001AD03200DFF888130EA800F0FEFD4FF4FA7303
S31508001AE02498020092B26DA9300080B204F041F841
S31508001AF082465FFA8AFABAF1000F0DD1142004F073
S31508001B0073F882465FFA8AFABAF1000F2DD104E01B
S31508001B1025782E00EC15010834E00EA9002000F007
S31508001B2033FC82465FFA8AFABAF1000F02D05046B1
S31508001B30C0B23EE1CC490EA800F0CEFD0020834697
S31508001B40249883450DDA6DA810F80B209BA10AA8E6
S31508001B5000F0C2FD0AA90EA800F0D8FD1BF1010B82
S31508001B60EEE75AA10EA800F0D1FD0BE00416010815
S31508001B70F4120108FC1701085C0C0108A8490EA814
S31508001B8000F02AFB8FE0052001F0D8FD002804D0DC
S31508001B903BA802F0A1FA82460BE0062001F0CEFD32
S31508001BA0002804D03BA801F003FF824601E001208B
S31508001BB082465FFA8AFABAF1000F59D127A803F0CC
S31508001BC051FB82465FFA8AFABAF1000F4BD136A862
S31508001BD003F037F882465FFA8AFABAF1000F3DD168
S31508001BE08AA800F0CBFD82465FFA8AFABAF1000F9E
S31508001BF02FD18AA8099036A8089027A807903BA84D
S31508001C00069067A805900DF5C37004905CA803902C
S31508001C100DF5AD70029051A801900DF597700090E2
S31508001C2046AB0DF5817294490EA800F055FD0EA934
S31508001C30002000F0A9FB82465FFA8AFABAF1000F83
S31508001C4002D05046C0B2B4E08C490EA800F044FD5C
S31508001C5012E08B490EA800F03FFD0DE089490EA859
S31508001C6000F03AFD08E088490EA800F035FD03E0CB
S31508001C7086490EA800F030FD15E001F095FDADF897
S31508001C808E00BDF88E2082490EA800F025FD0AE0D8
S31508001C9004F037F97F490EA800F01EFD03E06049FD
S31508001CA00EA800F099FA03E05D490EA800F094FA30
S31508001CB05FFA8AFABAF1000F0AD0BAF1020F3ED0DB
S31508001CC007D3BAF1030F47D04DE000BF0D0A000055
S31508001CD04FE003F07FFF2690269801280AD00228B5
S31508001CE00DD0042810D0082813D0102816D0202884
S31508001CF019D01DE068490EA800F06EFA1CE0674985
S31508001D000EA800F069FA17E065490EA800F064FA13
S31508001D1012E064490EA800F05FFA0DE062490EA8C9
S31508001D2000F05AFA08E061490EA800F055FA03E0F7
S31508001D305F490EA800F050FA03F027FE19E05D4946
S31508001D400EA800F049FA03F020FE12E0BC0A0108CA
S31508001D501C1601086017010857490EA800F03CFA3E
S31508001D6003F013FE05E055490EA800F035FA03F016
S31508001D700CFE0EA9002000F007FB82465FFA8AFADD
S31508001D80BAF1000F02D05046C0B212E04C490EA874
S31508001D9000F022FA0EA9002000F0F6FA82465FFA51
S31508001DA08AFABAF1000F02D05046C0B201E0504696
S31508001DB0C0B20DF5237DBDE8F08F00BF25782E0053
S31508001DC044150108100901080C18010854180108DF
S31508001DD0601801086C180108D0030108E804010816
S31508001DE018040108F0050108B0070108EC07010806
S31508001DF02808010848090108300601087006010884
S31508001E00B0060108F0060108300701082C0501088C
S31508001E10A8140108B8190108EC09010818130108E3
S31508001E2068140108C8140108E8140108880C010898
S31508001E300815010880100108A8100108B40C01084B
S31508001E40200A01083416010874170108D010010881
S31508001E50E00C0108540A0108640801084C16010838
S31508001E60F8100108881701087818010820110108D8
S31508001E700C0D0108880A0108481101088418010890
S31508001E80641601087C1601083C1301086013010852
S31508001E90941601088413010870110108EC0A010858
S31508001EA01C0B01084C0B0108981101087C0B010852
S31508001EB0C0110108E81101081012010838120108BA
S31508001EC0C0190108F8B50400200000F051F8050013
S31508001ED00020070000200600AE4216DAA05D3A2868
S31508001EE002DAA05D302805DAA05D472805DAA05D8C
S31508001EF0412802DB0020070001E001200700012F2E
S31508001F0001D1002002E0761CE6E70120F2BD2DE9AA
S31508001F10F041040000275FF00008200000F028F8D0
S31508001F20050000200600AE421ADAA05D3A2806DA55
S31508001F30A05D302803DBA05D303807000CE0A05D0B
S31508001F40472806DAA05D412803DBA05D373807007D
S31508001F5002E05FF0FF3004E017EB0818761CE2E7B2
S31508001F604046BDE8F0810268531C03601170704753
S31508001F7000F10103810704D010F8011B89B181071C
S31508001F80FAD10268B2F10131914311F0803F04BFE2
S31508001F9050F8042FF6E710F8011B11B110F8011BD1
S31508001FA0FBE7C01A7047000000210800802804DA01
S31508001FB00021864A1154401CF8E770478448704748
S31508001FC070B504008021200004F0C6F80500EDB2C3
S31508001FD0002D02D02800C0B217E004F0F4F805007E
S31508001FE000200600C82E0ADA04F0EDF80500EDB266
S31508001FF0002D04D0052003F014FE761CF2E7C82E47
S3150800200001DB032001E02800C0B270BD70B56E4840
S31508002010FFF7D6FF0600F6B2002E02D03000C0B297
S3150800202036E000200500802D05DA6748405D6849DE
S3150800203048556D1CF7E7FFF7B7FF002307226349EA
S31508002040614804F0EDF8050015F1010F01D10120F2
S315080020501EE000200500402D18DA5B48405D5A490D
S31508002060495D5A4A525D594B5B5D5A4301FB002054
S3150800207004F0F6F904F00CFA04F082FA04002000E1
S3150800208004F0C6FA504948556D1CE4E73000C0B262
S3150800209070BD70B582B004000020050048A120007C
S315080020A000F01AFB00200600102E0BDA4648825D67
S315080020B04849684600F010FB6946200000F026FBF8
S315080020C0761CF1E73FA1200000F020FB2800C0B2F3
S315080020D076BD70B582B004000020050038A1200046
S315080020E000F0FAFA00200600102E0CDA36483044C2
S315080020F0027C3849684600F0EFFA6946200000F08D
S3150800210005FB761CF0E72FA1200000F0FFFA280057
S31508002110C0B276BD70B582B004000020050028A1C3
S31508002120200000F0D9FA00200600102E0DDA264805
S31508002130304490F820202749684600F0CDFA6946D1
S31508002140200000F0E3FA761CEFE71EA1200000F05D
S31508002150DDFA2800C0B276BD70B582B00400002052
S31508002160050017A1200000F0B7FA00200600102E7F
S315080021700DDA1548304490F830201649684600F0C4
S31508002180ABFA6946200000F0C1FA761CEFE70DA10C
S31508002190200000F0BBFA2800C0B276BD0021080076
S315080021A080280ADA0021084A11540021074A1154E6
S315080021B00021074A1154401CF2E77047000000004E
S315080021C000000000426E0000B82C0020382D0020C8
S315080021D0B82D0020C81901085FEA000C830706D04D
S315080021E011F8013B00F8013BB3B18307F8D10A683F
S315080021F0B2F1013323EA020313F0803F02BF40F82D
S31508002200042B51F8042FF3E711F8013B00F8013BC2
S3150800221013B111F8013BF9E76046704780B5DFF85E
S315080022208004DFF8801408604FF49640DFF87414D1
S3150800223048600020DFF86C1488600020DFF864141A
S31508002240C8600020DFF85C1408610C20DFF854141D
S3150800225048610020DFF84C1488610020DFF8441438
S31508002260C861DFF8400404F0F5F9002801D005F04C
S315080022709DF801BD80B5DFF83004DFF8301408603A
S315080022804FF41650DFF8241448600020DFF81C14B9
S3150800229088600020DFF81414C8600020DFF80C14EA
S315080022A008610C20DFF8041448614FF44070DFF829
S315080022B0FC1388610020DFF8F413C861DFF8EC032B
S315080022C004F0C8F9002801D005F070F801BD10B572
S315080022D086B004002068DFF8C81388421ED1DFF8EC
S315080022E0D003006850F40030DFF8C4130860DFF844
S315080022F0C003006810F40030009000980C2001908C
S3150800230002200290012003900320049007200590E4
S3150800231001A9DFF8A00305F061F833E02068DFF8CB
S31508002320881388422ED1DFF88803006850F480208D
S31508002330DFF87C130860DFF87803006810F4802063
S31508002340009000984FF4406001900220029001200E
S315080023500390032004900720059001A9DFF858038D
S3150800236005F03CF84FF4C04001900220029000208E
S315080023700390032004900720059001A9DFF838038D
S3150800238005F02CF806B010BDF8B504000D002800BD
S31508002390FFF7EEFD0700BFB2512F01DB01203AE03F
S315080023A0E4B2002C19D1DFF814030078002801D014
S315080023B0022030E05FF0FF333A0092B22900DFF8DE
S315080023C0E40204F080F90600F6B2002E02D03000CE
S315080023D0C0B220E03000C0B21DE0E4B2012C19D131
S315080023E0DFF8DC020078002801D0022013E05FF055
S315080023F0FF333A0092B22900DFF8B00204F063F91D
S315080024000600F6B2002E02D03000C0B203E030005B
S31508002410C0B200E00120F2BDF8B504000D002800A6
S31508002420FFF7A6FD0700BFB2512F01DB012036E0FA
S31508002430E4B2002C17D1DFF884020078002801D016
S3150800244002202CE03A0092B22900DFF8580204F084
S31508002450B8F90600F6B2002E02D03000C0B21EE06F
S315080024603000C0B21BE0E4B2012C17D1DFF85002ED
S315080024700078002801D0022011E03A0092B2290023
S31508002480DFF8280204F09DF90600F6B2002E02D005
S315080024903000C0B203E03000C0B200E00120F2BD57
S315080024A0DFF8200270470120DFF81C120870704719
S315080024B0854800787047F8B504000D001600B6B2D6
S315080024C0512E01DB012032E0E4B2002C15D17B4805
S315080024D00078002801D0022029E0320092B22900B3
S315080024E0704804F0A6F90700FFB2002F02D03800A2
S315080024F0C0B21CE03800C0B219E0E4B2012C15D114
S315080025006F480078002801D0022010E0320092B20D
S315080025102900664804F08DF90700FFB2002F02D0A3
S315080025203800C0B203E03800C0B200E00120F2BDB6
S3150800253010B504002000C0B200F006F8012801D04A
S31508002540002000E0012010BD0100C9B2002903D116
S31508002550544890F8390007E0C9B2012903D1534815
S3150800256090F8390000E00420704701684C4A91420F
S3150800257003D10121514A117006E001684A4A914285
S3150800258002D101214E4A11707047C0B2002803D10A
S3150800259000214A4A117005E0C0B2012802D1002183
S315080025A0474A1170704770B5040020683C49884254
S315080025B003D10120414908704CE020683A49884215
S315080025C048D1FFF775FF002824D00320404908604A
S315080025D0FFF766FF3F4908603E4800684078401CA0
S315080025E00600002005003A48006885420BDA39489B
S315080025F00068007805F063FB36480068401C3549DA
S3150800260008606D1CEFE732480660314800682F49BC
S3150800261008601CE0FFF744FF2E490860002005000B
S315080026202B48006885420BDA2A480068007805F0CE
S3150800263046FB28480068401C264908606D1CEFE7E1
S3150800264003202349086022480068204908600120C1
S315080026501B49087070BD704714480068C06850F080
S31508002660800012490968C860704710480068C06849
S3150800267050F480700D490968C8600C4800684069C4
S3150800268050F0010009490968486108480068C068AF
S3150800269050F0200005490968C8607047000000002E
S315080026A0004400408C2E002000480040CC2E00201C
S315080026B0243802400000024000040240CC300020CA
S315080026C0CD30002028300020CE30002048000020E1
S315080026D0B8300020B43000200CB41CB5044604A859
S315080026E001900A46009401AB6946074878441830B9
S315080026F005F0DEFB009A0021117000285CBF0098E7
S31508002700001B16BC5DF80CFB5FF8FFFF024600E0F5
S31508002710521C1378002BFBD111F8013B137012F8E9
S31508002720013B002BF8D170471CB520208DF800001E
S3150800273001208DF8010008208DF8020000208DF890
S31508002740030000208DF8040000208DF80500684677
S3150800275006F07EFC0400E4B2002C05D0022C07D05B
S3150800276004D3032C06D007E0002006E0012004E08D
S31508002770032002E0012000E0012016BD2DE9FF47F5
S31508002780040000200500684606F010FD002835D133
S3150800279000988146009806F07FFD0022454B06F01A
S315080027A0A3FD06F089FE0600360202AA92460098A4
S315080027B006F072FD524606F095FE03F0E1FE8046ED
S315080027C05FF08740414606F0E9FE03F021FF070067
S315080027D017F0F007BE193200374914F10C00FFF75D
S315080027E07BFFA661484606F057FD02000B003349F9
S315080027F02000FFF771FF2800C0B200E0012004B0F6
S31508002800BDE8F08730B585B00400684606F0E4FCFC
S31508002810002801D0012046E001A806F0FEFC0028A9
S3150800282040D1019806F038FD254A264B06F05CFD96
S315080028300022254B06F01EFF03F0A2FE0500BDF898
S315080028400000A082019806F027FD02000B001F4930
S315080028502000FFF741FF280006F01EFD02000B00CE
S315080028601B49A01DFFF738FFBDF90000C0F307227A
S3150800287012B20F4914F10C00FFF72EFFBDF9000044
S3150800288000F0FF020A4902A8FFF726FF02A914F181
S315080028900C00FFF73BFF05A114F10C00FFF736FF0C
S315080028A0002000E0012005B030BD0000527700008E
S315080028B0B018010800000440B8180108C01801083B
S315080028C0CDCCCCCCCCCCFC3F00004040C81801088D
S315080028D0D018010810B596B000208DF80400002025
S315080028E08DF805004FF4FA700090002301AA0F2115
S315080028F0BA2003F0A6F80400E4B2002C07D14FF47E
S31508002900FA73012201A9BA2003F033F904009DF8ED
S315080029100400BD2801D1002000E0012016B010BD3A
S3150800292001200B4948700020094988700020DFF80B
S31508002930F81D08700020DFF8F01D48807047012058
S315080029400349087070470120014908707047000064
S315080029503C25002010B584B000200400DFF8300EB6
S315080029600078002800F0CC85DFF8240E807800284F
S3150800297008D0022837D02BD3042852D03ED30528B6
S3150800298062D076E0002000F0D9FE00281FD0DFF8DC
S31508002990780B01F0FEFE0400E4B2002C69D1DFF8E2
S315080029A06C0B01F06CFF0400E4B2002C61D1DFF877
S315080029B0600B01F0DAFF0400E4B2002C59D1DFF80D
S315080029C0540B02F04FF80400E4B2002C51D150E049
S315080029D0012000F0B3FE002804D0DFF83C0B02F01B
S315080029E041FC040045E0022000F0A8FE002804D0BF
S315080029F0DFF8280B02F0F6FD04003AE0032000F0A9
S31508002A009DFE00280CD0DFF8800CFFF7B7FE040007
S31508002A10E4B2002C2DD1DFF8080BFFF7F3FE040013
S31508002A2027E0042000F08AFE00280CD0DFF8980C76
S31508002A3002F007F90400E4B2002C1AD1DFF8E40A20
S31508002A4002F07EFA040014E0052000F077FE002864
S31508002A5005D0DFF8D40A01F03FFB040009E00620A0
S31508002A6000F06CFE002804D0DFF8BC0A00F0A0FFD6
S31508002A700400DFF81C0D8078401CDFF8141D8870F0
S31508002A80DFF80C0D8078082807DB0020DFF8001D2A
S31508002A9088700020DFF8F81C0870E4B2002C03D018
S31508002AA02000C0B200F02EBDDFF85C1BDFF85C0B1F
S31508002AB006F054FE002824D0012002F0E3FEDFF8D9
S31508002AC04C1BDFF8440BFFF787FBDFF83C1ADFF8EF
S31508002AD0400BFFF781FBDFF8300BFFF749FADFF809
S31508002AE0282B0100C9B2082005F003F8DFF8200BEF
S31508002AF0FFF73EFA0100DFF8182BC9B20C2004F0E4
S31508002B00F8FFDFF8881BDFF8880B06F027FE002899
S31508002B1024D0012002F0B6FEDFF8741BDFF86C0B38
S31508002B20FFF75AFBDFF8E419DFF8A00BFFF754FBB1
S31508002B30DFF8580BFFF71CFADFF8502B0100C9B273
S31508002B40102004F0D6FFDFF8840BFFF711FADFF840
S31508002B507C2B0100C9B2142004F0CBFFDFF8701BF0
S31508002B60DFF8700B06F0FAFD002824D0012002F0E9
S31508002B7089FEDFF8601BDFF8580BFFF72DFBDFF83F
S31508002B809019DFF8A80BFFF727FBDFF8440BFFF7D0
S31508002B90EFF9DFF83C2B0100C9B2182004F0A9FFB1
S31508002BA0DFF8880BFFF7E4F9DFF8802B0100C9B2DC
S31508002BB01C2004F09EFFDFF8781BDFF8780B06F080
S31508002BC0CDFD002824D0012002F05CFEDFF8641B4E
S31508002BD0DFF85C0BFFF700FBDFF83819DFF8580B56
S31508002BE0FFF7FAFADFF8480BFFF7C2F9DFF8402BD0
S31508002BF00100C9B2202004F07CFFDFF83C0BFFF788
S31508002C00B7F9DFF8342B0100C9B2242004F071FFAC
S31508002C10DFF8801BDFF8800B06F0A0FD002856D0F1
S31508002C20012002F02FFEDFF8701BDFF8680BFFF7B4
S31508002C30D3FADFF8E418DFF8640BFFF7CDFADFF80C
S31508002C40601BDFF8600BFFF7C7FADFF8E40BB0F894
S31508002C505600DFF83C1BA1F85600DFF8380BFFF7E3
S31508002C6087F9DFF8302B0100C9B2282004F041FFAC
S31508002C70DFF8280BFFF77CF9DFF8202B0100C9B233
S31508002C802C2004F036FFDFF81C0BFFF771F9DFF88C
S31508002C90142B0100C9B2302004F02BFF54208DF804
S31508002CA0000000208DF80100DFF8E40AB0F85600AD
S31508002CB08DF80200DFF8D80AB0F8560080B2000A8C
S31508002CC08DF803006A460421C82004F012FFDFF8D5
S31508002CD0641BDFF8640B06F041FD002846D001208E
S31508002CE002F0D0FDDFF8501BDFF8480BFFF774FA47
S31508002CF0DFF82818DFF8440BFFF76EFADFF8401BF9
S31508002D00DFF8400BFFF768FADFF83C1BDFF83C0BEF
S31508002D10FFF762FADFF81C0BFFF72AF9DFF8142B26
S31508002D200100C9B25D2004F0E4FEDFF8100BFFF7DE
S31508002D301FF9DFF8082B0100C9B2612004F0D9FE9B
S31508002D40DFF8000BFFF714F9DFF8F82A0100C9B21B
S31508002D50652004F0CEFEDFF8F40AFFF709F9DFF87C
S31508002D60EC2A0100C9B2692004F0C3FEDFF8E01AB4
S31508002D70DFF8E00A06F0F2FC002848D0012002F04D
S31508002D8081FDDFF8D01ADFF8C80AFFF725FADFF861
S31508002D90F818DFF8C40AFFF71FFADFF8940AD0F824
S31508002DA09800DFF8EC19C1F89800DFF8A40AFFF7D5
S31508002DB0DFF8DFF89C2A0100C9B2342004F099FE36
S31508002DC0DFF8940AFFF7D4F8DFF88C2A0100C9B2B5
S31508002DD0382004F08EFE50208DF80000DFF8B00988
S31508002DE0D0F898008DF80300DFF8A409D0F8980009
S31508002DF0000A8DF80200DFF89809D0F89800000C50
S31508002E008DF801006A460421F42004F072FEDFF80A
S31508002E104C1ADFF84C0A06F0A1FC002835D0012030
S31508002E2002F030FDDFF8381ADFF8300AFFF7D4F978
S31508002E30DFF8EC16DFF82C0AFFF7CEF9DFF8281AC8
S31508002E40DFF8280AFFF7C8F9DFF8100AFFF790F845
S31508002E50DFF8082A0100C9B23C2004F04AFEDFF870
S31508002E60040AFFF785F8DFF8FC290100C9B24020FB
S31508002E7004F03FFEDFF8F409FFF77AF8DFF8EC29EB
S31508002E800100C9B2442004F034FEDFF8E419DFF883
S31508002E90E40906F063FC002845D0012002F0F2FCA4
S31508002EA0DFF8D019DFF8C809FFF796F9DFF8181820
S31508002EB0DFF8C409FFF790F9DFF87409B0F8C20023
S31508002EC0DFF8CC18A1F8C200DFF8A409FFF750F81C
S31508002ED0DFF89C290100C9B2482004F00AFEDFF891
S31508002EE09809FFF745F8DFF890290100C9B24C2088
S31508002EF004F0FFFD48208DF80000DFF89408B0F8CC
S31508002F00C2008DF80200DFF88808B0F8C20080B267
S31508002F10000A8DF8010000208DF803006A46032197
S31508002F20F02004F0E6FDDFF85419DFF8540906F03E
S31508002F3015FC00283DD0012002F0A4FCDFF840195A
S31508002F40DFF83809FFF748F9DFF8D815DFF834094C
S31508002F50FFF742F9DFF83019DFF83009FFF73CF9D7
S31508002F60DFF8CC08B0F8D800DFF82418A1F8D800A4
S31508002F70DFF80809FEF7FCFFDFF800290100C9B2EF
S31508002F80502004F0B6FDDFF8FC08FEF7F1FFDFF885
S31508002F90F4280100C9B2542004F0ABFDDFF8EC08B0
S31508002FA0FEF7E6FFDFF8E4280100C9B2582004F06E
S31508002FB0A0FDDFF8DC18DFF8DC0806F0CFFB0028F8
S31508002FC024D0012002F05EFCDFF8C818DFF8C0083C
S31508002FD0FFF702F9DFF85015DFF8BC08FFF7FCF831
S31508002FE0DFF8AC08FEF7C4FFDFF8A4280100C9B271
S31508002FF07F2004F07EFDDFF8A008FEF7B9FFDFF8B2
S3150800300098280100C9B2832004F073FDDFF88C18F4
S31508003010DFF88C0806F0A2FB002845D0012002F054
S3150800302031FCDFF87C18DFF87408FFF7D5F8DFF80D
S315080030307418DFF87408FFF7CFF8DFF8F407B0F86C
S315080030409001DFF84C17A1F89001DFF85008FEF759
S315080030508FFFDFF848280100C9B2872004F049FD30
S31508003060DFF84408FEF784FFDFF83C280100C9B200
S315080030708B2004F03EFD54208DF8000001208DF8C9
S315080030800100DFF80C07B0F890018DF80200DFF8B0
S315080030900007B0F8900180B2000A8DF803006A466E
S315080030A00421CC2004F025FDDFF80018DFF800081D
S315080030B006F054FB002845D0012002F0E3FBDFF8B8
S315080030C0F017DFF8E807FFF787F8DFF8E817DFF803
S315080030D0E807FFF781F8DFF85807B0F8A601DFF828
S315080030E0B016A1F8A601DFF8C407FEF741FFDFF81E
S315080030F0BC270100C9B28F2004F0FBFCDFF8B80733
S31508003100FEF736FFDFF8B0270100C9B2932004F0B6
S31508003110F0FC54208DF8000002208DF80100DFF83D
S315080031207006B0F8A6018DF80200DFF86406B0F85C
S31508003130A60180B2000A8DF803006A460421D02051
S3150800314004F0D7FCDFF87417DFF8740706F006FBFF
S31508003150002845D0012002F095FBDFF86417DFF858
S315080031605C07FFF739F8DFF85C17DFF85C07FFF74D
S3150800317033F8DFF8BC06B0F8BC01DFF81416A1F87E
S31508003180BC01DFF83807FEF7F3FEDFF83027010049
S31508003190C9B2972004F0ADFCDFF82C07FEF7E8FE6D
S315080031A0DFF824270100C9B29B2004F0A2FC5420B2
S315080031B08DF8000004208DF80100DFF8D405B0F87A
S315080031C0BC018DF80200DFF8C805B0F8BC0180B272
S315080031D0000A8DF803006A460421D42004F089FC0D
S315080031E0DFF8E816DFF8E80606F0B8FA002845D052
S315080031F0012002F047FBDFF8D816DFF8D006FEF705
S31508003200EBFFDFF8D016DFF8D006FEF7E5FFDFF8AC
S315080032102006B0F8D201DFF87815A1F8D201DFF858
S31508003220AC06FEF7A5FEDFF8A4260100C9B29F206A
S3150800323004F05FFCDFF8A006FEF79AFEDFF8982692
S315080032400100C9B2A32004F054FC54208DF80000F4
S3150800325004208DF80100DFF83805B0F8D2018DF8A2
S315080032600200DFF82C05B0F8D20180B2000A8DF80A
S3150800327003006A460421D82004F03BFCDFF85C16FC
S31508003280DFF85C0606F06AFA002845D0012002F04D
S31508003290F9FADFF84C16DFF84406FEF79DFFDFF86B
S315080032A04416DFF84406FEF797FFDFF88405B0F802
S315080032B0E801DFF8DC14A1F8E801DFF82006FEF7DC
S315080032C057FEDFF818260100C9B2A72004F011FC42
S315080032D0DFF81406FEF74CFEDFF80C260100C9B22B
S315080032E0AB2004F006FC54208DF8000005208DF86C
S315080032F00100DFF89C04B0F8E8018DF80200DFF859
S315080033009004B0F8E80180B2000A8DF803006A4616
S315080033100421DC2004F0EDFBDFF8D015DFF8D0053A
S3150800332006F01CFA002845D0012002F0ABFADFF8B7
S31508003330C015DFF8B805FEF74FFFDFF8B815DFF858
S31508003340B805FEF749FFDFF8E804B0F8FE01DFF834
S315080033504014A1F8FE01DFF89405FEF709FEDFF830
S315080033608C250100C9B2AF2004F0C3FBDFF888053D
S31508003370FEF7FEFDDFF880250100C9B2B32004F090
S31508003380B8FB54208DF8000006208DF80100DFF800
S315080033900004B0F8FE018DF80200DFF8F403B0F877
S315080033A0FE0180B2000A8DF803006A460421E02077
S315080033B004F09FFBDFF84415DFF8440506F0CEF964
S315080033C0002845D0012002F05DFADFF83415DFF851
S315080033D02C05FEF701FFDFF82C15DFF82C05FEF7A4
S315080033E0FBFEDFF84C04B0F81402DFF8A413A1F8CA
S315080033F01402DFF80805FEF7BBFDDFF8002501001B
S31508003400C9B2B72004F075FBDFF8FC04FEF7B0FD7F
S31508003410DFF8F4240100C9B2BB2004F06AFB54208B
S315080034208DF8000007208DF80100DFF86403B0F876
S3150800343014028DF80200DFF85803B0F8140280B2BF
S31508003440000A8DF803006A460421E42004F051FBC3
S31508003450DFF8B814DFF8B80406F080F9002842D07F
S31508003460012002F00FFADFF8A814DFF8A004FEF72F
S31508003470B3FEDFF8A014DFF8A004FEF7ADFEDFF810
S31508003480B003B0F82A02C249A1F82A02DFF87C0480
S31508003490FEF76EFDDFF874240100C9B2BF2004F000
S315080034A028FBDFF87404FEF763FDDFF86C240100DF
S315080034B0C9B2C32004F01DFB54208DF80000082073
S315080034C08DF80100B248B0F82A028DF80200B0481B
S315080034D0B0F82A0280B2000A8DF803006A46042171
S315080034E0E82004F006FBAA484078002808D0002007
S315080034F0A7494870DFF824240C21FC2004F0F9FAC7
S315080035002000C0B204B010BD1323002022230020DF
S315080035103223002042230020522300206823002063
S31508003520AC230020D42300207624002000B585B0E3
S31508003530022002F0A7F9FEF769FDDFF8E403FEF7BB
S31508003540A8FDDFF8E003FEF7C4FDDFF8DC03FEF7AD
S31508003550E1FDDFF8D803FEF7FFFD012002F092F93E
S31508003560DFF8BC03FEF704FDDFF8B4230100C9B297
S315080035706E2004F0BEFA012002F084F9DFF8A403F5
S31508003580FEF7F6FCDFF89C230100C9B2722004F0AE
S31508003590B0FA012002F076F9DFF88C03FEF7E8FCB2
S315080035A0DFF884230100C9B2762004F0A2FA0120CC
S315080035B002F068F9DFF87403FEF7DAFCDFF86C232B
S315080035C00100C9B27A2004F094FA00F026F900281E
S315080035D014D155484288501C5349488092B2DFF8A6
S315080035E050136846FFF778F86846FEF7C1FC6A4646
S315080035F00100C9B240F2211004F07BFA022002F061
S315080036004FF905B000BD0000472500201B23002008
S315080036103F25002080B504F086FA002821D0002036
S31508003620C449088000F0F9F8002814D0C248008878
S31508003630401CC1490880C0480088072822DB0221AF
S315080036400E2006F0C3F80020BB49088000F0E1F818
S3150800365002F057FC16E00020B749088000F0E0F8B1
S3150800366010E0B4480088401CB2490880B148008878
S31508003670132807DB02210D2006F0A8F800F0C9F888
S3150800368002F03FFC01BD00009023002057250020D2
S315080036902B2300200020A94908700020A74948705C
S315080036A00020A64908710020A449C8700020A34933
S315080036B088700020A14948710020A049887100201F
S315080036C09E49C87170470000C22300204E2500207D
S315080036D0672500203B230020C0B200280BD0022813
S315080036E00FD00BD3042812D00ED3062815D011D329
S315080036F0072815D017E0914A117014E08F4A5170C7
S3150800370011E08E4A91700EE08C4AD1700BE08B4A1C
S31508003710117108E0894A517105E0884A917102E001
S31508003720864AD171FFE770476C3000205E2500207D
S31508003730762500204A2300206E2500200100C9B204
S3150800374000290BD002290FD00BD3042912D00ED38F
S31508003750062915D011D3072915D017E07748007820
S3150800376015E07648407812E0744880780FE0734890
S31508003770C0780CE07148007909E07048407906E0A5
S315080037806E48807903E06D48C07900E000207047F4
S315080037903C2500208A2500205E2300207E25002067
S315080037A0582300208425002010B500240020FFF7A8
S315080037B0C5FF002800D0641C0120FFF7BFFF0028C2
S315080037C000D0A41C0220FFF7B9FF002800D0241D52
S315080037D00320FFF7B3FF002800D008340420FFF7C2
S315080037E0ADFF002800D010340520FFF7A7FF0028FA
S315080037F000D020340620FFF7A1FF002800D040346F
S315080038000720FFF79BFF002800D08034200080B2F5
S3150800381010BD00204A4948807047494800787047DB
S3150800382001204749087070470020454908707047CD
S3150800383010230020AC25002080230020942500209A
S31508003840702300209C25002078230020A425002032
S31508003850C82500209C230020BC250020E425002044
S31508003860B8230020D8250020B2230020DE2500201A
S31508003870F6250020CA230020EE2500200C2600206D
S31508003880E023002000260020DA2300200626002058
S31508003890AE26002082240020A2260020C42600206E
S315080038A0982400208C240020B8260020DA26002040
S315080038B0AE240020A2240020CE260020F0260020D8
S315080038C0C4240020B8240020E4260020062700206F
S315080038D0DA240020CE240020FA2600201C27002007
S315080038E0F0240020E424002010270020322700209E
S315080038F006250020FA240020262700204827002035
S315080039001C250020102500203C2700205E270020CB
S315080039103225002026250020522700209C17010862
S3150800392016260020392600205C2600207F26002047
S31508003930A8180108C0300020C23000205C300020E2
S315080039406C30002038B50020050000208DF80000F6
S31508003950280003009BB26A461221142002F03DF8A3
S315080039600400E4B2002C1FD1642002F03DF90400E3
S31508003970E4B2002C02D02000C0B217E00222694649
S31508003980142002F011F90400E4B2002C09D16420D5
S3150800399002F02AF90400E4B2002C05D02000C0B2D7
S315080039A004E02000C0B201E02000C0B232BD000031
S315080039B02DE9F04F85B004000020039000208DF813
S315080039C00000039803009BB26A461221142002F0F5
S315080039D004F80700FFB2002F23D1642002F004F98F
S315080039E00700FFB2002F02D03800C0B2B9E20222A7
S315080039F06946142002F0D8F80700FFB2002F0DD14F
S31508003A00642002F0F1F80700FFB2002F02D0380058
S31508003A10C0B2A6E2FFB2002F69D105E03800C0B2F5
S31508003A209FE23800C0B29CE29DF801004FF4807115
S31508003A309DF8002001FB002082461FFA8AFAD34629
S31508003A400A209BFBF0F005F00FFF0500DFF85C0C81
S31508003A50290005F0A3FD05F01FFC05F01FFF05F082
S31508003A6015FD0600280005F017FCDFF8442CDFF8E2
S31508003A70443C05F039FC0022DFF83C3C05F0FAFD31
S31508003A8002F07EFD8146A682280005F005FC0200AC
S31508003A900B00DFF8281C2000FEF71EFE484605F03E
S31508003AA0FBFB02000B00DFF8181CA01DFEF714FE36
S31508003AB0300080B2020A92B2DFF8081C14F10C003A
S31508003AC0FEF70AFEB6B206F0FF02DFF8F81B01A8F9
S31508003AD0FEF702FE01A914F10C00FEF717FEB2A1CB
S31508003AE014F10C00FEF712FE0020804602E03800B2
S31508003AF0C0B236E2B8F1080F80F231820020039096
S31508003B0000208DF80000039803009BB26A4618F15E
S31508003B101301C9B2142001F060FF0700FFB2002F9D
S31508003B2024D1642002F060F80700FFB2002F02D00B
S31508003B303800C0B215E202226946142002F034F8B1
S31508003B400700FFB2002F0ED1642002F04DF80700DF
S31508003B50FFB2002F02D03800C0B202E2FFB2002F37
S31508003B6040F0FA8105E03800C0B2FAE13800C0B288
S31508003B70F7E19DF801004FF480719DF8002001FBE4
S31508003B80002082461FFA8AFAD3460A209BFBF0F0E9
S31508003B9005F06AFE0500DFF8140B290005F0FEFCA7
S31508003BA005F07AFB05F07AFE05F070FC06002800A1
S31508003BB005F072FBDFF8F82ADFF8F83A05F094FB0F
S31508003BC00022DFF8F43A05F055FD02F0D9FC8146EB
S31508003BD0B8F1000F14D0B8F1020F7AD044D3B8F177
S31508003BE0040F00F0E380C0F0A980B8F1060F00F0DA
S31508003BF04781C0F01081B8F1070F00F07681A8E17F
S31508003C006685280005F048FB02000B00DFF8AC1AB1
S31508003C1014F11600FEF760FD484605F03DFB02006C
S31508003C200B00DFF89C1A14F11C00FEF755FD300056
S31508003C3080B2020A92B2DFF88C1A14F12200FEF75B
S31508003C404BFDB6B206F0FF02DFF8781A01A8FEF7B8
S31508003C5043FD01A914F12200FEF758FD52A114F103
S31508003C602200FEF753FD74E1A4F84060280005F031
S31508003C7013FB02000B00DFF8441A14F12C00FEF7C0
S31508003C802BFD484605F008FB02000B00DFF8301A4A
S31508003C9014F13200FEF720FD300080B2020A92B21B
S31508003CA0DFF8201A14F13800FEF716FDB6B206F052
S31508003CB0FF02DFF8101A01A8FEF70EFD01A914F19C
S31508003CC03800FEF723FD38A114F13800FEF71EFD73
S31508003CD03FE1A4F85660280005F0DEFA02000B0062
S31508003CE0DFF8D81914F14200FEF7F6FC484605F04D
S31508003CF0D3FA02000B00DFF8C81914F14800FEF7E2
S31508003D00EBFC300080B2020A92B2DFF8B81914F15F
S31508003D104E00FEF7E1FCB6B206F0FF02DFF8A41982
S31508003D2001A8FEF7D9FC01A914F14E00FEF7EEFC36
S31508003D301DA114F14E00FEF7E9FC0AE1A4F86C6037
S31508003D40280005F0A9FA02000B00DFF8701914F133
S31508003D505800FEF7C1FC484605F09EFA02000B0023
S31508003D60DFF85C1914F15E00FEF7B6FC300080B28D
S31508003D70020A92B2DFF84C1914F16400FEF7ACFCA3
S31508003D80B6B206F0FF02DFF83C1901A8FEF7A4FC5C
S31508003D9001A914F16400FEF7B9FC03A114F164004B
S31508003DA0FEF7B4FCD5E000BF52770000A4F88260A5
S31508003DB0280005F071FA02000B00DFF8001914F16B
S31508003DC06E00FEF789FC484605F066FA02000B000D
S31508003DD0DFF8EC1814F17400FEF77EFC300080B2B0
S31508003DE0020A92B2DFF8DC1814F17A00FEF774FCC6
S31508003DF0B6B206F0FF02DFF8CC1801A8FEF76CFC95
S31508003E0001A914F17A00FEF781FC57A114F17A0092
S31508003E10FEF77CFC9DE0A4F89860280005F03CFAC3
S31508003E2002000B00DFF8941814F18400FEF754FC26
S31508003E30484605F031FA02000B00DFF8841814F141
S31508003E408A00FEF749FC300080B2020A92B2DFF817
S31508003E50741814F19000FEF73FFCB6B206F0FF02A4
S31508003E60DFF8601801A8FEF737FC01A914F19000E5
S31508003E70FEF74CFC3CA114F19000FEF747FC68E005
S31508003E80A4F8AE60280005F007FA02000B00DFF878
S31508003E902C1814F19A00FEF71FFC484605F0FCF9A9
S31508003EA002000B00DFF8181814F1A000FEF714FC46
S31508003EB0300080B2020A92B2DFF8081814F1A600A0
S31508003EC0FEF70AFCB6B206F0FF02DFF8F81701A8FB
S31508003ED0FEF702FC01A914F1A600FEF717FC22A1C1
S31508003EE014F1A600FEF712FC33E0A4F8C46028001B
S31508003EF005F0D2F902000B00DFF8C01714F1B00084
S31508003F00FEF7EAFB484605F0C7F902000B00DFF8A2
S31508003F10B01714F1B600FEF7DFFB300080B2020AD4
S31508003F2092B2DFF8A01714F1BC00FEF7D5FBB6B2C3
S31508003F3006F0FF02DFF88C1701A8FEF7CDFB01A9F2
S31508003F4014F1BC00FEF7E2FB07A114F1BC00FEF772
S31508003F50DDFB18F10108CDE53800C0B201E03800F4
S31508003F60C0B205B0BDE8F08F5277000038B5002022
S31508003F7004000120050000208DF8000000208DF8BF
S31508003F800100280003009BB26A460021D02001F0F8
S31508003F9024FD0400E4B2002C1ED1642001F024FEA6
S31508003FA00400E4B2002C02D02000C0B248E0012090
S31508003FB0050001208DF8000000208DF8010028007A
S31508003FC003009BB26A460221D02001F006FD0400D8
S31508003FD0E4B2002C22D102E02000C0B230E0642016
S31508003FE001F002FE0400E4B2002C02D02000C0B2A8
S31508003FF026E00120050020208DF8000000208DF81D
S315080040000100280003009BB26A460721D02001F070
S31508004010E4FC0400E4B2002C10D102E02000C0B297
S315080040200EE0642001F0E0FD0400E4B2002C02D0AA
S315080040302000C0B204E02000C0B201E02000C0B2F7
S3150800404032BD38B5012005003F208DF8000000205C
S315080040508DF80100280003009BB26A460121D02092
S3150800406001F0BBFC0400E4B2002C22D1642001F06C
S31508004070BBFD0400E4B2002C02D02000C0B22AE046
S315080040804FF47A7001F0CDFD0120050000208DF86F
S31508004090000000208DF80100280003009BB26A4644
S315080040A00121D02001F099FC0400E4B2002C10D1C3
S315080040B002E02000C0B20EE0642001F095FD040085
S315080040C0E4B2002C02D02000C0B204E02000C0B246
S315080040D001E02000C0B232BD2DE9F04F89B00400DE
S315080040E00020029000208DF80C00029803009BB275
S315080040F003AA0E21D02001F070FC0700FFB2002FA2
S3150800410024D1642001F070FD0700FFB2002F02D011
S315080041103800C0B2C5E2022203A9D02001F044FD4E
S315080041200700FFB2002F0ED1642001F05DFD0700E5
S31508004130FFB2002F02D03800C0B2B2E2FFB2002FA1
S3150800414040F07F8005E03800C0B2AAE23800C0B26D
S31508004150A7E29DF80D004FF480719DF80C2001FB35
S31508004160002082465FEA0A5007D51FFA8AFADFF866
S31508004170580550EA0A00834602E01FFA8AFAD3462F
S31508004180584602F06DF90022DFF8403505F0ACF824
S3150800419002F0F6F906003000DFF8341505F0A0FB4A
S315080041A001D896F00046DFF80405310005F0F6F967
S315080041B005F072F805F072FB05F068F905003000A5
S315080041C005F06AF8DFF8E824DFF8E83405F08CF83B
S315080041D00022DFF8E43405F04DFA02F0D1F9814601
S315080041E0A582300005F058F802000B00DFF8CC1461
S315080041F02000FEF771FA484605F04EF802000B005B
S31508004200DFF8BC14A01DFEF767FA280080B2020A80
S3150800421092B2DFF8B01414F10C00FEF75DFAADB2F5
S3150800422005F0FF02DFF89C146846FEF755FA694662
S3150800423014F10C00FEF76AFA9CA114F10C00FEF7C3
S3150800424065FA0020029000208DF80C000298030001
S315080042509BB203AAC021D02001F0BFFB0700FFB222
S31508004260002F24D1642001F0BFFC0700FFB2002F05
S3150800427002D03800C0B214E2102203A9D02001F0FF
S3150800428093FC0700FFB2002F0ED1642001F0ACFCAE
S315080042900700FFB2002F02D03800C0B201E2FFB219
S315080042A0002F40F0FC8105E03800C0B2F9E1380083
S315080042B0C0B2F6E100208046B8F1080F80F2EF811F
S315080042C003A800EB480040784FF4807103AA12F85F
S315080042D0182001FB002082465FEA0A5007D51FFA1C
S315080042E08AFADFF8E40350EA0A00834602E01FFA76
S315080042F08AFAD346584602F0B3F80022DFF8D433D8
S3150800430004F0F2FF02F03CF906005FEA4A5007D5CE
S315080043101FFA8AFADFF8C00350EA0A00834602E069
S315080043201FFA8AFAD346E148310005F037F904F056
S31508004330B3FF05F0B3FA05F0A9F80500300004F05C
S31508004340ABFFDB4ADB4B04F0CFFF0022DA4B05F06C
S3150800435091F902F015F98146B8F1000F14D0B8F1B9
S31508004360020F72D040D3B8F1040F00F0D280C0F02B
S315080043709F80B8F1060F00F02E81C0F0FB80B8F1DF
S31508004380070F00F0598187E16585300004F084FF46
S3150800439002000B00C94914F11600FEF79DF94846BC
S315080043A004F07AFF02000B00C54914F11C00FEF761
S315080043B093F9280080B2020A92B2C24914F1220087
S315080043C0FEF78AF9ADB205F0FF02BE496846FEF768
S315080043D083F9694614F12200FEF798F933A114F11E
S315080043E02200FEF793F957E1A4F84050300004F094
S315080043F053FF02000B00B14914F12C00FEF76CF9CB
S31508004400484604F049FF02000B00AD4914F132009A
S31508004410FEF762F9280080B2020A92B2A94914F19D
S315080044203800FEF759F9ADB205F0FF02A54968460E
S31508004430FEF752F9694614F13800FEF767F91BA131
S3150800444014F13800FEF762F926E1A4F85650300058
S3150800445004F022FF02000B00984914F14200FEF70F
S315080044603BF9484604F018FF02000B00944914F182
S315080044704800FEF731F9280080B2020A92B2914943
S3150800448014F14E00FEF728F9ADB205F0FF028D498A
S315080044906846FEF721F9694614F14E00FEF736F92B
S315080044A002A114F14E00FEF731F9F5E0527700004B
S315080044B0A4F86C50300004F0EFFE02000B007F49B0
S315080044C014F15800FEF708F9484604F0E5FE020024
S315080044D00B007B4914F15E00FEF7FEF8280080B257
S315080044E0020A92B2774914F16400FEF7F5F8ADB204
S315080044F005F0FF0273496846FEF7EEF8694614F1BF
S315080045006400FEF703F968A114F16400FEF7FEF8EB
S31508004510C2E0A4F88250300004F0BEFE02000B0090
S31508004520664914F16E00FEF7D7F8484604F0B4FE63
S3150800453002000B00624914F17400FEF7CDF828005A
S3150800454080B2020A92B25F4914F17A00FEF7C4F803
S31508004550ADB205F0FF025B496846FEF7BDF869464D
S3150800456014F17A00FEF7D2F84FA114F17A00FEF79B
S31508004570CDF891E0A4F89850300004F08DFE0200C2
S315080045800B004E4914F18400FEF7A6F8484604F0DD
S3150800459083FE02000B004A4914F18A00FEF79CF8D4
S315080045A0280080B2020A92B2464914F19000FEF73A
S315080045B093F8ADB205F0FF0242496846FEF78CF85B
S315080045C0694614F19000FEF7A1F837A114F190009E
S315080045D0FEF79CF860E0A4F8AE50300004F05CFEEC
S315080045E002000B00354914F19A00FEF775F84846A3
S315080045F004F052FE02000B00314914F1A000FEF748
S315080046006BF8280080B2020A92B22E4914F1A6006D
S31508004610FEF762F8ADB205F0FF022A496846FEF7D2
S315080046205BF8694614F1A600FEF770F81EA114F1AE
S31508004630A600FEF76BF82FE0A4F8C450300004F08B
S315080046402BFE02000B001D4914F1B000FEF744F8DA
S31508004650484604F021FE02000B00194914F1B60081
S31508004660FEF73AF8280080B2020A92B2154914F108
S31508004670BC00FEF731F8ADB205F0FF0211496846F5
S31508004680FEF72AF8694614F1BC00FEF73FF806A1C2
S3150800469014F1BC00FEF73AF818F101080CE63800E8
S315080046A0C0B209B0BDE8F08F527700000000204183
S315080046B0CDCCCCCCCCCCFC3F0000404068190108DE
S315080046C0701901087819010800F8FFFF0000B03FCB
S315080046D0010080440000D03F00FCFFFF7CB50020AD
S315080046E00500012D2CDA00200400200003009BB2EF
S315080046F001AA0521822001F070F90600322001F096
S3150800470090FAF6B2002E19D1642001F06DFA06006F
S31508004710F6B2002E12D1022201A9822001F044FA33
S315080047200600322001F07DFAF6B2002E06D164208A
S3150800473001F05AFA0600F6B2002E01D06D1CD0E739
S31508004740012D02DB3000C0B222E09DF804001028DB
S3150800475005D19DF80500622801D1002018E0322015
S3150800476001F05FFA0220040010208DF80400622090
S315080047708DF805004FF4FA700090200003009BB2F4
S3150800478001AA0521822001F05CF906003000C0B2BA
S3150800479076BD2DE9F04184B0040000200600002013
S315080047A00600012E26DA00200500280003009BB229
S315080047B06A460121822001F010F90700FFB2002F96
S315080047C016D1642001F010FA0700FFB2002F0FD1AE
S315080047D002226946822001F0E7F90700FFB2002F9E
S315080047E006D1642001F000FA0700FFB2002F01D0BD
S315080047F0761CD6E7012E02DB3800C0B23CE0FFB2D9
S31508004800002F37D19DF80020D54914F10800FDF78F
S3150800481063FF9DF80120D24901A8FDF75DFF01A9B4
S3150800482014F10800FDF772FF8DA114F10800FDF7D9
S315080048306DFF9DF800004FF480719DF8012001FB83
S31508004840002001F00DFEC74AC74B04F04DFD0022BB
S31508004850C64B04F049FD01F093FE8046404604F03D
S315080048601BFD02000B00C2492000FDF735FF38008A
S31508004870C0B201E03800C0B204B0BDE8F0812DE94D
S31508004880F04184B004000020060000200600012E36
S3150800489026DA00200500280003009BB26A46042198
S315080048A0822001F09AF80700FFB2002F16D1642083
S315080048B001F09AF90700FFB2002F0FD102226946CC
S315080048C0822001F071F90700FFB2002F06D164209B
S315080048D001F08AF90700FFB2002F01D0761CD6E74F
S315080048E0012E02DB3800C0B23CE0FFB2002F37D100
S315080048F09DF800209A4914F10900FDF7EDFE9DF890
S315080049000120974901A8FDF7E7FE01A914F109005E
S31508004910FDF7FCFE52A114F10900FDF7F7FE9DF81C
S3150800492000004FF480719DF8012001FB002001F082
S3150800493097FD904A904B04F0D7FC00228B4B04F06D
S31508004940D3FC01F01DFE8046404604F0A5FC02009B
S315080049500B008A492000FDF7BFFE3800C0B201E00F
S315080049603800C0B204B0BDE8F0812DE9F04184B04A
S3150800497004000020060000200600012E26DA00208A
S315080049800500280003009BB26A460321822001F035
S3150800499024F80700FFB2002F16D1642001F024F98D
S315080049A00700FFB2002F0FD102226946822001F0CC
S315080049B0FBF80700FFB2002F06D1642001F014F9B6
S315080049C00700FFB2002F01D0761CD6E7012E02DBC6
S315080049D03800C0B240E0FFB2002F3BD19DF800205E
S315080049E05F4914F10900FDF777FE9DF801205C493F
S315080049F001A8FDF771FE01A914F10900FDF786FE6D
S31508004A0017A114F10900FDF781FE9DF800004FF487
S31508004A1080719DF8012001FB002001F021FD584A14
S31508004A20584B04F061FC0022574B04F05DFC002251
S31508004A304E4B04F059FC01F0A3FD8046404604F0B5
S31508004A402BFC02000B0051492000FDF745FE3800FB
S31508004A50C0B201E03800C0B204B0BDE8F081000081
S31508004A60527700002DE9F04184B0040000200600CA
S31508004A7000200600012E26DA002005002800030083
S31508004A809BB26A460221822000F0A7FF0700FFB208
S31508004A90002F16D1642001F0A7F80700FFB2002FF7
S31508004AA00FD102226946822001F07EF80700FFB284
S31508004AB0002F06D1642001F097F80700FFB2002FF7
S31508004AC001D0761CD6E7012E02DB3800C0B23FE0E3
S31508004AD0FFB2002F3AD19DF80020214914F10800B1
S31508004AE0FDF7FAFD9DF801201D4901A8FDF7F4FD23
S31508004AF001A914F10800FDF709FE17A114F1080031
S31508004B00FDF704FE15A101A8FDF700FE9DF80000BB
S31508004B104FF480719DF8012001FB0020042190FBD1
S31508004B20F1F001F09DFC1A4A1A4B04F0DDFB01F086
S31508004B3027FD8046404604F0AFFB02000B001649ED
S31508004B402000FDF7C9FD3800C0B201E03800C0B248
S31508004B5004B0BDE8F0810000527700000D0A00009D
S31508004B60001A0108F168E388B5F8E43E00408F4072
S31508004B70081A0108C41D519C0100303F101A01088B
S31508004B80CDAD41134B62B03E0088C340181A0108E8
S31508004B90FCA9F1D24D62703F201A010838B50120F0
S31508004BA0050005208DF8000000208DF8010028007A
S31508004BB003009BB26A461021BE2000F00EFF0400D7
S31508004BC0E4B2002C0DD1642001F00EF80400E4B222
S31508004BD0002C02D02000C0B232E0E4B2002C03D18F
S31508004BE005E02000C0B22BE02000C0B228E0032078
S31508004BF0050081208DF8000000208DF801000020B6
S31508004C008DF8020000208DF80300280003009BB2EF
S31508004C106A46A021BE2000F0E0FE0400E4B2002CA3
S31508004C200CD1642000F0E0FF0400E4B2002C02D0AE
S31508004C302000C0B204E02000C0B201E02000C0B2EB
S31508004C4032BD2DE9F04F85B0040000200500002094
S31508004C50804600208DF80000404603009BB26A4655
S31508004C60B021BE2000F0B9FE0500EDB2002D3ED100
S31508004C70642000F0B9FF0500EDB2002D02D028002F
S31508004C80C0B257E102226946BE2000F08DFF05003A
S31508004C90EDB2002D28D1642000F0A6FF0500EDB284
S31508004CA0002D02D02800C0B244E19DF80000C0B231
S31508004CB04008C0B281469DF80100C0B24008C0B2A3
S31508004CC0ADF806000020804600208DF8000040461A
S31508004CD003009BB26A46B621BE2000F07EFE0500A0
S31508004CE0EDB2002D3FD105E02800C0B222E1280030
S31508004CF0C0B21FE1642000F077FF0500EDB2002D79
S31508004D0002D02800C0B215E102226946BE2000F092
S31508004D104BFF0500EDB2002D22D1642000F064FFA0
S31508004D200500EDB2002D02D02800C0B202E19DF8C0
S31508004D3001009DF8001051EA0020824600208046B6
S31508004D4000208DF80000404603009BB26A46BA214F
S31508004D50BE2000F042FE0500EDB2002D40D105E070
S31508004D602800C0B2E6E02800C0B2E3E0642000F004
S31508004D703BFF0500EDB2002D02D02800C0B2D9E0F5
S31508004D8002226946BE2000F00FFF0500EDB2002D95
S31508004D9023D1642000F028FF0500EDB2002D02D0D3
S31508004DA02800C0B2C6E09DF801009DF8001051EA3F
S31508004DB00020ADF80A000020804600208DF800008B
S31508004DC0404603009BB26A46A821BE2000F005FEB5
S31508004DD00500EDB2002D66D105E02800C0B2A9E0B5
S31508004DE02800C0B2A6E0642000F0FEFE0500EDB281
S31508004DF0002D02D02800C0B29CE002226946BE20DF
S31508004E0000F0D2FE0500EDB2002D49D1642000F075
S31508004E10EBFE0500EDB2002D02D02800C0B289E0F5
S31508004E209DF801009DF8001051EA0020ADF8080031
S31508004E30BDF908000FFA8AFAB0EB0A0004F014FD6F
S31508004E408346BDF906000FFA89F9B0EB090004F0AC
S31508004E500BFDDFF8E01304F0A1FB594604F09EFBB6
S31508004E600600BDF90A000FFA8AFAB0EB0A0004F048
S31508004E70FBFC0100300004F045FD06000FFA89F935
S31508004E800A2000FB09F004F0EFFC310004F0B8FD3D
S31508004E9006003000DFF8A01304F022FD09D805E06B
S31508004EA02800C0B246E02800C0B243E0DFF88C0311
S31508004EB00600300001F0ACFB20823000DD4904F02A
S31508004EC021FD04F0E9F902000B00DD492000FDF799
S31508004ED003FC208A80B2020A92B2DA4914F1080069
S31508004EE0FDF7FAFB207C00F0FF02D64903A8FDF780
S31508004EF0F3FB03A914F10800FDF708FC0FA114F150
S31508004F000800FDF703FC3000CA4904F0FBFCCE4953
S31508004F1004F076FD0700CD48390004F03FFB070092
S31508004F20380001F075FBADF80400BDF804002082D6
S31508004F302800C0B205B0BDE8F08F00005277000027
S31508004F402DE9F04F89B004000020050000208146B5
S31508004F5000208DF81000484603009BB204AAB2212F
S31508004F60BE2000F03AFD0500EDB2002D31D16420D7
S31508004F7000F03AFE0500EDB2002D02D02800C0B2BE
S31508004F8053E102226946BE2000F00EFE0500EDB28E
S31508004F90002D1BD1642000F027FE0500EDB2002D80
S31508004FA002D02800C0B240E10020814600208DF8DA
S31508004FB01000484603009BB204AAB521BE2000F0A3
S31508004FC00CFD0500EDB2002D55D105E02800C0B254
S31508004FD02BE12800C0B228E1642000F005FE050098
S31508004FE0EDB2002D02D02800C0B21EE1012201A9AF
S31508004FF0BE2000F0D9FD0500EDB2002D38D16420A1
S3150800500000F0F2FD0500EDB2002D02D02800C0B276
S315080050100BE19DF8040010F003009DF8001051EA1A
S315080050200020ADF80A009DF8040010F00C009DF869
S31508005030011051EA8010ADF80800BDF90A00C01049
S315080050408246BDF90800C010ADF80600002081466A
S3150800505000208DF81000484603009BB204AABC2124
S31508005060BE2000F0BAFC0500EDB2002D48D105E0DF
S315080050702800C0B2D9E02800C0B2D6E0642000F00B
S31508005080B3FD0500EDB2002D02D02800C0B2CCE079
S3150800509004226946BE2000F087FD0500EDB2002D0A
S315080050A02BD1642000F0A0FD0500EDB2002D02D042
S315080050B02800C0B2B9E09DF801009DF8001051EA39
S315080050C0002083469DF803009DF8021051EA00204F
S315080050D0ADF80E000020814600208DF810004846E5
S315080050E003009BB204AAAA21BE2000F076FC0500A4
S315080050F0EDB2002D40F0978005E02800C0B294E09C
S315080051002800C0B291E0642000F06EFD0500EDB203
S31508005110002D02D02800C0B287E002226946BE20D0
S3150800512000F042FD0500EDB2002D79D1642000F0B3
S315080051305BFD0500EDB2002D02D02800C0B274E078
S315080051409DF801009DF8001051EA0020ADF80C000A
S31508005150BDF90C000FFA8BFBB0EB0B00BDF906107E
S315080051600FFA8AFAB1EB0A0148430A2148430600B6
S31508005170BDF90E000FFA8BFBB0EB0B00B6FBF0F097
S315080051800FFA8AFA0A2101FB0A0630008046300027
S3150800519004F074FB07003800264904F0B3FB070047
S315080051A0380004F079F82A4A2A4B04F09DF80022C0
S315080051B0294B04F05FFA01F0E3F90690A4F814808D
S315080051C0380004F069F802000B0024492000FDF7B6
S315080051D083FA069804F060F802000B002049A01D27
S315080051E0FDF77AFA404680B2020A92B2154914F1DE
S315080051F00C00FDF771FA1FFA88F808F0FF0211494A
S3150800520007A8FDF769FA07A914F10C00FDF77EFA5D
S3150800521007A114F10C00FDF779FA2800C0B204E0E2
S315080052202800C0B201E02800C0B209B0BDE8F08F7E
S31508005230527700000000204101007A4400007A44B9
S3150800524080190108881901080000C04000000344BD
S31508005250CDCCCCCCCCCCFC3F00004040901901080A
S31508005260981901082DE9FE4F040000208346002006
S315080052708DF80000584603009BB26A460021942028
S3150800528000F0ABFB0700FFB2002F23D1642000F02B
S31508005290ABFC0700FFB2002F02D03800C0B282E094
S315080052A002226946942000F07FFC0700FFB2002F17
S315080052B00DD1642000F098FC0700FFB2002F02D041
S315080052C03800C0B26FE0FFB2002F6AD105E038009F
S315080052D0C0B268E03800C0B265E09DF800004FF43F
S315080052E080719DF8012001FB002040110600700521
S315080052F004D5B6B22E483043814601E0B6B2B1466F
S31508005300484601F0ADF800225FF07F5303F0ECFF4A
S3150800531001F036F980462748414604F03FF903F084
S31508005320BBFF04F0BBFA04F0B1F80500404603F0F1
S31508005330B3FF214A214B03F0D7FF0022204B04F08C
S3150800534099F901F01DF98246A582404603F0A4FFAB
S3150800535002000B001B492000FDF7BEF9504603F07A
S315080053609BFF02000B001849A01DFDF7B5F92800A0
S3150800537080B2020A92B2154914F10C00FDF7ACF995
S31508005380ADB205F0FF02114901A8FDF7A5F901A97B
S3150800539014F10C00FDF7BAF904A114F10C00FDF79D
S315080053A0B5F93800C0B2BDE8FE8F00BF52770000DD
S315080053B000FCFFFF00002041CDCCCCCCCCCCFC3F80
S315080053C000004040E8190108F0190108F819010819
S315080053D038B5032005001D208DF8000000208DF843
S315080053E0010000208DF80200280003009BB26A46DF
S315080053F00121882000F0F1FA0400E4B2002C0CD157
S31508005400642000F0F1FB0400E4B2002C02D0200076
S31508005410C0B204E02000C0B201E02000C0B232BD34
S3150800542070B582B004000320060020788DF80000CD
S3150800543060788DF80100A0788DF80200300003002E
S315080054409BB26A460121882000F0C7FA0500EDB232
S31508005450002D0CD1642000F0C7FB0500EDB2002D2D
S3150800546002D02800C0B204E02800C0B201E028003B
S31508005470C0B276BD38B50120050046208DF800007B
S31508005480280003009BB26A460021882000F0A5FA8E
S315080054900400E4B2002C0CD1642000F0A5FB040043
S315080054A0E4B2002C02D02000C0B204E02000C0B252
S315080054B001E02000C0B232BD70B582B00400002001
S315080054C0060000208DF80000300003009BB26A46F3
S315080054D00021882000F081FA0500EDB2002D23D1C5
S315080054E0642000F081FB0500EDB2002D02D02800F3
