S02E0000526F616420426F61726420526576204D2E3520424153454C494E4520446563203920323031362E737265637A
S3150800000050110020ED170108051A0108091A010800
S315080000100D1A0108111A0108151A01080000000036
S31508000020000000000000000000000000EF000108CA
S31508000030191A0108000000009D0001087101010855
S315080000401D1A0108211A0108251A0108291A01088A
S315080000502D1A0108311A0108351A0108391A01083A
S315080000603D1A0108411A0108451A010879010108D3
S31508000070491A01084D1A0108511A0108551A0108AA
S31508000080591A01085D1A0108611A0108651A01085A
S3150800009083010108691A01086D1A0108711A010815
S315080000A0751A0108791A01087D1A0108811A0108CA
S315080000B0BF010108C90101088D010108AB0101084A
S315080000C0B5010108851A0108891A01088D1A01085F
S315080000D0911A0108951A0108A1010108970101085A
S315080000E0991A01089D1A0108A11A01085D29000834
S315080000F0A51A010800000000A91A0108AD1A01088E
S31508000100B11A0108B51A0108B91A0108BD1A010879
S31508000110C11A0108C51A0108C91A01080000000019
S31508000120CD1A01082DE9F04FADF5317D0400200008
S3150800013001F026FF0500207830282FD031283CD042
S31508000140322860D0332800F08480342800F0A78055
S31508000150352800F0CA80362800F01F81412800F0B3
S315080001602781422800F05B82432800F06E844428E9
S3150800017000F0FA85452800F03587462800F03987CB
S31508000180472800F04987482800F0B787502801F02B
S315080001906D82542801F0878201F08EBD01F03EFF82
S315080001A082465FFA8AFABAF1000F04D1DFF8941D85
S315080001B010A802F019F801F083BD8FA801F071FFAD
S315080001C08246DFF8841D10A802F00EF810A9002058
S315080001D002F0E2F882465FFA8AFABAF1000F03D013
S315080001E05046C0B201F0EDBDDFF8141E10A802F0AB
S315080001F07BFA8FA910A802F091FAD2A110A802F0F2
S315080002008DFA01F05DBD8FA801F06BFF8246DFF81D
S31508000210F41D10A801F0E8FF10A9002002F0BCF8B0
S3150800022082465FFA8AFABAF1000F03D05046C0B286
S3150800023001F0C7BDDFF8D01D10A802F055FA8FA946
S3150800024010A802F06BFABFA110A802F067FA01F035
S3150800025037BD8FA801F066FF8246DFF8B01D10A8EB
S3150800026001F0C2FF10A9002002F096F882465FFA54
S315080002708AFABAF1000F03D05046C0B201F0A1BD08
S31508000280DFF88C1D10A802F02FFA8FA910A802F02B
S3150800029045FAACA110A802F041FA01F011BD8FA8E9
S315080002A001F062FF8246DFF86C1D10A801F09CFF82
S315080002B010A9002002F070F882465FFA8AFABAF1AD
S315080002C0000F03D05046C0B201F07BBDDFF8E41D35
S315080002D010A802F009FA8FA910A802F01FFA99A12E
S315080002E010A802F01BFA01F0EBBC01F06FFE3B9080
S315080002F0DFF8C41D10A801F077FF8FA801F0D1FE22
S31508000300824610A9002002F047F882465FFA8AFA68
S31508000310BAF1000F03D05046C0B201F052BD00201A
S315080003208146BAA110A802F0DFF900208346BBF186
S31508000330800F2BDA3B9810F80B20DFF8841D0AA8EB
S3150800034002F0D2F90AA910A802F0E8F919F1010990
S31508000350B9F1100F17DB7BA110A802F0DFF9002016
S31508000360814610A9002002F017F882465FFA8AFA39
S31508000370BAF1000F03D05046C0B201F022BDA3A1C6
S3150800038010A802F0B1F91BF1010BD0E7DFF8341D14
S3150800039010A802F0A9F901F093BC0020824601F0EA
S315080003A005FFDFF8241D10A801F01EFF01F088BC28
S315080003B0EDB2012D00F03181607836282FD038282B
S315080003C000F0A480392800F00A81492840F02081ED
S315080003D002F0B2F982465FFA8AFABAF1000F05D13D
S315080003E0DFF8F01D10A801F0FFFE17E0DFF8E81DA2
S315080003F010A801F0F9FE8DF834A010A9002001F02C
S31508000400CBFF82465FFA8AFABAF1000F03D050464C
S31508000410C0B201F0D6BC9DF834008246FDE098A82B
S3150800042002F0B4F982465FFA8AFABAF1000F54D19B
S31508000430DFF8041E10A801F0D7FE10A9002001F06D
S31508000440ABFF82465FFA8AFABAF1000F03D050462C
S31508000450C0B201F0B6BCDFF8E41D10A802F044F9FA
S3150800046010A9002001F098FF82465FFA8AFABAF1CD
S31508000470000F03D05046C0B201F0A3BCDFF8C01D80
S3150800048010A802F031F998A910A802F047F92DA191
S3150800049010A802F043F910A9002001F07DFF82465A
S315080004A05FFA8AFABAF1000F03D05046C0B201F0DB
S315080004B088BCDFF8901D10A802F016F99BA910A8B1
S315080004C002F02CF99E9ADFF8801D0AA802F00CF9B2
S315080004D00AA910A802F022F917E0DFF8FC1D10A8F7
S315080004E001F082FE8DF834A010A9002001F054FF17
S315080004F082465FFA8AFABAF1000F03D05046C0B2B4
S3150800050001F05FBC9DF83400824686E031A802F00F
S3150800051081F982465FFA8AFABAF1000F2DD1DFF81F
S31508000520041E10A801F060FE10A9002001F034FF97
S3150800053082465FFA8AFABAF1000F05D05046C0B271
S3150800054001F03FBC0D0A0000DFF8DC1D10A802F020
S31508000550CBF80DF1D20110A802F0E0F8B8A110A866
S3150800056002F0DCF810A9002001F016FF82465FFAB7
S315080005708AFABAF1000F01D104E04EE05046C0B243
S3150800058001F01FBCBDF8DA20DFF8E81D10A802F05C
S31508000590ABF810A9002001F0FFFE82465FFA8AFA3E
S315080005A0BAF1000F03D05046C0B201F00ABCDFF81A
S315080005B0C81D10A802F098F831A910A802F0AEF8E4
S315080005C0DFF8FC1D10A802F0A9F80DF1CB0110A860
S315080005D002F0A4F89AA110A802F0A0F81DE002F013
S315080005E081F982465FFA8AFABAF1000F05D1DFF877
S315080005F0D41D10A801F0F8FD06E0DFF8CC1D10A800
S3150800060001F0F2FD0020824607E000BF000000006E
S31508000610DFF8B81D10A801F0E7FD01F051BBEDB2F7
S31508000620012D40F0F580052002F0D4FF002804D003
S3150800063045A803F0B1FC82460BE0062002F0CAFF8B
S31508000640002804D045A803F013F9824601E00120EA
S3150800065082465FFA8AFABAF1000F40F0D780DFF8CF
S31508000660DC1D10A801F0C0FD10A9002001F094FEC1
S3150800067082465FFA8AFABAF1000F03D05046C0B232
S3150800068001F09FBB00208346BBF1090F80F2AB80C7
S31508000690BBF1000F10D0BBF1020F2BD01BD3BBF15F
S315080006A0040F45D035D3BBF1060F5FD04FD3BBF14E
S315080006B0080F79D069D385E0BDF82A01019046A8CC
S315080006C0C01C009045AB0DF59172DFF8741D10A89B
S315080006D002F00AF876E0BDF8420101904CA8C01C69
S315080006E000904BAB0DF59D72DFF8FC1D10A801F0CC
S315080006F0FBFF67E0BDF85A01019052A8C01C0090A4
S3150800070051AB0DF5A972DFF8E41D10A801F0ECFF56
S3150800071058E0BDF87201019058A8C01C009057AB6C
S315080007200DF5B572DFF8C81D10A801F0DDFF49E028
S31508000730BDF88A0101905EA8C01C00905DAB0DF55E
S31508000740C172DFF8B01D10A801F0CEFF3AE0BDF87F
S31508000750A201019064A8C01C009063AB0DF5CD7290
S31508000760DFF8941D10A801F0BFFF2BE0BDF8BA0111
S3150800077001906AA8C01C009069AB0DF5D972DFF824
S315080007807C1D10A801F0B0FF1CE0BDF8D201019055
S3150800079070A8C01C00906FAB0DF5E572DFF8601D00
S315080007A010A801F0A1FF0DE0BDF8EA01019076A8B6
S315080007B0C01C009075AB0DF5F172DFF8481D10A846
S315080007C001F092FF10A9002001F0E6FD82465FFACB
S315080007D08AFABAF1000F03D05046C0B201F0F1BA56
S315080007E01BF1010B50E7DFF8201D10A801F07CFF74
S315080007F039A910A801F092FF11A110A801F08EFFE7
S31508000800DFF8081D10A801F06FFF1CE101F058BAC7
S315080008106078302816D0312800F00881492840F041
S31508000820128103F003FB82465FFA8AFABAF1000FD7
S3150800083004D1DFF8DC1C10A801F0D6FC03E100BFE8
S315080008400D0A0000052002F0C5FE002804D045A8C0
S3150800085003F0A2FB82460BE0062002F0BBFE00284E
S3150800086004D045A803F004F8824601E00120824638
S315080008705FFA8AFABAF1000F40F0D780DFF8BC1B9E
S3150800088010A801F0B1FC10A9002001F085FD8246F0
S315080008905FFA8AFABAF1000F03D05046C0B201F0E7
S315080008A090BA00208346BBF1090F80F2AB80BBF1FA
S315080008B0000F10D0BBF1020F2BD01BD3BBF1040FD6
S315080008C045D035D3BBF1060F5FD04FD3BBF1080F28
S315080008D079D069D385E0BDF82A01019046A8C01CE5
S315080008E0009045AB0DF59172DFF8541B10A801F086
S315080008F0FBFE76E0BDF8420101904CA8C01C0090B2
S315080009004BAB0DF59D72DFF8E01B10A801F0ECFE6D
S3150800091067E0BDF85A01019052A8C01C009051AB7F
S315080009200DF5A972DFF8C41B10A801F0DDFE58E02A
S31508000930BDF87201019058A8C01C009057AB0DF580
S31508000940B572DFF8AC1B10A801F0CEFE49E0BDF881
S315080009508A0101905EA8C01C00905DAB0DF5C172BE
S31508000960DFF8901B10A801F0BFFE3AE0BDF8A2011F
S31508000970019064A8C01C009063AB0DF5CD72DFF83A
S31508000980781B10A801F0B0FE2BE0BDF8BA01019063
S315080009906AA8C01C009069AB0DF5D972DFF85C1B1C
S315080009A010A801F0A1FE1CE0BDF8D201019070A8C4
S315080009B0C01C00906FAB0DF5E572DFF8441B10A85C
S315080009C001F092FE0DE0BDF8EA01019076A8C01C80
S315080009D0009075AB0DF5F172DFF8281B10A801F031
S315080009E083FE10A9002001F0D7FC82465FFA8AFA36
S315080009F0BAF1000F03D05046C0B201F0E2B91BF1BC
S31508000A00010B50E7DFF8001B10A801F06DFE39A9AD
S31508000A1010A801F083FED3A110A801F07FFEDFF82D
S31508000A20EC1A10A801F060FE0DE00CE003F069FA7C
S31508000A3082465FFA8AFABAF1000F04D1DFF88C1DF4
S31508000A4010A801F0D1FB01F03BB9EDB2012D47D159
S31508000A5037A803F067FF82465FFA8AFABAF1000FF1
S31508000A602AD1DFF8F41D10A801F0BEFB10A900205A
S31508000A7001F092FC82465FFA8AFABAF1000F03D0B7
S31508000A805046C0B201F09DB9DFF8D01D10A801F09C
S31508000A902BFE39A910A801F041FEB2A110A801F059
S31508000AA03DFE10A9002001F077FC82465FFA8AFA1B
S31508000AB0BAF1000F02D105E001F002B95046C0B202
S31508000AC001F07FB9DFF89C1D10A801F00DFE37A9CB
S31508000AD010A801F023FEA3A110A801F01FFE3EE115
S31508000AE06078302818D031285DD0322800F0A380ED
S31508000AF0332800F0E880492840F02C8103F04EFDA9
S31508000B0082465FFA8AFABAF1000F04D1DFF8E01DCF
S31508000B1010A801F069FB22E137A803F09AFD824686
S31508000B205FFA8AFABAF1000F2AD1DFF8101910A86D
S31508000B3001F05AFB10A9002001F02EFC82465FFA4C
S31508000B408AFABAF1000F03D05046C0B201F039B99B
S31508000B50DFF8B41910A801F0C7FD39A910A801F0EB
S31508000B60DDFD80A110A801F0D9FD10A9002001F033
S31508000B7013FC82465FFA8AFABAF1000F01D104E043
S31508000B80EDE05046C0B201F01CB9DFF8CC1D10A844
S31508000B9001F0AAFD37A910A801F0C0FD71A110A89F
S31508000BA001F0BCFDDBE0ADA803F0C9FD82465FFAA3
S31508000BB08AFABAF1000F2BD1DFF8A01D10A801F0B0
S31508000BC013FB10A9002001F0E7FB82465FFA8AFAB8
S31508000BD0BAF1000F03D05046C0B201F0F2B8DFF800
S31508000BE0801D10A801F080FDAFA9491C10A801F0CE
S31508000BF095FD5CA110A801F091FD10A9002001F057
S31508000C00CBFB82465FFA8AFABAF1000F01D104E0FB
S31508000C10A5E05046C0B201F0D4B8DFF8481D10A8C8
S31508000C2001F062FDADA910A801F078FD4DA110A84C
S31508000C3001F074FD93E0A9A803F0F7FD82465FFA78
S31508000C408AFABAF1000F2BD1DFF81C1D10A801F0A3
S31508000C50CBFA10A9002001F09FFB82465FFA8AFAB8
S31508000C60BAF1000F03D05046C0B201F0AAB8DFF8B7
S31508000C70F81D10A801F038FDABA9491C10A801F011
S31508000C804DFD38A110A801F049FD10A9002001F07A
S31508000C9083FB82465FFA8AFABAF1000F01D104E0B3
S31508000CA05DE05046C0B201F08CB8DFF8C01D10A850
S31508000CB001F01AFDA9A910A801F030FD29A110A874
S31508000CC001F02CFD4BE037A803F02CFE82465FFAB4
S31508000CD08AFABAF1000F2AD1DFF87C1B10A801F0B6
S31508000CE083FA10A9002001F057FB82465FFA8AFAB8
S31508000CF0BAF1000F03D05046C0B201F062B8DFF86F
S31508000D005C1B10A801F0F0FC39A910A801F006FD3B
S31508000D1014A110A801F002FD10A9002001F03CFB67
S31508000D2082465FFA8AFABAF1000F01D104E016E0AA
S31508000D305046C0B201F045B8DFF8281B10A801F0EC
S31508000D40D3FC37A910A801F0E9FC06A110A801F008
S31508000D50E5FC04E0DFF8741610A801F045FA00F087
S31508000D60AFBF00BF0D0A0000EDB2012D5CD140A84F
S31508000D7003F0C7FE82465FFA8AFABAF1000F2AD153
S31508000D80DFF8A81D10A801F02FFA10A9002001F01D
S31508000D9003FB82465FFA8AFABAF1000F03D050467F
S31508000DA0C0B201F00EB8DFF8DC1D10A801F09CFCFB
S31508000DB042A910A801F0B2FCC0A110A801F0AEFC2F
S31508000DC010A9002001F0E8FA82465FFA8AFABAF119
S31508000DD0000F02D105E000F073BF5046C0B200F024
S31508000DE0F0BFBDF81021DFF8A01D10A801F07CFCAB
S31508000DF010A9002001F0D0FA82465FFA8AFABAF101
S31508000E00000F03D05046C0B200F0DBBFDFF87C1DF0
S31508000E1010A801F069FC40A910A801F07FFCA7A161
S31508000E2010A801F07BFCDBE06078302812D031286E
S31508000E306CD0492840F0D48003F010FE82465FFA51
S31508000E408AFABAF1000F04D1DFF8441D10A801F0A0
S31508000E50CBF9C5E040A803F054FE82465FFA8AFA49
S31508000E60BAF1000F2AD1DFF8C41C10A801F0BCF9AA
S31508000E7010A9002001F090FA82465FFA8AFABAF1C0
S31508000E80000F03D05046C0B200F09BBFDFF8F41C39
S31508000E9010A801F029FC42A910A801F03FFC87A17F
S31508000EA010A801F03BFC10A9002001F075FA824653
S31508000EB05FFA8AFABAF1000F01D104E090E05046D1
S31508000EC0C0B200F07EBFBDF81021DFF8BC1C10A828
S31508000ED001F00AFC10A9002001F05EFA82465FFACA
S31508000EE08AFABAF1000F03D05046C0B200F069BFC3
S31508000EF0DFF8981C10A801F0F7FB40A910A801F02C
S31508000F000DFC6EA110A801F009FC69E031A803F0F8
S31508000F1077FF82465FFA8AFABAF1000F2FD1DFF817
S31508000F200C1C10A801F060F910A9002001F034FA91
S31508000F3082465FFA8AFABAF1000F07D05046C0B265
S31508000F4000F03FBFE0030108740C0108DFF8D8136E
S31508000F5010A801F0C9FB0DF1D20110A801F0DEFBC3
S31508000F6056A110A801F0DAFB10A9002001F014FA26
S31508000F7082465FFA8AFABAF1000F01D104E02FE03F
S31508000F805046C0B200F01DBFBDF8DA20DFF8E41302
S31508000F9010A801F0A9FB10A9002001F0FDF982466E
S31508000FA05FFA8AFABAF1000F03D05046C0B200F0D1
S31508000FB008BFDFF8C41310A801F096FB31A910A8E2
S31508000FC001F0ACFBDFF8F81310A801F0A7FB0DF150
S31508000FD0CB0110A801F0A2FB38A110A801F09EFBD6
S31508000FE000F06EBEDFF8741D10A801F0FDF800F0E1
S31508000FF067BEDFF86C1D10A801F0F6F800F060BEB9
S31508001000241301089C0C010844130108C40C0108A8
S3150800101064130108EC0C010831A804F083F8824631
S315080010205FFA8AFABAF1000F2AD1DFF8381D10A83C
S3150800103001F0DAF810A9002001F0AEF982465FFA4D
S315080010408AFABAF1000F03D05046C0B200F0B9BE12
S31508001050B54910A801F048FB0DF1D20110A801F01E
S315080010605DFB16A110A801F059FB10A9002001F09C
S3150800107093F982465FFA8AFABAF1000F02D105E0BF
S3150800108000F01EBE5046C0B200F09BBEBDF8DA2086
S31508001090B84910A801F028FB10A9002001F07CF936
S315080010A082465FFA8AFABAF1000F0FD05046C0B2EC
S315080010B000F087BE84130108140D01080D0A00000C
S315080010C08819010878160108C4110108AA4910A848
S315080010D001F00AFB31A910A801F020FBB84910A8B5
S315080010E001F01CFB0DF1CB0110A801F017FBD2A1F2
S315080010F010A801F013FB00F0E3BDEDB2012D6FD18E
S315080011009FA804F0CFF982465FFA8AFABAF1000F6F
S3150800111064D1DFF8BC1C10A801F066F810A90020FD
S3150800112001F03AF982465FFA8AFABAF1000F03D05B
S315080011305046C0B200F045BEDFF8981C10A801F072
S31508001140D3FA10A9002001F027F982465FFA8AFA35
S31508001150BAF1000F03D05046C0B200F032BEDFF835
S31508001160781C10A801F040F8A5A910A801F0D6FA35
S31508001170B1A110A801F0D2FA10A9002001F00CF9CB
S3150800118082465FFA8AFABAF1000F03D05046C0B217
S3150800119000F017BEDFF8441C10A801F025F89FA937
S315080011A010A801F0BBFADFF8381C10A801F0B6FA4F
S315080011B0A1A910A801F0B2FADFF8281C10A801F0BE
S315080011C0ADFAA3A910A801F0A9FA9BA110A801F0ED
S315080011D0A5FA4AE23C0D0108640D010800F070BD4D
S315080011E06078302800F06381312800F0E2813228E7
S315080011F000F00382332800F00F82492840F030823D
S31508001200EDB2022D0ED104F043F882465FFA8AFA4F
S31508001210BAF1000F40F04A81DFF8CC1B10A800F0A5
S31508001220E3FF43E1EDB21D2D10D0DFF8C01B10A877
S3150800123000F0DAFF3AE100BF8C0D0108DC0701086F
S31508001240141801086C17010820180108A0783A2814
S3150800125017D160792E2814D1207A2E2811D1E07A58
S315080012602E280ED1A07B2E280BD1607C2E2808D1E3
S31508001270207D2E2805D1E07D2E2802D1A07E2E289D
S3150800128005D0DFF86C1B10A800F0AEFF0EE10020B9
S31508001290804600208346BBF1090F28DA032000FBAD
S315080012A00BF02044C0788DF82800032000FB0BF0D3
S315080012B0204400798DF8290000208DF82A000AA814
S315080012C000F008FE002809D1DFF8281B10A800F056
S315080012D08BFF012080460AE0B40D01080AA800F039
S315080012E01EFE7BA901F80B001BF1010BD3E79DF845
S315080012F0EC01082805DBDFF8001B10A800F074FFD6
S31508001300B3E19DF8EC0110F007008DF83D009DF85B
S31508001310ED0102280ADBDFF8E41A10A800F064FFE2
S31508001320A3E100BFDC0D01088C1601089DF8ED014C
S3150800133010F00100C0B2C0008DF83C009DF8EE0127
S31508001340022805DBDFF8B81A10A800F04DFF8CE17B
S315080013509DF8EE0110F00100C0B200018DF83B00C7
S315080013609DF8EF01022809DBDFF8981A10A800F0AB
S315080013703BFF7AE1A41301087C1701089DF8EF01E9
S3150800138010F00100C0B240018DF83A009DF8F00156
S31508001390402805DBDFF8701A10A800F025FF64E185
S315080013A09DF8F00110F03F008DF839009DF8F10125
S315080013B002280DDBDFF8541A10A800F015FF54E1D7
S315080013C08C170108040E01082C0E0108C413010825
S315080013D09DF8F10110F00100802148438DF838008E
S315080013E09DF8F201042805DBDFF8241A10A800F09E
S315080013F0FBFE3AE19DF8F20110F003008DF8370084
S315080014009DF8F301042805DBDFF8081A10A800F098
S31508001410EBFE2AE19DF8F30110F00300C0B280004C
S315080014208DF836009DF8F40102280BDBDFF8E81981
S3150800143010A800F0D9FE18E10D0A0000E81101080D
S31508001440140B01089DF8F40110F00100C0B2000168
S315080014508DF835009DF83D009DF83C1008189DF85C
S315080014603B1008189DF83A1008188DF8BC009DF82E
S3150800147039009DF8381008188DF8BD009DF837001A
S315080014809DF8361008189DF8351008188DF8BE0016
S315080014902FA803F025FF82465FFA8AFABAF1000FF1
S315080014A004D1DFF8781910A800F09EFEDDE09FA8A9
S315080014B003F0F8FF82465FFA8AFABAF1000F77D18D
S315080014C0DFF80C1910A800F08FFE10A9002000F014
S315080014D063FF82465FFA8AFABAF1000F1AD05046BD
S315080014E0C0B200F06EBC00BF540E01087C0E0108A5
S315080014F0A40E0108CC0E0108F40E01081C0F010801
S31508001500440F01086C0F010834150108A0160108DC
S3150800151014080108DFF8BC1810A801F0E5F810A9AE
S31508001520002000F039FF82465FFA8AFABAF1000F06
S3150800153003D05046C0B200F044BCDFF89C1810A88F
S3150800154000F052FEA5A910A801F0E8F8C4A110A859
S3150800155001F0E4F810A9002000F01EFF82465FFAA9
S315080015608AFABAF1000F03D05046C0B200F029BC7F
S31508001570DFF8681810A800F037FE9FA910A801F038
S31508001580CDF8DFF85C1810A801F0C8F8A1A910A8D2
S3150800159001F0C4F8DFF84C1810A801F0BFF8A3A9A9
S315080015A010A801F0BBF8AEA110A801F0B7F85CE0EE
S315080015B05BE03CA803F02BFF82465FFA8AFABAF191
S315080015C0000F19D1DFF8581810A800F00DFE9DF885
S315080015D0F020DFF850180AA801F086F80AA910A822
S315080015E001F09CF80DF1F10110A801F097F89CA103
S315080015F010A801F093F838E037E003F09BFE824626
S315080016005FFA8AFABAF1000F05D1DFF81C1810A89C
S3150800161000F0EAFD29E028E03EA803F0ADFE824688
S315080016205FFA8AFABAF1000F19D1DFF8001810A884
S3150800163000F0DAFD9DF8F820DFF8E8170AA801F0AF
S3150800164053F80AA910A801F069F80DF1F90110A8D4
S3150800165001F064F882A110A801F060F805E004E042
S31508001660DFF8CC1710A800F0BFFD29E360784428FE
S315080016700AD0552811D1042004F064F8DFF8B4170D
S3150800168010A800F0B1FD0DE0042004F069F8DFF8B9
S31508001690A81710A800F0A8FD04E0DFF8A01710A806
S315080016A000F0A2FD0CE3EDB2022D05DADFF8901783
S315080016B010A800F099FDFEE26078432800F06F82DA
S315080016C0442800F0E282492803D0522800F0E88234
S315080016D0EDE2EDB2092D05DADFF8681710A800F07B
S315080016E083FD5BE2A078512800F0C281C0F05282E7
S315080016F0532802D0C0F0A0804CE2E0783A2802D104
S31508001700A0792E2805D0DFF8401710A800F06CFD48
S3150800171091E020798DF8280060798DF8290000205D
S315080017208DF82A000AA800F0D5FB002805D1DFF8B5
S315080017301C1710A800F058FD7DE00AA800F0EFFB82
S315080017400600E0798DF82800207A8DF82900002017
S315080017508DF82A000AA800F0BDFB002805D1DFF89D
S31508001760F01610A800F040FD65E00AA800F0D7FBC7
S315080017700700002F06D13200DFF8D81610A800F0AF
S31508001780B3FF2EE00020804600208346BB4528DABA
S31508001790032000FB0BF02044807A8DF828000320F4
S315080017A000FB0BF02044C07A8DF8290000208DF844
S315080017B02A000AA800F08EFB002809D1DFF88C164B
S315080017C010A800F011FD012080460AE0400B010830
S315080017D00AA800F0A4FB7BA901F80B001BF1010B7A
S315080017E0D4E7B8F1000F05D13200DFF86C1610A85F
S315080017F000F07AFF00208346BB450DDA7BA810F877
S315080018000B20C9A10AA800F06FFF0AA910A800F0CA
S3150800181085FF1BF1010BEFE711A110A800F07EFF71
S315080018204FF4FA733800020092B27BA9300080B2F6
S3150800183004F0B4F88246B1E1E0783A2805D1A079F7
S315080018402E2802D1607A2E280ED0DFF8101610A89E
S3150800185000F0CAFC06E100BF940F01084C15010808
S315080018600D0A0000B416010820798DF82800607961
S315080018708DF8290000208DF82A000AA800F02AFB16
S31508001880002805D1DFF8D81510A800F0ADFCE9E06E
S315080018900AA800F044FB0600E0798DF82800207AB3
S315080018A08DF8290000208DF82A000AA800F012FBFE
S315080018B0002805D1DFF8AC1510A800F095FCD1E09A
S315080018C00AA800F02CFB0700A07A8DF82800E07A19
S315080018D08DF8290000208DF82A000AA800F0FAFAE7
S315080018E0002807D1DFF8801510A800F07DFCB9E0C4
S315080018F06C0B01080AA800F012FB2E90002F06D1E7
S315080019003200DFF8681510A800F0EEFE37E0002078
S31508001910804600208346BB4531DA032000FB0BF0E6
S315080019202044407B8DF82800032000FB0BF0204460
S31508001930807B8DF8290000208DF82A000AA800F07F
S31508001940C9FA002812D1DFF8281510A800F04CFCB7
S315080019500120804613E000BF641501080C12010837
S31508001960C81601089C170108E41301080AA800F024
S31508001970D6FA7BA901F80B001BF1010BCBE7B8F1EE
S31508001980000F05D13200DFF8EC1410A800F0ACFE09
S3150800199000208346BB450DDA7BA810F80B2062A110
S315080019A00AA800F0A1FE0AA910A800F0B7FE1BF1CC
S315080019B0010BEFE7C9A110A800F0B0FE4FF4FA73C7
S315080019C03800020092B27BA9300080B203F0E6FF2D
S315080019D082465FFA8AFABAF1000F10D14FF4FA7309
S315080019E02E98020092B27BA9300080B204F021F84A
S315080019F082465FFA8AFABAF1000F05D100E0CDE017
S31508001A00142004F051F882465FFA8AFABAF1000FF8
S31508001A1028D110A9002000F0BFFC82465FFA8AFA96
S31508001A20BAF1000F02D05046C0B2CAE1DFF8481436
S31508001A3010A800F059FE002083462E9883450DDA3B
S31508001A407BA810F80B2038A10AA800F04DFE0AA9B9
S31508001A5010A800F063FE1BF1010BEEE79FA110A88A
S31508001A6000F05CFE9AE000BFDC160108AC1701081E
S31508001A70E0783A2802D1A0792E2805D0DFF8FC13A1
S31508001A8010A800F0B1FB7CE020798DF82800607979
S31508001A908DF8290000208DF82A000AA800F01AFA05
S31508001AA0002805D1DFF8D81310A800F09DFB68E0E0
S31508001AB00AA800F034FA0600E0798DF82800207AA2
S31508001AC08DF8290000208DF82A000AA800F002FAED
S31508001AD0002805D1DFF8AC1310A800F085FB50E00C
S31508001AE00AA800F01CFA2E903200DFF8801310A81E
S31508001AF000F0FAFD4FF4FA732E98020092B27BA911
S31508001B00300080B203F095FF82465FFA8AFABAF18E
S31508001B10000F0DD1142003F0C7FF82465FFA8AFA38
S31508001B20BAF1000F2DD104E025782E007C150108A6
S31508001B3034E010A9002000F02FFC82465FFA8AFAEA
S31508001B40BAF1000F02D05046C0B23AE1CA4910A80D
S31508001B5000F0CAFD002083462E9883450DDA7BA83F
S31508001B6010F80B2099A10AA800F0BEFD0AA910A832
S31508001B7000F0D4FD1BF1010BEEE758A110A800F008
S31508001B80CDFD0BE09415010830120108BC170108B9
S31508001B90980B0108A64910A800F026FB8BE0052043
S31508001BA001F018FD002804D045A802F0F5F9824690
S31508001BB00BE0062001F00EFD002804D045A801F030
S31508001BC057FE824601E0012082465FFA8AFABAF198
S31508001BD0000F55D131A803F0A5FA82465FFA8AFAB2
S31508001BE0BAF1000F47D140A802F08BFF82465FFA90
S31508001BF08AFABAF1000F39D198A800F0C7FD8246D3
S31508001C005FFA8AFABAF1000F2BD198A8099040A872
S31508001C10089031A8079045A8069075A805906FA862
S31508001C20049069A8039063A802905DA8019057A83C
S31508001C30009051AB4BAA944910A800F055FD10A985
S31508001C40002000F0A9FB82465FFA8AFABAF1000F73
S31508001C5002D05046C0B2B4E08C4910A800F044FD4A
S31508001C6012E08B4910A800F03FFD0DE0894910A845
S31508001C7000F03AFD08E0884910A800F035FD03E0B9
S31508001C80864910A800F030FD15E001F0D7FCADF844
S31508001C903E00BDF83E20824910A800F025FD0AE066
S31508001CA004F08FF87F4910A800F01EFD03E0604994
S31508001CB010A800F099FA03E05D4910A800F094FA1C
S31508001CC05FFA8AFABAF1000F0AD0BAF1020F3ED0CB
S31508001CD007D3BAF1030F47D04DE000BF0D0A000045
S31508001CE04FE003F0D7FE3090309801280AD002283A
S31508001CF00DD0042810D0082813D0102816D0202874
S31508001D0019D01DE0684910A800F06EFA1CE0674972
S31508001D1010A800F069FA17E0654910A800F064FAFF
S31508001D2012E0644910A800F05FFA0DE0624910A8B5
S31508001D3000F05AFA08E0614910A800F055FA03E0E5
S31508001D405F4910A800F050FA03F07FFD19E05D49DD
S31508001D5010A800F049FA03F078FD12E0F809010826
S31508001D60AC150108F0160108574910A800F03CFA0E
S31508001D7003F06BFD05E0554910A800F035FA03F0AD
S31508001D8064FD10A9002000F007FB82465FFA8AFA74
S31508001D90BAF1000F02D05046C0B212E04C4910A862
S31508001DA000F022FA10A9002000F0F6FA82465FFA3F
S31508001DB08AFABAF1000F02D05046C0B201E0504686
S31508001DC0C0B20DF5317DBDE8F08F00BF25782E0035
S31508001DD0BC1401084C080108CC1701082C18010886
S31508001DE038180108441801080C03010824040108DE
S31508001DF0540301082C050108EC0601082807010808
S31508001E0064070108840801086C050108AC05010887
S31508001E10EC0501082C0601086C060108680401088F
S31508001E200414010890190108280901085412010828
S31508001E30C41301082414010844140108C40B01083A
S31508001E4064140108BC0F0108E40F0108F00B01082F
S31508001E505C090108C4150108041701080C100108DB
S31508001E601C0C010890090108A0070108DC150108E7
S31508001E703410010818170108501801085C100108E9
S31508001E80480C0108C4090108841001085C180108F7
S31508001E90F41501080C160108781201089C120108AD
S31508001EA024160108C0120108AC100108280A010806
S31508001EB0580A0108880A0108D4100108B80A010856
S31508001EC0FC100108241101084C11010874110108BD
S31508001ED098190108F8B50400200000F051F805002B
S31508001EE00020070000200600AE4216DAA05D3A2858
S31508001EF002DAA05D302805DAA05D472805DAA05D7C
S31508001F00412802DB0020070001E001200700012F1D
S31508001F1001D1002002E0761CE6E70120F2BD2DE99A
S31508001F20F041040000275FF00008200000F028F8C0
S31508001F30050000200600AE421ADAA05D3A2806DA45
S31508001F40A05D302803DBA05D303807000CE0A05DFB
S31508001F50472806DAA05D412803DBA05D373807006D
S31508001F6002E05FF0FF3004E017EB0818761CE2E7A2
S31508001F704046BDE8F0810268531C03601170704743
S31508001F8000F10103810704D010F8011B89B181070C
S31508001F90FAD10268B2F10131914311F0803F04BFD2
S31508001FA050F8042FF6E710F8011B11B110F8011BC1
S31508001FB0FBE7C01A7047000000210800802804DAF1
S31508001FC00021864A1154401CF8E770478448704738
S31508001FD070B504008021200004F01EF80500EDB25B
S31508001FE0002D02D02800C0B217E004F04CF8050016
S31508001FF000200600C82E0ADA04F045F80500EDB2FE
S31508002000002D04D0052003F06CFD761CF2E7C82EDF
S3150800201001DB032001E02800C0B270BD70B56E4830
S31508002020FFF7D6FF0600F6B2002E02D03000C0B287
S3150800203036E000200500802D05DA6748405D6849CE
S3150800204048556D1CF7E7FFF7B7FF002307226349DA
S31508002050614804F045F8050015F1010F01D101208A
S315080020601EE000200500402D18DA5B48405D5A49FD
S31508002070495D5A4A525D594B5B5D5A4301FB002044
S3150800208004F04EF904F064F904F0DAF904002000CB
S3150800209004F01EFA504948556D1CE4E73000C0B2FA
S315080020A070BD70B582B004000020050048A120006C
S315080020B000F01AFB00200600102E0BDA4648825D57
S315080020C04849684600F010FB6946200000F026FBE8
S315080020D0761CF1E73FA1200000F020FB2800C0B2E3
S315080020E076BD70B582B004000020050038A1200036
S315080020F000F0FAFA00200600102E0CDA36483044B2
S31508002100027C3849684600F0EFFA6946200000F07C
S3150800211005FB761CF0E72FA1200000F0FFFA280047
S31508002120C0B276BD70B582B004000020050028A1B3
S31508002130200000F0D9FA00200600102E0DDA2648F5
S31508002140304490F820202749684600F0CDFA6946C1
S31508002150200000F0E3FA761CEFE71EA1200000F04D
S31508002160DDFA2800C0B276BD70B582B00400002042
S31508002170050017A1200000F0B7FA00200600102E6F
S315080021800DDA1548304490F830201649684600F0B4
S31508002190ABFA6946200000F0C1FA761CEFE70DA1FC
S315080021A0200000F0BBFA2800C0B276BD0021080066
S315080021B080280ADA0021084A11540021074A1154D6
S315080021C00021074A1154401CF2E77047000000003E
S315080021D000000000426E0000F03000207031002040
S315080021E0F0310020A01901085FEA000C830706D029
S315080021F011F8013B00F8013BB3B18307F8D10A682F
S31508002200B2F1013323EA020313F0803F02BF40F81C
S31508002210042B51F8042FF3E711F8013B00F8013BB2
S3150800222013B111F8013BF9E76046704780B5DFF84E
S315080022308004DFF8801408604FF49640DFF87414C1
S3150800224048600020DFF86C1488600020DFF864140A
S31508002250C8600020DFF85C1408610C20DFF854140D
S3150800226048610020DFF84C1488610020DFF8441428
S31508002270C861DFF8400404F04DF9002801D004F0E5
S31508002280F5FF01BD80B5DFF83004DFF830140860CB
S315080022904FF41650DFF8241448600020DFF81C14A9
S315080022A088600020DFF81414C8600020DFF80C14DA
S315080022B008610C20DFF8041448614FF44070DFF819
S315080022C0FC1388610020DFF8F413C861DFF8EC031B
S315080022D004F020F9002801D004F0C8FF01BD10B5AC
S315080022E086B004002068DFF8C81388421ED1DFF8DC
S315080022F0D003006850F40030DFF8C4130860DFF834
S31508002300C003006810F40030009000980C2001907B
S3150800231002200290012003900320049007200590D4
S3150800232001A9DFF8A00304F0B9FF33E02068DFF85D
S31508002330881388422ED1DFF88803006850F480207D
S31508002340DFF87C130860DFF87803006810F4802053
S31508002350009000984FF440600190022002900120FE
S315080023600390032004900720059001A9DFF858037D
S3150800237004F094FF4FF4C040019002200290002020
S315080023800390032004900720059001A9DFF838037D
S3150800239004F084FF06B010BDF8B504000D0028004F
S315080023A0FFF7EEFD0700BFB2792F01DB01203AE007
S315080023B0E4B2002C19D1DFF814030078002801D004
S315080023C0022030E05FF0FF333A0092B22900DFF8CE
S315080023D0E40204F0D8F80600F6B2002E02D0300067
S315080023E0C0B220E03000C0B21DE0E4B2012C19D121
S315080023F0DFF8DC020078002801D0022013E05FF045
S31508002400FF333A0092B22900DFF8B00204F0BBF8B5
S315080024100600F6B2002E02D03000C0B203E030004B
S31508002420C0B200E00120F2BDF8B504000D00280096
S31508002430FFF7A6FD0700BFB2792F01DB012036E0C2
S31508002440E4B2002C17D1DFF884020078002801D006
S3150800245002202CE03A0092B22900DFF8580204F074
S3150800246010F90600F6B2002E02D03000C0B21EE007
S315080024703000C0B21BE0E4B2012C17D1DFF85002DD
S315080024800078002801D0022011E03A0092B2290013
S31508002490DFF8280204F0F5F80600F6B2002E02D09E
S315080024A03000C0B203E03000C0B200E00120F2BD47
S315080024B0DFF8200270470120DFF81C120870704709
S315080024C0854800787047F8B504000D001600B6B2C6
S315080024D0792E01DB012032E0E4B2002C15D17B48CD
S315080024E00078002801D0022029E0320092B22900A3
S315080024F0704804F0FEF80700FFB2002F02D038003B
S31508002500C0B21CE03800C0B219E0E4B2012C15D103
S315080025106F480078002801D0022010E0320092B2FD
S315080025202900664804F0E5F80700FFB2002F02D03C
S315080025303800C0B203E03800C0B200E00120F2BDA6
S3150800254010B504002000C0B200F006F8012801D03A
S31508002550002000E0012010BD0100C9B2002903D106
S31508002560544890F8390007E0C9B2012903D1534805
S3150800257090F8390000E00420704701684C4A9142FF
S3150800258003D10121514A117006E001684A4A914275
S3150800259002D101214E4A11707047C0B2002803D1FA
S315080025A000214A4A117005E0C0B2012802D1002173
S315080025B0474A1170704770B5040020683C49884244
S315080025C003D10120414908704CE020683A49884205
S315080025D048D1FFF775FF002824D00320404908603A
S315080025E0FFF766FF3F4908603E4800684078401C90
S315080025F00600002005003A48006885420BDA39488B
S315080026000068007805F0EBFA36480068401C354942
S3150800261008606D1CEFE732480660314800682F49AC
S3150800262008601CE0FFF744FF2E49086000200500FB
S315080026302B48006885420BDA2A480068007805F0BE
S31508002640CEFA28480068401C264908606D1CEFE74A
S3150800265003202349086022480068204908600120B1
S315080026601B49087070BD704714480068C06850F070
S31508002670800012490968C860704710480068C06839
S3150800268050F480700D490968C8600C4800684069B4
S3150800269050F0010009490968486108480068C0689F
S315080026A050F0200005490968C8607047000000001E
S315080026B000440040C4320020004800400433002093
S315080026C0243802400000024000040240043500207D
S315080026D0053500206034002006350020480000201B
S315080026E0F0340020EC3400200CB41CB5044604A8D1
S315080026F001900A46009401AB6946074878441830A9
S3150800270005F072FB009A0021117000285CBF009842
S31508002710001B16BC5DF80CFB5FF8FFFF024600E0E5
S31508002720521C1378002BFBD111F8013B137012F8D9
S31508002730013B002BF8D170471CB520208DF800000E
S3150800274001208DF8010008208DF8020000208DF880
S31508002750030000208DF8040000208DF80500684667
S3150800276006F012FC0400E4B2002C05D0022C07D0B7
S3150800277004D3032C06D007E0002006E0012004E07D
S31508002780032002E0012000E0012016BD2DE9FF47E5
S31508002790040000200500684606F0A4FC002835D190
S315080027A000988146009806F013FD0022454B06F076
S315080027B037FD06F01DFE0600360202AA924600986C
S315080027C006F006FD524606F029FE03F039FE80465D
S315080027D05FF08740414606F07DFE03F079FE07006C
S315080027E017F0F007BE193200374914F10C00FFF74D
S315080027F07BFFA661484606F0EBFC02000B00334956
S315080028002000FFF771FF2800C0B200E0012004B0E5
S31508002810BDE8F08730B585B00400684606F078FC58
S31508002820002801D0012046E001A806F092FC002805
S3150800283040D1019806F0CCFC254A264B06F0F0FC60
S315080028400022254B06F0B2FE03F0FAFD0500BDF89E
S315080028500000E082019806F0BBFC02000B001F494D
S315080028602000FFF741FF280006F0B2FC02000B002B
S315080028701B49E01DFFF738FFBDF90000C0F307222A
S3150800288012B20F4914F10E00FFF72EFFBDF9000032
S3150800289000F0FF020A4902A8FFF726FF02A914F171
S315080028A00E00FFF73BFF05A114F10E00FFF736FFF8
S315080028B0002000E0012005B030BD0000527700007E
S315080028C088180108000004409018010898180108A3
S315080028D0CDCCCCCCCCCCFC3F00004040A0180108A5
S315080028E0A818010810B5A0B000208DF80400002033
S315080028F08DF805004FF4FA700090002301AA0F2105
S31508002900BA2002F0FEFF0400E4B2002C07D14FF40F
S31508002910FA73012201A9BA2003F08BF804009DF886
S315080029200400BD2801D1002000E0012020B010BD20
S315080029300120DFF8001B48700020DFF8F81A8870BD
S315080029400020DFF8781D08700020DFF8701D488029
S3150800295070470120DFF8DC1A087070470120DFF89D
S31508002960D41A0870704710B584B000200400DFF848
S31508002970C40A0078002800F0ED84DFF8B80A8078E9
S31508002980002808D0022837D02BD3042852D03ED3AB
S31508002990052862D076E0002000F01CFE00281FD033
S315080029A0DFF8940A01F055FE0400E4B2002C69D160
S315080029B0DFF8880A01F0C3FE0400E4B2002C61D1F6
S315080029C0DFF8600B01F031FF0400E4B2002C59D1A6
S315080029D0DFF86C0A01F0A6FF0400E4B2002C51D11E
S315080029E050E0012000F0F6FD002804D0DFF8540A74
S315080029F002F098FB040045E0022000F0EBFD0028F9
S31508002A0004D0DFF8240B02F04DFD04003AE0032061
S31508002A1000F0E0FD00280CD0DFF8A00BFFF7B6FEAB
S31508002A200400E4B2002C2DD1DFF8000BFFF7F2FE0C
S31508002A30040027E0042000F0CDFD00280CD0DFF8C4
S31508002A40E80B02F05EF80400E4B2002C1AD1DFF8B5
S31508002A50140B02F0D5F9040014E0052000F0BAFDC5
S31508002A60002805D0DFF8000B01F096FA040009E00B
S31508002A70062000F0AFFD002804D0DFF8EC0A00F0CD
S31508002A80F7FE0400DFF8AC098078401CDFF8A419CB
S31508002A908870DFF8A0098078082807DB0020DFF8AF
S31508002AA0941988700020DFF88C190870E4B2002C9D
S31508002AB003D02000C0B200F04FBCDFF8041BDFF8DB
S31508002AC0040B06F0E7FD002819D0012002F03AFEB3
S31508002AD0DFF8F01ADFF8E80AFFF786FBDFF858197F
S31508002AE0DFF8E40AFFF780FBDFF8DC0AFFF748FAAD
S31508002AF0DFF8D42A0100C9B2082004F089FFDFF8FC
S31508002B00CC1ADFF8CC0A06F0C5FD002819D001203A
S31508002B1002F018FEDFF8B81ADFF8B00AFFF764FB10
S31508002B20DFF81819DFF8040BFFF75EFBDFF8FC0A7D
S31508002B30FFF726FA0100DFF8F42AC9B20C2004F0E0
S31508002B4067FFDFF8EC1ADFF8EC0A06F0A3FD0028A9
S31508002B5019D0012002F0F6FDDFF8D81ADFF8D00AFE
S31508002B60FFF742FBDFF8BC19DFF8CC0AFFF73CFB9E
S31508002B70DFF8C40AFFF704FADFF8BC2A0100C9B275
S31508002B80102004F045FFDFF8381BDFF8380B06F095
S31508002B9081FD002819D0012002F0D4FDDFF8241B9E
S31508002BA0DFF81C0BFFF720FBDFF89418DFF8200B83
S31508002BB0FFF71AFBDFF8180BFFF7E2F9DFF8102B1F
S31508002BC00100C9B2142004F023FFDFF8081BDFF860
S31508002BD0080B06F05FFD00284BD0012002F0B2FD7D
S31508002BE0DFF8F41ADFF8EC0AFFF7FEFADFF85418F4
S31508002BF0DFF8E80AFFF7F8FADFF8E41ADFF8E40A7C
S31508002C00FFF7F2FADFF8E00AB0F85800DFF8241800
S31508002C10A1F85800DFF8C40AFFF7B2F9DFF8BC2AB2
S31508002C200100C9B2182004F0F3FEDFF8B80AFFF76E
S31508002C30A7F9DFF8B02A0100C9B21C2004F0E8FEA3
S31508002C4054208DF8000000208DF80100DFF8E40715
S31508002C50B0F858008DF80200DFF8D807B0F8580029
S31508002C6080B2000A8DF803006A4604217C2004F02D
S31508002C70CFFEDFF8781ADFF8780A06F00BFD002891
S31508002C803BD0012002F05EFDDFF8641ADFF85C0A2B
S31508002C90FFF7AAFADFF89018DFF8580AFFF7A4FA40
S31508002CA0DFF8541ADFF8540AFFF79EFADFF8501ACD
S31508002CB0DFF8500AFFF798FADFF8380AFFF760F9E5
S31508002CC0DFF8302A0100C9B2392004F0A1FEDFF886
S31508002CD02C0AFFF755F9DFF8242A0100C9B23D206E
S31508002CE004F096FEDFF81C0AFFF74AF9DFF8142A03
S31508002CF00100C9B2412004F08BFEDFF80C1ADFF898
S31508002D000C0A06F0C7FC00283DD0012002F01AFD87
S31508002D10DFF8F819DFF8F009FFF766FADFF89C180C
S31508002D20DFF8EC09FFF760FADFF8BC09D0F89C0079
S31508002D30DFF80017C1F89C00DFF8D409FFF720F97F
S31508002D40DFF8CC290100C9B2202004F061FE50202A
S31508002D508DF80000DFF8DC06D0F89C008DF803003B
S31508002D60DFF8D006D0F89C00000A8DF80200DFF8DC
S31508002D70C406D0F89C00000C8DF801006A460421B0
S31508002D80A82004F045FEDFF88C19DFF88C0906F058
S31508002D9081FC00282AD0012002F0D4FCDFF878193B
S31508002DA0DFF87009FFF720FADFF88017DFF86C09FB
S31508002DB0FFF71AFADFF86819DFF86809FFF714FA57
S31508002DC0DFF85809FFF7DCF8DFF850290100C9B227
S31508002DD0242004F01DFEDFF84C09FFF7D1F8DFF8D0
S31508002DE044290100C9B2282004F012FEDFF8381978
S31508002DF0DFF8380906F04EFC00283AD0012002F028
S31508002E00A1FCDFF82819DFF82009FFF7EDF9DFF84C
S31508002E101818DFF81C09FFF7E7F9DFF8CC08B0F84F
S31508002E20C800DFF81016A1F8C800DFF80409FFF794
S31508002E30A7F8DFF8FC280100C9B22C2004F0E8FD49
S31508002E4048208DF80000DFF8EC05B0F8C8008DF8CA
S31508002E500200DFF8E005B0F8C80080B2000A8DF875
S31508002E60010000208DF803006A460321A42004F01F
S31508002E70CFFDDFF8C018DFF8C00806F00BFC002805
S31508002E8032D0012002F05EFCDFF8AC18DFF8A408A7
S31508002E90FFF7AAF9DFF8CC16DFF8A008FFF7A4F9C0
S31508002EA0DFF89C18DFF89C08FFF79EF9DFF838086A
S31508002EB0B0F8E000DFF87C15A1F8E000DFF87C0840
S31508002EC0FFF75EF8DFF874280100C9B2302004F075
S31508002ED09FFDDFF87008FFF753F8DFF86828010050
S31508002EE0C9B2342004F094FDDFF85C18DFF85C08FA
S31508002EF006F0D0FB002819D0012002F023FCDFF8E9
S31508002F004C18DFF84408FFF76FF9DFF85C16DFF8AE
S31508002F104008FFF769F9DFF83808FFF731F8DFF8F6
S31508002F2030280100C9B2572004F072FDDFF82418D2
S31508002F30DFF8240806F0AEFB00283AD0012002F09C
S31508002F4001FCDFF81418DFF80C08FFF74DF9DFF875
S31508002F500C18DFF80C08FFF747F9DFF88C07B0F80C
S31508002F609C01DFF8D014A1F89C01DFF8F407FFF7FD
S31508002F7007F8DFF8EC270100C9B25B2004F048FD2A
S31508002F8054208DF8000001208DF80100DFF8A40414
S31508002F90B0F89C018DF80200DFF89804B0F89C019F
S31508002FA080B2000A8DF803006A460421802004F0E6
S31508002FB02FFDDFF8B017DFF8B00706F06BFB002827
S31508002FC03AD0012002F0BEFBDFF89C17DFF8940721
S31508002FD0FFF70AF9DFF89417DFF89407FFF704F903
S31508002FE0DFF80407B0F8B401DFF84814A1F8B40113
S31508002FF0DFF87C07FEF7C4FFDFF874270100C9B2C3
S315080030005F2004F005FD54208DF8000002208DF89D
S315080030100100DFF82004B0F8B4018DF80200DFF8EB
S315080030201404B0F8B40180B2000A8DF803006A46A9
S315080030300421842004F0ECFCDFF83817DFF83807A1
S3150800304006F028FB002838D0012002F07BFBDFF8C9
S315080030502817DFF82007FFF7C7F8DFF82017DFF88B
S315080030602007FFF7C1F8DFF88006B0F8CC01DFF8D3
S31508003070C413A1F8CC01DFF80807FEF781FFDFF8D3
S3150800308000270100C9B2632004F0C2FC54208DF861
S31508003090000004208DF80100E648B0F8CC018DF850
S315080030A00200E448B0F8CC0180B2000A8DF80300AB
S315080030B06A460421882004F0ABFCDFF8C816DFF85E
S315080030C0C80606F0E7FA002837D0012002F03AFBD6
S315080030D0DFF8B416DFF8AC06FFF786F8DFF8AC16AB
S315080030E0DFF8AC06FFF780F8DFF8FC05B0F8E40176
S315080030F0D049A1F8E401DFF89806FEF741FFDFF8AA
S3150800310090260100C9B2672004F082FC54208DF88D
S31508003110000004208DF80100C648B0F8E4018DF8D7
S315080031200200C448B0F8E40180B2000A8DF8030032
S315080031306A4604218C2004F06BFCDFF85816DFF889
S31508003140580606F0A7FA002837D0012002F0FAFA46
S31508003150DFF84416DFF83C06FFF746F8DFF83C16BA
S31508003160DFF83C06FFF740F8DFF87C05B0F8FC010D
S31508003170B049A1F8FC01DFF82806FEF701FFDFF8E1
S3150800318020260100C9B26B2004F042FC54208DF8B9
S31508003190000005208DF80100A648B0F8FC018DF85E
S315080031A00200A448B0F8FC0180B2000A8DF80300BA
S315080031B06A460421902004F02BFCDFF8E815DFF8B6
S315080031C0E80506F067FA002837D0012002F0BAFAB7
S315080031D0DFF8D415DFF8CC05FFF706F8DFF8CC15CD
S315080031E0DFF8CC05FFF700F8DFF8FC04B0F81402A6
S315080031F09049A1F81402DFF8B805FEF7C1FEDFF81A
S31508003200B0250100C9B26F2004F002FC54208DF8E5
S31508003210000006208DF801008648B0F814028DF8E3
S3150800322002008448B0F8140280B2000A8DF8030040
S315080032306A460421942004F0EBFBDFF87815DFF8E2
S31508003240780506F027FA002837D0012002F07AFA26
S31508003250DFF86415DFF85C05FEF7C6FFDFF85C15D6
S31508003260DFF85C05FEF7C0FFDFF87C04B0F82C0237
S315080032707049A1F82C02DFF84805FEF781FEDFF851
S3150800328040250100C9B2732004F0C2FB54208DF812
S31508003290000007208DF801006648B0F82C028DF86A
S315080032A002006448B0F82C0280B2000A8DF80300C8
S315080032B06A460421982004F0ABFBDFF80815DFF80E
S315080032C0080506F0E7F9002837D0012002F03AFA97
S315080032D0DFF8F414DFF8EC04FEF786FFDFF8EC14E9
S315080032E0DFF8EC04FEF780FFDFF8FC03B0F84402D1
S315080032F05049A1F84402DFF8D804FEF741FEDFF88A
S31508003300D0240100C9B2772004F082FB54208DF83E
S31508003310000008208DF801004648B0F844028DF8F0
S3150800332002004448B0F8440280B2000A8DF803004F
S315080033306A4604219C2004F06BFB3E48407800282E
S3150800334008D000203B494870DFF888240C21B020BB
S3150800335004F05EFB2000C0B204B010BD00B585B015
S31508003360022002F0EFF9FEF759FEDFF86C04FEF7CB
S3150800337098FEDFF86804FEF7B4FEDFF86404FEF78B
S31508003380D1FEDFF86004FEF7EFFE012002F0DAF95D
S31508003390DFF84404FEF7F4FDDFF83C240100C9B267
S315080033A0462004F035FB012002F0CCF9DFF82C04A6
S315080033B0FEF7E6FDDFF824240100C9B24A2004F02E
S315080033C027FB012002F0BEF9DFF81404FEF7D8FD4A
S315080033D0DFF80C240100C9B24E2004F019FB0120C5
S315080033E002F0B0F9DFF8FC03FEF7CAFDDFF8F423B4
S315080033F00100C9B2522004F00BFB00F058F900286E
S3150800340013D1AE484288501CAC49488092B2DFF8C6
S31508003410D8136846FFF768F96846FEF7B1FD6A46AD
S315080034200100C9B2D52004F0F3FA022002F098F997
S3150800343005B000BD582900201327002022270020A8
S31508003440422700205227002000B58BB004F0FAFA74
S3150800345000283ED00020DFF89413088000F027F9F2
S31508003460002830D0DFF888030088401CDFF8801376
S315080034700880DFF87C030088052190FBF1F201FB48
S31508003480120000280ED106F038F90300DFF86003B1
S315080034900288DFF860136846FFF726F969460020B8
S315080034A0FEF77AFFDFF8480300883D2838DB02215B
S315080034B00E2006F04BF90020CD49088000F0F3F8FD
S315080034C002F07FFC2CE00020C949088000F0F2F8E1
S315080034D026E0C6480088401CC4490880C3480088BE
S315080034E0052190FBF1F201FB120000280CD106F031
S315080034F004F90300BD480288BF496846FFF7F4F897
S3150800350069460020FEF748FFB8480088B52807DB5B
S3150800351002210D2006F01AF900F0C5F802F051FC58
S315080035200BB000BD322700206A270020B0270020F4
S315080035300020B24908700020B04948700020AF4901
S3150800354008710020AD49C8700020AC498870002079
S31508003550AA4948710020A94988710020A749C8715D
S3150800356070470000DA2700207E280020C0B2002815
S315080035700BD002280FD00BD3042812D00ED306285E
S3150800358015D011D3072815D017E09C4A117014E0FE
S315080035909A4A517011E0994A91700EE0974AD17093
S315080035A00BE0964A117108E0944A517105E0934A76
S315080035B0917102E0914AD171FFE770479427002084
S315080035C0632900201B2700205B290020732900207F
S315080035D02B2700200100C9B200290BD002290FD0E1
S315080035E00BD3042912D00ED3062915D011D30729D7
S315080035F015D017E08148007815E08048407812E039
S315080036007E4880780FE07D48C0780CE07B480079DA
S3150800361009E07A48407906E07848807903E07748F7
S31508003620C07900E000207047C82700206A290020DA
S31508003630832900203B2700207A29002010B5002482
S315080036400020FFF7C7FF002800D0641C0120FFF701
S31508003650C1FF002800D0A41C0220FFF7BBFF0028EA
S3150800366000D0241D0320FFF7B5FF002800D008343A
S315080036700420FFF7AFFF002800D010340520FFF71D
S31508003680A9FF002800D020340620FFF7A3FF002852
S3150800369000D040340720FFF79DFF002800D0803473
S315080036A0200080B210BD00200449488070470348B6
S315080036B0007870470120014908707047A43400203B
S315080036C0922900204A27002000204D49087070479B
S315080036D08A290020A8290020602700209A2900208E
S315080036E059270020A129002010270020CA290020D8
S315080036F082270020B229002072270020BA2900203C
S315080037007A270020C2290020E8290020A0270020C7
S31508003710DC290020062A0020BE270020F8290020E0
S31508003720B7270020FF290020182A0020D0270020CC
S31508003730102A0020302A0020E8270020222A00200C
S31508003740E1270020292A0020D42A00208C280020DE
S31508003750C62A0020EC2A0020A4280020962800204B
S31508003760DE2A0020042B0020BC280020AE280020DA
S31508003770F62A00201C2B0020D4280020C62800206A
S315080037800E2B0020342B0020EC280020DE280020F9
S31508003790262B00204C2B002004290020F628002088
S315080037A03E2B0020642B00201C2900200E29002017
S315080037B0562B00207C2B00203429002026290020A7
S315080037C06E2B0020942B00204C2900203E29002037
S315080037D0862B00202C1701083A2A00205D2A002093
S315080037E0802A0020A32A002080180108F834002027
S315080037F0FA3400203C1601081C15010894340020F0
S31508003800A434002038B50020050000208DF80000FB
S31508003810280003009BB26A461221142002F03DF8E4
S315080038200400E4B2002C1FD1642002F03DF9040024
S31508003830E4B2002C02D02000C0B217E0022269468A
S31508003840142002F011F90400E4B2002C09D1642016
S3150800385002F02AF90400E4B2002C05D02000C0B218
S3150800386004E02000C0B201E02000C0B232BD000072
S315080038702DE9F04F85B004000020039000208DF854
S315080038800000039803009BB26A461221142002F036
S3150800389004F80700FFB2002F23D1642002F004F9D0
S315080038A00700FFB2002F02D03800C0B2B9E20222E8
S315080038B06946142002F0D8F80700FFB2002F0DD190
S315080038C0642002F0F1F80700FFB2002F02D038009A
S315080038D0C0B2A6E2FFB2002F69D105E03800C0B237
S315080038E09FE23800C0B29CE29DF801004FF4807157
S315080038F09DF8002001FB002082461FFA8AFAD3466B
S315080039000A209BFBF0F005F06FFF0500DFF85C0C62
S31508003910290005F0DFFD05F05BFC05F07FFF05F0EB
S3150800392051FD0600280005F053FCDFF8442CDFF8AB
S31508003930443C05F075FC0022DFF83C3C05F036FEF9
S3150800394002F07EFD8146E682280005F041FC020071
S315080039500B00DFF8281C2000FEF7C6FE484605F0D7
S3150800396037FC02000B00DFF8181CE01DFEF7BCFE52
S31508003970300080B2020A92B2DFF8081C14F10E0079
S31508003980FEF7B2FEB6B206F0FF02DFF8F81B01A892
S31508003990FEF7AAFE01A914F10E00FEF7BFFEB2A1BA
S315080039A014F10E00FEF7BAFE0020804602E0380049
S315080039B0C0B236E2B8F1080F80F2318200200390D7
S315080039C000208DF80000039803009BB26A4618F1A0
S315080039D01301C9B2142001F060FF0700FFB2002FDF
S315080039E024D1642002F060F80700FFB2002F02D04D
S315080039F03800C0B215E202226946142002F034F8F3
S31508003A000700FFB2002F0ED1642002F04DF8070020
S31508003A10FFB2002F02D03800C0B202E2FFB2002F78
S31508003A2040F0FA8105E03800C0B2FAE13800C0B2C9
S31508003A30F7E19DF801004FF480719DF8002001FB25
S31508003A40002082461FFA8AFAD3460A209BFBF0F02A
S31508003A5005F0CAFE0500DFF8140B290005F03AFD4B
S31508003A6005F0B6FB05F0DAFE05F0ACFC060028000A
S31508003A7005F0AEFBDFF8F82ADFF8F83A05F0D0FBD8
S31508003A800022DFF8F43A05F091FD02F0D9FC8146F0
S31508003A90B8F1000F14D0B8F1020F7AD044D3B8F1B8
S31508003AA0040F00F0E380C0F0A980B8F1060F00F01B
S31508003AB04781C0F01081B8F1070F00F07681A8E1C0
S31508003AC0E685280005F084FB02000B00DFF8AC1A37
S31508003AD014F11800FEF708FE484605F079FB0200C7
S31508003AE00B00DFF89C1A14F11F00FEF7FDFD3000ED
S31508003AF080B2020A92B2DFF88C1A14F12600FEF799
S31508003B00F3FDB6B206F0FF02DFF8781A01A8FEF751
S31508003B10EBFD01A914F12600FEF700FE52A114F1EF
S31508003B202600FEF7FBFD74E1A4F84660280005F0C0
S31508003B304FFB02000B00DFF8441A14F13000FEF7C1
S31508003B40D3FD484605F044FB02000B00DFF8301AA7
S31508003B5014F13700FEF7C8FD300080B2020A92B2AF
S31508003B60DFF8201A14F13E00FEF7BEFDB6B206F0E5
S31508003B70FF02DFF8101A01A8FEF7B6FD01A914F135
S31508003B803E00FEF7CBFD38A114F13E00FEF7C6FD58
S31508003B903FE1A4F85E60280005F01AFB02000B005E
S31508003BA0DFF8D81914F14800FEF79EFD484605F0DF
S31508003BB00FFB02000B00DFF8C81914F14F00FEF7DF
S31508003BC093FD300080B2020A92B2DFF8B81914F1F8
S31508003BD05600FEF789FDB6B206F0FF02DFF8A41913
S31508003BE001A8FEF781FD01A914F15600FEF796FD1E
S31508003BF01DA114F15600FEF791FD0AE1A4F87660BE
S31508003C00280005F0E5FA02000B00DFF8701914F138
S31508003C106000FEF769FD484605F0DAFA02000B0077
S31508003C20DFF85C1914F16700FEF75EFD300080B21C
S31508003C30020A92B2DFF84C1914F16E00FEF754FD31
S31508003C40B6B206F0FF02DFF83C1901A8FEF74CFDF4
S31508003C5001A914F16E00FEF761FD03A114F16E00CF
S31508003C60FEF75CFDD5E000BF52770000A4F88E6031
S31508003C70280005F0ADFA02000B00DFF8001914F170
S31508003C807800FEF731FD484605F0A2FA02000B005F
S31508003C90DFF8EC1814F17F00FEF726FD300080B23D
S31508003CA0020A92B2DFF8DC1814F18600FEF71CFD52
S31508003CB0B6B206F0FF02DFF8CC1801A8FEF714FD2D
S31508003CC001A914F18600FEF729FD57A114F1860013
S31508003CD0FEF724FD9DE0A4F8A660280005F078FA12
S31508003CE002000B00DFF8941814F19000FEF7FCFCB4
S31508003CF0484605F06DFA02000B00DFF8841814F147
S31508003D009700FEF7F1FC300080B2020A92B2DFF8A3
S31508003D10741814F19E00FEF7E7FCB6B206F0FF022F
S31508003D20DFF8601801A8FEF7DFFC01A914F19E0070
S31508003D30FEF7F4FC3CA114F19E00FEF7EFFC68E0E8
S31508003D40A4F8BE60280005F043FA02000B00DFF86D
S31508003D502C1814F1A800FEF7C7FC484605F038FAF7
S31508003D6002000B00DFF8181814F1AF00FEF7BCFCD0
S31508003D70300080B2020A92B2DFF8081814F1B600D1
S31508003D80FEF7B2FCB6B206F0FF02DFF8F81701A894
S31508003D90FEF7AAFC01A914F1B600FEF7BFFC22A1A2
S31508003DA014F1B600FEF7BAFC33E0A4F8D660280092
S31508003DB005F00EFA02000B00DFF8C01714F1C00078
S31508003DC0FEF792FC484605F003FA02000B00DFF8FE
S31508003DD0B01714F1C700FEF787FC300080B2020A5C
S31508003DE092B2DFF8A01714F1CE00FEF77DFCB6B24A
S31508003DF006F0FF02DFF88C1701A8FEF775FC01A98B
S31508003E0014F1CE00FEF78AFC07A114F1CE00FEF7E6
S31508003E1085FC18F10108CDE53800C0B201E038008C
S31508003E20C0B205B0BDE8F08F5277000038B5002063
S31508003E3004000120050000208DF8000000208DF800
S31508003E400100280003009BB26A460021D02001F039
S31508003E5024FD0400E4B2002C1ED1642001F024FEE7
S31508003E600400E4B2002C02D02000C0B248E00120D1
S31508003E70050001208DF8000000208DF801002800BB
S31508003E8003009BB26A460221D02001F006FD040019
S31508003E90E4B2002C22D102E02000C0B230E0642057
S31508003EA001F002FE0400E4B2002C02D02000C0B2E9
S31508003EB026E00120050020208DF8000000208DF85E
S31508003EC00100280003009BB26A460721D02001F0B2
S31508003ED0E4FC0400E4B2002C10D102E02000C0B2D9
S31508003EE00EE0642001F0E0FD0400E4B2002C02D0EC
S31508003EF02000C0B204E02000C0B201E02000C0B239
S31508003F0032BD38B5012005003F208DF8000000209D
S31508003F108DF80100280003009BB26A460121D020D3
S31508003F2001F0BBFC0400E4B2002C22D1642001F0AD
S31508003F30BBFD0400E4B2002C02D02000C0B22AE087
S31508003F404FF47A7001F0CDFD0120050000208DF8B0
S31508003F50000000208DF80100280003009BB26A4685
S31508003F600121D02001F099FC0400E4B2002C10D104
S31508003F7002E02000C0B20EE0642001F095FD0400C6
S31508003F80E4B2002C02D02000C0B204E02000C0B287
S31508003F9001E02000C0B232BD2DE9F04F89B004001F
S31508003FA00020029000208DF80C00029803009BB2B6
S31508003FB003AA0E21D02001F070FC0700FFB2002FE3
S31508003FC024D1642001F070FD0700FFB2002F02D053
S31508003FD03800C0B2C5E2022203A9D02001F044FD90
S31508003FE00700FFB2002F0ED1642001F05DFD070027
S31508003FF0FFB2002F02D03800C0B2B2E2FFB2002FE3
S3150800400040F07F8005E03800C0B2AAE23800C0B2AE
S31508004010A7E29DF80D004FF480719DF80C2001FB76
S31508004020002082465FEA0A5007D51FFA8AFADFF8A7
S31508004030580550EA0A00834602E01FFA8AFAD34670
S31508004040584602F06DF90022DFF8403505F0E8F829
S3150800405002F0F6F906003000DFF8341505F000FC2A
S3150800406001D896F00046DFF80405310005F032FA6B
S3150800407005F0AEF805F0D2FB05F0A4F9050030000E
S3150800408005F0A6F8DFF8E824DFF8E83405F0C8F804
S315080040900022DFF8E43405F089FA02F0D1F9814606
S315080040A0E582300005F094F802000B00DFF8CC1426
S315080040B02000FEF719FB484605F08AF802000B00B7
S315080040C0DFF8BC14E01DFEF70FFB280080B2020AD9
S315080040D092B2DFF8B01414F10E00FEF705FBADB28C
S315080040E005F0FF02DFF89C146846FEF7FDFA6946FC
S315080040F014F10E00FEF712FB9CA114F10E00FEF758
S315080041000DFB0020029000208DF80C000298030099
S315080041109BB203AAC021D02001F0BFFB0700FFB263
S31508004120002F24D1642001F0BFFC0700FFB2002F46
S3150800413002D03800C0B214E2102203A9D02001F040
S3150800414093FC0700FFB2002F0ED1642001F0ACFCEF
S315080041500700FFB2002F02D03800C0B201E2FFB25A
S31508004160002F40F0FC8105E03800C0B2F9E13800C4
S31508004170C0B2F6E100208046B8F1080F80F2EF8160
S3150800418003A800EB480040784FF4807103AA12F8A0
S31508004190182001FB002082465FEA0A5007D51FFA5D
S315080041A08AFADFF8E40350EA0A00834602E01FFAB7
S315080041B08AFAD346584602F0B3F80022DFF8D43319
S315080041C005F02EF802F03CF906005FEA4A5007D5DA
S315080041D01FFA8AFADFF8C00350EA0A00834602E0AB
S315080041E01FFA8AFAD346E148310005F073F904F05C
S315080041F0EFFF05F013FB05F0E5F80500300004F0C5
S31508004200E7FFDB4ADB4B05F00BF80022DA4B05F03B
S31508004210CDF902F015F98146B8F1000F14D0B8F1BE
S31508004220020F72D040D3B8F1040F00F0D280C0F06C
S315080042309F80B8F1060F00F02E81C0F0FB80B8F120
S31508004240070F00F0598187E1E585300004F0C0FFCB
S3150800425002000B00C94914F11800FEF745FA484652
S3150800426004F0B6FF02000B00C54914F11F00FEF763
S315080042703BFA280080B2020A92B2C24914F126001B
S31508004280FEF732FAADB205F0FF02BE496846FEF700
S315080042902BFA694614F12600FEF740FA33A114F109
S315080042A02600FEF73BFA57E1A4F84650300004F022
S315080042B08FFF02000B00B14914F13000FEF714FA23
S315080042C0484604F085FF02000B00AD4914F137009B
S315080042D0FEF70AFA280080B2020A92B2A94914F136
S315080042E03E00FEF701FAADB205F0FF02A5496846A1
S315080042F0FEF7FAF9694614F13E00FEF70FFA1BA11C
S3150800430014F13E00FEF70AFA26E1A4F85E503000E2
S3150800431004F05EFF02000B00984914F14800FEF70E
S31508004320E3F9484604F054FF02000B00944914F1DF
S315080043304F00FEF7D9F9280080B2020A92B29149D5
S3150800434014F15600FEF7D0F9ADB205F0FF028D491B
S315080043506846FEF7C9F9694614F15600FEF7DEF914
S3150800436002A114F15600FEF7D9F9F5E052770000DC
S31508004370A4F87650300004F02BFF02000B007F49AA
S3150800438014F16000FEF7B0F9484604F021FF020078
S315080043900B007B4914F16700FEF7A6F9280080B2E6
S315080043A0020A92B2774914F16E00FEF79DF9ADB292
S315080043B005F0FF0273496846FEF796F9694614F157
S315080043C06E00FEF7ABF968A114F16E00FEF7A6F9C8
S315080043D0C2E0A4F88E50300004F0FAFE02000B008A
S315080043E0664914F17800FEF77FF9484604F0F0FEB6
S315080043F002000B00624914F17F00FEF775F92800E8
S3150800440080B2020A92B25F4914F18600FEF76CF98F
S31508004410ADB205F0FF025B496846FEF765F96946E5
S3150800442014F18600FEF77AF94FA114F18600FEF71B
S3150800443075F991E0A4F8A650300004F0C9FE020010
S315080044400B004E4914F19000FEF74EF9484604F069
S31508004450BFFE02000B004A4914F19700FEF744F923
S31508004460280080B2020A92B2464914F19E00FEF76D
S315080044703BF9ADB205F0FF0242496846FEF734F94A
S31508004480694614F19E00FEF749F937A114F19E001A
S31508004490FEF744F960E0A4F8BE50300004F098FE38
S315080044A002000B00354914F1A800FEF71DF948462D
S315080044B004F08EFE02000B00314914F1AF00FEF73E
S315080044C013F9280080B2020A92B22E4914F1B600F6
S315080044D0FEF70AF9ADB205F0FF022A496846FEF76B
S315080044E003F9694614F1B600FEF718F91EA114F18E
S315080044F0B600FEF713F92FE0A4F8D650300004F002
S3150800450067FE02000B001D4914F1C000FEF7ECF827
S31508004510484604F05DFE02000B00194914F1C70075
S31508004520FEF7E2F8280080B2020A92B2154914F1A1
S31508004530CE00FEF7D9F8ADB205F0FF02114968467C
S31508004540FEF7D2F8694614F1CE00FEF7E7F806A1A1
S3150800455014F1CE00FEF7E2F818F101080CE638006F
S31508004560C0B209B0BDE8F08F5277000000002041C4
S31508004570CDCCCCCCCCCCFC3F000040404019010847
S31508004580481901085019010800F8FFFF0000B03F5C
S31508004590010080440000D03F00FCFFFF7CB50020EE
S315080045A00500012D2CDA00200400200003009BB230
S315080045B001AA0521822001F070F90600322001F0D7
S315080045C090FAF6B2002E19D1642001F06DFA0600B1
S315080045D0F6B2002E12D1022201A9822001F044FA75
S315080045E00600322001F07DFAF6B2002E06D16420CC
S315080045F001F05AFA0600F6B2002E01D06D1CD0E77B
S31508004600012D02DB3000C0B222E09DF8040010281C
S3150800461005D19DF80500622801D1002018E0322056
S3150800462001F05FFA0220040010208DF804006220D1
S315080046308DF805004FF4FA700090200003009BB235
S3150800464001AA0521822001F05CF906003000C0B2FB
S3150800465076BD2DE9F04184B0040000200600002054
S315080046600600012E26DA00200500280003009BB26A
S315080046706A460121822001F010F90700FFB2002FD7
S3150800468016D1642001F010FA0700FFB2002F0FD1EF
S3150800469002226946822001F0E7F90700FFB2002FDF
S315080046A006D1642001F000FA0700FFB2002F01D0FE
S315080046B0761CD6E7012E02DB3800C0B23CE0FFB21A
S315080046C0002F37D19DF80020D54914F10800FEF7D0
S315080046D00BF89DF80120D24901A8FEF705F801A9B3
S315080046E014F10800FEF71AF88DA114F10800FEF778
S315080046F015F89DF800004FF480719DF8012001FB24
S31508004700002001F00DFEC74AC74B04F089FD0022C0
S31508004710C64B04F085FD01F093FE8046404604F042
S3150800472057FD02000B00C2492000FDF7DDFF3800E7
S31508004730C0B201E03800C0B204B0BDE8F0812DE98E
S31508004740F04184B004000020060000200600012E77
S3150800475026DA00200500280003009BB26A460421D9
S31508004760822001F09AF80700FFB2002F16D16420C4
S3150800477001F09AF90700FFB2002F0FD1022269460D
S31508004780822001F071F90700FFB2002F06D16420DC
S3150800479001F08AF90700FFB2002F01D0761CD6E790
S315080047A0012E02DB3800C0B23CE0FFB2002F37D141
S315080047B09DF800209A4914F10900FDF795FF9DF828
S315080047C00120974901A8FDF78FFF01A914F10900F7
S315080047D0FDF7A4FF52A114F10900FDF79FFF9DF80C
S315080047E000004FF480719DF8012001FB002001F0C4
S315080047F097FD904A904B04F013FD00228B4B04F072
S315080048000FFD01F01DFE8046404604F0E1FC020063
S315080048100B008A492000FDF767FF3800C0B201E0A7
S315080048203800C0B204B0BDE8F0812DE9F04184B08B
S3150800483004000020060000200600012E26DA0020CB
S315080048400500280003009BB26A460321822001F076
S3150800485024F80700FFB2002F16D1642001F024F9CE
S315080048600700FFB2002F0FD102226946822001F00D
S31508004870FBF80700FFB2002F06D1642001F014F9F7
S315080048800700FFB2002F01D0761CD6E7012E02DB07
S315080048903800C0B240E0FFB2002F3BD19DF800209F
S315080048A05F4914F10900FDF71FFF9DF801205C49D7
S315080048B001A8FDF719FF01A914F10900FDF72EFF5C
S315080048C017A114F10900FDF729FF9DF800004FF420
S315080048D080719DF8012001FB002001F021FD584A56
S315080048E0584B04F09DFC0022574B04F099FC00221B
S315080048F04E4B04F095FC01F0A3FD8046404604F0BB
S3150800490067FC02000B0051492000FDF7EDFE380058
S31508004910C0B201E03800C0B204B0BDE8F0810000C2
S31508004920527700002DE9F04184B00400002006000B
S3150800493000200600012E26DA0020050028000300C4
S315080049409BB26A460221822000F0A7FF0700FFB249
S31508004950002F16D1642001F0A7F80700FFB2002F38
S315080049600FD102226946822001F07EF80700FFB2C5
S31508004970002F06D1642001F097F80700FFB2002F38
S3150800498001D0761CD6E7012E02DB3800C0B23FE024
S31508004990FFB2002F3AD19DF80020214914F10800F2
S315080049A0FDF7A2FE9DF801201D4901A8FDF79CFE12
S315080049B001A914F10800FDF7B1FE17A114F10800CA
S315080049C0FDF7ACFE15A101A8FDF7A8FE9DF80000AD
S315080049D04FF480719DF8012001FB0020042190FB13
S315080049E0F1F001F09DFC1A4A1A4B04F019FC01F08B
S315080049F027FD8046404604F0EBFB02000B001649F3
S31508004A002000FDF771FE3800C0B201E03800C0B2E0
S31508004A1004B0BDE8F0810000527700000D0A0000DE
S31508004A20D8190108F168E388B5F8E43E00408F40DC
S31508004A30E0190108C41D519C0100303FE81901081E
S31508004A40CDAD41134B62B03E0088C340F019010852
S31508004A50FCA9F1D24D62703FF819010838B501205A
S31508004A60050005208DF8000000208DF801002800BB
S31508004A7003009BB26A461021BE2000F00EFF040018
S31508004A80E4B2002C0DD1642001F00EF80400E4B263
S31508004A90002C02D02000C0B232E0E4B2002C03D1D0
S31508004AA005E02000C0B22BE02000C0B228E00320B9
S31508004AB0050081208DF8000000208DF801000020F7
S31508004AC08DF8020000208DF80300280003009BB231
S31508004AD06A46A021BE2000F0E0FE0400E4B2002CE5
S31508004AE00CD1642000F0E0FF0400E4B2002C02D0F0
S31508004AF02000C0B204E02000C0B201E02000C0B22D
S31508004B0032BD2DE9F04F85B00400002005000020D5
S31508004B10804600208DF80000404603009BB26A4696
S31508004B20B021BE2000F0B9FE0500EDB2002D3ED141
S31508004B30642000F0B9FF0500EDB2002D02D0280070
S31508004B40C0B257E102226946BE2000F08DFF05007B
S31508004B50EDB2002D28D1642000F0A6FF0500EDB2C5
S31508004B60002D02D02800C0B244E19DF80000C0B272
S31508004B704008C0B281469DF80100C0B24008C0B2E4
S31508004B80ADF806000020804600208DF8000040465B
S31508004B9003009BB26A46B621BE2000F07EFE0500E1
S31508004BA0EDB2002D3FD105E02800C0B222E1280071
S31508004BB0C0B21FE1642000F077FF0500EDB2002DBA
S31508004BC002D02800C0B215E102226946BE2000F0D4
S31508004BD04BFF0500EDB2002D22D1642000F064FFE2
S31508004BE00500EDB2002D02D02800C0B202E19DF802
S31508004BF001009DF8001051EA0020824600208046F8
S31508004C0000208DF80000404603009BB26A46BA2190
S31508004C10BE2000F042FE0500EDB2002D40D105E0B1
S31508004C202800C0B2E6E02800C0B2E3E0642000F045
S31508004C303BFF0500EDB2002D02D02800C0B2D9E036
S31508004C4002226946BE2000F00FFF0500EDB2002DD6
S31508004C5023D1642000F028FF0500EDB2002D02D014
S31508004C602800C0B2C6E09DF801009DF8001051EA80
S31508004C700020ADF80A000020804600208DF80000CC
S31508004C80404603009BB26A46A821BE2000F005FEF6
S31508004C900500EDB2002D66D105E02800C0B2A9E0F6
S31508004CA02800C0B2A6E0642000F0FEFE0500EDB2C2
S31508004CB0002D02D02800C0B29CE002226946BE2020
S31508004CC000F0D2FE0500EDB2002D49D1642000F0B7
S31508004CD0EBFE0500EDB2002D02D02800C0B289E037
S31508004CE09DF801009DF8001051EA0020ADF8080073
S31508004CF0BDF908000FFA8AFAB0EB0A0004F074FD51
S31508004D008346BDF906000FFA89F9B0EB090004F0ED
S31508004D106BFDDFF8E01304F0DDFB594604F0DAFB1F
S31508004D200600BDF90A000FFA8AFAB0EB0A0004F089
S31508004D305BFD0100300004F0A5FD06000FFA89F9B5
S31508004D400A2000FB09F004F04FFD310004F018FEBC
S31508004D5006003000DFF8A01304F082FD09D805E04C
S31508004D602800C0B246E02800C0B243E0DFF88C0352
S31508004D700600300001F0ACFB20823000DD4904F06B
S31508004D8081FD04F025FA02000B00DD492000FDF73D
S31508004D90ABFC208A80B2020A92B2DA4914F1080002
S31508004DA0FDF7A2FC207C00F0FF02D64903A8FDF718
S31508004DB09BFC03A914F10800FDF7B0FC0FA114F140
S31508004DC00800FDF7ABFC3000CA4904F05BFDCE498C
S31508004DD004F0D6FD0700CD48390004F07BFB070038
S31508004DE0380001F075FBADF80400BDF80400208218
S31508004DF02800C0B205B0BDE8F08F00005277000069
S31508004E002DE9F04F89B004000020050000208146F6
S31508004E1000208DF81000484603009BB204AAB22170
S31508004E20BE2000F03AFD0500EDB2002D31D1642018
S31508004E3000F03AFE0500EDB2002D02D02800C0B2FF
S31508004E4053E102226946BE2000F00EFE0500EDB2CF
S31508004E50002D1BD1642000F027FE0500EDB2002DC1
S31508004E6002D02800C0B240E10020814600208DF81B
S31508004E701000484603009BB204AAB521BE2000F0E4
S31508004E800CFD0500EDB2002D55D105E02800C0B295
S31508004E902BE12800C0B228E1642000F005FE0500D9
S31508004EA0EDB2002D02D02800C0B21EE1012201A9F0
S31508004EB0BE2000F0D9FD0500EDB2002D38D16420E2
S31508004EC000F0F2FD0500EDB2002D02D02800C0B2B8
S31508004ED00BE19DF8040010F003009DF8001051EA5C
S31508004EE00020ADF80A009DF8040010F00C009DF8AB
S31508004EF0011051EA8010ADF80800BDF90A00C0108B
S31508004F008246BDF90800C010ADF8060000208146AB
S31508004F1000208DF81000484603009BB204AABC2165
S31508004F20BE2000F0BAFC0500EDB2002D48D105E020
S31508004F302800C0B2D9E02800C0B2D6E0642000F04C
S31508004F40B3FD0500EDB2002D02D02800C0B2CCE0BA
S31508004F5004226946BE2000F087FD0500EDB2002D4B
S31508004F602BD1642000F0A0FD0500EDB2002D02D083
S31508004F702800C0B2B9E09DF801009DF8001051EA7A
S31508004F80002083469DF803009DF8021051EA002090
S31508004F90ADF80E000020814600208DF81000484626
S31508004FA003009BB204AAAA21BE2000F076FC0500E5
S31508004FB0EDB2002D40F0978005E02800C0B294E0DD
S31508004FC02800C0B291E0642000F06EFD0500EDB245
S31508004FD0002D02D02800C0B287E002226946BE2012
S31508004FE000F042FD0500EDB2002D79D1642000F0F5
S31508004FF05BFD0500EDB2002D02D02800C0B274E0BA
S315080050009DF801009DF8001051EA0020ADF80C004B
S31508005010BDF90C000FFA8BFBB0EB0B00BDF90610BF
S315080050200FFA8AFAB1EB0A0148430A2148430600F7
S31508005030BDF90E000FFA8BFBB0EB0B00B6FBF0F0D8
S315080050400FFA8AFA0A2101FB0A0630008046300068
S3150800505004F0D4FB07003800264904F013FC0700C7
S31508005060380004F0B5F82A4A2A4B04F0D9F8002289
S31508005070294B04F09BFA01F0E3F90690A4F8168090
S31508005080380004F0A5F802000B0024492000FDF7BB
S315080050902BFB069804F09CF802000B002049E01D43
S315080050A0FDF722FB404680B2020A92B2154914F176
S315080050B00E00FDF719FB1FFA88F808F0FF021149E0
S315080050C007A8FDF711FB07A914F10E00FDF726FB4B
S315080050D007A114F10E00FDF721FB2800C0B204E079
S315080050E02800C0B201E02800C0B209B0BDE8F08FC0
S315080050F0527700000000204101007A4400007A44FB
S3150800510058190108601901080000C040000003444E
S31508005110CDCCCCCCCCCCFC3F000040406819010873
S31508005120701901082DE9FE4F04000020834600206F
S315080051308DF80000584603009BB26A460021942069
S3150800514000F0ABFB0700FFB2002F23D1642000F06C
S31508005150ABFC0700FFB2002F02D03800C0B282E0D5
S3150800516002226946942000F07FFC0700FFB2002F58
S315080051700DD1642000F098FC0700FFB2002F02D082
S315080051803800C0B26FE0FFB2002F6AD105E03800E0
S31508005190C0B268E03800C0B265E09DF800004FF480
S315080051A080719DF8012001FB002040110600700562
S315080051B004D5B6B22E483043814601E0B6B2B146B0
S315080051C0484601F0ADF800225FF07F5304F028F856
S315080051D001F036F980462748414604F07BF903F08A
S315080051E0F7FF04F01BFB04F0EDF80500404603F05A
S315080051F0EFFF214A214B04F013F80022204B04F05C
S31508005200D5F901F01DF98246E582404603F0E0FF34
S3150800521002000B001B492000FDF766FA504603F012
S31508005220D7FF02000B001849E01DFDF75DFA2800BC
S3150800523080B2020A92B2154914F10E00FDF754FA2B
S31508005240ADB205F0FF02114901A8FDF74DFA01A913
S3150800525014F10E00FDF762FA04A114F10E00FDF731
S315080052605DFA3800C0B2BDE8FE8F00BF5277000075
S3150800527000FCFFFF00002041CDCCCCCCCCCCFC3FC1
S3150800528000004040C0190108C8190108D0190108D2
S3150800529038B5032005001D208DF8000000208DF884
S315080052A0010000208DF80200280003009BB26A4620
S315080052B00121882000F0F1FA0400E4B2002C0CD198
S315080052C0642000F0F1FB0400E4B2002C02D02000B8
S315080052D0C0B204E02000C0B201E02000C0B232BD76
S315080052E070B582B004000320060020788DF800000F
S315080052F060788DF80100A0788DF802003000030070
S315080053009BB26A460121882000F0C7FA0500EDB273
S31508005310002D0CD1642000F0C7FB0500EDB2002D6E
S3150800532002D02800C0B204E02800C0B201E028007C
S31508005330C0B276BD38B50120050046208DF80000BC
S31508005340280003009BB26A460021882000F0A5FACF
S315080053500400E4B2002C0CD1642000F0A5FB040084
S31508005360E4B2002C02D02000C0B204E02000C0B293
S3150800537001E02000C0B232BD70B582B00400002042
S31508005380060000208DF80000300003009BB26A4634
S315080053900021882000F081FA0500EDB2002D23D106
S315080053A0642000F081FB0500EDB2002D02D0280034
S315080053B0C0B22BE001226946882000F055FB0500A3
S315080053C0EDB2002D0DD1642000F06EFB0500EDB2A4
S315080053D0002D02D02800C0B218E0EDB2002D13D17E
S315080053E005E02800C0B211E02800C0B20EE09DF822
S315080053F0000020709DF800207449601CFDF774F9C0
S3150800540070A1601CFDF78AF92800C0B276BD70B598
S3150800541082B004000020060000208DF8000030004D
S3150800542003009BB26A460821882000F036FA050078
S31508005430EDB2002D23D1642000F036FB0500EDB255
S31508005440002D02D02800C0B22BE001226946882030
S3150800545000F00AFB0500EDB2002D0DD1642000F026
S3150800546023FB0500EDB2002D02D02800C0B218E0DB
S31508005470EDB2002D13D105E02800C0B211E02800D6
S31508005480C0B20EE09DF8000020709DF800204F493C
S31508005490601CFDF729F94BA1601CFDF73FF92800B0
S315080054A0C0B276BD2DE9FF410400002080460020E9
S315080054B08DF80000404603009BB26A460921882001
S315080054C000F0EBF90500EDB2002D23D1642000F0C1
S315080054D0EBFA0500EDB2002D02D02800C0B26EE04E
S315080054E006226946882000F0BFFA0500EDB2002DB5
