S02E0000526F616420426F61726420526576204D2E3520424153454C494E4520446563203920323031362E737265637A
S315080000005011002021930108759701087997010876
S315080000107D9701088197010885970108000000006F
S315080000200000000000000000000000002F67010823
S315080000308997010800000000DD660108716801085B
S315080000409DA700088D9701089197010895970108C3
S31508000050999701089D970108A1970108A597010896
S31508000060A9970108AD970108B197010879680108B1
S31508000070B5970108B9970108BD970108C197010806
S31508000080C5970108C9970108CD970108D1970108B6
S3150800009083680108D5970108D9970108DD970108F3
S315080000A0E1970108E5970108E9970108ED97010826
S315080000B0BF680108C96801088D680108AB680108AE
S315080000C0B5680108F1970108F5970108F99701083D
S315080000D0FD97010801980108A168010897680108B9
S315080000E005980108099801080D9801085952000851
S315080000F011980108000000001598010819980108D0
S315080001001D980108219801082598010829980108D1
S315080001102D9801083198010835980108000000005B
S315080001203998010801201D4981F8280000207047E8
S3150800013010B50400194890F82800022801D10220B9
S3150800014016E0164890F82800002801D101200FE093
S31508000150200003F093FD282801D3012008E02100A0
S315080001600E4803F0B5FD02200C4981F8280000204E
S3150800017010BD10B5094890F8280002280BD10121B6
S31508000180064800F00DF804000120044981F828000B
S315080001902000C0B200E0002010BD00006C35002031
S315080001A02DE9F04FADF5806D97B004000D002000E5
S315080001B003F064FD8046DFF8E80D007800281ED0BD
S315080001C020781B2815D10020DFF8D41D0870DFF829
S315080001D0D41D0FA803F07CFD0FA9002003F050FEE4
S315080001E00600F6B2002E03F054843000C0B203F0C5
S315080001F052BC2100012004F073FA03F04ABC2078AF
S3150800020030282FD0312848D0322879D0332800F02A
S31508000210AA80342800F0DA80352800F00A813628CA
S3150800022000F07881412800F08E81422800F0E982AA
S31508000230432800F09385442800F07B87452801F081
S31508000240ED80462801F0FF80472801F017814828ED
S3150800025001F09481502801F06B84542801F09884A9
S3150800026003F08CBB04F03BFD0600F6B2002E12D15B
S31508000270EDB2002D0AD0DFF8D81D0FA803F028FD2F
S315080002800FA803F0FBFC0FA904F02AFADFF81C1EDE
S315080002900FA803F01DFD03F082BB8CA804F071FDC6
S315080002A00600DFF80C1E0FA803F012FD0FA90020A8
S315080002B003F0E6FD0600F6B2002E03D03000C0B209
S315080002C003F0E9BBEDB2002D0BD08CAADFF8E41DD4
S315080002D00FA804F0E7FD0FA803F0D0FC0FA904F05F
S315080002E0FFF9DFF81C1E0FA804F0DCFD8CA90FA887
S315080002F004F0F2FDD8A10FA804F0EEFD03F04FBB01
S315080003008CA804F05AFD0600DFF8FC1D0FA803F0C0
S31508000310DFFC0FA9002003F0B3FD0600F6B2002E9D
S3150800032003D03000C0B203F0B6BBEDB2002D0BD03F
S315080003308CAADFF8D81D0FA804F0B4FD0FA803F0A7
S315080003409DFC0FA904F0CCF9DFF8C41D0FA804F032
S31508000350A9FD8CA90FA804F0BFFDBFA10FA804F042
S31508000360BBFD03F01CBB8CA804F045FD0600DFF8B6
S31508000370A41D0FA803F0ACFC0FA9002003F080FD14
S315080003800600F6B2002E03D03000C0B203F083BBDD
S31508000390EDB2002D0BD08CAADFF87C1D0FA804F057
S315080003A081FD0FA803F06AFC0FA904F099F9DFF89C
S315080003B06C1D0FA804F076FD8CA90FA804F08CFD1F
S315080003C0A5A10FA804F088FD03F0E9BA8CA804F0EB
S315080003D030FD0600DFF8481D0FA803F079FC0FA9C9
S315080003E0002003F04DFD0600F6B2002E03D03000C3
S315080003F0C0B203F050BBEDB2002D0BD08CAADFF8CB
S31508000400041E0FA804F04EFD0FA803F037FC0FA931
S3150800041004F066F9DFF8F01D0FA804F043FD8CA977
S315080004200FA804F059FD8CA10FA804F055FD03F0A0
S31508000430B6BA04F021FC4790DFF8D01D0FA803F0E8
S3150800044047FC8CA804F09DFC06000FA9002003F0C9
S3150800045017FD0600F6B2002E03D03000C0B203F036
S315080004601ABBEDB2002D0AD0DFF8E81D0FA803F07D
S315080004702FFC0FA803F002FC0FA904F031F90020A5
S315080004803A90DAA10FA804F00DFD00200700802F8E
S315080004902EDA4798C257DFF8C01D0CA804F002FDF3
S315080004A00CA90FA804F018FD3A98401C3A903A98FF
S315080004B010281BDB68A10FA804F00EFD00203A9057
S315080004C00FA9002003F0DCFC0600F6B2002E03D0CC
S315080004D03000C0B203F0DFBA0FA803F0CFFB0FA9B4
S315080004E004F0FEF8C1A10FA804F0DCFC7F1CCEE7DF
S315080004F0DFF8101E0FA803F0EBFB0FA803F0BEFBF6
S315080005000FA904F0EDF8DFF8001E0FA804F0CAFCE6
S3150800051003F045BA0020060004F0A9FCEDB2002D50
S315080005200AD0DFF8E81D0FA803F0D2FB0FA803F0E6
S31508000530A5FB0FA904F0D4F8DFF8D41D0FA803F023
S31508000540C7FB03F02CBA5FFA88F8B8F1010F00F080
S3150800055056816078362839D0382800F0B88039288E
S3150800056000F02281492840F0458104F0C3FC0600CA
S31508000570EDB2002D0AD0DFF8041E0FA803F0A8FB81
S315080005800FA803F07BFB0FA904F0AAF8F6B2002E19
S3150800059005D1DFF8EC1D0FA803F09AFB15E0DFF88C
S315080005A0101E0FA803F094FB8DF8B4600FA9002065
S315080005B003F066FC0600F6B2002E03D03000C0B287
S315080005C003F069BA9DF8B400060018E1ADA804F076
S315080005D004FD0600F6B2002E04D1FFA8403004F050
S315080005E0B3FC0600F6B2002E5AD1DFF8C81D0FA8D4
S315080005F003F06EFB0FA9002003F042FC0600F6B2DA
S31508000600002E03D03000C0B203F045BADFF8A81DAB
S315080006100FA804F047FC0FA9002003F031FC0600E0
S31508000620F6B2002E03D03000C0B203F034BAFFABE6
S315080006304033ADAADFF8841D0FA804F033FC0FA9D8
S31508000640002003F01DFC0600F6B2002E06D030008E
S31508000650C0B203F020BA00BF0D0A0000EDB2002DAB
S315080006600AD0DFF8181D0FA803F032FB0FA803F015
S3150800067005FB0FA904F034F8DFF8F41D0FA804F001
S3150800068011FCB0A90FA804F027FCB39ADFF8E41D03
S315080006900CA804F007FC0CA90FA804F01DFC15E033
S315080006A0DFF8D41D0FA803F013FB8DF8B4600FA96B
S315080006B0002003F0E5FB0600F6B2002E03D030005A
S315080006C0C0B203F0E8B99DF8B400060097E03DA86B
S315080006D004F0C7FC0600F6B2002E27D1DFF8F81D95
S315080006E00FA803F0F5FA0FA9002003F0C9FB0600CE
S315080006F0F6B2002E03D03000C0B203F0CCB9DFF852
S31508000700DC1D0FA804F0CEFB0DF581710FA804F0CF
S31508000710E3FB37A10FA804F0DFFB0FA9002003F0C5
S31508000720AFFB0600F6B2002E01D104E067E0300008
S31508000730C0B203F0B0B9BDF80A21DFF8081E0FA849
S3150800074004F0B0FB0FA9002003F09AFB0600F6B2EE
S31508000750002E03D03000C0B203F09DB9EDB2002DD3
S315080007600AD0DFF8181C0FA803F0B2FA0FA803F096
S3150800077085FA0FA903F0B4FFDFF8CC1D0FA804F023
S3150800078091FB3DA90FA804F0A7FBDFF8C01D0FA831
S3150800079004F0A2FB0DF1FB010FA804F09DFB14A1C8
S315080007A00FA804F099FB2AE004F0BAFC0600EDB2A3
S315080007B0002D0AD0DFF8C41B0FA803F089FA0FA88A
S315080007C003F05CFA0FA903F08BFFF6B2002E05D1F1
S315080007D0DFF87C1D0FA803F07BFA06E0DFF8741D2E
S315080007E00FA803F075FA0020060008E000000000D4
S315080007F00D0A0000DFF8601D0FA803F069FA03F080
S31508000800CEB85FFA88F8B8F1010F40F034810520B8
S3150800081005F0F0FD00280BD056A807F0B1F9060040
S31508000820F6B2002E17D1C6A806F024FE060012E07E
S31508000830062005F0DFFD00280BD056A806F0B6FA0C
S315080008400600F6B2002E06D1C6A805F044FF06003B
S3150800085001E001200600EDB2002D0AD0DFF81C1BCE
S315080008600FA803F035FA0FA803F008FA0FA903F04A
S3150800087037FFF6B2002E40F0FC80DFF8EC1D0FA81B
S3150800088003F026FA0FA9002003F0FAFA0600F6B2DA
S31508000890002E03D03000C0B203F0FDB800200700D8
S315080008A0092F80F2D380002F0FD0022F35D020D306
S315080008B0042F5AD045D3062F00F07F8069D3082F1E
S315080008C000F0A380C0F08D80B2E0BDF86E01039001
S315080008D0C7A8C01C029057A8C01C0190C6A80090C3
S315080008E056AB0DF5B372DFF81C1E0FA804F0DAFA42
S315080008F09EE0BDF886010390CDA8C01C02905DA8B5
S31508000900C01C0190CCA800905CAB0DF5BF72DFF857
S31508000910F81D0FA804F0C6FA8AE0BDF89E010390F8
S31508000920D3A8C01C029063A8C01C0190D2A800904E
S3150800093062AB0DF5CB72DFF8D01D0FA804F0B2FA42
S3150800094076E0BDF8B6010390D9A8C01C029069A844
S31508000950C01C0190D8A8009068AB0DF5D772DFF8D7
S31508000960A81D0FA804F09EFA62E0BDF8CE01039018
S31508000970DFA8C01C02906FA8C01C0190DEA80090DA
S315080009806EAB0DF5E372DFF8801D0FA804F08AFA46
S315080009904EE0BDF8E6010390E5A8C01C029075A8D4
S315080009A0C01C0190E4A8009074AB0DF5EF72DFF857
S315080009B0581D0FA804F076FA3AE0BDF8FE01039038
S315080009C0EBA8C01C02907BA8C01C0190EAA8009066
S315080009D07AAB0DF5FB72DFF8301D0FA804F062FA4A
S315080009E026E0BDF816020390F1A8C01C029081A863
S315080009F0C01C0190F0A8009080AB83AA921CDFF877
S31508000A00081D0FA804F04EFA12E0BDF82E02039056
S31508000A10F7A8C01C029087A8C01C0190F6A80090F1
S31508000A2086AB89AA921CDFF8E01C0FA804F03AFAF4
S31508000A300FA9002003F024FA0600F6B2002E03D010
S31508000A403000C0B203F027B87F1C29E7DFF8F81D8D
S31508000A500FA804F027FA45A90FA804F03DFABEA18D
S31508000A600FA804F039FADFF8E81D0FA804F01AFAFF
S31508000A7070E102F094BF607830281FD0312800F06A
S31508000A805081492840F0668106F03EFC0600EDB22A
S31508000A90002D0AD0DFF8E4180FA803F019F90FA8FB
S31508000AA003F0ECF80FA903F01BFEF6B2002E04D1F2
S31508000AB0DFF8041E0FA803F00BF94BE1052005F03B
S31508000AC099FC00280BD056A807F05AF80600F6B28B
S31508000AD0002E17D1C6A806F0CDFC060012E00620A7
S31508000AE005F088FC00280BD056A806F05FF906002A
S31508000AF0F6B2002E06D1C6A805F0EDFD060001E007
S31508000B0001200600EDB2002D0AD0DFF870180FA8F4
S31508000B1003F0DEF80FA803F0B1F80FA903F0E0FD23
S31508000B20F6B2002E40F0FC80DFF83C1B0FA803F05D
S31508000B30CFF80FA9002003F0A3F90600F6B2002E9D
S31508000B4003D03000C0B202F0A6BF00200700092F6C
S31508000B5080F2D380002F0FD0022F35D020D3042F58
S31508000B605AD045D3062F00F07F8069D3082F00F0AE
S31508000B70A380C0F08D80B2E0BDF86E010390C7A8CF
S31508000B80C01C029057A8C01C0190C6A8009056AB7E
S31508000B900DF5B372DFF86C1B0FA804F083F99EE01D
S31508000BA0BDF886010390CDA8C01C02905DA8C01CA4
S31508000BB00190CCA800905CAB0DF5BF72DFF8481B1E
S31508000BC00FA804F06FF98AE0BDF89E010390D3A838
S31508000BD0C01C029063A8C01C0190D2A8009062AB0A
S31508000BE00DF5CB72DFF8201B0FA804F05BF976E051
S31508000BF0BDF8B6010390D9A8C01C029069A8C01C0C
S31508000C000190D8A8009068AB0DF5D772DFF8F81AEE
S31508000C100FA804F047F962E0BDF8CE010390DFA8FB
S31508000C20C01C02906FA8C01C0190DEA800906EAB95
S31508000C300DF5E372DFF8D01A0FA804F033F94EE089
S31508000C40BDF8E6010390E5A8C01C029075A8C01C73
S31508000C500190E4A8009074AB0DF5EF72DFF8A81ABE
S31508000C600FA804F01FF93AE0BDF8FE010390EBA8BF
S31508000C70C01C02907BA8C01C0190EAA800907AAB21
S31508000C800DF5FB72DFF8801A0FA804F00BF926E0C1
S31508000C90BDF816020390F1A8C01C029081A8C01CDA
S31508000CA00190F0A8009080AB83AA921CDFF8581A2E
S31508000CB00FA804F0F7F812E0BDF82E020390F7A883
S31508000CC0C01C029087A8C01C0190F6A8009086ABAD
S31508000CD089AA921CDFF8301A0FA804F0E3F80FA9C6
S31508000CE0002003F0CDF80600F6B2002E03D030003F
S31508000CF0C0B202F0D0BE7F1C29E7DFF84C1B0FA854
S31508000D0004F0D0F845A90FA804F0E6F812A10FA838
S31508000D1004F0E2F8DFF8381B0FA804F0C3F819E06E
S31508000D2018E006F05CFB0600EDB2002D0AD0DFF8ED
S31508000D304C160FA802F0CCFF0FA802F09FFF0FA9D0
S31508000D4003F0CEFCF6B2002E04D1DFF8D01D0FA8B2
S31508000D5002F0BEFF02F023BE0D0A00005FFA88F813
S31508000D60B8F1010F50D143A807F07FFD0600F6B28F
S31508000D70002E03D195A807F0FFFC0600F6B2002E58
S31508000D8026D1DFF8041E0FA802F0A2FF0FA9002043
S31508000D9003F076F80600F6B2002E03D03000C0B293
S31508000DA002F079BEDFF8E41D0FA804F07BF845A928
S31508000DB00FA804F091F8D3A10FA804F08DF80FA995
S31508000DC0002003F05DF80600F6B2002E02D105E019
S31508000DD002F0E5BD3000C0B202F05DBEEDB2002DF6
S31508000DE00AD0DFF898150FA802F072FF0FA802F0D4
S31508000DF045FF0FA903F074FC95AB43AADFF8C41DA1
S31508000E000FA804F04FF892E16078302824D03128F2
S31508000E1072D0322800F0C880332800F01B81492898
S31508000E2040F0808107F078F90600EDB2002D0AD06F
S31508000E30DFF848150FA802F04BFF0FA802F01EFFB7
S31508000E400FA903F04DFCF6B2002E04D1DFF8D81D29
S31508000E500FA802F03DFF6AE143A807F034FA06003E
S31508000E60F6B2002E03D195A807F0B1F90600EDB247
S31508000E70002D0AD0DFF804150FA802F029FF0FA8E5
S31508000E8002F0FCFE0FA903F02BFCF6B2002E26D1C9
S31508000E90DFF8D4170FA802F01BFF0FA9002002F0F5
S31508000EA0EFFF0600F6B2002E03D03000C0B202F003
S31508000EB0F2BDDFF894190FA803F0F4FF45A90FA8AF
S31508000EC004F00AF88FA10FA804F006F80FA900206D
S31508000ED002F0D6FF0600F6B2002E01D104E026E1A4
S31508000EE03000C0B202F0D7BD95AB43AADFF8881D23
S31508000EF00FA803F0D7FF1AE1C2A807F0D7FA060031
S31508000F00F6B2002E04D1FFA8303007F053FA0600D7
S31508000F10EDB2002D0AD0DFF864140FA802F0D8FE4F
S31508000F200FA802F0ABFE0FA903F0DAFBF6B2002E0B
S31508000F3027D1DFF8E41D0FA802F0CAFE0FA900208A
S31508000F4002F09EFF0600F6B2002E03D03000C0B2B3
S31508000F5002F0A1BDDFF8C41D0FA803F0A3FFC4A9C2
S31508000F60491C0FA803F0B8FF66A10FA803F0B4FF49
S31508000F700FA9002002F084FF0600F6B2002E01D168
S31508000F8004E0D4E03000C0B202F085BDFFAB3033D8
S31508000F90C2AADFF88C1D0FA803F084FFC7E000BFC4
S31508000FA001370020746E0108BEA807F070FB060022
S31508000FB0F6B2002E04D1FFA8203007F0EEFA06009C
S31508000FC0EDB2002D0AD0DFF8B4130FA802F080FEA8
S31508000FD00FA802F053FE0FA903F082FBF6B2002E0B
S31508000FE027D1DFF8401D0FA802F072FE0FA90020D6
S31508000FF002F046FF0600F6B2002E03D03000C0B25B
S3150800100002F049BDDFF8201D0FA803F04BFFC0A969
S31508001010491C0FA803F060FF3AA10FA803F05CFF74
S315080010200FA9002002F02CFF0600F6B2002E01D10F
S3150800103004E07CE03000C0B202F02DBDFFAB2033E7
S31508001040BEAADFF8D41D0FA803F02CFF6FE000BF7F
S31508001050487A010843A807F008FC0600F6B2002EF5
S3150800106003D195A807F088FB0600EDB2002D09D03C
S31508001070C2490FA802F02CFE0FA802F0FFFD0FA927
S3150800108003F02EFBF6B2002E2CD1DFF8FC1A0FA8BF
S3150800109002F01EFE0FA9002002F0F2FE0600F6B2CC
S315080010A0002E09D03000C0B202F0F5BC786A0108FB
S315080010B0D074010864820108DFF8D01A0FA803F07B
S315080010C0F1FE45A90FA803F007FF0EA10FA803F02C
S315080010D003FF0FA9002002F0D3FE0600F6B2002E89
S315080010E001D104E023E03000C0B202F0D4BC95ABD5
S315080010F043AADFF8D01A0FA803F0D4FE17E000BF02
S31508001100848201080D0A0000F8740108A482010807
S31508001110C482010820750108E482010804830108D5
S3150800112048750108DFF830140FA802F0D1FD02F067
S3150800113036BC5FFA88F8B8F1010F69D151A807F0F3
S31508001140FBFD0600F6B2002E03D1FCA807F071FCE1
S315080011500600EDB2002D09D088490FA802F0B8FDA7
S315080011600FA802F08BFD0FA903F0BAFAF6B2002E0B
S3150800117026D1DFF8C01D0FA802F0AAFD0FA900208E
S3150800118002F07EFE0600F6B2002E03D03000C0B292
S3150800119002F081BCDFF8A01D0FA803F083FE53A957
S315080011A00FA803F099FECEA10FA803F095FE0FA98C
S315080011B0002002F065FE0600F6B2002E02D105E018
S315080011C002F0EDBB3000C0B202F065BCBDF8542198
S315080011D0DFF8681D0FA803F065FE0FA9002002F0CE
S315080011E04FFE0600F6B2002E03D03000C0B202F061
S315080011F052BCFCAB51AADFF8481D0FA803F052FEFB
S315080012000AE100BF248301084483010870750108B8
S315080012106078302822D0312800F08A80492840F0AA
S31508001220FB8007F0B3FB0600EDB2002D09D0534949
S315080012300FA802F04DFD0FA802F020FD0FA903F03C
S315080012404FFAF6B2002E04D1DFF8DC1D0FA802F023
S315080012503FFDE1E06C7A01086896010851A807F09D
S315080012606BFD0600EDB2002D09D044490FA802F027
S315080012702FFD0FA802F002FD0FA903F031FAF6B20E
S31508001280002E26D1DFF8AC1C0FA802F021FD0FA90D
S31508001290002002F0F5FD0600F6B2002E03D030005D
S315080012A0C0B202F0F8BBDFF8901C0FA803F0FAFDF5
S315080012B053A90FA803F010FE89A10FA803F00CFE8E
S315080012C00FA9002002F0DCFD0600F6B2002E01D1BF
S315080012D004E0A1E03000C0B202F0DDBBBDF8542145
S315080012E0DFF8581C0FA803F0DDFD0FA9002002F057
S315080012F0C7FD0600F6B2002E0CD03000C0B202F0D0
S31508001300CABB00BF5C94010828910108BC87010884
S31508001310907A0108DFF8C01D0FA803F0C3FD51A994
S315080013200FA803F0D9FD6EA10FA803F0D5FD73E051
S315080013303DA808F000F80600EDB2002D09D00F49C7
S315080013400FA802F0C5FC0FA802F098FC0FA903F03D
S31508001350C7F9F6B2002E33D1DFF8D81B0FA802F072
S31508001360B7FC0FA9002002F08BFD0600F6B2002E8E
S3150800137008D03000C0B202F08EBB00BF64830108FB
S315080013809875010855490FA803F08CFD0DF5817174
S315080013900FA803F0A1FD52A10FA803F09DFD0FA908
S315080013A0002002F06DFD0600F6B2002E09D10CE011
S315080013B0C0750108E8750108AC6E01083C91010882
S315080013C02AE03000C0B202F066BBBDF80A215D49CA
S315080013D00FA803F067FD0FA9002002F051FD0600D3
S315080013E0F6B2002E03D03000C0B202F054BB564904
S315080013F00FA803F057FD3DA90FA803F06DFD53494B
S315080014000FA803F069FD0DF1FB010FA803F064FDB9
S3150800141033A10FA803F060FD02F0C1BAEDB2002DAA
S315080014200AD0DFF8601D0FA802F052FC0FA802F0E0
S3150800143025FC0FA903F054F9DFF84C1D0FA802F09C
S3150800144047FC02F0ACBAEDB2002D0AD0DFF8341D25
S315080014500FA802F03DFC0FA802F010FC0FA903F03C
S315080014603FF9DFF8281D0FA802F032FC02F097BA00
S31508001470C092010868940108107601083DA808F092
S315080014808FF90600EDB2002D0AD0DFF8F81C0FA878
S3150800149002F01EFC0FA802F0F1FB0FA903F020F9D9
S315080014A0F6B2002E04D1FFA8083008F0CDF80600E1
S315080014B0F6B2002E2DD1DFF8E81D0FA802F008FCC1
S315080014C00FA9002002F0DCFC0600F6B2002E09D0B7
S315080014D03000C0B202F0DFBA387601085091010830
S315080014E00D0A0000DFF8BC1D0FA803F0DBFC0DF5A4
S315080014F081710FA803F0F0FCD4A10FA803F0ECFC4F
S315080015000FA9002002F0BCFC0600F6B2002E02D19C
S3150800151005E002F044BA3000C0B202F0BCBABDF829
S315080015200A2108490FA803F0BDFC0FA9002002F004
S31508001530A7FC0600F6B2002E10D03000C0B202F0AA
S31508001540AABA00BF84830108D0920108E092010874
S315080015506076010888760108A4830108FFA80F3081
S3150800156001900DF1FB000090FFAB08333DAADFF8B0
S31508001570C41D0FA803F096FC02F011BA5FFA88F8AA
S31508001580B8F1010F74D1B4A808F0BAFA0600EDB2A2
S31508001590002D0AD0DFF8EC1B0FA802F099FB0FA864
S315080015A002F06CFB0FA903F09BF8F6B2002E5DD192
S315080015B0DFF8841D0FA802F08BFB0FA9002002F0AC
S315080015C05FFC0600F6B2002E03D03000C0B202F06F
S315080015D062BADFF8E41D0FA803F064FC0FA9002027
S315080015E002F04EFC0600F6B2002E03D03000C0B260
S315080015F002F051BADFF8C41D0FA802F069FBBAA9B8
S315080016000FA803F069FC91A10FA803F065FC0FA9C8
S31508001610002002F035FC0600F6B2002E03D030009A
S31508001620C0B202F038BADFF8D41D0FA802F050FB9A
S31508001630B4A90FA803F050FCDFF8C41D0FA803F0E7
S315080016404BFCB6A90FA803F047FCDFF8B81D0FA896
S3150800165003F042FCB8A90FA803F03EFC7BA10FA833
S3150800166003F03AFC62E200BFB47A010802F097B9C7
S315080016706078302800F06781312800F0D58132285B
S3150800168000F00282332800F01A82492840F0498285
S315080016905FFA88F8B8F1020F1AD108F02FF9060098
S315080016A0EDB2002D0AD0DFF8DC1A0FA802F010FB05
S315080016B00FA802F0E3FA0FA903F012F8F6B2002E0B
S315080016C040F04081DFF8B41D0FA802F001FB39E1B4
S315080016D0EDB2002D0AD0DFF8AC1A0FA802F0F8FA1E
S315080016E00FA802F0CBFA0FA902F0FAFF5FFA88F802
S315080016F0B8F11D0F0AD0DFF8C81D0FA802F0E8FAE6
S3150800170020E100BFC8700108F8700108A0783A28DF
S3150800171017D160792E2814D1207A2E2811D1E07A93
S315080017202E280ED1A07B2E280BD1607C2E2808D11E
S31508001730207D2E2805D1E07D2E2802D1A07E2E28D8
S3150800174005D0DFF8C01D0FA802F0C2FAFAE00020A3
S31508001750359000200700092F26DA032000FB07F042
S31508001760204490F903008DF83000032000FB07F0B1
S31508001770204490F904008DF8310000208DF83200DD
S315080017800CA802F09FF9002807D1DFF8B81D0FA8AA
S3150800179002F09EFA0120359006E00CA802F0B7F98F
S315080017A099A9C8557F1CD6E79DF86402082805DB69
S315080017B0DFF8D01D0FA802F08BFAB7E19DF8640296
S315080017C010F007008DF8CD009DF86502022805DBAC
S315080017D0DFF8B41D0FA802F07BFAA7E19DF86502B1
S315080017E010F00100C0B2C0008DF8CC009DF866026A
S315080017F0022805DBDFF8D01D0FA802F069FA95E18B
S315080018009DF8660210F00100C0B200018DF8CB0009
S315080018109DF86702022805DBDFF8B01D0FA802F065
S3150800182057FA83E19DF8670210F00100C0B2400143
S315080018308DF8CA009DF8680240280BDBDFF8CC1D3E
S315080018400FA802F045FA71E1808901080D0A000027
S31508001850649101089DF8680210F03F008DF8C900F0
S315080018609DF86902022805DBDFF8E01D0FA802F0E3
S315080018702FFA5BE19DF8690210F0010080214843C8
S315080018808DF8C8009DF86A02042805DBDFF8C01D3C
S315080018900FA802F01DFA49E19DF86A0210F003004C
S315080018A08DF8B7009DF86B02042807DBDFF8E01D0A
S315080018B00FA802F00DFA39E1E46E01089DF86B02F3
S315080018C010F00300C0B280008DF8B6009DF86C02D7
S315080018D0022805DBDFF8BC1D0FA802F0F9F925E19F
S315080018E09DF86C0210F00100C0B200018DF8B50039
S315080018F09DF8CD009DF8CC1008189DF8CB10081857
S315080019009DF8CA1008188DF8EC009DF8C9009DF8D6
S31508001910C81008188DF8ED009DF8B7009DF8B610A8
S3150800192008189DF8B51008188DF8EE003BA808F0C1
S315080019300DF80600F6B2002E04D1DFF8D01D0FA868
S3150800194002F0C6F9F2E0B4A808F0DAF80600EDB23B
S31508001950002D0AD0DFF82C180FA802F0B9F90FA845
S3150800196002F08CF90FA902F0BBFEF6B2002E5AD18E
S31508001970DFF8C4190FA802F0ABF90FA9002002F08E
S315080019807FFA0600F6B2002E03D03000C0B202F08D
S3150800199082B8DFF8241A0FA803F084FA0FA90020EA
S315080019A002F06EFA0600F6B2002E03D03000C0B27E
S315080019B002F071B8DFF8041A0FA802F089F9BAA97B
S315080019C00FA803F089FAD3A10FA803F085FA0FA987
S315080019D0002002F055FA0600F6B2002E03D03000B9
S315080019E0C0B202F058B8DFF8141A0FA802F070F95E
S315080019F0B4A90FA803F070FADFF8041A0FA803F0C9
S31508001A006BFAB6A90FA803F067FADFF8F8190FA85A
S31508001A1003F062FAB8A90FA803F05EFABDA10FA8F1
S31508001A2003F05AFA82E081E04DA808F022F8060091
S31508001A30EDB2002D0AD0DFF84C170FA802F048F9CE
S31508001A400FA802F01BF90FA902F04AFEF6B2002E03
S31508001A5019D1DFF8A41D0FA802F03AF99DF8342130
S31508001A60DFF8D41D0CA803F01DFA0CA90FA803F083
S31508001A7033FA4DA9491C0FA803F02EFAA5A10FA801
S31508001A8003F02AFA52E051E007F08AFF0600EDB2A9
S31508001A90002D0AD0DFF8EC160FA802F019F90FA8E6
S31508001AA002F0ECF80FA902F01BFEF6B2002E05D1E3
S31508001AB0DFF8C41D0FA802F00BF937E036E04FA88F
S31508001AC007F090FF0600EDB2002D0AD0DFF8B41635
S31508001AD00FA802F0FDF80FA802F0D0F80FA902F03F
S31508001AE0FFFDF6B2002E1BD1DFF8CC1D0FA802F0C1
S31508001AF0EFF89DF83C21DFF8401D0CA803F0D2F959
S31508001B000CA90FA803F0E8F94FA9491C0FA803F080
S31508001B10E3F980A10FA803F0DFF907E0487201088E
S31508001B2004E0DFF8981D0FA802F0D2F801F037BFDD
S31508001B306078442818D055281FD1042008F02AF9BF
S31508001B40EDB2002D0AD0DFF83C160FA802F0C0F857
S31508001B500FA802F093F80FA902F0C2FDDFF8C41D22
S31508001B600FA802F0B5F80DE0042008F021F9DFF817
S31508001B70B81D0FA802F0ACF804E0DFF8B01D0FA8F6
S31508001B8002F0A6F801F00BBFB076010898890108A3
S31508001B905FFA88F8B8F1020F16DAEDB2002D0AD00E
S31508001BA0DFF8E0150FA802F093F80FA802F066F820
S31508001BB00FA902F095FDDFF8BC1D0FA802F088F802
S31508001BC001F0DBBED88701086078432800F0E08280
S31508001BD0442801F0878249280DD04B2801F0C0829D
S31508001BE04D2801F09186522801F09E82552801F071
S31508001BF0218601F0B1BE5FFA88F8B8F1090F15DA47
S31508001C00EDB2002D0AD0DFF87C150FA802F060F8B7
S31508001C100FA802F033F80FA902F062FDDFF8581D8D
S31508001C200FA802F055F8AAE274720108A0785128A4
S31508001C3000F0FC81C0F09E82532802D0C0F0CE800E
S31508001C4098E2E0783A2802D1A0792E2816D0EDB28B
S31508001C50002D0AD0DFF82C150FA802F039F80FA8C6
S31508001C6002F00CF80FA902F03BFDDFF8101D0FA8D3
S31508001C7002F02EF8B1E000BFF4870108EDB2002D9E
S31508001C800AD0DFF800150FA802F022F80FA801F015
S31508001C90F5FF0FA902F024FD94F904008DF8300031
S31508001CA094F905008DF8310000208DF832000CA853
S31508001CB001F008FF002805D1DFF8DC1D0FA802F0A7
S31508001CC007F88AE00CA801F022FF319094F9070082
S31508001CD08DF8300094F908008DF8310000208DF851
S31508001CE032000CA801F0EEFE002805D1DFF8AC1D85
S31508001CF00FA801F0EDFF70E00CA801F008FF349082
S31508001D003498002812D1319ADFF8941D0FA803F0F1
S31508001D10C9F839E00D0A0000D87A01087891010857
S31508001D20B0890108C48301088C9101080020359008
S31508001D30002007003498874226DA032000FB07F0C4
S31508001D40204490F90A008DF83000032000FB07F0C4
S31508001D50204490F90B008DF8310000208DF83200F0
S31508001D600CA801F0AFFE002807D1DFF82C1D0FA83C
S31508001D7001F0AEFF0120359006E00CA801F0C7FE81
S31508001D8099A9C8557F1CD5E73598002805D1319AF9
S31508001D90DFF8D01D0FA803F085F800200700349857
S31508001DA087420BDA99A8C25DCCA10CA803F07AF891
S31508001DB00CA90FA803F090F87F1CF0E7C8A10FA89C
S31508001DC003F08AF84FF4FA733498020092B299A98C
S31508001DD0319880B208F00AF90600D0E1E0783A288E
S31508001DE005D1A0792E2802D1607A2E2816D0EDB218
S31508001DF0002D0AD0DFF88C130FA801F069FF0FA891
S31508001E0001F03CFF0FA902F06BFCDFF8DC1D0FA800
S31508001E1001F05EFF06E100BFA0910108EDB2002DBA
S31508001E2009D0D8490FA801F053FF0FA801F026FFE3
S31508001E300FA902F055FC94F904008DF8300094F9C6
S31508001E4005008DF8310000208DF832000CA801F04D
S31508001E5039FE002805D1DFF8941D0FA801F038FFD8
S31508001E60E0E00CA801F053FE319094F907008DF8D4
S31508001E70300094F908008DF8310000208DF8320002
S31508001E800CA801F01FFE002805D1DFF8E41D0FA8F5
S31508001E9001F01EFFC6E00CA801F039FE349094F953
S31508001EA00A008DF8300094F90B008DF831000020F7
S31508001EB08DF832000CA801F005FE002805D1DFF8E0
S31508001EC0B41D0FA801F004FFACE00CA801F01FFE3A
S31508001ED039903498002806D1319ADFF89C1D0FA84E
S31508001EE002F0E0FF35E00020359000200700349826
S31508001EF087422EDA032000FB07F0204490F90D00F4
S31508001F008DF83000032000FB07F0204490F90E00FE
S31508001F108DF8310000208DF832000CA801F0D2FDB2
S31508001F2000280FD1DFF8D41D0FA801F0D1FE01203B
S31508001F3035900EE0C8890108E0890108FC7A010895
S31508001F40F88901080CA801F0E2FD99A9C8557F1C7B
S31508001F50CDE73598002805D1319ADFF8A41D0FA8DA
S31508001F6002F0A0FF00200700349887420BDA99A8F0
S31508001F70C25D5AA10CA802F095FF0CA90FA802F0A1
S31508001F80ABFF7F1CF0E756A10FA802F0A5FF4FF4A0
S31508001F90FA733498020092B299A9319880B208F07F
S31508001FA025F80600F6B2002E0ED14FF4FA733998CA
S31508001FB0020092B299A9319880B208F062F8060038
S31508001FC0F6B2002E05D100E0D9E0142008F094F806
S31508001FD00600F6B2002E25D10FA9002001F050FF09
S31508001FE00600F6B2002E03D03000C0B201F053BD91
S31508001FF0DFF8D01D0FA802F055FF0020070039981A
S3150800200087420BDA99A8C25D34A10CA802F04AFFF0
S315080020100CA90FA802F060FF7F1CF0E730A10FA8FB
S3150800202002F05AFFABE000BFA0720108E0783A2838
S3150800203002D1A0792E2812D0EDB2002D09D051492F
S315080020400FA801F045FE0FA801F018FE0FA902F02F
S3150800205047FBDFF8F41D0FA801F03AFE89E0EDB260
S31508002060002D09D047490FA801F032FE0FA801F04C
S3150800207005FE0FA902F034FB94F904008DF8300030
S3150800208094F905008DF8310000208DF832000CA86F
S3150800209001F018FD002805D1DFF8B01D0FA801F0E2
S315080020A017FE66E00CA801F032FD319094F907009E
S315080020B08DF8300094F908008DF8310000208DF86D
S315080020C032000CA801F0FEFC00280BD1DFF8001E38
S315080020D00FA801F0FDFD4CE0F092010825782E00CE
S315080020E00D0A00000CA801F012FD3990319ADFF8AC
S315080020F0881B0FA802F0D6FE4FF4FA73399802002F
S3150800210092B299A9319880B207F0BBFF0600F6B2E1
S31508002110002E07D1142007F0EFFF0600F6B2002EB6
S3150800212027D100E02BE00FA9002001F0A9FE060048
S31508002130F6B2002E03D03000C0B201F0ACBCDFF816
S31508002140841C0FA802F0AEFE0020070039988742CB
S315080021500BDA99A8C25DD9A10CA802F0A3FE0CA9B6
S315080021600FA802F0B9FE7F1CF0E7D6A10FA802F06F
S31508002170B3FE04E0DFF844170FA801F0A9FD01F04B
S31508002180FCBB00BF6483010828710108108A010896
S31508002190002006005FFA88F8B8F1020F40F08B803D
S315080021A0052004F027F9002804D056A805F062F99E
S315080021B006000BE0062004F01DF9002804D056A8F6
S315080021C004F089FA060001E001200600EDB2002DB0
S315080021D00AD0DFF8181E0FA801F07AFD0FA801F043
S315080021E04DFD0FA902F07CFAF6B2002E5CD13DA88F
S315080021F007F02AFA0600F6B2002E49D151A806F0D1
S3150800220018FC0600F6B2002E3BD1ADA802F09CFEE3
S315080022100600F6B2002E2DD1ADA8099051A8089057
S315080022203DA8079056A8069086A8059080A8049011
S315080022307AA8039074A802906EA8019068A80090E6
S3150800224062AB5CAADFF8181E0FA802F02BFE0FA9D6
S31508002250002001F015FE0600F6B2002E03D030006D
S31508002260C0B201F018BCDFF8FC1D0FA802F01AFE78
S3150800227000F036BFDFF8F01D0FA802F013FE00F0DD
S315080022802FBFDFF8E81D0FA802F00CFE00F028BFEC
S31508002290DFF8DC1D0FA802F005FE00F021BF00BF25
S315080022A0B491010850910108DFF8C81D0FA802F083
S315080022B0F9FD00F015BFA078492800F0F4865228E9
S315080022C000F03683532804D0542800F0998600F08D
S315080022D007BFE0783A2813D0EDB2002D0AD0DFF810
S315080022E00C1D0FA801F0F4FC0FA801F0C7FC0FA9FC
S315080022F002F0F6F9DFF8281E0FA801F0E9FC0FE353
S31508002300EDB2002D0AD0DFF8E41C0FA801F0E0FCBE
S315080023100FA801F0B3FC0FA902F0E2F95FFA88F8FA
S31508002320B8F1050F0ADADFF8FC1D0FA801F0D0FC9A
S31508002330F6E200BFD876010810880108201D309003
S31508002340309948A801F0C4FC00200B9000200A90A0
S315080023500AA800900BAB36AADFF8001E48A807F0BB
S31508002360B3FF032840F0D7820A9807F0BFFFCDE9EC
S3150800237002010B9807F0BAFFCDE9000136AADFF88B
S31508002380181E0FA802F08EFD0422DFF8101E36A8CC
S3150800239007F0D3FF002819D10B9A0A99002008F0F4
S315080023A049F80600F6B2002E0AD1DFF8F41D0FA888
S315080023B002F078FDACE200BF1C6F0108009301082B
S315080023C0DFF8E01D0FA802F06DFDA1E20422DFF898
S315080023D0D81D36A807F0B1FF00281BD10B9A0A9919
S315080023E0012008F027F80600F6B2002E0CD1DFF817
S315080023F0141E0FA802F056FD8AE200BF7494010865
S31508002400809401088C940108DFF8981D0FA802F043
S3150800241049FD7DE20422DFF8F01D36A807F08DFF9E
S31508002420002814D10B9A0A99022008F003F806002E
S31508002430F6B2002E05D1DFF8D41D0FA802F032FD42
S3150800244066E2DFF8601D0FA802F02CFD60E20422A8
S31508002450DFF8BC1D36A807F070FF002816D10B9AC6
S315080024600A99032007F0E6FF0600F6B2002E07D108
S31508002470DFF8A01D0FA802F015FD49E2E86901087A
S31508002480DFF8201D0FA802F00DFD41E20422DFF857
S31508002490881D36A807F051FF00281BD10B9A0A9908
S315080024A0042007F0C7FF0600F6B2002E0CD1DFF8AD
S315080024B0181E0FA802F0F6FC2AE200BF25782E00A7
S315080024C0BC6A01080D0A0000DFF8D81C0FA802F044
S315080024D0E9FC1DE20422DFF8F41D36A807F02DFFFB
S315080024E0002817D10B9A0A99052007F0A3FF0600C2
S315080024F0F6B2002E08D1DFF8D81D0FA802F0D2FCDC
S3150800250006E200BF306A0108DFF8981C0FA802F03F
S31508002510C9FCFDE10422DFF8BC1D36A807F00DFF53
S31508002520002817D10B9A0A99062007F083FF0600A0
S31508002530F6B2002E08D1DFF8FC1D0FA802F0B2FC97
S31508002540E6E100BFC46B0108DFF8581C0FA802F0CB
S31508002550A9FCDDE10422DFF8E01D36A807F0EDFE50
S31508002560002819D10B9A0A99072007F063FF06007D
S31508002570F6B2002E0AD1DFF8C41D0FA802F092FCAD
S31508002580C6E100BF846D0108C06D0108DFF8141CA0
S315080025900FA802F087FCBBE10422DFF8A41D36A8C9
S315080025A007F0CBFE002819D10B9A0A99082007F0E4
S315080025B041FF0600F6B2002E0AD1DFF8881D0FA8E3
S315080025C002F070FCA4E100BFFC6D0108546F01081D
S315080025D0DFF8D01B0FA802F065FC99E10422DFF8AA
S315080025E0681D36A807F0A9FE002817D10B9A0A9984
S315080025F0092007F01FFF0600F6B2002E08D1DFF803
S315080026004C1D0FA802F04EFC82E100BF046C0108C5
S31508002610DFF8901B0FA802F045FC79E10422DFF8E9
S31508002620301D36A807F089FE002819D10B9A0A9999
S315080026300A2007F0FFFE0600F6B2002E0AD1DFF8E0
S315080026401C1E0FA802F02EFC62E100BF446C0108B4
S31508002650846C0108DFF84C1B0FA802F023FC57E135
S315080026600422DFF8FC1D36A807F067FE002819D1FA
S315080026700B9A0A990B2007F0DDFE0600F6B2002E2B
S315080026800AD1DFF8E01D0FA802F00CFC40E100BFFC
S31508002690C46C0108046D0108DFF8081B0FA802F0D6
S315080026A001FC35E10422DFF8201E36A807F045FEB6
S315080026B0002814D10B9A0A990C2007F0BBFE0600D5
S315080026C0F6B2002E05D1DFF8041E0FA802F0EAFBC9
S315080026D01EE1DFF8D01A0FA802F0E4FB18E1042285
S315080026E0DFF8EC1D36A807F028FE002816D10B9A4D
S315080026F00A990D2007F09EFE0600F6B2002E07D1B5
S31508002700DFF81C1E0FA802F0CDFB01E1006B0108E3
S31508002710DFF8901A0FA802F0C5FBF9E00422DFF8EB
S31508002720041E36A807F009FE002814D10B9A0A9948
S315080027300E2007F07FFE0600F6B2002E05D1DFF860
S31508002740E81D0FA802F0AEFBE2E0DFF8581A0FA862
S3150800275002F0A8FBDCE00422DFF82C1E36A807F0FE
S31508002760ECFD002814D10B9A0A990F2007F062FE97
S315080027700600F6B2002E05D1DFF8101E0FA802F0EB
S3150800278091FBC5E0DFF81C1A0FA802F08BFBBFE02F
S315080027900422DFF8FC1D36A807F0CFFD002814D167
S315080027A00B9A0A99102007F045FE0600F6B2002E8D
S315080027B005D1DFF8E01D0FA802F074FBA8E0DFF8EA
S315080027C0E4190FA802F06EFBA2E00422DFF8C81D88
S315080027D036A807F0B2FD002816D10B9A0A991120DF
S315080027E007F028FE0600F6B2002E07D1DFF8AC1D6A
S315080027F00FA802F057FB8BE0E4830108DFF8A41961
S315080028000FA802F04FFB83E00422DFF83C1E36A82F
S3150800281007F093FD002817D10B9A0A99122007F0A2
S3150800282009FE0600F6B2002E08D1DFF8201E0FA812
S3150800283002F038FB6CE000BF70960108DFF86419F7
S315080028400FA802F02FFB63E00422DFF8341E36A837
S3150800285007F073FD002817D10B9A0A99132007F081
S31508002860E9FD0600F6B2002E08D1DFF8181E0FA8FB
S3150800287002F018FB4CE000BFF86F0108DFF82419D6
S315080028800FA802F00FFB43E00422DFF8FC1D36A870
S3150800289007F053FD002819D10B9A0A99142007F05E
S315080028A0C9FD0600F6B2002E0AD1DFF8E01D0FA812
S315080028B002F0F8FA2CE000BF207B0108A483010887
S315080028C0DFF8E0180FA802F0EDFA21E00422DFF89D
S315080028D03C1E36A807F031FD002814D10B9A0A9938
S315080028E0152007F0A7FD0600F6B2002E05D1DFF881
S315080028F0201E0FA802F0D6FA0AE0DFF8A8180FA8DB
S3150800290002F0D0FA04E0DFF80C1E0FA802F0CAFAAB
S315080029100020060004E0DFF8581E0FA801F0D8F9D9
S31508002920DEE300BF0484010824840108CC72010890
S31508002930EDB2002D0AD0DFF8B4160FA801F0C8F9D9
S315080029400FA801F09BF90FA901F0CAFE07F0A4FD34
S315080029500200DFF8541E0FA802F0A4FA0FA90020FF
S3150800296001F08EFA0600F6B2002E09D03000C0B289
S3150800297001F091B844840108007701082877010816
S31508002980DFF8281E0FA802F08DFA0FA9002001F023
S3150800299077FA0600F6B2002E03D03000C0B201F076
S315080029A07AB800200700162F80F22483002F33D030
S315080029B0022F77D050D3042F00F0B480C0F0928055
S315080029C0062F00F0F180C0F0CF80082F00F030818C
S315080029D0C0F00E810A2F00F07181C0F04F810C2FD4
S315080029E000F0B081C0F08E810E2F00F0ED81C0F0AE
S315080029F0C981102F00F02C82C0F00682122F00F039
S31508002A006982C0F04582142F00F0A482C0F0828249
S31508002A10152F00F0BF82DCE23800C0B207F02BFDAC
S31508002A2083463800C0B207F02CFD81463800C0B294
S31508002A3007F02DFD8246584607F058FCCDE90201FD
S31508002A40484607F053FCCDE900015246DFF81C1E44
S31508002A500FA802F027FABCE23800C0B207F00BFD57
S31508002A6083463800C0B207F00CFD81463800C0B274
S31508002A7007F00DFD8246584607F038FCCDE90201FD
S31508002A80484607F033FCCDE900015246DFF81C1E24
S31508002A900FA802F007FA9CE2F87201082C700108E8
S31508002AA0288A01083800C0B207F0E5FC83463800DA
S31508002AB0C0B207F0E6FC81463800C0B207F0E7FC72
S31508002AC08246584607F012FCCDE90201484607F04F
S31508002AD00DFCCDE900015246DFF8041E0FA802F0EE
S31508002AE0E1F976E23800C0B207F0C5FC8346380043
S31508002AF0C0B207F0C6FC81463800C0B207F0C7FC72
S31508002B008246584607F0F2FBCDE90201484607F02F
S31508002B10EDFBCDE900015246DFF8241E0FA802F0AE
S31508002B20C1F956E23800C0B207F0A5FC8346380062
S31508002B30C0B207F0A6FC81463800C0B207F0A7FC71
S31508002B408246584607F0D2FBCDE90201484607F00F
S31508002B50CDFBCDE900015246DFF8F81D0FA802F0BB
S31508002B60A1F936E2C89101083800C0B207F083FC23
S31508002B7083463800C0B207F084FC81463800C0B2EC
S31508002B8007F085FC8246584607F0B0FBCDE90201FE
S31508002B90484607F0ABFBCDE900015246DFF8101EA8
S31508002BA00FA802F07FF914E23800C0B207F063FC00
S31508002BB083463800C0B207F064FC81463800C0B2CC
S31508002BC007F065FC8246584607F090FBCDE90201FE
S31508002BD0484607F08BFBCDE900015246DFF8D41DC5
S31508002BE00FA802F05FF9F4E1507701082473010891
S31508002BF03800C0B207F03FFC83463800C0B207F081
S31508002C0040FC81463800C0B207F041FC824658466F
S31508002C1007F06CFBCDE90201484607F067FBCDE9F2
S31508002C2000015246DFF8E81D0FA802F03BF9D0E193
S31508002C303800C0B207F01FFC83463800C0B207F060
S31508002C4020FC81463800C0B207F021FC824658466F
S31508002C5007F04CFBCDE90201484607F047FBCDE9F2
S31508002C6000015246DFF8D41D0FA802F01BF9B0E1A7
S31508002C7060700108386E0108408A01083800C0B241
S31508002C8007F0F9FB83463800C0B207F0FAFB814625
S31508002C903800C0B207F0FBFB8246584607F026FB11
S31508002CA0CDE90201484607F021FBCDE9000152466D
S31508002CB0DFF8BC1D0FA802F0F5F88AE13800C0B2AB
S31508002CC007F0D9FB83463800C0B207F0DAFB814625
S31508002CD03800C0B207F0DBFB8246584607F006FB11
S31508002CE0CDE90201484607F001FBCDE9000152464D
S31508002CF0DFF8AC1D0FA802F0D5F86AE1787701086D
S31508002D00DC9101083800C0B207F0B5FB83463800ED
S31508002D10C0B207F0B6FB81463800C0B207F0B7FB71
S31508002D208246584607F0E2FACDE90201484607F01E
S31508002D30DDFACDE900015246DFF8681D0FA802F05A
S31508002D40B1F846E13800C0B207F095FB8346380073
S31508002D50C0B207F096FB81463800C0B207F097FB71
S31508002D608246584607F0C2FACDE90201484607F0FE
S31508002D70BDFACDE900015246DFF82C1D0FA802F076
S31508002D8091F826E13800C0B207F075FB8346380093
S31508002D90C0B207F076FB81463800C0B207F077FB71
S31508002DA08246584607F0A2FACDE90201484607F0DE
S31508002DB09DFACDE900015246DFF8F01C0FA802F093
S31508002DC071F806E1989401083800C0B207F053FB81
S31508002DD083463800C0B207F054FB81463800C0B2BB
S31508002DE007F055FB8246584607F080FACDE90201FE
S31508002DF0484607F07BFACDE900015246DFF8B01CD9
S31508002E000FA802F04FF8E4E03800C0B207F033FB31
S31508002E1083463800C0B207F034FB81463800C0B29A
S31508002E2007F035FB8246584607F060FACDE90201FD
S31508002E30484607F05BFACDE900015246DFF8741CF4
S31508002E400FA802F02FF8C4E0A07701085073010814
S31508002E503800C0B207F00FFB83463800C0B207F04F
S31508002E6010FB81463800C0B207F011FB824658466F
S31508002E7007F03CFACDE90201484607F037FACDE9F2
S31508002E8000015246DFF8301C0FA802F00BF8A0E04C
S31508002E903800C0B207F0EFFA83463800C0B207F030
S31508002EA0F0FA81463800C0B207F0F1FA8246584671
S31508002EB007F01CFACDE90201484607F017FACDE9F2
S31508002EC000015246DFF8F41B0FA801F0EBFF80E083
S31508002ED0947001083800C0B207F0CDFA834638006E
S31508002EE0C0B207F0CEFA81463800C0B207F0CFFA72
S31508002EF08246584607F0FAF9CDE90201484607F036
S31508002F00F5F9CDE900015246DFF8B41B0FA801F028
S31508002F10C9FF5EE03800C0B207F0ADFA8346380054
S31508002F20C0B207F0AEFA81463800C0B207F0AFFA71
S31508002F308246584607F0DAF9CDE90201484607F015
S31508002F40D5F9CDE900015246DFF8201C0FA801F09B
S31508002F50A9FF3EE03800C0B207F08DFA8346380074
S31508002F60C0B207F08EFA81463800C0B207F08FFA71
S31508002F708246584607F0BAF9CDE90201484607F0F5
S31508002F80B5F9CDE900015246DFF8E41B0FA801F0B8
S31508002F9089FF1EE03800C0B207F06DFA8346380094
S31508002FA0C0B207F06EFA81463800C0B207F06FFA71
S31508002FB08246584607F09AF9CDE90201484607F0D5
S31508002FC095F9CDE900015246DFF8A81B0FA801F0D4
S31508002FD069FF0FA9002000F053FF0600F6B2002E85
S31508002FE006D03000C0B200F056BD00BF64830108A9
S31508002FF07F1CD8E4DFF8801B0FA801F053FF6FE0B1
S31508003000E0783A2813D0EDB2002D0AD0DFF86C1B11
S315080030100FA800F05DFE0FA800F030FE0FA901F022
S315080030205FFBDFF85C1B0FA800F052FE3AE0EDB23A
S31508003030002D0AD0DFF8441B0FA800F049FE0FA8A0
S3150800304000F01CFE0FA901F04BFB5FFA88F8B8F1F7
S31508003050050F11DADFF82C1B0FA800F039FE21E066
S31508003060C8770108A4940108588A0108708A0108DB
S31508003070447B0108687B0108201D3090309948A8D8
S3150800308000F026FE309807F0EEF90600F6B2002E9C
S3150800309003D03000C0B200F0FEBCDFF8DC1A0FA87F
S315080030A001F000FF1CE007F07AF90600EDB2002DEA
S315080030B00AD0DFF8C81A0FA800F00AFE0FA800F019
S315080030C0DDFD0FA901F00CFBF6B2002E03D030008F
S315080030D0C0B200F0E0BCDFF8A01A0FA801F0E2FECB
S315080030E000F04BBC03F0C6F9ADF8CE00EDB2002DEA
S315080030F00CD0BDF8CE20DFF8901A0FA801F0D2FE4A
S315080031000FA800F0BBFD0FA901F0EAFABDF8CE2022
S31508003110DFF8781A0FA801F0C5FE00F02EBC00BF34
S31508003120F07701088C7B0108EDB2002D0DD0DFF891
S31508003130601A0FA800F0CCFD0FA800F09FFD0FA99C
S3150800314001F0CEFA642007F0C7F907F07CFADFF839
S31508003150441A0FA801F0A6FE00F00FBCB0940108AF
S31508003160002006005FFA88F8B8F1040F1EDAEDB2FF
S31508003170002D0AD0DFF8201A0FA800F0A9FD0FA825
S3150800318000F07CFD0FA901F0ABFADFF8101A0FA8C2
S3150800319000F09EFD4DE300BF888A01087896010875
S315080031A02C8801084888010880960108A0785228CA
S315080031B000F07482532840F02983E078422800F012
S315080031C0CC81522806D0532800F09D80542800F060
S315080031D02D815DE220793A2820D0EDB2002D0AD063
S315080031E0DFF8BC190FA800F073FD0FA800F046FD24
S315080031F00FA901F075FADFF8AC190FA800F068FD01
S3150800320080E000BFA08A010888960108F0910108AD
S3150800321090960108B88A0108989601085FFA88F816
S31508003220B8F1060F10DB01202E90052007005FFA83
S3150800323088F847450ADAE05D07F036FA002801D132
S3150800324000202E907F1CF2E700202E902E98002852
S3150800325013D1EDB2002D0AD0DFF84C190FA800F0F3
S3150800326037FD0FA800F00AFD0FA901F039FADFF8BB
S315080032703C190FA800F02CFD44E0601D30903099F1
S3150800328048A800F025FD48A807F013FA2F902F98B4
S3150800329042F21071884202DA2F9800281CD5EDB246
S315080032A0002D0AD0DFF800190FA800F011FD0FA8AD
S315080032B000F0E4FC0FA901F013FADFF8F0180FA8E4
S315080032C000F006FD1EE000BF04920108A096010862
S315080032D018920108A89601082F9807F0A4FAEDB2EB
S315080032E0002D0AD0DFF8C8180FA800F0F1FC0FA8C7
S315080032F000F0C4FC0FA901F0F3F9DFF8B8180FA81D
S3150800330001F0D0FDC9E120793A2823D0EDB2002D8D
S315080033100AD0DFF8A4180FA800F0DAFC0FA800F00E
S31508003320ADFC0FA901F0DCF9DFF890180FA800F042
S31508003330CFFC7AE0D08A0108B0960108E88A01082D
S31508003340B8960108008B0108C0960108188B010879
S31508003350C89601085FFA88F8B8F1060F10DB012055
S315080033602E90052007005FFA88F847450ADAE05DDF
S3150800337007F09AF9002801D100202E907F1CF2E769
S3150800338000202E902E98002813D1EDB2002D0AD0D9
S31508003390DFF82C180FA800F09BFC0FA800F06EFCB5
S315080033A00FA901F09DF9DFF81C180FA800F090FC92
S315080033B03BE0601D3090309948A800F089FC48A889
S315080033C007F077F92F902F9842F21071884202DAA7
S315080033D02F98002813D5EDB2002D0AD0DFF8E01794
S315080033E00FA800F075FC0FA800F048FC0FA901F023
S315080033F077F9DFF8D0170FA800F06AFC15E02F98C8
S3150800340007F02FFAEDB2002D0AD0DFF8BC170FA887
S3150800341000F05EFC0FA800F031FC0FA901F060F97E
S31508003420DFF890170FA801F03DFD36E120793A281C
S315080034301AD0EDB2002D0AD0DFF890170FA800F0C9
S3150800344047FC0FA800F01AFC0FA901F049F9DFF8AC
S3150800345080170FA800F03CFC7EE000BF308B010807
S31508003460D0960108488B01085FFA88F8B8F1060F6C
S3150800347010DB01202E90052007005FFA88F84745E3
S315080034800ADAE05D07F010F9002801D100202E9035
S315080034907F1CF2E700202E902E9800281AD1EDB254
S315080034A0002D0AD0DFF82C170FA800F011FC0FA882
S315080034B000F0E4FB0FA901F013F9DFF81C170FA8B9
S315080034C000F006FC48E000BFD8960108608B0108AA
S315080034D0E0960108601D3090309948A800F0F8FB86
S315080034E048A807F0E6F82F902F9842F21071884204
S315080034F002DA2F98002819D5EDB2002D0AD0DFF888
S31508003500D4160FA800F0E4FB0FA800F0B7FB0FA92C
S3150800351001F0E6F8DFF8AC160FA800F0D9FB1BE0BF
S31508003520788B0108E8960108908B01082F9807F018
S31508003530BFF9EDB2002D0AD0DFF8A0160FA800F0EB
S31508003540C7FB0FA800F09AFB0FA901F0C9F8DFF82E
S3150800355064160FA801F0A6FC9FE020793A281FD030
S31508003560EDB2002D0AD0DFF878160FA800F0B0FBF0
S315080035700FA800F083FB0FA901F0B2F8DFF8641674
S315080035800FA800F0A5FB79E0F0960108A88B0108C2
S31508003590F8960108C08B010800970108D88B010826
S315080035A05FFA88F8B8F1060F10DB01202E90052087
S315080035B007005FFA88F847450ADAE05D07F074F80D
S315080035C0002801D100202E907F1CF2E700202E90C3
S315080035D02E98002813D1EDB2002D0AD0DFF8081670
S315080035E00FA800F075FB0FA800F048FB0FA901F023
S315080035F077F8DFF8F8150FA800F06AFB3EE0601DC3
S315080036003090309948A800F063FB48A807F051F8B5
S315080036102F902F98B0F57A7F02DA2F98002817D5C1
S31508003620EDB2002D0AD0DFF8C0150FA800F050FB48
S315080036300FA800F023FB0FA901F052F8DFF8AC152C
S315080036400FA800F045FB19E008970108F08B010860
S315080036502F9807F03FF9EDB2002D0AD0DFF8901544
S315080036600FA800F035FB0FA800F008FB0FA901F022
S3150800367037F8DFF840150FA801F014FC0DE000BF7D
S3150800368010970108088C010818970108208C010872
S31508003690DFF860150FA800F01BFBCAE0E0784228A7
S315080036A000F08680522804D0532835D0542861D09B
S315080036B098E0EDB2002D16D007F01EF907F04AF98A
S315080036C0DFF8341507F056F906F010FE02000B0075
S315080036D0DFF828150FA801F0E5FB0FA800F0CEFAD1
S315080036E00FA900F0FDFF07F007F907F033F9DFF837
S315080036F0081507F03FF906F0F9FD02000B00DFF8A0
S3150800370000150FA801F0CEFB7FE000BF2097010847
S31508003710388C010864840108EDB2002D16D007F034
S31508003720EEF807F017F9DFF8D01407F023F906F0DA
S31508003730DDFD02000B00DFF8CC140FA801F0B2FB88
S315080037400FA800F09BFA0FA900F0CAFF07F0D7F8F8
S3150800375007F000F9DFF8A01407F00CF906F0C6FD2B
S3150800376002000B00DFF8A0140FA801F09BFB4CE049
S3150800377058710108EDB2002D0DD007F0C6F8020009
S31508003780DFF888140FA801F08DFB0FA800F076FA71
S315080037900FA900F0A5FF07F0B8F80200DFF87014CB
S315080037A00FA801F07FFB30E084840108B07B010894
S315080037B0EDB2002D0DD007F0ABF80200DFF8541477
S315080037C00FA801F06FFB0FA800F058FA0FA900F038
S315080037D087FF07F09DF80200DFF83C140FA801F0F8
S315080037E061FB12E0EDB2002D0AD0DFF830140FA805
S315080037F000F06EFA0FA800F041FA0FA900F070FF6A
S31508003800DFF81C140FA800F063FA12E0EDB2002DE1
S315080038100AD0DFF884130FA800F05AFA0FA800F0B0
S315080038202DFA0FA900F05CFFDFF8F8130FA800F0D7
S315080038304FFAA2E0002006005FFA88F8B8F1030FF5
S3150800384016DAEDB2002D0AD0DFF8DC130FA800F067
S315080038503FFA0FA800F012FA0FA900F041FFDFF8AF
S31508003860CC130FA800F034FA4DE000BF508C0108C5
S31508003870A07844281CD0452834D1EDB2002D0AD0B2
S31508003880DFF8AC130FA800F023FA0FA800F0F6F93A
S315080038900FA900F025FFDFF89C130FA801F002FB23
S315080038A0012006F0F3FF06002DE000BFA4840108FE
S315080038B0EDB2002D0AD0DFF880130FA800F008FA41
S315080038C00FA800F0DBF90FA900F00AFFDFF86C1368
S315080038D00FA801F0E7FA002006F0D8FF060012E06C
S315080038E0688C0108EDB2002D09D0CF490FA800F069
S315080038F0EFF90FA800F0C2F90FA900F0F1FED049C0
S315080039000FA800F0E5F938E0EDB2002D09D09B4983
S315080039100FA800F0DDF90FA800F0B0F90FA900F024
S31508003920DFFEC8490FA800F0D3F90FA9002000F060
S31508003930A7FA0600F6B2002E04D03000C0B2AAE0FC
S31508003940C4840108C0490FA800F0C2F90120BF4984
S31508003950087012E0808C0108EDB2002D09D0874965
S315080039600FA800F0B5F90FA800F088F90FA900F024
S31508003970B7FEAC490FA800F0ABF910E0EDB2002D88
S3150800398009D07E490FA800F0A3F90FA800F076F930
S315080039900FA900F0A5FEA3490FA800F099F9F6B201
S315080039A0002E09D0022E41D007D3032E48D04EE070
S315080039B0988C0108B08C01084FE006F093FB3C9008
S315080039C03C9801280AD002280DD0042810D00828CF
S315080039D013D0102816D020281CD020E09C490FA808
S315080039E000F076F91FE09B490FA800F071F91AE07C
S315080039F099490FA800F06CF915E098490FA800F04E
S31508003A0067F910E096490FA800F062F90BE000BFCD
S31508003A10C88C010893490FA800F05AF903E09249A7
S31508003A200FA800F055F906F038FA16E08F490FA8E6
S31508003A3000F04EF906F031FA0FE000BFE08C0108FD
S31508003A408B490FA800F044F906F027FA05E08949E2
S31508003A500FA800F03DF906F020FA0FA9002000F0A3
S31508003A600FFA0600F6B2002E04D03000C0B212E0FB
S31508003A70F88C010880490FA800F02AF90FA9002040
S31508003A8000F0FEF90600F6B2002E02D03000C0B2F1
S31508003A9001E03000C0B20DF5806D17B0BDE8F08FBB
S31508003AA0E4840108108D0108288D010804850108A1
S31508003AB0408D0108588D0108708D0108888D010810
S31508003AC0A08D0108F8B50400200000F0D7F805001D
S31508003AD00020070000200600AE4216DAA05D3A284C
S31508003AE002DAA05D302805DAA05D472805DAA05D70
S31508003AF0412802DB0020070001E001200700012F12
S31508003B0001D1002002E0761CE6E70120F2BD2DE98E
S31508003B10F041040000275FF00008200000F0AEF82E
S31508003B20050000200600AE421ADAA05D3A2806DA39
S31508003B30A05D302803DBA05D303807000CE0A05DEF
S31508003B40472806DAA05D412803DBA05D3738070061
S31508003B5002E05FF0FF3004E017EB0818761CE2E796
S31508003B604046BDE8F081394800787047B88D0108AD
S31508003B70D08D0108E88D01082C920108648301089C
S31508003B8018780108D47B010824850108008E0108ED
S31508003B9044850108F87B0108648501084078010816
S31508003BA01C7C01087C730108407C0108647C0108C0
S31508003BB084850108A4940108887C0108A873010873
S31508003BC0AC7C0108D07C0108A4850108F47C0108B6
S31508003BD0D4730108187D01083C7D0108C4850108D5
S31508003BE0607D010800740108847D0108A87D01082C
S31508003BF0E4850108CC7D01080000204104860108FF
S31508003C0068780108248601082C740108648801086C
S31508003C10188E010880880108448601086486010810
S31508003C20F07D0108A48301088486010890780108BC
S31508003C309C880108B8780108B8880108E078010866
S31508003C4008790108D4880108F0880108013700209E
S31508003C503079010888710108B8710108E87101080E
S31508003C60587901081872010880790108A8790108AD
S31508003C70D0790108F87901082897010800F10103AD
S31508003C80810704D010F8011B89B18107FAD10268AF
S31508003C90B2F10131914311F0803F04BF50F8042F6F
S31508003CA0F6E710F8011B11B110F8011BFBE7C01A63
S31508003CB0704703681AB95A1E026008467047197891
S31508003CC000290FBF4FF0FF30591C01601878704764
S31508003CD05FEA000C830706D011F8013B00F8013BA8
S31508003CE0B3B18307F8D10A68B2F1013323EA0203B4
S31508003CF013F0803F02BF40F8042B51F8042FF3E776
S31508003D0011F8013B00F8013B13B111F8013BF9E743
S31508003D106046704780B5DFF88004DFF880140860D5
S31508003D204FF49640DFF8741448600020DFF86C14EE
S31508003D3088600020DFF86414C8600020DFF85C148F
S31508003D4008610C20DFF8541448610020DFF84C1491
S31508003D5088610020DFF84414C861DFF8400406F0E3
S31508003D6087FE002801D007F077FE01BD80B5DFF891
S31508003D703004DFF8301408605FF4E130DFF824140B
S31508003D8048600020DFF81C1488600020DFF814144F
S31508003D90C8600020DFF80C1408610C20DFF8041452
S31508003DA048614FF44070DFF8FC1388610020DFF8A3
S31508003DB0F413C861DFF8EC0306F05AFE002801D0B8
S31508003DC007F04AFE01BD10B586B004002068DFF88A
S31508003DD0C81388421ED1DFF8D003006850F40030BB
S31508003DE0DFF8C4130860DFF8C003006810F4003079
S31508003DF0009000980C200190022002900120039068
S31508003E00032004900720059001A9DFF8A00307F016
S31508003E103BFE33E02068DFF8881388422ED1DFF8AE
S31508003E208803006850F48020DFF87C130860DFF808
S31508003E307803006810F48020009000984FF44060E2
S31508003E40019002200290012003900320049007208D
S31508003E50059001A9DFF8580307F016FE4FF4C04095
S31508003E60019002200290002003900320049007206E
S31508003E70059001A9DFF8380307F006FE06B010BD65
S31508003E80F8B504000D002800FFF7F8FE0700BFB2DA
S31508003E90792F01DB01203AE0E4B2002C19D1DFF8D2
S31508003EA014030078002801D0022030E04FF40043C4
S31508003EB03A0092B22900DFF8E40206F012FE060084
S31508003EC0F6B2002E02D03000C0B220E03000C0B2F8
S31508003ED01DE0E4B2012C19D1DFF8DC0200780028D5
S31508003EE001D0022013E04FF400433A0092B22900B1
S31508003EF0DFF8B00206F0F5FD0600F6B2002E02D095
S31508003F003000C0B203E03000C0B200E00120F2BDCC
S31508003F10F8B504000D002800FFF7B0FE0700BFB291
S31508003F20792F01DB012036E0E4B2002C17D1DFF847
S31508003F3084020078002801D002202CE03A0092B2D0
S31508003F402900DFF8580206F04AFE0600F6B2002EEF
S31508003F5002D03000C0B21EE03000C0B21BE0E4B2AE
S31508003F60012C17D1DFF850020078002801D0022072
S31508003F7011E03A0092B22900DFF8280206F02FFE77
S31508003F800600F6B2002E02D03000C0B203E03000C0
S31508003F90C0B200E00120F2BDDFF820027047012020
S31508003FA0DFF81C1208707047854800787047F8B526
S31508003FB004000D001600B6B2792E01DB012032E0AE
S31508003FC0E4B2002C15D17B480078002801D00220E5
S31508003FD029E0320092B22900704806F038FE070040
S31508003FE0FFB2002F02D03800C0B21CE03800C0B2C1
S31508003FF019E0E4B2012C15D16F480078002801D0E9
S31508004000022010E0320092B22900664806F01FFE30
S315080040100700FFB2002F02D03800C0B203E0380014
S31508004020C0B200E00120F2BD10B504002000C0B205
S3150800403000F006F8012801D0002000E0012010BD9C
S315080040400100C9B2002903D1544890F8390007E0A5
S31508004050C9B2012903D1534890F8390000E0042079
S31508004060704701684C4A914203D10121514A1170A7
S3150800407006E001684A4A914202D101214E4A11706E
S315080040807047C0B2002803D100214A4A117005E0E2
S31508004090C0B2012802D10021474A1170704770B595
S315080040A0040020683C49884203D101204149087030
S315080040B04CE020683A49884248D1FFF775FF002846
S315080040C024D0032040490860FFF766FF3F4908608F
S315080040D03E4800684078401C0600002005003A4823
S315080040E0006885420BDA39480068007800F0A6FBBC
S315080040F036480068401C354908606D1CEFE73248B1
S315080041000660314800682F4908601CE0FFF744FF45
S315080041102E490860002005002B48006885420BDA06
S315080041202A480068007800F089FB28480068401C87
S31508004130264908606D1CEFE70320234908602248DA
S3150800414000682049086001201B49087070BD704747
S3150800415014480068C06850F0800012490968C860B1
S31508004160704710480068C06850F480700D490968A7
S31508004170C8600C480068406950F0010009490968A0
S31508004180486108480068C06850F020000549096879
S31508004190C8607047000000000044004094330020C7
S315080041A000480040D4330020243802400000024072
S315080041B00004024004370020053700209835002007
S315080041C00637002048000020EC360020E83600209C
S315080041D038B504000D00DFF8B00900680471DFF88F
S315080041E0A80900684571DFF8A409DFF89C19096871
S315080041F00860DFF894090068011DDFF88C0900687B
S31508004200006807F0ACFEDFF888090068001D32BDBB
S315080042100020DFF88019A1F820030020DFF87819BC
S3150800422081F896010020DFF8701981F897010020BF
S31508004230DFF8641981F898010020DFF85C1981F825
S3150800424099010020DFF8501981F89A010020DFF85B
S31508004250481981F89B010120DFF83C1981F89C0177
S315080042607047401CC0B2C82800DB0020C0B27047A7
S3150800427038B504000D00002C27D0DFF81C0990F88B
S315080042809301DFF8141991F8921188421BD0002087
S31508004290DFF8041981F89501DFF8FC08DFF8F8184B
S315080042A091F89311084490F8CA0028706D1CDFF83D
S315080042B0E80890F89301FFF7D4FFDFF8DC1881F8D7
S315080042C09301641ED7E7FFF74CFF002032BDDFF8E5
S315080042D0C80890F89501704780B5FFF799FF062042
S315080042E005F066FD0FF2F930DFF8B0180860DFF860
S315080042F0B008DFF8B0180860DFF8AC08DFF8AC18CB
S315080043000860062005F046FD01BD70B586B000259B
S31508004310DFF88408D0F8A001002805D107F00DFEC3
S31508004320DFF87418C1F8A001DFF86C08D0F8A0010E
S31508004330002800F0EF80DFF86008D0F8A0010068D8
S31508004340DFF86C180840DFF84C18DFF84828B2F890
S31508004350202341F82200DFF83C08B0F82003C0B259
S31508004360FFF77FFFDFF82C18A1F82003DFF82808ED
S31508004370D0F8A0010068DFF83818084004002000CB
S31508004380DFF8301888422AD0DFF82C18884258D02F
S31508004390DFF82818884200F08280DFF8241888425F
S315080043A029D0DFF82018884279D0DFF81C1888420F
S315080043B057D0DFF81818884200F09280DFF81018F6
S315080043C088425AD0DFF80C18884262D0DFF80818FD
S315080043D0884264D0DFF8041888425AD08BE0DFF8A8
S315080043E000180020FFF74CFD012005000120DFF82A
S315080043F0A81781F896010020DFF89C1781F8970125
S3150800440002210220FFF7E4FE06003088002817D1B3
S31508004410EDB2002D0FD1DFF8CC170020FFF730FDE5
S3150800442002210D2007F0DAFD02F067F80D2007F0EB
S3150800443025FE06F008F90020DFF85C17C1F8A00190
S3150800444068E0DFF8A4170020FFF71AFD0120DFF85F
S31508004450481781F897010020DFF83C17C1F8A0013A
S3150800446058E09DA10020FFF70BFD02F059F8002047
S31508004470DFF82417C1F8A0014CE098A10020FFF747
S31508004480FFFC02F04DF80020DFF80C17C1F8A00178
S3150800449040E00020DFF80017C1F8A0013AE0DFF895
S315080044A04C170020FFF7ECFCDFF8EC06D0F8A0016B
S315080044B0807A00280ED0DFF8E006D0F8A00110F1C7
S315080044C00B02DFF82C17684600F0ECFC6946002062
S315080044D0FFF7D6FC0020DFF8C016C1F8A00119E0E6
S315080044E0DFF810170020FFF7CBFC0020DFF8A8162E
S315080044F0C1F8A0010EE02200DFF8FC16684600F0BD
S31508004500D1FC69460020FFF7BBFC0020DFF88816BF
S31508004510C1F8A00106B070BDDFF87C0690F89601D8
S315080045207047DFF8740690F897017047DFF8680659
S3150800453090F898017047DFF8600690F8990170477F
S31508004540DFF8541681F898017047DFF84C1681F8A1
S315080045509901704700B585B0DFF83C0690F89A01D6
S31508004560032840D1DFF8300690F89C01012801D1D4
S31508004570012039E000F06CFE002832D000F063FE1E
S31508004580DFF8140690F89B01401CDFF80C1681F83A
S315080045909B0106F0BAF90300DFF8FC0590F89B21A9
S315080045A0DFF85816684600F07DFC69460020FFF7DC
S315080045B067FC06F0AAF9DFF8E01591F89B11884226
S315080045C00FD2DFF83C160020FFF75AFC0221122012
S315080045D007F004FD01F091FF122007F04FFD06F0E9
S315080045E032F8002000E0012005B000BDDFF8A8057C
S315080045F090F89A01032809D1DFF89C0590F89C01E8
S31508004600012801D1012002E0002000E001207047C6
S31508004610DFF8841581F89C017047DFF87C1591F85E
S315080046209A11032903D1DFF8701581F89C017047A8
S31508004630DFF8640590F89A017047DFF85C1581F891
S315080046409A01704738B5040020680068000626D528
S31508004650DFF8440590F8C900DFF83C1591F8C81052
S31508004660884215D0DFF83005DFF82C1591F8C91007
S31508004670415C89B2200000F0D6F8DFF81C0590F8F6
S31508004680C900FFF7EEFDDFF8101581F8C90006E04E
S315080046902068C0687FF0800108402168C8602068EB
S315080046A0006810F00F000F2808D10020DFF8E81482
S315080046B081F89401200000F0BCF80BE0206800683F
S315080046C0800607D5200000F0B4F805002800C0B21F
S315080046D000F0B4F831BD00002D2A2D002D4F2D0015
S315080046E02DE9F04104000D0054F07F400600DFF884
S315080046F0A404DFF8A014B1F8201340F82160DFF80D
S315080047009404B0F82003C0B2FFF7ABFDDFF88414B9
S31508004710A1F8200328786978090411EB0060A978C4
S3150800472010EB0120E97808180600DFF86804DFF8BE
S315080047306414B1F8201340F82160DFF85804B0F883
S315080047402003C0B2FFF78DFDDFF84814A1F8200357
S3150800475028796979090411EB0060A97910EB012021
S31508004760E97908180600DFF82C04DFF82814B1F8F0
S31508004770201340F82160DFF81C04B0F82003C0B20B
S31508004780FFF76FFDDFF80C14A1F820034FF4FA6069
S315080047900700002C45D0DFF8000490F8C800FFF7A2
S315080047A060FD80464046DFF8F01391F8C910C0B2A4
S315080047B0884223D02878DFF8E013DFF8DC2392F864
S315080047C0C8208854272005F037FFDFF8CC0390F877
S315080047D0C800DFF8C41391F8C910884201D1FFF761
S315080047E0B7FCDFF8B40380F8C880272005F01DFF62
S315080047F0641E6D1C4FF4FA600700CAE73800471EAE
S315080048000028C6D10020DFF8901381F8960102210E
S315080048100F2007F0E3FB0F2007F030FC05F013FF2D
S31508004820B7E7BDE8F08189B2CA05D20D03685A60B8
S31508004830704700684068C005C00D7047F0B59FB066
S315080048400400DFF8C003DFF8C01309784454DFF822
S31508004850B8030078401CDFF8B0130870E4B20A2CDD
S3150800486003D0E4B23F2C40F08A810020DFF8981389
S315080048700870DFF89023DFF89413684600F012FBFF
S3150800488069460020FFF7FCFA0700FFB2002F02D0A6
S315080048903800C0B275E10422DFF87413DFF8640348
S315080048A005F04BFD002812D10120BB4981F896017D
S315080048B00020B94981F898010020B74981F8990183
S315080048C0DFF850130020FFF7DBFA07004EE1092254
S315080048D0DFF84413CB4805F030FD002815D1012038
S315080048E0AD4981F897010120AB4981F89A0100206A
S315080048F0A94981F89B01C9490020FFF7C1FAC849AF
S315080049000020FFF7BDFA070030E10C22C549BD4873
S3150800491005F013FD002821D100209F4981F8970151
S3150800492000209D4981F8980100209B4981F899014A
S315080049300120994981F89A010020974981F89B013D
S31508004940B6490020FFF79CFA00F026FC01F0ECFDC2
S31508004950B5490020FFF794FA070007E10422B34996
S31508004960A84805F0EAFC002820D1B149A54800F07E
S3150800497099FAA4490020FFF783FA0700FFB2002F2F
S3150800498002D03800C0B2FCE09E48FFF777F99D498F
S31508004990FFF7A6FE0A2005F05BFF0120FFF7D5FD0D
S315080049A0A4490020FFF76CFA0700DFE00622A249B7
S315080049B0944805F0C2FC002840F0C280FFF7BBFD12
S315080049C000282ED09D49684600F06CFA69460020FA
S315080049D0FFF756FA0700FFB2002F02D03800C0B220
S315080049E0CFE06846FFF74AF96946FFF779FE0020E7
S315080049F0FFF7ABFD0120FFF7A3FD05F0D4FE05F098
S31508004A007BFF07F080FC0320634981F89A010020A8
S31508004A10614981F89B018A490020FFF731FA0700AE
S31508004A2038E05D4890F89A01022822D103205A49B5
S31508004A3081F89A010020584981F89B017F49684608
S31508004A4000F030FA69460020FFF71AFA0700FFB2AD
S31508004A50002F02D03800C0B293E06846FFF70EF97F
S31508004A606946FFF73DFE76490020FFF709FA070079
S31508004A7010E0494890F89A0103280BD100204649CE
S31508004A8081F89B016F490020FFF7FAF9070001201A
S31508004A90FFF7BEFD6C48050029000FA8FFF718F9B7
S31508004AA06A490FA807F04AFC0500002D2FD0002000
S31508004AB028700FA8FFF7E2F8002828D00FA8FBF700
S31508004AC037FB0700FFB2022F0FD16149684600F095
S31508004AD0E9F969460020FFF7D3F907004948FFF7C7
S31508004AE0CDF84849FFF7FCFD11E0FFB2002F0ED0C4
S31508004AF05849684600F0D6F969460020FFF7C0F91C
S31508004B0007004048FFF7BAF83E49FFF7E9FD05F008
S31508004B10E7FD020050493B4800F0C4F93949002036
S31508004B20FFF7AEF90700FFB2002F02D03800C0B277
S31508004B3027E03448FFF7A2F83249FFF7D1FD15E020
S31508004B40082246492F4805F0F8FB002809D102211A
S31508004B50112007F043FA112007F090FA05F073FDCB
S31508004B6004E03F490020FFF78BF907000020060004
S31508004B703C2E04DA002023498855761CF8E73800CD
S31508004B80C0B21FB0F0BD00000C00002020020301D7
S31508004B9010000020C8200020C02D0020A0360020CC
S31508004BA071420008A4360020CF420008A83600202B
S31508004BB0F800FFFFA0000100A0000800A0000900FF
S31508004BC0A0000801A000080220000A02A0000B02AB
S31508004BD0A0000A0320000A0520000908A0000020FA
S31508004BE03C9301086092010870920108E48101086B
S31508004BF048930108C0860108549301087490010877
S31508004C00889001081434002000370020DC8601084B
S31508004C10389501088092010860930108048201080A
S31508004C209C90010890920108A092010840950108FD
S31508004C30508901086889010848950108F88601081D
S31508004C4014870108B09001081A340020509501080D
S31508004C50308701084C870108688701086C930108AA
S31508004C60C490010800210800802804DA00218A4A35
S31508004C701154401CF8E7704788487047F8B5040097
S31508004C808021200007F05CFC0500EDB2002D02D063
S31508004C902800C0B222E007F08AFC050000200600C2
S31508004CA0C82E0ADA07F083FC0500EDB2002D04D001
S31508004CB0052005F040FA761CF2E7C82E01DB032032
S31508004CC00CE0270000200600802E05DA38788038A8
S31508004CD038707F1C761CF7E72800C0B2F2BD2DE9B4
S31508004CE0F8436C48FFF7CAFF80465FFA88F8B8F1C0
S31508004CF0000F02D04046C0B241E000200700802FD6
S31508004D0005DA6448C05D6549C8557F1CF7E7FFF7B3
S31508004D10A9FF0023072260495E4807F075FC0700D3
S31508004D2017F1010F01D1012029E000200700402FCB
S31508004D3023DA5848C05705F003FE05005648C05701
S31508004D4005F0FEFD06002800290007F033FD814620
S31508004D503000310007F02EFD494607F097FD05F0B3
S31508004D60C5FA07F0D5FD07F04BFE0400200007F052
S31508004D708FFE4849C8557F1CD9E74046C0B2BDE8F2
S31508004D80F28370B582B004000020050040A120001F
S31508004D9000F088F800200600102E0BDA3D488257EE
S31508004DA03F49684600F07EF86946200000F094F80E
S31508004DB0761CF1E72800C0B276BD70B582B0040053
S31508004DC00020050032A1200000F06CF80020060043
S31508004DD0102E0DDA2F48304490F9102030496846D5
S31508004DE000F060F86946200000F076F8761CEFE7D8
S31508004DF02800C0B276BD70B582B004000020050058
S31508004E0023A1200000F04EF800200600102E0DDA2F
S31508004E102048304490F920202149684600F042F89D
S31508004E206946200000F058F8761CEFE72800C0B263
S31508004E3076BD70B582B004000020050014A12000DC
S31508004E4000F030F800200600102E0DDA1148304424
S31508004E5090F930201249684600F024F86946200087
S31508004E6000F03AF8761CEFE72800C0B276BD0021BC
S31508004E70080080280ADA0021064A11540021064A49
S31508004E8011540021054A1154401CF2E770470000EE
S31508004E9000000000C031002040320020C03200204F
S31508004EA0309701080CB41CB5044604A801900A46BC
S31508004EB0009401AB694607487844183007F00AFEA3
S31508004EC0009A0021117000285CBF0098001B16BCD0
S31508004ED05DF80CFB93540000024600E0521C137860
S31508004EE0002BFBD111F8013B137012F8013B002B84
S31508004EF0F8D170471CB520208DF8000001208DF8E8
S31508004F00010008208DF8020000208DF8030000201B
S31508004F108DF8040000208DF80500684608F0AAFE02
S31508004F200400E4B2002C05D0022C07D004D3032CCD
S31508004F3006D007E0002006E0012004E0032002E096
S31508004F40012000E0012016BD2DE9FF4704000020DE
S31508004F508046684608F03CFF00283AD100980600CB
S31508004F603100062005F053FA0600009805F0BEF950
S31508004F700022644B08F0A2FF09F088F805002D020C
S31508004F8002AA9246009805F0B1F9524609F094F83B
S31508004F9007F036FD81465FF08740494607F00AFC70
S31508004FA007F076FD070017F0F0077D192A00564925
S31508004FB014F10C00FFF776FFA561300005F096F9AD
S31508004FC002000B0051492000FFF76CFF4046C0B2B3
S31508004FD000E0012004B0BDE8F0872DE9FF47040092
S31508004FE000200500684608F0F3FE002835D1009831
S31508004FF08146009805F07AF90022424B08F05EFFD8
S3150800500009F044F80600360202AA9246009805F00E
S315080050106DF9524609F050F807F0F2FC80465FF049
S315080050208740414607F0C6FB07F032FD070017F038
S31508005030F007BE193200344914F10C00FFF732FFAD
S31508005040A661484605F052F902000B002F492000D8
S31508005050FFF728FF2800C0B200E0012004B0BDE831
S31508005060F08730B585B00400684608F0C7FE00280A
S3150800507001D0012041E001A808F0E1FE00283BD15B
S31508005080019805F033F9224A224B08F017FF00224F
S31508005090214B09F06DF807F0B3FC0500BDF80000D8
S315080050A0E082019805F022F902000B001B49200056
S315080050B0FFF7F8FE280005F019F902000B0017495A
S315080050C0E01DFFF7EFFEBDF90000C0F3072212B29C
S315080050D00B4914F10E00FFF7E5FEBDF9000000F0DC
S315080050E0FF02074902A8FFF7DDFE02A914F10E0028
S315080050F0FFF7F2FE002000E0012005B030BD0000F9
S315080051001895010800000440209501082895010813
S31508005110CDCCCCCCCCCCFC3F00004040309501082F
S3150800512010B5A0B000208DF8040000208DF8050009
S315080051304FF4FA700090002301AA0F21BA2004F058
S3150800514008FF0400E4B2002C07D14FF4FA730122D9
S3150800515001A9BA2004F095FF04009DF80400BD28B3
S3150800516001D1002000E0012020B010BD80B501204B
S315080051703C49487000F010F800203A498870002031
S31508005180DFF8181D08700020DFF8101D4880002081
S31508005190DFF8081D888001BD80B5012031494870B7
S315080051A031493248FEF794FD2F493148FEF790FD04
S315080051B02D493048FEF78CFD2B492F48FEF788FD10
S315080051C029492E48FEF784FD2D492E48FEF780FD15
S315080051D02D492E48FEF77CFD23492D48FEF778FD1C
S315080051E021492C48FEF774FD1F492B48FEF770FD30
S315080051F01D492A48FEF76CFD1B492948FEF768FD3C
S3150800520019492848FEF764FD17492748FEF760FD47
S3150800521015492648FEF75CFD13492548FEF758FD53
S3150800522011492448FEF754FD0F492348FEF750FD5F
S315080052300D49DFF86C0CFEF74BFD01BD0120DFF8C8
S31508005240641C087070470020DFF8581C0870704707
S31508005250DFF8500C007870470120DFF8481C08700A
S315080052607047000058290020E094010863290020AF
S31508005270732900208329002092290020A8290020CC
S3150800528040920108CA29002030930108E829002025
S31508005290062A0020182A0020302A0020D42A0020B6
S315080052A0EC2A0020042B00201C2B0020342B002085
S315080052B04C2B0020642B00207C2B002010B58CB0D2
S315080052C000200400DFF8DC0B0078002800F0E185F8
S315080052D0DFF8D00B8078002808D0022846D03AD3C9
S315080052E0042861D04DD3052871D085E0DFF8B81BB6
S315080052F001A8FFF7D7FD01A90020FEF7C1FD01A807
S31508005300FEF7BCFC01A9FFF7EBF9002001F072F8E3
S3150800531000281FD0DFF8940B02F059FF0400E4B20E
S31508005320002C69D1DFF8880B03F044F80400E4B2D6
S31508005330002C61D1DFF87C0B03F02FF90400E4B2EE
S31508005340002C59D1DFF8700B03F016FA0400E4B20A
S31508005350002C51D150E0012001F04CF8002804D06F
S31508005360DFF8580B04F070F9040045E0022001F05C
S3150800537041F8002804D0DFF8480B04F0C1FB04000C
S315080053803AE0032001F036F800280CD0DFF8340B99
S31508005390FFF7DAFD0400E4B2002C2DD1DFF8280B64
S315080053A0FFF75FFE040027E0042001F023F8002839
S315080053B00CD0DFF8180B03F03CFB0400E4B2002C19
S315080053C01AD1DFF80C0B03F035FE040014E00520B3
S315080053D001F010F8002805D0DFF8F80A02F04AF8BC
S315080053E0040009E0062001F005F8002804D0DFF8DB
S315080053F0E40A01F070F90400DFF8A80A8078401C76
S31508005400DFF8A01A8870DFF89C0A80780A2815DB6E
S31508005410DFF8880A8088052808DADFF8800A808895
S31508005420401CDFF8781A8880FFF7B6FE0020DFF800
S31508005430741A88700020DFF86C1A0870E4B2002C21
S3150800544003D02000C0B200F026BD05F088F9DFF8C9
S31508005450881ADFF8880A08F0FFFE00282ED00120F7
S3150800546004F098FCDFF8741ADFF86C0AFEF730FCD3
S31508005470DFF8381ADFF8680AFEF72AFC05F042FA60
S3150800548000280AD0DFF8580A009022232222DFF8E3
S31508005490541A01A8FFF706FD06E0DFF8442ADFF8EC
S315080054A0481A01A8FFF7FEFC01A90020FEF7E8FC50
S315080054B001A8FEF7E3FB01A9FFF712F9DFF82C1A9A
S315080054C0DFF82C0A08F0C8FE00282ED0012004F0C8
S315080054D061FCDFF81C1ADFF8140AFEF7F9FBDFF89F
S315080054E0D019DFF8100AFEF7F3FB05F00BFA0028CF
