S02E0000526F616420426F61726420526576204D2E3520424153454C494E4520446563203920323031362E737265637A
S31508000000501100201D7E0108518201085582010801
S31508000010598201085D82010861820108000000001A
S31508000020000000000000000000000000075701085B
S315080000306582010800000000B55601084958010804
S3150800004071980008698201086D82010871820108A9
S3150800005075820108798201087D820108818201087A
S3150800006085820108898201088D8201085158010894
S315080000709182010895820108998201089D820108EA
S31508000080A1820108A5820108A9820108AD8201089A
S315080000905B580108B1820108B5820108B9820108D6
S315080000A0BD820108C1820108C5820108C98201080A
S315080000B097580108A158010865580108835801088E
S315080000C08D580108CD820108D1820108D582010820
S315080000D0D9820108DD820108795801086F5801089C
S315080000E0E1820108E5820108E982010891440008D5
S315080000F0ED82010800000000F1820108F58201087E
S31508000100F9820108FD8201080183010805830108B7
S31508000110098301080D830108118301080000000006
S31508000120158301082DE9F04FADF5806D95B00400F3
S31508000130200002F0C7FF0600DFF8900D00780028BF
S315080001401ED020781B2815D10020DFF8801D0870E6
S31508000150DFF87C1D13A802F0DFFF13A9002003F0C7
S31508000160B3F80500EDB2002D02F0B9862800C0B23A
S3150800017002F0B7BE2100012003F0C2FC02F0AFBEB8
S31508000180207830282ED0312839D032285BD0332831
S315080001907DD0342800F09F80352800F0C0803628AE
S315080001A000F00E81412800F01681422800F03582C1
S315080001B0432800F0A584442800F01A86452800F054
S315080001C04287462800F04687472800F05587482882
S315080001D000F0BE87502801F04982542801F0648255
S315080001E002F0F7BD03F097FE0500EDB2002D04D12D
S315080001F0DFF8B81D13A802F08FFF02F0EEBDA3A822
S3150800020003F0DBFE0500DFF8A81D13A802F084FF43
S3150800021013A9002003F058F80500EDB2002D03D00D
S315080002202800C0B202F05DBEDFF8881D13A803F0EF
S3150800023055FFA3A913A803F06BFFC4A113A803F0E5
S3150800024067FF02F0CABDA3A803F0D3FE0500DFF8D6
S31508000250681D13A802F060FF13A9002003F034F804
S315080002600500EDB2002D03D02800C0B202F039BE59
S31508000270DFF8F01D13A803F031FFA3A913A803F0B4
S3150800028047FFB2A113A803F043FF02F0A6BDA3A837
S3150800029003F0CDFE0500DFF8D01D13A802F03CFFE1
S315080002A013A9002003F010F80500EDB2002D03D0C5
S315080002B02800C0B202F015BEDFF8B01D13A803F07F
S315080002C00DFFA3A913A803F023FFA0A113A803F009
S315080002D01FFF02F082BDA3A803F0C7FE0500DFF8E2
S315080002E0901D13A802F018FF13A9002002F0ECFFD6
S315080002F00500EDB2002D03D02800C0B202F0F1BD12
S31508000300DFF8701D13A803F0E9FEA3A913A803F0EC
S31508000310FFFE8EA113A803F0FBFE02F05EBD03F0FC
S31508000320C7FD4690DFF8EC1D13A802F0F5FEA3A85A
S3150800033003F043FE050013A9002002F0C5FF0500DF
S31508000340EDB2002D03D02800C0B202F0CABD0020CD
S315080003508046ADA113A803F0C1FE00200700802F38
S3150800036027DA4698C257DFF8B01D0CA803F0B6FE88
S315080003700CA913A803F0CCFE18F10108B8F1100F68
S3150800038015DB72A113A803F0C3FE0020804613A94B
S31508000390002002F099FF0500EDB2002D03D02800D9
S315080003A0C0B202F09EBD98A113A803F097FE7F1C69
S315080003B0D5E7DFF8681D13A803F090FE02F00DBD1F
S315080003C00020050003F06FFEDFF8581D13A802F0A1
S315080003D0A3FE02F002BDF6B2012E00F01C81607881
S315080003E036282BD0382800F09980392800F0F78075
S315080003F0492840F00B8103F099FE0500EDB2002D67
S3150800040005D1DFF8241D13A802F086FE15E0DFF8F3
S315080004101C1D13A802F080FE8DF83C5013A900207D
S3150800042002F052FF0500EDB2002D03D02800C0B23D
S3150800043002F057BD9DF83C000500ECE0ACA803F0BF
S31508000440E8FE0500EDB2002D04D10DF5876003F036
S3150800045097FE0500EDB2002D49D1DFF8041E13A85A
S3150800046002F05AFE13A9002002F02EFF0500EDB295
S31508000470002D03D02800C0B202F033BDDFF8E41D1A
S3150800048013A803F02BFE13A9002002F01DFF050098
S31508000490EDB2002D03D02800C0B202F022BD0DF542
S315080004A08763ACAADFF8C01D13A803F017FE13A9CB
S315080004B0002002F009FF0500EDB2002D03D0280048
S315080004C0C0B202F00EBDDFF8F81D13A803F006FE51
S315080004D0AFA913A803F01CFEB29ADFF8E81D0CA812
S315080004E003F0FCFD0CA913A803F012FE15E0DFF8D3
S315080004F0D81D13A802F010FE8DF83C5013A9002051
S3150800050002F0E2FE0500EDB2002D03D02800C0B2CD
S3150800051002F0E7BC9DF83C0005007CE03CA803F02F
S31508000520BCFE0500EDB2002D29D1DFF8A01D13A8E9
S3150800053002F0F2FD13A9002002F0C6FE0500EDB296
S31508000540002D05D02800C0B202F0CBBC0D0A000071
S31508000550DFF8EC1D13A803F0C1FD0DF1FE0113A889
S3150800056003F0D6FDCCA113A803F0D2FD13A90020F1
S3150800057002F0AAFE0500EDB2002D01D104E04AE022
S315080005802800C0B202F0ADBCBDF80621DFF8F81DA0
S3150800059013A803F0A3FD13A9002002F095FE050099
S315080005A0EDB2002D03D02800C0B202F09ABCDFF8E5
S315080005B0DC1D13A803F092FD3CA913A803F0A8FDBF
S315080005C0DFF8CC1D13A803F0A3FD0DF1F70113A85E
S315080005D003F09EFDB0A113A803F09AFD1BE003F0FB
S315080005E0BBFE0500EDB2002D05D1DFF8F01D13A8FE
S315080005F002F092FD06E0DFF8E81D13A802F08CFD74
S315080006000020050007E000BF00000000DFF8D41D49
S3150800061013A802F081FD02F0E0BBF6B2012E40F00D
S315080006202681052004F090FF00280BD055A806F077
S3150800063055FB0500EDB2002D17D1C5A805F0C8FF7A
S31508000640050012E0062004F07FFF00280BD055A80D
S3150800065005F05AFC0500EDB2002D06D1C5A805F037
S31508000660E8F8050001E001200500EDB2002D40F094
S31508000670FC80DFF8D81D13A802F04EFD13A9002050
S3150800068002F022FE0500EDB2002D03D02800C0B20C
S3150800069002F027BC00200700092F80F2D380002F24
S315080006A00FD0022F35D020D3042F5AD045D3062F8A
S315080006B000F07F8069D3082F00F0A380C0F08D80FA
S315080006C0B2E0BDF86A010390C6A8C01C029056A8FD
S315080006D0C01C0190C5A8009055AB0DF5B172DFF8A6
S315080006E0FC1D13A803F0FAFC9EE0BDF882010390F6
S315080006F0CCA8C01C02905CA8C01C0190CBA8009096
S315080007005BAB0DF5BD72DFF8D81D13A803F0E6FC48
S315080007108AE0BDF89A010390D2A8C01C029062A88C
S31508000720C01C0190D1A8009061AB0DF5C972DFF825
S31508000730B01D13A803F0D2FC76E0BDF8B201039011
S31508000740D8A8C01C029068A8C01C0190D7A8009021
S3150800075067AB0DF5D572DFF8881D13A803F0BEFC4C
S3150800076062E0BDF8CA010390DEA8C01C02906EA81C
S31508000770C01C0190DDA800906DAB0DF5E172DFF8A5
S31508000780601D13A803F0AAFC4EE0BDF8E201039031
S31508000790E4A8C01C029074A8C01C0190E3A80090AD
S315080007A073AB0DF5ED72DFF8381D13A803F096FC50
S315080007B03AE0BDF8FA010390EAA8C01C02907AA8AC
S315080007C0C01C0190E9A8009079AB0DF5F972DFF825
S315080007D0101D13A803F082FC26E0BDF81202039050
S315080007E0F0A8C01C029080A8C01C0190EFA8009039
S315080007F07FAB82AA921CDFF8E81C13A803F06EFCF4
S3150800080012E0BDF82A020390F6A8C01C029086A83A
S31508000810C01C0190F5A8009085AB88AA921CDFF849
S31508000820C01C13A803F05AFC13A9002002F04CFDC3
S315080008300500EDB2002D03D02800C0B202F051BB6E
S315080008407F1C29E7DFF8C41D13A803F047FC44A959
S3150800085013A803F05DFC10A113A803F059FCDFF8F8
S31508000860F41D13A803F03AFC48E102F0B6BA607822
S31508000870302813D0312800F03681492840F03E81CF
S3150800088005F0F0FD0500EDB2002D04D1DFF8C81D16
S3150800089013A802F041FC31E10D0A0000052004F01E
S315080008A053FE00280BD055A806F018FA0500EDB23D
S315080008B0002D17D1C5A805F08BFE050012E006200D
S315080008C004F042FE00280BD055A805F01DFB0500D4
S315080008D0EDB2002D06D1C5A804F0ABFF050001E076
S315080008E001200500EDB2002D40F0FC80DFF85C1B0E
S315080008F013A802F011FC13A9002002F0E5FC05007C
S31508000900EDB2002D03D02800C0B202F0EABA0020EA
S315080009100700092F80F2D380002F0FD0022F35D081
S3150800092020D3042F5AD045D3062F00F07F8069D3F1
S31508000930082F00F0A380C0F08D80B2E0BDF86A01F0
S315080009400390C6A8C01C029056A8C01C0190C5A852
S31508000950009055AB0DF5B172DFF8801B13A803F0B4
S31508000960BDFB9EE0BDF882010390CCA8C01C029096
S315080009705CA8C01C0190CBA800905BAB0DF5BD72BE
S31508000980DFF85C1B13A803F0A9FB8AE0BDF89A01FF
S315080009900390D2A8C01C029062A8C01C0190D1A8DE
S315080009A0009061AB0DF5C972DFF8341B13A803F08C
S315080009B095FB76E0BDF8B2010390D8A8C01C02905A
S315080009C068A8C01C0190D7A8009067AB0DF5D57232
S315080009D0DFF80C1B13A803F081FB62E0BDF8CA011F
S315080009E00390DEA8C01C02906EA8C01C0190DDA86A
S315080009F000906DAB0DF5E172DFF8E41A13A803F069
S31508000A006DFB4EE0BDF8E2010390E4A8C01C02901D
S31508000A1074A8C01C0190E3A8009073AB0DF5ED72A5
S31508000A20DFF8BC1A13A803F059FB3AE0BDF8FA013F
S31508000A300390EAA8C01C02907AA8C01C0190E9A8F5
S31508000A40009079AB0DF5F972DFF8941A13A803F044
S31508000A5045FB26E0BDF812020390F0A8C01C0290E0
S31508000A6080A8C01C0190EFA800907FAB82AA921CB8
S31508000A70DFF86C1A13A803F031FB12E0BDF82A025E
S31508000A800390F6A8C01C029086A8C01C0190F5A881
S31508000A90009085AB88AA921CDFF8441A13A803F0C5
S31508000AA01DFB13A9002002F00FFC0500EDB2002D76
S31508000AB003D02800C0B202F014BA7F1C29E7DFF879
S31508000AC04C1B13A803F00AFB44A913A803F020FB48
S31508000AD0C6A113A803F01CFBDFF8781B13A803F0C4
S31508000AE0FDFA0BE00AE005F028FD0500EDB2002D41
S31508000AF004D1DFF8B01D13A802F00EFB02F06DB9A1
S31508000B00F6B2012E42D142A806F05DFF0500EDB20D
S31508000B10002D03D18BA806F0DDFE0500EDB2002DF1
S31508000B2026D1DFF8841D13A802F0F6FA13A90020CF
S31508000B3002F0CAFB0500EDB2002D03D02800C0B2B2
S31508000B4002F0CFB9DFF8CC1D13A803F0C7FA44A901
S31508000B5013A803F0DDFAA5A113A803F0D9FA13A97F
S31508000B60002002F0B1FB0500EDB2002D02D105E030
S31508000B7002F033B92800C0B202F0B3B98BAB42AA6F
S31508000B80DFF8941D13A803F0A9FA2CE16078302841
S31508000B9016D0312856D0322800F09980332800F034
S31508000BA0DB80492840F01A8106F064FB0500EDB2A7
S31508000BB0002D04D1DFF8D01D13A802F0ADFA12E11A
S31508000BC042A806F02EFC0500EDB2002D03D18BA835
S31508000BD006F0ABFB0500EDB2002D26D1DFF86C1848
S31508000BE013A802F099FA13A9002002F06DFB05007C
S31508000BF0EDB2002D03D02800C0B202F072B9DFF8BA
S31508000C000C1A13A803F06AFA44A913A803F080FA89
S31508000C1076A113A803F07CFA13A9002002F054FB6E
S31508000C200500EDB2002D01D104E0DCE02800C0B2D9
S31508000C3002F057B98BAB42AADFF8501D13A803F090
S31508000C404DFAD0E0C1A806F0DFFC0500EDB2002D94
S31508000C5004D10DF5856006F05BFC0500EDB2002DAC
S31508000C6027D1DFF82C1D13A802F056FA13A9002085
S31508000C7002F02AFB0500EDB2002D03D02800C0B211
S31508000C8002F02FB9DFF80C1D13A803F027FAC3A941
S31508000C90491C13A803F03CFA54A113A803F038FA28
S31508000CA013A9002002F010FB0500EDB2002D01D1BA
S31508000CB004E098E02800C0B202F013B90DF5856388
S31508000CC0C1AADFF8D01D13A803F008FA8BE0BDA867
S31508000CD006F08BFD0500EDB2002D04D10DF58360FD
S31508000CE006F009FD0500EDB2002D27D1DFF8A81D95
S31508000CF013A802F011FA13A9002002F0E5FA05007C
S31508000D00EDB2002D03D02800C0B202F0EAB8DFF831
S31508000D108C1D13A803F0E2F9BFA9491C13A803F018
S31508000D20F7F932A113A803F0F3F913A9002002F08A
S31508000D30CBFA0500EDB2002D01D104E053E02800FE
S31508000D40C0B202F0CEB80DF58363BDAADFF8B01DB8
S31508000D5013A803F0C3F946E042A806F034FE0500DE
S31508000D60EDB2002D03D18BA806F0B4FD0500EDB257
S31508000D70002D26D1DFF8301B13A802F0CDF913A9F0
S31508000D80002002F0A1FA0500EDB2002D03D02800DC
S31508000D90C0B202F0A6B8DFF87C1B13A803F09EF9D0
S31508000DA044A913A803F0B4F910A113A803F0B0F9E5
S31508000DB013A9002002F088FA0500EDB2002D01D132
S31508000DC004E010E02800C0B202F08BB88BAB42AA50
S31508000DD0DFF8441B13A803F081F904E0DFF80416D2
S31508000DE013A802F099F901F0F8BF00BF0D0A000038
S31508000DF0F6B2012E55D150A807F04CF80500EDB211
S31508000E00002D03D1FBA806F0C2FE0500EDB2002DA9
S31508000E1026D1DFF8941D13A802F07EF913A9002045
S31508000E2002F052FA0500EDB2002D03D02800C0B238
S31508000E3002F057B8DFF8741D13A803F04FF952A94A
S31508000E4013A803F065F9B6A113A803F061F913A96D
S31508000E50002002F039FA0500EDB2002D02D105E0B6
S31508000E6001F0BBBF2800C0B202F03BB8BDF8502164
S31508000E70DFF83C1D13A803F031F913A9002002F08E
S31508000E8023FA0500EDB2002D03D02800C0B202F007
S31508000E9028B8FBAB50AADFF8E01D13A803F01EF92B
S31508000EA0CFE06078302815D0312867D0492840F03F
S31508000EB0C88006F019FE0500EDB2002D04D1DFF852
S31508000EC0E81D13A802F028F9BBE000BF7836002019
S31508000ED0B05E010850A806F0DDFF0500EDB2002D52
S31508000EE026D1DFF8C41C13A802F016F913A90020AE
S31508000EF002F0EAF90500EDB2002D03D02800C0B2D1
S31508000F0001F0EFBFDFF8A41C13A803F0E7F852A915
S31508000F1013A803F0FDF882A113A803F0F9F813A9A2
S31508000F20002002F0D1F90500EDB2002D01D104E050
S31508000F3087E02800C0B201F0D4BFBDF85021DFF821
S31508000F40701C13A803F0CAF813A9002002F0BCF914
S31508000F500500EDB2002D03D02800C0B201F0C1BFD4
S31508000F60DFF89C1D13A803F0B9F850A913A803F0DD
S31508000F70CFF86BA113A803F0CBF862E03CA807F002
S31508000F8088FA0500EDB2002D2ED1DFF81C1C13A837
S31508000F9002F0C2F813A9002002F096F90500EDB296
S31508000FA0002D0BD02800C0B201F09BBFB45A01082F
S31508000FB0E0640108E870010808650108E04913A81B
S31508000FC003F08CF80DF1FE0113A803F0A1F854A163
S31508000FD013A803F09DF813A9002002F075F905007F
S31508000FE0EDB2002D01D104E02BE02800C0B201F0DB
S31508000FF078BFBDF80621DFF8901313A803F06EF842
S3150800100013A9002002F060F90500EDB2002D03D007
S315080010102800C0B201F065BFDC4913A803F05EF8EA
S315080010203CA913A803F074F8D94913A803F070F87B
S315080010300DF1F70113A803F06BF839A113A803F013
S3150800104067F801F0CABEDFF8AC1D13A802F064F811
S3150800105001F0C3BEDFF8DC1D13A802F05DF801F04D
S31508001060BCBE00BF08710108306501082871010877
S3150800107058650108487101083CA807F03FFC0500BF
S31508001080EDB2002D04D10DF5806007F08BFB05004D
S31508001090EDB2002D26D1DFF8A01D13A802F03CF80A
S315080010A013A9002002F010F90500EDB2002D03D0B7
S315080010B02800C0B201F015BFA14913A803F00EF825
S315080010C00DF1FE0113A803F023F815A113A803F0E8
S315080010D01FF813A9002002F0F7F80500EDB2002D5D
S315080010E002D105E001F079BE2800C0B201F0F9BED0
S315080010F0BDF80621A44913A802F0F0FF13A90020A1
S3150800110002F0E2F80500EDB2002D11D02800C0B2B9
S3150800111001F0E7BE8065010844810108447C0108A6
S315080011200D0A0000586A0108A8650108D06501087B
S31508001130FFA80B3001900DF1F70000900DF58063C4
S315080011403CAADFF8AC1D13A802F0C8FF01F045BEA3
S31508001150F6B2012E63D1B3A807F080FD0500EDB203
S31508001160002D5AD1DFF8C81D13A801F0D5FF13A921
S31508001170002002F0A9F80500EDB2002D03D02800E2
S31508001180C0B201F0AEBEDFF8AC1D13A802F0A6FF90
S3150800119013A9002002F098F80500EDB2002D03D03F
S315080011A02800C0B201F09DBEDFF8C81D13A801F0E3
S315080011B0B3FFB9A913A802F0ABFFCAA113A802F09E
S315080011C0A7FF13A9002002F07FF80500EDB2002D55
S315080011D003D02800C0B201F084BEDFF89C1D13A816
S315080011E001F09AFFB3A913A802F092FFDFF88C1D4D
S315080011F013A802F08DFFB5A913A802F089FFDFF83E
S31508001200801D13A802F084FFB7A913A802F080FF77
S31508001210B4A113A802F07CFF26E201F0DEBD6078D7
S31508001220302800F06181312800F0C181322800F0B1
S31508001230E081332800F0ED81492840F01082F6B2AB
S31508001240022E13D107F008FC0500EDB2002D40F080
S315080012504381DFF8A41D13A801F05EFF3CE100BF3F
S31508001260F8650108E85E0108587C0108F6B21D2EEB
S3150800127005D0DFF8881D13A801F04EFF2CE1A078F1
S315080012803A2817D160792E2814D1207A2E2811D120
S31508001290E07A2E280ED1A07B2E280BD1607C2E2832
S315080012A008D1207D2E2805D1E07D2E2802D1A07EEA
S315080012B02E280DD0DFF8841D13A801F02DFF0BE1B1
S315080012C0BC7D0108707F0108206601084866010890
S315080012D00020359000200700092F26DA032000FB9E
S315080012E007F0204490F903008DF83000032000FB36
S315080012F007F0204490F904008DF8310000208DF89D
S3150800130032000CA801F010FE002807D1DFF8A41D52
S3150800131013A801F001FF0120359006E00CA801F0A2
S3150800132028FE8FA9C8557F1CD6E79DF83C020828D9
S3150800133008DBDFF8C01D13A801F0EEFE94E100BF3C
S315080013406C7C01089DF83C0210F007008DF8CD0072
S315080013509DF83D02022805DBDFF89C1D13A801F065
S31508001360DBFE81E19DF83D0210F00100C0B2C0002D
S315080013708DF8CC009DF83E0202280BDBDFF8B81D7D
S3150800138013A801F0C9FE6FE168710108CC7D010858
S31508001390DC7D01089DF83E0210F00100C0B2000194
S315080013A08DF8CB009DF83F02022805DBDFF88C1D7F
S315080013B013A801F0B1FE57E19DF83F0210F00100B5
S315080013C0C0B240018DF8CA009DF8400240280BDBE8
S315080013D0DFF8A81D13A801F09FFE45E17066010815
S315080013E098660108887101089DF8400210F03F00D0
S315080013F08DF8C9009DF84102022805DBDFF8BC1DFF
S3150800140013A801F089FE2FE19DF8410210F00100B2
S31508001410802148438DF8C8009DF84202042805DB60
S31508001420DFF89C1D13A801F077FE1DE19DF8420226
S3150800143010F003008DF83F009DF84302042807DBEF
S31508001440DFF8BC1D13A801F067FE0DE17C6A0108F0
S315080014509DF8430210F00300C0B280008DF83E00EC
S315080014609DF84402022805DBDFF8981D13A801F051
S3150800147053FEF9E09DF8440210F00100C0B20001E5
S315080014808DF83D009DF8CD009DF8CC1008189DF804
S31508001490CB1008189DF8CA1008188DF8E8009DF8B2
S315080014A0C9009DF8C81008188DF8E9009DF83F0096
S315080014B09DF83E1008189DF83D1008188DF8EA00AA
S315080014C03AA807F0F1FA0500EDB2002D04D1DFF8CD
S315080014D0AC1D13A801F020FEC6E000BF0461010898
S315080014E0346101080D0A0000B3A807F0B7FB050030
S315080014F0EDB2002D5AD1DFF8381A13A801F00CFE08
S3150800150013A9002001F0E0FE0500EDB2002D03D07E
S315080015102800C0B201F0E5BCDFF8181A13A802F0DB
S31508001520DDFD13A9002001F0CFFE0500EDB2002D68
S3150800153003D02800C0B201F0D4BCDFF8381A13A8CB
S3150800154001F0EAFDB9A913A802F0E2FDD4A113A897
S3150800155002F0DEFD13A9002001F0B6FE0500EDB28B
S31508001560002D03D02800C0B201F0BBBCDFF8081A72
S3150800157013A801F0D1FDB3A913A802F0C9FDDFF83D
S31508001580FC1913A802F0C4FDB5A913A802F0C0FD02
S31508001590DFF8EC1913A802F0BBFDB7A913A802F0EF
S315080015A0B7FDBFA113A802F0B3FD5DE05CE04CA84F
S315080015B007F00DFB0500EDB2002D19D1DFF86C1D03
S315080015C013A801F0A9FD9DF83021DFF8641D0CA8C9
S315080015D002F084FD0CA913A802F09AFD4CA9491C37
S315080015E013A802F095FDAEA113A802F091FD3BE009
S315080015F03AE007F083FA0500EDB2002D08D1DFF8CE
S31508001600341D13A801F088FD2EE000BFB074010850
S315080016102AE04EA807F094FA0500EDB2002D1DD178
S31508001620DFF8141D13A801F077FD9DF83821DFF8BF
S31508001630001D0CA802F052FD0CA913A802F068FDC3
S315080016404EA9491C13A802F063FD95A113A802F040
S315080016505FFD09E0807C0108205F010804E0DFF8EF
S31508001660DC1C13A801F058FD01F0B7BB60784428CC
S315080016700AD0552811D1042007F03AFCDFF8B81D26
S3150800168013A801F049FD0DE0042007F03FFCDFF840
S31508001690AC1D13A801F040FD04E0DFF8A41D13A853
S315080016A001F03AFD01F099BBF6B2022E06DADFF830
S315080016B0941D13A801F030FD01F08ABB6078432819
S315080016C000F07882442801F0AA8149280DD04B28D9
S315080016D001F0C2814D2801F05D83522801F0AB81EB
S315080016E0552801F0278301F06FBBF6B2092E05DAFB
S315080016F0DFF8D41D13A801F00FFD52E2A078512897
S3150800170000F0BB81C0F04882532802D0C0F0A38005
S3150800171042E2E0783A2802D1A0792E2805D0DFF8EF
S31508001720AC1D13A801F0F8FC94E094F904008DF8B8
S31508001730300094F905008DF8310000208DF832004C
S315080017400CA801F0F1FB002805D1DFF8841D13A8C9
S3150800175001F0E2FC7EE00CA801F00BFC129094F973
S3150800176007008DF8300094F908008DF83100002044
S315080017708DF832000CA801F0D7FB002805D1DFF858
S31508001780D41D13A801F0C8FC64E00CA801F0F1FB15
S3150800179034903498002806D1129ADFF8BC1D13A895
S315080017A002F09CFC2DE000203590002007003498BC
S315080017B0874226DA032000FB07F0204490F90A0046
S315080017C08DF83000032000FB07F0204490F90B0049
S315080017D08DF8310000208DF832000CA801F0A4FB2A
S315080017E0002807D1DFF8E81C13A801F095FC0120B2
S315080017F0359006E00CA801F0BCFB8FA9C8557F1CE4
S31508001800D5E73598002805D1129ADFF8D01D13A818
S3150800181002F064FC00200700349887420BDA8FA890
S31508001820C25DB8A10CA802F059FC0CA913A802F0D5
S315080018306FFC7F1CF0E71AA113A802F069FC4FF4AD
S31508001840FA733498020092B28FA9129880B207F000
S315080018507BFC0500A5E1E0783A2805D1A0792E2879
S3150800186002D1607A2E2805D0DFF8F41D13A801F0FE
S3150800187053FC01E194F904008DF8300094F9050051
S315080018808DF8310000208DF832000CA801F04CFBD1
S3150800189000280BD1DFF8CC1D13A801F03DFCEBE0C6
S315080018A00D0A000084620108C06601080CA801F050
S315080018B060FB129094F907008DF8300094F908003F
S315080018C08DF8310000208DF832000CA801F02CFBB1
S315080018D0002805D1DFF8901D13A801F01DFCCBE008
S315080018E00CA801F046FB349094F90A008DF83000F4
S315080018F094F90B008DF8310000208DF832000CA801
S3150800190001F012FB002809D1DFF8E01D13A801F049
S3150800191003FCB1E0C8740108787301080CA801F04B
S3150800192028FB39903498002806D1129ADFF8C01D92
S3150800193013A802F0D3FB36E00020359000200700FC
S31508001940349887422FDA032000FB07F0204490F9E9
S315080019500D008DF83000032000FB07F0204490F9B5
S315080019600E008DF8310000208DF832000CA801F029
S31508001970DBFA002810D1DFF8FC1D13A801F0CCFB18
S31508001980012035900FE000BFB0620108947301088A
S31508001990A06A0108947C01080CA801F0EAFA8FA94C
S315080019A0C8557F1CCCE73598002805D1129ADFF870
S315080019B0C81D13A802F092FB00200700349887423E
S315080019C00BDA8FA8C25D4FA10CA802F087FB0CA901
S315080019D013A802F09DFB7F1CF0E7C8A113A802F02C
S315080019E097FB4FF4FA733498020092B28FA91298B3
S315080019F080B207F0A9FB0500EDB2002D0ED14FF419
S31508001A00FA733998020092B28FA9129880B207F039
S31508001A10E6FB0500EDB2002D05D100E0C1E014207B
S31508001A2007F018FC0500EDB2002D25D113A90020FA
S31508001A3001F04AFC0500EDB2002D03D02800C0B223
S31508001A4001F04FBADFF8F41D13A802F047FB002097
S31508001A500700399887420BDA8FA8C25D29A10CA81E
S31508001A6002F03CFB0CA913A802F052FB7F1CF0E71E
S31508001A70A2A113A802F04CFB93E0E0783A2802D121
S31508001A80A0792E280CD0DFF8B81D13A801F044FB66
S31508001A9081E000BFE0740108A8710108A87C01086C
S31508001AA094F904008DF8300094F905008DF831009A
S31508001AB000208DF832000CA801F036FA002805D16E
S31508001AC0DFF8001E13A801F027FB64E00CA801F05C
S31508001AD050FA129094F907008DF8300094F908002E
S31508001AE08DF8310000208DF832000CA801F01CFAA0
S31508001AF0002809D1DFF8D01D13A801F00DFB4AE034
S31508001B00BC7C010825782E000CA801F032FA399021
S31508001B10129ADFF8DC1B13A802F0E0FA4FF4FA7306
S31508001B203998020092B28FA9129880B207F057FB33
S31508001B300500EDB2002D07D1142007F08BFB050038
S31508001B40EDB2002D27D100E02BE013A9002001F00B
S31508001B50BBFB0500EDB2002D03D02800C0B201F092
S31508001B60C0B9DFF8D81C13A802F0B8FA002007009D
S31508001B70399887420BDA8FA8C25DCDA10CA802F06E
S31508001B80ADFA0CA913A802F0C3FA7F1CF0E75BA113
S31508001B9013A802F0BDFA04E0DFF8A01713A801F0B5
S31508001BA0BBFA01F015B900BFF874010810750108F1
S31508001BB0C46A010800200500F6B2022E40F07D80B6
S31508001BC0052003F0C1FC002804D055A804F000FD48
S31508001BD005000BE0062003F0B7FC002804D055A842
S31508001BE003F027FE050001E001200500EDB2002DF7
S31508001BF05CD13CA806F0D6FD0500EDB2002D4BD110
S31508001C0050A805F0C4FF0500EDB2002D3DD1ACA8E3
S31508001C1002F0B6FA0500EDB2002D2FD1ACA8099056
S31508001C2050A808903CA8079055A8069085A8059046
S31508001C307FA8049079A8039073A802906DA80190D4
S31508001C4067A8009061AB5BAADFF8FC1D13A802F039
S31508001C5045FA13A9002001F037FB0500EDB2002D67
S31508001C6003D02800C0B201F03CB9DFF8E01D13A884
S31508001C7002F034FA00F0D2BE28750108DFF8D01D4C
S31508001C8013A802F02BFA00F0C9BEDFF8C81D13A886
S31508001C9002F024FA00F0C2BEDFF8081E13A802F00C
S31508001CA01DFA00F0BBBE00BFDC620108DFF8F81DB4
S31508001CB013A802F013FA00F0B1BEA078492800F084
S31508001CC09F86522800F00D83532804D0542800F02C
S31508001CD06F8600F0A3BEE0783A2805D0DFF8CC1D61
S31508001CE013A801F019FAFBE2F6B2052E0ADADFF8B4
S31508001CF0C01D13A801F010FAF2E200BF0D0A000099
S31508001D00EC7D0108201D3190319947A801F004FAAD
S31508001D1000200B9000200A900AA800900BAB36AA68
S31508001D20DFF8FC1D47A807F07DFB032840F0D382A7
S31508001D300A9807F089FBCDE902010B9807F084FBA6
S31508001D40CDE9000136AADFF8DC1D13A802F0C6F9B2
S31508001D500422DFF8D41D36A807F09DFB002814D10D
S31508001D600B9A0A99002007F013FC0500EDB2002D26
S31508001D7005D1DFF8DC1D13A802F0B0F9A8E2DFF8F8
S31508001D80D41D13A802F0AAF9A2E20422DFF8C81D9E
S31508001D9036A807F080FB002814D10B9A0A9901206F
S31508001DA007F0F6FB0500EDB2002D05D1DFF8AC1DF6
S31508001DB013A802F093F98BE2DFF8981D13A802F036
S31508001DC08DF985E20422DFF8981D36A807F063FB33
S31508001DD0002817D10B9A0A99022007F0D9FB0500AB
S31508001DE0EDB2002D08D1DFF87C1D13A802F076F9B4
S31508001DF06EE200BF64610108DFF8581D13A802F0FF
S31508001E006DF965E20422DFF8F01D36A807F043FBFA
S31508001E10002819D10B9A0A99032007F0B9FB050087
S31508001E20EDB2002D0AD1DFF8D41D13A802F056F939
S31508001E304EE200BF40750108D07C0108DFF8141D8A
S31508001E4013A802F04BF943E20422DFF8B41D36A8C2
S31508001E5007F021FB002814D10B9A0A99042007F0F1
S31508001E6097FB0500EDB2002D05D1DFF8981D13A8E4
S31508001E7002F034F92CE2DFF8DC1C13A802F02EF984
S31508001E8026E20422DFF8001E36A807F004FB002825
S31508001E9016D10B9A0A99052007F07AFB0500EDB2D0
S31508001EA0002D07D1DFF8E41D13A802F017F90FE299
S31508001EB025782E00DFF89C1C13A802F00FF907E21C
S31508001EC00422DFF8CC1D36A807F0E5FA002817D15A
S31508001ED00B9A0A99062007F05BFB0500EDB2002D68
S31508001EE008D1DFF8F01D13A802F0F8F8F0E100BFFA
S31508001EF0E8660108DFF85C1C13A802F0EFF8E7E1D2
S31508001F000422DFF8D41D36A807F0C5FA002819D12F
S31508001F100B9A0A99072007F03BFB0500EDB2002D46
S31508001F200AD1DFF8FC1D13A802F0D8F8D0E100BFEB
S31508001F30B0730108585F0108DFF8181C13A802F0EF
S31508001F40CDF8C5E10422DFF8DC1D36A807F0A3FAB0
S31508001F5000281DD10B9A0A99082007F019FB0500DD
S31508001F60EDB2002D0ED1DFF8E41D13A802F0B6F885
S31508001F70AEE100BFFC7D01087C7F0108887F01086F
S31508001F80947F0108DFF8CC1B13A802F0A7F89FE19D
S31508001F900422DFF8BC1D36A807F07DFA002814D104
S31508001FA00B9A0A99092007F0F3FA0500EDB2002DFD
S31508001FB005D1DFF8D81D13A802F090F888E1DFF8FC
S31508001FC0941B13A802F08AF882E10422DFF8C01DE8
S31508001FD036A807F060FA002818D10B9A0A990A2041
S31508001FE007F0D6FA0500EDB2002D09D1DFF8D41DA9
S31508001FF013A802F073F86BE1245A0108F85A01088D
S31508002000DFF8501B13A802F069F861E10422DFF833
S31508002010DC1D36A807F03FFA002817D10B9A0A9953
S315080020200B2007F0B5FA0500EDB2002D08D1DFF850
S31508002030C01D13A802F052F84AE100BF6C5A010805
S31508002040DFF8101B13A802F049F841E10422DFF873
S31508002050A41D36A807F01FFA002814D10B9A0A996E
S315080020600C2007F095FA0500EDB2002D05D1DFF832
S31508002070C01D13A802F032F82AE1DFF8D81A13A80F
S3150800208002F02CF824E10422DFF8BC1D36A807F07C
S3150800209002FA002816D10B9A0A990D2007F078FA49
S315080020A00500EDB2002D07D1DFF8A01D13A802F038
S315080020B015F80DE1005C0108DFF8981A13A802F07C
S315080020C00DF805E10422DFF8B81D36A807F0E3F994
S315080020D0002819D10B9A0A990E2007F059FA05001B
S315080020E0EDB2002D0AD1DFF89C1D13A801F0F6FF0A
S315080020F0EEE000BFC05D0108FC5D0108DFF8541A78
S3150800210013A801F0EBFFE3E00422DFF8AC1D36A8C4
S3150800211007F0C1F9002819D10B9A0A990F2007F080
S3150800212037FA0500EDB2002D0AD1DFF8901D13A885
S3150800213001F0D4FFCCE000BF385E0108905F0108CB
S31508002140DFF8101A13A801F0C9FFC1E00422DFF86E
S315080021509C1D36A807F09FF9002817D10B9A0A99F3
S31508002160102007F015FA0500EDB2002D08D1DFF8AA
S31508002170801D13A801F0B2FFAAE000BF405C010869
S31508002180DFF8D01913A801F0A9FFA1E00422DFF8AF
S31508002190641D36A807F07FF9002819D10B9A0A9909
S315080021A0112007F0F5F90500EDB2002D0AD1DFF888
S315080021B0481D13A801F092FF8AE000BF805C010861
S315080021C0C05C0108DFF88C1913A801F087FF7FE0CF
S315080021D00422DFF8281D36A807F05DF9002819D172
S315080021E00B9A0A99122007F0D3F90500EDB2002DD3
S315080021F00AD1DFF80C1D13A801F070FF68E000BFD4
S31508002200005D0108405D0108DFF8481913A801F0D0
S3150800221065FF5DE00422DFF8EC1C36A807F03BF901
S31508002220002814D10B9A0A99132007F0B1F9050072
S31508002230EDB2002D05D1DFF8D01C13A801F04EFF32
S3150800224046E0DFF8101913A801F048FF40E0042221
S31508002250DFF8B81C36A807F01EF9002816D10B9A25
S315080022600A99142007F094F90500EDB2002D07D15C
S31508002270DFF89C1C13A801F031FF29E03C5B01083C
S31508002280DFF8D01813A801F029FF21E00422DFF8AF
S31508002290841C36A807F0FFF8002814D10B9A0A996F
S315080022A0152007F075F90500EDB2002D05D1DFF808
S315080022B0681C13A801F012FF0AE0DFF8981813A8A3
S315080022C001F00CFF04E0DFF8541C13A801F006FF28
S315080022D00020050004E0DFF8481C13A800F01CFFE6
S315080022E09CE307F087F90200DFF8381C13A801F011
S315080022F0F5FE13A9002000F0E7FF0500EDB2002D5A
S3150800230003D02800C0B200F0ECBDDFF8C41C13A847
S3150800231001F0E4FE13A9002000F0D6FF0500EDB297
S31508002320002D0DD02800C0B200F0DBBDC871010831
S315080023304C81010834600108E86A010888710108BF
S3150800234000200700162F80F22D83002F33D0022F8E
S315080023507AD050D3042F00F0BD80C0F09580062FA8
S3150800236000F0FC80C0F0D680082F00F03981C0F05C
S3150800237015810A2F00F07A81C0F052810C2F00F0E7
S31508002380B981C0F093810E2F00F0F881C0F0D28198
S31508002390102F00F03382C0F01182122F00F07282E3
S315080023A0C0F05082142F00F0B182C0F08F82152F32
S315080023B000F0CC82E9E23800C0B207F00AF9834699
S315080023C03800C0B207F00BF981463800C0B207F0F2
S315080023D00CF98246584607F037F8CDE90201484617
S315080023E007F032F8CDE900015246DFF8E81B13A8DA
S315080023F001F074FEC9E23800C0B207F0EAF8834675
S315080024003800C0B207F0EBF881463800C0B207F0D2
S31508002410ECF88246584607F017F8CDE90201484617
S3150800242007F012F8CDE900015246DFF8AC1B13A8F5
S3150800243001F054FEA9E200BFE8710108087201081C
S3150800244008630108287201083800C0B207F0C1F80D
S3150800245083463800C0B207F0C2F881463800C0B2D9
S3150800246007F0C3F88246584606F0EEFFCDE90201AA
S31508002470484606F0E9FFCDE900015246DFF85C1B45
S3150800248013A801F02BFE80E23800C0B207F0A1F8CD
S3150800249083463800C0B207F0A2F881463800C0B2B9
S315080024A007F0A3F88246584606F0CEFFCDE90201AA
S315080024B0484606F0C9FFCDE900015246DFF8201B61
S315080024C013A801F00BFE60E21067010838670108DF
S315080024D0346301083800C0B207F07BF88346380039
S315080024E0C0B207F07CF881463800C0B207F07DF824
S315080024F08246584606F0A8FFCDE90201484606F08E
S31508002500A3FFCDE900015246DFF8D81A13A801F057
S31508002510E5FD3AE23800C0B207F05BF883463800BA
S31508002520C0B207F05CF881463800C0B207F05DF823
S315080025308246584606F088FFCDE90201484606F06D
S3150800254083FFCDE900015246DFF89C1A13A801F073
S31508002550C5FD1AE268600108587501083800C0B25E
S3150800256007F037F883463800C0B207F038F88146D6
S315080025703800C0B207F039F88246584606F064FFBC
S31508002580CDE90201484606F05FFFCDE90001524653
S31508002590DFF8581A13A801F0A1FDF6E13800C0B219
S315080025A007F017F883463800C0B207F018F88146D6
S315080025B03800C0B207F019F88246584606F044FFBC
S315080025C0CDE90201484606F03FFFCDE90001524633
S315080025D0DFF81C1A13A801F081FDD6E1E47C010896
S315080025E03800C0B206F0F5FF83463800C0B206F0E0
S315080025F0F6FF81463800C0B206F0F7FF8246584615
S3150800260006F022FFCDE90201484606F01DFFCDE996
S3150800261000015246DFF8DC1913A801F05FFDB4E1AA
S315080026203800C0B206F0D5FF83463800C0B206F0BF
S31508002630D6FF81463800C0B206F0D7FF8246584614
S3150800264006F002FFCDE90201484606F0FDFECDE997
S3150800265000015246DFF8A01913A801F03FFD94E1E6
S3150800266060670108606301089C6001083800C0B211
S3150800267006F0AFFF83463800C0B206F0B0FF8146C9
S315080026803800C0B206F0B1FF8246584606F0DCFEB6
S31508002690CDE90201484606F0D7FECDE900015246CB
S315080026A0DFF8581913A801F019FD6EE13800C0B219
S315080026B006F08FFF83463800C0B206F090FF8146C9
S315080026C03800C0B206F091FF8246584606F0BCFEB6
S315080026D0CDE90201484606F0B7FECDE900015246AB
S315080026E0DFF81C1913A801F0F9FC4EE1745E010825
S315080026F0707501083800C0B206F06BFF83463800D3
S31508002700C0B206F06CFF81463800C0B206F06DFF15
S315080027108246584606F098FECDE90201484606F07C
S3150800272093FECDE900015246DFF8D81813A801F048
S31508002730D5FC2AE13800C0B206F04BFF83463800C4
S31508002740C0B206F04CFF81463800C0B206F04DFF15
S315080027508246584606F078FECDE90201484606F05C
S3150800276073FECDE900015246DFF89C1813A801F064
S31508002770B5FC0AE188670108F87C01083800C0B290
S3150800278006F027FF83463800C0B206F028FF8146C8
S315080027903800C0B206F029FF8246584606F054FEB5
S315080027A0CDE90201484606F04FFECDE90001524642
S315080027B0DFF8581813A801F091FCE6E03800C0B21B
S315080027C006F007FF83463800C0B206F008FF8146C8
S315080027D03800C0B206F009FF8246584606F034FEB5
S315080027E0CDE90201484606F02FFECDE90001524622
S315080027F0DFF81C1813A801F071FCC6E03800C0B257
S3150800280006F0E7FE83463800C0B206F0E8FE8146C9
S315080028103800C0B206F0E9FE8246584606F014FEB5
S31508002820CDE90201484606F00FFECDE90001524601
S31508002830DFF8E01713A801F051FCA6E0A07F010815
S31508002840B06701083800C0B206F0C3FE83463800F8
S31508002850C0B206F0C4FE81463800C0B206F0C5FE16
S315080028608246584606F0F0FDCDE90201484606F0D4
S31508002870EBFDCDE900015246DFF89C1713A801F0DD
S315080028802DFC82E03800C0B206F0A3FE834638006D
S31508002890C0B206F0A4FE81463800C0B206F0A5FE16
S315080028A08246584606F0D0FDCDE90201484606F0B4
S315080028B0CBFDCDE900015246DFF8601713A801F0F9
S315080028C00DFC62E08C630108D06001083800C0B2D4
S315080028D006F07FFE83463800C0B206F080FE8146C9
S315080028E03800C0B206F081FE8246584606F0ACFDB6
S315080028F0CDE90201484606F0A7FDCDE9000152469A
S31508002900DFF81C1713A801F0E9FB3EE03800C0B257
S3150800291006F05FFE83463800C0B206F060FE8146C8
S315080029203800C0B206F061FE8246584606F08CFDB5
S31508002930CDE90201484606F087FDCDE90001524679
S31508002940DFF8E01613A801F0C9FB1EE03800C0B294
S3150800295006F03FFE83463800C0B206F040FE8146C8
S315080029603800C0B206F041FE8246584606F06CFDB5
S31508002970CDE90201484606F067FDCDE90001524659
S31508002980DFF8A41613A801F0A9FB13A9002000F08C
S315080029909BFC0500EDB2002D02D02800C0B2A0E2D3
S315080029A07F1CCFE4DFF8841613A801F097FB35E007
S315080029B0E0783A2805D0DFF8781613A800F0ACFBC3
S315080029C01DE0F6B2052E05DADFF8681613A800F042
S315080029D0A3FB14E0201D3190319947A800F09CFB19
S315080029E0319806F0EEFD0500EDB2002D02D0280064
S315080029F0C0B276E2DFF8341613A801F06FFB0DE0DB
S31508002A0006F07BFD0500EDB2002D02D02800C0B20D
S31508002A1067E2DFF8181613A801F060FBD8E102F0A8
S31508002A20D3FDADF8CE00BDF8CE20DFF80C1613A8FE
S31508002A3001F054FBCCE106F090FEDFF8001613A86F
S31508002A4001F04CFBC4E100BFD8670108AC7F010860
S31508002A5088750108A075010800200500F6B2042E45
S31508002A6005DADFF8DC1513A800F056FB61E1A0785B
S31508002A70522800F01581532840F05681E0785228F4
S31508002A8006D0C0F00781542800F0AD8057D301E185
S31508002A9020793A280ED0DFF8AC1513A800F03CFBD5
S31508002AA04CE000BF0C6B0108306B01080068010898
S31508002AB0546B0108F6B2062E0FDB01201090052094
S31508002AC00700F6B2B7420ADAE05D06F077FE00289C
S31508002AD001D1002010907F1CF3E700201090109879
S31508002AE0002805D1DFF8601513A800F015FB25E0CE
S31508002AF0601D3190319947A800F00EFB47A806F0F3
S31508002B0062FE1190119842F21071884202DA119809
S31508002B1000280BD5DFF8301513A800F0FDFA0DE0F4
S31508002B20B87F0108B875010854810108119806F0A4
S31508002B30E1FEDFF8181513A801F0D0FAAFE0207906
S31508002B403A2811D0DFF8081513A800F0E5FA49E08D
S31508002B50CC730108E87301085C810108D075010887
S31508002B60648101080C7D0108F6B2062E0FDB0120F0
S31508002B70109005200700F6B2B7420ADAE05D06F0C3
S31508002B801DFE002801D1002010907F1CF3E70020CD
S31508002B9010901098002805D1DFF8B81413A800F093
S31508002BA0BBFA1FE0601D3190319947A800F0B4FACE
S31508002BB047A806F008FE1190119842F21071884253
S31508002BC002DA1198002805D5DFF8881413A800F052
S31508002BD0A3FA07E0119806F0A2FEDFF8701413A80E
S31508002BE001F07CFA5BE020793A280DD0DFF868140A
S31508002BF013A800F091FA45E06C810108E875010810
S31508002C0074810108207D0108F6B2062E0FDB01202B
S31508002C10109005200700F6B2B7420ADAE05D06F022
S31508002C20CDFD002801D1002010907F1CF3E700207D
S31508002C3010901098002805D1DFF8201413A800F08A
S31508002C406BFA1FE0601D3190319947A800F064FACD
S31508002C5047A806F0B8FD1190119842F21071884203
S31508002C6002DA1198002805D5DFF8E81313A800F052
S31508002C7053FA07E0119806F079FEDFF8D01313A887
S31508002C8001F02CFA0BE000BF7C810108347D0108B5
S31508002C9084810108DFF8C81313A800F03DFA48E05C
S31508002CA0E078522804D034D3542829D016D330E0FB
S31508002CB006F06EFE06F090FEDFF8A81306F09CFEFE
S31508002CC006F0C2FB02000B00DFF89C1313A801F004
S31508002CD005FA23E0007601088C81010806F05BFE00
S31508002CE006F07AFEDFF87C1306F086FE06F0ACFBEB
S31508002CF002000B00DFF8741313A801F0EFF90DE0DA
S31508002D0006F04FFE0200DFF8681313A801F0E6F993
S31508002D1004E0DFF8601313A800F0FEF909E000BF2D
S31508002D201876010894810108DFF84C1313A800F0FF
S31508002D30F3F94DE000200500F6B2032E0ADADFF8B3
S31508002D403C1313A800F0E8F91FE000BF307601082D
S31508002D509C810108A07844280AD0452811D1C84981
S31508002D6013A801F0BBF9012006F0EEFD05000CE002
S31508002D70C44913A801F0B2F9002006F0E5FD0500E4
S31508002D8003E0C14913A800F0C7F921E04876010815
S31508002D90A4810108BD4913A800F0BEF913A90020B3
S31508002DA000F092FA0500EDB2002D02D02800C0B25C
S31508002DB097E0B74913A800F0AFF90120B5490870A4
S31508002DC006E000BF60760108AB4913A800F0A4F935
S31508002DD003E0A94913A800F09FF9EDB2002D0BD026
S31508002DE0022D46D009D3032D4ED054E0AC810108FC
S31508002DF078760108B481010853E006F021FA3B9081
S31508002E003B9801280AD002280DD0042812D0082899
S31508002E1015D010281CD020281FD023E09E4913A8BF
S31508002E2000F07AF922E09D4913A800F075F91DE033
S31508002E30907601089A4913A800F06EF916E09949A8
S31508002E4013A800F069F911E0BC810108A876010809
S31508002E50954913A800F060F908E0944913A800F012
S31508002E605BF903E0924913A800F056F906F0C3F897
S31508002E7017E0904913A800F04FF906F0BCF810E0E7
S31508002E80C4810108C07601088B4913A800F044F9EB
S31508002E9006F0B1F805E0894913A800F03DF906F0F7
S31508002EA0AAF813A9002000F00FFA0500EDB2002DCC
S31508002EB006D02800C0B214E0CC810108D8760108F3
S31508002EC07F4913A800F028F913A9002000F0FCF99F
S31508002ED00500EDB2002D02D02800C0B201E028009E
S31508002EE0C0B20DF5806D15B0BDE8F08FD48101082C
S31508002EF0F0760108DC81010808770108E4810108F9
S31508002F0020770108EC81010838770108F481010867
S31508002F1050770108FC8101086877010848720108A2
S31508002F209461010868720108F8B50400200000F0F1
S31508002F30C9F805000020070000200600AE4216DA90
S31508002F40A05D3A2802DAA05D302805DAA05D472898
S31508002F5005DAA05D412802DB0020070001E0012018
S31508002F600700012F01D1002002E0761CE6E70120C8
S31508002F70F2BD2DE9F041040000275FF000082000AB
S31508002F8000F0A0F8050000200600AE421ADAA05D9F
S31508002F903A2806DAA05D302803DBA05D3038070042
S31508002FA00CE0A05D472806DAA05D412803DBA05D9A
S31508002FB03738070002E05FF0FF3004E017EB081827
S31508002FC0761CE2E74046BDE8F08132480078704753
S31508002FD0786B0108807701088872010898770108DC
S31508002FE0A8720108B0770108C8770108E0770108D8
S31508002FF0F87701081078010828780108C8720108CE
S315080030004078010858780108E872010870780108C4
S3150800301088780108A0780108B8780108D0780108EE
S31508003020E87801080079010818790108487D01083F
S31508003030286801089C6B010830790108C06B0108F3
S3150800304050680108B8630108E46B0108AC7F010801
S31508003050E4630108086C0108106401082C6C010877
S31508003060506C010800002041786801083C6401089A
S3150800307048790108746C010888710108A06801087C
S31508003080C8680108F068010818690108047401088D
S31508003090207401087836002040690108C4610108D7
S315080030A0F46101082462010868690108546201088C
S315080030B090690108B8690108E0690108086A010809
S315080030C00482010800F10103810704D010F8011BEE
S315080030D089B18107FAD10268B2F10131914311F041
S315080030E0803F04BF50F8042FF6E710F8011B11B112
S315080030F010F8011BFBE7C01A704703681AB95A1E75
S31508003100026008467047197800290FBF4FF0FF3054
S31508003110591C0160187870475FEA000C830706D0CF
S3150800312011F8013B00F8013BB3B18307F8D10A68EF
S31508003130B2F1013323EA020313F0803F02BF40F8DD
S31508003140042B51F8042FF3E711F8013B00F8013B73
S3150800315013B111F8013BF9E76046704780B5DFF80F
S315080031608004DFF8801408604FF49640DFF8741482
S3150800317048600020DFF86C1488600020DFF86414CB
S31508003180C8600020DFF85C1408610C20DFF85414CE
S3150800319048610020DFF84C1488610020DFF84414E9
S315080031A0C861DFF8400406F0A5FC002801D007F046
S315080031B06DFC01BD80B5DFF83004DFF83014086017
S315080031C05FF4E130DFF8241448600020DFF81C14AF
S315080031D088600020DFF81414C8600020DFF80C149B
S315080031E008610C20DFF8041448614FF44070DFF8DA
S315080031F0FC1388610020DFF8F413C861DFF8EC03DC
S3150800320006F078FC002801D007F040FC01BD10B597
S3150800321086B004002068DFF8C81388421ED1DFF89C
S31508003220D003006850F40030DFF8C4130860DFF8F4
S31508003230C003006810F40030009000980C2001903C
S315080032400220029001200390032004900720059095
S3150800325001A9DFF8A00307F031FC33E02068DFF8A6
S31508003260881388422ED1DFF88803006850F480203E
S31508003270DFF87C130860DFF87803006810F4802014
S31508003280009000984FF440600190022002900120BF
S315080032900390032004900720059001A9DFF858033E
S315080032A007F00CFC4FF4C040019002200290002069
S315080032B00390032004900720059001A9DFF838033E
S315080032C007F0FCFB06B010BDF8B504000D00280099
S315080032D0FFF7F8FE0700BFB2792F01DB01203AE0BD
S315080032E0E4B2002C19D1DFF814030078002801D0C5
S315080032F0022030E04FF400433A0092B22900DFF88A
S31508003300E40206F030FC0600F6B2002E02D03000C9
S31508003310C0B220E03000C0B21DE0E4B2012C19D1E1
S31508003320DFF8DC020078002801D0022013E04FF411
S3150800333000433A0092B22900DFF8B00206F013FC07
S315080033400600F6B2002E02D03000C0B203E030000C
S31508003350C0B200E00120F2BDF8B504000D00280057
S31508003360FFF7B0FE0700BFB2792F01DB012036E078
S31508003370E4B2002C17D1DFF884020078002801D0C7
S3150800338002202CE03A0092B22900DFF8580206F033
S3150800339068FC0600F6B2002E02D03000C0B21EE06D
S315080033A03000C0B21BE0E4B2012C17D1DFF850029E
S315080033B00078002801D0022011E03A0092B22900D4
S315080033C0DFF8280206F04DFC0600F6B2002E02D001
S315080033D03000C0B203E03000C0B200E00120F2BD08
S315080033E0DFF8200270470120DFF81C1208707047CA
S315080033F0854800787047F8B504000D001600B6B287
S31508003400792E01DB012032E0E4B2002C15D17B488D
S315080034100078002801D0022029E0320092B2290063
S31508003420704806F056FC0700FFB2002F02D038009D
S31508003430C0B21CE03800C0B219E0E4B2012C15D1C4
S315080034406F480078002801D0022010E0320092B2BE
S315080034502900664806F03DFC0700FFB2002F02D09F
S315080034603800C0B203E03800C0B200E00120F2BD67
S3150800347010B504002000C0B200F006F8012801D0FB
S31508003480002000E0012010BD0100C9B2002903D1C7
S31508003490544890F8390007E0C9B2012903D15348C6
S315080034A090F8390000E00420704701684C4A9142C0
S315080034B003D10121514A117006E001684A4A914236
S315080034C002D101214E4A11707047C0B2002803D1BB
S315080034D000214A4A117005E0C0B2012802D1002134
S315080034E0474A1170704770B5040020683C49884205
S315080034F003D10120414908704CE020683A498842C6
S3150800350048D1FFF775FF002824D0032040490860FA
S31508003510FFF766FF3F4908603E4800684078401C50
S315080035200600002005003A48006885420BDA39484B
S315080035300068007800F07EFB36480068401C354974
S3150800354008606D1CEFE732480660314800682F496D
S3150800355008601CE0FFF744FF2E49086000200500BC
S315080035602B48006885420BDA2A480068007800F084
S3150800357061FB28480068401C264908606D1CEFE777
S315080035800320234908602248006820490860012072
S315080035901B49087070BD704714480068C06850F031
S315080035A0800012490968C860704710480068C068FA
S315080035B050F480700D490968C8600C480068406975
S315080035C050F0010009490968486108480068C06860
S315080035D050F0200005490968C860704700000000DF
S315080035E0004400409033002000480040D0330020BB
S315080035F02438024000000240000402407B360020C6
S315080036007C360020543500207D36002048000020F6
S31508003610643600206036002038B504000D00DFF857
S31508003620BC0700680471DFF8B40700684571DFF865
S31508003630B007DFF8A81709680860DFF8A007006870
S31508003640011DDFF898070068006807F0A2FCDFF89C
S3150800365094070068001D32BD0020DFF88C17A1F81A
S3150800366020030020DFF8841781F896010020DFF890
S315080036707C1781F897010020DFF8701781F8980108
S315080036800020DFF8681781F899010020DFF85C1739
S3150800369081F89A010120DFF8541781F89B017047D9
S315080036A0401CC0B2C82800DB0020C0B2704738B53D
S315080036B004000D00002C27D0DFF8300790F893019E
S315080036C0DFF8281791F8921188421BD00020DFF8FE
S315080036D01C1781F89501DFF81407DFF8101791F821
S315080036E09311084490F8CA0028706D1CDFF8FC0690
S315080036F090F89301FFF7D4FFDFF8F01681F89301ED
S31508003700641ED7E7FFF751FF002032BDDFF8DC065D
S3150800371090F89501704780B5FFF79EFF062005F0E3
S31508003720F5FB0FF2DD30DFF8C8160860DFF8C406CF
S31508003730DFF8C4160860DFF8C406DFF8C4160860A8
S31508003740062005F0D5FB01BD70B586B00025DFF86B
S315080037509C06D0F89C01002805D107F008FCDFF884
S315080037608C16C1F89C01DFF88406D0F89C01002865
S3150800377000F0EF80DFF87406D0F89C010068DFF8E7
S3150800378084160840DFF86016DFF85C26B2F82023B6
S3150800379041F82200DFF85006B0F82003C0B2FFF760
S315080037A07FFFDFF84416A1F82003DFF84006D0F8BB
S315080037B09C010068DFF84C16084004002000DFF87A
S315080037C0481688422AD0DFF84416884258D0DFF8CF
S315080037D04016884200F08280DFF83816884229D0E1
S315080037E0DFF83416884279D0DFF83016884257D089
S315080037F0DFF82C16884200F09280DFF828168842F7
S315080038005AD0DFF82416884262D0DFF8201688429C
S3150800381064D0DFF81C1688425AD08BE0DFF81416FD
S315080038200020FFF751FD012005000120DFF8BC1537
S3150800383081F896010020DFF8B41581F89701022176
S315080038400220FFF7E9FE06003088002817D1EDB2FE
S31508003850002D0FD1DFF8E0150020FFF735FD022116
S315080038600D2007F0D5FB01F0F2FE0D2007F020FC35
S3150800387005F073FF0020DFF87415C1F89C0168E0B5
S31508003880DFF8B8150020FFF71FFD0120DFF85C15EB
S3150800389081F897010020DFF85415C1F89C0158E01B
S315080038A095A10020FFF710FD01F0E0FE0020DFF8EB
S315080038B03C15C1F89C014CE090A10020FFF704FDDF
S315080038C001F0D4FE0020DFF82415C1F89C0140E081
S315080038D00020DFF81815C1F89C013AE0DFF86015FA
S315080038E00020FFF7F1FCDFF80405D0F89C01807A88
S315080038F000280ED0DFF8F404D0F89C0110F10B0272
S31508003900DFF84015684600F0E9FB69460020FFF736
S31508003910DBFC0020DFF8D414C1F89C0119E0DFF8BD
S3150800392028150020FFF7D0FC0020DFF8C014C1F8E6
S315080039309C010EE02200DFF81415684600F0CEFB65
S3150800394069460020FFF7C0FC0020DFF8A014C1F884
S315080039509C0106B070BDDFF8940490F89601704794
S31508003960DFF8880490F897017047DFF8800490F82C
S315080039709801704700B585B0DFF8700490F8990192
S31508003980032840D1DFF8640490F89B01012801D18F
S31508003990012039E000F078FD002832D000F06FFDF4
S315080039A0DFF8480490F89A01401CDFF8401481F8C3
S315080039B09A0105F0F6FF0300DFF8300490F89A2123
S315080039C0DFF88C14684600F089FB69460020FFF78B
S315080039D07BFC05F0E6FFDFF8141491F89A1188428B
S315080039E00FD2DFF870140020FFF76EFC02211220B8
S315080039F007F00EFB01F02BFE122007F059FB05F02D
S31508003A00ACFE002000E0012005B000BDDFF8DC03B5
S31508003A1090F89901032809D1DFF8D00390F89B01A3
S31508003A20012801D1012002E0002000E001207047B2
S31508003A30DFF8B81381F89B017047DFF8B01391F8E7
S31508003A409911032903D1DFF8A41381F89B01704764
S31508003A50DFF8980390F899017047DFF8901381F81A
S31508003A609901704738B5040020680068000626D515
S31508003A70DFF8780390F8C900DFF8701391F8C810DA
S31508003A80884215D0DFF86403DFF8601391F8C9108F
S31508003A90415C89B2200000F0C2F8DFF8500390F8C4
S31508003AA0C900FFF7FDFDDFF8441381F8C90006E0F9
S31508003AB02068C0687FF0800108402168C8602068D7
S31508003AC0006810F00F000F2807D10020C74981F8B9
S31508003AD09401200000F0A9F80BE020680068800631
S31508003AE007D5200000F0A1F805002800C0B200F0B4
S31508003AF0A1F831BD000000002D2A2D002D4F2D0004
S31508003B002DE9F04104000D0054F07F400600B64848
S31508003B10B549B1F8201340F82160B348B0F820033E
S31508003B20C0B2FFF7BDFDB049A1F82003287869782F
S31508003B30090411EB0060A97810EB0120E978081850
S31508003B400600A948A849B1F8201340F82160A648FC
S31508003B50B0F82003C0B2FFF7A3FDA349A1F82003DC
S31508003B6028796979090411EB0060A97910EB01201D
S31508003B70E979081806009C489B49B1F8201340F8D3
S31508003B8021609948B0F82003C0B2FFF789FD96492D
S31508003B90A1F820034FF4FA600700002C3DD09348A3
S31508003BA090F8C800FFF77CFD804640468F4991F89B
S31508003BB0C910C0B288421ED028788C498B4A92F820
S31508003BC0C8208854272005F0C1FD884890F8C80009
S31508003BD0864991F8C910884201D1FFF7DDFC834870
S31508003BE080F8C880272005F0AAFD641E6D1C4FF4D6
S31508003BF0FA600700D1E73800471E0028CDD100201B
S31508003C007A4981F8960102210F2007F001FA0F2060
S31508003C1007F04EFA05F0A1FDBFE7BDE8F08189B2CD
S31508003C20CA05D20D03685A60704700684068C00527
S31508003C30C00D704730B58FB00400874887490978AA
S31508003C40445486480078401C84490870E4B20A2C1B
S31508003C5003D0E4B23F2C40F0BD8000207F490870B5
S31508003C607D4A7F49684600F039FA69460020FFF721
S31508003C702BFB0500EDB2002D02D02800C0B2ABE048
S31508003C8004227849744805F006FC00280DD1012065
S31508003C90564981F896010020544981F898017249DD
S31508003CA00020FFF711FB050094E009226F496A48D6
S31508003CB005F0F1FB002815D101204C4981F8970140
S31508003CC001204A4981F899010020484981F89A015A
S31508003CD067490020FFF7F8FA66490020FFF7F4FA6B
S31508003CE0050077E00C2264495B4805F0D4FB002800
S31508003CF01DD100203D4981F8970100203B4981F8F4
S31508003D0098010120394981F899010020374981F83D
S31508003D109A0157490020FFF7D7FA00F059FB01F03E
S31508003D20A9FC56490020FFF7CFFA050052E0042205
S31508003D305349494805F0AFFB002809D101202B4912
S31508003D4081F898014F490020FFF7BEFA050041E0C7
S31508003D5005224D49404805F09EFB002824D12348FA
S31508003D6090F8990102280DD10320204981F899017C
S31508003D7000201E4981F89A0144490020FFF7A4FA59
S31508003D80050027E0194890F89901032822D1002058
S31508003D90164981F89A013E490020FFF795FA050071
S31508003DA00120FFF745FE15E008223A492A4805F0A2
S31508003DB072FB002809D10221112007F029F91120E8
S31508003DC007F076F905F0C9FC04E033490020FFF74F
S31508003DD07BFA05002800C0B20FB030BD0C000020E9
S31508003DE02002030110000020C8200020C02D00205A
S31508003DF018360020AF3600081C3600200D3700089C
S31508003E0020360020F800FFFFA0000100A0000800EF
S31508003E10A0000900A0000801A000080220000A026C
S31508003E20A0000B02A0000A0320000A0520000908CA
S31508003E30A0000020447E01086C7D01087C7D0108F5
S31508003E4068700108507E0108087301085C7E010845
S31508003E50907B0108A47B01082C35002077360020CA
S31508003E60247301081C8001088C7D0108687E0108FE
S31508003E7088700108B87B01089C7D0108AC7D0108A3
S31508003E8024800108987401082C80010840730108F1
S31508003E90CC7B0108747E0108E07B0108002108003C
S31508003EA0802804DA00218A4A1154401CF8E7704732
S31508003EB088487047F8B504008021200007F02CFADE
S31508003EC00500EDB2002D02D02800C0B222E007F0AE
S31508003ED05AFA050000200600C82E0ADA07F053FA37
S31508003EE00500EDB2002D04D0052005F0D2F9761CA8
S31508003EF0F2E7C82E01DB03200CE0270000200600AD
S31508003F00802E05DA3878803838707F1C761CF7E7FB
S31508003F102800C0B2F2BD2DE9F8436C48FFF7CAFF86
S31508003F2080465FFA88F8B8F1000F02D04046C0B262
S31508003F3041E000200700802F05DA6448C05D654926
S31508003F40C8557F1CF7E7FFF7A9FF0023072260493A
S31508003F505E4807F045FA070017F1010F01D1012065
S31508003F6029E000200700402F23DA5848C05705F0FB
S31508003F7029FD05005648C05705F024FD060028000F
S31508003F80290007F003FB81463000310007F0FEFAEE
S31508003F90494607F067FB05F057FA07F0A5FB07F057
S31508003FA01BFC0400200007F05FFC4849C8557F1C2D
S31508003FB0D9E74046C0B2BDE8F28370B582B00400C6
S31508003FC00020050040A1200000F088F80020060027
S31508003FD0102E0BDA3D4882573F49684600F07EF8B6
S31508003FE06946200000F094F8761CF1E72800C0B274
S31508003FF076BD70B582B004000020050032A120000D
S3150800400000F06CF800200600102E0DDA2F48304418
S3150800401090F910203049684600F060F8694620009B
S3150800402000F076F8761CEFE72800C0B276BD70B5CA
S3150800403082B004000020050023A1200000F04EF8FD
S3150800404000200600102E0DDA2048304490F9202072
S315080040502149684600F042F86946200000F058F801
S31508004060761CEFE72800C0B276BD70B582B00400B2
S315080040700020050014A1200000F030F800200600FA
S31508004080102E0DDA1148304490F93020124968464E
S3150800409000F024F86946200000F03AF8761CEFE7AD
S315080040A02800C0B276BD0021080080280ADA00215F
S315080040B0064A11540021064A11540021054A115492
S315080040C0401CF2E77047000000000000BC310020E9
S315080040D03C320020BC3200200C8201080CB41CB50E
S315080040E0044604A801900A46009401AB69460748AD
S315080040F07844183007F0DAFB009A0021117000287E
S315080041005CBF0098001B16BC5DF80CFBB75300009B
S31508004110024600E0521C1378002BFBD111F8013B34
S31508004120137012F8013B002BF8D170471CB52020FC
S315080041308DF8000001208DF8010008208DF8020096
S3150800414000208DF8030000208DF8040000208DF86B
S315080041500500684608F07AFC0400E4B2002C05D095
S31508004160022C07D004D3032C06D007E0002006E073
S31508004170012004E0032002E0012000E0012016BD32
S315080041802DE9FF47040000208046684608F00CFD2C
S3150800419000283AD1009806003100062005F0E5F916
S315080041A00600009805F050F90022644B08F072FDED
S315080041B008F058FE05002D0202AA9246009805F05E
S315080041C043F9524608F064FE07F006FB81465FF0A5
S315080041D08740494607F0DAF907F046FB070017F06B
S315080041E0F0077D192A00564914F10C00FFF776FFEF
S315080041F0A561300005F028F902000B00514920009E
S31508004200FFF76CFF4046C0B200E0012004B0BDE8ED
S31508004210F0872DE9FF47040000200500684608F0EE
S31508004220C3FC002835D100988146009805F00CF9A2
S315080042300022424B08F02EFD08F014FE0600360256
S3150800424002AA9246009805F0FFF8524608F020FEAA
S3150800425007F0C2FA80465FF08740414607F096F9B4
S3150800426007F002FB070017F0F007BE1932003449C1
S3150800427014F10C00FFF732FFA661484605F0E4F892
S3150800428002000B002F492000FFF728FF2800C0B2C4
S3150800429000E0012004B0BDE8F08730B585B0040021
S315080042A0684608F097FC002801D0012041E001A8E3
S315080042B008F0B1FC00283BD1019805F0C5F8224A60
S315080042C0224B08F0E7FC0022214B08F03DFE07F0E0
S315080042D083FA0500BDF80000E082019805F0B4F8FD
S315080042E002000B001B492000FFF7F8FE280005F026
S315080042F0ABF802000B001749E01DFFF7EFFEBDF90A
S315080043000000C0F3072212B20B4914F10E00FFF7A2
S31508004310E5FEBDF9000000F0FF02074902A8FFF715
S31508004320DDFE02A914F10E00FFF7F2FE002000E000
S31508004330012005B030BD0000FC7F010800000440E4
S31508004340048001080C800108CDCCCCCCCCCCFC3F39
S31508004350000040401480010810B5A0B000208DF878
S31508004360040000208DF805004FF4FA700090002331
S3150800437001AA0F21BA2004F09AFE0400E4B2002C28
S3150800438007D14FF4FA73012201A9BA2004F027FFD6
S3150800439004009DF80400BD2801D1002000E001209A
S315080043A020B010BD80B501203C49487000F010F8D7
S315080043B000203A4988700020DFF8181D0870002090
S315080043C0DFF8101D48800020DFF8081D888001BD31
S315080043D080B501203149487031493248FEF79CFEC4
S315080043E02F493148FEF798FE2D493048FEF794FECE
S315080043F02B492F48FEF790FE29492E48FEF78CFEDA
S315080044002D492E48FEF788FE2D492E48FEF784FED4
S3150800441023492D48FEF780FE21492C48FEF77CFEED
S315080044201F492B48FEF778FE1D492A48FEF774FEF9
S315080044301B492948FEF770FE19492848FEF76CFE05
S3150800444017492748FEF768FE15492648FEF764FE11
S3150800445013492548FEF760FE11492448FEF75CFE1D
S315080044600F492348FEF758FE0D49DFF86C0CFEF796
S3150800447053FE01BD0120DFF8641C08707047002058
S31508004480DFF8581C08707047DFF8500C0078704742
S315080044900120DFF8481C08707047000058290020E2
S315080044A0DC7F010863290020732900208329002066
S315080044B092290020A82900205C7D0108CA2900202D
S315080044C02C7E0108E8290020062A0020182A002048
S315080044D0302A0020D42A0020EC2A0020042B0020B1
S315080044E01C2B0020342B00204C2B0020642B002092
S315080044F07C2B002010B58CB000200400DFF8DC0B04
S315080045000078002800F0E185DFF8D00B80780028D5
S3150800451008D0022846D03AD3042861D04DD30528BE
S3150800452071D085E0DFF8B81B01A8FFF7D7FD01A910
S315080045300020FEF7C9FE01A8FEF7C4FD01A9FFF792
S31508004540DFFA002001F000F800281FD0DFF8940BEE
S3150800455002F0EBFE0400E4B2002C69D1DFF8880B08
S3150800456002F0D6FF0400E4B2002C61D1DFF87C0B20
S3150800457003F0C1F80400E4B2002C59D1DFF8700B3F
S3150800458003F0A8F90400E4B2002C51D150E0012050
S3150800459000F0DAFF002804D0DFF8580B04F002F91F
S315080045A0040045E0022000F0CFFF002804D0DFF821
S315080045B0480B04F053FB04003AE0032000F0C4FF64
S315080045C000280CD0DFF8340BFFF7DAFD0400E4B25C
S315080045D0002C2DD1DFF8280BFFF75FFE040027E03B
S315080045E0042000F0B1FF00280CD0DFF8180B03F008
S315080045F0CEFA0400E4B2002C1AD1DFF80C0B03F053
S31508004600C7FD040014E0052000F09EFF002805D031
S31508004610DFF8F80A01F0DCFF040009E0062000F0E4
S3150800462093FF002804D0DFF8E40A01F002F9040039
S31508004630DFF8A80A8078401CDFF8A01A8870DFF82F
S315080046409C0A80780A2815DBDFF8880A80880528FE
S3150800465008DADFF8800A8088401CDFF8781A888034
S31508004660FFF7B6FE0020DFF8741A88700020DFF81E
S315080046706C1A0870E4B2002C03D02000C0B200F017
S3150800468026BD05F0D6F8DFF8481DDFF8480D08F016
S31508004690CFFC00282ED0012004F02AFCDFF8341DB8
S315080046A0DFF82C0DFEF738FDDFF8381ADFF8600A58
S315080046B0FEF732FD05F072F900280AD0DFF8500A35
S315080046C0009022232222DFF84C1A01A8FFF706FDE4
S315080046D006E0DFF83C2ADFF8401A01A8FFF7FEFCDF
S315080046E001A90020FEF7F0FD01A8FEF7EBFC01A9E1
S315080046F0FFF706FADFF8241ADFF8240A08F098FC10
S3150800470000282ED0012004F0F3FBDFF8141ADFF896
S315080047100C0AFEF701FDDFF8D019DFF8080AFEF7E4
S31508004720FBFC05F03BF900280AD0DFF8F8090090F1
S3150800473022232222DFF8F01901A8FFF7CFFC06E0B2
S31508004740DFF8E029DFF8E41901A8FFF7C7FC01A99B
S315080047500020FEF7B9FD01A8FEF7B4FC01A9FFF792
S31508004760CFF9DFF8CC19DFF8CC0908F061FC00288E
S315080047702ED0012004F0BCFBDFF8B819DFF8B00929
S31508004780FEF7CAFCDFF86419DFF8AC09FEF7C4FCCB
S3150800479005F004F900280AD0DFF89C0900902223C6
S315080047A02222DFF8981901A8FFF798FC06E0DFF83F
S315080047B08829DFF88C1901A8FFF790FC01A90020C9
S315080047C0FEF782FD01A8FEF77DFC01A9FFF798F91F
S315080047D0DFF87019DFF8700908F02AFC00282ED0D7
S315080047E0012004F085FBDFF86019DFF85809FEF7A9
S315080047F093FCDFF8FC18DFF85409FEF78DFC05F08A
S31508004800CDF800280AD0DFF8440900902223222296
S31508004810DFF83C1901A8FFF761FC06E0DFF82C2950
S31508004820DFF8301901A8FFF759FC01A90020FEF7A7
S315080048304BFD01A8FEF746FC01A9FFF761F9DFF871
S315080048401819DFF8180908F0F3FB00285CD00120D6
S3150800485004F04EFBDFF80419DFF8FC08FEF75CFCF1
S31508004860DFF89018DFF8F808FEF756FCDFF8F418BA
S31508004870DFF8F408FEF750FCDFF8B40CB0F858007F
S31508004880DFF85818A1F8580005F088F800280AD06B
S31508004890DFF8CC08009022232222DFF8D01801A8DE
S315080048A0FFF71CFC06E0DFF8B828DFF8C41801A8F3
S315080048B0FFF714FC01A90020FEF706FD01A8FEF784
S315080048C001FC01A9FFF71CF905F068F800280AD0D1
S315080048D0DFF89408009022232222DFF8981801A80E
S315080048E0FFF7FCFB06E0DFF88028DFF88C1801A844
S315080048F0FFF7F4FB01A90020FEF7E6FC01A8FEF786
S31508004900E1FB01A9FFF7FCF8DFF8CC1ADFF8CC0ABF
S3150800491008F08EFB002800F09B80012004F0E8FADE
S31508004920DFF8B81ADFF8B00AFEF7F6FBDFF8C817A3
S31508004930DFF8AC0AFEF7F0FBDFF8A81ADFF8A80ADA
S31508004940FEF7EAFBDFF8A41ADFF8300BFEF7E4FB04
S3150800495005F024F800280AD0DFF87C0A0090222304
S315080049602222DFF88C1A01A8FFF7B8FB06E0DFF869
S31508004970682ADFF80C1B01A8FFF7B0FB01A9002085
S31508004980FEF7A2FC01A8FEF79DFB01A9FFF7B8F800
S3150800499005F004F800280AD0DFF8440A009022231C
S315080049A02222DFF8E01A01A8FFF798FB06E0DFF8F5
S315080049B0302ADFF8081B01A8FFF790FB01A90020A1
S315080049C0FEF782FC01A8FEF77DFB01A9FFF798F820
S315080049D004F0E4FF00280AD0DFF80C0A009022232E
S315080049E02222DFF8DC1A01A8FFF778FB06E0DFF8D9
S315080049F0F829DFF8D01A01A8FFF770FB01A90020F3
S31508004A00FEF762FC01A8FEF75DFB01A9FFF778F83F
S31508004A1004F0C4FF00280AD0DFF8600A00902223B9
S31508004A202222DFF8A41A01A8FFF758FB06E0DFF8F0
S31508004A304C2ADFF8001B01A8FFF750FB01A900204C
S31508004A40FEF742FC01A8FEF73DFB01A9FFF758F85F
S31508004A50DFF8E41ADFF8E40A08F0EAFA002836D0A4
S31508004A60012004F045FADFF8D41ADFF8CC0AFEF77D
S31508004A7053FBDFF88816DFF8C80AFEF74DFBDFF8A8
S31508004A80B00AD0F89C00DFF85416C1F89C0004F070
S31508004A9085FF00280AD0DFF8A80A009022232222E0
S31508004AA0DFF8A01A01A8FFF719FB06E0DFF8902A3D
S31508004AB0DFF8FC1A01A8FFF711FB01A90020FEF791
S31508004AC003FC01A8FEF7FEFA01A9FFF719F8DFF8BB
S31508004AD0E41ADFF8E40A08F0ABFA002836D0012019
S31508004AE004F006FADFF8D01ADFF8C80AFEF714FB56
S31508004AF0DFF81016DFF8C40AFEF70EFBDFF8300AF7
S31508004B00B0F8C800DFF8D415A1F8C80004F046FFCD
S31508004B1000280AD0DFF8A40A009022232222DFF810
S31508004B20A01A01A8FFF7DAFA06E0DFF8902ADFF8FC
S31508004B30941A01A8FFF7D2FA01A90020FEF7C4FBD0
S31508004B4001A8FEF7BFFA01A9FEF7DAFFDFF8141B82
S31508004B50DFF8140B08F06CFA00285CD0012004F08A
S31508004B60C7F9DFF8041BDFF8FC0AFEF7D5FADFF809
S31508004B709815DFF8080BFEF7CFFADFF8041BDFF805
S31508004B80040BFEF7C9FADFF8A809B0F8E000DFF869
S31508004B904C15A1F8E00004F001FF00280AD0DFF860
S31508004BA0DC0A009022232222DFF8DC1A01A8FFF78C
S31508004BB095FA06E0DFF8C42ADFF8D01A01A8FFF74D
S31508004BC08DFA01A90020FEF77FFB01A8FEF77AFA05
S31508004BD001A9FEF795FF04F0E1FE00280AD0DFF8E8
S31508004BE0A40A009022232222DFF8A41A01A8FFF7BC
S31508004BF075FA06E0DFF88C2ADFF8981A01A8FFF79D
S31508004C006DFA01A90020FEF75FFB01A8FEF75AFA24
S31508004C1001A9FEF775FFDFF8801ADFF8800A08F0A9
S31508004C2007FA00282ED0012004F062F9DFF86C1A82
S31508004C30DFF8640AFEF770FADFF8D014DFF8600AC6
S31508004C40FEF76AFA04F0AAFE00280AD0DFF8500A2E
S31508004C50009022232222DFF84C1A01A8FFF73EFA19
S31508004C6006E0DFF83C2ADFF8401A01A8FFF736FA13
S31508004C7001A90020FEF728FB01A8FEF723FA01A9DF
S31508004C80FEF73EFFDFF8241ADFF8240A08F0D0F909
S31508004C90002836D0012004F02BF9DFF8141ADFF8C3
S31508004CA00C0AFEF739FADFF80C1ADFF80C0AFEF7D9
S31508004CB033FADFF87C08B0F89C01DFF82014A1F875
S31508004CC09C0104F06BFE00280AD0DFF8EC0900907E
S31508004CD022232222DFF8E41901A8FFF7FFF906E0EC
S31508004CE0DFF8D429DFF8D81901A8FFF7F7F901A9E1
S31508004CF00020FEF7E9FA01A8FEF7E4F901A9FEF794
S31508004D00FFFEDFF8C019DFF8C00908F091F900289E
S31508004D1035D0012004F0ECF8DFF8AC19DFF8A40967
S31508004D20FEF7FAF9DFF8A419DFF8A409FEF7F4F993
S31508004D30DFF8FC07B0F8B401E849A1F8B40104F0BB
S31508004D402DFE00280AD0DFF88809009022232222A7
S31508004D50DFF8801901A8FFF7C1F906E0DFF8702926
S31508004D60DFF8741901A8FFF7B9F901A90020FEF7C1
S31508004D70ABFA01A8FEF7A6F901A9FEF7C1FEDFF80E
S31508004D805C19DFF85C0908F053F9002835D00120D2
S31508004D9004F0AEF8DFF84819DFF84009FEF7BCF969
S31508004DA0DFF84019DFF84009FEF7B6F9DFF88007A3
S31508004DB0B0F8CC01C949A1F8CC0104F0EFFD0028F0
S31508004DC00AD0DFF82409009022232222DFF81C19D2
S31508004DD001A8FFF783F906E0DFF80C29DFF81019B8
S31508004DE001A8FFF77BF901A90020FEF76DFA01A8D3
S31508004DF0FEF768F901A9FEF783FEDFF8F818DFF871
S31508004E00F80808F015F9002835D0012004F070F8E4
S31508004E10DFF8E818DFF8E808FEF77EF9DFF8D818B3
S31508004E20DFF8D008FEF778F9DFF80407B0F8E401F0
S31508004E30AA49A1F8E40104F0B1FD00280AD0DFF878
S31508004E40B408009022232222DFF8B81801A8FFF739
S31508004E5045F906E0DFF89C28DFF8AC1801A8FFF74B
S31508004E603DF901A90020FEF72FFA01A8FEF72AF955
S31508004E7001A9FEF745FEDFF89418DFF8940808F054
S31508004E80D7F8002835D0012004F032F8DFF880186A
S31508004E90DFF87808FEF740F9DFF87818DFF87808C1
S31508004EA0FEF73AF9DFF88806B0F8FC018B49A1F855
S31508004EB0FC0104F073FD00280AD0DFF85C080090B6
S31508004EC022232222DFF8541801A8FFF707F906E083
S31508004ED0DFF84428DFF8481801A8FFF7FFF801A90A
S31508004EE00020FEF7F1F901A8FEF7ECF801A9FEF794
S31508004EF007FEDFF83018DFF8300808F099F80028C0
S31508004F0035D0012003F0F4FFDFF81C18DFF8140889
S31508004F10FEF702F9DFF81418DFF81408FEF7FCF8B4
S31508004F20DFF80C06B0F814026C49A1F8140204F074
S31508004F3035FD00280AD0DFF8F80700902223222240
S31508004F40DFF8F01701A8FFF7C9F806E0DFF8E02751
S31508004F50DFF8E41701A8FFF7C1F801A90020FEF75A
S31508004F60B3F901A8FEF7AEF801A9FEF7C9FDDFF807
S31508004F70CC17DFF8CC0708F05BF8002835D00120FD
S31508004F8003F0B6FFDFF8B817DFF8B007FEF7C4F886
S31508004F90DFF8B017DFF8B007FEF7BEF8DFF89005C0
S31508004FA0B0F82C024D49A1F82C0204F0F7FC0028B1
S31508004FB00AD0DFF89407009022232222DFF88C1704
S31508004FC001A8FFF78BF806E0DFF87C27DFF88017E3
S31508004FD001A8FFF783F801A90020FEF775F901A8D3
S31508004FE0FEF770F801A9FEF78BFD3B49DFF8640769
S31508004FF008F01EF8002834D0012003F079FFDFF806
S3150800500054173548FEF788F8DFF84C17DFF84C07D1
S31508005010FEF782F8DFF81805B0F844022F49A1F820
S31508005020440204F0BBFC00280AD0DFF830070090E1
S3150800503022232222DFF8281701A8FFF74FF806E0F7
S31508005040DFF81827DFF81C1701A8FFF747F801A9AA
S315080050500020FEF739F901A8FEF734F801A9FEF792
S315080050604FFD1E484078002813D000201B49487081
S31508005070DFF8F426DFF8F41601A8FFF72FF801A9E0
S315080050800020FEF721F901A8FEF71CF801A9FEF792
S3150800509037FD12488078002817D1DFF8D41601A802
S315080050A0FFF71CF801A90020FEF70EF901A8FEF784
S315080050B009F801A9FEF724FDDFF8B81601A8FFF7DD
S315080050C00DF801A90020FEF7FFF82000C0B20CB0C9
S315080050D010BD000008360020942B00205829002017
S315080050E0E47F01081327002022270020322700200A
S315080050F042270020522700206A27002094270020F4
S31508005100B0270020C8270020DA2700207E280020A4
S315080051105B290020C86C0108607901087329002002
S315080051202B2700206A290020E86C010874790108F9
S31508005130832900203B2700207A290020086D0108D2
S3150800514088790108922900204A2700208A29002008
S31508005150286D01089C790108A829002060270020ED
S315080051609A29002059270020A1290020486D010806
S31508005170B0790108686D0108C479010800B595B0D1
S31508005180FEF7E9FB002800F00781FEF7E9FB002897
S3150800519000F00281FEF7E9FB002800F0FD80FEF72B
S315080051A035FC002800F0F880DFF8CC1501A8FEF7DA
S315080051B095FF01A90020FEF787F801A8FDF782FFF1
S315080051C001A9FEF79DFC022003F092FEFEF7A3FE5E
S315080051D0DFF8A805FEF7F1FEDFF8A405FEF709FFDC
S315080051E0DFF8A005FEF723FFDFF89C05FEF73DFF75
S315080051F0012003F07DFE04F0D1FB00280AD0DFF879
S315080052007C05009022232222DFF8801501A8FEF7EC
S3150800521065FF06E0DFF86425DFF8741501A8FEF7D8
S315080052205DFF01A90020FEF74FF801A8FDF74AFF28
S3150800523001A9FEF765FC012003F05AFE04F0AEFB57
S3150800524000280AD0DFF83805009022232222DFF84A
S31508005250441501A8FEF742FF06E0DFF82425DFF82B
S31508005260381501A8FEF73AFF01A90020FEF72CF829
S3150800527001A8FDF727FF01A9FEF742FC012003F06C
S3150800528037FE04F08BFB00280AD0DFF8F8040090FC
S3150800529022232222DFF8041501A8FEF71FFF06E0E5
S315080052A0DFF8E024DFF8F81401A8FEF717FF01A9D4
S315080052B00020FEF709F801A8FDF704FF01A9FEF78B
S315080052C01FFC012003F014FE04F068FB00280AD036
S315080052D0DFF8B404009022232222DFF8C81401A8BC
S315080052E0FEF7FCFE06E0DFF8A024DFF8BC1401A8F0
S315080052F0FEF7F4FE01A90020FDF7E6FF01A8FDF779
S31508005300E1FE01A9FEF7FCFB07F0C5FE0200DFF887
S315080053109C1401A8FEF7E2FE01A90020FDF7D4FFC0
S3150800532001A8FDF7CFFE01A9FEF7EAFB0020FEF76C
S3150800533084FBFEF78DFB012808D10220FEF78DFBC2
S31508005340DFF86C140020FDF7BFFF0BE0FEF780FBCB
S31508005350022807D10420FEF780FBDFF85814002046
S31508005360FDF7B2FF04F065FADFF8041401A8FEF7AA
S31508005370B5FE01A90020FDF7A7FF01A8FDF7A2FECB
S3150800538001A9FEF7BDFBDFF8EC1301A8FEF7A6FEA0
S3150800539001A90020FDF798FF16484088052801DA7C
S315080053A0FFF716F813484088411C124A518080B20C
S315080053B00E2807DB00200F49888000200D49488009
S315080053C0FFF706F8022003F0A1FD15B000BD0000A6
S315080053D0632900201B270020CA29002082270020D5
S315080053E0B229002072270020BA2900207A27002037
S315080053F0886D01080836002030B587B00400FEF72E
S31508005400AAFA002813D014222100684607F056FE8F
S315080054102000FDF757FE152803D314F114000500E4
S3150800542000E0250014222900684607F047FE07B069
S3150800543030BD80B5FEF794FA002816D00020DFF8B4
S315080054407813088000F007F9002807D0DFF86C0306
S315080054500088401CDFF8641308800DE00020DFF8A0
S315080054605C13088000F0FAF806E0DFF84C030088C1
S31508005470401CDFF84413088001BD0000C229002043
S31508005480D8790108A86D01080020CD4908700020C8
S31508005490CB4948700020CA4908710020C849C8701D
S315080054A00020C74988700020C54948710020C449B2
S315080054B088710020C249C87170470000EC7901085C
S315080054C0C86D0108007A0108E86D0108C0B2002815
S315080054D00ED0022812D00ED3042815D011D30628D0
S315080054E018D014D308281BD017D309281BD01DE0C1
