S02E0000526F616420426F61726420526576204D2E3520424153454C494E4520446563203920323031362E737265637A
S3150800000050410020B5B701081DBC010847D60008B5
S315080000105BD6000821BC01086FD600080000000066
S31508000020000000000000000000000000877D0108B5
S3150800003025BC010800000000357D0108C97E0108BD
S31508000040DDBC000829BC01082DBC010831BC01082B
S3150800005035BC010839BC01083DBC010841BC010892
S3150800006045BC010849BC01084DBC0108D17E010800
S3150800007051BC010855BC010859BC01085DBC010802
S3150800008061BC010865BC010869BC01086DBC0108B2
S31508000090DB7E010871BC010875BC010879BC010842
S315080000A07DBC010881BC010885BC010889BC010822
S315080000B0177F0108217F0108E57E0108037F0108F3
S315080000C00D7F01088DBC010891BC010895BC01088B
S315080000D099BC01089DBC0108F97E0108EF7E01085C
S315080000E0A1BC0108A5BC0108A9BC01084563000814
S315080000F0ADBC010800000000B1BC0108B5BC010890
S31508000100B9BC0108BDBC0108C1BC0108C5BC0108D1
S31508000110C9BC0108CDBC0108D1BC0108000000001B
S31508000120D5BC010801201D4981F828000020704728
S3150800013010B50400194890F82800022801D10220B9
S3150800014016E0164890F82800002801D101200FE093
S31508000150200004F099FD282801D3012008E0210099
S315080001600E4804F0BBFD02200C4981F82800002047
S3150800017010BD10B5094890F8280002280BD10121B6
S31508000180064800F00DF804000120044981F828000B
S315080001902000C0B200E0002010BD00006C65002001
S315080001A02DE9F04FADF5806D97B004000D002000E5
S315080001B004F06AFD8046DFF8FC0D007800281ED0A2
S315080001C020781B2815D10020DFF8E81D0870DFF815
S315080001D0E81D0AA804F082FD0AA9002004F056FECC
S315080001E00600F6B2002E04F049843000C0B204F0CE
S315080001F047BC2100012005F085FA04F03FBC2078B1
S3150800020030282FD0312848D0322879D0332800F02A
S31508000210AA80342800F0DA80352800F00A813628CA
S3150800022000F07E81412800F09481422800F0F18296
S31508000230432800F0B685442800F0B887452801F021
S315080002403381462801F04581472801F05D81482819
S3150800025001F0DA81502801F0BB84542801F0E884C3
S3150800026004F083BB05F0B5FD0600F6B2002E12D1E8
S31508000270EDB2002D0AD0DFF8241E0AA804F02EFDE0
S315080002800AA804F001FD0AA905F03CFADFF8101ED9
S315080002900AA804F023FD04F079BB90A805F0EBFD4D
S315080002A00600DFF8041E0AA804F018FD0AA90020B3
S315080002B004F0ECFD0600F6B2002E03D03000C0B202
S315080002C004F0DEBBEDB2002D0BD090AADFF8DC1DE2
S315080002D00AA805F061FE0AA804F0D6FC0AA905F0EA
S315080002E011FADFF8CC1D0AA805F056FE90A90AA84F
S315080002F005F06CFEDBA10AA805F068FE04F046BB13
S3150800030090A805F0D4FD0600DFF8A81D0AA804F099
S31508000310E5FC0AA9002004F0B9FD0600F6B2002E95
S3150800032003D03000C0B204F0ABBBEDB2002D0BD049
S3150800033090AADFF8841D0AA805F02EFE0AA804F084
S31508000340A3FC0AA905F0DEF9DFF8141E0AA805F0D1
S3150800035023FE90A90AA805F039FEC2A10AA805F04D
S3150800036035FE04F013BB90A805F0BFFD0600DFF8C4
S31508000370F41D0AA804F0B2FC0AA9002004F086FDC0
S315080003800600F6B2002E03D03000C0B204F078BBE7
S31508000390EDB2002D0BD090AADFF8F81D0AA805F0DB
S315080003A0FBFD0AA804F070FC0AA905F0ABF9DFF812
S315080003B0E81D0AA805F0F0FD90A90AA805F006FEB2
S315080003C0A8A10AA805F002FE04F0E0BA90A805F074
S315080003D0AAFD0600DFF8C41D0AA804F07FFC0AA9D6
S315080003E0002004F053FD0600F6B2002E03D03000BC
S315080003F0C0B204F045BBEDB2002D0BD090AADFF8D1
S31508000400A01D0AA805F0C8FD0AA804F03DFC0AA923
S3150800041005F078F9DFF88C1D0AA805F0BDFD90A94E
S315080004200AA805F0D3FD8FA10AA805F0CFFD04F0B0
S31508000430ADBA05F09BFC4790DFF86C1D0AA804F0DE
S315080004404DFC90A805F017FD06000AA9002004F047
S315080004501DFD0600F6B2002E03D03000C0B204F02F
S315080004600FBBEDB2002D0AD0DFF81C1E0AA804F057
S3150800047035FC0AA804F008FC0AA905F043F900208F
S315080004803A90DBA10AA805F087FD00200700802F17
S3150800049031DA4798C257DFF8F41D2AA805F07CFD23
S315080004A02AA90AA805F092FD3A98401C3A903A986B
S315080004B010281EDB6BA10AA805F088FD00203A90DB
S315080004C00AA9002004F0E2FC0600F6B2002E03D0CA
S315080004D03000C0B204F0D4BAEDB2002D05D00AA897
S315080004E004F0D2FB0AA905F00DF9C1A10AA805F086
S315080004F053FD7F1CCBE7EDB2002D0AD0DFF8D41DE3
S315080005000AA804F0EBFB0AA804F0BEFB0AA905F04A
S31508000510F9F8DFF8C41D0AA805F03EFD04F036BA5E
S315080005200020060005F01DFDEDB2002D0AD0DFF80B
S31508000530AC1D0AA804F0D2FB0AA804F0A5FB0AA978
S3150800054005F0E0F8DFF8101E0AA804F0C7FB04F06F
S315080005501DBA5FFA88F8B8F1010F00F05881607883
S31508000560362839D0382800F0BB80392800F0258194
S31508000570492840F0478105F037FD0600EDB2002D09
S315080005800AD0DFF8D81D0AA804F0A8FB0AA804F0C8
S315080005907BFB0AA905F0B6F8F6B2002E05D1DFF8FE
S315080005A0C01D0AA804F09AFB15E0DFF8B81D0AA8D2
S315080005B004F094FB8DF8B4600AA9002004F066FCE8
S315080005C00600F6B2002E03D03000C0B204F058BAC6
S315080005D09DF8B40006001AE1ADA805F078FD0600FE
S315080005E0F6B2002E04D10DF5856005F027FD06004C
S315080005F0F6B2002E5DD1DFF8081E0AA804F06EFBDD
S315080006000AA9002004F042FC0600F6B2002E03D028
S315080006103000C0B204F034BADFF8E81D0AA805F0C5
S31508000620BBFC0AA9002004F031FC0600F6B2002E35
S3150800063003D03000C0B204F023BA0DF58563ADAA25
S31508000640DFF8C41D0AA805F0A7FC0AA9002004F0D3
S315080006501DFC0600F6B2002E06D03000C0B204F02B
S315080006600FBA00BF0D0A0000EDB2002D0DD00DF532
S315080006708563ADAADFF8981D0AA805F08DFC0AA8BF
S3150800068004F002FB0AA905F03DF8DFF8881D0AA860
S3150800069005F082FCB0A90AA805F098FCB39ADFF821
S315080006A0781D2AA805F078FC2AA90AA805F08EFC68
S315080006B015E0DFF8681D0AA804F010FB8DF8B46091
S315080006C00AA9002004F0E2FB0600F6B2002E03D0C9
S315080006D03000C0B204F0D4B99DF8B400060096E024
S315080006E03CA805F038FD0600F6B2002E27D1DFF843
S315080006F00C1E0AA804F0F2FA0AA9002004F0C6FBA8
S315080007000600F6B2002E03D03000C0B204F0B8B925
S31508000710DFF8EC1D0AA805F03FFC0DF1FE010AA85A
S3150800072005F054FCDBA10AA805F050FC0AA9002034
S3150800073004F0ACFB0600F6B2002E01D104E066E038
S315080007403000C0B204F09CB9BDF80621DFF8B41D2C
S315080007500AA805F021FC0AA9002004F097FB060068
S31508000760F6B2002E03D03000C0B204F089B9EDB25B
S31508000770002D0AD0DFF8E41B0AA804F0AFFA0AA88D
S3150800078004F082FA0AA904F0BDFFDFF81C1E0AA8C5
S3150800079005F002FC3CA90AA805F018FCDFF80C1EB7
S315080007A00AA805F013FC0DF1F7010AA805F00EFCDE
S315080007B0B8A10AA805F00AFC29E005F02BFD0600F9
S315080007C0EDB2002D0AD0DFF8941B0AA804F086FAC9
S315080007D00AA804F059FA0AA904F094FFF6B2002E02
S315080007E008D1DFF8181E0AA804F078FA09E000BF55
S315080007F000000000DFF8081E0AA804F06FFA0020BF
S31508000800060004E0DFF8FC1D0AA804F067FA04F005
S31508000810BDB85FFA88F8B8F1010F40F0508105209D
S3150800082007F020F800280BD05AA808F027FC060085
S31508000830F6B2002E17D1D4A808F09AF8060012E0EE
S31508000840062007F00FF800280BD05AA807F02CFD51
S315080008500600F6B2002E06D1D4A807F0BAF90600AB
S3150800086001E001200600EDB2002D0AD0DFF8281EAF
S315080008700AA804F033FA0AA804F006FA0AA904F04A
S3150800088041FFF6B2002E40F00781DFF8101E0AA8D5
S3150800089004F024FA0AA9002004F0F8FA0600F6B2D1
S315080008A0002E03D03000C0B204F0EAB800200700DA
S315080008B0092F80F2DD80002F0FD0022F35D020D3EC
S315080008C0042F5AD045D3062F00F07F8069D3082F0E
S315080008D000F0A380C0F08D80B3E0BDF87E010390E0
S315080008E0D5A8C01C02905BA8C01C0190D4A8009093
S315080008F05AAB0DF5BB72DFF80C1E0AA805F04CFBC7
S315080009009FE0BDF896010390DBA8C01C029061A881
S31508000910C01C0190DAA8009060AB0DF5C772DFF82D
S31508000920E81D0AA805F038FB8BE0BDF8AE01039078
S31508000930E1A8C01C029067A8C01C0190E0A800901E
S3150800094066AB0DF5D372DFF8C01D0AA805F024FBC7
S3150800095077E0BDF8C6010390E7A8C01C02906DA811
S31508000960C01C0190E6A800906CAB0DF5DF72DFF8AD
S31508000970981D0AA805F010FB63E0BDF8DE01039098
S31508000980EDA8C01C029073A8C01C0190ECA80090AA
S3150800099072AB0DF5EB72DFF8701D0AA805F0FCFACC
S315080009A04FE0BDF8F6010390F3A8C01C029079A8A1
S315080009B0C01C0190F2A8009078AB0DF5F772DFF82D
S315080009C0481D0AA805F0E8FA3BE0BDF80E020390B8
S315080009D0F9A8C01C02907FA8C01C0190F8A8009036
S315080009E07EAB81AA921CDFF8201D0AA805F0D4FA6E
S315080009F027E0BDF826020390FFA8C01C029085A830
S31508000A00C01C0190FEA8009084AB87AA921CDFF850
S31508000A10F81C0AA805F0C0FA13E0BDF83E020390D8
S31508000A20FFA81B3002908BA8C01C01900DF58260B0
S31508000A3000908AAB8DAA921CDFF8CC1C0AA805F098
S31508000A40ABFAEDB2002D05D00AA804F01DF90AA9E3
S31508000A5004F058FE0AA9002004F018FA0600F6B2B7
S31508000A60002E03D03000C0B204F00AB87F1C1FE77E
S31508000A70DFF8041E0AA805F08FFA44A90AA805F0AB
S31508000A80A5FA04A10AA805F0A1FAEDB2002D05D130
S31508000A900FE000BF0D0A000003F078BFDFF8341836
S31508000AA00AA804F01BF90AA804F0EEF80AA904F04B
S31508000AB029FEDFF8101E0AA805F06EFA6FE16078C5
S31508000AC030281FD0312800F05181492840F067812D
S31508000AD007F098FE0600EDB2002D0AD0DFF87C1864
S31508000AE00AA804F0FBF80AA804F0CEF80AA904F04C
S31508000AF009FEF6B2002E04D1DFF8101E0AA804F08B
S31508000B00EDF84CE1052006F0ADFE00280BD05AA8FA
S31508000B1008F0B4FA0600F6B2002E17D1D4A807F0EA
S31508000B2027FF060012E0062006F09CFE00280BD0E0
S31508000B305AA807F0B9FB0600F6B2002E06D1D4A8CB
S31508000B4007F047F8060001E001200600EDB2002D87
S31508000B500AD0DFF808180AA804F0C0F80AA804F0B2
S31508000B6093F80AA904F0CEFDF6B2002E40F0FD80F7
S31508000B70DFF8281B0AA804F0B1F80AA9002004F037
S31508000B8085F90600F6B2002E03D03000C0B203F095
S31508000B9077BF00200700092F80F2D480002F0FD0DE
S31508000BA0022F35D020D3042F5AD045D3062F00F074
S31508000BB07F8069D3082F00F0A380C0F08D80B3E052
S31508000BC0BDF87E010390D5A8C01C02905BA8C01C86
S31508000BD00190D4A800905AAB0DF5BB72DFF8241B20
S31508000BE00AA805F0D9F99FE0BDF896010390DBA89D
S31508000BF0C01C029061A8C01C0190DAA8009060ABE6
S31508000C000DF5C772DFF8001B0AA805F0C5F98BE0D9
S31508000C10BDF8AE010390E1A8C01C029067A8C01CED
S31508000C200190E0A8009066AB0DF5D372DFF8D81AEC
S31508000C300AA805F0B1F977E0BDF8C6010390E7A860
S31508000C40C01C02906DA8C01C0190E6A800906CAB71
S31508000C500DF5DF72DFF8B01A0AA805F09DF963E012
S31508000C60BDF8DE010390EDA8C01C029073A8C01C55
S31508000C700190ECA8009072AB0DF5EB72DFF8881ABC
S31508000C800AA805F089F94FE0BDF8F6010390F3A824
S31508000C90C01C029079A8C01C0190F2A8009078ABFD
S31508000CA00DF5F772DFF8601A0AA805F075F93BE04A
S31508000CB0BDF80E020390F9A8C01C02907FA8C01CBC
S31508000CC00190F8A800907EAB81AA921CDFF8381A2A
S31508000CD00AA805F061F927E0BDF826020390FFA8E7
S31508000CE0C01C029085A8C01C0190FEA8009084AB89
S31508000CF087AA921CDFF8101A0AA805F04DF913E026
S31508000D00BDF83E020390FFA81B3002908BA8C01CBA
S31508000D1001900DF5826000908AAB8DAA921CDFF8CF
S31508000D20E8190AA805F038F90AA9002004F0AEF86F
S31508000D300600F6B2002E03D03000C0B203F0A0BE03
S31508000D407F1C28E7DFF8301B0AA805F025F944A917
S31508000D500AA805F03BF9D3A10AA805F037F9DFF888
S31508000D60641B0AA805F018F919E018E007F0B5FDA4
S31508000D700600EDB2002D0AD0DFF8E0150AA803F048
S31508000D80ADFF0AA803F080FF0AA904F0BBFCF6B27F
S31508000D90002E04D1DFF8BC1D0AA803F09FFF03F05C
S31508000DA0F5BD5FFA88F8B8F1010F52D142A808F0EC
S31508000DB0DAFF0600F6B2002E03D14DA808F05AFF56
S31508000DC00600F6B2002E26D1DFF8EC1D0AA803F0BD
S31508000DD085FF0AA9002004F059F80600F6B2002E8D
S31508000DE003D03000C0B203F04BBEDFF8D01D0AA80E
S31508000DF005F0D2F844A90AA805F0E8F8A9A10AA8B6
S31508000E0005F0E4F80AA9002004F040F80600F6B256
S31508000E10002E02D105E003F0B9BD3000C0B203F0E0
S31508000E202FBEEDB2002D0CD04DAB42AADFF8F81D4F
S31508000E300AA805F0B1F80AA803F026FF0AA904F0E3
S31508000E4061FC4DAB42AADFF8E41D0AA805F0A4F838
S31508000E509DE16078302824D0312874D0322800F0FB
S31508000E60CA80332800F02A81492840F07D8108F09D
S31508000E70D1FB0600EDB2002D0AD0DFF8E0140AA86F
S31508000E8003F02CFF0AA803F0FFFE0AA904F03AFCB7
S31508000E90F6B2002E04D1DFF8CC1D0AA803F01EFF17
S31508000EA075E142A808F08DFC0600F6B2002E03D1C3
S31508000EB04DA808F00AFC0600F6B2002E26D1DFF887
S31508000EC0DC170AA803F00AFF0AA9002003F0DEFFD0
S31508000ED00600F6B2002E03D03000C0B203F0D0BD33
S31508000EE0DFF894190AA805F057F844A90AA805F0E6
S31508000EF06DF86CA10AA805F069F80AA9002003F0A4
S31508000F00C5FF0600F6B2002E01D104E03FE130002D
S31508000F10C0B203F0B5BDEDB2002D0CD04DAB42AA60
S31508000F20DFF8FC1D0AA805F037F80AA803F0ACFE9E
S31508000F300AA904F0E7FB4DAB42AADFF8E81D0AA8A8
S31508000F4005F02AF823E1D0A808F02EFD0600F6B22F
S31508000F50002E03D1CCA808F0ABFC0600F6B2002E92
S31508000F602CD1DFF8C41D0AA803F0B8FE0AA9002090
S31508000F7003F08CFF0600F6B2002E03D03000C0B294
S31508000F8003F07EBDDFF8A41D0AA805F005F8D2A96E
S31508000F90491C0AA805F01AF842A10AA805F016F88D
S31508000FA00AA9002003F072FF0600F6B2002E06D149
S31508000FB009E000BF10670020A8840108E7E03000B8
S31508000FC0C0B203F05DBDEDB2002D0CD0CCABD0AAFB
S31508000FD0DFF8F81D0AA804F0DFFF0AA803F054FE9C
S31508000FE00AA904F08FFBCCABD0AADFF8E41D0AA847
S31508000FF004F0D2FFCBE0C8A808F0C7FD0600F6B299
S31508001000002E03D1C4A808F046FD0600F6B2002E4D
S3150800101027D1DFF8C01D0AA803F060FE0AA9002040
S3150800102003F034FF0600F6B2002E03D03000C0B23B
S3150800103003F026BDDFF8A01D0AA804F0ADFFCAA973
S31508001040491C0AA804F0C2FF16A10AA804F0BEFFAC
S315080010500AA9002003F01AFF0600F6B2002E01D1F5
S3150800106004E094E03000C0B203F00ABDEDB2002DF2
S315080010700CD0C4ABC8AADFF8641D0AA804F08CFF1C
S315080010800AA803F001FE0AA904F03CFBC4ABC8AAEF
S31508001090DFF84C1D0AA804F07FFF78E06494010885
S315080010A06C8001080D0A00001C8C0108B4A1010817
S315080010B0D4A10108448C0108F4A1010842A808F04B
S315080010C052FE0600F6B2002E03D14DA808F0D2FD56
S315080010D00600F6B2002E26D1DFF8DC1A0AA803F0BD
S315080010E0FDFD0AA9002003F0D1FE0600F6B2002E87
S315080010F003D03000C0B203F0C3BCDFF8C01A0AA898
S3150800110004F04AFF44A90AA804F060FFBFA10AA890
S3150800111004F05CFF0AA9002003F0B8FE0600F6B248
S31508001120002E01D104E032E03000C0B203F0A8BCC2
S31508001130EDB2002D0CD04DAB42AADFF8EC1A0AA886
S3150800114004F02AFF0AA803F09FFD0AA904F0DAFAB8
S315080011504DAB42AADFF8D41A0AA804F01DFF16E020
S3150800116014A201086C8C0108EDB2002D0AD0DFF834
S315080011700C1E0AA803F0B2FD0AA803F085FD0AA909
S3150800118004F0C0FADFF87C140AA803F0A7FD03F000
S31508001190FDBB00BF34A2010854A20108948C0108C3
S315080011A074A2010894A20108BC8C01085FFA88F8A9
S315080011B0B8F1010F6CD148A809F03CF80600F6B260
S315080011C0002E04D1FFA8483008F0B1FE0600F6B29A
S315080011D0002E26D1DFF8A81D0AA803F07FFD0AA96C
S315080011E0002003F053FE0600F6B2002E03D03000AE
S315080011F0C0B203F045BCDFF8F81D0AA804F0CCFE1F
S315080012004AA90AA804F0E2FE80A10AA804F0DEFEB4
S315080012100AA9002003F03AFE0600F6B2002E02D113
S3150800122005E003F0B3BB3000C0B203F029BCBDF83B
S315080012303021DFF8C01D0AA804F0AEFE0AA9002076
S3150800124003F024FE0600F6B2002E03D03000C0B22A
S3150800125003F016BCEDB2002D0DD0FFAB483348AAFB
S31508001260DFF8941D0AA804F097FE0AA803F00CFDFF
S315080012700AA904F047FAFFAB483348AADFF87C1DF1
S315080012800AA804F089FE0DE1ECA8010808BB0108CC
S315080012906078302824D0312800F08C80492840F026
S315080012A0018108F0F1FD0600EDB2002D09D02B49A9
S315080012B00AA803F013FD0AA803F0E6FC0AA904F03D
S315080012C021FAF6B2002E04D1DFF8341D0AA803F07D
S315080012D005FDE7E0FCB80108BCB5010808A9010846
S315080012E048A808F0A7FF0600EDB2002D09D01B4953
S315080012F00AA803F0F3FC0AA803F0C6FC0AA904F03E
S3150800130001FAF6B2002E2FD1DFF8741C0AA803F0F2
S31508001310E5FC0AA9002003F0B9FD0600F6B2002E86
S3150800132003D03000C0B203F0ABBBDFF8C41C0AA878
S3150800133004F032FE4AA90AA804F048FE33A10AA816
S3150800134004F044FE0AA9002003F0A0FD0600F6B248
S31508001350002E0AD10DE000BF88940108B4A2010846
S31508001360E48C01080C8D01089CE03000C0B203F043
S3150800137087BBBDF83021DFF87C1C0AA804F00CFEF8
S315080013800AA9002003F082FD0600F6B2002E03D05B
S315080013903000C0B203F074BBDFF8F81D0AA804F0E9
S315080013A0FBFD48A90AA804F011FE18A10AA804F032
S315080013B00DFE77E03CA809F03CFA0600EDB2002DD8
S315080013C00AD0DFF8D41D0AA803F088FC0AA803F09F
S315080013D05BFC0AA904F096F9F6B2002E36D1DFF8BE
S315080013E0A01B0AA803F07AFC0AA9002003F04EFD08
S315080013F00600F6B2002E13D03000C0B203F040BB90
S31508001400348D0108E0840108D0B501080D0A0000F2
S31508001410AC94010844B7010808B901085C8D0108B5
S3150800142037490AA804F0B8FD0DF1FE010AA804F030
S31508001430CDFDB6A10AA804F0C9FD0AA9002003F04B
S3150800144025FD0600F6B2002E01D104E02AE03000A0
S31508001450C0B203F015BBBDF806212A490AA804F054
S315080014609BFD0AA9002003F011FD0600F6B2002E26
S3150800147003D03000C0B203F003BB4B490AA804F0FE
S315080014808BFD3CA90AA804F0A1FD48490AA804F066
S315080014909DFD0DF1F7010AA804F098FD9BA10AA885
S315080014A004F094FD03F072BAEDB2002D0AD0DFF80D
S315080014B0E81C0AA803F012FC0AA803F0E5FB0AA92F
S315080014C004F020F9DFF87C1D0AA803F007FC03F0F6
S315080014D05DBAEDB2002D0AD0DFF8BC1C0AA803F0ED
S315080014E0FDFB0AA803F0D0FB0AA904F00BF9DFF804
S315080014F0581D0AA803F0F2FB03F048BA848D0108C8
S31508001500E4B50108D4A201083CA809F0C7FB060007
S31508001510F6B2002E03D1BEA809F014FB0600F6B2F7
S31508001520002E27D1DFF8241D0AA803F0D7FB0AA945
S31508001530002003F0ABFC0600F6B2002E03D0300004
S31508001540C0B203F09DBADFF8081D0AA804F024FD0E
S315080015500DF1FE010AA804F039FD6CA10AA804F0F1
S3150800156035FD0AA9002003F091FC0600F6B2002E0C
S3150800157002D105E003F00ABA3000C0B203F080BA1F
S31508001580BDF80621DFF8EC1D0AA804F005FD0AA936
S31508001590002003F07BFC0600F6B2002E08D03000CF
S315080015A0C0B203F06DBA00BF54B7010864B70108AA
S315080015B0EDB2002D12D0BFA8C01C01900DF1F700A6
S315080015C00090BEAB3CAADFF8041E0AA804F0E4FCAF
S315080015D00AA803F059FB0AA904F094F8BFA8C01C8E
S315080015E001900DF1F7000090BEAB3CAADFF8E01DB4
S315080015F00AA804F0D1FC03F0C9B900BFAC8D0108F4
S31508001600D48D0108F4A201085FFA88F8B8F1010F31
S3150800161040F08080B4A809F0F1FC0600F6B2002E6E
S3150800162076D1DFF8DC1D0AA803F058FB0AA90020CA
S3150800163003F02CFC0600F6B2002E03D03000C0B230
S3150800164003F01EBADFF8E81D0AA804F0A5FC0AA9EB
S31508001650002003F01BFC0600F6B2002E03D0300073
S31508001660C0B203F00DBADFF8CC1D0AA803F036FBAA
S31508001670BAA90AA804F0AAFC24A10AA804F0A6FCA0
S315080016800AA9002003F002FC0600F6B2002E07D0D5
S315080016903000C0B203F0F4B924A90108D0940108B7
S315080016A0EDB2002D0ED0B8A80090B6ABB4AADFF8FC
S315080016B0D41D0AA804F070FC0AA803F0E5FA0AA9E2
S315080016C004F020F8DFF8C01D0AA803F007FBB4A948
S315080016D00AA804F07BFCDFF8B41D0AA804F076FC1F
S315080016E0B6A90AA804F072FCDFF8D81D0AA804F007
S315080016F06DFCB8A90AA804F069FC04A10AA804F0BC
S3150800170065FC63E290870108C08701080D0A00009E
S3150800171003F03CB96078302800F06181312800F088
S31508001720CF81322800F0FC81332800F01682492840
S3150800173040F047825FFA88F8B8F1020F1AD109F02B
S315080017405BFB0600EDB2002D0AD0DFF84C1A0AA89A
S3150800175003F0C4FA0AA803F097FA0AA903F0D2FF1D
S31508001760F6B2002E40F03A81DFF85C1D0AA803F0B5
S31508001770B5FA33E1EDB2002D0AD0DFF81C1A0AA833
S3150800178003F0ACFA0AA803F07FFA0AA903F0BAFF35
S315080017905FFA88F8B8F11D0F05D0DFF8C81D0AA84A
S315080017A003F09CFA1AE1A0783A2817D160792E2816
S315080017B014D1207A2E2811D1E07A2E280ED1A07BBA
S315080017C02E280BD1607C2E2808D1207D2E2805D105
S315080017D0E07D2E2802D1A07E2E2805D0DFF8081E2F
S315080017E00AA803F07BFAF9E00020359000200700EC
S315080017F0092F26DA032000FB07F0204490F903009E
S315080018008DF8A800032000FB07F0204490F9040097
S315080018108DF8A90000208DF8AA002AA803F048F937
S31508001820002807D1DFF8C41D0AA803F057FA0120DB
S31508001830359006E02AA803F060F999A9C8557F1CD7
S31508001840D6E79DF86402082805DBDFF8A41D0AA878
S3150800185003F044FABAE19DF8640210F007008DF827
S31508001860CD009DF86502022808DBDFF8001E0AA8ED
S3150800187003F034FAAAE100BF24AB01089DF865021B
S3150800188010F00100C0B2C0008DF8CC009DF86602C9
S31508001890022805DBDFF8D81D0AA803F01FFA95E130
S315080018A09DF8660210F00100C0B200018DF8CB0069
S315080018B09DF86702022807DBDFF8B81D0AA803F0BF
S315080018C00DFA83E1F8B501089DF8670210F00100EA
S315080018D0C0B240018DF8CA009DF86802402805DBB1
S315080018E0DFF80C1E0AA803F0F9F96FE19DF8680203
S315080018F010F03F008DF8C9009DF86902022807DB41
S31508001900DFF8F01D0AA803F0E9F95FE11885010878
S315080019109DF8690210F00100802148438DF8C8003F
S315080019209DF86A02042805DBDFF8CC1D0AA803F037
S31508001930D5F94BE19DF86A0210F003008DF8B7005F
S315080019409DF86B02042805DBDFF8281E0AA803F0B9
S31508001950C5F93BE19DF86B0210F00300C0B28000A8
S315080019608DF8B6009DF86C02022805DBDFF8081E24
S315080019700AA803F0B3F929E19DF86C0210F00100FA
S31508001980C0B200018DF8B5009DF8CD009DF8CC10C9
S3150800199008189DF8CB1008189DF8CA1008188DF875
S315080019A0EC009DF8C9009DF8C81008188DF8ED00E0
S315080019B09DF8B7009DF8B61008189DF8B5100818D8
S315080019C08DF8EE003BA809F03FFA0600F6B2002EA5
S315080019D004D1DFF8A81D0AA803F080F9F6E0B4A838
S315080019E009F00CFB0600EDB2002D0AD0DFF8A817A7
S315080019F00AA803F073F90AA803F046F90AA903F03E
S31508001A0081FEF6B2002E5AD1DFF8F4190AA803F0BF
S31508001A1065F90AA9002003F039FA0600F6B2002E85
S31508001A2003D03000C0B203F02BB8DFF8041A0AA8B6
S31508001A3004F0B2FA0AA9002003F028FA0600F6B262
S31508001A40002E03D03000C0B203F01AB8DFF8E4194C
S31508001A500AA803F043F9BAA90AA804F0B7FADAA162
S31508001A600AA804F0B3FA0AA9002003F00FFA060040
S31508001A70F6B2002E03D03000C0B203F001B8DFF88A
S31508001A80081A0AA803F02AF9B4A90AA804F09EFAC3
S31508001A90DFF8F8190AA804F099FAB6A90AA804F012
S31508001AA095FADFF8201A0AA804F090FAB8A90AA845
S31508001AB004F08CFAC4A10AA804F088FA86E085E046
S31508001AC056A809F054FA0600EDB2002D0AD0DFF840
S31508001AD0C8160AA803F002F90AA803F0D5F80AA955
S31508001AE003F010FEF6B2002E19D1DFF8F01D0AA891
S31508001AF003F0F4F89DF85821DFF8E41D2AA804F04D
S31508001B004BFA2AA90AA804F061FA56A9491C0AA898
S31508001B1004F05CFAACA10AA804F058FA56E055E0BD
S31508001B2009F0BCF90600EDB2002D0AD0DFF86816F8
S31508001B300AA803F0D3F80AA803F0A6F80AA903F03E
S31508001B40E1FDF6B2002E07D1DFF80C1E0AA803F055
S31508001B50C5F83BE01089010838E058A809F0C0F933
S31508001B600600EDB2002D0AD0DFF82C160AA803F0FD
S31508001B70B5F80AA803F088F80AA903F0C3FDF6B277
S31508001B80002E1DD1DFF8D41D0AA803F0A7F89DF88A
S31508001B906021DFF84C1D2AA804F0FEF92AA90AA834
S31508001BA004F014FA58A9491C0AA804F00FFA86A1E9
S31508001BB00AA804F00BFA09E0FC8D01083CAB010801
S31508001BC004E0DFF8101E0AA803F088F802F0DEBE6B
S31508001BD06078442818D055281FD1042009F07AFBCC
S31508001BE0EDB2002D0AD0DFF8B0150AA803F076F892
S31508001BF00AA803F049F80AA903F084FDDFF8D81DFE
S31508001C000AA803F06BF80DE0042009F071FBDFF871
S31508001C10CC1D0AA803F062F804E0DFF8C41D0AA880
S31508001C2003F05CF802F0B2BE14A3010840A901084B
S31508001C305FFA88F8B8F1020F16DAEDB2002D0AD06D
S31508001C40DFF854150AA803F049F80AA803F01CF8A7
S31508001C500AA903F057FDDFF8001E0AA803F03EF8AC
S31508001C6002F082BE3C8901086078432800F0F282BF
S31508001C70442802F01E82462802F01A86492810D007
S31508001C804B2802F051824C2802F02A864D2802F091
S31508001C90E585522802F02C82552802F0778502F055
S31508001CA052BE5FFA88F8B8F1090F13DAEDB2002DC3
S31508001CB00AD0DFF8E4140AA803F010F80AA802F01C
S31508001CC0E3FF0AA903F01EFDDFF8041E0AA803F0C5
S31508001CD005F8B4E2A078512800F00582C0F0AA827F
S31508001CE0532802D0C0F0D680A4E2E0783A2802D180
S31508001CF0A0792E281CD0EDB2002D0AD0DFF8981452
S31508001D000AA802F0EBFF0AA802F0BEFF0AA903F030
S31508001D10F9FCDFF8341E0AA802F0E0FFB9E000BFBC
S31508001D20F49401085CA90108189501080CB6010885
S31508001D30EDB2002D0AD0DFF860140AA802F0CEFF33
S31508001D400AA802F0A1FF0AA903F0DCFC94F9040032
S31508001D508DF8A80094F905008DF8A90000208DF8E3
S31508001D60AA002AA802F0A4FE002805D1DFF8DC1D87
S31508001D700AA802F0B3FF8CE02AA802F0BEFE319052
S31508001D8094F907008DF8A80094F908008DF8A900C1
S31508001D9000208DF8AA002AA802F08AFE002805D19C
S31508001DA0DFF8AC1D0AA802F099FF72E02AA802F033
S31508001DB0A4FE34903498002814D1319ADFF8941D83
S31508001DC00AA804F0E9F83BE00D0A00003C95010872
S31508001DD054AB010834A3010820B6010854A301082E
S31508001DE034B6010800203590002007003498874251
S31508001DF026DA032000FB07F0204490F90A008DF844
S31508001E00A800032000FB07F0204490F90B008DF88A
S31508001E10A90000208DF8AA002AA802F049FE002889
S31508001E2007D1DFF8281D0AA802F058FF01203590CF
S31508001E3006E02AA802F061FE99A9C8557F1CD5E7D5
S31508001E403598002805D1319ADFF8F01D0AA804F064
S31508001E50A3F800200700349887420BDA99A8C25DD8
S31508001E60CEA12AA804F098F82AA90AA804F0AEF880
S31508001E707F1CF0E7CAA10AA804F0A8F84FF4FA7381
S31508001E803498020092B299A9319880B209F04EFBB3
S31508001E900600D4E1E0783A2805D1A0792E2802D1A7
S31508001EA0607A2E2812D0EDB2002D09D0BA490AA8B8
S31508001EB002F014FF0AA802F0E7FE0AA903F022FCC2
S31508001EC0DFF8F01D0AA802F009FF0BE1EDB2002DBC
S31508001ED009D0B1490AA802F001FF0AA802F0D4FE07
S31508001EE00AA903F00FFC94F904008DF8A80094F9E8
S31508001EF005008DF8A90000208DF8AA002AA802F08E
S31508001F00D7FD002805D1DFF8241E0AA802F0E6FE50
S31508001F10E8E02AA802F0F1FD319094F907008DF85F
S31508001F20A80094F908008DF8A90000208DF8AA00E9
S31508001F302AA802F0BDFD002805D1DFF8F41D0AA87D
S31508001F4002F0CCFECEE02AA802F0D7FD349094F930
S31508001F500A008DF8A80094F90B008DF8A900002056
S31508001F608DF8AA002AA802F0A3FD00280AD1DFF8F6
S31508001F70381E0AA802F0B2FEB4E000BF74A3010836
S31508001F806CAB01082AA802F0B8FD399034980028ED
S31508001F9006D1319ADFF8141E0AA803F0FDFF38E0CF
S31508001FA000203590002007003498874231DA032054
S31508001FB000FB07F0204490F90D008DF8A8000320D7
S31508001FC000FB07F0204490F90E008DF8A9000020C8
S31508001FD08DF8AA002AA802F06BFD002812D1DFF8B6
S31508001FE0D01D0AA802F07AFE0120359011E000BF44
S31508001FF084AB01086095010894A301089CAB01080D
S31508002000688901082AA802F078FD99A9C8557F1C95
S31508002010CAE73598002805D1319ADFF80C1E0AA8B8
S3150800202003F0BAFF00200700349887420BDA99A814
S31508002030C25D5AA12AA803F0AFFF2AA90AA803F08D
S31508002040C5FF7F1CF0E756A10AA803F0BFFF4FF4AF
S31508002050FA733498020092B299A9319880B209F0BD
S3150800206065FA0600F6B2002E0ED14FF4FA733998C7
S31508002070020092B299A9319880B209F0A2FA060034
S31508002080F6B2002E05D100E0D9E0142009F0D4FA02
S315080020900600F6B2002E25D10AA9002002F0F6FEA7
S315080020A00600F6B2002E03D03000C0B202F0E8BC3B
S315080020B0DFF8EC1D0AA803F06FFF00200700399827
S315080020C087420BDA99A8C25D34A12AA803F064FFF7
S315080020D02AA90AA803F07AFF7F1CF0E730A10AA80C
S315080020E003F074FFABE0E0783A2802D1A0792E28F5
S315080020F012D0EDB2002D09D027490AA802F0EEFD4C
S315080021000AA802F0C1FD0AA903F0FCFADFF8081EC6
S315080021100AA802F0E3FD8CE0EDB2002D09D01E49B5
S315080021200AA802F0DBFD0AA802F0AEFD0AA903F030
S31508002130E9FA94F904008DF8A80094F905008DF8D9
S31508002140A90000208DF8AA002AA802F0B1FC0028F0
S3150800215005D1DFF8C81D0AA802F0C0FD69E02AA863
S3150800216002F0CBFC319094F907008DF8A80094F999
S3150800217008008DF8A90000208DF8AA002AA802F008
S3150800218097FC00280ED1DFF8341E0AA802F0A6FD37
S315080021904FE000BF74B70108B4A2010825782E00E5
S315080021A00D0A00002AA802F0A8FC3990319ADFF837
S315080021B0FC1B0AA803F0F0FE4FF4FA7339980200E4
S315080021C092B299A9319880B209F0FBF90600F6B2E5
S315080021D0002E07D1142009F02FFA0600F6B2002EB9
S315080021E027D100E02BE00AA9002002F04FFE0600E6
S315080021F0F6B2002E03D03000C0B202F041BCDFF8C0
S31508002200A01C0AA803F0C8FE0020070039988742D8
S315080022100BDA99A8C25DD4A12AA803F0BDFE2AA9A3
S315080022200AA803F0D3FE7F1CF0E7D0A10AA803F0A2
S31508002230CDFE04E0DFF89C170AA802F04FFD02F075
S3150800224093BB00BFF0870108B4AB010848B6010884
S31508002250E4B50108002006005FFA88F8B8F1020F15
S3150800226040F0EA80052005F0FDFA002804D05AA8B7
S3150800227006F07EFB06000BE0062005F0F3FA0028C0
S3150800228004D05AA805F0A5FC060001E001200600C6
S31508002290F6B2002E40F0B6803CA808F053FC0600C3
S315080022A0F6B2002E40F0968048A807F040FE0600D9
S315080022B0F6B2002E75D1ADA803F0C0FE0600F6B240
S315080022C0002E59D1EDB2002D25D0ADA8099048A809
S315080022D008903CA807905AA806908AA8059084A852
S315080022E004907EA8039078A8029072A801906CA822
S315080022F0009066AB60AADFF8881D0AA803F04CFEBA
S31508002300DFF8801D0AA802F0E9FC0AA802F0BCFC66
S315080023100AA903F0F7F9ADA8099048A808903CA8BF
S3150800232007905AA806908AA8059084A804907EA8C3
S31508002330039078A8029072A801906CA8009066ABEA
S3150800234060AADFF8441D0AA803F026FE0AA90020A1
S3150800235002F09CFD0600F6B2002E03D03000C0B293
S3150800236002F08EBBDFF8341E0AA803F015FE01F052
S315080023709EBE00BFD4A20108EDB2002D0AD0DFF838
S31508002380201E0AA802F0AAFC0AA802F07DFC0AA9E7
S3150800239003F0B8F9DFF80C1E0AA803F0FDFD01F0FA
S315080023A086BEEDB2002D0AD0DFF8FC1D0AA802F0A1
S315080023B095FC0AA802F068FC0AA903F0A3F9DFF85D
S315080023C0EC1D0AA803F0E8FD01F071BE9489010826
S315080023D0248E0108EDB2002D0AD0DFF8D41D0AA814
S315080023E002F07CFC0AA802F04FFC0AA903F08AF95D
S315080023F0DFF8C01D0AA803F0CFFD01F058BE00BFE4
S3150800240078A90108EDB2002D0AD0DFF8401E0AA807
S3150800241002F064FC0AA802F037FC0AA903F072F974
S31508002420DFF82C1E0AA803F0B7FD01F040BE00BF76
S315080024305085010884B70108A078492801F00A8662
S31508002440522800F0E785532804D0542801F09D85CA
S3150800245001F02DBEE0783A281AD0EDB2002D0AD048
S31508002460DFF8F01D0AA802F039FC0AA802F00CFCF5
S315080024700AA903F047F9DFF8E01D0AA802F02EFCC6
S3150800248000F0C6BDC089010814B9010820B90108C1
S315080024905FFA88F8B8F1050F18DAEDB2002D0AD000
S315080024A0DFF84C1E0AA802F019FC0AA802F0ECFB99
S315080024B00AA903F027F9DFF83C1E0AA802F00EFC69
S315080024C000F0A6BD2CB90108DC7F0108201D30905C
S315080024D0309951A802F002FC00202990002028908B
S315080024E028A8009029AB36AADFF80C1E51A809F0D7
S315080024F08BF9032840F07A85289809F097F9CDE9F1
S315080025000201299809F092F9CDE9000136AADFF807
S31508002510EC1D0AA803F040FD0422DFF8E41D36A8E6
S3150800252009F0ABF9002838D1299A2899002009F032
S3150800253021FA0600F6B2002E1AD1EDB2002D0AD005
S31508002540DFF8541E0AA802F0C9FB0AA802F09CFB91
S315080025500AA903F0D7F8DFF8441E0AA803F01CFD01
S3150800256000F041BDB080010825782E000D0A000054
S31508002570EDB2002D0AD0DFF8281E0AA802F0AEFB3D
S315080025800AA802F081FB0AA903F0BCF8DFF8141EBA
S315080025900AA803F001FD00F026BD0422DFF8081E94
S315080025A036A809F06AF9002839D1299A289901200C
S315080025B009F0E0F90600F6B2002E1BD1EDB2002DA7
S315080025C00AD0DFF8E81D0AA802F088FB0AA802F07C
S315080025D05BFB0AA903F096F8DFF8681E0AA803F061
S315080025E0DBFC00F000BD00BF24800108B8810108AB
S315080025F0B8830108EDB2002D0AD0DFF84C1E0AA8F0
S3150800260002F06CFB0AA802F03FFB0AA903F07AF86D
S31508002610DFF8901D0AA803F0BFFC00F0E4BC042212
S31508002620DFF8281E36A809F028F9002839D1299A92
S315080026302899022009F09EF90600F6B2002E1BD151
S31508002640EDB2002D0AD0DFF8081E0AA802F046FBF4
S315080026500AA802F019FB0AA903F054F8DFF8F41DDA
S315080026600AA803F099FC00F0BEBC00BFF483010879
S315080026703084010888850108EDB2002D0AD0DFF8FC
S315080026806C1E0AA802F02AFB0AA802F0FDFA0AA99B
S3150800269003F038F8DFF80C1D0AA803F07DFC00F0FB
S315080026A0A2BC0422DFF8481E36A809F0E6F800287E
S315080026B039D1299A2899032009F05CF90600F6B25F
S315080026C0002E1BD1EDB2002D0AD0DFF8281E0AA86D
S315080026D002F004FB0AA802F0D7FA0AA903F012F8D6
S315080026E0DFF8141E0AA803F057FC00F07CBC00BFF4
S315080026F0F88101083882010878820108EDB2002DB8
S315080027000AD0DFF8F81D0AA802F0E8FA0AA802F0CB
S31508002710BBFA0AA902F0F6FFDFF8881C0AA803F03C
S315080027203BFC00F060BC0422DFF8681E36A809F0FE
S31508002730A4F8002839D1299A2899042009F01AF909
S315080027400600F6B2002E1BD1EDB2002D0AD0DFF836
S31508002750481E0AA802F0C2FA0AA802F095FA0AA9BF
S3150800276002F0D0FFDFF8341E0AA803F015FC00F0CB
S315080027703ABC00BFB8820108F8820108F480010853
S31508002780EDB2002D0AD0DFF8181E0AA802F0A6FA44
S315080027900AA802F079FA0AA902F0B4FFDFF8041CC5
S315080027A00AA803F0F9FB00F01EBC0422DFF8F41DAA
S315080027B036A809F062F8002831D1299A2899052007
S315080027C009F0D8F80600F6B2002E14D1EDB2002DA5
S315080027D00AD0DFF8681E0AA802F080FA0AA802F0F2
S315080027E053FA0AA902F08EFFDFF8541E0AA803F06E
S315080027F0D3FB00F0F8BBEDB2002D0AD0DFF8441E7B
S315080028000AA802F06BFA0AA802F03EFA0AA902F030
S3150800281079FFDFF8901B0AA803F0BEFBE3E3042266
S31508002820DFF8241E36A809F028F8002830D1299A9E
S315080028302899062009F09EF80600F6B2002E13D154
S31508002840EDB2002D0AD0DFF8041E0AA802F046FAF7
S315080028500AA802F019FA0AA902F054FFDFF8841E42
S315080028600AA803F099FBBEE3EDB2002D0AD0DFF803
S31508002870781E0AA802F032FA0AA802F005FA0AA98E
S3150800288002F040FFDFF81C1B0AA803F085FBAAE349
S315080028900422DFF8581E36A808F0EFFF002835D1C5
S315080028A0299A2899072009F065F80600F6B2002E3D
S315080028B018D1EDB2002D0AD0DFF8341E0AA802F0AE
S315080028C00DFA0AA802F0E0F90AA902F01BFFDFF8E0
S315080028D0241E0AA803F060FB85E300BFB4A3010821
S315080028E010BB0108EDB2002D0AD0DFF89C1E0AA81D
S315080028F002F0F4F90AA802F0C7F90AA902F002FFE1
S31508002900DFF8A01A0AA803F047FB6CE30422DFF8F5
S315080029107C1E36A808F0B1FF002835D1299A2899D7
S31508002920082009F027F80600F6B2002E18D1EDB2F5
S31508002930002D0AD0DFF8581E0AA802F0CFF90AA817
S3150800294002F0A2F90AA902F0DDFEDFF8481E0AA87D
S3150800295003F022FB47E300BF2C8601088495010893
S31508002960EDB2002D0AD0DFF8301E0AA802F0B6F93B
S315080029700AA802F089F90AA902F0C4FEDFF8241AA7
S315080029800AA803F009FB2EE30422DFF8A01E36A8E6
S3150800299008F073FF002839D1299A2899092008F0E8
S315080029A0E9FF0600F6B2002E1CD1EDB2002D0AD0C2
S315080029B0DFF87C1E0AA802F091F90AA802F064F969
S315080029C00AA902F09FFEDFF86C1E0AA803F0E4FAD3
S315080029D009E300BFF4A20108D4A30108F4A301087F
S315080029E0EC890108EDB2002D0AD0DFF84C1E0AA8C2
S315080029F002F074F90AA802F047F90AA902F082FE61
S31508002A00DFF8A0190AA803F0C7FAECE20422DFF8F7
S31508002A102C1E36A808F031FF002833D1299A2899A8
S31508002A200A2008F0A7FF0600F6B2002E16D1EDB26E
S31508002A30002D0AD0DFF8981E0AA802F04FF90AA856
S31508002A4002F022F90AA902F05DFEDFF8881E0AA83C
S31508002A5003F0A2FAC7E200BF14A40108EDB2002DE4
S31508002A600AD0DFF8741E0AA802F038F90AA802F09C
S31508002A700BF90AA902F046FEDFF828190AA803F09E
S31508002A808BFAB0E20422DFF8541E36A808F0F5FEE9
S31508002A90002833D1299A28990B2008F06BFF0600E5
S31508002AA0F6B2002E16D1EDB2002D0AD0DFF8301E90
S31508002AB00AA802F013F90AA802F0E6F80AA902F031
S31508002AC021FEDFF8B01E0AA803F066FA8BE200BF03
S31508002AD04C8E0108EDB2002D0AD0DFF89C1E0AA81C
S31508002AE002F0FCF80AA802F0CFF80AA902F00AFEDA
S31508002AF0DFF8B0180AA803F04FFA74E20422DFF8E8
S31508002B007C1E36A808F0B9FE002839D1299A2899DA
S31508002B100C2008F02FFF0600F6B2002E1CD1EDB2ED
S31508002B20002D0AD0DFF8581E0AA802F0D7F80AA81E
S31508002B3002F0AAF80AA902F0E5FDDFF8481E0AA87D
S31508002B4003F02AFA4FE200BF748E0108188A0108BA
S31508002B5060860108CCAB0108EDB2002D0AD0DFF87B
S31508002B60B81E0AA802F0BAF80AA802F08DF80AA94F
S31508002B7002F0C8FDDFF82C180AA803F00DFA32E2B5
S31508002B800422DFF8981E36A808F077FE002830D110
S31508002B90299A28990D2008F0EDFE0600F6B2002EB7
S31508002BA013D1EDB2002D0AD0DFF8741E0AA802F080
S31508002BB095F80AA802F068F80AA902F0A3FDDFF85A
S31508002BC0641E0AA803F0E8F90DE2EDB2002D0AD05A
S31508002BD0DFF8541E0AA802F081F80AA802F054F891
S31508002BE00AA902F08FFDDFF8BC170AA803F0D4F98A
S31508002BF0F9E10422DFF8C41E36A808F03EFE0028D4
S31508002C0032D1299A28990E2008F0B4FE0600F6B2A9
S31508002C10002E15D1EDB2002D0AD0DFF8A41E0AA8A1
S31508002C2002F05CF80AA802F02FF80AA902F06AFD79
S31508002C30DFF8901E0AA803F0AFF9D4E15CB60108E4
S31508002C40EDB2002D0AD0DFF8801E0AA802F046F879
S31508002C500AA802F019F80AA902F054FDDFF8441789
S31508002C600AA803F099F9BEE10422DFF8601E36A827
S31508002C7008F003FE002833D1299A28990F2008F076
S31508002C8079FE0600F6B2002E16D1EDB2002D0AD056
S31508002C90DFF8CC1E0AA802F021F80AA801F0F4FF12
S31508002CA00AA902F02FFDDFF8BC1E0AA803F074F982
S31508002CB099E100BF9C8E0108EDB2002D0AD0DFF81D
S31508002CC0A81E0AA802F00AF80AA801F0DDFF0AA958
S31508002CD002F018FDDFF8CC160AA803F05DF982E1C8
S31508002CE00422DFF8881E36A808F0C7FD002835D16B
S31508002CF0299A2899102008F03DFE0600F6B2002E03
S31508002D0018D1EDB2002D0AD0DFF8641E0AA801F02A
S31508002D10E5FF0AA801F0B8FF0AA902F0F3FCDFF8FC
S31508002D20541E0AA803F038F95DE100BF448A010879
S31508002D3094860108EDB2002D0AD0DFF8CC1E0AA849
S31508002D4001F0CCFF0AA801F09FFF0AA902F0DAFCFD
S31508002D50DFF850160AA803F01FF944E10422DFF849
S31508002D60AC1E36A808F089FD002837D1299A28997B
S31508002D70112008F0FFFD0600F6B2002E1AD1EDB2BA
S31508002D80002D0AD0DFF8881E0AA801F0A7FF0AA8B6
S31508002D9001F07AFF0AA902F0B5FCDFF8781E0AA846
S31508002DA003F0FAF81FE100BF6C840108E4AB0108E0
S31508002DB0C48E0108EDB2002D0AD0DFF85C1E0AA801
S31508002DC001F08CFF0AA801F05FFF0AA902F09AFC3D
S31508002DD0DFF8D0150AA803F0DFF804E10422DFF8CB
S31508002DE0CC1E36A808F049FD002833D1299A28991F
S31508002DF0122008F0BFFD0600F6B2002E16D1EDB27D
S31508002E00002D0AD0DFF8A81E0AA801F067FF0AA855
S31508002E1001F03AFF0AA902F075FCDFF8981E0AA825
S31508002E2003F0BAF8DFE000BF70B60108EDB2002D76
S31508002E300AD0DFF8841E0AA801F050FF0AA801F09C
S31508002E4023FF0AA902F05EFCDFF858150AA803F06A
S31508002E50A3F8C8E00422DFF8641E36A808F00DFDC2
S31508002E60002833D1299A2899132008F083FD0600F3
S31508002E70F6B2002E16D1EDB2002D0AD0DFF8D01E1C
S31508002E800AA801F02BFF0AA801F0FEFE0AA902F023
S31508002E9039FCDFF8C01E0AA803F07EF8A3E000BFDD
S31508002EA038B90108EDB2002D0AD0DFF8AC1E0AA821
S31508002EB001F014FF0AA801F0E7FE0AA902F022FCB5
S31508002EC0DFF8E0140AA803F067F88CE00422DFF8BC
S31508002ED08C1E36A808F0D1FC002835D1299A2899E5
S31508002EE0142008F047FD0600F6B2002E18D1EDB200
S31508002EF0002D0AD0DFF8F81E0AA801F0EFFE0AA88E
S31508002F0001F0C2FE0AA902F0FDFBDFF8E81E0AA8D6
S31508002F1003F042F867E000BFEC8E0108708A0108EA
S31508002F20EDB2002D0AD0DFF8D01E0AA801F0D6FEB1
S31508002F300AA801F0A9FE0AA902F0E4FBDFF8641466
S31508002F400AA803F029F84EE00422DFF8B01E36A8D6
S31508002F5008F093FC002833D1299A2899152008F0FF
S31508002F6009FD0600F6B2002E13D1EDB2002D0AD0E7
S31508002F70DFF88C1E0AA801F0B1FE0AA801F084FE4B
S31508002F800AA902F0BFFBDFF87C1E0AA803F004F8C2
S31508002F9029E0EDB2002D0AD0DFF8FC1E0AA801F0E0
S31508002FA09DFE0AA801F070FE0AA902F0ABFBDFF845
S31508002FB0F4130AA802F0F0FF15E000BFC88601085E
S31508002FC0EDB2002D0AD0DFF8D41E0AA801F086FE5D
S31508002FD00AA801F059FE0AA902F094FBDFF8C01E00
S31508002FE00AA802F0D9FF0020060011E0EDB2002D74
S31508002FF009D0BF490AA801F071FE0AA801F044FEEB
S315080030000AA902F07FFBDFF89C1E0AA801F066FEFB
S3150800301001F04DB8EDB2002D0DD008F0DDFC020030
S31508003020DFF8841E0AA802F0B7FF0AA801F02CFEF2
S315080030300AA902F067FB08F0CFFC0200DFF8141FAC
S315080030400AA802F0A9FF0AA9002001F01FFF06003E
S31508003050F6B2002E03D03000C0B201F011BDDFF881
S31508003060F81E0AA802F098FF0AA9002001F00EFF30
S315080030700600F6B2002E09D03000C0B201F000BD3D
S3150800308038830108B4A20108148F0108002007003C
S31508003090162F80F26687002F36D0022F00F0DE80CA
S315080030A0C0F08A80042F00F08381C0F02B81062FA0
S315080030B000F02682C0F0D081082F00F0C982C0F047
S315080030C073820A2F00F06A83C0F016830C2F00F073
S315080030D00984C0F0B5830E2F00F0A884C0F054848C
S315080030E0102F00F04985C0F0F384122F00F0E88510
S315080030F0C0F09485142F00F08786C0F03186152F0E
S3150800310000F0D48600F019BFEDB2002D24D03800A7
S31508003110C0B208F050FC83463800C0B208F051FC33
S3150800312081463800C0B208F052FC8246584608F07C
S315080031307DFBCDE90201484608F078FBCDE90001A0
S315080031405246DFF8E41E0AA802F026FF0AA801F094
S315080031509BFD0AA902F0D6FA3800C0B208F02BFC8B
S3150800316083463800C0B208F02CFC81463800C0B24D
S3150800317008F02DFC8246584608F058FBCDE90201B6
S31508003180484608F053FBCDE900015246DFF8F41E25
S315080031900AA802F001FF00F0D0BE00BF44B901083A
S315080031A03C8F0108FCAB0108648F010814AC0108C8
S315080031B09C8A0108A8950108EDB2002D24D0380094
S315080031C0C0B208F0F8FB83463800C0B208F0F9FB35
S315080031D081463800C0B208F0FAFB8246584608F025
S315080031E025FBCDE90201484608F020FBCDE90001A0
S315080031F05246DFF8F81E0AA802F0CEFE0AA801F029
S3150800320043FD0AA902F07EFA3800C0B208F0D3FBE3
S3150800321083463800C0B208F0D4FB81463800C0B2F5
S3150800322008F0D5FB8246584608F000FBCDE90201B6
S31508003230484608F0FBFACDE900015246DFF8E41EDD
S315080032400AA802F0A9FE00F078BE00BF8C8F01081C
S31508003250CC95010834A40108B48F0108EDB2002DFD
S3150800326024D03800C0B208F0A6FB83463800C0B2A6
S3150800327008F0A7FB81463800C0B208F0A8FB8246D2
S31508003280584608F0D3FACDE90201484608F0CEFAC6
S31508003290CDE900015246DFF8C81E0AA802F07CFEF6
S315080032A00AA801F0F1FC0AA902F02CFA3800C0B20B
S315080032B008F081FB83463800C0B208F082FB8146DD
S315080032C03800C0B208F083FB8246584608F0AEFACA
S315080032D0CDE90201484608F0A9FACDE900015246AF
S315080032E0DFF8D81E0AA802F057FE00F026BE00BF77
S315080032F0F09501081496010850B901082CAC01088C
S3150800330018BB0108EDB2002D24D03800C0B208F071
S3150800331052FB83463800C0B208F053FB814638009A
S31508003320C0B208F054FB8246584608F07FFACDE949
S315080033300201484608F07AFACDE900015246DFF85C
S31508003340801E0AA802F028FE0AA801F09DFC0AA918
S3150800335002F0D8F93800C0B208F02DFB83463800D1
S31508003360C0B208F02EFB81463800C0B208F02FFB29
S315080033708246584608F05AFACDE90201484608F04E
S3150800338055FACDE900015246DFF8381E0AA802F0C0
S3150800339003FE00F0D2BD00BF3896010894A90108C3
S315080033A0DC8F0108B0A9010820BB010854A4010854
S315080033B0EDB2002D24D03800C0B208F0FCFA8346DE
S315080033C03800C0B208F0FDFA81463800C0B208F0ED
S315080033D0FEFA8246584608F029FACDE9020148461F
S315080033E008F024FACDE900015246DFF8881E0AA83B
S315080033F002F0D2FD0AA801F047FC0AA902F082F9F8
S315080034003800C0B208F0D7FA83463800C0B208F0D0
S31508003410D8FA81463800C0B208F0D9FA824658462A
S3150800342008F004FACDE90201484608F0FFF9CDE9AB
S3150800343000015246DFF89C1E0AA802F0ADFD00F016
S315080034407CBD00BF44AC01085C96010828BB010896
S3150800345074A4010884B60108EDB2002D24D0380002
S31508003460C0B208F0A8FA83463800C0B208F0A9FA34
S3150800347081463800C0B208F0AAFA8246584608F0D3
S31508003480D5F9CDE90201484608F0D0F9CDE90001A1
S315080034905246DFF8441E0AA802F07EFD0AA801F08B
S315080034A0F3FB0AA902F02EF93800C0B208F083FA35
S315080034B083463800C0B208F084FA81463800C0B2A4
S315080034C008F085FA8246584608F0B0F9CDE90201B7
S315080034D0484608F0ABF9CDE900015246DFF8FC1D75
S315080034E00AA802F059FD00F028BD00BF8096010821
S315080034F030BB010894A401085CAC0108A496010835
S31508003500EDB2002D24D03800C0B208F054FA834634
S315080035103800C0B208F055FA81463800C0B208F043
S3150800352056FA8246584608F081F9CDE9020148461E
S3150800353008F07CF9CDE900015246DFF8AC1E0AA86E
S3150800354002F02AFD0AA801F09FFB0AA902F0DAF8A0
S315080035503800C0B208F02FFA83463800C0B208F027
S3150800356030FA81463800C0B208F031FA8246584629
S3150800357008F05CF9CDE90201484608F057F9CDE9AB
S3150800358000015246DFF8641E0AA802F005FD00F0A5
S31508003590D4BC00BF38BB0108B4A4010898B601081A
S315080035A0C896010840BB0108EDB2002D24D03800AA
S315080035B0C0B208F000FA83463800C0B208F001FA33
S315080035C081463800C0B208F002FA8246584608F02A
S315080035D02DF9CDE90201484608F028F9CDE90001A0
S315080035E05246DFF86C1E0AA802F0D6FC0AA801F0BB
S315080035F04BFB0AA902F086F83800C0B208F0DBF9DE
S3150800360083463800C0B208F0DCF981463800C0B2FB
S3150800361008F0DDF98246584608F008F9CDE90201B6
S31508003620484608F003F9CDE900015246DFF8701E56
S315080036300AA802F0B1FC00F080BC00BFD4A40108BF
S31508003640ACB60108EC96010848BB010810970108BA
S31508003650EDB2002D24D03800C0B208F0ACF983468C
S315080036603800C0B208F0ADF981463800C0B208F09B
S31508003670AEF98246584608F0D9F8CDE9020148461F
S3150800368008F0D4F8CDE900015246DFF8741E0AA8FE
S3150800369002F082FC0AA801F0F7FA0AA902F032F849
S315080036A03800C0B208F087F983463800C0B208F07F
S315080036B088F981463800C0B208F089F9824658462A
S315080036C008F0B4F8CDE90201484608F0AFF8CDE9AC
S315080036D000015246DFF82C1E0AA802F05DFC00F035
S315080036E02CBC00BF74AC01080490010850BB01084B
S315080036F0349701088CAC0108EDB2002D24D03800AF
S31508003700C0B208F058F983463800C0B208F059F933
S3150800371081463800C0B208F05AF98246584608F081
S3150800372085F8CDE90201484608F080F8CDE90001A0
S315080037305246DFF8D41D0AA802F02EFC0AA801F0AA
S31508003740A3FA0AA901F0DEFF3800C0B208F033F97F
S3150800375083463800C0B208F034F981463800C0B252
S3150800376008F035F98246584608F060F8CDE90201B6
S31508003770484608F05BF8CDE900015246DFF8701EAE
S315080037800AA802F009FCD8E32C90010858BB0108E6
S3150800379058970108A4AC010854900108EDB2002D11
S315080037A024D03800C0B208F006F983463800C0B203
S315080037B008F007F981463800C0B208F008F98246D1
S315080037C0584608F033F8CDE90201484608F02EF8C5
S315080037D0CDE900015246DFF81C1E0AA802F0DCFB00
S315080037E00AA801F051FA0AA901F08CFF3800C0B204
S315080037F008F0E1F883463800C0B208F0E2F88146DE
S315080038003800C0B208F0E3F88246584608F00EF8C9
S31508003810CDE90201484608F009F8CDE9000152460B
S31508003820DFF8441E0AA802F0B7FB86E360BB01086E
S315080038307C970108BCAC01087C90010868BB0108AC
S31508003840EDB2002D24D03800C0B208F0B4F8834693
S315080038503800C0B208F0B5F881463800C0B208F0A2
S31508003860B6F88246584607F0E1FFCDE90201484618
S3150800387007F0DCFFCDE900015246DFF8481E0AA82A
S3150800388002F08AFB0AA801F0FFF90AA901F03AFF3B
S315080038903800C0B208F08FF883463800C0B208F086
S315080038A090F881463800C0B208F091F8824658462A
S315080038B007F0BCFFCDE90201484607F0B7FFCDE99E
S315080038C000015246DFF8341E0AA802F065FB34E30D
S315080038D0F4A40108D4AC0108A097010870BB01083C
S315080038E0C4970108EDB2002D24D03800C0B208F004
S315080038F062F883463800C0B208F063F8814638009B
S31508003900C0B208F064F88246584607F08FFFCDE942
S315080039100201484607F08AFFCDE900015246DFF862
S315080039203C1E0AA802F038FB0AA801F0ADF90AA95C
S3150800393001F0E8FE3800C0B208F03DF883463800CA
S31508003940C0B208F03EF881463800C0B208F03FF829
S315080039508246584607F06AFFCDE90201484607F055
S3150800396065FFCDE900015246DFF8F41D0AA802F00A
S3150800397013FBE2E2ECAC0108A490010878BB01084D
S31508003980E897010804AD0108EDB2002D24D03800EF
S31508003990C0B208F010F883463800C0B208F011F833
S315080039A081463800C0B208F012F88246584607F039
S315080039B03DFFCDE90201484607F038FFCDE9000191
S315080039C05246DFF8381E0AA802F0E6FA0AA801F0FD
S315080039D05BF90AA901F096FE3800C0B207F0EBFFC2
S315080039E083463800C0B207F0ECFF81463800C0B203
S315080039F007F0EDFF8246584607F018FFCDE90201A9
S31508003A00484607F013FFCDE900015246DFF8201EAD
S31508003A100AA802F0C1FA90E2CC90010880BB01081E
S31508003A2014A501081CAD01080C980108EDB2002D7B
S31508003A3024D03800C0B207F0BEFF83463800C0B2B3
S31508003A4007F0BFFF81463800C0B207F0C0FF8246C4
S31508003A50584607F0EBFECDE90201484607F0E6FEB8
S31508003A60CDE900015246DFF8301E0AA802F094FAA2
S31508003A700AA801F009F90AA901F044FE3800C0B203
S31508003A8007F099FF83463800C0B207F09AFF8146CF
S31508003A903800C0B207F09BFF8246584607F0C6FEBC
S31508003AA0CDE90201484607F0C1FECDE900015246BC
S31508003AB0DFF8281E0AA802F06FFA3EE288BB010862
S31508003AC03098010834AD0108F490010890BB01084C
S31508003AD0EDB2002D24D03800C0B207F06CFF834643
S31508003AE03800C0B207F06DFF81463800C0B207F053
S31508003AF06EFF8246584607F099FECDE90201484610
S31508003B0007F094FECDE900015246DFF8301E0AA8F8
S31508003B1002F042FA0AA801F0B7F80AA901F0F2FD84
S31508003B203800C0B207F047FF83463800C0B207F036
S31508003B3048FF81463800C0B207F049FF824658461A
S31508003B4007F074FECDE90201484607F06FFECDE99D
S31508003B5000015246DFF8E81D0AA802F01DFAECE15A
S31508003B60549801084CAD01081C91010898BB01083E
S31508003B707898010864AD0108EDB2002D24D038000C
S31508003B80C0B207F018FF83463800C0B207F019FF25
S31508003B9081463800C0B207F01AFF8246584607F039
S31508003BA045FECDE90201484607F040FECDE9000191
S31508003BB05246DFF8EC1D0AA802F0EEF90AA801F051
S31508003BC063F80AA901F09EFD3800C0B207F0F3FEBB
S31508003BD083463800C0B207F0F4FE81463800C0B20A
S31508003BE007F0F5FE8246584607F020FECDE90201A9
S31508003BF0484607F01BFECDE900015246DFF8F01DE6
S31508003C000AA802F0C9F998E144910108A0BB010885
S31508003C109C9801087CAD01086C910108EDB2002D55
S31508003C2024D03800C0B207F0C6FE83463800C0B2BA
S31508003C3007F0C7FE81463800C0B207F0C8FE8246C4
S31508003C40584607F0F3FDCDE90201484607F0EEFDB8
S31508003C50CDE900015246DFF8DC1D0AA802F09CF9FE
S31508003C600AA801F011F80AA901F04CFD3800C0B203
S31508003C7007F0A1FE83463800C0B207F0A2FE8146CF
S31508003C803800C0B207F0A3FE8246584607F0CEFDBC
S31508003C90CDE90201484607F0C9FDCDE900015246C3
S31508003CA0DFF8941D0AA802F077F946E1A8BB0108D7
S31508003CB0C098010894AD010894910108B0BB0108A9
S31508003CC0EDB2002D24D03800C0B207F074FE83464A
S31508003CD03800C0B207F075FE81463800C0B207F05A
S31508003CE076FE8246584607F0A1FDCDE90201484610
S31508003CF007F09CFDCDE900015246DFF8901D0AA8A1
S31508003D0002F04AF90AA800F0BFFF0AA901F0FAFC76
S31508003D103800C0B207F04FFE83463800C0B207F03D
S31508003D2050FE81463800C0B207F051FE824658461A
S31508003D3007F07CFDCDE90201484607F077FDCDE99D
S31508003D4000015246DFF8481D0AA802F025F9F4E0FA
S31508003D50E4980108ACAD0108BC910108B8BB01089C
S31508003D60EDB2002D24D03800C0B207F024FE8346F9
S31508003D703800C0B207F025FE81463800C0B207F009
S31508003D8026FE8246584607F051FDCDE9020148460F
S31508003D9007F04CFDCDE900015246DFF8F81C0AA8E9
S31508003DA002F0FAF80AA800F06FFF0AA901F0AAFCC7
S31508003DB03800C0B207F0FFFD83463800C0B207F0EE
S31508003DC000FE81463800C0B207F001FE824658461A
S31508003DD007F02CFDCDE90201484607F027FDCDE99D
S31508003DE000015246DFF8B01C0AA802F0D5F8A4E094
S31508003DF008990108C4AD0108E4910108C0BB01088F
S31508003E002C990108DCAD0108EDB2002D24D038004C
S31508003E10C0B207F0D0FD83463800C0B207F0D1FD26
S31508003E2081463800C0B207F0D2FD8246584607F0F0
S31508003E30FDFCCDE90201484607F0F8FCCDE9000192
S31508003E405246DFF8581C0AA802F0A6F80AA800F09D
S31508003E501BFF0AA901F056FC3800C0B207F0ABFDFB
S31508003E6083463800C0B207F0ACFD81463800C0B2C0
S31508003E7007F0ADFD8246584607F0D8FCCDE90201A9
S31508003E80484607F0D3FCCDE900015246DFF8101C7E
S31508003E900AA802F081F850E00C920108509901082E
S31508003EA034A501082088010894B70108EDB2002D51
S31508003EB024D03800C0B207F07EFD83463800C0B271
S31508003EC007F07FFD81463800C0B207F080FD8246C4
S31508003ED0584607F0ABFCCDE90201484607F0A6FCB8
S31508003EE0CDE900015246DFF8BC1B0AA802F054F8D7
S31508003EF00AA800F0C9FE0AA901F004FC3800C0B2FD
S31508003F0007F059FD83463800C0B207F05AFD8146CE
S31508003F103800C0B207F05BFD8246584607F086FCBB
S31508003F20CDE90201484607F081FCCDE90001524679
S31508003F30DFF8741B0AA802F02FF80AA9002000F07F
S31508003F40A5FF0600F6B2002E08D03000C0B200F079
S31508003F5097BD00BF54A50108749901087F1CFFF797
S31508003F6097B8EDB2002D0AD0DFF8401B0AA800F07A
S31508003F70B5FE0AA800F088FE0AA901F0C3FBDFF81F
S31508003F80D81B0AA802F008F891E0E0783A2813D07E
S31508003F90EDB2002D0AD0DFF8C41B0AA800F09EFE79
S31508003FA00AA800F071FE0AA901F0ACFBDFF8B01B05
S31508003FB00AA800F093FE4CE05FFA88F8B8F1050FFE
S31508003FC013DAEDB2002D0AD0DFF8981B0AA800F024
S31508003FD085FE0AA800F058FE0AA901F093FBDFF84F
S31508003FE0881B0AA800F07AFE33E0201D309030992D
S31508003FF051A800F073FE309807F0D5FC0600F6B21B
S31508004000002E13D0EDB2002D0AD0DFF8601B0AA8E7
S3150800401000F064FE0AA800F037FE0AA901F072FB58
S315080040203000C0B200F02CBDF4AD0108EDB2002D91
S315080040300AD0DFF83C1B0AA800F050FE0AA800F0D8
S3150800404023FE0AA901F05EFBDFF80C1B0AA801F0A3
S31508004050A3FF2CE007F043FC0600F6B2002E13D0AF
S31508004060EDB2002D0AD0DFF80C1B0AA800F036FEC8
S315080040700AA800F009FE0AA901F044FB3000C0B204
S3150800408000F0FEBC0CAE0108EDB2002D0AD0DFF838
S31508004090E81A0AA800F022FE0AA800F0F5FD0AA907
S315080040A001F030FBDFF8B01A0AA801F075FF00F03E
S315080040B05BBC03F017FCADF8CE00EDB2002D0CD0BA
S315080040C0BDF8CE20DFF8B41A0AA801F065FF0AA8E1
S315080040D000F0DAFD0AA901F015FBBDF8CE20DFF8DD
S315080040E0A01A0AA801F058FF00F03EBC24AE010849
S315080040F0EDB2002D0DD0DFF88C1A0AA800F0EEFDFF
S315080041000AA800F0C1FD0AA901F0FCFA642007F02C
S3150800411083FC07F038FDDFF8701A0AA801F03CFFA7
S3150800412000F022BC74A50108002006005FFA88F892
S31508004130B8F1040F16DAEDB2002D0AD0DFF84C1AE2
S315080041400AA800F0CBFD0AA800F09EFD0AA901F016
S31508004150D9FADFF83C1A0AA800F0C0FD15E300BF3B
S315080041603CAE0108A078522800F04682532840F059
S31508004170F982E078422800F0AC81522806D053280C
S3150800418000F09180542800F017812AE220793A2815
S315080041901AD0EDB2002D0AD0DFF8F8190AA800F0F7
S315080041A09DFD0AA800F070FD0AA901F0ABFADFF838
S315080041B0E8190AA800F092FD74E000BF54AE0108A1
S315080041C06CAE010894A501085FFA88F8B8F1060FE5
S315080041D010DB01202E90052007005FFA88F8474576
S315080041E00ADAE05D07F000FD002801D100202E90D4
S315080041F07F1CF2E700202E902E98002813D1EDB2EE
S31508004200002D0AD0DFF894190AA800F067FD0AA85D
S3150800421000F03AFD0AA901F075FADFF884190AA830
S3150800422000F05CFD3EE0601D3090309951A800F02A
S3150800423055FD51A807F0DDFC2F902F9842F210711A
S31508004240884202DA2F98002816D5EDB2002D0AD03A
S31508004250DFF848190AA800F041FD0AA800F014FD85
S315080042600AA901F04FFADFF838190AA800F036FD56
S3150800427018E000BF84AE01082F9807F074FDEDB270
S31508004280002D0AD0DFF81C190AA800F027FD0AA895
S3150800429000F0FAFC0AA901F035FADFF80C190AA8A9
S315080042A001F07AFEA2E120793A2819D0EDB2002D64
S315080042B00AD0DFF8F8180AA800F010FD0AA800F0DE
S315080042C0E3FC0AA901F01EFADFF8E4180AA800F0D0
S315080042D005FD70E09CAE0108B4AE0108CCAE01083D
S315080042E05FFA88F8B8F1060F10DB01202E9005203A
S315080042F007005FFA88F847450ADAE05D07F074FCBC
S31508004300002801D100202E907F1CF2E700202E9075
S315080043102E98002813D1EDB2002D0AD0DFF8941894
S315080043200AA800F0DBFC0AA800F0AEFC0AA901F016
S31508004330E9F9DFF884180AA800F0D0FC3BE0601D14
S315080043403090309951A800F0C9FC51A807F051FCEB
S315080043502F902F9842F21071884202DA2F9800287F
S3150800436013D5EDB2002D0AD0DFF848180AA800F0D8
S31508004370B5FC0AA800F088FC0AA901F0C3F9DFF821
S3150800438038180AA800F0AAFC15E02F9807F009FDCE
S31508004390EDB2002D0AD0DFF824180AA800F09EFC1A
S315080043A00AA800F071FC0AA901F0ACF9DFF8F817C1
S315080043B00AA801F0F1FD19E120793A2818D0EDB2E2
S315080043C0002D0AD0DFF8F8170AA800F087FC0AA81B
S315080043D000F05AFC0AA901F095F9DFF8E8170AA8CF
S315080043E000F07CFC74E000BFE4AE0108FCAE0108F6
S315080043F05FFA88F8B8F1060F10DB01202E90052029
S3150800440007005FFA88F847450ADAE05D07F0ECFB33
S31508004410002801D100202E907F1CF2E700202E9064
S315080044202E98002816D1EDB2002D0AD0DFF898177D
S315080044300AA800F053FC0AA800F026FC0AA901F015
S3150800444061F9DFF888170AA800F048FC40E000BFC9
S3150800445014AF0108601D3090309951A800F03EFC59
S3150800446051A807F0C6FB2F902F9842F21071884288
S3150800447002DA2F98002815D5EDB2002D0AD0DFF8FC
S3150800448048170AA800F02AFC0AA800F0FDFB0AA9AA
S3150800449001F038F9DFF820170AA800F01FFC17E02A
S315080044A02CAF01082F9807F0A3FCEDB2002D0AD017
S315080044B0DFF81C170AA800F011FC0AA800F0E4FBB4
S315080044C00AA901F01FF9DFF8E0160AA801F064FD51
S315080044D08CE020793A2819D0EDB2002D0AD0DFF801
S315080044E0F4160AA800F0FAFB0AA800F0CDFB0AA900
S315080044F001F008F9DFF8E0160AA800F0EFFB6FE014
S3150800450044AF01085CAF010874AF01085FFA88F888
S31508004510B8F1060F10DB01202E90052007005FFA80
S3150800452088F847450ADAE05D07F05EFB002801D106
S3150800453000202E907F1CF2E700202E902E9800284F
S3150800454013D1EDB2002D0AD0DFF890160AA800F0B4
S31508004550C5FB0AA800F098FB0AA901F0D3F8DFF812
S3150800456080160AA800F0BAFB3AE0601D3090309930
S3150800457051A800F0B3FB51A807F03BFB2F902F98EA
S31508004580B0F57A7F02DA2F98002813D5EDB2002D00
S315080045900AD0DFF848160AA800F0A0FB0AA800F01F
S315080045A073FB0AA901F0AEF8DFF834160AA800F082
S315080045B095FB15E02F9807F02DFCEDB2002D0AD0DB
S315080045C0DFF820160AA800F089FB0AA800F05CFBB1
S315080045D00AA901F097F8DFF8D0150AA801F0DCFC63
S315080045E004E0DFF804160AA800F078FBCDE000BF67
S315080045F08CAF0108A4AF0108E078422800F080805B
S31508004600522804D0532831D054285DD092E0EDB218
S31508004610002D16D007F010FC07F03CFCDFF8CC158F
S3150800462007F048FC07F002F902000B00DFF8C01596
S315080046300AA801F0B1FC0AA800F026FB0AA901F0B5
S3150800464061F807F0F9FB07F025FCDFF8A01507F07D
S3150800465031FC07F0EBF802000B00DFF898150AA802
S3150800466001F09AFC79E000BFB4A50108EDB2002D6F
S3150800467016D007F0E4FB07F00DFCDFF8701507F01D
S3150800468019FC07F0D3F802000B00DFF86C150AA82E
S3150800469001F082FC0AA800F0F7FA0AA901F032F83C
S315080046A007F0CDFB07F0F6FBDFF8401507F002FC34
S315080046B007F0BCF802000B00DFF840150AA801F065
S315080046C06BFC4AE0BCAF0108EDB2002D0DD007F037
S315080046D0BCFB0200DFF828150AA801F05DFC0AA851
S315080046E000F0D2FA0AA901F00DF807F0AEFB0200B5
S315080046F0DFF810150AA801F04FFC2EE0D4AF010828
S31508004700EDB2002D0DD007F0A3FB0200DFF8F81478
S315080047100AA801F041FC0AA800F0B6FA0AA900F0B6
S31508004720F1FF07F095FB0200DFF8E0140AA801F094
S3150800473033FC12E0EDB2002D0AD0DFF8D4140AA833
S3150800474000F0CCFA0AA800F09FFA0AA900F0DAFFEE
S31508004750DFF8C0140AA800F0C1FA16E0ECAF0108A9
S3150800476004B00108EDB2002D0AD0DFF820140AA81B
S3150800477000F0B4FA0AA800F087FA0AA900F0C2FF06
S31508004780DFF894140AA800F0A9FAEDE00020060064
S315080047905FFA88F8B8F1030F13DAEDB2002D0AD0E4
S315080047A0DFF878140AA800F099FA0AA800F06CFA5B
S315080047B00AA900F0A7FFDFF868140AA800F08EFA25
S315080047C04BE0A07844281BD0452833D1EDB2002D04
S315080047D00AD0DFF850140AA800F080FA0AA800F0F8
S315080047E053FA0AA900F08EFFDFF83C140AA801F074
S315080047F0D3FB012007F0EAFA06002EE01CB00108F8
S31508004800EDB2002D0AD0DFF824140AA800F066FAE3
S315080048100AA800F039FA0AA900F074FFDFF81014A4
S315080048200AA801F0B9FB002007F0D0FA060014E048
S31508004830D4A50108EDB2002D0AD0DFF8E0130AA8C6
S3150800484000F04CFA0AA800F01FFA0AA900F05AFF6D
S31508004850DFF8E0130AA800F041FA85E0EDB2002D72
S315080048600AD0DFF8D4130AA800F038FA0AA800F02C
S315080048700BFA0AA900F046FFDFF8C0130AA800F0F1
S315080048802DFA0AA9002000F001FB0600F6B2002E58
S3150800489004D03000C0B2F3E034B00108DFF8A0134A
S315080048A00AA800F01BFA0120DFF8981308705BE0ED
S315080048B007F030FAEDB2002D0AD0DFF88C130AA8FB
S315080048C001F06AFB0AA800F0DFF90AA900F01AFF4E
S315080048D0DFF878130AA801F05FFB45E04CB0010841
S315080048E0EDB2002D0BD0DFF868130AA801F054FBCF
S315080048F00AA800F0C9F90AA900F004FF34E0DFF8B5
S3150800490054130AA801F048FB0AA9002000F0BEFAD1
S315080049100600F6B2002E02D03000C0B2B0E0CE4992
S315080049200AA801F039FB0AA9002000F0AFFA060030
S31508004930F6B2002E06D03000C0B2A1E064B001087D
S315080049407CB00108FEE7EDB2002D09D0BA490AA8E5
S3150800495000F0C4F90AA800F097F90AA900F0D2FEF7
S31508004960AD490AA800F0BAF910E0EDB2002D09D059
S31508004970B1490AA800F0B2F90AA800F085F90AA90F
S3150800498000F0C0FEA4490AA800F0A8F9F6B2002E65
S3150800499008D0022E3FD006D3032E43D04EE000BFE8
S315080049A094B0010850E006F03DFE4690469801286E
S315080049B00AD002280DD0042810D0082813D01028B1
S315080049C018D020281BD01FE0A4490AA800F086F9B1
S315080049D01EE0A3490AA800F081F919E0A1490AA82E
S315080049E000F07CF914E0A0490AA800F077F90FE076
S315080049F0ACB001089D490AA800F070F908E09C4986
S31508004A000AA800F06BF903E09A490AA800F066F9CB
S31508004A1006F0E3FC18E098490AA800F05FF906F0EA
S31508004A20DCFC11E095490AA800F058F906F0D5FC17
S31508004A300AE000BFC4B00108DCB0010890490AA822
S31508004A4000F04CF906F0C9FC0AA9002000F01EFA8D
S31508004A500600F6B2002E02D03000C0B210E0894936
S31508004A600AA800F03BF90AA9002000F00FFA060090
S31508004A70F6B2002E02D03000C0B201E03000C0B25B
S31508004A800DF5806D17B0BDE8F08F0000F4B0010891
S31508004A900CB1010824B101083CB1010854B1010860
S31508004AA06CB1010884B101089CB10108FCB8010881
S31508004AB0F8B50400200000F0E7F80500002007001C
S31508004AC000200600AE4216DAA05D3A2802DAA05D9A
S31508004AD0302805DAA05D472805DAA05D412802DB03
S31508004AE00020070001E001200700012F01D1002066
S31508004AF002E0761CE6E70120F2BD2DE9F04104004C
S31508004B0000275FF00008200000F0BEF8050000202E
S31508004B100600AE421ADAA05D3A2806DAA05D302809
S31508004B2003DBA05D303807000CE0A05D472806DAF5
S31508004B30A05D412803DBA05D3738070002E05FF07F
S31508004B40FF3004E017EB0818761CE2E74046BDE89C
S31508004B50F0813C4800787047C0B60108F4A5010802
S31508004B603492010898990108BC99010814A601080D
S31508004B70CCA9010834A60108E8A9010854A6010829
S31508004B80B4B1010874A60108E099010894A60108C1
S31508004B905C920108049A0108C88A0108289A010843
S31508004BA04C9A0108B4A6010844B90108709A01088C
S31508004BB0F48A0108949A0108B89A0108D4A601084B
S31508004BC0DC9A0108208B0108009B0108249B010838
S31508004BD0F4A60108489B01084C8B01086C9B010848
S31508004BE0909B010814A70108B49B01080000204106
S31508004BF034A701088492010854A70108788B010894
S31508004C0004AA0108CCB1010820AA010874A7010862
S31508004C1094A70108D89B0108F4A20108B4A70108C3
S31508004C20AC9201083CAA0108D492010858AA0108C6
S31508004C30FC92010824930108B4A2010874AA010889
S31508004C4090AA010810670020E4B10108FC86010853
S31508004C50ACAA0108FC9B0108209C01084C9301089A
S31508004C605088010880880108B088010874930108F3
S31508004C70E08801089C930108C4930108EC93010895
S31508004C8014940108C8BB010800F10103810704D088
S31508004C9010F8011B89B18107FAD10268B2F1013116
S31508004CA0914311F0803F04BF50F8042FF6E710F83F
S31508004CB0011B11B110F8011BFBE7C01A7047036806
S31508004CC01AB95A1E026008467047197800290FBF9C
S31508004CD04FF0FF30591C0160187870475FEA000CE6
S31508004CE0830706D011F8013B00F8013BB3B18307EF
S31508004CF0F8D10A68B2F1013323EA020313F0803FC0
S31508004D0002BF40F8042B51F8042FF3E711F8013BD2
S31508004D1000F8013B13B111F8013BF9E7604670470B
S31508004D2080B5DFF88004DFF8801408604FF49640F9
S31508004D30DFF8741448600020DFF86C1488600020DF
S31508004D40DFF86414C8600020DFF85C1408610C20E2
S31508004D50DFF8541448610020DFF84C1488610020FD
S31508004D60DFF84414C861DFF8400407F021F9002889
S31508004D7001D008F01DF901BD80B5DFF83004DFF871
S31508004D80301408605FF4E130DFF82414486000202E
S31508004D90DFF81C1488600020DFF81414C8600020AF
S31508004DA0DFF80C1408610C20DFF8041448614FF48E
S31508004DB04070DFF8FC1388610020DFF8F413C8613F
S31508004DC0DFF8EC0307F0F4F8002801D008F0F0F853
S31508004DD001BD10B586B004002068DFF8C813884204
S31508004DE01ED1DFF8D003006850F40030DFF8C41392
S31508004DF00860DFF8C003006810F4003000900098DF
S31508004E000C200190022002900120039003200490B8
S31508004E100720059001A9DFF8A00308F0E1F833E0C0
S31508004E202068DFF8881388422ED1DFF888030068E7
S31508004E3050F48020DFF87C130860DFF878030068F8
S31508004E4010F48020009000984FF4406001900220F2
S31508004E50029001200390032004900720059001A9E1
S31508004E60DFF8580308F0BCF84FF4C0400190022060
S31508004E70029000200390032004900720059001A9C2
S31508004E80DFF8380308F0ACF806B010BDF8B5040032
S31508004E900D002800FFF7F8FE0700BFB2792F01DBE7
S31508004EA001203AE0E4B2002C19D1DFF814030078A7
S31508004EB0002801D0022030E04FF400433A0092B2B5
S31508004EC02900DFF8E40207F0ACF80600F6B2002E77
S31508004ED002D03000C0B220E03000C0B21DE0E4B21B
S31508004EE0012C19D1DFF8DC020078002801D0022055
S31508004EF013E04FF400433A0092B22900DFF8B002FB
S31508004F0007F08FF80600F6B2002E02D03000C0B2C5
S31508004F1003E03000C0B200E00120F2BDF8B504009D
S31508004F200D002800FFF7B0FE0700BFB2792F01DB9E
S31508004F30012036E0E4B2002C17D1DFF884020078AD
S31508004F40002801D002202CE03A0092B22900DFF8AE
S31508004F50580207F0E4F80600F6B2002E02D0300038
S31508004F60C0B21EE03000C0B21BE0E4B2012C17D17B
S31508004F70DFF850020078002801D0022011E03A003C
S31508004F8092B22900DFF8280207F0C9F80600F6B23F
S31508004F90002E02D03000C0B203E03000C0B200E0FC
S31508004FA00120F2BDDFF8200270470120DFF81C124D
S31508004FB008707047854800787047F8B504000D00FA
S31508004FC01600B6B2792E01DB012032E0E4B2002CDD
S31508004FD015D17B480078002801D0022029E032004C
S31508004FE092B22900704807F0D2F80700FFB2002FE6
S31508004FF002D03800C0B21CE03800C0B219E0E4B2F2
S31508005000012C15D16F480078002801D0022010E045
S31508005010320092B22900664807F0B9F80700FFB2D5
S31508005020002F02D03800C0B203E03800C0B200E05A
S315080050300120F2BD10B504002000C0B200F006F849
S31508005040012801D0002000E0012010BD0100C9B2EE
S31508005050002903D1544890F8390007E0C9B201295C
S3150800506003D1534890F8390000E0042070470168DE
S315080050704C4A914203D10121514A117006E0016858
S315080050804A4A914202D101214E4A11707047C0B274
S31508005090002803D100214A4A117005E0C0B2012850
S315080050A002D10021474A1170704770B50400206884
S315080050B03C49884203D10120414908704CE02068E8
S315080050C03A49884248D1FFF775FF002824D00320C3
S315080050D040490860FFF766FF3F4908603E48006898
S315080050E04078401C0600002005003A4800688542C2
S315080050F00BDA39480068007800F0B7FB36480068D4
S31508005100401C354908606D1CEFE732480660314897
S3150800511000682F4908601CE0FFF744FF2E49086025
S31508005120002005002B48006885420BDA2A480068EB
S31508005130007800F09AFB28480068401C2649086059
S315080051406D1CEFE7032023490860224800682049C0
S31508005150086001201B49087070BD70471448006834
S31508005160C06850F0800012490968C8607047104846
S315080051700068C06850F480700D490968C8600C481A
S315080051800068406950F00100094909684861084803
S315080051900068C06850F0200005490968C860704773
S315080051A000000000004400409463002000480040CE
S315080051B0D463002024380240000002400004024064
S315080051C013670020146700209865002015670020E3
S315080051D048000020FC660020F866002038B5040068
S315080051E00D00DFF8680600680471DFF860060068DD
S315080051F04571DFF85C06DFF8541609680860DFF8C1
S315080052004C060068011DDFF844060068006808F0CF
S3150800521052F9DFF8680A0068001D32BD0020DFF881
S31508005220601AA1F820030020DFF8581A81F89601C1
S315080052300020DFF8501A81F897010020DFF8441A99
S3150800524081F898010020DFF83C1A81F899010020BE
S31508005250DFF8301A81F89A010020DFF8281AA1F839
S315080052609C010120DFF81C1A81F89E017047401C3A
S31508005270C0B2C82800DB0020C0B2704738B50400A9
S315080052800D00002C27D0DFF8FC0990F89301DFF811
S31508005290F41991F8921188421BD00020DFF8E4191E
S315080052A081F89501DFF8DC09DFF8D81991F8931130
S315080052B0084490F8CA0028706D1CDFF8C80990F8F1
S315080052C09301FFF7D4FFDFF8BC1981F89301641E38
S315080052D0D7E7FFF74CFF002032BDDFF8A80990F8A2
S315080052E09501704780B5FFF799FF062006F000F88C
S315080052F00FF21140DFF890190860DFF89009DFF81F
S3150800530090190860DFF88C09DFF88C190860062008
S3150800531005F0E0FF01BD70B586B00025DFF8640929
S31508005320D0F8A001002805D108F0B3F8DFF8541921
S31508005330C1F8A001DFF84C09D0F8A001002800F058
S31508005340EF80DFF84009D0F8A0010068DFF84C19B3
S315080053500840DFF82C19DFF82829B2F8202341F88D
S315080053602200DFF81C09B0F82003C0B2FFF77FFF60
S31508005370DFF80C19A1F82003DFF80809D0F8A00116
S315080053800068DFF81819084004002000DFF8101933
S3150800539088422AD0DFF80C19884258D0DFF8081955
S315080053A0884200F08280DFF80419884229D0DFF8A5
S315080053B00019884279D0DFF8FC18884257D0DFF800
S315080053C0F818884200F09280DFF8F01888425AD020
S315080053D0DFF8EC18884262D0DFF8E818884264D013
S315080053E0DFF8E41888425AD08BE0DFF8E01800208E
S315080053F0FFF74CFD012005000120DFF8881881F829
S3150800540096010020DFF87C1881F897010221022016
S31508005410FFF7E4FE06003088002817D1EDB2002D0C
S315080054200FD1DFF8AC180020FFF730FD02210D2060
S3150800543008F080F802F099FA0D2008F0CBF806F08B
S31508005440A2FB0020DFF83C18C1F8A00168E0DFF8ED
S3150800545084180020FFF71AFD0120DFF8281881F8C4
S3150800546097010020DFF81C18C1F8A00158E0A3A195
S315080054700020FFF70BFD02F089FA0020DFF8041878
S31508005480C1F8A0014CE09EA10020FFF7FFFC02F046
S315080054907DFA0020DFF8EC17C1F8A00140E00020F3
S315080054A0DFF8E017C1F8A0013AE0DFF82C18002071
S315080054B0FFF7ECFCDFF8CC07D0F8A001807A0028CB
S315080054C00ED0DFF8C007D0F8A00110F10B02DFF804
S315080054D00C18684600F060FD69460020FFF7D6FC08
S315080054E00020DFF8A017C1F8A00119E0DFF8F017CF
