S02E0000526F616420426F61726420526576204D2E3520424153454C494E4520446563203920323031362E737265637A
S31508000000504100202DDC0108F9E00108CFFD000869
S31508000010E3FD0008FDE00108F7FD00080000000008
S315080000200000000000000000000000006F930108B7
S3150800003001E10108000000001D930108B1940108C0
S31508000040F1CE000805E1010809E101080DE1010802
S3150800005011E1010815E1010819E101081DE101088E
S3150800006021E1010825E1010829E10108B9940108FF
S315080000702DE1010831E1010835E1010839E10108FE
S315080000803DE1010841E1010845E1010849E10108AE
S31508000090C39401084DE1010851E1010855E1010841
S315080000A059E101085DE1010861E1010865E101081E
S315080000B0FF94010809950108CD940108EB940108FD
S315080000C0F594010869E101086DE1010871E101088B
S315080000D075E1010879E10108E1940108D79401085E
S315080000E07DE1010881E1010885E1010889E101084E
S315080000F08DE101080000000091E1010895E1010881
S3150800010099E101089DE10108A1E10108A5E10108BD
S31508000110A9E10108ADE10108B1E10108000000000C
S31508000120B5E1010801204E4981F8000101204D4939
S3150800013081F800010020704738B50400494890F856
S315080001400001022801D102201FE0464890F800016C
S31508000150002801D1012018E0200005F01FF8FF282B
S3150800016001D9012011E000200500FF2D04DC002044
S315080001703C4948556D1CF8E721003A4805F038F81F
S315080001800220384981F80001002032BD38B5040044
S31508000190334890F80001022801D102201FE03048B8
S315080001A090F80001002801D1012018E0200004F091
S315080001B0F5FFFF2801D9012011E000200500FF2DD9
S315080001C004DC0020264948556D1CF8E72100244820
S315080001D005F00EF80220224981F80001002032BD00
S315080001E010B594B01F4890F80001022819D11D4A8D
S315080001F01D49684605F01EF86946002005F0EAF82C
S315080002000400E4B2002C02D02000C0B225E0154854
S3150800021004F0C4FF134905F09BFD0120114981F83C
S3150800022000010F4890F80001022815D106F0A5FC38
S31508000230002805D001210A4806F01EF9040004E04A
S315080002400121074800F012F804000120044981F84A
S3150800025000012000C0B200E0002014B010BD00006C
S31508000260645F0020686000208CDB01082DE9F04FF0
S31508000270ADF5A06D8DB004000D00200004F08EFFD2
S315080002808DF8280000200600DFF8F40D0078002815
S315080002901ED020781B2815D10020DFF8E41D087031
S315080002A0DFF8E01D0BA804F0A3FF0BA9002005F05A
S315080002B091F80600F6B2002E04F04B863000C0B264
S315080002C004F049BE2100012005F042FD04F041BEBC
S315080002D0207830282FD0312848D0322879D03328B2
S315080002E000F0AA80342800F0DA80352800F00A8168
S315080002F0362800F07D81412800F09381422800F0DD
S31508000300EE82432800F0B485442800F0B5874528D6
S3150800031001F03081462801F04281472801F05A81D0
S31508000320482801F0D781502801F0B684542801F0F6
S31508000330E18404F07DBD06F0E2FC0600F6B2002E6C
S3150800034012D1EDB2002D0AD0DFF81C1E0BA804F05E
S315080003504FFF0BA804F022FF0BA905F0F9FCDFF804
S315080003600C1E0BA804F044FF04F073BD91A806F018
S3150800037018FD0600DFF8FC1D0BA804F039FF0BA9D1
S31508000380002005F027F80600F6B2002E03D030004C
S31508000390C0B204F0E0BDEDB2002D0BD091AADFF893
S315080003A0D81D0BA804F046FF0BA804F0F7FE0BA90E
S315080003B005F0CEFCDFF8C41D0BA804F03BFF91A99D
S315080003C00BA806F07FFDDAA10BA806F07BFD04F06A
S315080003D040BD91A806F001FD0600DFF8A41D0BA894
S315080003E004F006FF0BA9002004F0F4FF0600F6B29D
S315080003F0002E03D03000C0B204F0ADBDEDB2002D22
S315080004000BD091AADFF8201E0BA804F013FF0BA847
S3150800041004F0C4FE0BA905F09BFCDFF8101E0BA820
S3150800042004F008FF91A90BA806F04CFDC0A10BA883
S3150800043006F048FD04F00DBD91A806F0ECFC060098
S31508000440DFF8EC1D0BA804F0D3FE0BA9002004F07E
S31508000450C1FF0600F6B2002E03D03000C0B204F089
S315080004607ABDEDB2002D0BD091AADFF8F41D0BA8CA
S3150800047004F0E0FE0BA804F091FE0BA905F068FC59
S31508000480DFF8E01D0BA804F0D5FE91A90BA806F02D
S3150800049019FDA7A10BA806F015FD04F0DABC91A872
S315080004A006F0D7FC0600DFF8C01D0BA804F0A0FE76
S315080004B00BA9002004F08EFF0600F6B2002E03D02A
S315080004C03000C0B204F047BDEDB2002D0BD091AAA2
S315080004D0DFF8981D0BA804F0ADFE0BA804F05EFE2D
S315080004E00BA905F035FCDFF8881D0BA804F0A2FE61
S315080004F091A90BA806F0E6FC8DA10BA806F0E2FC74
S3150800050004F0A7BC06F0C8FB4890DFF8681D0BA8E6
S3150800051004F06EFE91A806F044FC06000BA9002024
S3150800052004F058FF0600F6B2002E03D03000C0B221
S3150800053004F011BDEDB2002D0AD0DFF8181E0BA885
S3150800054004F056FE0BA804F029FE0BA905F000FCE2
S3150800055000208046D9A10BA804F06CFE00200700F5
S31508000560802F30DA4898C257DFF8EC1D2BA804F024
S3150800057061FE2BA90BA806F0A5FC18F10108B8F135
S31508000580100F1EDB6AA10BA806F09CFC0020804613
S315080005900BA9002004F01EFF0600F6B2002E03D0B9
S315080005A03000C0B204F0D7BCEDB2002D05D00BA8C0
S315080005B004F0F4FD0BA905F0CBFBC0A10BA804F0D1
S315080005C039FE7F1CCCE7EDB2002D0AD0DFF8D01D2E
S315080005D00BA804F00DFE0BA804F0E0FD0BA905F02E
S315080005E0B7FBDFF8C01D0BA804F024FE04F031BCED
S315080005F00020060006F04BFCEDB2002D0AD0DFF80D
S31508000600201E0BA804F0F4FD0BA804F0C7FD0BA9E7
S3150800061005F09EFBDFF80C1E0BA804F0E9FD04F0BC
S3150800062018BC9DF82800012800F057816078362804
S3150800063039D0382800F0BA80392800F024814928B2
S3150800064040F0468106F04CFC0600EDB2002D0AD0BB
S31508000650DFF8D41D0BA804F0CBFD0BA804F09EFD13
S315080006600BA905F075FBF6B2002E05D1DFF8BC1D07
S315080006700BA804F0BDFD15E0DFF8B41D0BA804F0C7
S31508000680B7FD8DF829600BA9002004F0A3FE06002B
S31508000690F6B2002E03D03000C0B204F05CBC9DF860
S315080006A02900060019E1AEA806F08DFC0600F6B290
S315080006B0002E04D1FFA8383006F03CFC0600F6B23E
S315080006C0002E5CD1DFF8041E0BA804F091FD0BA9DF
S315080006D0002004F07FFE0600F6B2002E03D030009C
S315080006E0C0B204F038BCDFF8E81D0BA804F0A2FD80
S315080006F00BA9002004F06EFE0600F6B2002E03D009
S315080007003000C0B204F027BCFFAB3833AEAADFF81E
S31508000710C41D0BA804F08EFD0BA9002004F05AFE98
S315080007200600F6B2002E05D03000C0B204F013BCA5
S315080007300D0A0000EDB2002D0DD0FFAB3833AEAA7E
S31508000740DFF8981D0BA804F075FD0BA804F026FD2C
S315080007500BA905F0FDFADFF8881D0BA804F06AFD61
S31508000760B1A90BA806F0AEFBB49ADFF8781D2BA842
S3150800077004F060FD2BA90BA806F0A4FB15E0DFF832
S31508000780681D0BA804F034FD8DF829600BA900201C
S3150800079004F020FE0600F6B2002E03D03000C0B2E8
S315080007A004F0D9BB9DF82900060096E03CA806F09F
S315080007B04EFC0600F6B2002E27D1DFF80C1E0BA859
S315080007C004F016FD0BA9002004F004FE0600F6B29C
S315080007D0002E03D03000C0B204F0BDBBDFF8EC1D1C
S315080007E00BA804F027FD0DF1FE010BA806F06AFB25
S315080007F0DBA10BA806F066FB0BA9002004F0EAFDB6
S315080008000600F6B2002E01D104E066E03000C0B260
S3150800081004F0A1BBBDF80621DFF8B41D0BA804F04F
S3150800082009FD0BA9002004F0D5FD0600F6B2002E3E
S3150800083003D03000C0B204F08EBBEDB2002D0AD052
S31508000840DFF8E41B0BA804F0D3FC0BA804F0A6FC05
S315080008500BA905F07DFADFF81C1E0BA804F0EAFCCC
S315080008603CA90BA806F02EFBDFF80C1E0BA806F019
S3150800087029FB0DF1F7010BA806F024FBB8A10BA87C
S3150800088006F020FB29E006F041FC0600EDB2002D3B
S315080008900AD0DFF8941B0BA804F0AAFC0BA804F0F6
S315080008A07DFC0BA905F054FAF6B2002E08D1DFF844
S315080008B0181E0BA804F09CFC09E000BF000000000D
S315080008C0DFF8081E0BA804F093FC0020060004E0DD
S315080008D0DFF8FC1D0BA804F08BFC04F0BABA9DF8EF
S315080008E02800012840F05181052008F07DF80028ED
S315080008F00BD05BA809F062FC0600F6B2002E17D1F1
S31508000900D7A809F0D5F8060012E0062008F06CF81A
S3150800091000280BD05BA808F067FD0600F6B2002E8B
S3150800092006D1D7A808F0F5F9060001E0012006006F
S31508000930EDB2002D0AD0DFF82C1E0BA804F058FCE7
S315080009400BA804F02BFC0BA905F002FAF6B2002E50
S3150800095040F00881DFF8101E0BA804F049FC0BA92B
S31508000960002004F037FD0600F6B2002E03D0300052
S31508000970C0B204F0F0BA00200700092F80F2DE802A
S31508000980002F0FD0022F35D020D3042F5AD045D3AD
S31508000990062F00F07F8069D3082F00F0A480C0F0EE
S315080009A08D80B4E0BDF882010390D8A8C01C0290DF
S315080009B05CA8C01C0190D7A800905BAB0DF5BD7272
S315080009C0DFF80C1E0BA804F035FCA0E0BDF89A0170
S315080009D00390DEA8C01C029062A8C01C0190DDA886
S315080009E0009061AB0DF5C972DFF8E81D0BA804F09D
S315080009F021FC8CE0BDF8B2010390E4A8C01C02906B
S31508000A0068A8C01C0190E3A8009067AB0DF5D572E5
S31508000A10DFF8C01D0BA804F00DFC78E0BDF8CA018C
S31508000A200390EAA8C01C02906EA8C01C0190E9A811
S31508000A3000906DAB0DF5E172DFF8981D0BA804F078
S31508000A40F9FB64E0BDF8E2010390F0A8C01C02902F
S31508000A5074A8C01C0190EFA8009073AB0DF5ED7259
S31508000A60DFF8701D0BA804F0E5FB50E0BDF8FA01AD
S31508000A700390F6A8C01C02907AA8C01C0190F5A89D
S31508000A80009079AB0DF5F972DFF8481D0BA804F054
S31508000A90D1FB3CE0BDF812020390FCA8C01C0290F2
S31508000AA080A8C01C0190FBA800907FAB82AA921C6C
S31508000AB0DFF8201D0BA804F0BDFB28E0BDF82A02CC
S31508000AC00390FFA80F30029086A8C01C0190FFA8CB
S31508000AD00830009085AB88AA921CDFF8F81C0BA892
S31508000AE004F0A8FB13E0BDF842020390FFA82730E4
S31508000AF002908CA8C01C0190FFA8203000908BABF8
S31508000B008EAA921CDFF8CC1C0BA804F093FBEDB25E
S31508000B10002D05D00BA804F041FB0BA905F018F928
S31508000B200BA9002004F056FC0600F6B2002E03D0EE
S31508000B303000C0B204F00FBA7F1C1EE7DFF8001EB3
S31508000B400BA804F077FB44A90BA806F0BBF904A18F
S31508000B500BA806F0B7F9EDB2002D05D10FE000BFDE
S31508000B600D0A000004F075B9DFF834180BA804F074
S31508000B703FFB0BA804F012FB0BA905F0E9F8DFF818
S31508000B800C1E0BA804F056FB70E1607830281FD0C5
S31508000B90312800F05281492840F0688108F0D2FED9
S31508000BA00600EDB2002D0AD0DFF87C180BA804F079
S31508000BB01FFB0BA804F0F2FA0BA905F0C9F8F6B268
S31508000BC0002E04D1DFF80C1E0BA804F011FB4DE132
S31508000BD0052007F009FF00280BD05BA809F0EEFAFC
S31508000BE00600F6B2002E17D1D7A808F061FF060056
S31508000BF012E0062007F0F8FE00280BD05BA808F0E4
S31508000C00F3FB0600F6B2002E06D1D7A808F081F845
S31508000C10060001E001200600EDB2002D0AD0DFF83B
S31508000C2008180BA804F0E4FA0BA804F0B7FA0BA905
S31508000C3005F08EF8F6B2002E40F0FE80DFF8281B8D
S31508000C400BA804F0D5FA0BA9002004F0C3FB060094
S31508000C50F6B2002E03D03000C0B204F07CB90020F2
S31508000C600700092F80F2D580002F0FD0022F35D02C
S31508000C7020D3042F5AD045D3062F00F07F8069D39E
S31508000C80082F00F0A480C0F08D80B4E0BDF8820182
S31508000C900390D8A8C01C02905CA8C01C0190D7A8D5
S31508000CA000905BAB0DF5BD72DFF8241B0BA804F0B2
S31508000CB0C1FAA0E0BDF89A010390DEA8C01C029014
S31508000CC062A8C01C0190DDA8009061AB0DF5C97241
S31508000CD0DFF8001B0BA804F0ADFA8CE0BDF8B201F2
S31508000CE00390E4A8C01C029068A8C01C0190E3A861
S31508000CF0009067AB0DF5D572DFF8D81A0BA804F08B
S31508000D0099FA78E0BDF8CA010390EAA8C01C0290D7
S31508000D106EA8C01C0190E9A800906DAB0DF5E172B4
S31508000D20DFF8B01A0BA804F085FA64E0BDF8E20112
S31508000D300390F0A8C01C029074A8C01C0190EFA8EC
S31508000D40009073AB0DF5ED72DFF8881A0BA804F066
S31508000D5071FA50E0BDF8FA010390F6A8C01C02909B
S31508000D607AA8C01C0190F5A8009079AB0DF5F97228
S31508000D70DFF8601A0BA804F05DFA3CE0BDF8120231
S31508000D800390FCA8C01C029080A8C01C0190FBA878
S31508000D9000907FAB82AA921CDFF8381A0BA804F0E1
S31508000DA049FA28E0BDF82A020390FFA80F300290FE
S31508000DB086A8C01C0190FFA80830009085AB88AAB9
S31508000DC0921CDFF8101A0BA804F034FA13E0BDF8E9
S31508000DD042020390FFA8273002908CA8C01C0190FD
S31508000DE0FFA8203000908BAB8EAA921CDFF8E4197E
S31508000DF00BA804F01FFA0BA9002004F0EBFA060072
S31508000E00F6B2002E03D03000C0B204F0A4B87F1C9E
S31508000E1027E7DFF82C1B0BA804F00CFA44A90BA84B
S31508000E2006F050F8D2A10BA806F04CF8DFF85C1BC8
S31508000E300BA804F0FFF919E018E008F0EEFD06002B
S31508000E40EDB2002D0AD0DFF8E0150BA804F0D0F9B2
S31508000E500BA804F0A3F90BA904F07AFFF6B2002E4A
S31508000E6004D1DFF8B81D0BA804F0C2F903F0F1BFEE
S31508000E709DF82800012852D142A80AF014F8060065
S31508000E80F6B2002E03D14EA809F094FF0600F6B27A
S31508000E90002E26D1DFF8E81D0BA804F0A9F90BA946
S31508000EA0002004F097FA0600F6B2002E03D03000B0
S31508000EB0C0B204F050B8DFF8CC1D0BA804F0BAF99C
S31508000EC044A90BA805F0FEFFA9A10BA805F0FAFF97
S31508000ED00BA9002004F07EFA0600F6B2002E02D115
S31508000EE005E003F0B6BF3000C0B204F034B8EDB286
S31508000EF0002D0CD04EAB42AADFF8F41D0BA804F067
S31508000F0099F90BA804F04AF90BA904F021FF4EAB96
S31508000F1042AADFF8141E0BA804F08CF99DE160784C
S31508000F20302824D0312874D0322800F0CA803328DB
S31508000F3000F02881492840F07D8109F00BFC060065
S31508000F40EDB2002D0AD0DFF8E0140BA804F050F932
S31508000F500BA804F023F90BA904F0FAFEF6B2002E4A
S31508000F6004D1DFF8C81D0BA804F042F975E142A8C0
S31508000F7009F0C7FC0600F6B2002E03D14EA809F008
S31508000F8044FC0600F6B2002E26D1DFF8DC170BA8C3
S31508000F9004F02EF90BA9002004F01CFA0600F6B29C
S31508000FA0002E03D03000C0B203F0D5BFDFF8901989
S31508000FB00BA804F03FF944A90BA805F083FF6CA120
S31508000FC00BA805F07FFF0BA9002004F003FA060022
S31508000FD0F6B2002E01D104E03FE13000C0B203F0C2
S31508000FE0BABFEDB2002D0CD04EAB42AADFF8001EF8
S31508000FF00BA804F01FF90BA804F0D0F80BA904F00D
S31508001000A7FE4EAB42AADFF8EC1D0BA804F012F9B6
S3150800101023E1D1A809F068FD0600F6B2002E03D137
S31508001020CDA809F0E5FC0600F6B2002E2CD1DFF8B3
S31508001030C81D0BA804F0DCF80BA9002004F0CAF9B7
S315080010400600F6B2002E03D03000C0B203F083BF0C
S31508001050DFF8A81D0BA804F0EDF8D3A9491C0BA8C6
S3150800106005F030FF42A10BA805F02CFF0BA90020C4
S3150800107004F0B0F90600F6B2002E06D109E000BF6A
S31508001080396A0020809F0108E7E03000C0B203F00B
S3150800109062BFEDB2002D0CD0CDABD1AADFF8FC1D96
S315080010A00BA804F0C7F80BA804F078F80BA904F00D
S315080010B04FFECDABD1AADFF8E81D0BA804F0BAF8AD
S315080010C0CBE0C9A809F001FE0600F6B2002E03D14E
S315080010D0C5A809F080FD0600F6B2002E27D1DFF874
S315080010E0C41D0BA804F084F80BA9002004F072F9BB
S315080010F00600F6B2002E03D03000C0B203F02BBFB4
S31508001100DFF8A41D0BA804F095F8CBA9491C0BA879
S3150800111005F0D8FE16A10BA805F0D4FE0BA90020F1
S3150800112004F058F90600F6B2002E01D104E094E066
S315080011303000C0B203F00FBFEDB2002D0CD0C5AB26
S31508001140C9AADFF8681D0BA804F074F80BA804F008
S3150800115025F80BA904F0FCFDC5ABC9AADFF8501D9C
S315080011600BA804F067F878E0B4B30108D099010831
S315080011700D0A000040AA0108F4C2010814C30108B8
S3150800118068AA010842A809F08EFE0600F6B2002EEB
S3150800119003D14EA809F00EFE0600F6B2002E26D19F
S315080011A0DFF8DC1A0BA804F023F80BA9002004F0DA
S315080011B011F90600F6B2002E03D03000C0B203F0D3
S315080011C0CABEDFF8C01A0BA804F034F844A90BA865
S315080011D005F078FEC0A10BA805F074FE0BA9002047
S315080011E004F0F8F80600F6B2002E01D104E034E067
S315080011F03000C0B203F0AFBEEDB2002D0CD04EAB3E
S3150800120042AADFF8EC1A0BA804F014F80BA803F0AE
S31508001210C5FF0BA904F09CFD4EAB42AADFF8081BDC
S315080012200BA804F007F818E034C3010854C30108F2
S3150800123090AA0108EDB2002D0AD0DFF8101E0BA8FF
S3150800124003F0D6FF0BA803F0A9FF0BA904F080FD55
S31508001250DFF87C140BA803F0CBFF03F0FABD00BF40
S3150800126074C3010894C30108B8AA0108B4C30108E5
S31508001270D4C30108E0AA01089DF8280001286DD109
S3150800128049A80AF077F80600F6B2002E04D10DF543
S315080012908A6009F0ECFE0600F6B2002E26D1DFF8C9
S315080012A0B01D0BA803F0A4FF0BA9002004F092F8C8
S315080012B00600F6B2002E03D03000C0B203F04BBED3
S315080012C0DFF8FC1D0BA803F0B5FF4BA90BA805F02A
S315080012D0F9FD81A10BA805F0F5FD0BA9002004F086
S315080012E079F80600F6B2002E02D105E003F0B1BD8A
S315080012F03000C0B203F02FBEBDF83421DFF8C41D9C
S315080013000BA803F097FF0BA9002004F063F806006A
S31508001310F6B2002E03D03000C0B203F01CBEEDB208
S31508001320002D0DD00DF58A6349AADFF89C1D0BA880
S3150800133003F080FF0BA803F031FF0BA904F008FDAA
S315080013400DF58A6349AADFF8841D0BA803F072FF1E
S315080013500EE100BFFCCA0108D4DF01086078302816
S3150800136022D0312800F08C80492840F0018109F00C
S315080013702BFE0600EDB2002D09D02B490BA803F071
S3150800138037FF0BA803F00AFF0BA904F0E1FCF6B23D
S31508001390002E04D1DFF8381D0BA803F029FFE7E07B
S315080013A080DD010864D9010849A809F0E3FF0600B1
S315080013B0EDB2002D09D01C490BA803F019FF0BA8A4
S315080013C003F0ECFE0BA904F0C3FCF6B2002E31D1F3
S315080013D0DFF87C1C0BA803F00BFF0BA9002003F019
S315080013E0F9FF0600F6B2002E03D03000C0B203F0B3
S315080013F0B2BDDFF8CC1C0BA803F01CFF4BA90BA849
S3150800140005F060FD34A10BA805F05CFD0BA90020D2
S3150800141003F0E0FF0600F6B2002E0CD10FE000BF85
S3150800142018CB0108D8B30108F4C3010808AB0108B2
S3150800143030AB01089CE03000C0B203F08CBDBDF8AB
S315080014403421DFF8801C0BA803F0F4FE0BA900205A
S3150800145003F0C0FF0600F6B2002E03D03000C0B27B
S3150800146003F079BDDFF8C81D0BA803F0E3FE49A910
S315080014700BA805F027FD18A10BA805F023FD77E0BA
S315080014803CA80AF076FA0600EDB2002D0AD0DFF87D
S31508001490A41D0BA803F0ACFE0BA803F07FFE0BA956
S315080014A004F056FCF6B2002E36D1DFF8A41B0BA8C2
S315080014B003F09EFE0BA9002003F08CFF0600F6B28F
S315080014C0002E13D03000C0B203F045BD58AB01085A
S315080014D0B89F010878D901080D0A0000FCB3010875
S315080014E09CDB01088CDD010880AB010837490BA895
S315080014F003F0A0FE0DF1FE010BA805F0E3FCB6A172
S315080015000BA805F0DFFC0BA9002003F063FF06001B
S31508001510F6B2002E01D104E02AE03000C0B203F092
S315080015201ABDBDF806212A490BA803F083FE0BA9AC
S31508001530002003F04FFF0600F6B2002E03D030005D
S31508001540C0B203F008BD4B490BA803F073FE3CA9D3
S315080015500BA805F0B7FC48490BA805F0B3FC0DF13C
S31508001560F7010BA805F0AEFC9BA10BA805F0AAFC99
S3150800157003F06FBCEDB2002D0AD0DFF8B81C0BA83B
S3150800158003F036FE0BA803F009FE0BA904F0E0FBF6
S31508001590DFF8801D0BA803F02BFE03F05ABCEDB252
S315080015A0002D0AD0DFF88C1C0BA803F021FE0BA82F
S315080015B003F0F4FD0BA904F0CBFBDFF85C1D0BA8C8
S315080015C003F016FE03F045BCA8AB01088CD9010848
S315080015D014C401083CA80AF001FC0600F6B2002E65
S315080015E003D1BFA80AF04EFB0600F6B2002E27D19B
S315080015F0DFF8281D0BA803F0FBFD0BA9002003F05C
S31508001600E9FE0600F6B2002E03D03000C0B203F0A1
S31508001610A2BCDFF80C1D0BA803F00CFE0DF1FE01B1
S315080016200BA805F04FFC6CA10BA805F04BFC0BA909
S31508001630002003F0CFFE0600F6B2002E02D105E028
S3150800164003F007BC3000C0B203F085BCBDF8062124
S31508001650DFF8EC1D0BA803F0EDFD0BA9002003F045
S31508001660B9FE0600F6B2002E08D03000C0B203F06C
S3150800167072BC00BFACDB0108BCDB0108EDB2002D73
S3150800168012D0C0A8C01C01900DF1F7000090BFABA6
S315080016903CAADFF8041E0BA803F0CCFD0BA803F048
S315080016A07DFD0BA904F054FBC0A8C01C01900DF1E8
S315080016B0F7000090BFAB3CAADFF8E01D0BA803F0CB
S315080016C0B9FD03F0C6BB00BFD0AB0108F8AB0108F3
S315080016D034C401089DF82800012840F08180B5A887
S315080016E00AF02CFD0600F6B2002E77D1DFF8DC1DD5
S315080016F00BA803F07DFD0BA9002003F06BFE060086
S31508001700F6B2002E03D03000C0B203F024BCDFF8D6
S31508001710EC1D0BA803F08EFD0BA9002003F05AFE62
S315080017200600F6B2002E03D03000C0B203F013BC98
S31508001730DFF8CC1D0BA803F05BFDBBA90BA805F0D1
S31508001740C1FB25A10BA805F0BDFB0BA9002003F0E2
S3150800175041FE0600F6B2002E08D03000C0B203F0F3
S31508001760FABB00BF34CB010820B40108EDB2002D46
S315080017700ED0B9A80090B7ABB5AADFF8D41D0BA850
S3150800178003F058FD0BA803F009FD0BA904F0E0FAD5
S31508001790DFF8C01D0BA803F02BFDB5A90BA805F0B3
S315080017A091FBDFF8B41D0BA805F08CFBB7A90BA8B5
S315080017B005F088FBDFF8D81D0BA805F083FBB9A94F
S315080017C00BA805F07FFB04A10BA805F07BFB61E2E3
S315080017D0C4A30108F4A301080D0A000003F039BBED
S315080017E06078302800F05F81312800F0CD813228FA
S315080017F000F0FA81332800F01482492840F0458227
S315080018009DF8280002281AD10AF096FB0600EDB2C8
S31508001810002D0AD0DFF81C1A0BA803F0E9FC0BA868
S3150800182003F0BCFC0BA904F093FAF6B2002E40F0C4
S315080018303981DFF8601D0BA803F0DAFC32E1EDB25E
S31508001840002D0AD0DFF8EC190BA803F0D1FC0BA881
S3150800185003F0A4FC0BA904F07BFA9DF828001D28C8
S3150800186005D0DFF8CC1D0BA803F0C2FC1AE1A0785E
S315080018703A2817D160792E2814D1207A2E2811D12A
S31508001880E07A2E280ED1A07B2E280BD1607C2E283C
S3150800189008D1207D2E2805D1E07D2E2802D1A07EF4
S315080018A02E2805D0DFF8941D0BA803F0A1FCF9E05B
S315080018B00020359000200700092F26DA032000FBB8
S315080018C007F0204490F903008DF8AC00032000FBD4
S315080018D007F0204490F904008DF8AD0000208DF83B
S315080018E0AE002BA803F05EFB002807D1DFF8C81D61
S315080018F00BA803F07DFC0120359006E02BA803F029
S3150800190076FB9AA9C8557F1CD6E79DF86802082871
S3150800191005DBDFF8A81D0BA803F06AFCBAE19DF801
S31508001920680210F007008DF8CE009DF869020228BB
S3150800193008DBDFF8041E0BA803F05AFCAAE100BF77
S315080019403CCE01089DF8690210F00100C0B2C00043
S315080019508DF8CD009DF86A02022805DBDFF8DC1D4C
S315080019600BA803F045FC95E19DF86A0210F001000A
S31508001970C0B200018DF8CC009DF86B02022807DB87
S31508001980DFF8BC1D0BA803F033FC83E1A0D90108DE
S315080019909DF86B0210F00100C0B240018DF8CB0033
S315080019A09DF86C02402805DBDFF8101E0BA803F033
S315080019B01FFC6FE19DF86C0210F03F008DF8CA001D
S315080019C09DF86D02022807DBDFF8F41D0BA803F06B
S315080019D00FFC5FE1F09F01089DF86D0210F0010011
S315080019E0802148438DF8C9009DF86E02042805DB5E
S315080019F0DFF8D01D0BA803F0FBFB4BE19DF86E0248
S31508001A0010F003008DF8C8009DF86F02042805DB66
S31508001A10DFF82C1E0BA803F0EBFB3BE19DF86F02E9
S31508001A2010F00300C0B280008DF82B009DF87002FC
S31508001A30022805DBDFF80C1E0BA803F0D9FB29E109
S31508001A409DF8700210F00100C0B200018DF82A005E
S31508001A509DF8CE009DF8CD1008189DF8CC100818F2
S31508001A609DF8CB1008188DF8EC009DF8CA009DF873
S31508001A70C91008188DF8ED009DF8C8009DF82B10C0
S31508001A8008189DF82A1008188DF8EE003BA80AF0E9
S31508001A907BFA0600F6B2002E04D1DFF8AC1D0BA8BF
S31508001AA003F0A6FBF6E0B5A80AF048FB0600EDB27F
S31508001AB0002D0AD0DFF87C170BA803F099FB0BA8BA
S31508001AC003F06CFB0BA904F043F9F6B2002E5AD1C9
S31508001AD0DFF8F8190BA803F08BFB0BA9002003F01D
S31508001AE079FC0600F6B2002E03D03000C0B203F02F
S31508001AF032BADFF8081A0BA803F09CFB0BA90020E2
S31508001B0003F068FC0600F6B2002E03D03000C0B21F
S31508001B1003F021BADFF8E8190BA803F069FBBBA9A3
S31508001B200BA805F0CFF9DCA10BA805F0CBF90BA99A
S31508001B30002003F04FFC0600F6B2002E03D030005A
S31508001B40C0B203F008BADFF80C1A0BA803F050FB72
S31508001B50B5A90BA805F0B6F9DFF8FC190BA805F02E
S31508001B60B1F9B7A90BA805F0ADF9DFF8241A0BA847
S31508001B7005F0A8F9B9A90BA805F0A4F9C6A10BA800
S31508001B8005F0A0F986E085E057A80AF090FA060065
S31508001B90EDB2002D0AD0DFF89C160BA803F028FB3F
S31508001BA00BA803F0FBFA0BA904F0D2F8F6B2002E44
S31508001BB019D1DFF8F41D0BA803F01AFB9DF85C2178
S31508001BC0DFF8E81D2BA803F035FB2BA90BA805F0B9
S31508001BD079F957A9491C0BA805F074F9AEA10BA809
S31508001BE005F070F956E055E00AF0F8F90600EDB28E
S31508001BF0002D0AD0DFF83C160BA803F0F9FA0BA85B
S31508001C0003F0CCFA0BA904F0A3F8F6B2002E07D11C
S31508001C10DFF8101E0BA803F0EBFA3BE0CCA5010891
S31508001C2038E059A80AF0FCF90600EDB2002D0AD0F2
S31508001C30DFF800160BA803F0DBFA0BA803F0AEFAE0
S31508001C400BA904F085F8F6B2002E1DD1DFF8D81DD1
S31508001C500BA803F0CDFA9DF86421DFF8501D2BA8D8
S31508001C6003F0E8FA2BA90BA805F02CF959A9491C89
S31508001C700BA805F027F988A10BA805F023F909E0B8
S31508001C8020AC010854CE010804E0DFF8141E0BA8A6
S31508001C9003F0AEFA03F0DDB86078442818D055286A
S31508001CA01FD104200AF0B6FBEDB2002D0AD0DFF8EA
S31508001CB084150BA803F09CFA0BA803F06FFA0BA97E
S31508001CC004F046F8DFF8DC1D0BA803F091FA0DE0E6
S31508001CD004200AF0ADFBDFF8D01D0BA803F088FA44
S31508001CE004E0DFF8C81D0BA803F082FA03F0B1B8C8
S31508001CF054C401089DF82800022819DAEDB2002D0F
S31508001D000AD0DFF830150BA803F072FA0BA803F017
S31508001D1045FA0BA904F01CF8DFF8081E0BA803F017
S31508001D2067FA03F084B800BF50CB0108F8A501088C
S31508001D306078422802F0D986432800F0F3824428C6
S31508001D4002F01D82462802F08586492813D04B28C2
S31508001D5002F050824C2802F093864D2802F05086F5
S31508001D60522802F02B82532802F0EA86552802F000
S31508001D70DD8503F04BB89DF82800092813DAEDB283
S31508001D80002D0AD0DFF8AC140BA803F031FA0BA823
S31508001D9003F004FA0BA903F0DBFFDFF8001E0BA81B
S31508001DA003F026FAB3E2A078512800F00482C0F0C6
S31508001DB0A982532802D0C0F0D580A3E2E0783A2859
S31508001DC002D1A0792E281BD0EDB2002D0AD0DFF85B
S31508001DD064140BA803F00CFA0BA803F0DFF90BA99F
S31508001DE003F0B6FFDFF82C1E0BA803F001FAB8E0E3
S31508001DF044B401086CCB010868B40108B4D90108D9
S31508001E00EDB2002D0AD0DFF82C140BA803F0F0F978
S31508001E100BA803F0C3F90BA903F09AFF94F9040081
S31508001E208DF8AC0094F905008DF8AD0000208DF80A
S31508001E30AE002BA803F0B6F8002805D1DFF8D81DA8
S31508001E400BA803F0D5F98CE02BA803F0D0F8319055
S31508001E5094F907008DF8AC0094F908008DF8AD00E8
S31508001E6000208DF8AE002BA803F09CF8002805D1B9
S31508001E70DFF8A81D0BA803F0BBF972E02BA803F046
S31508001E80B6F834903498002814D1319ADFF8901DAA
S31508001E900BA803F0CFF93BE00D0A00008CB401084B
S31508001EA06CCE010874C40108C8D9010894C4010895
S31508001EB0DCD90108002035900020070034988742B5
S31508001EC026DA032000FB07F0204490F90A008DF873
S31508001ED0AC00032000FB07F0204490F90B008DF8B6
S31508001EE0AD0000208DF8AE002BA803F05BF80028A3
S31508001EF007D1DFF8241D0BA803F07AF901203590E5
S31508001F0006E02BA803F073F89AA9C8557F1CD5E7F5
S31508001F103598002805D1319ADFF8EC1D0BA803F097
S31508001F2089F900200700349887420BDA9AA8C25D1F
S31508001F30C1A12BA803F07EF92BA90BA804F0C2FFB8
S31508001F407F1CF0E7BDA10BA804F0BCFF4FF4FA73A1
S31508001F503498020092B29AA9319880B20AF087FBA7
S31508001F600600D4E1E0783A2805D1A0792E2802D1D6
S31508001F70607A2E2812D0EDB2002D09D0AD490BA8F3
S31508001F8003F036F90BA803F009F90BA903F0E0FEF4
S31508001F90DFF8EC1D0BA803F02BF90BE1EDB2002DD1
S31508001FA009D0A4490BA803F023F90BA803F0F6F807
S31508001FB00BA903F0CDFE94F904008DF8AC0094F952
S31508001FC005008DF8AD0000208DF8AE002BA802F0B4
S31508001FD0E9FF002805D1DFF8201E0BA803F008F951
S31508001FE0E8E02BA803F003F8319094F907008DF880
S31508001FF0AC0094F908008DF8AD0000208DF8AE000D
S315080020002BA802F0CFFF002805D1DFF8F01D0BA89A
S3150800201003F0EEF8CEE02BA802F0E9FF349094F92D
S315080020200A008DF8AC0094F90B008DF8AD0000207D
S315080020308DF8AE002BA802F0B5FF00280AD1DFF80C
S31508002040341E0BA803F0D4F8B4E000BFB4C40108EA
S3150800205084CE01082BA802F0CAFF3A9034980028CB
S3150800206006D1319ADFF8101E0BA803F0E3F838E022
S3150800207000203590002007003498874231DA032083
S3150800208000FB07F0204490F90D008DF8AC00032002
S3150800209000FB07F0204490F90E008DF8AD000020F3
S315080020A08DF8AE002BA802F07DFF002812D1DFF8CC
S315080020B0401E0BA803F09CF80120359011E000BFE4
S315080020C09CCE0108B0B40108D4C40108B4CE0108F6
S315080020D024A601082BA802F08AFF9AA9C8557F1CD6
S315080020E0CAE73598002805D1319ADFF8081E0BA8EB
S315080020F003F0A0F800200700349887420BDA9AA864
S31508002100C25D4DA12BA803F095F82BA90BA804F0E6
S31508002110D9FE7F1CF0E749A10BA804F0D3FE4FF4C3
S31508002120FA733498020092B29AA9319880B20AF0EA
S315080021309EFA0600F6B2002E0ED14FF4FA733A98BC
S31508002140020092B29AA9319880B20AF0DBFA060028
S31508002150F6B2002E05D100E0D9E014200AF00DFBF6
S315080021600600F6B2002E25D10BA9002003F032F99D
S315080021700600F6B2002E03D03000C0B202F0EBBE65
S31508002180DFF8E81D0BA803F055F8002007003A9879
S3150800219087420BDA9AA8C25D27A12BA803F04AF852
S315080021A02BA90BA804F08EFE7F1CF0E723A10BA831
S315080021B004F088FEABE0E0783A2802D1A0792E2810
S315080021C012D0EDB2002D09D01A490BA803F010F869
S315080021D00BA802F0E3FF0BA903F0BAFDDFF8041E13
S315080021E00BA803F005F88CE0EDB2002D09D01149D3
S315080021F00BA802F0FDFF0BA802F0D0FF0BA903F015
S31508002200A7FD94F904008DF8AC0094F905008DF843
S31508002210AD0000208DF8AE002BA802F0C3FE002802
S315080022200ED1DFF8C41D0BA802F0E2FF69E000BF7B
S31508002230CCDB0108F4C3010825782E000D0A00003E
S315080022402BA802F0D4FE319094F907008DF8AC0063
S3150800225094F908008DF8AD0000208DF8AE002BA883
S3150800226002F0A0FE002805D1DFF81C1E0BA802F01C
S31508002270BFFF46E02BA802F0BAFE3A90319ADFF883
S31508002280F81B0BA802F0D6FF4FF4FA733A9802002F
S3150800229092B29AA9319880B20AF034FA0600F6B2D8
S315080022A0002E07D114200AF068FA0600F6B2002EAE
S315080022B027D100E02BE00BA9002003F08BF80600DD
S315080022C0F6B2002E03D03000C0B202F044BEDFF8EA
S315080022D09C1C0BA802F0AEFF002007003A98874224
S315080022E00BDA9AA8C25DD3A12BA802F0A3FF2BA9EB
S315080022F00BA804F0E7FD7F1CF0E7CFA10BA804F0BC
S31508002300E1FD04E0DFF898170BA802F071FF02F070
S315080023108EBD00BF24A40108CCCE0108F0D901085F
S315080023208CD90108002006009DF82800022840F0F4
S31508002330E980052006F058FB002804D05BA807F0C2
S31508002340B7FB06000BE0062006F04EFB002804D07B
S315080023505BA806F0DEFC060001E001200600F6B2E6
S31508002360002E40F0B5803CA809F08CFC0600F6B2B9
S31508002370002E40F0958049A808F079FE0600F6B2CE
S31508002380002E74D1AEA804F0D5FD0600F6B2002ED4
S3150800239058D1EDB2002D25D0AEA8099049A80890CD
S315080023A03CA807905BA806908BA8059085A8049082
S315080023B07FA8039079A8029073A801906DA8009051
S315080023C067AB61AADFF8841D0BA802F033FFDFF8BC
S315080023D0801D0BA802F00CFF0BA802F0DFFE0BA96C
S315080023E003F0B6FCAEA8099049A808903CA8079047
S315080023F05BA806908BA8059085A804907FA80390F3
S3150800240079A8029073A801906DA8009067AB61AA9D
S31508002410DFF8401D0BA802F00DFF0BA9002002F003
S31508002420D9FF0600F6B2002E03D03000C0B202F083
S3150800243092BDDFF8341E0BA802F0FCFE01F09DBE2B
S3150800244014C40108EDB2002D0AD0DFF8201E0BA82F
S3150800245002F0CEFE0BA802F0A1FE0BA903F078FC51
S31508002460DFF80C1E0BA802F0E5FE01F086BEEDB201
S31508002470002D0AD0DFF8FC1D0BA802F0B9FE0BA848
S3150800248002F08CFE0BA903F063FCDFF8EC1D0BA829
S3150800249002F0D0FE01F071BE50A6010848AC010852
S315080024A0EDB2002D0AD0DFF8D41D0BA802F0A0FE6D
S315080024B00BA802F073FE0BA903F04AFCDFF8C01D57
S315080024C00BA802F0B7FE01F058BE00BF88CB010882
S315080024D0EDB2002D0AD0DFF8401E0BA802F088FEE8
S315080024E00BA802F05BFE0BA903F032FCDFF82C1EEA
S315080024F00BA802F09FFE01F040BE00BF28A001080D
S31508002500DCDB0108A078492801F00A86522800F089
S31508002510E785532804D0542801F09D8501F02DBE87
S31508002520E0783A281AD0EDB2002D0AD0DFF8F01D6F
S315080025300BA802F05DFE0BA802F030FE0BA903F013
S3150800254007FCDFF8E01D0BA802F052FE00F0C6BD3E
S315080025507CA6010898DD0108A4DD01089DF828007D
S31508002560052819DAEDB2002D0AD0DFF8501E0BA89F
S3150800257002F03EFE0BA802F011FE0BA903F0E8FBE1
S31508002580DFF83C1E0BA802F033FE00F0A7BD00BF23
S31508002590B0DD010868980108201D3090309952A8CE
S315080025A002F026FE00202A900020299029A80090F3
S315080025B02AAB36AADFF80C1E52A80AF025FA032819
S315080025C040F07A8529980AF031FACDE902012A986D
S315080025D00AF02CFACDE9000136AADFF8EC1D0BA8A3
S315080025E002F028FE0422DFF8E41D36A80AF045FAB0
S315080025F000283AD12A9A299900200AF0BBFA06003F
S31508002600F6B2002E1CD1EDB2002D0AD0DFF8541E0A
S315080026100BA802F0EDFD0BA802F0C0FD0BA903F014
S3150800262097FBDFF8441E0BA802F004FE00F041BD3C
S31508002630149A010825782E000D0A0000B0980108A2
S31508002640EDB2002D0AD0DFF8241E0BA802F0D0FD4B
S315080026500BA802F0A3FD0BA903F07AFBDFF8101E06
S315080026600BA802F0E7FD00F024BD0422DFF8041EE3
S3150800267036A80AF002FA002837D12A9A29990120A1
S315080026800AF078FA0600F6B2002E19D1EDB2002D3E
S315080026900AD0DFF8E41D0BA802F0AAFD0BA802F089
S315080026A07DFD0BA903F054FBDFF8641E0BA802F0AE
S315080026B0C1FD00F0FEBC00BF9C9B0108589E0108A6
S315080026C0EDB2002D0AD0DFF84C1E0BA802F090FDE3
S315080026D00BA802F063FD0BA903F03AFBDFF8901D87
S315080026E00BA802F0A7FD00F0E4BC0422DFF8281EC0
S315080026F036A80AF0C2F9002839D12A9A299902205F
S315080027000AF038FA0600F6B2002E1BD1EDB2002DFB
S315080027100AD0DFF8081E0BA802F06AFD0BA802F023
S315080027203DFD0BA903F014FBDFF8F41D0BA802F01E
S3150800273081FD00F0BEBC00BF949E0108D09E010832
S3150800274060A00108EDB2002D0AD0DFF86C1E0BA8B8
S3150800275002F04EFD0BA802F021FD0BA903F0F8FAD2
S31508002760DFF80C1D0BA802F065FD00F0A2BC0422E0
S31508002770DFF8481E36A80AF080F9002839D12A9AC7
S31508002780299903200AF0F6F90600F6B2002E1BD1A5
S31508002790EDB2002D0AD0DFF8281E0BA802F028FD9E
S315080027A00BA802F0FBFC0BA903F0D2FADFF8141E03
S315080027B00BA802F03FFD00F07CBC00BFDC9B0108C3
S315080027C01C9C01085C9C0108EDB2002D0AD0DFF8BC
S315080027D0F81D0BA802F00CFD0BA802F0DFFC0BA9F4
S315080027E003F0B6FADFF8881C0BA802F023FD00F008
S315080027F060BC0422DFF8681E36A80AF03EF90028F5
S3150800280039D12A9A299904200AF0B4F90600F6B2B1
S31508002810002E1BD1EDB2002D0AD0DFF8481E0BA8FA
S3150800282002F0E6FC0BA802F0B9FC0BA903F090FA3B
S31508002830DFF8341E0BA802F0FDFC00F03ABC00BF1E
S315080028409C9C0108DC9C0108589A0108EDB2002DF1
S315080028500AD0DFF8181E0BA802F0CAFC0BA802F073
S315080028609DFC0BA903F074FADFF8041C0BA802F010
S31508002870E1FC00F01EBC0422DFF8F41D36A80AF0BD
S31508002880FCF8002831D12A9A299905200AF072F90C
S315080028900600F6B2002E14D1EDB2002D0AD0DFF8EC
S315080028A0681E0BA802F0A4FC0BA802F077FC0BA983
S315080028B003F04EFADFF8541E0BA802F0BBFC00F03A
S315080028C0F8BBEDB2002D0AD0DFF8441E0BA802F0C3
S315080028D08FFC0BA802F062FC0BA903F039FADFF8AB
S315080028E0901B0BA802F0A6FCE3E30422DFF8241EE3
S315080028F036A80AF0C2F8002830D12A9A2999062063
S315080029000AF038F90600F6B2002E13D1EDB2002D02
S315080029100AD0DFF8041E0BA802F06AFC0BA802F026
S315080029203DFC0BA903F014FADFF8841E0BA802F08D
S3150800293081FCBEE3EDB2002D0AD0DFF8781E0BA8A5
S3150800294002F056FC0BA802F029FC0BA903F000FACA
S31508002950DFF81C1B0BA802F06DFCAAE30422DFF8C3
S31508002960581E36A80AF089F8002835D12A9A2999D6
S3150800297007200AF0FFF80600F6B2002E18D1EDB2CD
S31508002980002D0AD0DFF8341E0BA802F031FC0BA884
S3150800299002F004FC0BA903F0DBF9DFF8241E0BA8F0
S315080029A002F048FC85E300BFF4C40108DCDF010837
S315080029B0EDB2002D0AD0DFF89C1E0BA802F018FC19
S315080029C00BA802F0EBFB0BA903F0C2F9DFF8A01A7B
S315080029D00BA802F02FFC6CE30422DFF87C1E36A855
S315080029E00AF04BF8002835D12A9A299908200AF0C6
S315080029F0C1F80600F6B2002E18D1EDB2002D0AD0A5
S31508002A00DFF8581E0BA802F0F3FB0BA802F0C6FB72
S31508002A100BA903F09DF9DFF8481E0BA802F00AFC83
S31508002A2047E300BF70A10108D4B40108EDB2002D38
S31508002A300AD0DFF8301E0BA802F0DAFB0BA802F06A
S31508002A40ADFB0BA903F084F9DFF8241A0BA802F0F2
S31508002A50F1FB2EE30422DFF8A01E36A80AF00DF8D3
S31508002A60002839D12A9A299909200AF083F80600FC
S31508002A70F6B2002E1CD1EDB2002D0AD0DFF87C1E6E
S31508002A800BA802F0B5FB0BA802F088FB0BA903F014
S31508002A905FF9DFF86C1E0BA802F0CCFB09E300BF58
S31508002AA034C4010814C5010834C50108A8A60108DC
S31508002AB0EDB2002D0AD0DFF84C1E0BA802F098FBE9
S31508002AC00BA802F06BFB0BA903F042F9DFF8A0197B
S31508002AD00BA802F0AFFBECE20422DFF82C1E36A8A6
S31508002AE009F0CBFF002833D12A9A29990A200AF03F
S31508002AF041F80600F6B2002E16D1EDB2002D0AD026
S31508002B00DFF8981E0BA802F073FB0BA802F046FB31
S31508002B100BA903F01DF9DFF8881E0BA802F08AFB43
S31508002B20C7E200BF54C50108EDB2002D0AD0DFF890
S31508002B30741E0BA802F05CFB0BA802F02FFB0BA976
S31508002B4003F006F9DFF828190BA802F073FBB0E2C8
S31508002B500422DFF8541E36A809F08FFF002833D167
S31508002B602A9A29990B200AF005F80600F6B2002ED3
S31508002B7016D1EDB2002D0AD0DFF8301E0BA802F0F0
S31508002B8037FB0BA802F00AFB0BA903F0E1F8DFF804
S31508002B90B01E0BA802F04EFB8BE200BF70AC01081A
S31508002BA0EDB2002D0AD0DFF89C1E0BA802F020FB20
S31508002BB00BA802F0F3FA0BA903F0CAF8DFF8B0186D
S31508002BC00BA802F037FB74E20422DFF87C1E36A855
S31508002BD009F053FF002839D12A9A29990C2009F0BF
S31508002BE0C9FF0600F6B2002E1CD1EDB2002D0AD0A0
S31508002BF0DFF8581E0BA802F0FBFA0BA802F0CEFA73
S31508002C000BA903F0A5F8DFF8481E0BA802F012FB83
S31508002C104FE200BF98AC0108D4A60108A4A1010898
S31508002C20E4CE0108EDB2002D0AD0DFF8B81E0BA8D5
S31508002C3002F0DEFA0BA802F0B1FA0BA903F088F845
S31508002C40DFF82C180BA802F0F5FA32E20422DFF8B6
S31508002C50981E36A809F011FF002830D12A9A29991A
S31508002C600D2009F087FF0600F6B2002E13D1EDB24B
S31508002C70002D0AD0DFF8741E0BA802F0B9FA0BA8CB
S31508002C8002F08CFA0BA903F063F8DFF8641E0BA8B0
S31508002C9002F0D0FA0DE2EDB2002D0AD0DFF8541E8C
S31508002CA00BA802F0A5FA0BA802F078FA0BA903F014
S31508002CB04FF8DFF8BC170BA802F0BCFAF9E10422BA
S31508002CC0DFF8C41E36A809F0D8FE002832D12A9AA1
S31508002CD029990E2009F04EFF0600F6B2002E15D1EE
S31508002CE0EDB2002D0AD0DFF8A41E0BA802F080FA78
S31508002CF00BA802F053FA0BA903F02AF8DFF8901E86
S31508002D000BA802F097FAD4E104DA0108EDB2002D17
S31508002D100AD0DFF8801E0BA802F06AFA0BA802F0A8
S31508002D203DFA0BA903F014F8DFF844170BA802F0D4
S31508002D3081FABEE10422DFF8601E36A809F09DFE7E
S31508002D40002833D12A9A29990F2009F013FF060083
S31508002D50F6B2002E16D1EDB2002D0AD0DFF8CC1E41
S31508002D600BA802F045FA0BA802F018FA0BA902F014
S31508002D70EFFFDFF8BC1E0BA802F05CFA99E100BF72
S31508002D80C0AC0108EDB2002D0AD0DFF8A81E0BA8CA
S31508002D9002F02EFA0BA802F001FA0BA902F0D8FFEE
S31508002DA0DFF8CC160BA802F045FA82E10422DFF818
S31508002DB0881E36A809F061FE002835D12A9A299975
S31508002DC0102009F0D7FE0600F6B2002E18D1EDB293
S31508002DD0002D0AD0DFF8641E0BA802F009FA0BA82A
S31508002DE002F0DCF90BA902F0B3FFDFF8541E0BA8BA
S31508002DF002F020FA5DE100BF00A70108D8A101088A
S31508002E00EDB2002D0AD0DFF8CC1E0BA802F0F0F9BF
S31508002E100BA802F0C3F90BA902F09AFFDFF85016C7
S31508002E200BA802F007FA44E10422DFF8AC1E36A824
S31508002E3009F023FE002835D12A9A2999112009F08C
S31508002E4099FE0600F6B2002E18D1EDB2002D0AD072
S31508002E50DFF8881E0BA802F0CBF90BA802F09EF942
S31508002E600BA902F075FFDFF8781E0BA802F0E2F94D
S31508002E701FE100BF0C9F0108FCCE0108EDB2002D32
S31508002E800AD0DFF8601E0BA802F0B2F90BA802F010
S31508002E9085F90BA902F05CFFDFF8D4150BA802F040
S31508002EA0C9F906E10422DFF8D01E36A809F0E5FDC7
S31508002EB0002835D12A9A2999122009F05BFE0600C6
S31508002EC0F6B2002E18D1EDB2002D0AD0DFF8AC1EEE
S31508002ED00BA802F08DF90BA802F060F90BA902F015
S31508002EE037FFDFF89C1E0BA802F0A4F9E1E000BF4B
S31508002EF0E8AC010818DA0108EDB2002D0AD0DFF8AF
S31508002F00841E0BA802F074F90BA802F047F90BA966
S31508002F1002F01EFFDFF858150BA802F08BF9C8E07F
S31508002F200422DFF8641E36A809F0A7FD002833D16D
S31508002F302A9A2999132009F01DFE0600F6B2002EDA
S31508002F4016D1EDB2002D0AD0DFF8D01E0BA802F07C
S31508002F504FF90BA802F022F90BA902F0F9FEDFF8E7
S31508002F60C01E0BA802F066F9A3E000BFBCDD01088D
S31508002F70EDB2002D0AD0DFF8AC1E0BA802F038F926
S31508002F800BA802F00BF90BA902F0E2FEDFF8E01439
S31508002F900BA802F04FF98CE00422DFF88C1E36A845
S31508002FA009F06BFD002835D12A9A2999142009F0D1
S31508002FB0E1FD0600F6B2002E18D1EDB2002D0AD0BA
S31508002FC0DFF8F81E0BA802F013F90BA802F0E6F8D2
S31508002FD00BA902F0BDFEDFF8E81E0BA802F02AF9DD
S31508002FE067E000BF10AD01082CA70108EDB2002D5F
S31508002FF00AD0DFF8D01E0BA802F0FAF80BA802F0E8
S31508003000CDF80BA902F0A4FEDFF864140BA802F0B1
S3150800301011F94EE00422DFF8B01E36A809F02DFD9E
S31508003020002833D12A9A2999152009F0A3FD06000C
S31508003030F6B2002E13D1EDB2002D0AD0DFF88C1EA1
S315080030400BA802F0D5F80BA802F0A8F80BA902F015
S315080030507FFEDFF87C1E0BA802F0ECF829E0EDB243
S31508003060002D0AD0DFF8FC1E0BA802F0C1F80BA849
S3150800307002F094F80BA902F06BFEDFF8F4130BA824
S3150800308002F0D8F815E000BF0CA20108EDB2002D39
S315080030900AD0DFF8D41E0BA802F0AAF80BA802F093
S315080030A07DF80BA902F054FEDFF8C01E0BA802F04B
S315080030B0C1F80020060011E0EDB2002D09D0BF4985
S315080030C00BA802F095F80BA802F068F80BA902F015
S315080030D03FFEDFF89C1E0BA802F08AF801F04DB8F7
S315080030E0EDB2002D0DD009F077FD0200DFF8841E41
S315080030F00BA802F09FF80BA802F050F80BA902F0F3
S3150800310027FE09F069FD0200DFF8141F0BA802F07C
S3150800311091F80BA9002002F05DF90600F6B2002E20
S3150800312003D03000C0B201F016BFDFF8F81E0BA8B6
S3150800313002F080F80BA9002002F04CF90600F6B25E
S31508003140002E09D03000C0B201F005BF1C9D010851
S31508003150F4C3010838AD010800200700162F80F2D5
S315080031606687002F36D0022F00F0DE80C0F08A80F6
S31508003170042F00F08381C0F02B81062F00F02682F1
S31508003180C0F0D081082F00F0C982C0F073820A2FE0
S3150800319000F06A83C0F016830C2F00F00984C0F093
S315080031A0B5830E2F00F0A884C0F05484102F00F0C9
S315080031B04985C0F0F384122F00F0E885C0F09485A5
S315080031C0142F00F08786C0F03186152F00F0D486BC
S315080031D000F019BFEDB2002D24D03800C0B209F0B6
S315080031E0EAFC83463800C0B209F0EBFC8146380099
S315080031F0C0B209F0ECFC8246584609F017FCCDE946
S315080032000201484609F012FCCDE900015246DFF8F2
S31508003210E41E0BA802F00EF80BA801F0BFFF0BA9DD
S3150800322002F096FD3800C0B209F0C5FC83463800A6
S31508003230C0B209F0C6FC81463800C0B209F0C7FC26
S315080032408246584609F0F2FBCDE90201484609F0E4
S31508003250EDFBCDE900015246DFF8F41E0BA801F09C
S31508003260E9FF00F0D0BE00BFC8DD010860AD010867
S3150800327014CF010888AD01082CCF010858A701080A
S31508003280F8B40108EDB2002D24D03800C0B209F018
S3150800329092FC83463800C0B209F093FC8146380098
S315080032A0C0B209F094FC8246584609F0BFFBCDE946
S315080032B00201484609F0BAFBCDE900015246DFF89B
S315080032C0F81E0BA801F0B6FF0BA801F067FF0BA9C3
S315080032D002F03EFD3800C0B209F06DFC83463800A6
S315080032E0C0B209F06EFC81463800C0B209F06FFC26
S315080032F08246584609F09AFBCDE90201484609F08C
S3150800330095FBCDE900015246DFF8E41E0BA801F053
S3150800331091FF00F078BE00BFB0AD01081CB50108EA
S3150800332074C50108D8AD0108EDB2002D24D03800C7
S31508003330C0B209F040FC83463800C0B209F041FC2F
S3150800334081463800C0B209F042FC8246584609F068
S315080033506DFBCDE90201484609F068FBCDE900019D
S315080033605246DFF8C41E0BA801F064FF0BA801F053
S3150800337015FF0BA902F0ECFC3800C0B209F01BFCE3
S3150800338083463800C0B209F01CFC81463800C0B23A
S3150800339009F01DFC8246584609F048FBCDE90201B2
S315080033A0484609F043FBCDE900015246DFF8D81E2E
S315080033B00BA801F03FFF00F026BE00BF40B501088C
S315080033C064B50108D4DD010844CF0108E4DF01082B
S315080033D0EDB2002D24D03800C0B209F0ECFB8346CC
S315080033E03800C0B209F0EDFB81463800C0B209F0DA
S315080033F0EEFB8246584609F019FBCDE9020148461C
S3150800340009F014FBCDE900015246DFF8801E0BA82F
S3150800341001F010FF0BA801F0C1FE0BA902F098FC01
S315080034203800C0B209F0C7FB83463800C0B209F0BD
S31508003430C8FB81463800C0B209F0C9FB8246584627
S3150800344009F0F4FACDE90201484609F0EFFACDE9A8
S3150800345000015246DFF8381E0BA801F0EBFE00F01B
S31508003460D2BD00BF88B50108A4CB010800AE01088B
S31508003470C0CB0108ECDF010894C50108EDB2002DA8
S3150800348024D03800C0B209F096FB83463800C0B293
S3150800349009F097FB81463800C0B209F098FB8246CE
S315080034A0584609F0C3FACDE90201484609F0BEFAC2
S315080034B0CDE900015246DFF8841E0BA801F0BAFEDA
S315080034C00BA801F06BFE0BA902F042FC3800C0B253
S315080034D009F071FB83463800C0B209F072FB8146D9
S315080034E03800C0B209F073FB8246584609F09EFAC6
S315080034F0CDE90201484609F099FACDE9000152469C
S31508003500DFF8981E0BA801F095FE00F07CBD00BF01
S315080035105CCF0108ACB50108F4DF0108B4C50108A1
S315080035202CDA0108EDB2002D24D03800C0B209F01B
S3150800353042FB83463800C0B209F043FB8146380097
S31508003540C0B209F044FB8246584609F06FFACDE945
S315080035500201484609F06AFACDE900015246DFF849
S31508003560401E0BA801F066FE0BA801F017FE0BA97A
S3150800357002F0EEFB3800C0B209F01DFB83463800A6
S31508003580C0B209F01EFB81463800C0B209F01FFB25
S315080035908246584609F04AFACDE90201484609F03A
S315080035A045FACDE900015246DFF8F81D0BA801F0EF
S315080035B041FE00F028BD00BFD0B50108FCDF0108B8
S315080035C0D4C5010874CF0108F4B50108EDB2002D81
S315080035D024D03800C0B209F0EEFA83463800C0B2EB
S315080035E009F0EFFA81463800C0B209F0F0FA8246CF
S315080035F0584609F01BFACDE90201484609F016FAC1
S31508003600CDE900015246DFF8A41E0BA801F012FE10
S315080036100BA801F0C3FD0BA902F09AFB3800C0B253
S3150800362009F0C9FA83463800C0B209F0CAFA8146D9
S315080036303800C0B209F0CBFA8246584609F0F6F9C6
S31508003640CDE90201484609F0F1F9CDE900015246F3
S31508003650DFF85C1E0BA801F0EDFD00F0D4BC00BF3E
S3150800366004E00108F4C5010840DA010818B60108A3
S315080036700CE00108EDB2002D24D03800C0B209F0E4
S315080036809AFA83463800C0B209F09BFA8146380098
S31508003690C0B209F09CFA8246584609F0C7F9CDE946
S315080036A00201484609F0C2F9CDE900015246DFF8A1
S315080036B0601E0BA801F0BEFD0BA801F06FFD0BA95B
S315080036C002F046FB3800C0B209F075FA83463800A6
S315080036D0C0B209F076FA81463800C0B209F077FA26
S315080036E08246584609F0A2F9CDE90201484609F092
S315080036F09DF9CDE900015246DFF8641E0BA801F0DA
S3150800370099FD00F080BC00BF14C6010854DA010810
S315080037103CB6010814E0010860B60108EDB2002DB8
S3150800372024D03800C0B209F046FA83463800C0B241
S3150800373009F047FA81463800C0B209F048FA8246CD
S31508003740584609F073F9CDE90201484609F06EF9C1
S31508003750CDE900015246DFF8681E0BA801F06AFDA4
S315080037600BA801F01BFD0BA902F0F2FA3800C0B253
S3150800377009F021FA83463800C0B209F022FA8146D8
S315080037803800C0B209F023FA8246584609F04EF9C5
S31508003790CDE90201484609F049F9CDE9000152464A
S315080037A0DFF8201E0BA801F045FD00F02CBC00BF79
S315080037B08CCF010828AE01081CE0010884B6010870
S315080037C0A4CF0108EDB2002D24D03800C0B209F00C
S315080037D0F2F983463800C0B209F0F3F98146380099
S315080037E0C0B209F0F4F98246584609F01FF9CDE946
S315080037F00201484609F01AF9CDE900015246DFF8F8
S31508003800701E0BA801F016FD0BA801F0C7FC0BA94A
S3150800381002F09EFA3800C0B209F0CDF983463800A6
S31508003820C0B209F0CEF981463800C0B209F0CFF926
S315080038308246584609F0FAF8CDE90201484609F0E9
S31508003840F5F8CDE900015246DFF8281E0BA801F06D
S31508003850F1FCD8E350AE010824E00108A8B6010837
S31508003860BCCF010878AE0108EDB2002D24D038008F
S31508003870C0B209F0A0F983463800C0B209F0A1F930
S3150800388081463800C0B209F0A2F98246584609F0C6
S31508003890CDF8CDE90201484609F0C8F8CDE900019E
S315080038A05246DFF8301E0BA801F0C4FC0BA801F045
S315080038B075FC0BA902F04CFA3800C0B209F07BF986
S315080038C083463800C0B209F07CF981463800C0B298
S315080038D009F07DF98246584609F0A8F8CDE90201B3
S315080038E0484609F0A3F8CDE900015246DFF85C1E08
S315080038F00BA801F09FFC86E32CE00108CCB6010872
S31508003900D4CF0108A0AE010834E00108EDB2002DBD
S3150800391024D03800C0B209F04EF983463800C0B248
S3150800392009F04FF981463800C0B209F050F98246CD
S31508003930584609F07BF8CDE90201484609F076F8C1
S31508003940CDE900015246DFF8081E0BA801F072FC0B
S315080039500BA801F023FC0BA902F0FAF93800C0B253
S3150800396009F029F983463800C0B209F02AF98146D8
S315080039703800C0B209F02BF98246584609F056F8C5
S31508003980CDE90201484609F051F8CDE90001524651
S31508003990DFF8401E0BA801F04DFC34E334C60108DD
S315080039A0ECCF0108F0B601083CE0010814B701089D
S315080039B0EDB2002D24D03800C0B209F0FCF88346D9
S315080039C03800C0B209F0FDF881463800C0B209F0E7
S315080039D0FEF88246584609F029F8CDE9020148461C
S315080039E009F024F8CDE900015246DFF8441E0BA879
S315080039F001F020FC0BA801F0D1FB0BA902F0A8F9F5
S31508003A003800C0B209F0D7F883463800C0B209F0CA
S31508003A10D8F881463800C0B209F0D9F88246584627
S31508003A2009F004F8CDE90201484608F0FFFFCDE9A0
S31508003A3000015246DFF8301E0BA801F0FBFBE2E25C
S31508003A4004D00108C8AE010844E0010838B70108E7
S31508003A501CD00108EDB2002D24D03800C0B209F000
S31508003A60AAF883463800C0B209F0ABF88146380098
S31508003A70C0B209F0ACF88246584608F0D7FFCDE93F
S31508003A800201484608F0D2FFCDE900015246DFF8A8
S31508003A90101E0BA801F0CEFB0BA801F07FFB0BA9AB
S31508003AA002F056F93800C0B209F085F883463800A6
S31508003AB0C0B209F086F881463800C0B209F087F826
S31508003AC08246584608F0B2FFCDE90201484608F09A
S31508003AD0ADFFCDE900015246DFF8241E0BA801F020
S31508003AE0A9FB90E2F0AE01084CE0010854C60108B3
S31508003AF034D001085CB70108EDB2002D24D0380097
S31508003B00C0B209F058F883463800C0B209F059F82F
S31508003B1081463800C0B209F05AF88246584608F07D
S31508003B2085FFCDE90201484608F080FFCDE900018E
S31508003B305246DFF82C1E0BA801F07CFB0BA801F0FF
S31508003B402DFB0BA902F004F93800C0B209F033F8CE
S31508003B5083463800C0B209F034F881463800C0B24E
S31508003B6009F035F88246584608F060FFCDE90201AB
S31508003B70484608F05BFFCDE900015246DFF8201EF3
S31508003B800BA801F057FB3EE254E0010880B7010894
S31508003B904CD0010818AF01085CE00108EDB2002D11
S31508003BA024D03800C0B209F006F883463800C0B2FF
S31508003BB009F007F881463800C0B209F008F88246CD
S31508003BC0584608F033FFCDE90201484608F02EFFB3
S31508003BD0CDE900015246DFF8241E0BA801F02AFBA6
S31508003BE00BA801F0DBFA0BA902F0B2F83800C0B254
S31508003BF008F0E1FF83463800C0B208F0E2FF8146CC
S31508003C003800C0B208F0E3FF8246584608F00EFFB7
S31508003C10CDE90201484608F009FFCDE90001524600
S31508003C20DFF8181E0BA801F005FBECE1A4B70108A4
S31508003C3064D0010840AF010864E00108C8B701086C
S31508003C407CD00108EDB2002D24D03800C0B208F0AF
S31508003C50B2FF83463800C0B208F0B3FF8146380089
S31508003C60C0B208F0B4FF8246584608F0DFFECDE938
S31508003C700201484608F0DAFECDE900015246DFF8AF
S31508003C80201E0BA801F0D6FA0BA801F087FA0BA99B
S31508003C9002F05EF83800C0B208F08DFF834638009F
S31508003CA0C0B208F08EFF81463800C0B208F08FFF18
S31508003CB08246584608F0BAFECDE90201484608F0A1
S31508003CC0B5FECDE900015246DFF8D81D0BA801F074
S31508003CD0B1FA98E168AF01086CE00108ECB7010891
S31508003CE094D0010890AF0108EDB2002D24D0380019
S31508003CF0C0B208F060FF83463800C0B208F061FF22
S31508003D0081463800C0B208F062FF8246584608F07D
S31508003D108DFECDE90201484608F088FECDE900018E
S31508003D205246DFF8141E0BA801F084FA0BA801F01E
S31508003D3035FA0BA902F00CF83800C0B208F03BFFC0
S31508003D4083463800C0B208F03CFF81463800C0B24E
S31508003D5008F03DFF8246584608F068FECDE90201A4
S31508003D60484608F063FECDE900015246DFF8CC1D4F
S31508003D700BA801F05FFA46E174E0010810B80108E3
S31508003D80ACD00108B8AF01087CE00108EDB2002DFF
S31508003D9024D03800C0B208F00EFF83463800C0B2FF
S31508003DA008F00FFF81463800C0B208F010FF8246BF
S31508003DB0584608F03BFECDE90201484608F036FEB3
S31508003DC0CDE900015246DFF8D81D0BA801F032FAFA
S31508003DD00BA801F0E3F90BA901F0BAFF3800C0B24D
S31508003DE008F0E9FE83463800C0B208F0EAFE8146CC
S31508003DF03800C0B208F0EBFE8246584608F016FEB8
S31508003E00CDE90201484608F011FECDE90001524607
S31508003E10DFF8E41D0BA801F00DFAF4E034B8010848
S31508003E20C4D00108E0AF010884E00108EDB2002D16
S31508003E3024D03800C0B208F0BEFE83463800C0B2AF
S31508003E4008F0BFFE81463800C0B208F0C0FE8246C0
S31508003E50584608F0EBFDCDE90201484608F0E6FDB4
S31508003E60CDE900015246DFF8D01D0BA801F0E2F9B2
S31508003E700BA801F093F90BA901F06AFF3800C0B24C
S31508003E8008F099FE83463800C0B208F09AFE8146CB
S31508003E903800C0B208F09BFE8246584608F0C6FDB8
S31508003EA0CDE90201484608F0C1FDCDE900015246B8
S31508003EB0DFF8C81D0BA801F0BDF9A4E058B8010841
S31508003EC0DCD0010808B001088CE001087CB80108BC
S31508003ED0F4D00108EDB2002D24D03800C0B208F0A5
S31508003EE06AFE83463800C0B208F06BFE8146380089
S31508003EF0C0B208F06CFE8246584608F097FDCDE938
S31508003F000201484608F092FDCDE900015246DFF865
S31508003F10B81D0BA801F08EF90BA801F03FF90BA903
S31508003F2001F016FF3800C0B208F045FE8346380097
S31508003F30C0B208F046FE81463800C0B208F047FE17
S31508003F408246584608F072FDCDE90201484608F057
S31508003F506DFDCDE900015246DFF8881D0BA801F07A
S31508003F6069F950E030B00108A0B8010874C6010824
S31508003F7054A40108ECDB0108EDB2002D24D038006A
S31508003F80C0B208F018FE83463800C0B208F019FE21
S31508003F9081463800C0B208F01AFE8246584608F034
S31508003FA045FDCDE90201484608F040FDCDE900018E
S31508003FB05246DFF8781D0BA801F03CF90BA801F072
S31508003FC0EDF80BA901F0C4FE3800C0B208F0F3FD05
S31508003FD083463800C0B208F0F4FD81463800C0B206
S31508003FE008F0F5FD8246584608F020FDCDE90201A5
S31508003FF0484608F01BFDCDE900015246DFF86C1D66
S315080040000BA801F017F90BA9002001F0E3F9060047
S31508004010F6B2002E08D03000C0B200F09CBF00BF38
S3150800402094C60108C4B801087F1CFFF797B8EDB21B
S31508004030002D0AD0DFF8A01D0BA801F0D9F80BA8AF
S3150800404001F0ACF80BA901F083FEDFF8901D0BA870
S3150800405001F0F0F891E0E0783A2813D0EDB2002D9F
S315080040600AD0DFF87C1D0BA801F0C2F80BA801F0F6
S3150800407095F80BA901F06CFEDFF8841D0BA801F07A
S31508004080B7F84CE09DF82800052813DAEDB2002DA4
S315080040900AD0DFF8701D0BA801F0AAF80BA801F0EA
S315080040A07DF80BA901F054FEDFF85C1D0BA801F0A2
S315080040B09FF834E0201D3090309952A801F098F806
S315080040C0309808F070FD0600F6B2002E14D0EDB256
S315080040D0002D0AD0DFF88C1D0BA801F089F80BA873
S315080040E001F05CF80BA901F033FE3000C0B200F015
S315080040F032BF00BF0CD10108EDB2002D0AD0DFF89F
S31508004100681D0BA801F074F80BA801F047F80BA975
S3150800411001F01EFEDFF8C41C0BA801F08BF82CE09A
S3150800412008F0DDFC0600F6B2002E13D0EDB2002D25
S315080041300AD0DFF8701D0BA801F05AF80BA801F099
S315080041402DF80BA901F004FE3000C0B200F003BF41
S3150800415024D10108EDB2002D0AD0DFF86C1D0BA89A
S3150800416001F046F80BA801F019F80BA901F0F0FDCB
S31508004170DFF8681C0BA801F05DF800F058BE04F0E3
S3150800418077FCADF8E400EDB2002D0CD0BDF8E420C4
S31508004190DFF8601D0BA801F04DF80BA800F0FEFF34
S315080041A00BA901F0D5FDBDF8E420DFF84C1D0BA8DE
S315080041B001F040F800F03BBE3CD10108EDB2002DFD
S315080041C00DD0DFF8381D0BA801F012F80BA800F087
S315080041D0E5FF0BA901F0BCFD642008F01DFD08F001
S315080041E0D2FDDFF84C1D0BA801F024F800F01FBE25
S315080041F0B4C60108002006009DF82800042815DA30
S31508004200EDB2002D0AD0DFF8581D0BA800F0F0FF1C
S315080042100BA800F0C3FF0BA901F09AFDDFF8441DB7
S315080042200BA800F0E5FF80E354D10108A0785228D6
S3150800423000F09682532840F06583E078422800F023
S31508004240A881522809D0532800F09180542800F0FC
S315080042501681562800F027827CE220793A2819D060
S31508004260EDB2002D0AD0DFF8001D0BA800F0C0FF44
S315080042700BA800F093FF0BA901F06AFDDFF8EC1C10
S315080042800BA800F0B5FF71E06CD1010884D10108D4
S31508004290D4C601089DF82800062810DB01202E90B8
S315080042A0052007009DF8280087420ADAE05D08F035
S315080042B09BFD002801D100202E907F1CF2E70020EC
S315080042C02E902E98002813D1EDB2002D0AD0DFF8D3
S315080042D0A01C0BA800F08CFF0BA800F05FFF0BA931
S315080042E001F036FDDFF88C1C0BA800F081FF3DE0DD
S315080042F0601D3090309952A800F07AFF52A808F055
S3150800430078FD2F902F9842F21071884202DA2F9882
S31508004310002815D5EDB2002D0AD0DFF8541C0BA8DD
S3150800432000F066FF0BA800F039FF0BA901F010FD9D
S31508004330DFF8401C0BA800F05BFF17E09CD10108D2
S315080043402F9808F039FEEDB2002D0AD0DFF82C1CA4
S315080043500BA800F04DFF0BA800F020FF0BA901F0F9
S31508004360F7FCDFF81C1C0BA800F064FFF7E12079C6
S315080043703A2819D0EDB2002D0AD0DFF80C1C0BA88C
S3150800438000F036FF0BA800F009FF0BA901F0E0FCCE
S31508004390DFF8F81B0BA800F02BFF6FE0B4D101087B
S315080043A0CCD10108E4D101089DF82800062810DBC5
S315080043B001202E90052007009DF8280087420ADA7A
S315080043C0E05D08F011FD002801D100202E907F1C29
S315080043D0F2E700202E902E98002813D1EDB2002D7A
S315080043E00AD0DFF8AC1B0BA800F002FF0BA800F000
S315080043F0D5FE0BA901F0ACFCDFF8981B0BA800F062
S31508004400F7FE3BE0601D3090309952A800F0F0FEB0
S3150800441052A808F0EEFC2F902F9842F210718842AD
S3150800442002DA2F98002813D5EDB2002D0AD0DFF84E
S31508004430601B0BA800F0DCFE0BA800F0AFFE0BA972
S3150800444001F086FCDFF84C1B0BA800F0D1FE15E046
S315080044502F9808F0CFFDEDB2002D0AD0DFF8381BF3
S315080044600BA800F0C5FE0BA800F098FE0BA901F0FA
S315080044706FFCDFF80C1B0BA800F0DCFE6FE120795F
S315080044803A2817D0EDB2002D0AD0DFF8101B0BA87A
S3150800449000F0AEFE0BA800F081FE0BA901F058FC57
S315080044A0DFF8FC1A0BA800F0A3FE71E0FCD10108A6
S315080044B014D201089DF82800062810DB01202E904A
S315080044C0052007009DF8280087420ADAE05D08F013
S315080044D08BFC002801D100202E907F1CF2E70020DB
S315080044E02E902E98002815D1EDB2002D0AD0DFF8AF
S315080044F05C1B0BA800F07CFE0BA800F04FFE0BA976
S3150800450001F026FCDFF8481B0BA800F071FE3FE01F
S315080045102CD20108601D3090309952A800F068FE30
S3150800452052A808F066FC2F902F9842F21071884224
S3150800453002DA2F98002815D5EDB2002D0AD0DFF83B
S315080045400C1B0BA800F054FE0BA800F027FE0BA9C5
S3150800455001F0FEFBDFF83C1A0BA800F049FE17E055
S3150800456044D201082F9808F06DFDEDB2002D0AD04F
S31508004570DFF8E01A0BA800F03BFE0BA800F00EFED1
S315080045800BA901F0E5FBDFF8F8190BA800F052FEBD
S31508004590E5E020793A2817D0EDB2002D0AD0DFF8E9
S315080045A0B81A0BA800F024FE0BA800F0F7FD0BA91B
S315080045B001F0CEFBDFF8A41A0BA800F019FE71E093
S315080045C05CD2010874D201089DF82800062810DB81
S315080045D001202E90052007009DF8280087420ADA58
S315080045E0E05D08F001FC002801D100202E907F1C18
S315080045F0F2E700202E902E98002813D1EDB2002D58
S315080046000AD0DFF85C1A0BA800F0F2FD0BA800F040
S31508004610C5FD0BA901F09CFBDFF8481A0BA800F0B2
S31508004620E7FD3FE0601D3090309952A800F0E0FDAC
S3150800463052A808F0DEFB2F902F98B0F57A7F02DAA1
S315080046402F98002818D5EDB2002D0AD0DFF8101AD9
S315080046500BA800F0CDFD0BA800F0A0FD0BA901F0FA
S3150800466077FBDFF8001A0BA800F0C2FD1AE000BFBE
S315080046708CD20108A4D201082F9808F0F5FCEDB2F7
S31508004680002D0AD0DFF8E0190BA800F0B1FD0BA841
S3150800469000F084FD0BA901F05BFBDFF8E4180BA81A
S315080046A000F0C8FD5BE020793A2815D0EDB2002D60
S315080046B00AD0DFF8B8190BA800F09AFD0BA800F08D
S315080046C06DFD0BA901F044FBDFF8A4190BA800F057
S315080046D08FFD39E0BCD201089DF82800062802DBC8
S315080046E001202E9001E000202E902E98002813D14C
S315080046F0EDB2002D0AD0DFF87C190BA800F078FD82
S315080047000BA800F04BFD0BA901F022FBDFF8681996
S315080047100BA800F06DFD17E0601D3090309808F08A
S31508004720B5FCEDB2002D0AD0DFF850190BA800F041
S315080047305FFD0BA800F032FD0BA901F009FBDFF8BD
S3150800474040180BA800F076FD09E000BFF4C6010882
S31508004750D4D20108DFF828190BA800F049FDE4E0D7
S31508004760E078422800F08280522807D0532833D0B8
S3150800477054285FD0562800F09580ADE0EDB2002DA4
S3150800478016D008F097FC08F0C9FCDFF8F81808F00E
S31508004790D5FC08F04BF902000B00DFF8EC180BA863
S315080047A000F048FD0BA800F0F9FC0BA901F0D0FABF
S315080047B008F080FC08F0B2FCDFF8C81808F0BEFC68
S315080047C008F034F902000B00DFF8C0180BA800F057
S315080047D031FD94E0ECD20108EDB2002D16D008F0B8
S315080047E06CFC08F09BFCDFF89C1808F0A7FC08F0A6
S315080047F01DF902000B00DFF898180BA800F01AFD47
S315080048000BA800F0CBFC0BA901F0A2FA08F055FCA6
S3150800481008F084FCDFF86C1808F090FC08F006F93C
S3150800482002000B00DFF86C180BA800F003FD66E029
S3150800483004D30108EDB2002D0DD008F045FC0200A6
S31508004840DFF854180BA800F0F5FC0BA800F0A6FC3E
S315080048500BA901F07DFA08F037FC0200DFF83C18D6
S315080048600BA800F0E7FC4AE01CD30108EDB2002DC6
S315080048700DD008F02CFC0200DFF824180BA800F075
S31508004880D9FC0BA800F08AFC0BA901F061FA08F024
S315080048901EFC0200DFF80C180BA800F0CBFC2EE07B
S315080048A034D30108EDB2002D0DD008F013FC020038
S315080048B0DFF8F4170BA800F0BDFC0BA800F06EFC9F
S315080048C00BA901F045FA08F005FC0200DFF8DC1731
S315080048D00BA800F0AFFC12E0EDB2002D0AD0DFF80D
S315080048E0D0170BA800F084FC0BA800F057FC0BA906
S315080048F001F02EFADFF8BC170BA800F079FC14E0DB
S3150800490014C70108EDB2002D0AD0DFF854160BA81B
S3150800491000F06EFC0BA800F041FC0BA901F018FA98
S31508004920DFF894170BA800F063FC80E2002006006D
S315080049309DF82800032815DAEDB2002D0AD0DFF815
S315080049407C170BA800F054FC0BA800F027FC0BA959
S3150800495001F0FEF9DFF868170BA800F049FC4CE0F7
S315080049604CD30108A07844281CD0452832D1EDB292
S31508004970002D0AD0DFF84C170BA800F039FC0BA85D
S3150800498000F00CFC0BA901F0E3F9DFF83C170BA8C3
S3150800499000F050FC012008F042FB06002DE000BFA5
S315080049A064D30108EDB2002D0AD0DFF820170BA852
S315080049B000F01EFC0BA800F0F1FB0BA901F0C8F9EA
S315080049C0DFF80C170BA800F035FC002008F027FBD1
S315080049D0060012E0EDB2002D0AD0DFF8E0160BA8AB
S315080049E000F006FC0BA800F0D9FB0BA901F0B0F902
S315080049F0DFF8E0160BA800F0FBFB18E27CD30108F1
S31508004A00EDB2002D0AD0DFF8D0160BA800F0F0FBA7
S31508004A100BA800F0C3FB0BA901F09AF9DFF8BC1646
S31508004A200BA800F0E5FB0BA9002000F0D3FC06005C
S31508004A30F6B2002E04D03000C0B28CE294D301083E
S31508004A40DFF89C160BA800F0D3FB0120DFF89416BC
S31508004A500870ECE108F068FAEDB2002D0AD0DFF82C
S31508004A6088160BA800F0E6FB0BA800F097FB0BA92D
S31508004A7001F06EF9DFF874160BA800F0DBFBD6E13F
S31508004A80EDB2002D10D0DFF868160BA800F0D2FBA7
S31508004A900BA800F083FB0BA901F05AF9C7E100BF88
S31508004AA0ACD30108C4D30108DFF848160BA800F0F8
S31508004AB0C1FB0BA9002000F08DFC0600F6B2002E03
S31508004AC002D03000C0B246E2DFF82C160BA800F080
S31508004AD0B1FB0BA9002000F07DFC0600F6B2002E03
S31508004AE002D03000C0B236E2FEE7EDB2002D0AD0A1
S31508004AF0DFF808160BA800F07BFB0BA800F04EFBAE
S31508004B000BA901F025F9DFF8F8150BA800F070FBE2
S31508004B100BA9002000F05EFC0600F6B2002E02D0BB
S31508004B203000C0B217E2DFF8DC150BA800F060FB16
S31508004B3002F026F87BE100BFDCD30108F4D30108B4
S31508004B40EDB2002D0DD0DFF890150BA800F050FB44
S31508004B500BA800F023FB0BA901F0FAF8642008F073
S31508004B605BF80DF59763D5AADFF89C15200007F0CA
S31508004B704BFF47904798022840F03C810DF5976215
S31508004B80DFF888150BA800F055FB0BA9002000F0EC
S31508004B9021FC0600F6B2002E04D03000C0B2DAE1DD
S31508004BA00CD40108FFA968310DF5976008F044FB9D
S31508004BB00600F6B2002E41D09DF86504002809D0FB
S31508004BC0022813D00CD304281ED017D3062827D0C2
S31508004BD020D32BE0DFF838150BA800F02BFB0EE1ED
S31508004BE0DFF830150BA800F025FB08E1DFF82815DB
S31508004BF00BA800F01FFB02E124D40108DFF81C15FE
S31508004C000BA800F017FBFAE0DFF814150BA800F064
S31508004C1011FBF4E0DFF804150BA800F00BFBEEE03F
S31508004C20DFF800150BA800F005FBE8E0DFF8F8143C
S31508004C300BA800F0FFFAE2E03CD401089DF86404F2
S31508004C4000280ED002281BD011D3042824D01DD347
S31508004C5006282DD026D3082838D02FD309283BD0AC
S31508004C6042E0DFF8C8140BA800F0E4FA41E0DFF8E8
S31508004C70C0140BA800F0DEFA3BE000BF54D40108CC
S31508004C80DFF8B0140BA800F0D5FA32E0DFF8A81464
S31508004C900BA800F0CFFA2CE0DFF8A0140BA800F060
S31508004CA0C9FA26E0DFF898140BA800F0C3FA20E04A
S31508004CB0DFF890140BA800F0BDFA1AE0DFF88814A4
S31508004CC00BA800F0B7FA14E06CD40108DFF87C14DE
S31508004CD00BA800F0AFFA0CE0DFF874140BA800F08C
S31508004CE0A9FA06E084D40108DFF868140BA800F0D6
S31508004CF0A1FA0BA9002000F06DFB0600F6B2002E03
S31508004D0002D03000C0B226E1DDF86824DFF8481486
S31508004D100BA800F08FFA0BA9002000F05BFB060039
S31508004D20F6B2002E04D03000C0B214E19CD40108BB
S31508004D30DDF86C24DFF824140BA800F07BFA0BA925
S31508004D40002000F047FB06009DF8640400280FD1F8
S31508004D50FFAA7532DFF808140BA800F06BFA0BA946
S31508004D60002000F037FB06003CE000BFB4D4010881
S31508004D700020804680A10BA800F05CFA00200700FE
S31508004D802D2F2FDAFFA868303844427BDFF8D4137A
S31508004D902BA800F04FFA2BA90BA802F093F818F1EC
S31508004DA00108B8F1100F14DB76A10BA802F08AF8F7
S31508004DB0002080460BA9002000F00CFB0600F6B286
S31508004DC0002E02D03000C0B2C5E06BA10BA800F0DF
S31508004DD031FA7F1CD4E700BF80DD010868DA0108D4
S31508004DE034C701089DF87024DFF87C130BA800F07F
S31508004DF021FA04E0DFF874130BA800F0F9F916E0BD
S31508004E0058B00108E8B801080CB90108EDB2002D40
S31508004E1009D0B1490BA800F0EBF90BA800F0BEF9D0
S31508004E200BA900F095FFA4490BA800F0E1F910E0E2
S31508004E30EDB2002D09D0A8490BA800F0D9F90BA8A6
S31508004E4000F0ACF90BA900F083FF9B490BA800F012
S31508004E50CFF9F6B2002E09D0022E43D007D3032E7F
S31508004E604ED054E054C70108DCCB010855E007F0E2
S31508004E707AFC4690469801280AD002280DD00428C4
S31508004E8012D0082815D0102818D020281ED022E0C5
S31508004E90B7490BA800F0ACF921E0B6490BA800F019
S31508004EA0A7F91CE074C70108B3490BA800F0A0F9DC
S31508004EB015E0B2490BA800F09BF910E0B0490BA821
S31508004EC000F096F90BE000BFF8CB0108AD490BA836
S31508004ED000F08EF903E0AC490BA800F089F907F059
S31508004EE01CFB1AE0A9490BA800F082F907F015FB8C
S31508004EF013E000BF94C70108CCD40108B4C7010861
S31508004F00A3490BA800F074F907F007FB05E0A149CF
S31508004F100BA800F06DF907F000FB0BA9002000F0C4
S31508004F2059FA0600F6B2002E04D03000C0B212E0DC
S31508004F3030B9010898490BA800F05AF90BA90020C6
S31508004F4000F048FA0600F6B2002E02D03000C0B2D1
S31508004F5001E03000C0B20DF5A06D0DB0BDE8F08FD0
S31508004F60D4C7010880B0010854B9010884A701080C
S31508004F7078B901089CB9010800000000F4C70108C7
S31508004F80C8DD01080D0A0000C0B90108B0A701086C
S31508004F90E4B9010808BA010814C801082CBA0108BE
S31508004FA0DCA70108F8B50400200000F0F7F80500B2
S31508004FB00020070000200600AE4216DAA05D3A2857
S31508004FC002DAA05D302805DAA05D472805DAA05D7B
S31508004FD0412802DB0020070001E001200700012F1D
S31508004FE001D1002002E0761CE6E70120F2BD2DE99A
S31508004FF0F041040000275FF00008200000F0CEF81A
S31508005000050000200600AE421ADAA05D3A2806DA44
S31508005010A05D302803DBA05D303807000CE0A05DFA
S31508005020472806DAA05D412803DBA05D373807006C
S3150800503002E05FF0FF3004E017EB0818761CE2E7A1
S315080050404046BDE8F08127480078704750BA010805
S3150800505074BA010834C8010898BA010808A80108F2
S31508005060BCBA0108E0BA010854C8010804BB010823
S3150800507034A8010828BB01084CBB010874C80108FC
S3150800508070BB01080000204194C80108A8B00108B7
S31508005090B4C80108D0B0010814CC01087CDA0108AC
S315080050A030CC01084CCC010868CC0108E4D40108CE
S315080050B0D4C8010894BB010834C40108F4C801081F
S315080050C0F8B0010884CC010820B10108A0CC010879
S315080050D048B1010870B10108F4C30108BCCC010845
S315080050E0D8CC0108396A0020FCD4010840A201087E
S315080050F0F4CC0108B8BB0108DCBB010814C90108D7
S3150800510034C9010884A4010894E00108E0DD010817
S3150800511090DA010810CD01082CCD010800BC010861
S3150800512054C9010848CD010898B1010898A001089A
S31508005130F8980108409901088899010864CD010882
S315080051405C9D01089C9D0108AC960108F89601082B
S315080051504497010814D50108A4DA0108FCDB010804
S315080051600CDC01089CE00108B8DA0108C0B10108A6
S31508005170E8B10108B4A40108E4A4010814A50108CB
S3150800518010B2010844A5010838B2010860B2010846
S3150800519088B20108B0B20108A4E0010800F10103D1
S315080051A0810704D010F8011B89B18107FAD102687A
S315080051B0B2F10131914311F0803F04BF50F8042F3A
S315080051C0F6E710F8011B11B110F8011BFBE7C01A2E
S315080051D0704703681AB95A1E02600846704719785C
S315080051E000290FBF4FF0FF30591C0160187870472F
S315080051F05FEA000C830706D011F8013B00F8013B73
S31508005200B3B18307F8D10A68B2F1013323EA02037E
S3150800521013F0803F02BF40F8042B51F8042FF3E740
S3150800522011F8013B00F8013B13B111F8013BF9E70E
S31508005230604670470CB41CB5044604A801900A469B
S31508005240009401AB694607487844183008F06EF9AF
S31508005250009A0021117000285CBF0098001B16BC3C
S315080052605DF80CFB4378000080B5DFF87005DFF8C1
S31508005270701508604FF49640DFF864154860002002
S31508005280DFF85C1588600020DFF85415C860002038
S31508005290DFF84C1508610C20DFF84415486100203A
S315080052A0DFF83C1588610020DFF83415C861DFF89F
S315080052B0300509F00BFA002801D00AF00FFA01BDF3
S315080052C080B5DFF82005DFF8201508605FF4E130C7
S315080052D0DFF8141548600020DFF80C1588600020F8
S315080052E0DFF80415C8600020DFF8FC1408610C20FC
S315080052F0DFF8F41448614FF44070DFF8EC14886165
S315080053000020DFF8E414C861DFF8DC0409F0DEF9F0
S31508005310002801D00AF0E2F901BD10B586B00400F4
S315080053202068DFF8B81488421ED1DFF8C004006888
S3150800533050F40030DFF8B4140860DFF8B0040068F1
S3150800534010F40030009000980C2001900220029082
S3150800535001200390032004900720059001A9DFF897
S3150800536090040AF0D3F933E02068DFF8781488420D
S315080053702ED1DFF87804006850F48020DFF86C142A
S315080053800860DFF86804006810F480200090009830
S315080053904FF4406001900220029001200390032000
S315080053A004900720059001A9DFF848040AF0AEF931
S315080053B04FF4C04001900220029000200390032081
S315080053C004900720059001A9DFF828040AF09EF941
S315080053D006B010BDF8B504000D002800FFF7DEFE84
S315080053E00700BFB2832F01DB01203AE0E4B2002CAC
S315080053F019D1DFF804040078002801D0022030E033
S315080054004FF400433A0092B22900DFF8D40309F0BA
S3150800541096F90600F6B2002E02D03000C0B220E09F
S315080054203000C0B21DE0E4B2012C19D1DFF8CC037C
S315080054300078002801D0022013E04FF400433A0018
S3150800544092B22900DFF8A00309F079F90600F6B24E
S31508005450002E02D03000C0B203E03000C0B200E037
S315080054600120F2BDF8B504000D002800FFF796FEEE
S315080054700700BFB2832F01DB012036E0E4B2002C1F
S3150800548017D1DFF874030078002801D002202CE039
S315080054903A0092B22900DFF8480309F0CEF906006F
S315080054A0F6B2002E02D03000C0B21EE03000C0B204
S315080054B01BE0E4B2012C17D1DFF84003007800287E
S315080054C001D0022011E03A0092B22900DFF8180351
S315080054D009F0B3F90600F6B2002E02D03000C0B2C9
S315080054E003E03000C0B200E00120F2BDDFF810038F
