S02E0000526F616420426F61726420526576204D2E3520424153454C494E4520446563203920323031362E737265637A
S315080000005041002011AF010871B3010843D100081F
S3150800001057D1000875B301086BD10008000000002D
S31508000020000000000000000000000000BF77010883
S3150800003079B30108000000006D770108017901080D
S31508000040D9B700087DB3010881B3010885B3010853
S3150800005089B301088DB3010891B3010895B3010866
S3150800006099B301089DB30108A1B3010809790108EC
S31508000070A5B30108A9B30108ADB30108B1B30108D6
S31508000080B5B30108B9B30108BDB30108C1B3010886
S3150800009013790108C5B30108C9B30108CDB301082E
S315080000A0D1B30108D5B30108D9B30108DDB30108F6
S315080000B04F790108597901081D7901083B7901082A
S315080000C045790108E1B30108E5B30108E9B3010878
S315080000D0EDB30108F1B30108317901082779010860
S315080000E0F5B30108F9B30108FDB3010891620008E8
S315080000F001B401080000000005B4010809B40108AC
S315080001000DB4010811B4010815B4010819B40108A1
S315080001101DB4010821B4010825B401080000000037
S3150800012029B4010801201D4981F8280000207047DC
S3150800013010B50400194890F82800022801D10220B9
S3150800014016E0164890F82800002801D101200FE093
S31508000150200004F037FD282801D3012008E02100FB
S315080001600E4804F059FD02200C4981F828000020A9
S3150800017010BD10B5094890F8280002280BD10121B6
S31508000180064800F00DF804000120044981F828000B
S315080001902000C0B200E0002010BD00006C65002001
S315080001A02DE9F04FADF5806D97B004000D002000E5
S315080001B004F008FD8046DFF8E80D007800281ED018
S315080001C020781B2815D10020DFF8D41D0870DFF829
S315080001D0D41D0AA804F020FD0AA9002004F0F4FDA5
S315080001E00600F6B2002E04F0E8833000C0B204F030
S315080001F0E6BB2100012005F023FA04F0DEBB2078D7
S3150800020030282FD0312848D0322879D0332800F02A
S31508000210AA80342800F0DA80352800F00A813628CA
S3150800022000F07881412800F08E81422800F0E982AA
S31508000230432800F09385442800F07B87452801F081
S31508000240ED80462801F0FF80472801F017814828ED
S3150800025001F09481502801F06B84542801F09884A9
S3150800026004F023BB05F053FD0600F6B2002E12D1AA
S31508000270EDB2002D0AD0DFF8D81D0AA804F0CCFC90
S315080002800AA804F09FFC0AA905F0DAF9DFF81C1E93
S315080002900AA804F0C1FC04F019BB8CA805F089FD76
S315080002A00600DFF80C1E0AA804F0B6FC0AA900200E
S315080002B004F08AFD0600F6B2002E03D03000C0B264
S315080002C004F07DBBEDB2002D0BD08CAADFF8E41D3F
S315080002D00AA805F0FFFD0AA804F074FC0AA905F0AF
S315080002E0AFF9DFF81C1E0AA805F0F4FD8CA90AA8C8
S315080002F005F00AFED8A10AA805F006FE04F0E6BA3B
S315080003008CA805F072FD0600DFF8FC1D0AA804F0AB
S3150800031083FC0AA9002004F057FD0600F6B2002E59
S3150800032003D03000C0B204F04ABBEDB2002D0BD0AA
S315080003308CAADFF8D81D0AA805F0CCFD0AA804F097
S3150800034041FC0AA905F07CF9DFF8C41D0AA805F0E6
S31508000350C1FD8CA90AA805F0D7FDBFA10AA805F01A
S31508000360D3FD04F0B3BA8CA805F05DFD0600DFF8EE
S31508000370A41D0AA804F050FC0AA9002004F024FDD4
S315080003800600F6B2002E03D03000C0B204F017BB48
S31508000390EDB2002D0BD08CAADFF87C1D0AA805F05B
S315080003A099FD0AA804F00EFC0AA905F049F9DFF838
S315080003B06C1D0AA805F08EFD8CA90AA805F0A4FDF7
S315080003C0A5A10AA805F0A0FD04F080BA8CA805F03E
S315080003D048FD0600DFF8481D0AA804F01DFC0AA916
S315080003E0002004F0F1FC0600F6B2002E03D030001F
S315080003F0C0B204F0E4BAEDB2002D0BD08CAADFF837
S31508000400041E0AA805F066FD0AA804F0DBFB0AA983
S3150800041005F016F9DFF8F01D0AA805F05BFD8CA9B2
S315080004200AA805F071FD8CA10AA805F06DFD04F077
S315080004304DBA05F039FC4790DFF8D01D0AA804F03C
S31508000440EBFB8CA805F0B5FC06000AA9002004F011
S31508000450BBFC0600F6B2002E03D03000C0B204F092
S31508000460AEBAEDB2002D0AD0DFF8E81D0AA804F0EE
S31508000470D3FB0AA804F0A6FB0AA905F0E1F80020B8
S315080004803A90DAA10AA805F025FD00200700802F7A
S315080004902EDA4798C257DFF8C01D2AA805F01AFDBC
S315080004A02AA90AA805F030FD3A98401C3A903A98CD
S315080004B010281BDB68A10AA805F026FD00203A9043
S315080004C00AA9002004F080FC0600F6B2002E03D02C
S315080004D03000C0B204F073BA0AA804F073FB0AA984
S315080004E005F0AEF8C1A10AA805F0F4FC7F1CCEE71A
S315080004F0DFF8101E0AA804F08FFB0AA804F062FBB6
S315080005000AA905F09DF8DFF8001E0AA805F0E2FC26
S3150800051004F0DCB90020060005F0C1FCEDB2002DA0
S315080005200AD0DFF8E81D0AA804F076FB0AA804F04A
S3150800053049FB0AA905F084F8DFF8D41D0AA804F0D7
S315080005406BFB04F0C3B95FFA88F8B8F1010F00F045
S3150800055056816078362839D0382800F0B88039288E
S3150800056000F02281492840F0458105F0DBFC0600B1
S31508000570EDB2002D0AD0DFF8041E0AA804F04CFBE1
S315080005800AA804F01FFB0AA905F05AF8F6B2002ECD
S3150800059005D1DFF8EC1D0AA804F03EFB15E0DFF8EC
S315080005A0101E0AA804F038FB8DF8B4600AA90020CA
S315080005B004F00AFC0600F6B2002E03D03000C0B2E2
S315080005C004F0FDB99DF8B400060018E1ADA805F0E1
S315080005D01CFD0600F6B2002E04D1FFA8403005F037
S315080005E0CBFC0600F6B2002E5AD1DFF8C81D0AA8C1
S315080005F004F012FB0AA9002004F0E6FB0600F6B296
S31508000600002E03D03000C0B204F0D9B9DFF8A81D17
S315080006100AA805F05FFC0AA9002004F0D5FB06002D
S31508000620F6B2002E03D03000C0B204F0C8B9FFAB52
S315080006304033ADAADFF8841D0AA805F04BFC0AA9C9
S31508000640002004F0C1FB0600F6B2002E06D03000EA
S31508000650C0B204F0B4B900BF0D0A0000EDB2002D17
S315080006600AD0DFF8181D0AA804F0D6FA0AA804F07A
S31508000670A9FA0AA904F0E4FFDFF8F41D0AA805F0B0
S3150800068029FCB0A90AA805F03FFCB39ADFF8E41DD7
S315080006902AA805F01FFC2AA90AA805F035FC15E0CA
S315080006A0DFF8D41D0AA804F0B7FA8DF8B4600AA9D1
S315080006B0002004F089FB0600F6B2002E03D03000B5
S315080006C0C0B204F07CB99DF8B400060097E03DA8D6
S315080006D005F0DFFC0600F6B2002E27D1DFF8F81D7C
S315080006E00AA804F099FA0AA9002004F06DFB06008E
S315080006F0F6B2002E03D03000C0B204F060B9DFF8BD
S31508000700DC1D0AA805F0E6FB0DF581710AA805F0BF
S31508000710FBFB37A10AA805F0F7FB0AA9002004F09D
S3150800072053FB0600F6B2002E01D104E067E0300064
S31508000730C0B204F044B9BDF80A21DFF8081E0AA8B9
S3150800074005F0C8FB0AA9002004F03EFB0600F6B235
S31508000750002E03D03000C0B204F031B9EDB2002D3E
S315080007600AD0DFF8181C0AA804F056FA0AA804F0FA
S3150800077029FA0AA904F064FFDFF8CC1D0AA805F0D7
S31508000780A9FB3DA90AA805F0BFFBDFF8C01D0AA80A
S3150800079005F0BAFB0DF1FB010AA805F0B5FB14A19B
S315080007A00AA805F0B1FB2AE005F0D2FC0600EDB276
S315080007B0002D0AD0DFF8C41B0AA804F02DFA0AA8EF
S315080007C004F000FA0AA904F03BFFF6B2002E05D1A0
S315080007D0DFF87C1D0AA804F01FFA06E0DFF8741D8E
S315080007E00AA804F019FA0020060008E00000000034
S315080007F00D0A0000DFF8601D0AA804F00DFA04F0DF
S3150800080065B85FFA88F8B8F1010F40F03481052021
S3150800081006F00EFE00280BD056A808F0CFF9060001
S31508000820F6B2002E17D1C6A807F042FE060012E05F
S31508000830062006F0FDFD00280BD056A807F0D4FACE
S315080008400600F6B2002E06D1C6A806F062FF06001C
S3150800085001E001200600EDB2002D0AD0DFF81C1BCE
S315080008600AA804F0D9F90AA804F0ACF90AA904F010
S31508000870E7FEF6B2002E40F0FC80DFF8EC1D0AA871
S3150800088004F0CAF90AA9002004F09EFA0600F6B296
S31508000890002E03D03000C0B204F091B80020070043
S315080008A0092F80F2D380002F0FD0022F35D020D306
S315080008B0042F5AD045D3062F00F07F8069D3082F1E
S315080008C000F0A380C0F08D80B2E0BDF86E01039001
S315080008D0C7A8C01C029057A8C01C0190C6A80090C3
S315080008E056AB0DF5B372DFF81C1E0AA805F0F2FA2E
S315080008F09EE0BDF886010390CDA8C01C02905DA8B5
S31508000900C01C0190CCA800905CAB0DF5BF72DFF857
S31508000910F81D0AA805F0DEFA8AE0BDF89E010390E4
S31508000920D3A8C01C029063A8C01C0190D2A800904E
S3150800093062AB0DF5CB72DFF8D01D0AA805F0CAFA2E
S3150800094076E0BDF8B6010390D9A8C01C029069A844
S31508000950C01C0190D8A8009068AB0DF5D772DFF8D7
S31508000960A81D0AA805F0B6FA62E0BDF8CE01039004
S31508000970DFA8C01C02906FA8C01C0190DEA80090DA
S315080009806EAB0DF5E372DFF8801D0AA805F0A2FA32
S315080009904EE0BDF8E6010390E5A8C01C029075A8D4
S315080009A0C01C0190E4A8009074AB0DF5EF72DFF857
S315080009B0581D0AA805F08EFA3AE0BDF8FE01039024
S315080009C0EBA8C01C02907BA8C01C0190EAA8009066
S315080009D07AAB0DF5FB72DFF8301D0AA805F07AFA36
S315080009E026E0BDF816020390F1A8C01C029081A863
S315080009F0C01C0190F0A8009080AB83AA921CDFF877
S31508000A00081D0AA805F066FA12E0BDF82E02039042
S31508000A10F7A8C01C029087A8C01C0190F6A80090F1
S31508000A2086AB89AA921CDFF8E01C0AA805F052FAE0
S31508000A300AA9002004F0C8F90600F6B2002E03D071
S31508000A403000C0B203F0BBBF7F1C29E7DFF8F81DF2
S31508000A500AA805F03FFA45A90AA805F055FABEA165
S31508000A600AA805F051FADFF8E81D0AA805F032FAD7
S31508000A7070E103F02BBF607830281FD0312800F0D2
S31508000A805081492840F0668107F05CFC0600EDB20B
S31508000A90002D0AD0DFF8E4180AA804F0BDF80AA861
S31508000AA004F090F80AA904F0CBFDF6B2002E04D1A2
S31508000AB0DFF8041E0AA804F0AFF84BE1052006F09B
S31508000AC0B7FC00280BD056A808F078F80600F6B24E
S31508000AD0002E17D1C6A807F0EBFC060012E0062088
S31508000AE006F0A6FC00280BD056A807F07DF90600EC
S31508000AF0F6B2002E06D1C6A806F00BFE060001E0E7
S31508000B0001200600EDB2002D0AD0DFF870180AA8F9
S31508000B1004F082F80AA804F055F80AA904F090FD32
S31508000B20F6B2002E40F0FC80DFF83C1B0AA804F061
S31508000B3073F80AA9002004F047F90600F6B2002E59
S31508000B4003D03000C0B203F03ABF00200700092FD7
S31508000B5080F2D380002F0FD0022F35D020D3042F58
S31508000B605AD045D3062F00F07F8069D3082F00F0AE
S31508000B70A380C0F08D80B2E0BDF86E010390C7A8CF
S31508000B80C01C029057A8C01C0190C6A8009056AB7E
S31508000B900DF5B372DFF86C1B0AA805F09BF99EE009
S31508000BA0BDF886010390CDA8C01C02905DA8C01CA4
S31508000BB00190CCA800905CAB0DF5BF72DFF8481B1E
S31508000BC00AA805F087F98AE0BDF89E010390D3A824
S31508000BD0C01C029063A8C01C0190D2A8009062AB0A
S31508000BE00DF5CB72DFF8201B0AA805F073F976E03D
S31508000BF0BDF8B6010390D9A8C01C029069A8C01C0C
S31508000C000190D8A8009068AB0DF5D772DFF8F81AEE
S31508000C100AA805F05FF962E0BDF8CE010390DFA8E7
S31508000C20C01C02906FA8C01C0190DEA800906EAB95
S31508000C300DF5E372DFF8D01A0AA805F04BF94EE075
S31508000C40BDF8E6010390E5A8C01C029075A8C01C73
S31508000C500190E4A8009074AB0DF5EF72DFF8A81ABE
S31508000C600AA805F037F93AE0BDF8FE010390EBA8AB
S31508000C70C01C02907BA8C01C0190EAA800907AAB21
S31508000C800DF5FB72DFF8801A0AA805F023F926E0AD
S31508000C90BDF816020390F1A8C01C029081A8C01CDA
S31508000CA00190F0A8009080AB83AA921CDFF8581A2E
S31508000CB00AA805F00FF912E0BDF82E020390F7A86E
S31508000CC0C01C029087A8C01C0190F6A8009086ABAD
S31508000CD089AA921CDFF8301A0AA805F0FBF80AA9B7
S31508000CE0002004F071F80600F6B2002E03D030009A
S31508000CF0C0B203F064BE7F1C29E7DFF84C1B0AA8C4
S31508000D0005F0E8F845A90AA805F0FEF812A10AA810
S31508000D1005F0FAF8DFF8381B0AA805F0DBF819E041
S31508000D2018E007F07AFB0600EDB2002D0AD0DFF8CE
S31508000D304C160AA803F070FF0AA803F043FF0AA995
S31508000D4004F07EFCF6B2002E04D1DFF8D01D0AA806
S31508000D5003F062FF03F0BABD0D0A00005FFA88F8D7
S31508000D60B8F1010F50D143A808F09DFD0600F6B270
S31508000D70002E03D195A808F01DFD0600F6B2002E38
S31508000D8026D1DFF8041E0AA803F046FF0AA90020A8
S31508000D9004F01AF80600F6B2002E03D03000C0B2EE
S31508000DA003F00DBEDFF8E41D0AA805F093F845A97F
S31508000DB00AA805F0A9F8D3A10AA805F0A5F80AA972
S31508000DC0002004F001F80600F6B2002E02D105E074
S31508000DD003F07CBD3000C0B203F0F1BDEDB2002DCA
S31508000DE00AD0DFF898150AA803F016FF0AA803F038
S31508000DF0E9FE0AA904F024FC95AB43AADFF8C41D52
S31508000E000AA805F067F892E16078302824D03128DE
S31508000E1072D0322800F0C880332800F01B81492898
S31508000E2040F0808108F096F90600EDB2002D0AD050
S31508000E30DFF848150AA803F0EFFE0AA803F0C2FE79
S31508000E400AA904F0FDFBF6B2002E04D1DFF8E41D72
S31508000E500AA803F0E1FE6AE143A808F052FA060080
S31508000E60F6B2002E03D195A808F0CFF90600EDB228
S31508000E70002D0AD0DFF804150AA803F0CDFE0AA84B
S31508000E8003F0A0FE0AA904F0DBFBF6B2002E26D179
S31508000E90DFF8D4170AA803F0BFFE0AA9002003F05A
S31508000EA093FF0600F6B2002E03D03000C0B203F05E
S31508000EB086BDDFF894190AA805F00CF845A90AA812
S31508000EC005F022F88FA10AA805F01EF80AA9002045
S31508000ED003F07AFF0600F6B2002E01D104E026E1FF
S31508000EE03000C0B203F06BBD95AB43AADFF8941D82
S31508000EF00AA804F0EFFF1AE1C2A808F0F5FA0600FE
S31508000F00F6B2002E04D1FFA8303008F071FA0600B8
S31508000F10EDB2002D0AD0DFF864140AA803F07CFEAF
S31508000F200AA803F04FFE0AA904F08AFBF6B2002EBF
S31508000F3027D1DFF8F01D0AA803F06EFE0AA90020E3
S31508000F4003F042FF0600F6B2002E03D03000C0B20E
S31508000F5003F035BDDFF8D01D0AA804F0BBFFC4A90D
S31508000F60491C0AA804F0D0FF66A10AA804F0CCFF21
S31508000F700AA9002003F028FF0600F6B2002E01D1C8
S31508000F8004E0D4E03000C0B203F019BDFFAB303343
S31508000F90C2AADFF8981D0AA804F09CFFC7E000BFA4
S31508000FA000670020447F0108BEA808F08EFB0600F3
S31508000FB0F6B2002E04D1FFA8203008F00CFB06007C
S31508000FC0EDB2002D0AD0DFF8B4130AA803F024FE08
S31508000FD00AA803F0F7FD0AA904F032FBF6B2002EC0
S31508000FE027D1DFF84C1D0AA803F016FE0AA900202F
S31508000FF003F0EAFE0600F6B2002E03D03000C0B2B7
S3150800100003F0DDBCDFF82C1D0AA804F063FFC0A9B5
S31508001010491C0AA804F078FF3AA10AA804F074FF4C
S315080010200AA9002003F0D0FE0600F6B2002E01D170
S3150800103004E07CE03000C0B203F0C1BCFFAB203353
S31508001040BEAADFF8E01D0AA804F044FF6FE000BF5F
S31508001050A88E010843A808F026FC0600F6B2002E62
S3150800106003D195A808F0A6FB0600EDB2002D09D01D
S31508001070C2490AA803F0D0FD0AA803F0A3FD0AA9ED
S3150800108004F0DEFAF6B2002E2CD1DFF8FC1A0AA814
S3150800109003F0C2FD0AA9002003F096FE0600F6B288
S315080010A0002E09D03000C0B203F089BC087B0108C5
S315080010B060860108909A0108DFF8D01A0AA804F099
S315080010C009FF45A90AA804F01FFF0EA10AA804F003
S315080010D01BFF0AA9002003F077FE0600F6B2002ED1
S315080010E001D104E023E03000C0B203F068BC95AB40
S315080010F043AADFF8D01A0AA804F0ECFE17E000BFEE
S31508001100B09A01080D0A000088860108D09A0108DD
S31508001110F09A0108B0860108109B0108309B010867
S31508001120D8860108DFF830140AA803F075FD03F025
S31508001130CDBB5FFA88F8B8F1010F69D151A808F05C
S3150800114019FE0600F6B2002E03D1FCA808F08FFCA3
S315080011500600EDB2002D09D088490AA803F05CFD07
S315080011600AA803F02FFD0AA904F06AFAF6B2002EBF
S3150800117026D1DFF8CC1D0AA803F04EFD0AA90020E7
S3150800118003F022FE0600F6B2002E03D03000C0B2ED
S3150800119003F015BCDFF8AC1D0AA804F09BFE53A9A2
S315080011A00AA804F0B1FECEA10AA804F0ADFE0AA969
S315080011B0002003F009FE0600F6B2002E02D105E073
S315080011C003F084BB3000C0B203F0F9BBBDF854216C
S315080011D0DFF8741D0AA804F07DFE0AA9002003F0B2
S315080011E0F3FD0600F6B2002E03D03000C0B203F0BD
S315080011F0E6BBFCAB51AADFF8541D0AA804F06AFE48
S315080012000AE100BF509B0108709B0108008701088E
S315080012106078302822D0312800F08A80492840F0AA
S31508001220FB8008F0D1FB0600EDB2002D09D053492A
S315080012300AA803F0F1FC0AA803F0C4FC0AA904F002
S31508001240FFF9F6B2002E04D1DFF8E81D0AA803F06C
S31508001250E3FCE1E0CC8E010864B2010851A808F06D
S3150800126089FD0600EDB2002D09D044490AA803F00D
S31508001270D3FC0AA803F0A6FC0AA904F0E1F9F6B221
S31508001280002E26D1DFF8B81C0AA803F0C5FC0AA967
S31508001290002003F099FD0600F6B2002E03D03000B8
S315080012A0C0B203F08CBBDFF89C1C0AA804F012FE3F
S315080012B053A90AA804F028FE89A10AA804F024FE66
S315080012C00AA9002003F080FD0600F6B2002E01D11F
S315080012D004E0A1E03000C0B203F071BBBDF85421B0
S315080012E0DFF8641C0AA804F0F5FD0AA9002003F03B
S315080012F06BFD0600F6B2002E0CD03000C0B203F02B
S315080013005EBB00BF58B0010818AD010848A1010826
S31508001310F08E0108DFF8CC1D0AA804F0DBFD51A900
S315080013200AA804F0F1FD6EA10AA804F0EDFD73E029
S315080013303DA809F01EF80600EDB2002D09D00F49A8
S315080013400AA803F069FC0AA803F03CFC0AA904F001
S3150800135077F9F6B2002E33D1DFF8E41B0AA803F0BA
S315080013605BFC0AA9002003F02FFD0600F6B2002E4A
S3150800137008D03000C0B203F022BB00BF909B010822
S315080013802887010855490AA804F0A4FD0DF58171BE
S315080013900AA804F0B9FD52A10AA804F0B5FD0AA9E5
S315080013A0002003F011FD0600F6B2002E09D10CE06C
S315080013B050870108788701087C7F01082CAD010851
S315080013C02AE03000C0B203F0FABABDF80A215D4936
S315080013D00AA804F07FFD0AA9002003F0F5FC060020
S315080013E0F6B2002E03D03000C0B203F0E8BA564970
S315080013F00AA804F06FFD3DA90AA804F085FD534923
S315080014000AA804F081FD0DF1FB010AA804F07CFD91
S3150800141033A10AA804F078FD03F058BAEDB2002DFE
S315080014200AD0DFF86C1D0AA803F0F6FB0AA803F039
S31508001430C9FB0AA904F004F9DFF8581D0AA803F045
S31508001440EBFB03F043BAEDB2002D0AD0DFF8401DDE
S315080014500AA803F0E1FB0AA803F0B4FB0AA904F002
S31508001460EFF8DFF8341D0AA803F0D6FB03F02EBA0E
S31508001470A0AE010864B00108A08701083DA809F0DC
S31508001480ADF90600EDB2002D0AD0DFF8041D0AA852
S3150800149003F0C2FB0AA803F095FB0AA904F0D0F8EA
S315080014A0F6B2002E04D1FFA8083009F0EBF80600C2
S315080014B0F6B2002E2DD1DFF8E41C0AA803F0ACFB27
S315080014C00AA9002003F080FC0600F6B2002E09D017
S315080014D03000C0B203F073BAC887010840AD0108EE
S315080014E00D0A0000DFF8D81D0AA804F0F3FC0DF574
S315080014F081710AA804F008FDD4A10AA804F004FD25
S315080015000AA9002003F060FC0600F6B2002E02D1FC
S3150800151005E003F0DBB93000C0B203F050BABDF8FD
S315080015200A2108490AA804F0D5FC0AA9002003F0F4
S315080015304BFC0600F6B2002E10D03000C0B203F005
S315080015403EBA00BFB09B0108B0AE0108C0AE0108A4
S31508001550F087010818880108D09B0108FFA80F30FA
S3150800156001900DF1FB000090FFAB08333DAADFF8B0
S31508001570A81D0AA804F0AEFC03F0A8B95FFA88F81B
S31508001580B8F1010F74D1B4A809F0D8FA0600EDB283
S31508001590002D0AD0DFF8F81B0AA803F03DFB0AA8BD
S315080015A003F010FB0AA904F04BF8F6B2002E5DD141
S315080015B0DFF8BC1D0AA803F02FFB0AA9002003F0D8
S315080015C003FC0600F6B2002E03D03000C0B203F0CA
S315080015D0F6B9DFF8EC1D0AA804F07CFC0AA900207D
S315080015E003F0F2FB0600F6B2002E03D03000C0B2BC
S315080015F003F0E5B9DFF8CC1D0AA803F00DFBBAA97C
S315080016000AA804F081FC91A10AA804F07DFC0AA9A5
S31508001610002003F0D9FB0600F6B2002E03D03000F6
S31508001620C0B203F0CCB9DFF8A01D0AA803F0F4FA9B
S31508001630B4A90AA804F068FCDFF8E01D0AA804F0BB
S3150800164063FCB6A90AA804F05FFCDFF8D41D0AA853
S3150800165004F05AFCB8A90AA804F056FC7BA10AA80B
S3150800166004F052FC62E200BF148F010803F02EB9A1
S315080016706078302800F06781312800F0D58132285B
S3150800168000F00282332800F01A82492840F0498285
S315080016905FFA88F8B8F1020F1AD109F04DF9060079
S315080016A0EDB2002D0AD0DFF8E81A0AA803F0B4FA5A
S315080016B00AA803F087FA0AA903F0C2FFF6B2002EB9
S315080016C040F04081DFF85C1D0AA803F0A5FA39E16D
S315080016D0EDB2002D0AD0DFF8B81A0AA803F09CFA72
S315080016E00AA803F06FFA0AA903F0AAFF5FFA88F8B6
S315080016F0B8F11D0F0AD0DFF8C81D0AA803F08CFA46
S3150800170020E100BF2C8201085C820108A0783A28F3
S3150800171017D160792E2814D1207A2E2811D1E07A93
S315080017202E280ED1A07B2E280BD1607C2E2808D11E
S31508001730207D2E2805D1E07D2E2802D1A07E2E28D8
S3150800174005D0DFF8001E0AA803F066FAFAE00020C2
S31508001750359000200700092F26DA032000FB07F042
S31508001760204490F903008DF8A800032000FB07F039
S31508001770204490F904008DF8A90000208DF8AA00ED
S315080017802AA803F033F9002807D1DFF8BC1D0AA8F8
S3150800179003F042FA0120359006E02AA803F04BF937
S315080017A099A9C8557F1CD6E79DF86402082805DB69
S315080017B0DFF8981D0AA803F02FFAB7E19DF864022E
S315080017C010F007008DF8CD009DF86502022805DBAC
S315080017D0DFF8F41D0AA803F01FFAA7E19DF86502D1
S315080017E010F00100C0B2C0008DF8CC009DF866026A
S315080017F0022805DBDFF8D41D0AA803F00DFA95E1E7
S315080018009DF8660210F00100C0B200018DF8CB0009
S315080018109DF86702022805DBDFF8B41D0AA803F065
S31508001820FBF983E19DF8670210F00100C0B24001A0
S315080018308DF8CA009DF8680240280BDBDFF80C1EFD
S315080018400AA803F0E9F971E148A301080D0A0000A6
S3150800185054AD01089DF8680210F03F008DF8C900E4
S315080018609DF86902022805DBDFF8E41D0AA803F0E3
S31508001870D3F95BE19DF8690210F001008021484325
S315080018808DF8C8009DF86A02042805DBDFF8C41D38
S315080018900AA803F0C1F949E19DF86A0210F00300AD
S315080018A08DF8B7009DF86B02042807DBDFF8201EC9
S315080018B00AA803F0B1F939E1B47F01089DF86B0273
S315080018C010F00300C0B280008DF8B6009DF86C02D7
S315080018D0022805DBDFF8FC1D0AA803F09DF925E1BF
S315080018E09DF86C0210F00100C0B200018DF8B50039
S315080018F09DF8CD009DF8CC1008189DF8CB10081857
S315080019009DF8CA1008188DF8EC009DF8C9009DF8D6
S31508001910C81008188DF8ED009DF8B7009DF8B610A8
S3150800192008189DF8B51008188DF8EE003BA809F0C0
S315080019302BF80600F6B2002E04D1DFF89C1D0AA883
S3150800194003F06AF9F2E0B4A809F0F8F80600EDB277
S31508001950002D0AD0DFF838180AA803F05DF90AA89E
S3150800196003F030F90AA903F06BFEF6B2002E5AD13D
S31508001970DFF8FC190AA803F04FF90AA9002003F0BA
S3150800198023FA0600F6B2002E03D03000C0B203F0E8
S3150800199016B8DFF82C1A0AA804F09CFA0AA900203F
S315080019A003F012FA0600F6B2002E03D03000C0B2D9
S315080019B003F005B8DFF80C1A0AA803F02DF9BAA93E
S315080019C00AA804F0A1FAD6A10AA804F09DFA0AA961
S315080019D0002003F0F9F90600F6B2002E03D0300015
S315080019E0C0B202F0ECBFDFF8E0190AA803F014F958
S315080019F0B4A90AA804F088FADFF8201A0AA804F09D
S31508001A0083FAB6A90AA804F07FFADFF8141A0AA816
S31508001A1004F07AFAB8A90AA804F076FAC0A10AA8C6
S31508001A2004F072FA82E081E04DA809F040F8060059
S31508001A30EDB2002D0AD0DFF858170AA803F0ECF823
S31508001A400AA803F0BFF80AA903F0FAFDF6B2002EB9
S31508001A5019D1DFF8E41D0AA803F0DEF89DF8342151
S31508001A60DFF8D81D2AA804F035FA2AA90AA804F02E
S31508001A704BFA4DA9491C0AA804F046FAA8A10AA8D7
S31508001A8004F042FA52E051E008F0A8FF0600EDB271
S31508001A90002D0AD0DFF8F8160AA803F0BDF80AA840
S31508001AA003F090F80AA903F0CBFDF6B2002E05D193
S31508001AB0DFF8001E0AA803F0AFF837E036E04FA8B3
S31508001AC008F0AEFF0600EDB2002D0AD0DFF8C0160A
S31508001AD00AA803F0A1F80AA803F074F80AA903F003
S31508001AE0AFFDF6B2002E1BD1DFF8CC1D0AA803F015
S31508001AF093F89DF83C21DFF8441D2AA804F0EAF97A
S31508001B002AA90AA804F000FA4FA9491C0AA804F051
S31508001B10FBF983A10AA804F0F7F907E0AC830108EA
S31508001B2004E0DFF80C1E0AA803F076F802F0CEBE31
S31508001B306078442818D055281FD1042009F048F9A0
S31508001B40EDB2002D0AD0DFF848160AA803F064F8AB
S31508001B500AA803F037F80AA903F072FDDFF8D41DC6
S31508001B600AA803F059F80DE0042009F03FF9DFF858
S31508001B70C81D0AA803F050F804E0DFF8C01D0AA83B
S31508001B8003F04AF802F0A2BE4088010860A30108E3
S31508001B905FFA88F8B8F1020F16DAEDB2002D0AD00E
S31508001BA0DFF8EC150AA803F037F80AA803F00AF8D4
S31508001BB00AA903F045FDDFF8FC1D0AA803F02CF876
S31508001BC002F072BE64A101086078432800F0E8823A
S31508001BD0442802F00E82462802F00A86492810D0C8
S31508001BE04B2802F041824C2802F01A864D2802F052
S31508001BF0D585522802F01C82552802F0678502F026
S31508001C0042BE5FFA88F8B8F1090F15DAEDB2002D71
S31508001C100AD0DFF87C150AA802F0FEFF0AA802F02F
S31508001C20D1FF0AA903F00CFDDFF8001E0AA802F08E
S31508001C30F3FFAAE2D8830108A078512800F0FC81B6
S31508001C40C0F09E82532802D0C0F0CE8098E2E07899
S31508001C503A2802D1A0792E2816D0EDB2002D0AD046
S31508001C60DFF82C150AA802F0D7FF0AA802F0AAFF87
S31508001C700AA903F0E5FCDFF82C1E0AA802F0CCFF3F
S31508001C80B1E000BF80A10108EDB2002D0AD0DFF84F
S31508001C9000150AA802F0C0FF0AA802F093FF0AA9D5
S31508001CA003F0CEFC94F904008DF8A80094F9050019
S31508001CB08DF8A90000208DF8AA002AA802F096FE41
S31508001CC0002805D1DFF8E01D0AA802F0A5FF8AE082
S31508001CD02AA802F0B0FE319094F907008DF8A80002
S31508001CE094F908008DF8A90000208DF8AA002AA802
S31508001CF002F07CFE002805D1DFF8B01D0AA802F024
S31508001D008BFF70E02AA802F096FE349034980028DB
S31508001D1012D1319ADFF8981D0AA804F0DBF839E0E9
S31508001D200D0A0000388F010868AD010878A301087C
S31508001D30F09B01087CAD01080020359000200700C3
S31508001D403498874226DA032000FB07F0204490F9EE
S31508001D500A008DF8A800032000FB07F0204490F93C
S31508001D600B008DF8A90000208DF8AA002AA802F019
S31508001D703DFE002807D1DFF8301D0AA802F04CFF07
S31508001D800120359006E02AA802F055FE99A9C85503
S31508001D907F1CD5E73598002805D1319ADFF8F81D5C
S31508001DA00AA804F097F800200700349887420BDA4F
S31508001DB099A8C25DCCA12AA804F08CF82AA90AA879
S31508001DC004F0A2F87F1CF0E7C8A10AA804F09CF862
S31508001DD04FF4FA733498020092B299A9319880B2F6
S31508001DE009F022F90600D0E1E0783A2805D1A07971
S31508001DF02E2802D1607A2E2816D0EDB2002D0AD0F0
S31508001E00DFF88C130AA802F007FF0AA802F0DAFE28
S31508001E100AA903F015FCDFF8F81D0AA802F0FCFE73
S31508001E2006E100BF90AD0108EDB2002D09D0D849F2
S31508001E300AA802F0F1FE0AA802F0C4FE0AA903F0F5
S31508001E40FFFB94F904008DF8A80094F905008DF8B5
S31508001E50A90000208DF8AA002AA802F0C7FD0028CC
S31508001E6005D1DFF8241E0AA802F0D6FEE0E02AA86B
S31508001E7002F0E1FD319094F907008DF8A80094F975
S31508001E8008008DF8A90000208DF8AA002AA802F0FB
S31508001E90ADFD002805D1DFF8F41D0AA802F0BCFE46
S31508001EA0C6E02AA802F0C7FD349094F90A008DF816
S31508001EB0A80094F90B008DF8A90000208DF8AA0057
S31508001EC02AA802F093FD002805D1DFF8C41D0AA848
S31508001ED002F0A2FEACE02AA802F0ADFD39903498D3
S31508001EE0002806D1319ADFF8201E0AA803F0F2FF6F
S31508001EF035E00020359000200700349887422EDA16
S31508001F00032000FB07F0204490F90D008DF8A80087
S31508001F10032000FB07F0204490F90E008DF8A90075
S31508001F2000208DF8AA002AA802F060FD00280FD12B
S31508001F30DFF8D81D0AA802F06FFE012035900EE0E2
S31508001F4090A30108A8A301085C8F0108C0A3010893
S31508001F502AA802F070FD99A9C8557F1CCDE73598C7
S31508001F60002805D1319ADFF81C1E0AA803F0B2FF33
S31508001F7000200700349887420BDA99A8C25D5AA157
S31508001F802AA803F0A7FF2AA90AA803F0BDFF7F1C09
S31508001F90F0E756A10AA803F0B7FF4FF4FA7334988E
S31508001FA0020092B299A9319880B209F03DF806006C
S31508001FB0F6B2002E0ED14FF4FA733998020092B297
S31508001FC099A9319880B209F07AF80600F6B2002E7F
S31508001FD005D100E0D9E0142009F0ACF80600F6B205
S31508001FE0002E25D10AA9002002F0EEFE0600F6B260
S31508001FF0002E03D03000C0B202F0E1BCDFF8FC1DB1
S315080020000AA803F067FF00200700399887420BDA11
S3150800201099A8C25D34A12AA803F05CFF2AA90AA8D8
S3150800202003F072FF7F1CF0E730A10AA803F06CFFEB
S31508002030ABE000BF04840108E0783A2802D1A07911
S315080020402E2812D0EDB2002D09D051490AA802F067
S31508002050E3FD0AA802F0B6FD0AA903F0F1FADFF8D3
S31508002060141E0AA802F0D8FD89E0EDB2002D09D0A9
S3150800207047490AA802F0D0FD0AA802F0A3FD0AA95A
S3150800208003F0DEFA94F904008DF8A80094F9050027
S315080020908DF8A90000208DF8AA002AA802F0A6FC4F
S315080020A0002805D1DFF8D01D0AA802F0B5FD66E0C4
S315080020B02AA802F0C0FC319094F907008DF8A80010
S315080020C094F908008DF8A90000208DF8AA002AA81E
S315080020D002F08CFC00280BD1DFF8A01D0AA802F03C
S315080020E09BFD4CE0D0AE010825782E000D0A0000B5
S315080020F02AA802F0A0FC3990319ADFF80C1C0AA82D
S3150800210003F0E8FE4FF4FA733998020092B299A9DF
S31508002110319880B208F0D3FF0600F6B2002E07D138
S31508002120142009F007F80600F6B2002E27D100E0C1
S315080021302BE00AA9002002F047FE0600F6B2002EA0
S3150800214003D03000C0B202F03ABCDFF8B01C0AA8CF
S3150800215003F0C0FE00200700399887420BDA99A8D9
S31508002160C25DD8A12AA803F0B5FE2AA90AA803F0D9
S31508002170CBFE7F1CF0E7D4A10AA803F0C5FE04E055
S31508002180DFF8AC170AA802F047FD02F08DBB00BFC6
S31508002190909B01088C820108D8A30108A4AD010808
S315080021A0002006005FFA88F8B8F1020F40F0E280D6
S315080021B0052005F03DF9002804D056A806F078F960
S315080021C006000BE0062005F033F9002804D056A8CF
S315080021D005F09FFA060001E001200600F6B2002E7F
S315080021E040F0B1803DA808F04DFA0600F6B2002E80
S315080021F040F0948051A807F03AFC0600F6B2002E8B
S3150800220075D1ADA803F0B8FE0600F6B2002E59D176
S31508002210EDB2002D25D0ADA8099051A808903DA88B
S31508002220079056A8069086A8059080A804907AA8D4
S31508002230039074A802906EA8019068A8009062ABFB
S315080022405CAADFF87C1D0AA803F044FEDFF8741DBB
S315080022500AA802F0E1FC0AA802F0B4FC0AA903F0F5
S31508002260EFF9ADA8099051A808903DA8079056A87F
S31508002270069086A8059080A804907AA8039074A86A
S3150800228002906EA8019068A8009062AB5CAADFF87D
S31508002290381D0AA803F01EFE0AA9002002F094FDC4
S315080022A00600F6B2002E03D03000C0B202F087BB9B
S315080022B0DFF8281E0AA803F00DFE01F098BE00BF3D
S315080022C040AD0108EDB2002D0AD0DFF8141E0AA8A9
S315080022D002F0A2FC0AA802F075FC0AA903F0B0F9FC
S315080022E0DFF8001E0AA803F0F5FD01F080BEEDB286
S315080022F0002D0AD0DFF8F01D0AA802F08DFC0AA806
S3150800230002F060FC0AA903F09BF9DFF8E01D0AA8B1
S3150800231003F0E0FD01F06BBE68880108EDB2002D00
S315080023200AD0DFF8CC1D0AA802F076FC0AA802F04B
S3150800233049FC0AA903F084F9DFF84C1E0AA803F041
S31508002340C9FD01F054BEEDB2002D0AD0DFF83C1EDF
S315080023500AA802F061FC0AA802F034FC0AA903F0F4
S315080023606FF9DFF82C1E0AA803F0B4FD01F03FBE92
S315080023709CA10108A078492801F00C86522800F093
S31508002380E985532804D0542801F09F8501F02FBE13
S31508002390E0783A281AD0EDB2002D0AD0DFF8F41DFD
S315080023A00AA802F039FC0AA802F00CFC0AA903F0F4
S315080023B047F9DFF8E41D0AA802F02EFC00F0C8BDB4
S315080023C0EC7F0108E0AE010870B00108EDB2002DFF
S315080023D00AD0DFF85C1E0AA802F01EFC0AA802F062
S315080023E0F1FB0AA903F02CF95FFA88F8B8F1050F92
S315080023F01ADAEDB2002D0AD0DFF8341E0AA802F068
S315080024000BFC0AA802F0DEFB0AA903F019F9DFF8AB
S31508002410241E0AA802F000FC00F09ABD7CB0010850
S3150800242088B00108787A0108201D3090309948A8AC
S3150800243002F0F2FB002029900020289028A800909E
S3150800244029AB36AADFF8F01D48A808F05BFF032879
S3150800245040F07985289808F067FFCDE902012998A8
S3150800246008F062FFCDE9000136AADFF8D01D0AA8F8
S3150800247003F030FD0422DFF85C1E36A808F07BFF67
S31508002480002838D1299A2899002008F0F1FF06007B
S31508002490F6B2002E1AD1EDB2002D0AD0DFF8381E9A
S315080024A00AA802F0B9FB0AA802F08CFB0AA903F0F5
S315080024B0C7F8DFF8281E0AA803F00CFD00F040BD97
S315080024C04C7B010825782E000D0A0000EDB2002D80
S315080024D00AD0DFF80C1E0AA802F09EFB0AA802F032
S315080024E071FB0AA903F0ACF8DFF8F81D0AA803F097
S315080024F0F1FC00F025BD0422DFF8EC1D36A808F033
S315080025003AFF002839D1299A2899012008F0B0FF06
S315080025100600F6B2002E1BD1EDB2002D0AD0DFF868
S31508002520601E0AA802F078FB0AA802F04BFB0AA96B
S3150800253003F086F8DFF84C1E0AA803F0CBFC00F07F
S31508002540FFBC00BFC07A0108547C0108547E01080C
S31508002550EDB2002D0AD0DFF8301E0AA802F05CFBA7
S315080025600AA802F02FFB0AA903F06AF8DFF8741D1F
S315080025700AA803F0AFFC00F0E3BC0422DFF80C1E47
S3150800258036A808F0F8FE002839D1299A2899022099
S3150800259008F06EFF0600F6B2002E1BD1EDB2002D34
S315080025A00AD0DFF8EC1D0AA802F036FB0AA802F0EA
S315080025B009FB0AA903F044F8DFF86C1E0AA803F021
S315080025C089FC00F0BDBC00BF907E0108CC7E0108E6
S315080025D024800108EDB2002D0AD0DFF8501E0AA8A3
S315080025E002F01AFB0AA802F0EDFA0AA903F028F885
S315080025F0DFF8F01C0AA803F06DFC00F0A1BC042269
S31508002600DFF82C1E36A808F0B6FE002839D1299A1C
S315080026102899032008F02CFF0600F6B2002E1BD1DD
S31508002620EDB2002D0AD0DFF80C1E0AA802F0F4FA63
S315080026300AA802F0C7FA0AA903F002F8DFF8F81D9B
S315080026400AA803F047FC00F07BBC00BF947C010895
S31508002650D47C0108147D0108EDB2002D0AD0DFF8FC
S31508002660701E0AA802F0D8FA0AA802F0ABFA0AA95C
S3150800267002F0E6FFDFF86C1C0AA803F02BFC00F05A
S315080026805FBC0422DFF84C1E36A808F074FE00284A
S3150800269039D1299A2899042008F0EAFE0600F6B2EC
S315080026A0002E1BD1EDB2002D0AD0DFF82C1E0AA889
S315080026B002F0B2FA0AA802F085FA0AA902F0C0FFE7
S315080026C0DFF8181E0AA803F005FC00F039BC00BFA5
S315080026D0547D0108947D0108907B0108EDB2002D18
S315080026E00AD0DFF8FC1D0AA802F096FA0AA802F03A
S315080026F069FA0AA902F0A4FFDFF8E81B0AA803F0A2
S31508002700E9FB00F01DBC0422DFF86C1E36A808F0B1
S3150800271032FE002831D1299A2899052008F0A8FE0A
S315080027200600F6B2002E14D1EDB2002D0AD0DFF85D
S315080027304C1E0AA802F070FA0AA802F043FA0AA97F
S3150800274002F07EFFDFF8381E0AA803F0C3FB00F08C
S31508002750F7BBEDB2002D0AD0DFF8281E0AA802F052
S315080027605BFA0AA802F02EFA0AA902F069FFDFF856
S31508002770741B0AA803F0AEFBE2E30422DFF8081E86
S3150800278036A808F0F8FD002830D1299A289906209D
S3150800279008F06EFE0600F6B2002E13D1EDB2002D3B
S315080027A00AD0DFF87C1E0AA802F036FA0AA802F058
S315080027B009FA0AA902F044FFDFF8681E0AA803F01E
S315080027C089FBBDE3EDB2002D0AD0DFF85C1E0AA82E
S315080027D002F022FA0AA802F0F5F90AA902F030FF77
S315080027E0DFF8001B0AA803F075FBA9E30422DFF84B
S315080027F03C1E36A808F0BFFD002835D1299A28992D
S31508002800072008F035FE0600F6B2002E18D1EDB204
S31508002810002D0AD0DFF8181E0AA802F0FDF90AA84A
S3150800282002F0D0F90AA902F00BFFDFF8981E0AA8F1
S3150800283003F050FB84E300BF109C01086CB201084A
S31508002840EDB2002D0AD0DFF8801E0AA802F0E4F9DE
S315080028500AA802F0B7F90AA902F0F2FEDFF8841A0C
S315080028600AA803F037FB6BE30422DFF8601E36A8DC
S3150800287008F081FD002835D1299A2899082008F002
S31508002880F7FD0600F6B2002E18D1EDB2002D0AD0DB
S31508002890DFF83C1E0AA802F0BFF90AA802F092F96E
S315080028A00AA902F0CDFEDFF82C1E0AA803F012FBD7
S315080028B046E300BFC8800108808F0108EDB2002DED
S315080028C00AD0DFF8A41E0AA802F0A6F90AA802F0A0
S315080028D079F90AA902F0B4FEDFF8081A0AA803F083
S315080028E0F9FA2DE30422DFF8841E36A808F043FD22
S315080028F0002839D1299A2899092008F0B9FD060037
S31508002900F6B2002E1CD1EDB2002D0AD0DFF8601EFB
S315080029100AA802F081F90AA802F054F90AA902F0F5
S315080029208FFEDFF8501E0AA803F0D4FA08E300BFAA
S31508002930D09B0108309C0108509C0108308401088E
S31508002940EDB2002D0AD0DFF8301E0AA802F064F9AD
S315080029500AA802F037F90AA902F072FEDFF884190C
S315080029600AA803F0B7FAEBE20422DFF8A01E36A89D
S3150800297008F001FD002833D1299A28990A2008F081
S3150800298077FD0600F6B2002E16D1EDB2002D0AD05C
S31508002990DFF87C1E0AA802F03FF90AA802F012F92D
S315080029A00AA902F04DFEDFF86C1E0AA803F092FA97
S315080029B0C6E200BF709C0108EDB2002D0AD0DFF810
S315080029C0581E0AA802F028F90AA802F0FBF80AA974
S315080029D002F036FEDFF80C190AA803F07BFAAFE21C
S315080029E00422DFF8381E36A808F0C5FC002833D1C3
S315080029F0299A28990B2008F03BFD0600F6B2002E0E
S31508002A0016D1EDB2002D0AD0DFF8A41E0AA802F0EE
S31508002A1003F90AA802F0D6F80AA902F011FEDFF8AF
S31508002A20941E0AA803F056FA8AE200BF90880108A5
S31508002A30EDB2002D0AD0DFF8801E0AA802F0ECF8E5
S31508002A400AA802F0BFF80AA902F0FAFDDFF89418FE
S31508002A500AA803F03FFA73E20422DFF8601E36A8DC
S31508002A6008F089FC002839D1299A28990C2008F001
S31508002A70FFFC0600F6B2002E1CD1EDB2002D0AD0DE
S31508002A80DFF83C1E0AA802F0C7F80AA802F09AF86E
S31508002A900AA902F0D5FDDFF8BC1E0AA803F01AFA47
S31508002AA04EE200BFB88801085C840108FC80010872
S31508002AB0F0A30108EDB2002D0AD0DFF89C1E0AA883
S31508002AC002F0AAF80AA802F07DF80AA902F0B8FDF1
S31508002AD0DFF810180AA803F0FDF931E20422DFF83E
S31508002AE07C1E36A808F047FC002830D1299A289978
S31508002AF00D2008F0BDFC0600F6B2002E13D1EDB28B
S31508002B00002D0AD0DFF8581E0AA802F085F80AA890
S31508002B1002F058F80AA902F093FDDFF8481E0AA841
S31508002B2003F0D8F90CE2EDB2002D0AD0DFF8C81E82
S31508002B300AA802F071F80AA802F044F80AA902F0F5
S31508002B407FFDDFF8A0170AA803F0C4F9F8E104220C
S31508002B50DFF8A81E36A808F00EFC002832D1299AFC
S31508002B6028990E2008F084FC0600F6B2002E15D12E
S31508002B70EDB2002D0AD0DFF8881E0AA802F04CF83C
S31508002B800AA802F01FF80AA902F05AFDDFF8741E17
S31508002B900AA803F09FF9D3E1B8AD0108EDB2002DFC
S31508002BA00AD0DFF8641E0AA802F036F80AA802F06E
S31508002BB009F80AA902F044FDDFF828170AA803F065
S31508002BC089F9BDE10422DFF8D41E36A808F0D3FB44
S31508002BD0002833D1299A28990F2008F049FC0600C5
S31508002BE0F6B2002E16D1EDB2002D0AD0DFF8B01ECF
S31508002BF00AA802F011F80AA801F0E4FF0AA902F0EF
S31508002C001FFDDFF8A01E0AA803F064F998E100BFCB
S31508002C10E0880108EDB2002D0AD0DFF88C1E0AA85C
S31508002C2001F0FAFF0AA801F0CDFF0AA902F008FD93
S31508002C30DFF8B0160AA803F04DF981E10422DFF89F
S31508002C406C1E36A808F097FB002837D1299A2899D0
S31508002C50102008F00DFC0600F6B2002E1AD1EDB2CF
S31508002C60002D0AD0DFF8D81E0AA801F0D5FF0AA859
S31508002C7001F0A8FF0AA902F0E3FCDFF8C81E0AA8BB
S31508002C8003F028F95CE100BF888401083081010857
S31508002C90087F0108EDB2002D0AD0DFF8AC1E0AA89D
S31508002CA001F0BAFF0AA801F08DFF0AA902F0C8FCD4
S31508002CB0DFF830160AA803F00DF941E10422DFF81F
S31508002CC08C1E36A808F057FB002835D1299A289972
S31508002CD0112008F0CDFB0600F6B2002E18D1EDB291
S31508002CE0002D0AD0DFF8681E0AA801F095FF0AA889
S31508002CF001F068FF0AA902F0A3FCDFF8581E0AA82B
S31508002D0003F0E8F81CE100BF08A4010808890108D7
S31508002D10EDB2002D0AD0DFF8D01E0AA801F07CFF1C
S31508002D200AA801F04FFF0AA902F08AFCDFF8B415D9
S31508002D300AA803F0CFF803E10422DFF8B01E36A88C
S31508002D4008F019FB002833D1299A2899122008F08F
S31508002D508FFB0600F6B2002E16D1EDB2002D0AD072
S31508002D60DFF88C1E0AA801F057FF0AA801F02AFF0F
S31508002D700AA902F065FCDFF87C1E0AA803F0AAF887
S31508002D80DEE000BFCCAD0108EDB2002D0AD0DFF8B9
S31508002D90681E0AA801F040FF0AA801F013FF0AA955
S31508002DA002F04EFCDFF83C150AA803F093F8C7E0DA
S31508002DB00422DFF8D81E36A808F0DDFA002833D139
S31508002DC0299A2899132008F053FB0600F6B2002E1C
S31508002DD016D1EDB2002D0AD0DFF8B41E0AA801F00C
S31508002DE01BFF0AA801F0EEFE0AA902F029FCDFF88B
S31508002DF0A41E0AA803F06EF8A2E000BF94B001086A
S31508002E00EDB2002D0AD0DFF8901E0AA801F004FFE3
S31508002E100AA801F0D7FE0AA902F012FCDFF8C414CA
S31508002E200AA803F057F88BE00422DFF8701E36A8CC
S31508002E3008F0A1FA002837D1299A2899142008F011
S31508002E4017FB0600F6B2002E1AD1EDB2002D0AD0F5
S31508002E50DFF8DC1E0AA801F0DFFE0AA801F0B2FEC0
S31508002E600AA902F0EDFBDFF8CC1E0AA803F032F837
S31508002E7066E000BF30890108B4840108648101084E
S31508002E80EDB2002D0AD0DFF8B01E0AA801F0C4FE84
S31508002E900AA801F097FE0AA902F0D2FBDFF844144B
S31508002EA00AA803F017F84BE00422DFF8901E36A8AC
S31508002EB008F061FA002830D1299A2899152008F0D7
S31508002EC0D7FA0600F6B2002E13D1EDB2002D0AD0BD
S31508002ED0DFF8FC1E0AA801F09FFE0AA801F072FEA0
S31508002EE00AA902F0ADFBDFF8EC1E0AA802F0F2FF11
S31508002EF026E0EDB2002D0AD0DFF8DC1E0AA801F0A4
S31508002F008BFE0AA801F05EFE0AA902F099FBDFF81B
S31508002F10D4130AA802F0DEFF12E0EDB2002D0AD0A3
S31508002F20DFF8B81E0AA801F077FE0AA801F04AFEE3
S31508002F300AA902F085FBDFF8A81E0AA802F0CAFF54
S31508002F400020060004E0DFF89C1E0AA801F064FED3
S31508002F5001F04DB8EDB2002D0DD008F0BBFA020015
S31508002F60DFF8841E0AA802F0B5FF0AA801F02AFEB7
S31508002F700AA902F065FB08F0ADFA0200DFF8141F93
S31508002F800AA802F0A7FF0AA9002001F01DFF060003
S31508002F90F6B2002E03D03000C0B201F010BDDFF843
S31508002FA0F81E0AA802F096FF0AA9002001F00CFFF5
S31508002FB00600F6B2002E09D03000C0B201F0FFBC00
S31508002FC0D47D0108909B0108588901080020070054
S31508002FD0162F80F26687002F36D0022F00F0DE808B
S31508002FE0C0F08880042F00F08181C0F02981062F67
S31508002FF000F02482C0F0CE81082F00F0C782C0F00E
S3150800300071820A2F00F06883C0F014830C2F00F039
S315080030100784C0F0B3830E2F00F0A684C0F0528454
S31508003020102F00F04585C0F0F184122F00F0E685D8
S31508003030C0F09285142F00F08386C0F03186152FD4
S3150800304000F0D48600F019BFEDB2002D24D0380068
S31508003050C0B208F02EFA83463800C0B208F02FFA3C
S3150800306081463800C0B208F030FA8246584608F061
S315080030705BF9CDE90201484608F056F9CDE90001A9
S315080030805246DFF8E41E0AA802F024FF0AA801F057
S3150800309099FD0AA902F0D4FA3800C0B208F009FA74
S315080030A083463800C0B208F00AFA81463800C0B232
S315080030B008F00BFA8246584608F036F9CDE90201BF
S315080030C0484608F031F9CDE900015246DFF8F41E0A
S315080030D00AA802F0FFFE00F0D0BE00BFA0B00108AB
S315080030E08089010820A40108A889010838A40108D4
S315080030F0E0840108EDB2002D24D03800C0B208F0F3
S31508003100D8F983463800C0B208F0D9F981463800A4
S31508003110C0B208F0DAF98246584608F005F9CDE952
S315080031200201484608F000F9CDE900015246DFF8E9
S31508003130FC1E0AA802F0CEFE0AA801F043FD0AA961
S3150800314002F07EFA3800C0B208F0B3F983463800B8
S31508003150C0B208F0B4F981463800C0B208F0B5F933
S315080031608246584608F0E0F8CDE90201484608F0DC
S31508003170DBF8CDE900015246DFF8E81E0AA802F09E
S31508003180A9FE00F07ABE00BFA48F0108D089010805
S31508003190C88F0108909C0108F8890108EDB2002D36
S315080031A024D03800C0B208F084F983463800C0B28B
S315080031B008F085F981463800C0B208F086F98246DB
S315080031C0584608F0B1F8CDE90201484608F0ACF8CF
S315080031D0CDE900015246DFF8C81E0AA802F07AFEB9
S315080031E00AA801F0EFFC0AA902F02AFA3800C0B2D0
S315080031F008F05FF983463800C0B208F060F98146E6
S315080032003800C0B208F061F98246584608F08CF8D2
S31508003210CDE90201484608F087F8CDE90001524693
S31508003220DFF8D81E0AA802F055FE00F026BE00BF39
S31508003230EC8F010810900108ACB0010850A40108F1
S31508003240EDB2002D24D03800C0B208F032F983461A
S315080032503800C0B208F033F981463800C0B208F029
S3150800326034F98246584608F05FF8CDE90201484627
S3150800327008F05AF8CDE900015246DFF8841E0AA87C
S3150800328002F028FE0AA801F09DFC0AA902F0D8F966
S315080032903800C0B208F00DF983463800C0B208F00D
S315080032A00EF981463800C0B208F00FF98246584632
S315080032B008F03AF8CDE90201484608F035F8CDE9B4
S315080032C000015246DFF83C1E0AA802F003FE00F091
S315080032D0D4BD00BF74B2010834900108B8A1010832
S315080032E0208A0108D4A101087CB20108EDB2002D9C
S315080032F024D03800C0B208F0DCF883463800C0B2E3
S3150800330008F0DDF881463800C0B208F0DEF88246DB
S31508003310584608F009F8CDE90201484608F004F8CD
S31508003320CDE900015246DFF88C1E0AA802F0D2FD4C
S315080033300AA801F047FC0AA902F082F93800C0B2CF
S3150800334008F0B7F883463800C0B208F0B8F88146E6
S315080033503800C0B208F0B9F88246584607F0E4FFCC
S31508003360CDE90201484607F0DFFFCDE900015246E4
S31508003370DFF8A01E0AA802F0ADFD00F07EBD00BF72
S31508003380B09C010868A401085890010884B2010895
S31508003390D09C0108EDB2002D24D03800C0B208F048
S315080033A088F883463800C0B208F089F881463800A4
S315080033B0C0B208F08AF88246584607F0B5FFCDE94C
S315080033C00201484607F0B0FFCDE900015246DFF892
S315080033D0481E0AA802F07EFD0AA801F0F3FB0AA916
S315080033E002F02EF93800C0B208F063F883463800B8
S315080033F0C0B208F064F881463800C0B208F065F833
S315080034008246584607F090FFCDE90201484607F084
S315080034108BFFCDE900015246DFF8001E0AA802F02C
S3150800342059FD00F02ABD00BFE0AD01087C900108F7
S315080034308CB20108F09C010880A40108EDB2002DA9
S3150800344024D03800C0B208F034F883463800C0B239
S3150800345008F035F881463800C0B208F036F88246DA
S31508003460584607F061FFCDE90201484607F05CFFC0
S31508003470CDE900015246DFF8B01E0AA802F02AFD7F
S315080034800AA801F09FFB0AA902F0DAF83800C0B2D0
S3150800349008F00FF883463800C0B208F010F88146E5
S315080034A03800C0B208F011F88246584607F03CFFCB
S315080034B0CDE90201484607F037FFCDE9000152463B
S315080034C0DFF8681E0AA802F005FD00F0D6BC00BFAA
S315080034D0A090010894B20108109D0108F4AD0108F6
S315080034E0C4900108EDB2002D24D03800C0B207F010
S315080034F0E0FF83463800C0B207F0E1FF8146380096
S31508003500C0B207F0E2FF8246584607F00DFFCDE944
S315080035100201484607F008FFCDE900015246DFF8E8
S31508003520701E0AA802F0D6FC0AA801F04BFB0AA9ED
S3150800353002F086F83800C0B207F0BBFF83463800B1
S31508003540C0B207F0BCFF81463800C0B207F0BDFF25
S315080035508246584607F0E8FECDE90201484607F0DC
S31508003560E3FECDE900015246DFF8741E0AA802F010
S31508003570B1FC00F082BC00BF9CB20108309D010876
S3150800358008AE0108E8900108A4B20108EDB2002DC2
S3150800359024D03800C0B207F08CFF83463800C0B28A
S315080035A007F08DFF81463800C0B207F08EFF8246CD
S315080035B0584607F0B9FECDE90201484607F0B4FEC1
S315080035C0CDE900015246DFF8781E0AA802F082FC0F
S315080035D00AA801F0F7FA0AA902F032F83800C0B2D0
S315080035E007F067FF83463800C0B207F068FF8146D8
S315080035F03800C0B207F069FF8246584607F094FEC5
S31508003600CDE90201484607F08FFECDE90001524692
S31508003610DFF8301E0AA802F05DFC00F02EBC00BFE1
S315080036200C91010898A40108488A0108ACB201085F
S3150800363030910108EDB2002D24D03800C0B207F051
S3150800364038FF83463800C0B207F039FF8146380094
S31508003650C0B207F03AFF8246584607F065FECDE944
S315080036600201484607F060FECDE900015246DFF840
S31508003670D81D0AA802F02EFC0AA801F0A3FA0AA986
S3150800368001F0DEFF3800C0B207F013FF83463800AA
S31508003690C0B207F014FF81463800C0B207F015FF24
S315080036A08246584607F040FECDE90201484607F033
S315080036B03BFECDE900015246DFF8741E0AA802F067
S315080036C009FCDAE3B0A40108708A0108B4B201085B
S315080036D054910108C8A40108EDB2002D24D0380081
S315080036E0C0B207F0E6FE83463800C0B207F0E7FE30
S315080036F081463800C0B207F0E8FE8246584607F011
S3150800370013FECDE90201484607F00EFECDE9000199
S315080037105246DFF8201E0AA802F0DCFB0AA801F0D0
S3150800372051FA0AA901F08CFF3800C0B207F0C1FEB1
S3150800373083463800C0B207F0C2FE81463800C0B2E0
S3150800374007F0C3FE8246584607F0EEFDCDE90201B2
S31508003750484607F0E9FDCDE900015246DFF8481E64
S315080037600AA802F0B7FB88E3988A0108BCB20108E8
S3150800377078910108E0A40108C08A0108EDB2002D7D
S3150800378024D03800C0B207F094FE83463800C0B291
S3150800379007F095FE81463800C0B207F096FE8246CD
S315080037A0584607F0C1FDCDE90201484607F0BCFDC1
S315080037B0CDE900015246DFF84C1E0AA802F08AFB42
S315080037C00AA801F0FFF90AA901F03AFF3800C0B2C9
S315080037D007F06FFE83463800C0B207F070FE8146D8
S315080037E03800C0B207F071FE8246584607F09CFDC5
S315080037F0CDE90201484607F097FDCDE9000152469A
S31508003800DFF8381E0AA802F065FB36E3C4B20108E1
S31508003810509D0108F8A401089C910108CCB2010842
S31508003820EDB2002D24D03800C0B207F042FE834620
S315080038303800C0B207F043FE81463800C0B207F030
S3150800384044FE8246584607F06FFDCDE90201484618
S3150800385007F06AFDCDE900015246DFF8401E0AA8C6
S3150800386002F038FB0AA801F0ADF90AA901F0E8FE52
S315080038703800C0B207F01DFE83463800C0B207F014
S315080038801EFE81463800C0B207F01FFE8246584623
S3150800389007F04AFDCDE90201484607F045FDCDE9A6
S315080038A000015246DFF8F81D0AA802F013FBE4E20D
S315080038B0C091010810A50108E88A0108D4B20108D8
S315080038C0E4910108EDB2002D24D03800C0B207F00B
S315080038D0F0FD83463800C0B207F0F1FD8146380096
S315080038E0C0B207F0F2FD8246584607F01DFDCDE945
S315080038F00201484607F018FDCDE900015246DFF8F7
S315080039003C1E0AA802F0E6FA0AA801F05BF90AA921
S3150800391001F096FE3800C0B207F0CBFD83463800AA
S31508003920C0B207F0CCFD81463800C0B207F0CDFD25
S315080039308246584607F0F8FCCDE90201484607F0EA
S31508003940F3FCCDE900015246DFF8241E0AA802F06E
S31508003950C1FA92E228A50108108B0108DCB2010819
S31508003960709D010840A50108EDB2002D24D038004D
S31508003970C0B207F09EFD83463800C0B207F09FFD2F
S3150800398081463800C0B207F0A0FD8246584607F0C7
S31508003990CBFCCDE90201484607F0C6FCCDE900019B
S315080039A05246DFF8341E0AA802F094FA0AA801F073
S315080039B009F90AA901F044FE3800C0B207F079FDFA
S315080039C083463800C0B207F07AFD81463800C0B297
S315080039D007F07BFD8246584607F0A6FCCDE90201B2
S315080039E0484607F0A1FCCDE900015246DFF82C1E37
S315080039F00AA802F06FFA40E208920108E4B2010848
S31508003A002C92010858A50108388B0108EDB2002D43
S31508003A1024D03800C0B207F04CFD83463800C0B247
S31508003A2007F04DFD81463800C0B207F04EFD8246CC
S31508003A30584607F079FCCDE90201484607F074FCC0
S31508003A40CDE900015246DFF8341E0AA802F042FA10
S31508003A500AA801F0B7F80AA901F0F2FD3800C0B2C9
S31508003A6007F027FD83463800C0B207F028FD8146D7
S31508003A703800C0B207F029FD8246584607F054FCC4
S31508003A80CDE90201484607F04FFCCDE90001524650
S31508003A90DFF8EC1D0AA802F01DFAEEE1ECB2010807
S31508003AA05092010870A50108608B0108F4B201085C
S31508003AB0EDB2002D24D03800C0B207F0FAFC8346D8
S31508003AC03800C0B207F0FBFC81463800C0B207F0E8
S31508003AD0FCFC8246584607F027FCCDE90201484619
S31508003AE007F022FCCDE900015246DFF8F41D0AA8CA
S31508003AF002F0F0F90AA801F065F80AA901F0A0FD9C
S31508003B003800C0B207F0D5FC83463800C0B207F0CB
S31508003B10D6FC81463800C0B207F0D7FC8246584624
S31508003B2007F002FCCDE90201484607F0FDFBCDE9A6
S31508003B3000015246DFF8F81D0AA802F0CBF99CE10D
S31508003B407492010888A50108888B0108FCB201084F
S31508003B5098920108A0A50108EDB2002D24D03800DE
S31508003B60C0B207F0A6FC83463800C0B207F0A7FC2F
S31508003B7081463800C0B207F0A8FC8246584607F0CE
S31508003B80D3FBCDE90201484607F0CEFBCDE900019B
S31508003B905246DFF8D01D0AA802F09CF90AA801F0DF
S31508003BA011F80AA901F04CFD3800C0B207F081FCF3
S31508003BB083463800C0B207F082FC81463800C0B29E
S31508003BC007F083FC8246584607F0AEFBCDE90201B2
S31508003BD0484607F0A9FBCDE900015246DFF8B81DB3
S31508003BE00AA802F077F948E1B08B010804B3010886
S31508003BF0BC920108B8A50108D88B0108EDB2002DC2
S31508003C0024D03800C0B207F054FC83463800C0B24E
S31508003C1007F055FC81463800C0B207F056FC8246CC
S31508003C20584607F081FBCDE90201484607F07CFBC0
S31508003C30CDE900015246DFF8901D0AA802F04AF9BC
S31508003C400AA800F0BFFF0AA901F0FAFC3800C0B2C2
S31508003C5007F02FFC83463800C0B207F030FC8146D7
S31508003C603800C0B207F031FC8246584607F05CFBC4
S31508003C70CDE90201484607F057FBCDE90001524657
S31508003C80DFF8481D0AA802F025F9F6E00CB301088A
S31508003C90E0920108D0A50108008C010814B30108B8
S31508003CA0EDB2002D24D03800C0B207F002FC8346DE
S31508003CB03800C0B207F003FC81463800C0B207F0EE
S31508003CC004FC8246584607F02FFBCDE90201484618
S31508003CD007F02AFBCDE900015246DFF8F41C0AA8D2
S31508003CE002F0F8F80AA800F06DFF0AA901F0A8FC8E
S31508003CF03800C0B207F0DDFB83463800C0B207F0D3
S31508003D00DEFB81463800C0B207F0DFFB8246584624
S31508003D1007F00AFBCDE90201484607F005FBCDE9A5
S31508003D2000015246DFF8AC1C0AA802F0D3F8A4E05A
S31508003D3004930108E8A50108288C01081CB30108AA
S31508003D40EDB2002D24D03800C0B207F0B2FB83468E
S31508003D503800C0B207F0B3FB81463800C0B207F09E
S31508003D60B4FB8246584607F0DFFACDE90201484619
S31508003D7007F0DAFACDE900015246DFF85C1C0AA81A
S31508003D8002F0A8F80AA800F01DFF0AA901F058FCDD
S31508003D903800C0B207F08DFB83463800C0B207F082
S31508003DA08EFB81463800C0B207F08FFB8246584624
S31508003DB007F0BAFACDE90201484607F0B5FACDE9A7
S31508003DC000015246DFF8141C0AA802F083F854E0F2
S31508003DD02893010800A60108508C01084C93010895
S31508003DE0909D0108BC820108F0AE0108EDB2002DD5
S31508003DF024D03800C0B207F05CFB83463800C0B256
S31508003E0007F05DFB81463800C0B207F05EFB8246CC
S31508003E10584607F089FACDE90201484607F084FAC0
S31508003E20CDE900015246DFF8B81B0AA802F052F89D
S31508003E300AA800F0C7FE0AA901F002FC3800C0B2C1
S31508003E4007F037FB83463800C0B207F038FB8146D7
S31508003E503800C0B207F039FB8246584607F064FAC4
S31508003E60CDE90201484607F05FFACDE9000152465E
S31508003E70DFF8701B0AA802F02DF80AA9002000F046
S31508003E80A3FF0600F6B2002E08D03000C0B200F03C
S31508003E9096BD00BFB09D0108709301087F1CFFF70F
S31508003EA097B8EDB2002D0AD0DFF83C1B0AA800F03F
S31508003EB0B3FE0AA800F086FE0AA901F0C1FBDFF8E6
S31508003EC0D41B0AA802F006F891E0E0783A2813D045
S31508003ED0EDB2002D0AD0DFF8C01B0AA800F09CFE40
S31508003EE00AA800F06FFE0AA901F0AAFBDFF8AC1BCE
S31508003EF00AA800F091FE4CE05FFA88F8B8F1050FC1
S31508003F0013DAEDB2002D0AD0DFF8941B0AA800F0E8
S31508003F1083FE0AA800F056FE0AA901F091FBDFF815
S31508003F20841B0AA800F078FE33E0201D30903099F3
S31508003F3048A800F071FE309807F0B3FA0600F6B20A
S31508003F40002E13D0EDB2002D0AD0DFF85C1B0AA8AC
S31508003F5000F062FE0AA800F035FE0AA901F070FB1F
S31508003F603000C0B200F02BBD18A60108EDB2002D36
S31508003F700AD0DFF8381B0AA800F04EFE0AA800F09F
S31508003F8021FE0AA901F05CFBDFF8081B0AA801F06C
S31508003F90A1FF2CE007F021FA0600F6B2002E13D096
S31508003FA0EDB2002D0AD0DFF8081B0AA800F034FE8F
S31508003FB00AA800F007FE0AA901F042FB3000C0B2C9
S31508003FC000F0FDBC30A60108EDB2002D0AD0DFF8DE
S31508003FD0E41A0AA800F020FE0AA800F0F3FD0AA9D0
S31508003FE001F02EFBDFF8AC1A0AA801F073FF00F007
S31508003FF05BBC03F05DFAADF8CE00EDB2002D0CD037
S31508004000BDF8CE20DFF8B01A0AA801F063FF0AA8A7
S3150800401000F0D8FD0AA901F013FBBDF8CE20DFF8A1
S315080040209C1A0AA801F056FF00F03EBC48A60108F3
S31508004030EDB2002D0DD0DFF8881A0AA800F0ECFDC5
S315080040400AA800F0BFFD0AA901F0FAFA642007F0F1
S3150800405061FA07F016FBDFF86C1A0AA801F03AFFB6
S3150800406000F022BCD09D0108002006005FFA88F8FF
S31508004070B8F1040F16DAEDB2002D0AD0DFF8481AA7
S315080040800AA800F0C9FD0AA800F09CFD0AA901F0DB
S31508004090D7FADFF8381A0AA800F0BEFD15E300BF04
S315080040A060A60108A078522800F04682532840F0FE
S315080040B0F982E078422800F0AC81522806D05328CD
S315080040C000F09180542800F017812AE220793A28D6
S315080040D01AD0EDB2002D0AD0DFF8F4190AA800F0BC
S315080040E09BFD0AA800F06EFD0AA901F0A9FADFF8FF
S315080040F0E4190AA800F090FD74E000BF78A601084C
S3150800410090A60108F09D01085FFA88F8B8F1060F35
S3150800411010DB01202E90052007005FFA88F8474536
S315080041200ADAE05D07F0DEFA002801D100202E90B9
S315080041307F1CF2E700202E902E98002813D1EDB2AE
S31508004140002D0AD0DFF890190AA800F065FD0AA824
S3150800415000F038FD0AA901F073FADFF880190AA8F9
S3150800416000F05AFD3EE0601D3090309948A800F0F6
S3150800417053FD48A807F0BBFA2F902F9842F210710A
S31508004180884202DA2F98002816D5EDB2002D0AD0FB
S31508004190DFF844190AA800F03FFD0AA800F012FD4E
S315080041A00AA901F04DFADFF834190AA800F034FD1F
S315080041B018E000BFA8A601082F9807F052FBEDB239
S315080041C0002D0AD0DFF818190AA800F025FD0AA85C
S315080041D000F0F8FC0AA901F033FADFF808190AA872
S315080041E001F078FEA2E120793A2819D0EDB2002D27
S315080041F00AD0DFF8F4180AA800F00EFD0AA800F0A5
S31508004200E1FC0AA901F01CFADFF8E0180AA800F098
S3150800421003FD70E0C0A60108D8A60108F0A60108AB
S315080042205FFA88F8B8F1060F10DB01202E900520FA
S3150800423007005FFA88F847450ADAE05D07F052FAA0
S31508004240002801D100202E907F1CF2E700202E9036
S315080042502E98002813D1EDB2002D0AD0DFF8901859
S315080042600AA800F0D9FC0AA800F0ACFC0AA901F0DB
S31508004270E7F9DFF880180AA800F0CEFC3BE0601DDD
S315080042803090309948A800F0C7FC48A807F02FFAE4
S315080042902F902F9842F21071884202DA2F98002840
S315080042A013D5EDB2002D0AD0DFF844180AA800F09D
S315080042B0B3FC0AA800F086FC0AA901F0C1F9DFF8E8
S315080042C034180AA800F0A8FC15E02F9807F0E7FABA
S315080042D0EDB2002D0AD0DFF820180AA800F09CFCE1
S315080042E00AA800F06FFC0AA901F0AAF9DFF8F4178A
S315080042F00AA801F0EFFD19E120793A2818D0EDB2A5
S31508004300002D0AD0DFF8F4170AA800F085FC0AA8E1
S3150800431000F058FC0AA901F093F9DFF8E4170AA897
S3150800432000F07AFC74E000BF08A7010820A701087E
S315080043305FFA88F8B8F1060F10DB01202E900520E9
S3150800434007005FFA88F847450ADAE05D07F0CAF918
S31508004350002801D100202E907F1CF2E700202E9025
S315080043602E98002816D1EDB2002D0AD0DFF8941742
S315080043700AA800F051FC0AA800F024FC0AA901F0DA
S315080043805FF9DFF884170AA800F046FC40E000BF92
S3150800439038A70108601D3090309948A800F03CFC09
S315080043A048A807F0A4F92F902F9842F21071884276
S315080043B002DA2F98002815D5EDB2002D0AD0DFF8BD
S315080043C044170AA800F028FC0AA800F0FBFB0AA973
S315080043D001F036F9DFF81C170AA800F01DFC17E0F3
S315080043E050A701082F9807F081FAEDB2002D0AD0E0
S315080043F0DFF818170AA800F00FFC0AA800F0E2FB7D
S315080044000AA901F01DF9DFF8DC160AA801F062FD19
S315080044108CE020793A2819D0EDB2002D0AD0DFF8C1
S31508004420F0160AA800F0F8FB0AA800F0CBFB0AA9C8
S3150800443001F006F9DFF8DC160AA800F0EDFB6FE0DC
S3150800444068A7010880A7010898A701085FFA88F8F5
S31508004450B8F1060F10DB01202E90052007005FFA41
S3150800446088F847450ADAE05D07F03CF9002801D1EB
S3150800447000202E907F1CF2E700202E902E98002810
S3150800448013D1EDB2002D0AD0DFF88C160AA800F079
S31508004490C3FB0AA800F096FB0AA901F0D1F8DFF8D9
S315080044A07C160AA800F0B8FB3AE0601D30903099F7
S315080044B048A800F0B1FB48A807F019F92F902F98E3
S315080044C0B0F57A7F02DA2F98002813D5EDB2002DC1
S315080044D00AD0DFF844160AA800F09EFB0AA800F0E6
S315080044E071FB0AA901F0ACF8DFF830160AA800F04B
S315080044F093FB15E02F9807F00BFAEDB2002D0AD0C2
S31508004500DFF81C160AA800F087FB0AA800F05AFB79
S315080045100AA901F095F8DFF8CC150AA801F0DAFC2B
S3150800452004E0DFF800160AA800F076FBCDE000BF2D
S31508004530B0A70108C8A70108E078422800F08080E3
S31508004540522804D0532831D054285DD092E0EDB2D9
S31508004550002D16D007F0EEF907F01AFADFF8C8159D
S3150800456007F026FA06F0E0FE02000B00DFF8BC159D
S315080045700AA801F0AFFC0AA800F024FB0AA901F07A
S315080045805FF807F0D7F907F003FADFF89C1507F08C
S315080045900FFA06F0C9FE02000B00DFF894150AA808
S315080045A001F098FC79E000BF109E0108EDB2002DDD
S315080045B016D007F0C2F907F0EBF9DFF86C1507F02B
S315080045C0F7F906F0B1FE02000B00DFF868150AA835
S315080045D001F080FC0AA800F0F5FA0AA901F030F803
S315080045E007F0ABF907F0D4F9DFF83C1507F0E0F966
S315080045F006F09AFE02000B00DFF83C150AA801F047
S3150800460069FC4AE0E0A70108EDB2002D0DD007F0DD
S315080046109AF90200DFF824150AA801F05BFC0AA83B
S3150800462000F0D0FA0AA901F00BF807F08CF902009D
S31508004630DFF80C150AA801F04DFC2EE0F8A70108D2
S31508004640EDB2002D0DD007F081F90200DFF8F41461
S315080046500AA801F03FFC0AA800F0B4FA0AA900F07B
S31508004660EFFF07F073F90200DFF8DC140AA801F07F
S3150800467031FC12E0EDB2002D0AD0DFF8D0140AA8FA
S3150800468000F0CAFA0AA800F09DFA0AA900F0D8FFB5
S31508004690DFF8BC140AA800F0BFFA16E010A8010853
S315080046A028A80108EDB2002D0AD0DFF81C140AA8C4
S315080046B000F0B2FA0AA800F085FA0AA900F0C0FFCD
S315080046C0DFF890140AA800F0A7FAEDE0002006002B
S315080046D05FFA88F8B8F1030F13DAEDB2002D0AD0A5
S315080046E0DFF874140AA800F097FA0AA800F06AFA24
S315080046F00AA900F0A5FFDFF864140AA800F08CFAEE
S315080047004BE0A07844281BD0452833D1EDB2002DC4
S315080047100AD0DFF84C140AA800F07EFA0AA800F0BE
S3150800472051FA0AA900F08CFFDFF838140AA801F03C
S31508004730D1FB012007F0C8F806002EE040A80108C2
S31508004740EDB2002D0AD0DFF820140AA800F064FAAA
S315080047500AA800F037FA0AA900F072FFDFF80C146D
S315080047600AA801F0B7FB002007F0AEF8060014E02F
S31508004770309E0108EDB2002D0AD0DFF8DC130AA836
S3150800478000F04AFA0AA800F01DFA0AA900F058FF34
S31508004790DFF8DC130AA800F03FFA85E0EDB2002D39
S315080047A00AD0DFF8D0130AA800F036FA0AA800F0F3
S315080047B009FA0AA900F044FFDFF8BC130AA800F0BA
S315080047C02BFA0AA9002000F0FFFA0600F6B2002E1E
S315080047D004D03000C0B2F2E058A80108DFF89C13F4
S315080047E00AA800F019FA0120DFF8941308705BE0B4
S315080047F007F00EF8EDB2002D0AD0DFF888130AA8E4
S3150800480001F068FB0AA800F0DDF90AA900F018FF14
S31508004810DFF874130AA801F05DFB45E070A80108EB
S31508004820EDB2002D0BD0DFF864130AA801F052FB95
S315080048300AA800F0C7F90AA900F002FF34E0DFF879
S3150800484050130AA801F046FB0AA9002000F0BCFA9A
S315080048500600F6B2002E02D03000C0B2AFE0CD4955
S315080048600AA801F037FB0AA9002000F0ADFA0600F5
S31508004870F6B2002E06D03000C0B2A0E088A8010823
S31508004880A0A80108FEE7EDB2002D09D0B9490AA88B
S3150800489000F0C2F90AA800F095F90AA900F0D0FEBE
S315080048A0AC490AA800F0B8F910E0EDB2002D09D01D
S315080048B0B0490AA800F0B0F90AA800F083F90AA9D5
S315080048C000F0BEFEA3490AA800F0A6F9F6B2002E2B
S315080048D008D0022E3FD006D3032E45D04BE000BFAA
S315080048E0B8A801084DE006F01BFC3C903C9801284E
S315080048F00AD002280DD0042810D0082813D0102872
S3150800490018D020281BD01FE0A3490AA800F084F974
S315080049101EE0A2490AA800F07FF919E0A0490AA8F2
S3150800492000F07AF914E09F490AA800F075F90FE03B
S31508004930D0A801089C490AA800F06EF908E09B492E
S315080049400AA800F069F903E099490AA800F064F991
S3150800495006F0C1FA15E097490AA800F05DF906F0D5
S31508004960BAFA0EE0E8A8010893490AA800F054F933
S3150800497006F0B1FA05E091490AA800F04DF906F0EB
S31508004980AAFA0AA9002000F01FFA0600F6B2002EBD
S3150800499004D03000C0B212E000A9010888490AA86C
S315080049A000F03AF90AA9002000F00EFA0600F6B25D
S315080049B0002E02D03000C0B201E03000C0B20DF5C2
S315080049C0806D17B0BDE8F08F18A9010830A9010855
S315080049D048A9010860A9010878A9010890A9010851
S315080049E0A8A90108C0A9010858B00108F8B504002B
S315080049F0200000F0E7F80500002007000020060068
S31508004A00AE4216DAA05D3A2802DAA05D302805DA49
S31508004A10A05D472805DAA05D412802DB00200700D3
S31508004A2001E001200700012F01D1002002E0761CD9
S31508004A30E6E70120F2BD2DE9F041040000275FF00A
S31508004A400008200000F0BEF8050000200600AE426F
S31508004A501ADAA05D3A2806DAA05D302803DBA05DE5
S31508004A60303807000CE0A05D472806DAA05D41282B
S31508004A7003DBA05D3738070002E05FF0FF3004E093
S31508004A8017EB0818761CE2E74046BDE8F0813C487B
S31508004A90007870471CAE0108509E0108788C010802
S31508004AA094930108B8930108709E0108F0A10108C3
S31508004AB0909E01080CA20108B09E0108D8A9010819
S31508004AC0D09E0108DC930108F09E0108A08C01081D
S31508004AD0009401080C8501082494010848940108EB
S31508004AE0109F0108A0B001086C94010838850108D8
S31508004AF090940108B4940108309F0108D8940108DD
S31508004B0064850108FC94010820950108509F010856
S31508004B104495010890850108689501088C95010857
S31508004B20709F0108B095010800002041909F010878
S31508004B30C88C0108B09F0108BC85010828A2010895
S31508004B40F0A9010844A20108D09F0108F09F0108B6
S31508004B50D4950108D09B010810A00108F08C010823
S31508004B6060A20108188D01087CA20108408D010881
S31508004B70688D0108909B010898A20108B4A2010853
S31508004B800067002008AA010898810108D0A2010838
S31508004B90F89501081C960108908D0108EC82010819
S31508004BA01C8301084C830108B88D01087C83010821
S31508004BB0E08D0108088E0108308E0108588E01081C
S31508004BC024B3010800F10103810704D010F8011B82
S31508004BD089B18107FAD10268B2F10131914311F026
S31508004BE0803F04BF50F8042FF6E710F8011B11B1F7
S31508004BF010F8011BFBE7C01A704703681AB95A1E5A
S31508004C00026008467047197800290FBF4FF0FF3039
S31508004C10591C0160187870475FEA000C830706D0B4
S31508004C2011F8013B00F8013BB3B18307F8D10A68D4
S31508004C30B2F1013323EA020313F0803F02BF40F8C2
S31508004C40042B51F8042FF3E711F8013B00F8013B58
S31508004C5013B111F8013BF9E76046704780B5DFF8F4
S31508004C608004DFF8801408604FF49640DFF8741467
S31508004C7048600020DFF86C1488600020DFF86414B0
S31508004C80C8600020DFF85C1408610C20DFF85414B3
S31508004C9048610020DFF84C1488610020DFF84414CE
S31508004CA0C861DFF8400406F001FF002801D007F0CC
S31508004CB0FDFE01BD80B5DFF83004DFF8301408606A
S31508004CC05FF4E130DFF8241448600020DFF81C1494
S31508004CD088600020DFF81414C8600020DFF80C1480
S31508004CE008610C20DFF8041448614FF44070DFF8BF
S31508004CF0FC1388610020DFF8F413C861DFF8EC03C1
S31508004D0006F0D4FE002801D007F0D0FE01BD10B58C
S31508004D1086B004002068DFF8C81388421ED1DFF881
S31508004D20D003006850F40030DFF8C4130860DFF8D9
S31508004D30C003006810F40030009000980C20019021
S31508004D40022002900120039003200490072005907A
S31508004D5001A9DFF8A00307F0C1FE33E02068DFF8F9
S31508004D60881388422ED1DFF88803006850F4802023
S31508004D70DFF87C130860DFF87803006810F48020F9
S31508004D80009000984FF440600190022002900120A4
S31508004D900390032004900720059001A9DFF8580323
S31508004DA007F09CFE4FF4C0400190022002900020BC
S31508004DB00390032004900720059001A9DFF8380323
S31508004DC007F08CFE06B010BDF8B504000D002800EB
S31508004DD0FFF7F8FE0700BFB2792F01DB01203AE0A2
S31508004DE0E4B2002C19D1DFF814030078002801D0AA
S31508004DF0022030E04FF400433A0092B22900DFF86F
S31508004E00E40206F08CFE0600F6B2002E02D0300050
S31508004E10C0B220E03000C0B21DE0E4B2012C19D1C6
S31508004E20DFF8DC020078002801D0022013E04FF4F6
S31508004E3000433A0092B22900DFF8B00206F06FFE8E
S31508004E400600F6B2002E02D03000C0B203E03000F1
S31508004E50C0B200E00120F2BDF8B504000D0028003C
S31508004E60FFF7B0FE0700BFB2792F01DB012036E05D
S31508004E70E4B2002C17D1DFF884020078002801D0AC
S31508004E8002202CE03A0092B22900DFF8580206F018
S31508004E90C4FE0600F6B2002E02D03000C0B21EE0F4
S31508004EA03000C0B21BE0E4B2012C17D1DFF8500283
S31508004EB00078002801D0022011E03A0092B22900B9
S31508004EC0DFF8280206F0A9FE0600F6B2002E02D088
S31508004ED03000C0B203E03000C0B200E00120F2BDED
S31508004EE0DFF8200270470120DFF81C1208707047AF
S31508004EF0854800787047F8B504000D001600B6B26C
S31508004F00792E01DB012032E0E4B2002C15D17B4872
S31508004F100078002801D0022029E0320092B2290048
S31508004F20704806F0B2FE0700FFB2002F02D0380024
S31508004F30C0B21CE03800C0B219E0E4B2012C15D1A9
S31508004F406F480078002801D0022010E0320092B2A3
S31508004F502900664806F099FE0700FFB2002F02D026
S31508004F603800C0B203E03800C0B200E00120F2BD4C
S31508004F7010B504002000C0B200F006F8012801D0E0
S31508004F80002000E0012010BD0100C9B2002903D1AC
S31508004F90544890F8390007E0C9B2012903D15348AB
S31508004FA090F8390000E00420704701684C4A9142A5
S31508004FB003D10121514A117006E001684A4A91421B
S31508004FC002D101214E4A11707047C0B2002803D1A0
S31508004FD000214A4A117005E0C0B2012802D1002119
S31508004FE0474A1170704770B5040020683C498842EA
S31508004FF003D10120414908704CE020683A498842AB
S3150800500048D1FFF775FF002824D0032040490860DF
S31508005010FFF766FF3F4908603E4800684078401C35
S315080050200600002005003A48006885420BDA394830
S315080050300068007800F0B7FB36480068401C354920
S3150800504008606D1CEFE732480660314800682F4952
S3150800505008601CE0FFF744FF2E49086000200500A1
S315080050602B48006885420BDA2A480068007800F069
S315080050709AFB28480068401C264908606D1CEFE723
S315080050800320234908602248006820490860012057
S315080050901B49087070BD704714480068C06850F016
S315080050A0800012490968C860704710480068C068DF
S315080050B050F480700D490968C8600C48006840695A
S315080050C050F0010009490968486108480068C06845
S315080050D050F0200005490968C860704700000000C4
S315080050E0004400409463002000480040D463002038
S315080050F024380240000002400004024003670020F2
S3150800510004670020986500200567002048000020F5
S31508005110EC660020E866002038B504000D00DFF8CC
S31508005120680600680471DFF8600600684571DFF8F4
S315080051305C06DFF8541609680860DFF84C06006854
S31508005140011DDFF844060068006807F032FFDFF843
S31508005150680A0068001D32BD0020DFF8601AA1F851
S3150800516020030020DFF8581A81F896010020DFF89E
S31508005170501A81F897010020DFF8441A81F898013F
S315080051800020DFF83C1A81F899010020DFF8301A70
S3150800519081F89A010020DFF8281AA1F89C0101205D
S315080051A0DFF81C1A81F89E017047401CC0B2C82857
S315080051B000DB0020C0B2704738B504000D00002C93
S315080051C027D0DFF8FC0990F89301DFF8F41991F875
S315080051D0921188421BD00020DFF8E41981F8950166
S315080051E0DFF8DC09DFF8D81991F89311084490F82C
S315080051F0CA0028706D1CDFF8C80990F89301FFF7FC
S31508005200D4FFDFF8BC1981F89301641ED7E7FFF7CE
S315080052104CFF002032BDDFF8A80990F895017047C9
S3150800522080B5FFF799FF062005F0E0FD0FF2114063
S31508005230DFF890190860DFF89009DFF89019086020
S31508005240DFF88C09DFF88C190860062005F0C0FD28
S3150800525001BD70B586B00025DFF86409D0F8A00155
S31508005260002805D107F093FEDFF85419C1F8A0010C
S31508005270DFF84C09D0F8A001002800F0EF80DFF82D
S315080052804009D0F8A0010068DFF84C190840DFF89B
S315080052902C19DFF82829B2F8202341F82200DFF874
S315080052A01C09B0F82003C0B2FFF77FFFDFF80C191E
S315080052B0A1F82003DFF80809D0F8A0010068DFF894
S315080052C01819084004002000DFF8101988422AD06F
S315080052D0DFF80C19884258D0DFF80819884200F020
S315080052E08280DFF80419884229D0DFF8001988423D
S315080052F079D0DFF8FC18884257D0DFF8F8188842CA
S3150800530000F09280DFF8F01888425AD0DFF8EC18DF
S31508005310884262D0DFF8E818884264D0DFF8E418DB
S3150800532088425AD08BE0DFF8E0180020FFF74CFDE2
S31508005330012005000120DFF8881881F89601002071
S31508005340DFF87C1881F8970102210220FFF7E4FEB6
S3150800535006003088002817D1EDB2002D0FD1DFF8EE
S31508005360AC180020FFF730FD02210D2007F060FE83
S3150800537002F0E1F80D2007F0ABFE06F082F90020F6
S31508005380DFF83C18C1F8A00168E0DFF884180020AF
S31508005390FFF71AFD0120DFF8281881F89701002089
S315080053A0DFF81C18C1F8A00158E0A3A10020FFF7F8
S315080053B00BFD02F0CDF80020DFF80418C1F8A001B3
S315080053C04CE09EA10020FFF7FFFC02F0C1F8002088
S315080053D0DFF8EC17C1F8A00140E00020DFF8E0177D
S315080053E0C1F8A0013AE0DFF82C180020FFF7ECFC22
S315080053F0DFF8CC07D0F8A001807A00280ED0DFF8B5
S31508005400C007D0F8A00110F10B02DFF80C186846A7
S3150800541000F060FD69460020FFF7D6FC0020DFF8A3
S31508005420A017C1F8A00119E0DFF8F0170020FFF770
S31508005430CBFC0020DFF88817C1F8A0010EE0220097
S31508005440DFF8DC17684600F045FD69460020FFF7DF
S31508005450BBFC0020DFF86817C1F8A00106B070BDD4
S31508005460DFF85C0790F896017047DFF8540790F864
S3150800547097017047DFF8480790F898017047DFF8FA
S31508005480400790F899017047DFF8341781F89801BA
S315080054907047DFF82C1781F89901704710B58AB064
S315080054A00024DFF81C0790F89A01032848D1DFF892
S315080054B0100790F89E01012802D10120040041E05E
S315080054C000F0E2FE002838D000F0D9FEDFF8F0063A
S315080054D0B0F89C01401CDFF8E816A1F89C0106F01C
S315080054E032FA0300DFF8D806B0F89C21DFF8341743
