S02E0000526F616420426F61726420526576204D2E3520424153454C494E4520446563203920323031362E737265637A
S315080000005041002059D8010819DD01080FFB0008E6
S3150800001023FB00081DDD010837FB0008000000006F
S31508000020000000000000000000000000AF9001087A
S3150800003021DD0108000000005D900108F19101082A
S31508000040A5CC000825DD010829DD01082DDD0108FC
S3150800005031DD010835DD010839DD01083DDD01081E
S3150800006041DD010845DD010849DD0108F99101086E
S315080000704DDD010851DD010855DD010859DD01088E
S315080000805DDD010861DD010865DD010869DD01083E
S31508000090039201086DDD010871DD010875DD0108AF
S315080000A079DD01087DDD010881DD010885DD0108AE
S315080000B03F920108499201080D9201082B92010806
S315080000C03592010889DD01088DDD010891DD0108F9
S315080000D095DD010899DD01082192010817920108AA
S315080000E09DDD0108A1DD0108A5DD0108A9DD0108DE
S315080000F0ADDD010800000000B1DD0108B5DD01082D
S31508000100B9DD0108BDDD0108C1DD0108C5DD01084D
S31508000110C9DD0108CDDD0108D1DD010800000000B8
S31508000120D5DD010801204E4981F8500001204D49CE
S3150800013081F850000020704738B50400494890F807
S315080001405000022801D102201FE0464890F85000CE
S31508000150002801D1012018E0200004F0A3FF502850
S3150800016001D3012011E000200500502D04DA0020FB
S315080001703C4948556D1CF8E721003A4804F0BCFF95
S315080001800220384981F85000002032BD38B50400F5
S31508000190334890F85000022801D102201FE0304869
S315080001A090F85000002801D1012018E0200004F042
S315080001B079FF502801D3012011E000200500502DB9
S315080001C004DA0020264948556D1CF8E72100244822
S315080001D004F092FF0220224981F85000002032BD27
S315080001E010B594B01F4890F85000022819D11D4A3E
S315080001F01D49684604F0A2FF6946002005F06EF81E
S315080002000400E4B2002C02D02000C0B225E0154854
S3150800021004F048FF134905F01FFD0120114981F834
S3150800022050000F4890F85000022815D106F0C1FB7F
S31508000230002805D001210A4806F03AF8040004E02F
S315080002400121074800F012F804000120044981F84A
S3150800025050002000C0B200E0002014B010BD00001D
S3150800026094630020E8630020B8D701082DE9F04F11
S31508000270ADF5A06D8DB004000D00200004F012FF4E
S315080002808DF8280000200600DFF8F40D0078002815
S315080002901ED020781B2815D10020DFF8E41D087031
S315080002A0DFF8E01D0BA804F027FF0BA9002005F0D6
S315080002B015F80600F6B2002E04F0D1853000C0B25B
S315080002C004F0CFBD2100012005F0C6FC04F0C7BD2F
S315080002D0207830282FD0312848D0322879D03328B2
S315080002E000F0AA80342800F0DA80352800F00A8168
S315080002F0362800F07D81412800F09381422800F0DD
S31508000300EE82432800F0B485442800F0B5874528D6
S3150800031001F03081462801F04281472801F05A81D0
S31508000320482801F0D781502801F0B684542801F0F6
S31508000330E18404F001BD06F0FEFB0600F6B2002ECD
S3150800034012D1EDB2002D0AD0DFF81C1E0BA804F05E
S31508000350D3FE0BA804F0A6FE0BA905F07DFCDFF87A
S315080003600C1E0BA804F0C8FE04F0F7BC91A806F012
S3150800037034FC0600DFF8FC1D0BA804F0BDFE0BA933
S31508000380002004F0ABFF0600F6B2002E03D03000C2
S31508000390C0B204F066BDEDB2002D0BD091AADFF80D
S315080003A0D81D0BA804F0CAFE0BA804F07BFE0BA907
S315080003B005F052FCDFF8C41D0BA804F0BFFE91A996
S315080003C00BA806F09BFCDAA10BA806F097FC04F034
S315080003D0C4BC91A806F01DFC0600DFF8A41D0BA8F6
S315080003E004F08AFE0BA9002004F078FF0600F6B296
S315080003F0002E03D03000C0B204F033BDEDB2002D9C
S315080004000BD091AADFF8201E0BA804F097FE0BA8C4
S3150800041004F048FE0BA905F01FFCDFF8101E0BA818
S3150800042004F08CFE91A90BA806F068FCC0A10BA8E5
S3150800043006F064FC04F091BC91A806F008FC0600DE
S31508000440DFF8EC1D0BA804F057FE0BA9002004F0FA
S3150800045045FF0600F6B2002E03D03000C0B204F005
S3150800046000BDEDB2002D0BD091AADFF8F41D0BA844
S3150800047004F064FE0BA804F015FE0BA905F0ECFBCE
S31508000480DFF8E01D0BA804F059FE91A90BA806F0A9
S3150800049035FCA7A10BA806F031FC04F05EBC91A8B8
S315080004A006F0F3FB0600DFF8C01D0BA804F024FED7
S315080004B00BA9002004F012FF0600F6B2002E03D0A6
S315080004C03000C0B204F0CDBCEDB2002D0BD091AA1D
S315080004D0DFF8981D0BA804F031FE0BA804F0E2FD26
S315080004E00BA905F0B9FBDFF8881D0BA804F026FE5A
S315080004F091A90BA806F002FC8DA10BA806F0FEFB3D
S3150800050004F02BBC06F0E4FA4890DFF8681D0BA847
S3150800051004F0F2FD91A806F060FB06000BA9002086
S3150800052004F0DCFE0600F6B2002E03D03000C0B29E
S3150800053004F097BCEDB2002D0AD0DFF8181E0BA800
S3150800054004F0DAFD0BA804F0ADFD0BA905F084FB59
S3150800055000208046D9A10BA804F0F0FD0020070072
S31508000560802F30DA4898C257DFF8EC1D2BA804F024
S31508000570E5FD2BA90BA806F0C1FB18F10108B8F197
S31508000580100F1EDB6AA10BA806F0B8FB00208046F8
S315080005900BA9002004F0A2FE0600F6B2002E03D036
S315080005A03000C0B204F05DBCEDB2002D05D00BA83A
S315080005B004F078FD0BA905F04FFBC0A10BA804F0C9
S315080005C0BDFD7F1CCCE7EDB2002D0AD0DFF8D01DAB
S315080005D00BA804F091FD0BA804F064FD0BA905F027
S315080005E03BFBDFF8C01D0BA804F0A8FD04F0B5BB63
S315080005F00020060006F067FBEDB2002D0AD0DFF8F2
S31508000600201E0BA804F078FD0BA804F04BFD0BA9DF
S3150800061005F022FBDFF80C1E0BA804F06DFD04F0B4
S315080006209CBB9DF82800012800F057816078362881
S3150800063039D0382800F0BA80392800F024814928B2
S3150800064040F0468106F068FB0600EDB2002D0AD0A0
S31508000650DFF8D41D0BA804F04FFD0BA804F022FD0B
S315080006600BA905F0F9FAF6B2002E05D1DFF8BC1D84
S315080006700BA804F041FD15E0DFF8B41D0BA804F043
S315080006803BFD8DF829600BA9002004F027FE060023
S31508000690F6B2002E03D03000C0B204F0E2BB9DF8DB
S315080006A02900060019E1AEA806F0A9FB0600F6B275
S315080006B0002E04D1FFA8383006F058FB0600F6B223
S315080006C0002E5CD1DFF8041E0BA804F015FD0BA95B
S315080006D0002004F003FE0600F6B2002E03D0300018
S315080006E0C0B204F0BEBBDFF8E81D0BA804F026FD77
S315080006F00BA9002004F0F2FD0600F6B2002E03D086
S315080007003000C0B204F0ADBBFFAB3833AEAADFF899
S31508000710C41D0BA804F012FD0BA9002004F0DEFD91
S315080007200600F6B2002E05D03000C0B204F099BB20
S315080007300D0A0000EDB2002D0DD0FFAB3833AEAA7E
S31508000740DFF8981D0BA804F0F9FC0BA804F0AAFC26
S315080007500BA905F081FADFF8881D0BA804F0EEFC5A
S31508000760B1A90BA806F0CAFAB49ADFF8781D2BA827
S3150800077004F0E4FC2BA90BA806F0C0FA15E0DFF894
S31508000780681D0BA804F0B8FC8DF829600BA9002099
S3150800079004F0A4FD0600F6B2002E03D03000C0B265
S315080007A004F05FBB9DF82900060096E03CA806F019
S315080007B06AFB0600F6B2002E27D1DFF80C1E0BA83E
S315080007C004F09AFC0BA9002004F088FD0600F6B296
S315080007D0002E03D03000C0B204F043BBDFF8EC1D96
S315080007E00BA804F0ABFC0DF1FE010BA806F086FA87
S315080007F0DBA10BA806F082FA0BA9002004F06EFD17
S315080008000600F6B2002E01D104E066E03000C0B260
S3150800081004F027BBBDF80621DFF8B41D0BA804F0C9
S315080008208DFC0BA9002004F059FD0600F6B2002E37
S3150800083003D03000C0B204F014BBEDB2002D0AD0CC
S31508000840DFF8E41B0BA804F057FC0BA804F02AFCFD
S315080008500BA905F001FADFF81C1E0BA804F06EFCC4
S315080008603CA90BA806F04AFADFF80C1E0BA806F0FE
S3150800087045FA0DF1F7010BA806F040FAB8A10BA846
S3150800088006F03CFA29E006F05DFB0600EDB2002D05
S315080008900AD0DFF8941B0BA804F02EFC0BA804F072
S315080008A001FC0BA905F0D8F9F6B2002E08D1DFF83D
S315080008B0181E0BA804F020FC09E000BF0000000089
S315080008C0DFF8081E0BA804F017FC0020060004E059
S315080008D0DFF8FC1D0BA804F00FFC04F03EBA9DF8E7
S315080008E02800012840F05181052007F05DFF002807
S315080008F00BD05BA809F046FB0600F6B2002E17D10E
S31508000900D7A808F0B9FF060012E0062007F04CFF4A
S3150800091000280BD05BA808F04BFC0600F6B2002EA8
S3150800092006D1D7A808F0D9F8060001E0012006008C
S31508000930EDB2002D0AD0DFF82C1E0BA804F0DCFB64
S315080009400BA804F0AFFB0BA905F086F9F6B2002E4A
S3150800095040F00881DFF8101E0BA804F0CDFB0BA9A8
S31508000960002004F0BBFC0600F6B2002E03D03000CF
S31508000970C0B204F076BA00200700092F80F2DE80A4
S31508000980002F0FD0022F35D020D3042F5AD045D3AD
S31508000990062F00F07F8069D3082F00F0A480C0F0EE
S315080009A08D80B4E0BDF882010390D8A8C01C0290DF
S315080009B05CA8C01C0190D7A800905BAB0DF5BD7272
S315080009C0DFF80C1E0BA804F0B9FBA0E0BDF89A01ED
S315080009D00390DEA8C01C029062A8C01C0190DDA886
S315080009E0009061AB0DF5C972DFF8E81D0BA804F09D
S315080009F0A5FB8CE0BDF8B2010390E4A8C01C0290E8
S31508000A0068A8C01C0190E3A8009067AB0DF5D572E5
S31508000A10DFF8C01D0BA804F091FB78E0BDF8CA0109
S31508000A200390EAA8C01C02906EA8C01C0190E9A811
S31508000A3000906DAB0DF5E172DFF8981D0BA804F078
S31508000A407DFB64E0BDF8E2010390F0A8C01C0290AB
S31508000A5074A8C01C0190EFA8009073AB0DF5ED7259
S31508000A60DFF8701D0BA804F069FB50E0BDF8FA0129
S31508000A700390F6A8C01C02907AA8C01C0190F5A89D
S31508000A80009079AB0DF5F972DFF8481D0BA804F054
S31508000A9055FB3CE0BDF812020390FCA8C01C02906E
S31508000AA080A8C01C0190FBA800907FAB82AA921C6C
S31508000AB0DFF8201D0BA804F041FB28E0BDF82A0248
S31508000AC00390FFA80F30029086A8C01C0190FFA8CB
S31508000AD00830009085AB88AA921CDFF8F81C0BA892
S31508000AE004F02CFB13E0BDF842020390FFA8273060
S31508000AF002908CA8C01C0190FFA8203000908BABF8
S31508000B008EAA921CDFF8CC1C0BA804F017FBEDB2DA
S31508000B10002D05D00BA804F0C5FA0BA905F09CF822
S31508000B200BA9002004F0DAFB0600F6B2002E03D06B
S31508000B303000C0B204F095B97F1C1EE7DFF8001E2E
S31508000B400BA804F0FBFA44A90BA806F0D7F804A1F1
S31508000B500BA806F0D3F8EDB2002D05D10FE000BFC3
S31508000B600D0A000004F0F9B8DFF834180BA804F0F1
S31508000B70C3FA0BA804F096FA0BA905F06DF8DFF88E
S31508000B800C1E0BA804F0DAFA70E1607830281FD042
S31508000B90312800F05281492840F0688108F0B6FDF6
S31508000BA00600EDB2002D0AD0DFF87C180BA804F079
S31508000BB0A3FA0BA804F076FA0BA905F04DF8F6B2DD
S31508000BC0002E04D1DFF80C1E0BA804F095FA4DE1AF
S31508000BD0052007F0E9FD00280BD05BA809F0D2F93B
S31508000BE00600F6B2002E17D1D7A808F045FE060073
S31508000BF012E0062007F0D8FD00280BD05BA808F005
S31508000C00D7FA0600F6B2002E06D1D7A807F065FF78
S31508000C10060001E001200600EDB2002D0AD0DFF83B
S31508000C2008180BA804F068FA0BA804F03BFA0BA9FD
S31508000C3005F012F8F6B2002E40F0FE80DFF8281B09
S31508000C400BA804F059FA0BA9002004F047FB06008C
S31508000C50F6B2002E03D03000C0B204F002B900206C
S31508000C600700092F80F2D580002F0FD0022F35D02C
S31508000C7020D3042F5AD045D3062F00F07F8069D39E
S31508000C80082F00F0A480C0F08D80B4E0BDF8820182
S31508000C900390D8A8C01C02905CA8C01C0190D7A8D5
S31508000CA000905BAB0DF5BD72DFF8241B0BA804F0B2
S31508000CB045FAA0E0BDF89A010390DEA8C01C029090
S31508000CC062A8C01C0190DDA8009061AB0DF5C97241
S31508000CD0DFF8001B0BA804F031FA8CE0BDF8B2016E
S31508000CE00390E4A8C01C029068A8C01C0190E3A861
S31508000CF0009067AB0DF5D572DFF8D81A0BA804F08B
S31508000D001DFA78E0BDF8CA010390EAA8C01C029053
S31508000D106EA8C01C0190E9A800906DAB0DF5E172B4
S31508000D20DFF8B01A0BA804F009FA64E0BDF8E2018E
S31508000D300390F0A8C01C029074A8C01C0190EFA8EC
S31508000D40009073AB0DF5ED72DFF8881A0BA804F066
S31508000D50F5F950E0BDF8FA010390F6A8C01C029018
S31508000D607AA8C01C0190F5A8009079AB0DF5F97228
S31508000D70DFF8601A0BA804F0E1F93CE0BDF81202AE
S31508000D800390FCA8C01C029080A8C01C0190FBA878
S31508000D9000907FAB82AA921CDFF8381A0BA804F0E1
S31508000DA0CDF928E0BDF82A020390FFA80F3002907B
S31508000DB086A8C01C0190FFA80830009085AB88AAB9
S31508000DC0921CDFF8101A0BA804F0B8F913E0BDF866
S31508000DD042020390FFA8273002908CA8C01C0190FD
S31508000DE0FFA8203000908BAB8EAA921CDFF8E4197E
S31508000DF00BA804F0A3F90BA9002004F06FFA06006B
S31508000E00F6B2002E03D03000C0B204F02AB87F1C18
S31508000E1027E7DFF82C1B0BA804F090F944A90BA8C8
S31508000E2005F06CFFD2A10BA805F068FFDFF85C1B84
S31508000E300BA804F083F919E018E008F0D2FC0600C4
S31508000E40EDB2002D0AD0DFF8E0150BA804F054F92E
S31508000E500BA804F027F90BA904F0FEFEF6B2002E43
S31508000E6004D1DFF8B81D0BA804F046F903F075BFE6
S31508000E709DF82800012852D142A809F0F8FE06007C
S31508000E80F6B2002E03D14EA809F078FE0600F6B297
S31508000E90002E26D1DFF8E81D0BA804F02DF90BA9C2
S31508000EA0002004F01BFA0600F6B2002E03D030002C
S31508000EB0C0B203F0D6BFDFF8CC1D0BA804F03EF98C
S31508000EC044A90BA805F01AFFA9A10BA805F016FF5F
S31508000ED00BA9002004F002FA0600F6B2002E02D191
S31508000EE005E003F03ABF3000C0B203F0BABFEDB276
S31508000EF0002D0CD04EAB42AADFF8F41D0BA804F067
S31508000F001DF90BA804F0CEF80BA904F0A5FE4EAB0C
S31508000F1042AADFF8141E0BA804F010F99DE16078C8
S31508000F20302824D0312874D0322800F0CA803328DB
S31508000F3000F02881492840F07D8109F0EFFA060083
S31508000F40EDB2002D0AD0DFF8E0140BA804F0D4F8AF
S31508000F500BA804F0A7F80BA904F07EFEF6B2002E43
S31508000F6004D1DFF8C81D0BA804F0C6F875E142A83D
S31508000F7009F0ABFB0600F6B2002E03D14EA809F025
S31508000F8028FB0600F6B2002E26D1DFF8DC170BA8E0
S31508000F9004F0B2F80BA9002004F0A0F90600F6B296
S31508000FA0002E03D03000C0B203F05BBFDFF8901903
S31508000FB00BA804F0C3F844A90BA805F09FFE6CA182
S31508000FC00BA805F09BFE0BA9002004F087F9060084
S31508000FD0F6B2002E01D104E03FE13000C0B203F0C2
S31508000FE040BFEDB2002D0CD04EAB42AADFF8001E72
S31508000FF00BA804F0A3F80BA804F054F80BA904F006
S315080010002BFE4EAB42AADFF8EC1D0BA804F096F8AF
S3150800101023E1D1A809F04CFC0600F6B2002E03D154
S31508001020CDA809F0C9FB0600F6B2002E2CD1DFF8D0
S31508001030C81D0BA804F060F80BA9002004F04EF9AF
S315080010400600F6B2002E03D03000C0B203F009BF86
S31508001050DFF8A81D0BA804F071F8D3A9491C0BA842
S3150800106005F04CFE42A10BA805F048FE0BA900208E
S3150800107004F034F90600F6B2002E06D109E000BFE6
S315080010809B670020C09C0108E7E03000C0B203F06F
S31508001090E8BEEDB2002D0CD0CDABD1AADFF8FC1D11
S315080010A00BA804F04BF80BA803F0FCFF0BA904F0FF
S315080010B0D3FDCDABD1AADFF8E81D0BA804F03EF8A6
S315080010C0CBE0C9A809F0E5FC0600F6B2002E03D16C
S315080010D0C5A809F064FC0600F6B2002E27D1DFF891
S315080010E0C41D0BA804F008F80BA9002004F0F6F8B4
S315080010F00600F6B2002E03D03000C0B203F0B1BE2F
S31508001100DFF8A41D0BA804F019F8CBA9491C0BA8F5
S3150800111005F0F4FD16A10BA805F0F0FD0BA90020BB
S3150800112004F0DCF80600F6B2002E01D104E094E0E3
S315080011303000C0B203F095BEEDB2002D0CD0C5ABA1
S31508001140C9AADFF8681D0BA803F0F8FF0BA803F07F
S31508001150A9FF0BA904F080FDC5ABC9AADFF8501D8D
S315080011600BA803F0EBFF78E0CCB001081097010854
S315080011700D0A000080A70108A0BF0108C0BF01082A
S31508001180A8A7010842A809F072FD0600F6B2002ECB
S3150800119003D14EA809F0F2FC0600F6B2002E26D1BD
S315080011A0DFF8DC1A0BA803F0A7FF0BA9002004F050
S315080011B095F80600F6B2002E03D03000C0B203F050
S315080011C050BEDFF8C01A0BA803F0B8FF44A90BA855
S315080011D005F094FDC0A10BA805F090FD0BA9002011
S315080011E004F07CF80600F6B2002E01D104E034E0E3
S315080011F03000C0B203F035BEEDB2002D0CD04EABB8
S3150800120042AADFF8EC1A0BA803F098FF0BA803F024
S3150800121049FF0BA904F020FD4EAB42AADFF8081BD4
S315080012200BA803F08BFF18E0E0BF010800C0010817
S31508001230D0A70108EDB2002D0AD0DFF8101E0BA8C2
S3150800124003F05AFF0BA803F02DFF0BA904F004FDC9
S31508001250DFF87C140BA803F04FFF03F07EBD00BF38
S3150800126020C0010840C00108F8A7010860C00108AD
S3150800127080C0010820A801089DF8280001286DD122
S3150800128049A809F05BFF0600F6B2002E04D10DF559
S315080012908A6009F0D0FD0600F6B2002E26D1DFF8E6
S315080012A0B01D0BA803F028FF0BA9002004F016F8C0
S315080012B00600F6B2002E03D03000C0B203F0D1BD4E
S315080012C0DFF8FC1D0BA803F039FF4BA90BA805F0A6
S315080012D015FD81A10BA805F011FD0BA9002003F04F
S315080012E0FDFF0600F6B2002E02D105E003F035BD7B
S315080012F03000C0B203F0B5BDBDF83421DFF8C41D17
S315080013000BA803F01BFF0BA9002003F0E7FF06005C
S31508001310F6B2002E03D03000C0B203F0A2BDEDB283
S31508001320002D0DD00DF58A6349AADFF89C1D0BA880
S3150800133003F004FF0BA803F0B5FE0BA904F08CFC20
S315080013400DF58A6349AADFF8841D0BA803F0F6FE9B
S315080013500EE100BFA8C70108F4DB01086078302851
S3150800136022D0312800F08C80492840F0018109F00C
S315080013700FFD0600EDB2002D09D02B490BA803F08E
S31508001380BBFE0BA803F08EFE0BA904F065FCF6B2B3
S31508001390002E04D1DFF8381D0BA803F0ADFEE7E0F8
S315080013A0ACD90108C4D5010849A809F0C7FE06004A
S315080013B0EDB2002D09D01C490BA803F09DFE0BA821
S315080013C003F070FE0BA904F047FCF6B2002E31D1EB
S315080013D0DFF87C1C0BA803F08FFE0BA9002003F096
S315080013E07DFF0600F6B2002E03D03000C0B203F02F
S315080013F038BDDFF8CC1C0BA803F0A0FE4BA90BA840
S3150800140005F07CFC34A10BA805F078FC0BA900209C
S3150800141003F064FF0600F6B2002E0CD10FE000BF01
S31508001420C4C70108F0B00108A0C0010848A801080F
S3150800143070A801089CE03000C0B203F012BDBDF8E8
S315080014403421DFF8801C0BA803F078FE0BA90020D6
S3150800145003F044FF0600F6B2002E03D03000C0B2F7
S3150800146003F0FFBCDFF8C81D0BA803F067FE49A907
S315080014700BA805F043FC18A10BA805F03FFC77E084
S315080014803CA80AF05AF90600EDB2002D0AD0DFF89A
S31508001490A41D0BA803F030FE0BA803F003FE0BA94E
S315080014A004F0DAFBF6B2002E36D1DFF8A41B0BA83F
S315080014B003F022FE0BA9002003F010FF0600F6B287
S315080014C0002E13D03000C0B203F0CBBC98A8010898
S315080014D0F89C0108D8D501080D0A000014B10108C6
S315080014E0C8D70108B8D90108C0A8010837490BA808
S315080014F003F024FE0DF1FE010BA805F0FFFBB6A1D3
S315080015000BA805F0FBFB0BA9002003F0E7FE06007D
S31508001510F6B2002E01D104E02AE03000C0B203F092
S31508001520A0BCBDF806212A490BA803F007FE0BA9A3
S31508001530002003F0D3FE0600F6B2002E03D03000DA
S31508001540C0B203F08EBC4B490BA803F0F7FD3CA9CB
S315080015500BA805F0D3FB48490BA805F0CFFB0DF106
S31508001560F7010BA805F0CAFB9BA10BA805F0C6FB63
S3150800157003F0F3BBEDB2002D0AD0DFF8B81C0BA8B8
S3150800158003F0BAFD0BA803F08DFD0BA904F064FB6C
S31508001590DFF8801D0BA803F0AFFD03F0DEBBEDB24C
S315080015A0002D0AD0DFF88C1C0BA803F0A5FD0BA8AC
S315080015B003F078FD0BA904F04FFBDFF85C1D0BA8C0
S315080015C003F09AFD03F0C9BBE8A80108ECD50108A9
S315080015D0C0C001083CA80AF0E5FA0600F6B2002EDB
S315080015E003D1BFA80AF032FA0600F6B2002E27D1B8
S315080015F0DFF8281D0BA803F07FFD0BA9002003F0D8
S315080016006DFE0600F6B2002E03D03000C0B203F01D
S3150800161028BCDFF80C1D0BA803F090FD0DF1FE01A8
S315080016200BA805F06BFB6CA10BA805F067FB0BA9D3
S31508001630002003F053FE0600F6B2002E02D105E0A4
S3150800164003F08BBB3000C0B203F00BBCBDF806211B
S31508001650DFF8EC1D0BA803F071FD0BA9002003F0C1
S315080016603DFE0600F6B2002E08D03000C0B203F0E8
S31508001670F8BB00BFD8D70108E8D70108EDB2002D9E
S3150800168012D0C0A8C01C01900DF1F7000090BFABA6
S315080016903CAADFF8041E0BA803F050FD0BA803F0C4
S315080016A001FD0BA904F0D8FAC0A8C01C01900DF1E1
S315080016B0F7000090BFAB3CAADFF8E01D0BA803F0CB
S315080016C03DFD03F04ABB00BF10A9010838A901086F
S315080016D0E0C001089DF82800012840F08180B5A8DF
S315080016E00AF010FC0600F6B2002E77D1DFF8DC1DF2
S315080016F00BA803F001FD0BA9002003F0EFFD06007F
S31508001700F6B2002E03D03000C0B203F0AABBDFF851
S31508001710EC1D0BA803F012FD0BA9002003F0DEFD5B
S315080017200600F6B2002E03D03000C0B203F099BB13
S31508001730DFF8CC1D0BA803F0DFFCBBA90BA805F04E
S31508001740DDFA25A10BA805F0D9FA0BA9002003F0AC
S31508001750C5FD0600F6B2002E08D03000C0B203F070
S3150800176080BB00BFE0C7010838B10108EDB2002D03
S315080017700ED0B9A80090B7ABB5AADFF8D41D0BA850
S3150800178003F0DCFC0BA803F08DFC0BA904F064FA4B
S31508001790DFF8C01D0BA803F0AFFCB5A90BA805F030
S315080017A0ADFADFF8B41D0BA805F0A8FAB7A90BA87F
S315080017B005F0A4FADFF8D81D0BA805F09FFAB9A919
S315080017C00BA805F09BFA04A10BA805F097FA61E2AD
S315080017D004A1010834A101080D0A000003F0BDBAEE
S315080017E06078302800F05F81312800F0CD813228FA
S315080017F000F0FA81332800F01482492840F0458227
S315080018009DF8280002281AD10AF07AFA0600EDB2E5
S31508001810002D0AD0DFF81C1A0BA803F06DFC0BA8E4
S3150800182003F040FC0BA904F017FAF6B2002E40F0BC
S315080018303981DFF8601D0BA803F05EFC32E1EDB2DA
S31508001840002D0AD0DFF8EC190BA803F055FC0BA8FD
S3150800185003F028FC0BA904F0FFF99DF828001D28C1
S3150800186005D0DFF8CC1D0BA803F046FC1AE1A078DA
S315080018703A2817D160792E2814D1207A2E2811D12A
S31508001880E07A2E280ED1A07B2E280BD1607C2E283C
S3150800189008D1207D2E2805D1E07D2E2802D1A07EF4
S315080018A02E2805D0DFF8941D0BA803F025FCF9E0D7
S315080018B00020359000200700092F26DA032000FBB8
S315080018C007F0204490F903008DF8AC00032000FBD4
S315080018D007F0204490F904008DF8AD0000208DF83B
S315080018E0AE002BA803F0E6FA002807D1DFF8C81DDA
S315080018F00BA803F001FC0120359006E02BA803F0A5
S31508001900FEFA9AA9C8557F1CD6E79DF868020828EA
S3150800191005DBDFF8A81D0BA803F0EEFBBAE19DF87E
S31508001920680210F007008DF8CE009DF869020228BB
S3150800193008DBDFF8041E0BA803F0DEFBAAE100BFF4
S31508001940B0CA01089DF8690210F00100C0B2C000D3
S315080019508DF8CD009DF86A02022805DBDFF8DC1D4C
S315080019600BA803F0C9FB95E19DF86A0210F0010087
S31508001970C0B200018DF8CC009DF86B02022807DB87
S31508001980DFF8BC1D0BA803F0B7FB83E100D60108FE
S315080019909DF86B0210F00100C0B240018DF8CB0033
S315080019A09DF86C02402805DBDFF8101E0BA803F033
S315080019B0A3FB6FE19DF86C0210F03F008DF8CA009A
S315080019C09DF86D02022807DBDFF8F41D0BA803F06B
S315080019D093FB5FE1309D01089DF86D0210F0010050
S315080019E0802148438DF8C9009DF86E02042805DB5E
S315080019F0DFF8D01D0BA803F07FFB4BE19DF86E02C4
S31508001A0010F003008DF8C8009DF86F02042805DB66
S31508001A10DFF82C1E0BA803F06FFB3BE19DF86F0265
S31508001A2010F00300C0B280008DF82B009DF87002FC
S31508001A30022805DBDFF80C1E0BA803F05DFB29E185
S31508001A409DF8700210F00100C0B200018DF82A005E
S31508001A509DF8CE009DF8CD1008189DF8CC100818F2
S31508001A609DF8CB1008188DF8EC009DF8CA009DF873
S31508001A70C91008188DF8ED009DF8C8009DF82B10C0
S31508001A8008189DF82A1008188DF8EE003BA80AF0E9
S31508001A905FF90600F6B2002E04D1DFF8AC1D0BA8DC
S31508001AA003F02AFBF6E0B5A80AF02CFA0600EDB218
S31508001AB0002D0AD0DFF87C170BA803F01DFB0BA836
S31508001AC003F0F0FA0BA904F0C7F8F6B2002E5AD1C3
S31508001AD0DFF8F8190BA803F00FFB0BA9002003F099
S31508001AE0FDFB0600F6B2002E03D03000C0B203F0AC
S31508001AF0B8B9DFF8081A0BA803F020FB0BA90020D9
S31508001B0003F0ECFB0600F6B2002E03D03000C0B29C
S31508001B1003F0A7B9DFF8E8190BA803F0EDFABBA99B
S31508001B200BA805F0EBF8DCA10BA805F0E7F80BA964
S31508001B30002003F0D3FB0600F6B2002E03D03000D7
S31508001B40C0B203F08EB9DFF80C1A0BA803F0D4FA6A
S31508001B50B5A90BA805F0D2F8DFF8FC190BA805F013
S31508001B60CDF8B7A90BA805F0C9F8DFF8241A0BA811
S31508001B7005F0C4F8B9A90BA805F0C0F8C6A10BA8CA
S31508001B8005F0BCF886E085E057A80AF074F9060067
S31508001B90EDB2002D0AD0DFF89C160BA803F0ACFABC
S31508001BA00BA803F07FFA0BA904F056F8F6B2002E3C
S31508001BB019D1DFF8F41D0BA803F09EFA9DF85C21F5
S31508001BC0DFF8E81D2BA803F0B9FA2BA90BA805F036
S31508001BD095F857A9491C0BA805F090F8AEA10BA8D3
S31508001BE005F08CF856E055E00AF0DCF80600EDB290
S31508001BF0002D0AD0DFF83C160BA803F07DFA0BA8D7
S31508001C0003F050FA0BA904F027F8F6B2002E07D114
S31508001C10DFF8101E0BA803F06FFA3BE00CA30108CF
S31508001C2038E059A80AF0E0F80600EDB2002D0AD00F
S31508001C30DFF800160BA803F05FFA0BA803F032FAD8
S31508001C400BA904F009F8F6B2002E1DD1DFF8D81D4D
S31508001C500BA803F051FA9DF86421DFF8501D2BA854
S31508001C6003F06CFA2BA90BA805F048F859A9491CEA
S31508001C700BA805F043F888A10BA805F03FF809E082
S31508001C8060A90108C8CA010804E0DFF8141E0BA8F9
S31508001C9003F032FA03F061B86078442818D0552862
S31508001CA01FD104200AF09AFAEDB2002D0AD0DFF807
S31508001CB084150BA803F020FA0BA803F0F3F90BA977
S31508001CC003F0CAFFDFF8DC1D0BA803F015FA0DE0D8
S31508001CD004200AF091FADFF8D01D0BA803F00CFADD
S31508001CE004E0DFF8C81D0BA803F006FA03F035B8C0
S31508001CF000C101089DF82800022819DAEDB2002D66
S31508001D000AD0DFF830150BA803F0F6F90BA803F094
S31508001D10C9F90BA903F0A0FFDFF8081E0BA803F00A
S31508001D20EBF903F008B800BFFCC7010838A301089F
S31508001D306078422802F06586432800F0F38244283A
S31508001D4002F01D82462802F01186492813D04B2836
S31508001D5002F050824C2802F021864D2802F0DC85DC
S31508001D60522802F02B82532802F07686552802F074
S31508001D70698502F0CFBF9DF82800092813DAEDB26D
S31508001D80002D0AD0DFF8AC140BA803F0B5F90BA8A0
S31508001D9003F088F90BA903F05FFFDFF8001E0BA814
S31508001DA003F0AAF9B3E2A078512800F00482C0F043
S31508001DB0A982532802D0C0F0D580A3E2E0783A2859
S31508001DC002D1A0792E281BD0EDB2002D0AD0DFF85B
S31508001DD064140BA803F090F90BA803F063F90BA998
S31508001DE003F03AFFDFF82C1E0BA803F085F9B8E0DC
S31508001DF05CB1010818C8010880B1010814D60108A9
S31508001E00EDB2002D0AD0DFF82C140BA803F074F9F4
S31508001E100BA803F047F90BA903F01EFF94F9040079
S31508001E208DF8AC0094F905008DF8AD0000208DF80A
S31508001E30AE002BA803F03EF8002805D1DFF8D81D20
S31508001E400BA803F059F98CE02BA803F058F8319049
S31508001E5094F907008DF8AC0094F908008DF8AD00E8
S31508001E6000208DF8AE002BA803F024F8002805D131
S31508001E70DFF8A81D0BA803F03FF972E02BA803F0C2
S31508001E803EF834903498002814D1319ADFF8901D22
S31508001E900BA803F053F93BE00D0A0000A4B10108B2
S31508001EA0E0CA010820C1010828D6010840C1010876
S31508001EB03CD6010800203590002007003498874258
S31508001EC026DA032000FB07F0204490F90A008DF873
S31508001ED0AC00032000FB07F0204490F90B008DF8B6
S31508001EE0AD0000208DF8AE002BA802F0E3FF002815
S31508001EF007D1DFF8241D0BA803F0FEF80120359062
S31508001F0006E02BA802F0FBFF9AA9C8557F1CD5E767
S31508001F103598002805D1319ADFF8EC1D0BA803F097
S31508001F200DF900200700349887420BDA9AA8C25D9B
S31508001F30C1A12BA803F002F92BA90BA804F0DEFE19
S31508001F407F1CF0E7BDA10BA804F0D8FE4FF4FA7386
S31508001F503498020092B29AA9319880B20AF06BFAC4
S31508001F600600D4E1E0783A2805D1A0792E2802D1D6
S31508001F70607A2E2812D0EDB2002D09D0AD490BA8F3
S31508001F8003F0BAF80BA803F08DF80BA903F064FE6A
S31508001F90DFF8EC1D0BA803F0AFF80BE1EDB2002D4E
S31508001FA009D0A4490BA803F0A7F80BA803F07AF800
S31508001FB00BA903F051FE94F904008DF8AC0094F9CE
S31508001FC005008DF8AD0000208DF8AE002BA802F0B4
S31508001FD071FF002805D1DFF8201E0BA803F08CF846
S31508001FE0E8E02BA802F08BFF319094F907008DF8F2
S31508001FF0AC0094F908008DF8AD0000208DF8AE000D
S315080020002BA802F057FF002805D1DFF8F01D0BA812
S3150800201003F072F8CEE02BA802F071FF349094F921
S315080020200A008DF8AC0094F90B008DF8AD0000207D
S315080020308DF8AE002BA802F03DFF00280AD1DFF884
S31508002040341E0BA803F058F8B4E000BF60C10108BD
S31508002050F8CA01082BA802F052FF3A9034980028D3
S3150800206006D1319ADFF8101E0BA803F067F838E09E
S3150800207000203590002007003498874231DA032083
S3150800208000FB07F0204490F90D008DF8AC00032002
S3150800209000FB07F0204490F90E008DF8AD000020F3
S315080020A08DF8AE002BA802F005FF002812D1DFF844
S315080020B0401E0BA803F020F80120359011E000BF60
S315080020C010CB0108C8B1010880C1010828CB010856
S315080020D064A301082BA802F012FF9AA9C8557F1C11
S315080020E0CAE73598002805D1319ADFF8081E0BA8EB
S315080020F003F024F800200700349887420BDA9AA8E0
S31508002100C25D4DA12BA803F019F82BA90BA804F062
S31508002110F5FD7F1CF0E749A10BA804F0EFFD4FF48D
S31508002120FA733498020092B29AA9319880B20AF0EA
S3150800213082F90600F6B2002E0ED14FF4FA733A98D9
S31508002140020092B29AA9319880B20AF0BFF9060045
S31508002150F6B2002E05D100E0D9E014200AF0F1F914
S315080021600600F6B2002E25D10BA9002003F0B6F81A
S315080021700600F6B2002E03D03000C0B202F071BEDF
S31508002180DFF8E81D0BA802F0D9FF002007003A98EF
S3150800219087420BDA9AA8C25D27A12BA802F0CEFFC8
S315080021A02BA90BA804F0AAFD7F1CF0E723A10BA816
S315080021B004F0A4FDABE0E0783A2802D1A0792E28F5
S315080021C012D0EDB2002D09D01A490BA802F094FFDF
S315080021D00BA802F067FF0BA903F03EFDDFF8041E0B
S315080021E00BA802F089FF8CE0EDB2002D09D0114949
S315080021F00BA802F081FF0BA802F054FF0BA903F00D
S315080022002BFD94F904008DF8AC0094F905008DF8BF
S31508002210AD0000208DF8AE002BA802F04BFE00287A
S315080022200ED1DFF8C41D0BA802F066FF69E000BFF7
S31508002230F8D70108A0C0010825782E000D0A00006D
S315080022402BA802F05CFE319094F907008DF8AC00DB
S3150800225094F908008DF8AD0000208DF8AE002BA883
S3150800226002F028FE002805D1DFF81C1E0BA802F094
S3150800227043FF46E02BA802F042FE3A90319ADFF877
S31508002280F81B0BA802F05AFF4FF4FA733A980200AB
S3150800229092B29AA9319880B20AF018F90600F6B2F5
S315080022A0002E07D114200AF04CF90600F6B2002ECB
S315080022B027D100E02BE00BA9002003F00FF8060059
S315080022C0F6B2002E03D03000C0B202F0CABDDFF865
S315080022D09C1C0BA802F032FF002007003A988742A0
S315080022E00BDA9AA8C25DD3A12BA802F027FF2BA967
S315080022F00BA804F003FD7F1CF0E7CFA10BA804F0A0
S31508002300FDFC04E0DFF898170BA802F0F5FE02F0D2
S3150800231012BD00BF64A1010840CB010850D60108D0
S31508002320ECD50108002006009DF82800022840F098
S31508002330E980052006F038FA002804D05BA807F0E3
S315080023409BFA06000BE0062006F02EFA002804D0B9
S315080023505BA806F0C2FB060001E001200600F6B203
S31508002360002E40F0B5803CA809F070FB0600F6B2D6
S31508002370002E40F0958049A808F05DFD0600F6B2EB
S31508002380002E74D1AEA804F0F1FC0600F6B2002EB9
S3150800239058D1EDB2002D25D0AEA8099049A80890CD
S315080023A03CA807905BA806908BA8059085A8049082
S315080023B07FA8039079A8029073A801906DA8009051
S315080023C067AB61AADFF8841D0BA802F0B7FEDFF839
S315080023D0801D0BA802F090FE0BA802F063FE0BA965
S315080023E003F03AFCAEA8099049A808903CA80790C3
S315080023F05BA806908BA8059085A804907FA80390F3
S3150800240079A8029073A801906DA8009067AB61AA9D
S31508002410DFF8401D0BA802F091FE0BA9002002F080
S315080024205DFF0600F6B2002E03D03000C0B202F0FF
S3150800243018BDDFF8341E0BA802F080FE01F09DBE21
S31508002440C0C00108EDB2002D0AD0DFF8201E0BA887
S3150800245002F052FE0BA802F025FE0BA903F0FCFBC6
S31508002460DFF80C1E0BA802F069FE01F086BEEDB27D
S31508002470002D0AD0DFF8FC1D0BA802F03DFE0BA8C4
S3150800248002F010FE0BA903F0E7FBDFF8EC1D0BA822
S3150800249002F054FE01F071BE90A3010888A9010854
S315080024A0EDB2002D0AD0DFF8D41D0BA802F024FEE9
S315080024B00BA802F0F7FD0BA903F0CEFBDFF8C01D51
S315080024C00BA802F03BFE01F058BE00BF34C8010855
S315080024D0EDB2002D0AD0DFF8401E0BA802F00CFE64
S315080024E00BA802F0DFFD0BA903F0B6FBDFF82C1EE4
S315080024F00BA802F023FE01F040BE00BF689D01084C
S3150800250008D80108A078492801F00A86522800F060
S31508002510E785532804D0542801F09D8501F02DBE87
S31508002520E0783A281AD0EDB2002D0AD0DFF8F01D6F
S315080025300BA802F0E1FD0BA802F0B4FD0BA903F00D
S315080025408BFBDFF8E01D0BA802F0D6FD00F0C6BD38
S31508002550BCA30108C4D90108D0D901089DF82800F0
S31508002560052819DAEDB2002D0AD0DFF8501E0BA89F
S3150800257002F0C2FD0BA802F095FD0BA903F06CFB57
S31508002580DFF83C1E0BA802F0B7FD00F0A7BD00BFA0
S31508002590DCD90108A8950108201D3090309952A869
S315080025A002F0AAFD00202A900020299029A8009070
S315080025B02AAB36AADFF80C1E52A80AF009F9032836
S315080025C040F07A8529980AF015F9CDE902012A988A
S315080025D00AF010F9CDE9000136AADFF8EC1D0BA8C0
S315080025E002F0ACFD0422DFF8E41D36A80AF029F94A
S315080025F000283AD12A9A299900200AF09FF906005C
S31508002600F6B2002E1CD1EDB2002D0AD0DFF8541E0A
S315080026100BA802F071FD0BA802F044FD0BA903F00C
S315080026201BFBDFF8441E0BA802F088FD00F041BD35
S315080026305497010825782E000D0A0000F095010828
S31508002640EDB2002D0AD0DFF8241E0BA802F054FDC7
S315080026500BA802F027FD0BA903F0FEFADFF8101EFF
S315080026600BA802F06BFD00F024BD0422DFF8041E5F
S3150800267036A80AF0E6F8002837D12A9A29990120BF
S315080026800AF05CF90600F6B2002E19D1EDB2002D5B
S315080026900AD0DFF8E41D0BA802F02EFD0BA802F005
S315080026A001FD0BA903F0D8FADFF8641E0BA802F0A7
S315080026B045FD00F0FEBC00BFDC980108989B0108A8
S315080026C0EDB2002D0AD0DFF84C1E0BA802F014FD5F
S315080026D00BA802F0E7FC0BA903F0BEFADFF8901D81
S315080026E00BA802F02BFD00F0E4BC0422DFF8281E3C
S315080026F036A80AF0A6F8002839D12A9A299902207C
S315080027000AF01CF90600F6B2002E1BD1EDB2002D18
S315080027100AD0DFF8081E0BA802F0EEFC0BA802F0A0
S31508002720C1FC0BA903F098FADFF8F41D0BA802F018
S3150800273005FD00F0BEBC00BFD49B0108109C010833
S31508002740A09D0108EDB2002D0AD0DFF86C1E0BA87B
S3150800275002F0D2FC0BA802F0A5FC0BA903F07CFA48
S31508002760DFF80C1D0BA802F0E9FC00F0A2BC04225D
S31508002770DFF8481E36A80AF064F8002839D12A9AE4
S31508002780299903200AF0DAF80600F6B2002E1BD1C2
S31508002790EDB2002D0AD0DFF8281E0BA802F0ACFC1B
S315080027A00BA802F07FFC0BA903F056FADFF8141EFB
S315080027B00BA802F0C3FC00F07CBC00BF1C99010802
S315080027C05C9901089C990108EDB2002D0AD0DFF842
S315080027D0F81D0BA802F090FC0BA802F063FC0BA9ED
S315080027E003F03AFADFF8881C0BA802F0A7FC00F001
S315080027F060BC0422DFF8681E36A80AF022F8002812
S3150800280039D12A9A299904200AF098F80600F6B2CE
S31508002810002E1BD1EDB2002D0AD0DFF8481E0BA8FA
S3150800282002F06AFC0BA802F03DFC0BA903F014FAAF
S31508002830DFF8341E0BA802F081FC00F03ABC00BF9A
S31508002840DC9901081C9A010898970108EDB2002D39
S315080028500AD0DFF8181E0BA802F04EFC0BA802F0EF
S3150800286021FC0BA903F0F8F9DFF8041C0BA802F009
S3150800287065FC00F01EBC0422DFF8F41D36A809F03A
S31508002880E0FF002831D12A9A299905200AF056F83E
S315080028900600F6B2002E14D1EDB2002D0AD0DFF8EC
S315080028A0681E0BA802F028FC0BA802F0FBFB0BA97C
S315080028B003F0D2F9DFF8541E0BA802F03FFC00F033
S315080028C0F8BBEDB2002D0AD0DFF8441E0BA802F0C3
S315080028D013FC0BA802F0E6FB0BA903F0BDF9DFF821
S315080028E0901B0BA802F02AFCE3E30422DFF8241E5F
S315080028F036A809F0A6FF002830D12A9A2999062079
S315080029000AF01CF80600F6B2002E13D1EDB2002D1F
S315080029100AD0DFF8041E0BA802F0EEFB0BA802F0A3
S31508002920C1FB0BA903F098F9DFF8841E0BA802F087
S3150800293005FCBEE3EDB2002D0AD0DFF8781E0BA821
S3150800294002F0DAFB0BA802F0ADFB0BA903F084F941
S31508002950DFF81C1B0BA802F0F1FBAAE30422DFF840
S31508002960581E36A809F06DFF002835D12A9A2999EC
S31508002970072009F0E3FF0600F6B2002E18D1EDB2E3
S31508002980002D0AD0DFF8341E0BA802F0B5FB0BA801
S3150800299002F088FB0BA903F05FF9DFF8241E0BA8E9
S315080029A002F0CCFB85E300BFA0C10108FCDB0108EF
S315080029B0EDB2002D0AD0DFF89C1E0BA802F09CFB96
S315080029C00BA802F06FFB0BA903F046F9DFF8A01A73
S315080029D00BA802F0B3FB6CE30422DFF87C1E36A8D2
S315080029E009F02FFF002835D12A9A2999082009F0DD
S315080029F0A5FF0600F6B2002E18D1EDB2002D0AD0BA
S31508002A00DFF8581E0BA802F077FB0BA802F04AFB6A
S31508002A100BA903F021F9DFF8481E0BA802F08EFB7C
S31508002A2047E300BFB09E0108ECB10108EDB2002DE6
S31508002A300AD0DFF8301E0BA802F05EFB0BA802F0E6
S31508002A4031FB0BA903F008F9DFF8241A0BA802F0EA
S31508002A5075FB2EE30422DFF8A01E36A809F0F1FE66
S31508002A60002839D12A9A2999092009F067FF060012
S31508002A70F6B2002E1CD1EDB2002D0AD0DFF87C1E6E
S31508002A800BA802F039FB0BA802F00CFB0BA903F00C
S31508002A90E3F8DFF86C1E0BA802F050FB09E300BF51
S31508002AA0E0C00108C0C10108E0C10108E8A30108A7
S31508002AB0EDB2002D0AD0DFF84C1E0BA802F01CFB65
S31508002AC00BA802F0EFFA0BA903F0C6F8DFF8A01975
S31508002AD00BA802F033FBECE20422DFF82C1E36A822
S31508002AE009F0AFFE002833D12A9A29990A2009F05D
S31508002AF025FF0600F6B2002E16D1EDB2002D0AD03B
S31508002B00DFF8981E0BA802F0F7FA0BA802F0CAFA2B
S31508002B100BA903F0A1F8DFF8881E0BA802F00EFB3C
S31508002B20C7E200BF00C20108EDB2002D0AD0DFF8E7
S31508002B30741E0BA802F0E0FA0BA802F0B3FA0BA970
S31508002B4003F08AF8DFF828190BA802F0F7FAB0E2C2
S31508002B500422DFF8541E36A809F073FE002833D184
S31508002B602A9A29990B2009F0E9FE0600F6B2002EEA
S31508002B7016D1EDB2002D0AD0DFF8301E0BA802F0F0
S31508002B80BBFA0BA802F08EFA0BA903F065F8DFF87A
S31508002B90B01E0BA802F0D2FA8BE200BFB0A901085A
S31508002BA0EDB2002D0AD0DFF89C1E0BA802F0A4FA9D
S31508002BB00BA802F077FA0BA903F04EF8DFF8B01865
S31508002BC00BA802F0BBFA74E20422DFF87C1E36A8D2
S31508002BD009F037FE002839D12A9A29990C2009F0DC
S31508002BE0ADFE0600F6B2002E1CD1EDB2002D0AD0BD
S31508002BF0DFF8581E0BA802F07FFA0BA802F052FA6B
S31508002C000BA903F029F8DFF8481E0BA802F096FA7C
S31508002C104FE200BFD8A9010814A40108E49E0108E0
S31508002C2058CB0108EDB2002D0AD0DFF8B81E0BA864
S31508002C3002F062FA0BA802F035FA0BA903F00CF8B9
S31508002C40DFF82C180BA802F079FA32E20422DFF832
S31508002C50981E36A809F0F5FD002830D12A9A299938
S31508002C600D2009F06BFE0600F6B2002E13D1EDB268
S31508002C70002D0AD0DFF8741E0BA802F03DFA0BA847
S31508002C8002F010FA0BA902F0E7FFDFF8641E0BA8A2
S31508002C9002F054FA0DE2EDB2002D0AD0DFF8541E08
S31508002CA00BA802F029FA0BA802F0FCF90BA902F00E
S31508002CB0D3FFDFF8BC170BA802F040FAF9E10422AB
S31508002CC0DFF8C41E36A809F0BCFD002832D12A9ABE
S31508002CD029990E2009F032FE0600F6B2002E15D10B
S31508002CE0EDB2002D0AD0DFF8A41E0BA802F004FAF4
S31508002CF00BA802F0D7F90BA902F0AEFFDFF8901E79
S31508002D000BA802F01BFAD4E164D60108EDB2002D37
S31508002D100AD0DFF8801E0BA802F0EEF90BA802F025
S31508002D20C1F90BA902F098FFDFF844170BA802F0C7
S31508002D3005FABEE10422DFF8601E36A809F081FD17
S31508002D40002833D12A9A29990F2009F0F7FD0600A1
S31508002D50F6B2002E16D1EDB2002D0AD0DFF8CC1E41
S31508002D600BA802F0C9F90BA802F09CF90BA902F00E
S31508002D7073FFDFF8BC1E0BA802F0E0F999E100BF6B
S31508002D8000AA0108EDB2002D0AD0DFF8A81E0BA88C
S31508002D9002F0B2F90BA802F085F90BA902F05CFF64
S31508002DA0DFF8CC160BA802F0C9F982E10422DFF895
S31508002DB0881E36A809F045FD002835D12A9A299992
S31508002DC0102009F0BBFD0600F6B2002E18D1EDB2B0
S31508002DD0002D0AD0DFF8641E0BA802F08DF90BA8A7
S31508002DE002F060F90BA902F037FFDFF8541E0BA8B2
S31508002DF002F0A4F95DE100BF40A40108189F01088C
S31508002E00EDB2002D0AD0DFF8CC1E0BA802F074F93B
S31508002E100BA802F047F90BA902F01EFFDFF85016BF
S31508002E200BA802F08BF944E10422DFF8AC1E36A8A1
S31508002E3009F007FD002835D12A9A2999112009F0A9
S31508002E407DFD0600F6B2002E18D1EDB2002D0AD08F
S31508002E50DFF8881E0BA802F04FF90BA802F022F93A
S31508002E600BA902F0F9FEDFF8781E0BA802F066F946
S31508002E701FE100BF4C9C010870CB0108EDB2002D84
S31508002E800AD0DFF8601E0BA802F036F90BA802F08C
S31508002E9009F90BA902F0E0FEDFF8D4150BA802F039
S31508002EA04DF906E10422DFF8D01E36A809F0C9FC60
S31508002EB0002835D12A9A2999122009F03FFD0600E3
S31508002EC0F6B2002E18D1EDB2002D0AD0DFF8AC1EEE
S31508002ED00BA802F011F90BA802F0E4F80BA902F00E
S31508002EE0BBFEDFF89C1E0BA802F028F9E1E000BF44
S31508002EF028AA010878D60108EDB2002D0AD0DFF815
S31508002F00841E0BA802F0F8F80BA802F0CBF80BA960
S31508002F1002F0A2FEDFF858150BA802F00FF9C8E078
S31508002F200422DFF8641E36A809F08BFC002833D18A
S31508002F302A9A2999132009F001FD0600F6B2002EF7
S31508002F4016D1EDB2002D0AD0DFF8D01E0BA802F07C
S31508002F50D3F80BA802F0A6F80BA902F07DFEDFF85D
S31508002F60C01E0BA802F0EAF8A3E000BFE8D90108E2
S31508002F70EDB2002D0AD0DFF8AC1E0BA802F0BCF8A3
S31508002F800BA802F08FF80BA902F066FEDFF8E01432
S31508002F900BA802F0D3F88CE00422DFF88C1E36A8C2
S31508002FA009F04FFC002835D12A9A2999142009F0EE
S31508002FB0C5FC0600F6B2002E18D1EDB2002D0AD0D7
S31508002FC0DFF8F81E0BA802F097F80BA802F06AF8CB
S31508002FD00BA902F041FEDFF8E81E0BA802F0AEF8D6
S31508002FE067E000BF50AA01086CA40108EDB2002DE5
S31508002FF00AD0DFF8D01E0BA802F07EF80BA802F064
S3150800300051F80BA902F028FEDFF864140BA802F0A9
S3150800301095F84EE00422DFF8B01E36A809F011FC38
S31508003020002833D12A9A2999152009F087FC060029
S31508003030F6B2002E13D1EDB2002D0AD0DFF88C1EA1
S315080030400BA802F059F80BA802F02CF80BA902F00D
S3150800305003FEDFF87C1E0BA802F070F829E0EDB23B
S31508003060002D0AD0DFF8FC1E0BA802F045F80BA8C5
S3150800307002F018F80BA902F0EFFDDFF8F4130BA81D
S3150800308002F05CF815E000BF4C9F0108EDB2002D78
S315080030900AD0DFF8D41E0BA802F02EF80BA802F00F
S315080030A001F80BA902F0D8FDDFF8C01E0BA802F044
S315080030B045F80020060011E0EDB2002D09D0BF4901
S315080030C00BA802F019F80BA801F0ECFF0BA902F007
S315080030D0C3FDDFF89C1E0BA802F00EF801F04DB8F0
S315080030E0EDB2002D0DD009F05BFC0200DFF8841E5E
S315080030F00BA802F023F80BA801F0D4FF0BA902F0E5
S31508003100ABFD09F04DFC0200DFF8141F0BA802F016
S3150800311015F80BA9002002F0E1F80600F6B2002E19
S3150800312003D03000C0B201F09CBEDFF8F81E0BA831
S3150800313002F004F80BA9002002F0D0F80600F6B257
S31508003140002E09D03000C0B201F08BBE5C9A01088F
S31508003150A0C0010878AA010800200700162F80F2EF
S315080031606687002F36D0022F00F0DE80C0F08A80F6
S31508003170042F00F08381C0F02B81062F00F02682F1
S31508003180C0F0D081082F00F0C982C0F073820A2FE0
S3150800319000F06A83C0F016830C2F00F00984C0F093
S315080031A0B5830E2F00F0A884C0F05484102F00F0C9
S315080031B04985C0F0F384122F00F0E885C0F09485A5
S315080031C0142F00F08786C0F03186152F00F0D486BC
S315080031D000F019BFEDB2002D24D03800C0B209F0B6
S315080031E0CEFB83463800C0B209F0CFFB81463800D3
S315080031F0C0B209F0D0FB8246584609F0FBFACDE981
S315080032000201484609F0F6FACDE900015246DFF810
S31508003210E41E0BA801F092FF0BA801F043FF0BA9CF
S3150800322002F01AFD3800C0B209F0A9FB834638003F
S31508003230C0B209F0AAFB81463800C0B209F0ABFB60
S315080032408246584609F0D6FACDE90201484609F001
S31508003250D1FACDE900015246DFF8F41E0BA801F0B9
S315080032606DFF00F0D0BE00BFF4D90108A0AA01087E
S3150800327088CB0108C8AA0108A0CB010898A40108B0
S3150800328010B20108EDB2002D24D03800C0B209F002
S3150800329076FB83463800C0B209F077FB81463800D2
S315080032A0C0B209F078FB8246584609F0A3FACDE980
S315080032B00201484609F09EFACDE900015246DFF8B8
S315080032C0F81E0BA801F03AFF0BA801F0EBFE0BA9BC
S315080032D002F0C2FC3800C0B209F051FB8346380040
S315080032E0C0B209F052FB81463800C0B209F053FB60
S315080032F08246584609F07EFACDE90201484609F0A9
S3150800330079FACDE900015246DFF8E41E0BA801F070
S3150800331015FF00F078BE00BFF0AA010834B2010814
S3150800332020C2010818AB0108EDB2002D24D03800E0
S31508003330C0B209F024FB83463800C0B209F025FB69
S3150800334081463800C0B209F026FB8246584609F085
S3150800335051FACDE90201484609F04CFACDE90001D7
S315080033605246DFF8C41E0BA801F0E8FE0BA801F0D0
S3150800337099FE0BA902F070FC3800C0B209F0FFFAFA
S3150800338083463800C0B209F000FB81463800C0B257
S3150800339009F001FB8246584609F02CFACDE90201EC
S315080033A0484609F027FACDE900015246DFF8D41E4F
S315080033B00BA801F0C3FE00F026BE00BF58B20108F4
S315080033C07CB2010800DA0108B8CB010804DC010860
S315080033D0EDB2002D24D03800C0B209F0D0FA8346E9
S315080033E03800C0B209F0D1FA81463800C0B209F0F7
S315080033F0D2FA8246584609F0FDF9CDE90201484657
S3150800340009F0F8F9CDE900015246DFF87C1E0BA851
S3150800341001F094FE0BA801F045FE0BA902F01CFC76
S315080034203800C0B209F0ABFA83463800C0B209F0DA
S31508003430ACFA81463800C0B209F0ADFA8246584661
S3150800344009F0D8F9CDE90201484609F0D3F9CDE9E2
S3150800345000015246DFF8DC1E0BA801F06FFE00F0F3
S31508003460D2BD00BFA0B2010850C8010840AB010890
S315080034706CC801080CDC010840C20108EDB2002D39
S3150800348024D03800C0B209F07AFA83463800C0B2B0
S3150800349009F07BFA81463800C0B209F07CFA824608
S315080034A0584609F0A7F9CDE90201484609F0A2F9FC
S315080034B0CDE900015246DFF8801E0BA801F03EFE5A
S315080034C00BA801F0EFFD0BA902F0C6FB3800C0B24D
S315080034D009F055FA83463800C0B209F056FA814613
S315080034E03800C0B209F057FA8246584609F082F900
S315080034F0CDE90201484609F07DF9CDE900015246B9
S31508003500DFF8941E0BA801F019FE00F07CBD00BF81
S31508003510D0CB0108C4B2010814DC010860C2010856
S315080035208CD60108EDB2002D24D03800C0B209F0BF
S3150800353026FA83463800C0B209F027FA81463800D1
S31508003540C0B209F028FA8246584609F053F9CDE97F
S315080035500201484609F04EF9CDE900015246DFF866
S315080035603C1E0BA801F0EAFD0BA801F09BFD0BA978
S3150800357002F072FB3800C0B209F001FA834638003F
S31508003580C0B209F002FA81463800C0B209F003FA5F
S315080035908246584609F02EF9CDE90201484609F057
S315080035A029F9CDE900015246DFF8F41D0BA801F010
S315080035B0C5FD00F028BD00BFE8B201081CDC010803
S315080035C080C20108E8CB01080CB30108EDB2002D52
S315080035D024D03800C0B209F0D2F983463800C0B208
S315080035E009F0D3F981463800C0B209F0D4F9824609
S315080035F0584609F0FFF8CDE90201484609F0FAF8FD
S31508003600CDE900015246DFF8A01E0BA801F096FD91
S315080036100BA801F047FD0BA902F01EFB3800C0B24B
S3150800362009F0ADF983463800C0B209F0AEF9814613
S315080036303800C0B209F0AFF98246584609F0DAF800
S31508003640CDE90201484609F0D5F8CDE90001524610
S31508003650DFF8581E0BA801F071FD00F0D4BC00BFBE
S3150800366024DC0108A0C20108A0D6010830B301086D
S315080036702CDC0108EDB2002D24D03800C0B209F0C8
S315080036807EF983463800C0B209F07FF981463800D2
S31508003690C0B209F080F98246584609F0ABF8CDE980
S315080036A00201484609F0A6F8CDE900015246DFF8BE
S315080036B05C1E0BA801F042FD0BA801F0F3FC0BA958
S315080036C002F0CAFA3800C0B209F059F98346380040
S315080036D0C0B209F05AF981463800C0B209F05BF960
S315080036E08246584609F086F8CDE90201484609F0AF
S315080036F081F8CDE900015246DFF8601E0BA801F0FB
S315080037001DFD00F080BC00BFC0C20108B4D6010888
S3150800371054B3010834DC010878B30108EDB2002D72
S3150800372024D03800C0B209F02AF983463800C0B25E
S3150800373009F02BF981463800C0B209F02CF9824607
S31508003740584609F057F8CDE90201484609F052F8FB
S31508003750CDE900015246DFF8641E0BA801F0EEFC25
S315080037600BA801F09FFC0BA902F076FA3800C0B24C
S3150800377009F005F983463800C0B209F006F9814612
S315080037803800C0B209F007F98246584609F032F8FF
S31508003790CDE90201484609F02DF8CDE90001524667
S315080037A0DFF81C1E0BA801F0C9FC00F02CBC00BFFA
S315080037B000CC010868AB01083CDC01089CB3010891
S315080037C018CC0108EDB2002D24D03800C0B209F09B
S315080037D0D6F883463800C0B209F0D7F881463800D3
S315080037E0C0B209F0D8F88246584609F003F8CDE980
S315080037F00201484608F0FEFFCDE900015246DFF80F
S315080038006C1E0BA801F09AFC0BA801F04BFC0BA947
S3150800381002F022FA3800C0B209F0B1F8834638003F
S31508003820C0B209F0B2F881463800C0B209F0B3F860
S315080038308246584608F0DEFFCDE90201484608F000
S31508003840D9FFCDE900015246DFF8601E0BA801F04A
S3150800385075FCD8E390AB010844DC0108C0B3010845
S3150800386030CC0108B8AB0108EDB2002D24D03800E1
S31508003870C0B209F084F883463800C0B209F085F86A
S3150800388081463800C0B209F086F88246584608F0E4
S31508003890B1FFCDE90201484608F0ACFFCDE90001C9
S315080038A05246DFF80C1E0BA801F048FC0BA801F0E5
S315080038B0F9FB0BA902F0D0F93800C0B209F05FF89D
S315080038C083463800C0B209F060F881463800C0B2B5
S315080038D009F061F88246584608F08CFFCDE90201E6
S315080038E0484608F087FFCDE900015246DFF8341E46
S315080038F00BA801F023FC86E34CDC0108E4B30108BD
S3150800390048CC0108E0AB010854DC0108EDB2002DF3
S3150800391024D03800C0B209F032F883463800C0B265
S3150800392009F033F881463800C0B209F034F8824607
S31508003930584608F05FFFCDE90201484608F05AFFED
S31508003940CDE900015246DFF8381E0BA801F0F6FB58
S315080039500BA801F0A7FB0BA902F07EF93800C0B24C
S3150800396009F00DF883463800C0B209F00EF8814612
S315080039703800C0B209F00FF88246584608F03AFFF8
S31508003980CDE90201484608F035FFCDE90001524667
S31508003990DFF8581E0BA801F0D1FB34E3E0C201089A
S315080039A060CC010808B401085CDC01082CB40108E5
S315080039B0EDB2002D24D03800C0B208F0E0FF8346EF
S315080039C03800C0B208F0E1FF81463800C0B208F0FE
S315080039D0E2FF8246584608F00DFFCDE90201484647
S315080039E008F008FFCDE900015246DFF82C1E0BA8A7
S315080039F001F0A4FB0BA801F055FB0BA902F02CF96A
S31508003A003800C0B208F0BBFF83463800C0B208F0E1
S31508003A10BCFF81463800C0B208F0BDFF8246584652
S31508003A2008F0E8FECDE90201484608F0E3FECDE9D4
S31508003A3000015246DFF8401E0BA801F07FFBE2E2C8
S31508003A4078CC010808AC010864DC010850B4010808
S31508003A5090CC0108EDB2002D24D03800C0B208F091
S31508003A608EFF83463800C0B208F08FFF81463800C3
S31508003A70C0B208F090FF8246584608F0BBFECDE972
S31508003A800201484608F0B6FECDE900015246DFF8C5
S31508003A90281E0BA801F052FB0BA801F003FB0BA98B
S31508003AA002F0DAF83800C0B208F069FF8346380039
S31508003AB0C0B208F06AFF81463800C0B208F06BFF52
S31508003AC08246584608F096FECDE90201484608F0B7
S31508003AD091FECDE900015246DFF8381E0BA801F029
S31508003AE02DFB90E230AC01086CDC010800C301082C
S31508003AF0A8CC010874B40108EDB2002D24D0380012
S31508003B00C0B208F03CFF83463800C0B208F03DFF5B
S31508003B1081463800C0B208F03EFF8246584608F093
S31508003B2069FECDE90201484608F064FECDE90001C8
S31508003B305246DFF8341E0BA801F000FB0BA801F073
S31508003B40B1FA0BA902F088F83800C0B208F017FFDE
S31508003B5083463800C0B208F018FF81463800C0B264
S31508003B6008F019FF8246584608F044FECDE90201DE
S31508003B70484608F03FFECDE900015246DFF8181E18
S31508003B800BA801F0DBFA3EE274DC010898B40108E0
S31508003B90C0CC010858AC01087CDC0108EDB2002D48
S31508003BA024D03800C0B208F0EAFE83463800C0B216
S31508003BB008F0EBFE81463800C0B208F0ECFE8246FB
S31508003BC0584608F017FECDE90201484608F012FEED
S31508003BD0CDE900015246DFF8241E0BA801F0AEFA23
S31508003BE00BA801F05FFA0BA902F036F83800C0B24C
S31508003BF008F0C5FE83463800C0B208F0C6FE814606
S31508003C003800C0B208F0C7FE8246584608F0F2FDF2
S31508003C10CDE90201484608F0EDFDCDE9000152461E
S31508003C20DFF82C1E0BA801F089FAECE1BCB40108F8
S31508003C30D8CC010880AC010884DC0108E0B401088E
S31508003C40F0CC0108EDB2002D24D03800C0B208F03F
S31508003C5096FE83463800C0B208F097FE81463800C3
S31508003C60C0B208F098FE8246584608F0C3FDCDE972
S31508003C700201484608F0BEFDCDE900015246DFF8CC
S31508003C80D41D0BA801F05AFA0BA801F00BFA0BA9E0
S31508003C9001F0E2FF3800C0B208F071FE8346380032
S31508003CA0C0B208F072FE81463800C0B208F073FE52
S31508003CB08246584608F09EFDCDE90201484608F0BE
S31508003CC099FDCDE900015246DFF8EC1D0BA801F07D
S31508003CD035FA98E1A8AC01088CDC010804B501089E
S31508003CE008CD0108D0AC0108EDB2002D24D038006B
S31508003CF0C0B208F044FE83463800C0B208F045FE5C
S31508003D0081463800C0B208F046FE8246584608F09A
S31508003D1071FDCDE90201484608F06CFDCDE90001C8
S31508003D205246DFF8041E0BA801F008FA0BA801F0AA
S31508003D30B9F90BA901F090FF3800C0B208F01FFED0
S31508003D4083463800C0B208F020FE81463800C0B26B
S31508003D5008F021FE8246584608F04CFDCDE90201DE
S31508003D60484608F047FDCDE900015246DFF8E01D58
S31508003D700BA801F0E3F946E194DC010828B501082F
S31508003D8020CD0108F8AC01089CDC0108EDB2002D35
S31508003D9024D03800C0B208F0F2FD83463800C0B21D
S31508003DA008F0F3FD81463800C0B208F0F4FD8246FB
S31508003DB0584608F01FFDCDE90201484608F01AFDED
S31508003DC0CDE900015246DFF8D81D0BA801F0B6F977
S31508003DD00BA801F067F90BA901F03EFF3800C0B245
S31508003DE008F0CDFD83463800C0B208F0CEFD814606
S31508003DF03800C0B208F0CFFD8246584608F0FAFCF3
S31508003E00CDE90201484608F0F5FCCDE90001524625
S31508003E10DFF8CC1D0BA801F091F9F4E04CB50108C8
S31508003E2038CD010820AD0108A4DC0108EDB2002D4B
S31508003E3024D03800C0B208F0A2FD83463800C0B2CC
S31508003E4008F0A3FD81463800C0B208F0A4FD8246FA
S31508003E50584608F0CFFCCDE90201484608F0CAFCEE
S31508003E60CDE900015246DFF8B41D0BA801F066F94A
S31508003E700BA801F017F90BA901F0EEFE3800C0B245
S31508003E8008F07DFD83463800C0B208F07EFD814605
S31508003E903800C0B208F07FFD8246584608F0AAFCF2
S31508003EA0CDE90201484608F0A5FCCDE900015246D5
S31508003EB0DFF86C1D0BA801F041F9A4E070B5010804
S31508003EC050CD010848AD0108ACDC010894B50108DD
S31508003ED068CD0108EDB2002D24D03800C0B208F034
S31508003EE04EFD83463800C0B208F04FFD81463800C3
S31508003EF0C0B208F050FD8246584608F07BFCCDE972
S31508003F000201484608F076FCCDE900015246DFF882
S31508003F10741D0BA801F012F90BA801F0C3F80BA940
S31508003F2001F09AFE3800C0B208F029FD8346380031
S31508003F30C0B208F02AFD81463800C0B208F02BFD51
S31508003F408246584608F056FCCDE90201484608F074
S31508003F5051FCCDE900015246DFF8B01D0BA801F06F
S31508003F60EDF850E070AD0108B8B5010820C30108A6
S31508003F7094A1010818D80108EDB2002D24D0380004
S31508003F80C0B208F0FCFC83463800C0B208F0FDFC5D
S31508003F9081463800C0B208F0FEFC8246584608F052
S31508003FA029FCCDE90201484608F024FCCDE90001C8
S31508003FB05246DFF85C1D0BA801F0C0F80BA801F00B
S31508003FC071F80BA901F048FE3800C0B208F0D7FC1A
S31508003FD083463800C0B208F0D8FC81463800C0B223
S31508003FE008F0D9FC8246584608F004FCCDE90201DF
S31508003FF0484608F0FFFBCDE900015246DFF86C1D84
S315080040000BA801F09BF80BA9002001F067F9060040
S31508004010F6B2002E08D03000C0B200F022BF00BFB2
S3150800402040C30108DCB501087F1CFFF797B8EDB25D
S31508004030002D0AD0DFF87C1D0BA801F05DF80BA84F
S3150800404001F030F80BA901F007FEDFF86C1D0BA88C
S3150800405001F074F891E0E0783A2813D0EDB2002D1B
S315080040600AD0DFF8781D0BA801F046F80BA801F076
S3150800407019F80BA901F0F0FDDFF8641D0BA801F093
S315080040803BF84CE09DF82800052813DAEDB2002D20
S315080040900AD0DFF86C1D0BA801F02EF80BA801F06A
S315080040A001F80BA901F0D8FDDFF8581D0BA801F09F
S315080040B023F834E0201D3090309952A801F01CF8FE
S315080040C0309808F054FC0600F6B2002E14D0EDB273
S315080040D0002D0AD0DFF8601D0BA801F00DF80BA81B
S315080040E000F0E0FF0BA901F0B7FD3000C0B200F008
S315080040F0B8BE00BF80CD0108EDB2002D0AD0DFF8AA
S315080041003C1D0BA800F0F8FF0BA800F0CBFF0BA98D
S3150800411001F0A2FDDFF8A01C0BA801F00FF82CE0B7
S3150800412008F0C1FB0600F6B2002E13D0EDB2002D42
S315080041300AD0DFF8381D0BA800F0DEFF0BA800F048
S31508004140B1FF0BA901F088FD3000C0B200F089BEAE
S3150800415098CD0108EDB2002D0AD0DFF8141D0BA882
S3150800416000F0CAFF0BA800F09DFF0BA901F074FD33
S31508004170DFF8441C0BA800F0E1FF00F0DCBD04F0FA
S3150800418051FBADF8E400EDB2002D0CD0BDF8E420EB
S31508004190DFF8E01C0BA800F0D1FF0BA800F082FFA7
S315080041A00BA901F059FDBDF8E420DFF8CC1C0BA8DB
S315080041B000F0C4FF00F0BFBDB0CD0108EDB2002D80
S315080041C00DD0DFF8B81C0BA800F096FF0BA800F07E
S315080041D069FF0BA901F040FD642008F001FC08F016
S315080041E0B6FCDFF89C1C0BA800F0A8FF00F0A3BDE6
S315080041F060C30108002006009DF82800042815DA87
S31508004200EDB2002D0AD0DFF87C1C0BA800F074FF75
S315080042100BA800F047FF0BA901F01EFDDFF8681C8C
S315080042200BA800F069FF0CE3C8CD0108A078522856
S3150800423000F04082532840F0F182E078422800F0EE
S31508004240A681522806D0532800F08F80542800F003
S31508004250148124E220793A2818D0EDB2002D0AD02C
S31508004260DFF82C1C0BA800F047FF0BA800F01AFF7C
S315080042700BA901F0F1FCDFF81C1C0BA800F03CFFB1
S3150800428072E000BFE0CD0108F8CD01089DF82800CE
S31508004290062810DB01202E90052007009DF828002F
S315080042A087420ADAE05D08F083FC002801D1002085
S315080042B02E907F1CF2E700202E902E98002813D10E
S315080042C0EDB2002D0AD0DFF8D41B0BA800F014FFBE
S315080042D00BA800F0E7FE0BA901F0BEFCDFF8C01B37
S315080042E00BA800F009FF3FE0601D3090309952A8F6
S315080042F000F002FF52A808F060FC2F902F9842F2B7
S315080043001071884202DA2F98002817D5EDB2002DD1
S315080043100AD0DFF8881B0BA800F0EEFE0BA800F009
S31508004320C1FE0BA901F098FCDFF8741B0BA800F07E
S31508004330E3FE19E080C3010810CE01082F9808F0A3
S31508004340F6FCEDB2002D0AD0DFF8581B0BA800F0DA
S31508004350D3FE0BA800F0A6FE0BA901F07DFCDFF842
S31508004360481B0BA800F0EAFE9EE120793A2819D0EE
S31508004370EDB2002D0AD0DFF8341B0BA800F0BCFE06
S315080043800BA800F08FFE0BA901F066FCDFF8201BD6
S315080043900BA800F0B1FE6FE028CE010840CE010858
S315080043A058CE01089DF82800062810DB01202E901B
S315080043B0052007009DF8280087420ADAE05D08F024
S315080043C0F7FB002801D100202E907F1CF2E7002081
S315080043D02E902E98002813D1EDB2002D0AD0DFF8C2
S315080043E07C1B0BA800F088FE0BA800F05BFE0BA94F
S315080043F001F032FCDFF8681B0BA800F07DFE3BE0FD
S31508004400601D3090309952A800F076FE52A808F048
S31508004410D4FB2F902F9842F21071884202DA2F9817
S31508004420002813D5EDB2002D0AD0DFF8301B0BA8F3
S3150800443000F062FE0BA800F035FE0BA901F00CFC9B
S31508004440DFF81C1B0BA800F057FE15E02F9808F0A4
S315080044508CFCEDB2002D0AD0DFF8081B0BA800F083
S315080044604BFE0BA800F01EFE0BA901F0F5FBDFF8CA
S31508004470381A0BA800F062FE16E120793A2817D000
S31508004480EDB2002D0AD0DFF8E01A0BA800F034FED2
S315080044900BA800F007FE0BA901F0DEFBDFF8CC1A2B
S315080044A00BA800F029FE71E070CE010888CE01083D
S315080044B09DF82800062810DB01202E90052007000D
S315080044C09DF8280087420ADAE05D08F071FB0028AB
S315080044D001D100202E907F1CF2E700202E902E9806
S315080044E0002815D1EDB2002D0AD0DFF8841A0BA8E2
S315080044F000F002FE0BA800F0D5FD0BA901F0ACFBFD
S31508004500DFF8701A0BA800F0F7FD3FE0A0CE01080F
S31508004510601D3090309952A800F0EEFD52A808F0C0
S315080045204CFB2F902F9842F21071884202DA2F988E
S31508004530002815D5EDB2002D0AD0DFF8341A0BA8DD
S3150800454000F0DAFD0BA800F0ADFD0BA901F084FB25
S31508004550DFF80C1A0BA800F0CFFD17E0B8CE01085B
S315080045602F9808F029FCEDB2002D0AD0DFF8081ABA
S315080045700BA800F0C1FD0BA800F094FD0BA901F0F3
S315080045806BFBDFF824190BA800F0D8FD8CE0207926
S315080045903A2817D0EDB2002D0AD0DFF8E0190BA89B
S315080045A000F0AAFD0BA800F07DFD0BA901F054FB55
S315080045B0DFF8CC190BA800F09FFD6FE0D0CE0108FC
S315080045C0E8CE01089DF82800062810DB01202E9069
S315080045D0052007009DF8280087420ADAE05D08F002
S315080045E0E7FA002801D100202E907F1CF2E7002070
S315080045F02E902E98002813D1EDB2002D0AD0DFF8A0
S3150800460084190BA800F078FD0BA800F04BFD0BA948
S3150800461001F022FBDFF870190BA800F06DFD3DE0F4
S31508004620601D3090309952A800F066FD52A808F037
S31508004630C4FA2F902F98B0F57A7F02DA2F980028BF
S3150800464016D5EDB2002D0AD0DFF838190BA800F000
S3150800465053FD0BA800F026FD0BA901F0FDFADFF8C3
S3150800466028190BA800F048FD18E000BF00CF010884
S315080046702F9808F0B3FBEDB2002D0AD0DFF80C191D
S315080046800BA800F039FD0BA800F00CFD0BA901F0F2
S31508004690E3FADFF814180BA800F050FD04E0DFF881
S315080046A0F0180BA800F028FDCBE000BF18CF0108D2
S315080046B030CF0108E078422800F07E80522804D0E6
S315080046C0532831D054285DD092E0EDB2002D16D093
S315080046D008F096FB08F0C2FBDFF8B81808F0CEFB26
S315080046E008F088F802000B00DFF8AC180BA800F0F9
S315080046F025FD0BA800F0D6FC0BA901F0ADFA08F0D1
S315080047007FFB08F0ABFBDFF88C1808F0B7FB08F066
S3150800471071F802000B00DFF884180BA800F00EFDF4
S3150800472079E000BFA0C30108EDB2002D16D008F04D
S315080047306AFB08F093FBDFF85C1808F09FFB08F0AB
S3150800474059F802000B00DFF858180BA800F0F6FC21
S315080047500BA800F0A7FC0BA901F07EFA08F053FBA2
S3150800476008F07CFBDFF82C1808F088FB08F042F804
S3150800477002000B00DFF82C180BA800F0DFFC4AE05B
S3150800478048CF0108EDB2002D0DD008F042FB02001B
S31508004790DFF814180BA800F0D1FC0BA800F082FC77
S315080047A00BA901F059FA08F034FB0200DFF8FC17F0
S315080047B00BA800F0C3FC2EE0EDB2002D0DD008F0DA
S315080047C02BFB0200DFF8E8170BA800F0B7FC0BA8D4
S315080047D000F068FC0BA901F03FFA08F01DFB020087
S315080047E0DFF8D0170BA800F0A9FC14E060CF010889
S315080047F0EDB2002D0AD0DFF8C0170BA800F07CFC3C
S315080048000BA800F04FFC0BA901F026FADFF8AC174D
S315080048100BA800F071FC14E078CF0108EDB2002D6A
S315080048200AD0DFF860160BA800F066FC0BA800F0AB
S3150800483039FC0BA901F010FADFF884170BA800F071
S315080048405BFC78E2002006009DF82800032815DAAC
S31508004850EDB2002D0AD0DFF86C170BA800F04CFC5F
S315080048600BA800F01FFC0BA901F0F6F9DFF85817A2
S315080048700BA800F041FC4CE090CF0108A078442832
S315080048801CD0452832D1EDB2002D0AD0DFF83C17EE
S315080048900BA800F031FC0BA800F004FC0BA901F0F2
S315080048A0DBF9DFF82C170BA800F048FC012008F00C
S315080048B071FA06002DE000BFA8CF0108EDB2002D61
S315080048C00AD0DFF810170BA800F016FC0BA800F0AA
S315080048D0E9FB0BA901F0C0F9DFF8FC160BA800F0FC
S315080048E02DFC002008F056FA060012E0EDB2002D65
S315080048F00AD0DFF8D0160BA800F0FEFB0BA800F0D4
S31508004900D1FB0BA901F0A8F9DFF8D0160BA800F027
S31508004910F3FB10E2C0C30108EDB2002D0AD0DFF8A0
S31508004920C0160BA800F0E8FB0BA800F0BBFB0BA910
S3150800493001F092F9DFF8AC160BA800F0DDFB0BA925
S31508004940002000F0CBFC0600F6B2002E02D03000A4
S31508004950C0B286E2DFF890160BA800F0CDFB012066
S31508004960DFF888160870E6E1C0CF010808F0B6F946
S31508004970EDB2002D0AD0DFF878160BA800F0DEFBA2
S315080049800BA800F08FFB0BA901F066F9DFF8641697
S315080049900BA800F0D3FBCEE1D8CF0108EDB2002D6D
S315080049A00BD0DFF854160BA800F0C8FB0BA800F0D4
S315080049B079FB0BA901F050F9BDE1DFF840160BA809
S315080049C000F0BCFB0BA9002000F088FC0600F6B23C
S315080049D0002E02D03000C0B243E2DFF824160BA83E
S315080049E000F0ACFB0BA9002000F078FC0600F6B23C
S315080049F0002E05D03000C0B233E200BFF0CF010868
S31508004A00FEE7EDB2002D0AD0DFF8F8150BA800F086
S31508004A1073FB0BA800F046FB0BA901F01DF9DFF8A4
S31508004A20E8150BA800F068FB0BA9002000F056FC5F
S31508004A300600F6B2002E02D03000C0B211E2DFF84E
S31508004A40CC150BA800F058FB01F0B6FF73E100BFC8
S31508004A5008D0010820D00108EDB2002D0DD0DFF8EE
S31508004A6080150BA800F048FB0BA800F01BFB0BA950
S31508004A7001F0F2F8642007F0B3FF0DF59763D5AAA5
S31508004A80DFF88C15200007F0A3FE47904798022808
S31508004A9040F035810DF59762DFF878150BA800F020
S31508004AA04DFB0BA9002000F019FC0600F6B2002EFB
S31508004AB004D03000C0B2D4E138D00108FFA968316B
S31508004AC00DF5976008F058FA0600F6B2002E41D0A8
S31508004AD09DF86504002809D0022813D00CD30428B1
S31508004AE01CD015D3062827D020D32BE0DFF82815AD
S31508004AF00BA800F023FB07E1DFF820150BA800F050
S31508004B001DFB01E1DFF818150BA800F017FBFBE009
S31508004B10DFF810150BA800F011FBF5E0DFF8081513
S31508004B200BA800F00BFBEFE050D00108DFF8F414F7
S31508004B300BA800F003FBE7E0DFF8F0140BA800F081
S31508004B40FDFAE1E0DFF8E8140BA800F0F7FADBE07D
S31508004B5068D001089DF8640400280ED0022818D0F1
S31508004B6011D3042824D01DD306282DD026D30828EF
S31508004B7038D02FD309283BD040E0DFF8B8140BA86B
S31508004B8000F0DCFA3FE0DFF8B0140BA800F0D6FA24
S31508004B9039E0DFF8A8140BA800F0D0FA33E000BF1C
S31508004BA080D00108DFF898140BA800F0C7FA2AE0AD
S31508004BB0DFF890140BA800F0C1FA24E0DFF8881497
S31508004BC00BA800F0BBFA1EE0DFF880140BA800F073
S31508004BD0B5FA18E0DFF878140BA800F0AFFA12E07F
S31508004BE098D00108DFF86C140BA800F0A7FA0AE0C1
S31508004BF0DFF864140BA800F0A1FA04E0DFF85C14EF
S31508004C000BA800F09BFA0BA9002000F067FB060032
S31508004C10F6B2002E06D03000C0B222E1B0D00108AC
S31508004C20C8D00108DDF86824DFF834140BA800F0B2
S31508004C3085FA0BA9002000F051FB0600F6B2002EFB
S31508004C4002D03000C0B20CE1DDF86C24DFF8141491
S31508004C500BA800F073FA0BA9002000F03FFB060032
S31508004C609DF8640400280FD1FFAA7532DFF8F813FF
S31508004C700BA800F063FA0BA9002000F02FFB060032
S31508004C8035E000BFE0D00108002080467FA10BA8D0
S31508004C9000F054FA002007002D2F28DAFFA8683004
S31508004CA03844427BDFF8C4132BA800F047FA2BA937
S31508004CB00BA802F023F818F10108B8F1100F14DB5D
S31508004CC075A10BA802F01AF8002080460BA900204F
S31508004CD000F004FB0600F6B2002E02D03000C0B287
S31508004CE0BFE06AA10BA800F029FA7F1CD4E79DF85B
S31508004CF07024DFF87C130BA800F020FA04E0DFF834
S31508004D0074130BA800F0F8F915E000BFF8D00108F5
S31508004D1010D10108EDB2002D09D0B1490BA800F059
S31508004D20EBF90BA800F0BEF90BA900F095FFA44912
S31508004D300BA800F0E1F910E0EDB2002D09D0A84962
S31508004D400BA800F0D9F90BA800F0ACF90BA900F0F4
S31508004D5083FF9B490BA800F0CFF9F6B2002E07D0C7
S31508004D60022E46D005D3032E4ED054E028D1010892
S31508004D7057E007F0DCFB4690469801280AD002283F
S31508004D800DD0042810D0082818D010281BD02028A9
S31508004D901ED027E0B8490BA800F0AEF926E0B749BF
S31508004DA00BA800F0A9F921E0B5490BA800F0A4F971
S31508004DB01CE000BFACD90108C8D60108B1490BA848
S31508004DC000F09AF912E0B0490BA800F095F90DE049
S31508004DD0AE490BA800F090F908E000BFE0C301084F
S31508004DE098AD0108AA490BA800F086F907F079FAE8
S31508004DF017E0A8490BA800F07FF907F072FA10E04F
S31508004E0000B6010824B60108A3490BA800F074F9F6
S31508004E1007F067FA05E0A1490BA800F06DF907F05D
S31508004E2060FA0BA9002000F059FA0600F6B2002E27
S31508004E3006D03000C0B214E000C4010888C80108D2
S31508004E4097490BA800F058F90BA9002000F046FA7C
S31508004E500600F6B2002E02D03000C0B201E03000E3
S31508004E60C0B20DF5A06D0DB0BDE8F08F20C40108E5
S31508004E70A4C8010840C4010840D1010860C401085B
S31508004E8048B6010880C40108C0AD0108000000004A
S31508004E906CB60108C4A401080D0A000090B6010802
S31508004EA0B4B60108A0C40108F4D90108D8B60108A7
S31508004EB0F0A40108F8B50400200000F0F3F8050096
S31508004EC00020070000200600AE4216DAA05D3A2848
S31508004ED002DAA05D302805DAA05D472805DAA05D6C
S31508004EE0412802DB0020070001E001200700012F0E
S31508004EF001D1002002E0761CE6E70120F2BD2DE98B
S31508004F00F041040000275FF00008200000F0CAF80E
S31508004F10050000200600AE421ADAA05D3A2806DA35
S31508004F20A05D302803DBA05D303807000CE0A05DEB
S31508004F30472806DAA05D412803DBA05D373807005D
S31508004F4002E05FF0FF3004E017EB0818761CE2E792
S31508004F504046BDE8F081254800787047FCB6010850
S31508004F6020B70108C0C4010844B701081CA50108F8
S31508004F7068B701088CB70108E0C40108B0B7010892
S31508004F8048A50108D4B70108F8B7010800C5010803
S31508004F901CB801080000204120C50108E8AD010839
S31508004FA040C5010874A50108C0C8010858D1010800
S31508004FB0DCC8010860C5010880C5010840B80108B9
S31508004FC0E0C00108A0C5010810AE0108F8C801082C
S31508004FD038AE010814C9010860AE010888AE010898
S31508004FE0A0C0010830C901084CC901089B67002008
S31508004FF070D10108809F010868C9010864B80108D2
S3150800500088B80108C0C50108E0C50108C4A101089F
S31508005010B4DC01080CDA0108DCD6010884C90108E9
S31508005020A0C90108ACB8010800C60108BCC9010836
S31508005030B0AE0108D89D0108389601088096010887
S31508005040C8960108D8C901089C9A0108DC9A010883
S31508005050EC930108389401088494010888D1010862
S31508005060F0D6010828D8010838D80108BCDC0108A0
S3150800507004D70108D8AE010800AF0108F4A1010859
S3150800508024A2010854A2010828AF010884A2010835
S3150800509050AF010878AF0108A0AF0108C8AF0108F2
S315080050A0C4DC010800F10103810704D010F8011BD4
S315080050B089B18107FAD10268B2F10131914311F041
S315080050C0803F04BF50F8042FF6E710F8011B11B112
S315080050D010F8011BFBE7C01A704703681AB95A1E75
S315080050E0026008467047197800290FBF4FF0FF3055
S315080050F0591C0160187870475FEA000C830706D0D0
S3150800510011F8013B00F8013BB3B18307F8D10A68EF
S31508005110B2F1013323EA020313F0803F02BF40F8DD
S31508005120042B51F8042FF3E711F8013B00F8013B73
S3150800513013B111F8013BF9E7604670470CB41CB58A
S31508005140044604A801900A46009401AB694607483C
S315080051507844183008F08AF8009A0021117000285F
S315080051605CBF0098001B16BC5DF80CFB03770000BB
S3150800517080B5DFF87005DFF8701508604FF49640C3
S31508005180DFF8641548600020DFF85C1588600020A9
S31508005190DFF85415C8600020DFF84C1508610C20AC
S315080051A0DFF8441548610020DFF83C1588610020C7
S315080051B0DFF83415C861DFF8300509F027F900284B
S315080051C001D00AF02BF901BD80B5DFF82005DFF81C
S315080051D0201508605FF4E130DFF8141548600020F8
S315080051E0DFF80C1588600020DFF80415C860002079
S315080051F0DFF8FC1408610C20DFF8F41448614FF45A
S315080052004070DFF8EC1488610020DFF8E414C86108
S31508005210DFF8DC0409F0FAF8002801D00AF0FEF8F5
S3150800522001BD10B586B004002068DFF8B8148842BE
S315080052301ED1DFF8C004006850F40030DFF8B4145B
S315080052400860DFF8B004006810F400300090009899
S315080052500C20019002200290012003900320049064
S315080052600720059001A9DFF890040AF0EFF833E06B
S315080052702068DFF8781488422ED1DFF878040068B1
S3150800528050F48020DFF86C140860DFF868040068C2
S3150800529010F48020009000984FF44060019002209E
S315080052A0029001200390032004900720059001A98D
S315080052B0DFF848040AF0CAF84FF4C040019002200B
S315080052C0029000200390032004900720059001A96E
S315080052D0DFF828040AF0BAF806B010BDF8B50400DD
S315080052E00D002800FFF7DEFE0700BFB2832F01DBA3
S315080052F001203AE0E4B2002C19D1DFF80404007862
S31508005300002801D0022030E04FF400433A0092B260
S315080053102900DFF8D40309F0B2F80600F6B2002E29
S3150800532002D03000C0B220E03000C0B21DE0E4B2C6
S31508005330012C19D1DFF8CC030078002801D002200F
S3150800534013E04FF400433A0092B22900DFF8A003B5
S3150800535009F095F80600F6B2002E02D03000C0B269
S3150800536003E03000C0B200E00120F2BDF8B5040049
S315080053700D002800FFF796FE0700BFB2832F01DB5A
S31508005380012036E0E4B2002C17D1DFF87403007868
S31508005390002801D002202CE03A0092B22900DFF85A
S315080053A0480309F0EAF80600F6B2002E02D03000EB
S315080053B0C0B21EE03000C0B21BE0E4B2012C17D127
S315080053C0DFF840030078002801D0022011E03A00F7
S315080053D092B22900DFF8180309F0CFF80600F6B2F2
S315080053E0002E02D03000C0B203E03000C0B200E0A8
S315080053F00120F2BDDFF8100370470120DFF80C1317
S3150800540008707047DFF8040300787047F8B50400A1
S315080054100D001600B6B2832E01DB01205AE0E4B275
S31508005420002C29D1DFF8D8020078002801D0022004
S3150800543050E0DFF8E0020560DFF8DC020680DFF8FE
S31508005440D8020088DFF8D4120880DFF8C80200689E
S31508005450DFF8CC1208600122DFF8C812DFF88802EC
S3150800546009F0C3F80700FFB2002F02D03800C0B217
S3150800547030E03800C0B22DE0E4B2012C29D1DFF8C3
S3150800548084020078002801D0022023E0DFF8840295
S315080054900560DFF884020680DFF87C020088DFF802
S315080054A07C120880DFF86C020068DFF87412086066
S315080054B00122DFF87012DFF8380209F096F80700C3
S315080054C0FFB2002F02D03800C0B203E03800C0B2E5
S315080054D000E00120F2BD10B504002000C0B200F0C3
S315080054E006F8012801D0002000E0012010BD0100C7
