S02E0000526F616420426F61726420526576204D2E3520424153454C494E4520446563203920323031362E737265637A
S315080000005041002095D7010855DC0108BBE80008D7
S31508000010CFE8000859DC0108E3E800080000000002
S31508000020000000000000000000000000978F010893
S315080000305DDC010800000000458F0108D990010821
S31508000040EDCB000861DC010865DC010869DC010804
S315080000506DDC010871DC010875DC010879DC010832
S315080000607DDC010881DC010885DC0108E1900108D6
S3150800007089DC01088DDC010891DC010895DC0108A2
S3150800008099DC01089DDC0108A1DC0108A5DC010852
S31508000090EB900108A9DC0108ADDC0108B1DC010818
S315080000A0B5DC0108B9DC0108BDDC0108C1DC0108C2
S315080000B02791010831910108F5900108139101086B
S315080000C01D910108C5DC0108C9DC0108CDDC010861
S315080000D0D1DC0108D5DC010809910108FF90010867
S315080000E0D9DC0108DDDC0108E1DC0108E5DC0108F2
S315080000F0E9DC010800000000EDDC0108F1DC01087C
S31508000100F5DC0108F9DC0108FDDC010801DD010860
S3150800011005DD010809DD01080DDD01080000000004
S3150800012011DD01080120224981F8280000207047C6
S3150800013010B504001E4890F82800022801D10220B4
S3150800014016E01B4890F82800002801D101200FE08E
S31508000150200004F04BFF282801D3012008E02100E5
S31508000160134804F06DFF0220114981F82800002089
S3150800017010BD10B50E4890F82800022815D105F0D4
S3150800018002FB002805D00121094804F07BFF040082
S3150800019004E00121064800F00DF804000120044996
S315080001A081F828002000C0B200E0002010BD000041
S315080001B06C6500202DE9F04FADF5A06D8DB00400FB
S315080001C00D00200004F012FF8DF82800002006001C
S315080001D0DFF8F40D007800281ED020781B2815D1EA
S315080001E00020DFF8E41D0870DFF8E01D0BA804F016
S315080001F027FF0BA9002005F001FC0600F6B2002E29
S3150800020004F0D1853000C0B204F0CFBD2100012032
S3150800021006F0B2F804F0C7BD207830282FD0312870
S3150800022048D0322879D0332800F0AA80342800F044
S31508000230DA80352800F00A81362800F07D814128C9
S3150800024000F09381422800F0EE82432800F0B4853E
S31508000250442800F0B587452801F03081462801F08A
S315080002604281472801F05A81482801F0D781502851
S3150800027001F0B684542801F0E18404F001BD06F0CB
S31508000280E4FB0600F6B2002E12D1EDB2002D0AD01C
S31508000290DFF81C1E0BA804F0D3FE0BA804F0A6FE7C
S315080002A00BA906F069F8DFF80C1E0BA804F0C8FEC7
S315080002B004F0F7BC91A806F01AFC0600DFF8FC1D4E
S315080002C00BA804F0BDFE0BA9002005F097FB06005D
S315080002D0F6B2002E03D03000C0B204F066BDEDB20F
S315080002E0002D0BD091AADFF8D81D0BA806F090FCBC
S315080002F00BA804F07BFE0BA906F03EF8DFF8C41D38
S315080003000BA806F085FC91A90BA806F09BFCDAA1C0
S315080003100BA806F097FC04F0C4BC91A806F003FCF1
S315080003200600DFF8A41D0BA804F08AFE0BA900201E
S3150800033005F064FB0600F6B2002E03D03000C0B20A
S3150800034004F033BDEDB2002D0BD091AADFF8201EC4
S315080003500BA806F05DFC0BA804F048FE0BA906F0F6
S315080003600BF8DFF8101E0BA806F052FC91A90BA893
S3150800037006F068FCC0A10BA806F064FC04F091BC6A
S3150800038091A806F0EEFB0600DFF8EC1D0BA804F0BA
S3150800039057FE0BA9002005F031FB0600F6B2002E29
S315080003A003D03000C0B204F000BDEDB2002D0BD072
S315080003B091AADFF8F41D0BA806F02AFC0BA804F096
S315080003C015FE0BA905F0D8FFDFF8E01D0BA806F00F
S315080003D01FFC91A90BA806F035FCA7A10BA806F0EF
S315080003E031FC04F05EBC91A806F0D9FB0600DFF8E4
S315080003F0C01D0BA804F024FE0BA9002005F0FEFA88
S315080004000600F6B2002E03D03000C0B204F0CDBC10
S31508000410EDB2002D0BD091AADFF8981D0BA806F0B7
S31508000420F7FB0BA804F0E2FD0BA905F0A5FFDFF822
S31508000430881D0BA806F0ECFB91A90BA806F002FC98
S315080004408DA10BA806F0FEFB04F02BBC06F0CAFA39
S315080004504890DFF8681D0BA804F0F2FD91A806F095
S3150800046046FB06000BA9002005F0C8FA0600F6B2FE
S31508000470002E03D03000C0B204F097BCEDB2002DB8
S315080004800AD0DFF8181E0BA804F0DAFD0BA804F052
S31508000490ADFD0BA905F070FF00208046D9A10BA879
S315080004A006F0B6FB00200700802F30DA4898C257BE
S315080004B0DFF8EC1D2BA806F0ABFB2BA90BA806F062
S315080004C0C1FB18F10108B8F1100F1EDB6AA10BA8D1
S315080004D006F0B8FB002080460BA9002005F08EFA2E
S315080004E00600F6B2002E03D03000C0B204F05DBCA0
S315080004F0EDB2002D05D00BA804F078FD0BA905F088
S315080005003BFFC0A10BA806F083FB7F1CCCE7EDB22E
S31508000510002D0AD0DFF8D01D0BA804F091FD0BA81A
S3150800052004F064FD0BA905F027FFDFF8C01D0BA832
S3150800053006F06EFB04F0B5BB0020060006F04DFB86
S31508000540EDB2002D0AD0DFF8201E0BA804F078FDC6
S315080005500BA804F04BFD0BA905F00EFFDFF80C1EE7
S315080005600BA804F06DFD04F09CBB9DF8280001283B
S3150800057000F057816078362839D0382800F0BA80DC
S31508000580392800F02481492840F0468106F068FBA6
S315080005900600EDB2002D0AD0DFF8D41D0BA804F032
S315080005A04FFD0BA804F022FD0BA905F0E5FEF6B2F7
S315080005B0002E05D1DFF8BC1D0BA804F041FD15E09F
S315080005C0DFF8B41D0BA804F03BFD8DF829600BA9D4
S315080005D0002005F013FA0600F6B2002E03D030000C
S315080005E0C0B204F0E2BB9DF82900060019E1AEA8E6
S315080005F006F0A9FB0600F6B2002E04D1FFA8383093
S3150800060006F058FB0600F6B2002E5CD1DFF8041E91
S315080006100BA804F015FD0BA9002005F0EFF906005C
S31508000620F6B2002E03D03000C0B204F0BEBBDFF82D
S31508000630E81D0BA806F0ECFA0BA9002005F0DEF978
S315080006400600F6B2002E03D03000C0B204F0ADBBEF
S31508000650FFAB3833AEAADFF8C41D0BA806F0D8FAEC
S315080006600BA9002005F0CAF90600F6B2002E05D03F
S315080006703000C0B204F099BB0D0A0000EDB2002D9F
S315080006800DD0FFAB3833AEAADFF8981D0BA806F0DD
S31508000690BFFA0BA804F0AAFC0BA905F06DFEDFF85B
S315080006A0881D0BA806F0B4FAB1A90BA806F0CAFA79
S315080006B0B49ADFF8781D2BA806F0AAFA2BA90BA87E
S315080006C006F0C0FA15E0DFF8681D0BA804F0B8FCC0
S315080006D08DF829600BA9002005F090F90600F6B2FE
S315080006E0002E03D03000C0B204F05FBB9DF829008D
S315080006F0060096E03CA806F06AFB0600F6B2002E55
S3150800070027D1DFF80C1E0BA804F09AFC0BA90020D1
S3150800071005F074F90600F6B2002E03D03000C0B218
S3150800072004F043BBDFF8EC1D0BA806F071FA0DF1D7
S31508000730FE010BA806F086FADBA10BA806F082FAE2
S315080007400BA9002005F05AF90600F6B2002E01D1D1
S3150800075004E066E03000C0B204F027BBBDF806210D
S31508000760DFF8B41D0BA806F053FA0BA9002005F014
S3150800077045F90600F6B2002E03D03000C0B204F0E8
S3150800078014BBEDB2002D0AD0DFF8E41B0BA804F069
S3150800079057FC0BA804F02AFC0BA905F0EDFDDFF8C1
S315080007A01C1E0BA806F034FA3CA90BA806F04AFA58
S315080007B0DFF80C1E0BA806F045FA0DF1F7010BA899
S315080007C006F040FAB8A10BA806F03CFA29E006F0B4
S315080007D05DFB0600EDB2002D0AD0DFF8941B0BA8CE
S315080007E004F02EFC0BA804F001FC0BA905F0C4FDCF
S315080007F0F6B2002E08D1DFF8181E0BA804F020FC6C
S3150800080009E000BF00000000DFF8081E0BA804F08E
S3150800081017FC0020060004E0DFF8FC1D0BA804F016
S315080008200FFC04F03EBA9DF82800012840F05181DB
S31508000830052007F05DFF00280BD05BA809F046FBF2
S315080008400600F6B2002E17D1D7A808F0B9FF0600A1
S3150800085012E0062007F04CFF00280BD05BA808F032
S315080008604BFC0600F6B2002E06D1D7A808F0D9F838
S31508000870060001E001200600EDB2002D0AD0DFF8DF
S315080008802C1E0BA804F0DCFB0BA804F0AFFB0BA98D
S3150800089005F072FDF6B2002E40F00881DFF8101E52
S315080008A00BA804F0CDFB0BA9002005F0A7F806005D
S315080008B0F6B2002E03D03000C0B204F076BA00209B
S315080008C00700092F80F2DE80002F0FD0022F35D0C7
S315080008D020D3042F5AD045D3062F00F07F8069D342
S315080008E0082F00F0A480C0F08D80B4E0BDF8820126
S315080008F00390D8A8C01C02905CA8C01C0190D7A879
S3150800090000905BAB0DF5BD72DFF80C1E0BA806F068
S315080009107FF9A0E0BDF89A010390DEA8C01C0290FA
S3150800092062A8C01C0190DDA8009061AB0DF5C972E4
S31508000930DFF8E81D0BA806F06BF98CE0BDF8B201EC
S315080009400390E4A8C01C029068A8C01C0190E3A804
S31508000950009067AB0DF5D572DFF8C01D0BA806F041
S3150800096057F978E0BDF8CA010390EAA8C01C0290BE
S315080009706EA8C01C0190E9A800906DAB0DF5E17258
S31508000980DFF8981D0BA806F043F964E0BDF8E2010C
S315080009900390F0A8C01C029074A8C01C0190EFA890
S315080009A0009073AB0DF5ED72DFF8701D0BA806F01D
S315080009B02FF950E0BDF8FA010390F6A8C01C029082
S315080009C07AA8C01C0190F5A8009079AB0DF5F972CC
S315080009D0DFF8481D0BA806F01BF93CE0BDF812022B
S315080009E00390FCA8C01C029080A8C01C0190FBA81C
S315080009F000907FAB82AA921CDFF8201D0BA806F098
S31508000A0007F928E0BDF82A020390FFA80F300290E4
S31508000A1086A8C01C0190FFA80830009085AB88AA5C
S31508000A20921CDFF8F81C0BA806F0F2F813E0BDF8E4
S31508000A3042020390FFA8273002908CA8C01C0190A0
S31508000A40FFA8203000908BAB8EAA921CDFF8CC1C36
S31508000A500BA806F0DDF8EDB2002D05D00BA804F0C2
S31508000A60C5FA0BA905F088FC0BA9002004F0C6FFFF
S31508000A700600F6B2002E03D03000C0B204F095B9D5
S31508000A807F1C1EE7DFF8001E0BA806F0C1F844A974
S31508000A900BA806F0D7F804A10BA806F0D3F8EDB218
S31508000AA0002D05D10FE000BF0D0A000004F0F9B8CB
S31508000AB0DFF834180BA804F0C3FA0BA804F096FA6A
S31508000AC00BA905F059FCDFF80C1E0BA806F0A0F8D8
S31508000AD070E1607830281FD0312800F0528149280B
S31508000AE040F0688108F0B6FD0600EDB2002D0AD088
S31508000AF0DFF87C180BA804F0A3FA0BA804F076FA22
S31508000B000BA905F039FCF6B2002E04D1DFF80C1E4D
S31508000B100BA804F095FA4DE1052007F0E9FD002839
S31508000B200BD05BA809F0D2F90600F6B2002E17D151
S31508000B30D7A808F045FE060012E0062007F0D8FD03
S31508000B4000280BD05BA808F0D7FA0600F6B2002EEC
S31508000B5006D1D7A807F065FF060001E001200600C8
S31508000B60EDB2002D0AD0DFF808180BA804F068FAD1
S31508000B700BA804F03BFA0BA905F0FEFBF6B2002E13
S31508000B8040F0FE80DFF8281B0BA804F059FA0BA9E1
S31508000B90002004F033FF0600F6B2002E03D0300022
S31508000BA0C0B204F002B900200700092F80F2D580F0
S31508000BB0002F0FD0022F35D020D3042F5AD045D37B
S31508000BC0062F00F07F8069D3082F00F0A480C0F0BC
S31508000BD08D80B4E0BDF882010390D8A8C01C0290AD
S31508000BE05CA8C01C0190D7A800905BAB0DF5BD7240
S31508000BF0DFF8241B0BA806F00BF8A0E0BDF89A0155
S31508000C000390DEA8C01C029062A8C01C0190DDA853
S31508000C10009061AB0DF5C972DFF8001B0BA805F053
S31508000C20F7FF8CE0BDF8B2010390E4A8C01C02905F
S31508000C3068A8C01C0190E3A8009067AB0DF5D572B3
S31508000C40DFF8D81A0BA805F0E3FF78E0BDF8CA016B
S31508000C500390EAA8C01C02906EA8C01C0190E9A8DF
S31508000C6000906DAB0DF5E172DFF8B01A0BA805F030
S31508000C70CFFF64E0BDF8E2010390F0A8C01C029023
S31508000C8074A8C01C0190EFA8009073AB0DF5ED7227
S31508000C90DFF8881A0BA805F0BBFF50E0BDF8FA018B
S31508000CA00390F6A8C01C02907AA8C01C0190F5A86B
S31508000CB0009079AB0DF5F972DFF8601A0BA805F00C
S31508000CC0A7FF3CE0BDF812020390FCA8C01C0290E6
S31508000CD080A8C01C0190FBA800907FAB82AA921C3A
S31508000CE0DFF8381A0BA805F093FF28E0BDF82A02AA
S31508000CF00390FFA80F30029086A8C01C0190FFA899
S31508000D000830009085AB88AA921CDFF8101A0BA849
S31508000D1005F07EFF13E0BDF842020390FFA82730D6
S31508000D2002908CA8C01C0190FFA8203000908BABC5
S31508000D308EAA921CDFF8E4190BA805F069FF0BA927
S31508000D40002004F05BFE0600F6B2002E03D0300049
S31508000D50C0B204F02AB87F1C27E7DFF82C1B0BA8C3
S31508000D6005F056FF44A90BA805F06CFFD2A10BA805
S31508000D7005F068FFDFF85C1B0BA805F049FF19E0D2
S31508000D8018E008F0D2FC0600EDB2002D0AD0DFF814
S31508000D90E0150BA804F054F90BA804F027F90BA9E1
S31508000DA005F0EAFAF6B2002E04D1DFF8B81D0BA852
S31508000DB004F046F903F075BF9DF82800012852D1C2
S31508000DC042A809F0F8FE0600F6B2002E03D14EA896
S31508000DD009F078FE0600F6B2002E26D1DFF8E81DE7
S31508000DE00BA804F02DF90BA9002004F007FE060055
S31508000DF0F6B2002E03D03000C0B203F0D6BFDFF83B
S31508000E00CC1D0BA805F004FF44A90BA805F01AFF92
S31508000E10A9A10BA805F016FF0BA9002004F0EEFD0A
S31508000E200600F6B2002E02D105E003F03ABF300004
S31508000E30C0B203F0BABFEDB2002D0CD04EAB42AA39
S31508000E40DFF8F41D0BA805F0E3FE0BA804F0CEF8B6
S31508000E500BA905F091FA4EAB42AADFF8141E0BA8AF
S31508000E6005F0D6FE9DE16078302824D0312874D06C
S31508000E70322800F0CA80332800F02881492840F03B
S31508000E807D8109F0EFFA0600EDB2002D0AD0DFF8F1
S31508000E90E0140BA804F0D4F80BA804F0A7F80BA9E3
S31508000EA005F06AFAF6B2002E04D1DFF8C81D0BA8C1
S31508000EB004F0C6F875E142A809F0ABFB0600F6B2E5
S31508000EC0002E03D14EA809F028FB0600F6B2002E24
S31508000ED026D1DFF8DC170BA804F0B2F80BA900201E
S31508000EE004F08CFD0600F6B2002E03D03000C0B226
S31508000EF003F05BBFDFF890190BA805F089FE44A93B
S31508000F000BA805F09FFE6CA10BA805F09BFE0BA98C
S31508000F10002004F073FD0600F6B2002E01D104E0AD
S31508000F203FE13000C0B203F040BFEDB2002D0CD057
S31508000F304EAB42AADFF8001E0BA805F069FE0BA807
S31508000F4004F054F80BA905F017FA4EAB42AADFF8DD
S31508000F50EC1D0BA805F05CFE23E1D1A809F04CFCBA
S31508000F600600F6B2002E03D1CDA809F0C9FB06008B
S31508000F70F6B2002E2CD1DFF8C81D0BA804F060F8D5
S31508000F800BA9002004F03AFD0600F6B2002E03D0A5
S31508000F903000C0B203F009BFDFF8A81D0BA805F0A2
S31508000FA037FED3A9491C0BA805F04CFE42A10BA895
S31508000FB005F048FE0BA9002004F020FD0600F6B255
S31508000FC0002E06D109E000BF1F6700200C9C01080F
S31508000FD0E7E03000C0B203F0E8BEEDB2002D0CD059
S31508000FE0CDABD1AADFF8FC1D0BA805F011FE0BA8A6
S31508000FF003F0FCFF0BA905F0BFF9CDABD1AADFF8CA
S31508001000E81D0BA805F004FECBE0C9A809F0E5FC2D
S315080010100600F6B2002E03D1C5A809F064FC060046
S31508001020F6B2002E27D1DFF8C41D0BA804F008F885
S315080010300BA9002004F0E2FC0600F6B2002E03D04D
S315080010403000C0B203F0B1BEDFF8A41D0BA805F04E
S31508001050DFFDCBA9491C0BA805F0F4FD16A10BA8CA
S3150800106005F0F0FD0BA9002004F0C8FC0600F6B256
S31508001070002E01D104E094E03000C0B203F095BE22
S31508001080EDB2002D0CD0C5ABC9AADFF8681D0BA8B8
S3150800109005F0BEFD0BA803F0A9FF0BA905F06CF936
S315080010A0C5ABC9AADFF8501D0BA805F0B1FD78E05D
S315080010B018B001085C9601080D0A0000CCA60108C4
S315080010C0ECBE01080CBF0108F4A6010842A809F005
S315080010D072FD0600F6B2002E03D14EA809F0F2FC06
S315080010E00600F6B2002E26D1DFF8DC1A0BA803F0AC
S315080010F0A7FF0BA9002004F081FC0600F6B2002E1B
S3150800110003D03000C0B203F050BEDFF8C01A0BA8F7
S3150800111005F07EFD44A90BA805F094FDC0A10BA817
S3150800112005F090FD0BA9002004F068FC0600F6B255
S31508001130002E01D104E034E03000C0B203F035BE21
S31508001140EDB2002D0CD04EAB42AADFF8EC1A0BA874
S3150800115005F05EFD0BA803F049FF0BA905F00CF995
S315080011604EAB42AADFF8081B0BA805F051FD18E0A4
S315080011702CBF01084CBF01081CA70108EDB2002DC1
S315080011800AD0DFF8101E0BA803F05AFF0BA803F0CD
S315080011902DFF0BA905F0F0F8DFF87C140BA803F077
S315080011A04FFF03F07EBD00BF6CBF01088CBF01086E
S315080011B044A70108ACBF0108CCBF01086CA7010809
S315080011C09DF8280001286DD149A809F05BFF0600A3
S315080011D0F6B2002E04D10DF58A6009F0D0FD06009E
S315080011E0F6B2002E26D1DFF8B01D0BA803F028FFB3
S315080011F00BA9002004F002FC0600F6B2002E03D06C
S315080012003000C0B203F0D1BDDFF8FC1D0BA805F015
S31508001210FFFC4BA90BA805F015FD81A10BA805F04D
S3150800122011FD0BA9002004F0E9FB0600F6B2002E1A
S3150800123002D105E003F035BD3000C0B203F0B5BDFC
S31508001240BDF83421DFF8C41D0BA805F0E1FC0BA995
S31508001250002004F0D3FB0600F6B2002E03D03000BF
S31508001260C0B203F0A2BDEDB2002D0DD00DF58A6314
S3150800127049AADFF89C1D0BA805F0CAFC0BA803F0C9
S31508001280B5FE0BA905F078F80DF58A6349AADFF8CB
S31508001290841D0BA805F0BCFC0EE100BFF4C60108CE
S315080012A030DB01086078302822D0312800F08C80A5
S315080012B0492840F0018109F00FFD0600EDB2002D26
S315080012C009D02B490BA803F0BBFE0BA803F08EFE32
S315080012D00BA905F051F8F6B2002E04D1DFF8381D37
S315080012E00BA803F0ADFEE7E0E8D8010810D5010821
S315080012F049A809F0C7FE0600EDB2002D09D01C4921
S315080013000BA803F09DFE0BA803F070FE0BA905F0D1
S3150800131033F8F6B2002E31D1DFF87C1C0BA803F0A7
S315080013208FFE0BA9002004F069FB0600F6B2002E1A
S3150800133003D03000C0B203F038BDDFF8CC1C0BA8D0
S3150800134005F066FC4BA90BA805F07CFC34A10BA89C
S3150800135005F078FC0BA9002004F050FB0600F6B255
S31508001360002E0CD10FE000BF10C701083CB00108E1
S31508001370ECBF010894A70108BCA701089CE030004F
S31508001380C0B203F012BDBDF83421DFF8801C0BA8EB
S3150800139005F03EFC0BA9002004F030FB0600F6B26F
S315080013A0002E03D03000C0B203F0FFBCDFF8C81D22
S315080013B00BA805F02DFC49A90BA805F043FC18A1BC
S315080013C00BA805F03FFC77E03CA80AF05AF906009E
S315080013D0EDB2002D0AD0DFF8A41D0BA803F030FEED
S315080013E00BA803F003FE0BA904F0C6FFF6B2002E05
S315080013F036D1DFF8A41B0BA803F022FE0BA90020A8
S3150800140004F0FCFA0600F6B2002E13D03000C0B283
S3150800141003F0CBBCE4A70108449C010824D50108C5
S315080014200D0A000060B0010804D70108F4D80108C5
S315080014300CA8010837490BA805F0EAFB0DF1FE01D7
S315080014400BA805F0FFFBB6A10BA805F0FBFB0BA943
S31508001450002004F0D3FA0600F6B2002E01D104E00B
S315080014602AE03000C0B203F0A0BCBDF806212A4924
S315080014700BA805F0CDFB0BA9002004F0BFFA060067
S31508001480F6B2002E03D03000C0B203F08EBC4B4932
S315080014900BA805F0BDFB3CA90BA805F0D3FB4849F2
S315080014A00BA805F0CFFB0DF1F7010BA805F0CAFB59
S315080014B09BA10BA805F0C6FB03F0F3BBEDB2002D0C
S315080014C00AD0DFF8B81C0BA803F0BAFD0BA803F086
S315080014D08DFD0BA904F050FFDFF8801D0BA803F063
S315080014E0AFFD03F0DEBBEDB2002D0AD0DFF88C1C91
S315080014F00BA803F0A5FD0BA803F078FD0BA904F0D3
S315080015003BFFDFF85C1D0BA803F09AFD03F0C9BB8F
S3150800151034A8010838D501080CC001083CA80AF00F
S31508001520E5FA0600F6B2002E03D1BFA80AF032FA91
S315080015300600F6B2002E27D1DFF8281D0BA803F007
S315080015407FFD0BA9002004F059FA0600F6B2002E1A
S3150800155003D03000C0B203F028BCDFF80C1D0BA87E
S3150800156005F056FB0DF1FE010BA805F06BFB6CA10F
S315080015700BA805F067FB0BA9002004F03FFA06004C
S31508001580F6B2002E02D105E003F08BBB3000C0B2E4
S3150800159003F00BBCBDF80621DFF8EC1D0BA805F01F
S315080015A037FB0BA9002004F029FA0600F6B2002E34
S315080015B008D03000C0B203F0F8BB00BF14D701084A
S315080015C024D70108EDB2002D12D0C0A8C01C019086
S315080015D00DF1F7000090BFAB3CAADFF8041E0BA87C
S315080015E005F016FB0BA803F001FD0BA904F0C4FED9
S315080015F0C0A8C01C01900DF1F7000090BFAB3CAA33
S31508001600DFF8E01D0BA805F003FB03F04ABB00BF9B
S315080016105CA8010884A801082CC001089DF82800C8
S31508001620012840F08180B5A80AF010FC0600F6B241
S31508001630002E77D1DFF8DC1D0BA803F001FD0BA9FE
S31508001640002004F0DBF90600F6B2002E03D03000C5
S31508001650C0B203F0AABBDFF8EC1D0BA805F0D8FA58
S315080016600BA9002004F0CAF90600F6B2002E03D032
S315080016703000C0B203F099BBDFF8CC1D0BA803F00D
S31508001680DFFCBBA90BA805F0DDFA25A10BA805F020
S31508001690D9FA0BA9002004F0B1F90600F6B2002E1B
S315080016A008D03000C0B203F080BB00BF2CC70108C9
S315080016B084B00108EDB2002D0ED0B9A80090B7ABE2
S315080016C0B5AADFF8D41D0BA805F0A2FA0BA803F0FB
S315080016D08DFC0BA904F050FEDFF8C01D0BA803F023
S315080016E0AFFCB5A90BA805F0ADFADFF8B41D0BA839
S315080016F005F0A8FAB7A90BA805F0A4FADFF8D81DD3
S315080017000BA805F09FFAB9A90BA805F09BFA04A146
S315080017100BA805F097FA61E250A0010880A001081D
S315080017200D0A000003F0BDBA6078302800F05F812A
S31508001730312800F0CD81322800F0FA81332800F0F4
S315080017401482492840F045829DF8280002281AD1BB
S315080017500AF07AFA0600EDB2002D0AD0DFF81C1A54
S315080017600BA803F06DFC0BA803F040FC0BA904F0D2
S3150800177003FEF6B2002E40F03981DFF8601D0BA893
S3150800178003F05EFC32E1EDB2002D0AD0DFF8EC1969
S315080017900BA803F055FC0BA803F028FC0BA904F0D2
S315080017A0EBFD9DF828001D2805D0DFF8CC1D0BA8F9
S315080017B003F046FC1AE1A0783A2817D160792E285A
S315080017C014D1207A2E2811D1E07A2E280ED1A07BAA
S315080017D02E280BD1607C2E2808D1207D2E2805D1F5
S315080017E0E07D2E2802D1A07E2E2805D0DFF8941D94
S315080017F00BA803F025FCF9E000203590002007002F
S31508001800092F26DA032000FB07F0204490F903008D
S315080018108DF8AC00032000FB07F0204490F9040083
S315080018208DF8AD0000208DF8AE002BA803F0E6FA7F
S31508001830002807D1DFF8C81D0BA803F001FC01201A
S31508001840359006E02BA803F0FEFA9AA9C8557F1C26
S31508001850D6E79DF86802082805DBDFF8A81D0BA85F
S3150800186003F0EEFBBAE19DF8680210F007008DF868
S31508001870CE009DF86902022808DBDFF8041E0BA8D3
S3150800188003F0DEFBAAE100BFFCC901089DF8690266
S3150800189010F00100C0B2C0008DF8CD009DF86A02B4
S315080018A0022805DBDFF8DC1D0BA803F0C9FB95E170
S315080018B09DF86A0210F00100C0B200018DF8CC0054
S315080018C09DF86B02022807DBDFF8BC1D0BA803F0A6
S315080018D0B7FB83E14CD501089DF86B0210F00100B7
S315080018E0C0B240018DF8CB009DF86C02402805DB9C
S315080018F0DFF8101E0BA803F0A3FB6FE19DF86C023E
S3150800190010F03F008DF8CA009DF86D02022807DB2B
S31508001910DFF8F41D0BA803F093FB5FE17C9C01083C
S315080019209DF86D0210F00100802148438DF8C9002A
S315080019309DF86E02042805DBDFF8D01D0BA803F01E
S315080019407FFB4BE19DF86E0210F003008DF8C8008E
S315080019509DF86F02042805DBDFF82C1E0BA803F0A0
S315080019606FFB3BE19DF86F0210F00300C0B28000E8
S315080019708DF82B009DF87002022805DBDFF80C1E97
S315080019800BA803F05DFB29E19DF8700210F0010039
S31508001990C0B200018DF82A009DF8CE009DF8CD1042
S315080019A008189DF8CC1008189DF8CB1008188DF863
S315080019B0EC009DF8CA009DF8C91008188DF8ED00CE
S315080019C09DF8C8009DF82B1008189DF82A100818CD
S315080019D08DF8EE003BA80AF05FF90600F6B2002E75
S315080019E004D1DFF8AC1D0BA803F02AFBF6E0B5A876
S315080019F00AF02CFA0600EDB2002D0AD0DFF87C17A3
S31508001A000BA803F01DFB0BA803F0F0FA0BA904F0D2
S31508001A10B3FCF6B2002E5AD1DFF8F8190BA803F07A
S31508001A200FFB0BA9002003F0E9FF0600F6B2002E13
S31508001A3003D03000C0B203F0B8B9DFF8081A0BA813
S31508001A4005F0E6F80BA9002003F0D8FF0600F6B269
S31508001A50002E03D03000C0B203F0A7B9DFF8E819AA
S31508001A600BA803F0EDFABBA90BA805F0EBF8DCA16F
S31508001A700BA805F0E7F80BA9002003F0BFFF060046
S31508001A80F6B2002E03D03000C0B203F08EB9DFF8EC
S31508001A900C1A0BA803F0D4FAB5A90BA805F0D2F8CE
S31508001AA0DFF8FC190BA805F0CDF8B7A90BA805F0C7
S31508001AB0C9F8DFF8241A0BA805F0C4F8B9A90BA8C9
S31508001AC005F0C0F8C6A10BA805F0BCF886E085E0CD
S31508001AD057A80AF074F90600EDB2002D0AD0DFF80F
S31508001AE09C160BA803F0ACFA0BA803F07FFA0BA917
S31508001AF004F042FCF6B2002E19D1DFF8F41D0BA84B
S31508001B0003F09EFA9DF85C21DFF8E81D2BA805F086
S31508001B107FF82BA90BA805F095F857A9491C0BA81F
S31508001B2005F090F8AEA10BA805F08CF856E055E044
S31508001B300AF0DCF80600EDB2002D0AD0DFF83C16F4
S31508001B400BA803F07DFA0BA803F050FA0BA904F0D2
S31508001B5013FCF6B2002E07D1DFF8101E0BA803F00F
S31508001B606FFA3BE058A2010838E059A80AF0E0F8F5
S31508001B700600EDB2002D0AD0DFF800160BA803F018
S31508001B805FFA0BA803F032FA0BA904F0F5FBF6B2DC
S31508001B90002E1DD1DFF8D81D0BA803F051FA9DF8C9
S31508001BA06421DFF8501D2BA805F032F82BA90BA8E5
S31508001BB005F048F859A9491C0BA805F043F888A16F
S31508001BC00BA805F03FF809E0ACA8010814CA0108FB
S31508001BD004E0DFF8141E0BA803F032FA03F061B82C
S31508001BE06078442818D055281FD104200AF09AFA9C
S31508001BF0EDB2002D0AD0DFF884150BA803F020FA01
S31508001C000BA803F0F3F90BA904F0B6FBDFF8DC1D0B
S31508001C100BA803F015FA0DE004200AF091FADFF894
S31508001C20D01D0BA803F00CFA04E0DFF8C81D0BA8BA
S31508001C3003F006FA03F035B84CC001089DF82800F1
S31508001C40022819DAEDB2002D0AD0DFF830150BA8F4
S31508001C5003F0F6F90BA803F0C9F90BA904F08CFBFD
S31508001C60DFF8081E0BA803F0EBF903F008B800BF6D
S31508001C7048C7010884A201086078422802F06586F0
S31508001C80432800F0F382442802F01D82462802F019
S31508001C901186492813D04B2802F050824C2802F0AE
S31508001CA021864D2802F0DC85522802F02B82532823
S31508001CB002F07686552802F0698502F0CFBF9DF8B6
S31508001CC02800092813DAEDB2002D0AD0DFF8AC1483
S31508001CD00BA803F0B5F90BA803F088F90BA904F0D3
S31508001CE04BFBDFF8001E0BA803F0AAF9B3E2A078B5
S31508001CF0512800F00482C0F0A982532802D0C0F00F
S31508001D00D580A3E2E0783A2802D1A0792E281BD004
S31508001D10EDB2002D0AD0DFF864140BA803F090F991
S31508001D200BA803F063F90BA904F026FBDFF82C1EB9
S31508001D300BA803F085F9B8E0A8B0010864C7010844
S31508001D40CCB0010860D50108EDB2002D0AD0DFF845
S31508001D502C140BA803F074F90BA803F047F90BA988
S31508001D6004F00AFB94F904008DF8AC0094F9050018
S31508001D708DF8AD0000208DF8AE002BA803F03EF8D4
S31508001D80002805D1DFF8D81D0BA803F059F98CE017
S31508001D902BA803F058F8319094F907008DF8AC0099
S31508001DA094F908008DF8AD0000208DF8AE002BA838
S31508001DB003F024F8002805D1DFF8A81D0BA803F0C6
S31508001DC03FF972E02BA803F03EF8349034980028C7
S31508001DD014D1319ADFF8901D0BA804F019FF3BE0E7
S31508001DE00D0A0000F0B001082CCA01086CC00108F1
S31508001DF074D501088CC0010888D5010800203590E3
S31508001E00002007003498874226DA032000FB07F0F3
S31508001E10204490F90A008DF8AC00032000FB07F077
S31508001E20204490F90B008DF8AD0000208DF8AE0027
S31508001E302BA802F0E3FF002807D1DFF8241D0BA822
S31508001E4003F0FEF80120359006E02BA802F0FBFF10
S31508001E509AA9C8557F1CD5E73598002805D1319A27
S31508001E60DFF8EC1D0BA804F0D3FE00200700349819
S31508001E7087420BDA9AA8C25DC1A12BA804F0C8FE56
S31508001E802BA90BA804F0DEFE7F1CF0E7BDA10BA86A
S31508001E9004F0D8FE4FF4FA733498020092B29AA965
S31508001EA0319880B20AF06BFA0600D4E1E0783A2855
S31508001EB005D1A0792E2802D1607A2E2812D0EDB24B
S31508001EC0002D09D0AD490BA803F0BAF80BA803F00A
S31508001ED08DF80BA904F050FADFF8EC1D0BA803F0F7
S31508001EE0AFF80BE1EDB2002D09D0A4490BA803F019
S31508001EF0A7F80BA803F07AF80BA904F03DFA94F9B1
S31508001F0004008DF8AC0094F905008DF8AD000020AA
S31508001F108DF8AE002BA802F071FF002805D1DFF876
S31508001F20201E0BA803F08CF8E8E02BA802F08BFF24
S31508001F30319094F907008DF8AC0094F908008DF8F3
S31508001F40AD0000208DF8AE002BA802F057FF002840
S31508001F5005D1DFF8F01D0BA803F072F8CEE02BA828
S31508001F6002F071FF349094F90A008DF8AC0094F9E8
S31508001F700B008DF8AD0000208DF8AE002BA802F0FE
S31508001F803DFF00280AD1DFF8341E0BA803F058F8E5
S31508001F90B4E000BFACC0010844CA01082BA802F08F
S31508001FA052FF3A903498002806D1319ADFF8101E6D
S31508001FB00BA804F02DFE38E000203590002007001D
S31508001FC03498874231DA032000FB07F0204490F961
S31508001FD00D008DF8AC00032000FB07F0204490F9B3
S31508001FE00E008DF8AD0000208DF8AE002BA802F08B
S31508001FF005FF002812D1DFF8401E0BA803F020F8D1
S315080020000120359011E000BF5CCA010814B101082F
S31508002010CCC0010874CA0108B0A201082BA802F0B6
S3150800202012FF9AA9C8557F1CCAE73598002805D11A
S31508002030319ADFF8081E0BA804F0EAFD0020070015
S31508002040349887420BDA9AA8C25D4DA12BA804F0F2
S31508002050DFFD2BA90BA804F0F5FD7F1CF0E749A1CD
S315080020600BA804F0EFFD4FF4FA733498020092B20D
S315080020709AA9319880B20AF082F90600F6B2002EC3
S315080020800ED14FF4FA733A98020092B29AA931988F
S3150800209080B20AF0BFF90600F6B2002E05D100E0BC
S315080020A0D9E014200AF0F1F90600F6B2002E25D17F
S315080020B00BA9002003F0A2FC0600F6B2002E03D0FE
S315080020C03000C0B202F071BEDFF8E81D0BA804F0BC
S315080020D09FFD002007003A9887420BDA9AA8C25D4E
S315080020E027A12BA804F094FD2BA90BA804F0AAFDA0
S315080020F07F1CF0E723A10BA804F0A4FDABE0E07871
S315080021003A2802D1A0792E2812D0EDB2002D09D096
S315080021101A490BA802F094FF0BA802F067FF0BA957
S3150800212004F02AF9DFF8041E0BA802F089FF8CE0F8
S31508002130EDB2002D09D011490BA802F081FF0BA8BA
S3150800214002F054FF0BA904F017F994F904008DF86E
S31508002150AC0094F905008DF8AD0000208DF8AE00AE
S315080021602BA802F04BFE00280ED1DFF8C41D0BA8E1
S3150800217002F066FF69E000BF34D70108ECBF01082A
S3150800218025782E000D0A00002BA802F05CFE31907F
S3150800219094F907008DF8AC0094F908008DF8AD00A5
S315080021A000208DF8AE002BA802F028FE002805D1E5
S315080021B0DFF81C1E0BA802F043FF46E02BA802F02E
S315080021C042FE3A90319ADFF8F81B0BA804F020FD7E
S315080021D04FF4FA733A98020092B29AA9319880B2EB
S315080021E00AF018F90600F6B2002E07D114200AF0F4
S315080021F04CF90600F6B2002E27D100E02BE00BA919
S31508002200002003F0FBFB0600F6B2002E03D03000D8
S31508002210C0B202F0CABDDFF89C1C0BA804F0F8FC9B
S31508002220002007003A9887420BDA9AA8C25DD3A124
S315080022302BA804F0EDFC2BA90BA804F003FD7F1CCA
S31508002240F0E7CFA10BA804F0FDFC04E0DFF898172F
S315080022500BA802F0F5FE02F012BD00BFB0A00108FF
S315080022608CCA01089CD5010838D50108002006004B
S315080022709DF82800022840F0E980052006F038FA83
S31508002280002804D05BA807F09BFA06000BE006209E
S3150800229006F02EFA002804D05BA806F0C2FB06005A
S315080022A001E001200600F6B2002E40F0B5803CA8F9
S315080022B009F070FB0600F6B2002E40F0958049A89A
S315080022C008F05DFD0600F6B2002E74D1AEA804F043
S315080022D0F1FC0600F6B2002E58D1EDB2002D25D03D
S315080022E0AEA8099049A808903CA807905BA8069054
S315080022F08BA8059085A804907FA8039079A80290DA
S3150800230073A801906DA8009067AB61AADFF8841DD9
S315080023100BA804F07DFCDFF8801D0BA802F090FEE8
S315080023200BA802F063FE0BA904F026F8AEA80990E4
S3150800233049A808903CA807905BA806908BA805902A
S3150800234085A804907FA8039079A8029073A80190A5
S315080023506DA8009067AB61AADFF8401D0BA804F0D2
S3150800236057FC0BA9002003F049FB0600F6B2002E25
S3150800237003D03000C0B202F018BDDFF8341E0BA837
S3150800238004F046FC01F09DBE0CC00108EDB2002D1C
S315080023900AD0DFF8201E0BA802F052FE0BA802F0A6
S315080023A025FE0BA903F0E8FFDFF80C1E0BA804F0C6
S315080023B02FFC01F086BEEDB2002D0AD0DFF8FC1D19
S315080023C00BA802F03DFE0BA802F010FE0BA903F0C5
S315080023D0D3FFDFF8EC1D0BA804F01AFC01F071BE60
S315080023E0DCA20108D4A80108EDB2002D0AD0DFF856
S315080023F0D41D0BA802F024FE0BA802F0F7FD0BA9CA
S3150800240003F0BAFFDFF8C01D0BA804F001FC01F0C9
S3150800241058BE00BF80C70108EDB2002D0AD0DFF80C
S31508002420401E0BA802F00CFE0BA802F0DFFD0BA95C
S3150800243003F0A2FFDFF82C1E0BA804F0E9FB01F05D
S3150800244040BE00BFB49C010844D70108A0784928BB
S3150800245001F00A86522800F0E785532804D054284C
S3150800246001F09D8501F02DBEE0783A281AD0EDB22C
S31508002470002D0AD0DFF8F01D0BA802F0E1FD0BA82D
S3150800248002F0B4FD0BA903F077FFDFF8E01D0BA8F7
S3150800249002F0D6FD00F0C6BD08A3010800D9010860
S315080024A00CD901089DF82800052819DAEDB2002D87
S315080024B00AD0DFF8501E0BA802F0C2FD0BA802F0E6
S315080024C095FD0BA903F058FFDFF83C1E0BA802F098
S315080024D0B7FD00F0A7BD00BF18D90108F49401089C
S315080024E0201D3090309952A802F0AAFD00202A90AB
S315080024F00020299029A800902AAB36AADFF80C1EDE
S3150800250052A80AF009F9032840F07A8529980AF0B2
S3150800251015F9CDE902012A980AF010F9CDE900016A
S3150800252036AADFF8EC1D0BA804F072FB0422DFF8CC
S31508002530E41D36A80AF029F900283AD12A9A2999D9
S3150800254000200AF09FF90600F6B2002E1CD1EDB263
S31508002550002D0AD0DFF8541E0BA802F071FD0BA857
S3150800256002F044FD0BA903F007FFDFF8441E0BA891
S3150800257004F04EFB00F041BDA096010825782E0018
S315080025800D0A00003C950108EDB2002D0AD0DFF8CF
S31508002590241E0BA802F054FD0BA802F027FD0BA978
S315080025A003F0EAFEDFF8101E0BA804F031FB00F07A
S315080025B024BD0422DFF8041E36A80AF0E6F800282F
S315080025C037D12A9A299901200AF05CF90600F6B251
S315080025D0002E19D1EDB2002D0AD0DFF8E41D0BA8A4
S315080025E002F02EFD0BA802F001FD0BA903F0C4FEB4
S315080025F0DFF8641E0BA804F00BFB00F0FEBC00BF5E
S3150800260028980108E49A0108EDB2002D0AD0DFF8EF
S315080026104C1E0BA802F014FD0BA802F0E7FC0BA950
S3150800262003F0AAFEDFF8901D0BA804F0F1FA00F0FB
S31508002630E4BC0422DFF8281E36A80AF0A6F800280B
S3150800264039D12A9A299902200AF01CF90600F6B20D
S31508002650002E1BD1EDB2002D0AD0DFF8081E0BA8FC
S3150800266002F0EEFC0BA802F0C1FC0BA903F084FEF5
S31508002670DFF8F41D0BA804F0CBFA00F0BEBC00BFCF
S31508002680209B01085C9B0108EC9C0108EDB2002D1B
S315080026900AD0DFF86C1E0BA802F0D2FC0BA802F0D9
S315080026A0A5FC0BA903F068FEDFF80C1D0BA804F0C7
S315080026B0AFFA00F0A2BC0422DFF8481E36A80AF0DA
S315080026C064F8002839D12A9A299903200AF0DAF8F9
S315080026D00600F6B2002E1BD1EDB2002D0AD0DFF8A7
S315080026E0281E0BA802F0ACFC0BA802F07FFC0BA975
S315080026F003F042FEDFF8141E0BA804F089FA00F076
S315080027007CBC00BF68980108A8980108E8980108E9
S31508002710EDB2002D0AD0DFF8F81D0BA802F090FCE8
S315080027200BA802F063FC0BA903F026FEDFF8881C51
S315080027300BA804F06DFA00F060BC0422DFF8681EEE
S3150800274036A80AF022F8002839D12A9A29990420AD
S315080027500AF098F80600F6B2002E1BD1EDB2002D4D
S315080027600AD0DFF8481E0BA802F06AFC0BA802F094
S315080027703DFC0BA903F000FEDFF8341E0BA804F09D
S3150800278047FA00F03ABC00BF289901086899010881
S31508002790E4960108EDB2002D0AD0DFF8181E0BA842
S315080027A002F04EFC0BA802F021FC0BA903F0E4FD95
S315080027B0DFF8041C0BA804F02BFA00F01EBC042258
S315080027C0DFF8F41D36A809F0E0FF002831D12A9A6F
S315080027D0299905200AF056F80600F6B2002E14D1FB
S315080027E0EDB2002D0AD0DFF8681E0BA802F028FC0F
S315080027F00BA802F0FBFB0BA903F0BEFDDFF8541E85
S315080028000BA804F005FA00F0F8BBEDB2002D0AD0CB
S31508002810DFF8441E0BA802F013FC0BA802F0E6FB37
S315080028200BA903F0A9FDDFF8901B0BA804F0F0F93B
S31508002830E3E30422DFF8241E36A809F0A6FF0028E1
S3150800284030D12A9A299906200AF01CF80600F6B211
S31508002850002E13D1EDB2002D0AD0DFF8041E0BA806
S3150800286002F0EEFB0BA802F0C1FB0BA903F084FDF6
S31508002870DFF8841E0BA804F0CBF9BEE3EDB2002DF9
S315080028800AD0DFF8781E0BA802F0DAFB0BA802F0D4
S31508002890ADFB0BA903F070FDDFF81C1B0BA804F0B9
S315080028A0B7F9AAE30422DFF8581E36A809F06DFF27
S315080028B0002835D12A9A2999072009F0E3FF06004E
S315080028C0F6B2002E18D1EDB2002D0AD0DFF8341E6C
S315080028D00BA802F0B5FB0BA802F088FB0BA903F0C6
S315080028E04BFDDFF8241E0BA804F092F985E300BF20
S315080028F0ECC0010838DB0108EDB2002D0AD0DFF87C
S315080029009C1E0BA802F09CFB0BA802F06FFB0BA900
S3150800291003F032FDDFF8A01A0BA804F079F96CE38E
S315080029200422DFF87C1E36A809F02FFF002835D1CF
S315080029302A9A2999082009F0A5FF0600F6B2002E62
S3150800294018D1EDB2002D0AD0DFF8581E0BA802F0F8
S3150800295077FB0BA802F04AFB0BA903F00DFDDFF885
S31508002960481E0BA804F054F947E300BFFC9D010874
S3150800297038B10108EDB2002D0AD0DFF8301E0BA8D9
S3150800298002F05EFB0BA802F031FB0BA903F0F4FC86
S31508002990DFF8241A0BA804F03BF92EE30422DFF82B
S315080029A0A01E36A809F0F1FE002839D12A9A2999DD
S315080029B0092009F067FF0600F6B2002E1CD1EDB219
S315080029C0002D0AD0DFF87C1E0BA802F039FB0BA8F5
S315080029D002F00CFB0BA903F0CFFCDFF86C1E0BA86A
S315080029E004F016F909E300BF2CC001080CC1010860
S315080029F02CC1010834A30108EDB2002D0AD0DFF876
S31508002A004C1E0BA802F01CFB0BA802F0EFFA0BA950
S31508002A1003F0B2FCDFF8A0190BA804F0F9F8ECE211
S31508002A200422DFF82C1E36A809F0AFFE002833D1A1
S31508002A302A9A29990A2009F025FF0600F6B2002EDF
S31508002A4016D1EDB2002D0AD0DFF8981E0BA802F0B9
S31508002A50F7FA0BA802F0CAFA0BA903F08DFCDFF807
S31508002A60881E0BA804F0D4F8C7E200BF4CC10108C1
S31508002A70EDB2002D0AD0DFF8741E0BA802F0E0FABA
S31508002A800BA802F0B3FA0BA903F076FCDFF82819B5
S31508002A900BA804F0BDF8B0E20422DFF8541E36A8ED
S31508002AA009F073FE002833D12A9A29990B2009F0D8
S31508002AB0E9FE0600F6B2002E16D1EDB2002D0AD0B8
S31508002AC0DFF8301E0BA802F0BBFA0BA802F08EFA4C
S31508002AD00BA903F051FCDFF8B01E0BA804F098F818
S31508002AE08BE200BFFCA80108EDB2002D0AD0DFF882
S31508002AF09C1E0BA802F0A4FA0BA802F077FA0BA901
S31508002B0003F03AFCDFF8B0180BA804F081F874E279
S31508002B100422DFF87C1E36A809F037FE002839D1D2
S31508002B202A9A29990C2009F0ADFE0600F6B2002E65
S31508002B301CD1EDB2002D0AD0DFF8581E0BA802F002
S31508002B407FFA0BA802F052FA0BA903F015FCDFF87E
S31508002B50481E0BA804F05CF84FE200BF24A9010840
S31508002B6060A30108309E0108A4CA0108EDB2002D31
S31508002B700AD0DFF8B81E0BA802F062FA0BA802F01A
S31508002B8035FA0BA903F0F8FBDFF82C180BA804F0AC
S31508002B903FF832E20422DFF8981E36A809F0F5FD60
S31508002BA0002830D12A9A29990D2009F06BFE0600D3
S31508002BB0F6B2002E13D1EDB2002D0AD0DFF8741E3E
S31508002BC00BA802F03DFA0BA802F010FA0BA903F0C5
S31508002BD0D3FBDFF8641E0BA804F01AF80DE2EDB279
S31508002BE0002D0AD0DFF8541E0BA802F029FA0BA80C
S31508002BF002F0FCF90BA903F0BFFBDFF8BC170BA822
S31508002C0004F006F8F9E10422DFF8C41E36A809F034
S31508002C10BCFD002832D12A9A29990E2009F032FEE5
S31508002C200600F6B2002E15D1EDB2002D0AD0DFF857
S31508002C30A41E0BA802F004FA0BA802F0D7F90BA9F8
S31508002C4003F09AFBDFF8901E0BA803F0E1FFD4E12E
S31508002C50B0D50108EDB2002D0AD0DFF8801E0BA80A
S31508002C6002F0EEF90BA802F0C1F90BA903F084FBF8
S31508002C70DFF844170BA803F0CBFFBEE10422DFF808
S31508002C80601E36A809F081FD002833D12A9A2999B1
S31508002C900F2009F0F7FD0600F6B2002E16D1EDB2A8
S31508002CA0002D0AD0DFF8CC1E0BA802F0C9F90BA834
S31508002CB002F09CF90BA903F05FFBDFF8BC1E0BA81A
S31508002CC003F0A6FF99E100BF4CA90108EDB2002D5B
S31508002CD00AD0DFF8A81E0BA802F0B2F90BA802F07A
S31508002CE085F90BA903F048FBDFF8CC160BA803F00F
S31508002CF08FFF82E10422DFF8881E36A809F045FD19
S31508002D00002835D12A9A2999102009F0BBFD06001A
S31508002D10F6B2002E18D1EDB2002D0AD0DFF8641EE7
S31508002D200BA802F08DF90BA802F060F90BA903F0C5
S31508002D3023FBDFF8541E0BA803F06AFF5DE100BF12
S31508002D408CA30108649E0108EDB2002D0AD0DFF8B5
S31508002D50CC1E0BA802F074F90BA802F047F90BA9D0
S31508002D6003F00AFBDFF850160BA803F051FF44E105
S31508002D700422DFF8AC1E36A809F007FD002835D175
S31508002D802A9A2999112009F07DFD0600F6B2002E2F
S31508002D9018D1EDB2002D0AD0DFF8881E0BA802F074
S31508002DA04FF90BA802F022F90BA903F0E5FADFF8B0
S31508002DB0781E0BA803F02CFF1FE100BF989B0108A3
S31508002DC0BCCA0108EDB2002D0AD0DFF8601E0BA8B8
S31508002DD002F036F90BA802F009F90BA903F0CCFAB0
S31508002DE0DFF8D4150BA803F013FF06E10422DFF879
S31508002DF0D01E36A809F0C9FC002835D12A9A299987
S31508002E00122009F03FFD0600F6B2002E18D1EDB2E9
S31508002E10002D0AD0DFF8AC1E0BA802F011F90BA89A
S31508002E2002F0E4F80BA903F0A7FADFF89C1E0BA83A
S31508002E3003F0EEFEE1E000BF74A90108C4D501085D
S31508002E40EDB2002D0AD0DFF8841E0BA802F0F8F8C0
S31508002E500BA802F0CBF80BA903F08EFADFF8581589
S31508002E600BA803F0D5FEC8E00422DFF8641E36A8D6
S31508002E7009F08BFC002833D12A9A2999132009F0E6
S31508002E8001FD0600F6B2002E16D1EDB2002D0AD0CD
S31508002E90DFF8D01E0BA802F0D3F80BA802F0A6F8AC
S31508002EA00BA903F069FADFF8C01E0BA803F0B0FE01
S31508002EB0A3E000BF24D90108EDB2002D0AD0DFF83F
S31508002EC0AC1E0BA802F0BCF80BA802F08FF80BA9F1
S31508002ED003F052FADFF8E0140BA803F099FE8CE031
S31508002EE00422DFF88C1E36A809F04FFC002835D1DD
S31508002EF02A9A2999142009F0C5FC0600F6B2002E74
S31508002F0018D1EDB2002D0AD0DFF8F81E0BA802F092
S31508002F1097F80BA802F06AF80BA903F02DFADFF868
S31508002F20E81E0BA803F074FE67E000BF9CA9010821
S31508002F30B8A30108EDB2002D0AD0DFF8D01E0BA801
S31508002F4002F07EF80BA802F051F80BA903F014FA68
S31508002F50DFF864140BA803F05BFE4EE00422DFF8EA
S31508002F60B01E36A809F011FC002833D12A9A2999EF
S31508002F70152009F087FC0600F6B2002E13D1EDB233
S31508002F80002D0AD0DFF88C1E0BA802F059F80BA802
S31508002F9002F02CF80BA903F0EFF9DFF87C1E0BA85A
S31508002FA003F036FE29E0EDB2002D0AD0DFF8FC1E4C
S31508002FB00BA802F045F80BA802F018F80BA903F0C5
S31508002FC0DBF9DFF8F4130BA803F022FE15E000BFC7
S31508002FD0989E0108EDB2002D0AD0DFF8D41E0BA882
S31508002FE002F02EF80BA802F001F80BA903F0C4F9B9
S31508002FF0DFF8C01E0BA803F00BFE0020060011E048
S31508003000EDB2002D09D0BF490BA802F019F80BA89C
S3150800301001F0ECFF0BA903F0AFF9DFF89C1E0BA833
S3150800302002F00EF801F04DB8EDB2002D0DD009F002
S315080030305BFC0200DFF8841E0BA803F0E9FD0BA871
S3150800304001F0D4FF0BA903F097F909F04DFC020033
S31508003050DFF8141F0BA803F0DBFD0BA9002002F014
S31508003060CDFC0600F6B2002E03D03000C0B201F047
S315080030709CBEDFF8F81E0BA803F0CAFD0BA90020BA
S3150800308002F0BCFC0600F6B2002E09D03000C0B231
S3150800309001F08BBEA8990108ECBF0108C4A9010874
S315080030A000200700162F80F26687002F36D0022FE1
S315080030B000F0DE80C0F08A80042F00F08381C0F023
S315080030C02B81062F00F02682C0F0D081082F00F051
S315080030D0C982C0F073820A2F00F06A83C0F0168393
S315080030E00C2F00F00984C0F0B5830E2F00F0A884D9
S315080030F0C0F05484102F00F04985C0F0F384122FD5
S3150800310000F0E885C0F09485142F00F08786C0F09B
S315080031103186152F00F0D48600F019BFEDB2002DC8
S3150800312024D03800C0B209F0CEFB83463800C0B2BE
S3150800313009F0CFFB81463800C0B209F0D0FB8246C1
S31508003140584609F0FBFACDE90201484609F0F6FAB5
S31508003150CDE900015246DFF8E41E0BA803F058FD3E
S315080031600BA801F043FF0BA903F006F93800C0B21B
S3150800317009F0A9FB83463800C0B209F0AAFB8146CC
S315080031803800C0B209F0ABFB8246584609F0D6FAB9
S31508003190CDE90201484609F0D1FACDE900015246C7
S315080031A0DFF8F41E0BA803F033FD00F0D0BE00BF15
S315080031B030D90108ECA90108D4CA010814AA0108E3
S315080031C0ECCA0108E4A301085CB10108EDB2002DC0
S315080031D024D03800C0B209F076FB83463800C0B266
S315080031E009F077FB81463800C0B209F078FB8246C1
S315080031F0584609F0A3FACDE90201484609F09EFAB5
S31508003200CDE900015246DFF8F81E0BA803F000FDD1
S315080032100BA801F0EBFE0BA903F0AEF83800C0B21C
S3150800322009F051FB83463800C0B209F052FB8146CB
S315080032303800C0B209F053FB8246584609F07EFAB8
S31508003240CDE90201484609F079FACDE9000152466E
S31508003250DFF8E41E0BA803F0DBFC00F078BE00BF25
S315080032603CAA010880B101086CC1010864AA0108DA
S31508003270EDB2002D24D03800C0B209F024FB8346F5
S315080032803800C0B209F025FB81463800C0B209F003
S3150800329026FB8246584609F051FACDE9020148460E
S315080032A009F04CFACDE900015246DFF8C41E0BA816
S315080032B003F0AEFC0BA801F099FE0BA903F05CF82D
S315080032C03800C0B209F0FFFA83463800C0B209F0E8
S315080032D000FB81463800C0B209F001FB8246584619
S315080032E009F02CFACDE90201484609F027FACDE99A
S315080032F000015246DFF8D41E0BA803F089FC00F043
S3150800330026BE00BFA4B10108C8B101083CD901080E
S3150800331004CB010840DB0108EDB2002D24D03800AB
S31508003320C0B209F0D0FA83463800C0B209F0D1FA23
S3150800333081463800C0B209F0D2FA8246584609F0EA
S31508003340FDF9CDE90201484609F0F8F9CDE9000191
S315080033505246DFF87C1E0BA803F05AFC0BA801F0B6
S3150800336045FE0BA903F008F83800C0B209F0ABFA1D
S3150800337083463800C0B209F0ACFA81463800C0B2BC
S3150800338009F0ADFA8246584609F0D8F9CDE90201A6
S31508003390484609F0D3F9CDE900015246DFF8DC1EAC
S315080033A00BA803F035FC00F0D2BD00BFECB1010854
S315080033B09CC701088CAA0108B8C7010848DB0108A0
S315080033C08CC10108EDB2002D24D03800C0B209F036
S315080033D07AFA83463800C0B209F07BFA814638008B
S315080033E0C0B209F07CFA8246584609F0A7F9CDE939
S315080033F00201484609F0A2F9CDE900015246DFF874
S31508003400801E0BA803F004FC0BA801F0EFFD0BA926
S3150800341002F0B2FF3800C0B209F055FA8346380008
S31508003420C0B209F056FA81463800C0B209F057FA18
S315080034308246584609F082F9CDE90201484609F064
S315080034407DF9CDE900015246DFF8941E0BA803F07A
S31508003450DFFB00F07CBD00BF1CCB010810B20108E1
S3150800346050DB0108ACC10108D8D50108EDB2002D22
S3150800347024D03800C0B209F026FA83463800C0B214
S3150800348009F027FA81463800C0B209F028FA8246C0
S31508003490584609F053F9CDE90201484609F04EF9B4
S315080034A0CDE900015246DFF83C1E0BA803F0B0FB3D
S315080034B00BA801F09BFD0BA902F05EFF3800C0B215
S315080034C009F001FA83463800C0B209F002FA8146CB
S315080034D03800C0B209F003FA8246584609F02EF9B8
S315080034E0CDE90201484609F029F9CDE9000152461D
S315080034F0DFF8F41D0BA803F08BFB00F028BD00BF16
S3150800350034B2010858DB0108CCC1010834CB0108E4
S3150800351058B20108EDB2002D24D03800C0B209F027
S31508003520D2F983463800C0B209F0D3F9814638008B
S31508003530C0B209F0D4F98246584609F0FFF8CDE939
S315080035400201484609F0FAF8CDE900015246DFF8CB
S31508003550A01E0BA803F05CFB0BA801F047FD0BA906
S3150800356002F00AFF3800C0B209F0ADF98346380008
S31508003570C0B209F0AEF981463800C0B209F0AFF919
S315080035808246584609F0DAF8CDE90201484609F0BC
S31508003590D5F8CDE900015246DFF8581E0BA803F00E
S315080035A037FB00F0D4BC00BF60DB0108ECC10108A2
S315080035B0ECD501087CB2010868DB0108EDB2002DE4
S315080035C024D03800C0B209F07EF983463800C0B26C
S315080035D009F07FF981463800C0B209F080F98246C1
S315080035E0584609F0ABF8CDE90201484609F0A6F8B5
S315080035F0CDE900015246DFF85C1E0BA803F008FB74
S315080036000BA801F0F3FC0BA902F0B6FE3800C0B215
S3150800361009F059F983463800C0B209F05AF98146CB
S315080036203800C0B209F05BF98246584609F086F8B8
S31508003630CDE90201484609F081F8CDE90001524674
S31508003640DFF8601E0BA803F0E3FA00F080BC00BFA9
S315080036500CC2010800D60108A0B2010870DB0108F7
S31508003660C4B20108EDB2002D24D03800C0B209F06A
S315080036702AF983463800C0B209F02BF9814638008A
S31508003680C0B209F02CF98246584609F057F8CDE938
S315080036900201484609F052F8CDE900015246DFF822
S315080036A0641E0BA803F0B4FA0BA801F09FFC0BA943
S315080036B002F062FE3800C0B209F005F98346380008
S315080036C0C0B209F006F981463800C0B209F007F918
S315080036D08246584609F032F8CDE90201484609F013
S315080036E02DF8CDE900015246DFF81C1E0BA803F0A1
S315080036F08FFA00F02CBC00BF4CCB0108B4AA010815
S3150800370078DB0108E8B2010864CB0108EDB2002DA8
S3150800371024D03800C0B209F0D6F883463800C0B2C3
S3150800372009F0D7F881463800C0B209F0D8F88246C1
S31508003730584609F003F8CDE90201484608F0FEFFAD
S31508003740CDE900015246DFF86C1E0BA803F060FABB
S315080037500BA801F04BFC0BA902F00EFE3800C0B214
S3150800376009F0B1F883463800C0B209F0B2F88146CC
S315080037703800C0B209F0B3F88246584608F0DEFFB2
S31508003780CDE90201484608F0D9FFCDE900015246C5
S31508003790DFF8601E0BA803F03BFAD8E3DCAA0108A1
S315080037A080DB01080CB301087CCB010804AB0108D7
S315080037B0EDB2002D24D03800C0B209F084F8834653
S315080037C03800C0B209F085F881463800C0B209F061
S315080037D086F88246584608F0B1FFCDE90201484608
S315080037E008F0ACFFCDE900015246DFF80C1E0BA825
S315080037F003F00EFA0BA801F0F9FB0BA902F0BCFDC9
S315080038003800C0B209F05FF883463800C0B209F044
S3150800381060F881463800C0B209F061F88246584619
S3150800382008F08CFFCDE90201484608F087FFCDE98C
S3150800383000015246DFF8341E0BA803F0E9F986E3C7
S3150800384088DB010830B3010894CB01082CAB0108CA
S3150800385090DB0108EDB2002D24D03800C0B209F083
S3150800386032F883463800C0B209F033F8814638008A
S31508003870C0B209F034F88246584608F05FFFCDE931
S315080038800201484608F05AFFCDE900015246DFF822
S31508003890381E0BA803F0BCF90BA801F0A7FB0BA96F
S315080038A002F06AFD3800C0B209F00DF88346380008
S315080038B0C0B209F00EF881463800C0B209F00FF818
S315080038C08246584608F03AFFCDE90201484608F014
S315080038D035FFCDE900015246DFF8581E0BA803F064
S315080038E097F934E32CC20108ACCB010854B301089C
S315080038F098DB010878B30108EDB2002D24D0380012
S31508003900C0B208F0E0FF83463800C0B208F0E1FF15
S3150800391081463800C0B208F0E2FF8246584608F0F1
S315080039200DFFCDE90201484608F008FFCDE9000180
S315080039305246DFF82C1E0BA803F06AF90BA801F013
S3150800394055FB0BA902F018FD3800C0B208F0BBFF02
S3150800395083463800C0B208F0BCFF81463800C0B2C2
S3150800396008F0BDFF8246584608F0E8FECDE9020198
S31508003970484608F0E3FECDE900015246DFF8401E4E
S315080039800BA803F045F9E2E2C4CB010854AB0108E1
S31508003990A0DB01089CB30108DCCB0108EDB2002DC1
S315080039A024D03800C0B208F08EFF83463800C0B273
S315080039B008F08FFF81463800C0B208F090FF8246B3
S315080039C0584608F0BBFECDE90201484608F0B6FEA7
S315080039D0CDE900015246DFF8281E0BA803F018F9B6
S315080039E00BA801F003FB0BA902F0C6FC3800C0B215
S315080039F008F069FF83463800C0B208F06AFF8146BE
S31508003A003800C0B208F06BFF8246584608F096FEAA
S31508003A10CDE90201484608F091FECDE9000152467B
S31508003A20DFF8381E0BA803F0F3F890E27CAB010828
S31508003A30A8DB01084CC20108F4CB0108C0B3010891
S31508003A40EDB2002D24D03800C0B208F03CFF834602
S31508003A503800C0B208F03DFF81463800C0B208F011
S31508003A603EFF8246584608F069FECDE902014846FF
S31508003A7008F064FECDE900015246DFF8341E0BA8B3
S31508003A8003F0C6F80BA801F0B1FA0BA902F074FC12
S31508003A903800C0B208F017FF83463800C0B208F0F5
S31508003AA018FF81463800C0B208F019FF824658460A
S31508003AB008F044FECDE90201484608F03FFECDE98C
S31508003AC000015246DFF8181E0BA803F0A1F83EE2E3
S31508003AD0B0DB0108E4B301080CCC0108A4AB01086B
S31508003AE0B8DB0108EDB2002D24D03800C0B208F0CA
S31508003AF0EAFE83463800C0B208F0EBFE814638007D
S31508003B00C0B208F0ECFE8246584608F017FECDE92A
S31508003B100201484608F012FECDE900015246DFF8D8
S31508003B20241E0BA803F074F80BA801F05FFA0BA982
S31508003B3002F022FC3800C0B208F0C5FE8346380001
S31508003B40C0B208F0C6FE81463800C0B208F0C7FE0B
S31508003B508246584608F0F2FDCDE90201484608F0CB
S31508003B60EDFDCDE900015246DFF82C1E0BA803F047
S31508003B704FF8ECE108B4010824CC0108CCAB0108E5
S31508003B80C0DB01082CB401083CCC0108EDB2002DBD
S31508003B9024D03800C0B208F096FE83463800C0B27A
S31508003BA008F097FE81463800C0B208F098FE8246B3
S31508003BB0584608F0C3FDCDE90201484608F0BEFDA7
S31508003BC0CDE900015246DFF8D41D0BA803F020F812
S31508003BD00BA801F00BFA0BA902F0CEFB3800C0B215
S31508003BE008F071FE83463800C0B208F072FE8146BE
S31508003BF03800C0B208F073FE8246584608F09EFDAB
S31508003C00CDE90201484608F099FDCDE90001524682
S31508003C10DFF8EC1D0BA802F0FBFF98E1F4AB0108F6
S31508003C20C8DB010850B4010854CC01081CAC0108D3
S31508003C30EDB2002D24D03800C0B208F044FE834609
S31508003C403800C0B208F045FE81463800C0B208F018
S31508003C5046FE8246584608F071FDCDE902014846FF
S31508003C6008F06CFDCDE900015246DFF8041E0BA8EA
S31508003C7002F0CEFF0BA801F0B9F90BA902F07CFB04
S31508003C803800C0B208F01FFE83463800C0B208F0FC
S31508003C9020FE81463800C0B208F021FE824658460A
S31508003CA008F04CFDCDE90201484608F047FDCDE98C
S31508003CB000015246DFF8E01D0BA802F0A9FF46E115
S31508003CC0D0DB010874B401086CCC010844AC0108C7
S31508003CD0D8DB0108EDB2002D24D03800C0B208F0B8
S31508003CE0F2FD83463800C0B208F0F3FD814638007D
S31508003CF0C0B208F0F4FD8246584608F01FFDCDE92B
S31508003D000201484608F01AFDCDE900015246DFF8DF
S31508003D10D81D0BA802F07CFF0BA801F067F90BA9C8
S31508003D2002F02AFB3800C0B208F0CDFD8346380001
S31508003D30C0B208F0CEFD81463800C0B208F0CFFD0B
S31508003D408246584608F0FAFCCDE90201484608F0D2
S31508003D50F5FCCDE900015246DFF8CC1D0BA802F0B0
S31508003D6057FFF4E098B4010884CC01086CAC01084C
S31508003D70E0DB0108EDB2002D24D03800C0B208F00F
S31508003D80A2FD83463800C0B208F0A3FD814638007C
S31508003D90C0B208F0A4FD8246584608F0CFFCCDE92B
S31508003DA00201484608F0CAFCCDE900015246DFF890
S31508003DB0B41D0BA802F02CFF0BA801F017F90BA9EC
S31508003DC002F0DAFA3800C0B208F07DFD8346380002
S31508003DD0C0B208F07EFD81463800C0B208F07FFD0B
S31508003DE08246584608F0AAFCCDE90201484608F082
S31508003DF0A5FCCDE900015246DFF86C1D0BA802F0C0
S31508003E0007FFA4E0BCB401089CCC010894AC0108E7
S31508003E10E8DB0108E0B40108B4CC0108EDB2002DD6
S31508003E2024D03800C0B208F04EFD83463800C0B230
S31508003E3008F04FFD81463800C0B208F050FD8246B2
S31508003E40584608F07BFCCDE90201484608F076FCA6
S31508003E50CDE900015246DFF8741D0BA802F0D8FE22
S31508003E600BA801F0C3F80BA902F086FA3800C0B215
S31508003E7008F029FD83463800C0B208F02AFD8146BD
S31508003E803800C0B208F02BFD8246584608F056FCAA
S31508003E90CDE90201484608F051FCCDE90001524639
S31508003EA0DFF8B01D0BA802F0B3FE50E0BCAC010869
S31508003EB004B501086CC20108E0A0010854D701083E
S31508003EC0EDB2002D24D03800C0B208F0FCFC8346C1
S31508003ED03800C0B208F0FDFC81463800C0B208F0D0
S31508003EE0FEFC8246584608F029FCCDE90201484600
S31508003EF008F024FCCDE900015246DFF85C1D0BA84A
S31508003F0002F086FE0BA801F071F80BA902F034FA4C
S31508003F103800C0B208F0D7FC83463800C0B208F0B3
S31508003F20D8FC81463800C0B208F0D9FC824658460B
S31508003F3008F004FCCDE90201484608F0FFFBCDE98C
S31508003F4000015246DFF86C1D0BA802F061FE0BA9B2
S31508003F50002001F053FD0600F6B2002E08D030000E
S31508003F60C0B200F022BF00BF8CC2010828B5010804
S31508003F707F1CFFF797B8EDB2002D0AD0DFF87C1D3D
S31508003F800BA801F05DF80BA801F030F80BA902F0B8
S31508003F90F3F9DFF86C1D0BA802F03AFE91E0E07821
S31508003FA03A2813D0EDB2002D0AD0DFF8781D0BA8F9
S31508003FB001F046F80BA801F019F80BA902F0DCF994
S31508003FC0DFF8641D0BA801F03BF84CE09DF82800CB
S31508003FD0052813DAEDB2002D0AD0DFF86C1D0BA800
S31508003FE001F02EF80BA801F001F80BA902F0C4F9AC
S31508003FF0DFF8581D0BA801F023F834E0201D309097
S31508004000309952A801F01CF8309808F054FC0600C4
S31508004010F6B2002E14D0EDB2002D0AD0DFF8601DDE
S315080040200BA801F00DF80BA800F0E0FF0BA902F0B1
S31508004030A3F93000C0B200F0B8BE00BFCCCC01086E
S31508004040EDB2002D0AD0DFF83C1D0BA800F0F8FFF2
S315080040500BA800F0CBFF0BA902F08EF9DFF8A01C25
S315080040600BA802F0D5FD2CE008F0C1FB0600F6B25D
S31508004070002E13D0EDB2002D0AD0DFF8381D0BA89C
S3150800408000F0DEFF0BA800F0B1FF0BA902F074F9EF
S315080040903000C0B200F089BEE4CC0108EDB2002DB4
S315080040A00AD0DFF8141D0BA800F0CAFF0BA800F011
S315080040B09DFF0BA902F060F9DFF8441C0BA802F07B
S315080040C0A7FD00F0DCBD04F051FBADF8E400EDB24D
S315080040D0002D0CD0BDF8E420DFF8E01C0BA802F098
S315080040E097FD0BA800F082FF0BA902F045F9BDF871
S315080040F0E420DFF8CC1C0BA802F08AFD00F0BFBD57
S31508004100FCCC0108EDB2002D0DD0DFF8B81C0BA8C9
S3150800411000F096FF0BA800F069FF0BA902F02CF936
S31508004120642008F001FC08F0B6FCDFF89C1C0BA81C
S3150800413002F06EFD00F0A3BDACC201080020060027
S315080041409DF82800042815DAEDB2002D0AD0DFF80C
S315080041507C1C0BA800F074FF0BA800F047FF0BA906
S3150800416002F00AF9DFF8681C0BA800F069FF0CE3F7
S3150800417014CD0108A078522800F04082532840F058
S31508004180F182E078422800F0A681522806D053280A
S3150800419000F08F80542800F0148124E220793A2810
S315080041A018D0EDB2002D0AD0DFF82C1C0BA800F0B1
S315080041B047FF0BA800F01AFF0BA902F0DDF8DFF89D
S315080041C01C1C0BA800F03CFF72E000BF2CCD0108B8
S315080041D044CD01089DF82800062810DB01202E9002
S315080041E0052007009DF8280087420ADAE05D08F0F6
S315080041F083FC002801D100202E907F1CF2E70020C6
S315080042002E902E98002813D1EDB2002D0AD0DFF893
S31508004210D41B0BA800F014FF0BA800F0E7FE0BA9AF
S3150800422002F0AAF8DFF8C01B0BA800F009FF3FE070
S31508004230601D3090309952A800F002FF52A808F08D
S3150800424060FC2F902F9842F21071884202DA2F985C
S31508004250002817D5EDB2002D0AD0DFF8881B0BA869
S3150800426000F0EEFE0BA800F0C1FE0BA902F084F8E0
S31508004270DFF8741B0BA800F0E3FE19E0CCC20108B6
S315080042805CCD01082F9808F0F6FCEDB2002D0AD097
S31508004290DFF8581B0BA800F0D3FE0BA800F0A6FE0B
S315080042A00BA902F069F8DFF8481B0BA802F0B0FC6E
S315080042B09EE120793A2819D0EDB2002D0AD0DFF810
S315080042C0341B0BA800F0BCFE0BA800F08FFE0BA950
S315080042D002F052F8DFF8201B0BA800F0B1FE6FE0E1
S315080042E074CD01088CCD0108A4CD01089DF82800DD
S315080042F0062810DB01202E90052007009DF82800CF
S3150800430087420ADAE05D08F0F7FB002801D10020B1
S315080043102E907F1CF2E700202E902E98002813D1AD
S31508004320EDB2002D0AD0DFF87C1B0BA800F088FE42
S315080043300BA800F05BFE0BA902F01EF8DFF8681B5D
S315080043400BA800F07DFE3BE0601D3090309952A826
S3150800435000F076FE52A808F0D4FB2F902F9842F270
S315080043601071884202DA2F98002813D5EDB2002D75
S315080043700AD0DFF8301B0BA800F062FE0BA800F08D
S3150800438035FE0BA901F0F8FFDFF81C1B0BA800F09F
S3150800439057FE15E02F9808F08CFCEDB2002D0AD0D8
S315080043A0DFF8081B0BA800F04BFE0BA800F01EFE5A
S315080043B00BA901F0E1FFDFF8381A0BA802F028FC78
S315080043C016E120793A2817D0EDB2002D0AD0DFF889
S315080043D0E01A0BA800F034FE0BA800F007FE0BA9A4
S315080043E001F0CAFFDFF8CC1A0BA800F029FE71E02D
S315080043F0BCCD0108D4CD01089DF82800062810DB9D
S3150800440001202E90052007009DF8280087420ADA29
S31508004410E05D08F071FB002801D100202E907F1C7A
S31508004420F2E700202E902E98002815D1EDB2002D27
S315080044300AD0DFF8841A0BA800F002FE0BA800F0D9
S31508004440D5FD0BA901F098FFDFF8701A0BA800F04C
S31508004450F7FD3FE0ECCD0108601D3090309952A879
S3150800446000F0EEFD52A808F04CFB2F902F9842F270
S315080044701071884202DA2F98002815D5EDB2002D62
S315080044800AD0DFF8341A0BA800F0DAFD0BA800F002
S31508004490ADFD0BA901F070FFDFF80C1A0BA800F0B0
S315080044A0CFFD17E004CE01082F9808F029FCEDB2DD
S315080044B0002D0AD0DFF8081A0BA800F0C1FD0BA8DA
S315080044C000F094FD0BA901F057FFDFF824190BA89B
S315080044D002F09EFB8CE020793A2817D0EDB2002D29
S315080044E00AD0DFF8E0190BA800F0AAFD0BA800F027
S315080044F07DFD0BA901F040FFDFF8CC190BA800F0F1
S315080045009FFD6FE01CCE010834CE01089DF82800F7
S31508004510062810DB01202E90052007009DF82800AC
S3150800452087420ADAE05D08F0E7FA002801D10020A0
S315080045302E907F1CF2E700202E902E98002813D18B
S31508004540EDB2002D0AD0DFF884190BA800F078FD2B
S315080045500BA800F04BFD0BA901F00EFFDFF8701950
S315080045600BA800F06DFD3DE0601D3090309952A813
S3150800457000F066FD52A808F0C4FA2F902F98B0F5FF
S315080045807A7F02DA2F98002816D5EDB2002D0AD0C8
S31508004590DFF838190BA800F053FD0BA800F026FD2C
S315080045A00BA901F0E9FEDFF828190BA800F048FD71
S315080045B018E000BF4CCE01082F9808F0B3FBEDB207
S315080045C0002D0AD0DFF80C190BA800F039FD0BA84E
S315080045D000F00CFD0BA901F0CFFEDFF814180BA8AC
S315080045E002F016FB04E0DFF8F0180BA800F028FD2F
S315080045F0CBE000BF64CE01087CCE0108E0784228F3
S3150800460000F07E80522804D0532831D054285DD03B
S3150800461092E0EDB2002D16D008F096FB08F0C2FB2A
S31508004620DFF8B81808F0CEFB08F088F802000B008F
S31508004630DFF8AC180BA802F0EBFA0BA800F0D6FCD2
S315080046400BA901F099FE08F07FFB08F0ABFBDFF839
S315080046508C1808F0B7FB08F071F802000B00DFF8B9
S3150800466084180BA802F0D4FA79E000BFECC201085E
S31508004670EDB2002D16D008F06AFB08F093FBDFF8C0
S315080046805C1808F09FFB08F059F802000B00DFF8E9
S3150800469058180BA802F0BCFA0BA800F0A7FC0BA947
S315080046A001F06AFE08F053FB08F07CFBDFF82C18D3
S315080046B008F088FB08F042F802000B00DFF82C1817
S315080046C00BA802F0A5FA4AE094CE0108EDB2002D37
S315080046D00DD008F042FB0200DFF814180BA802F010
S315080046E097FA0BA800F082FC0BA901F045FE08F02A
S315080046F034FB0200DFF8FC170BA802F089FA2EE05B
S31508004700EDB2002D0DD008F02BFB0200DFF8E817FC
S315080047100BA802F07DFA0BA800F068FC0BA901F0C3
S315080047202BFE08F01DFB0200DFF8D0170BA802F0DD
S315080047306FFA14E0ACCE0108EDB2002D0AD0DFF80E
S31508004740C0170BA800F07CFC0BA800F04FFC0BA9C7
S3150800475001F012FEDFF8AC170BA800F071FC14E0AC
S31508004760C4CE0108EDB2002D0AD0DFF860160BA8FA
S3150800477000F066FC0BA800F039FC0BA901F0FCFD63
S31508004780DFF884170BA800F05BFC78E2002006002F
S315080047909DF82800032815DAEDB2002D0AD0DFF8B7
S315080047A06C170BA800F04CFC0BA800F01FFC0BA91B
S315080047B001F0E2FDDFF858170BA800F041FC4CE0C9
S315080047C0DCCE0108A07844281CD0452832D1EDB2A9
S315080047D0002D0AD0DFF83C170BA800F031FC0BA817
S315080047E000F004FC0BA901F0C7FDDFF82C170BA895
S315080047F002F00EFA012008F071FA06002DE000BF5B
S31508004800F4CE0108EDB2002D0AD0DFF810170BA878
S3150800481000F016FC0BA800F0E9FB0BA901F0ACFDB3
S31508004820DFF8FC160BA802F0F3F9002008F056FA98
S31508004830060012E0EDB2002D0AD0DFF8D0160BA85C
S3150800484000F0FEFB0BA800F0D1FB0BA901F094FDCC
S31508004850DFF8D0160BA800F0F3FB10E20CC3010832
S31508004860EDB2002D0AD0DFF8C0160BA800F0E8FB61
S315080048700BA800F0BBFB0BA901F07EFDDFF8AC1618
S315080048800BA800F0DDFB0BA9002001F0B7F8060025
S31508004890F6B2002E02D03000C0B286E2DFF89016DB
S315080048A00BA800F0CDFB0120DFF888160870E6E1BA
S315080048B00CCF010808F0B6F9EDB2002D0AD0DFF8E2
S315080048C078160BA802F0A4F90BA800F08FFB0BA929
S315080048D001F052FDDFF864160BA802F099F9CEE153
S315080048E024CF0108EDB2002D0BD0DFF854160BA823
S315080048F002F08EF90BA800F079FB0BA901F03CFD3C
S31508004900BDE1DFF840160BA802F082F90BA90020DA
S3150800491001F074F80600F6B2002E02D03000C0B2DC
S3150800492043E2DFF824160BA802F072F90BA900205F
S3150800493001F064F80600F6B2002E05D03000C0B2C9
S3150800494033E200BF3CCF0108FEE7EDB2002D0AD0E6
S31508004950DFF8F8150BA800F073FB0BA800F046FB70
S315080049600BA901F009FDDFF8E8150BA800F068FBB4
S315080049700BA9002001F042F80600F6B2002E02D07C
S315080049803000C0B211E2DFF8CC150BA800F058FBD6
S3150800499000F0FCFE73E100BF54CF01086CCF01089C
S315080049A0EDB2002D0DD0DFF880150BA800F048FBFE
S315080049B00BA800F01BFB0BA901F0DEFC642007F036
S315080049C0B3FF0DF59763D5AADFF88C15200007F01D
S315080049D0A3FE47904798022840F035810DF5976267
S315080049E0DFF878150BA802F013F90BA9002001F0DF
S315080049F005F80600F6B2002E04D03000C0B2D4E1A5
S31508004A0084CF0108FFA968310DF5976008F058FAB8
S31508004A100600F6B2002E41D09DF86504002809D09C
S31508004A20022813D00CD304281CD015D3062827D067
S31508004A3020D32BE0DFF828150BA802F0E9F807E1E8
S31508004A40DFF820150BA802F0E3F801E1DFF81815E6
S31508004A500BA802F0DDF8FBE0DFF810150BA802F052
S31508004A60D7F8F5E0DFF808150BA802F0D1F8EFE063
S31508004A709CCF0108DFF8F4140BA802F0C9F8E7E0A8
S31508004A80DFF8F0140BA802F0C3F8E1E0DFF8E81449
S31508004A900BA802F0BDF8DBE0B4CF01089DF864046A
S31508004AA000280ED0022818D011D3042824D01DD3EC
S31508004AB006282DD026D3082838D02FD309283BD04E
S31508004AC040E0DFF8B8140BA802F0A2F83FE0DFF8E0
S31508004AD0B0140BA802F09CF839E0DFF8A8140BA86C
S31508004AE002F096F833E000BFCCCF0108DFF898143F
S31508004AF00BA802F08DF82AE0DFF890140BA802F054
S31508004B0087F824E0DFF888140BA802F081F81EE085
S31508004B10DFF880140BA802F07BF818E0DFF87814A9
S31508004B200BA802F075F812E0E4CF0108DFF86C1460
S31508004B300BA802F06DF80AE0DFF864140BA802F07F
S31508004B4067F804E0DFF85C140BA802F061F80BA91B
S31508004B50002000F053FF0600F6B2002E06D0300003
S31508004B60C0B222E1FCCF010814D00108DDF86824A0
S31508004B70DFF834140BA802F04BF80BA9002000F05C
S31508004B803DFF0600F6B2002E02D03000C0B20CE19E
S31508004B90DDF86C24DFF814140BA802F039F80BA919
S31508004BA0002000F02BFF06009DF8640400280FD1B2
S31508004BB0FFAA7532DFF8F8130BA802F029F80BA93B
S31508004BC0002000F01BFF060035E000BF2CD00108CE
S31508004BD0002080467FA10BA802F01AF800200700E3
S31508004BE02D2F28DAFFA868303844427BDFF8C41333
S31508004BF02BA802F00DF82BA90BA802F023F818F140
S31508004C000108B8F1100F14DB75A10BA802F01AF809
S31508004C10002080460BA9002000F0F0FE0600F6B240
S31508004C20002E02D03000C0B2BFE06AA10BA801F086
S31508004C30EFFF7F1CD4E79DF87024DFF87C130BA8E0
S31508004C4001F0E6FF04E0DFF874130BA800F0F8F9AA
S31508004C5015E000BF44D001085CD00108EDB2002D74
S31508004C6009D0B1490BA800F0EBF90BA800F0BEF982
S31508004C700BA901F081FBA4490BA800F0E1F910E0AB
S31508004C80EDB2002D09D0A8490BA800F0D9F90BA858
S31508004C9000F0ACF90BA901F06FFB9B490BA800F0DB
S31508004CA0CFF9F6B2002E07D0022E46D005D3032E32
S31508004CB04ED054E074D0010857E007F0DCFB46906C
S31508004CC0469801280AD002280DD0042810D00828B2
S31508004CD018D010281BD020281ED027E0B8490BA8CA
S31508004CE000F0AEF926E0B7490BA800F0A9F921E0D3
S31508004CF0B5490BA800F0A4F91CE000BFE8D80108E4
S31508004D0014D60108B1490BA800F09AF912E0B04987
S31508004D100BA800F095F90DE0AE490BA800F090F944
S31508004D2008E000BF2CC30108E4AC0108AA490BA897
S31508004D3000F086F907F079FA17E0A8490BA800F001
S31508004D407FF907F072FA10E04CB5010870B5010852
S31508004D50A3490BA800F074F907F067FA05E0A14922
S31508004D600BA800F06DF907F060FA0BA9002000F017
S31508004D7045FE0600F6B2002E06D03000C0B214E09A
S31508004D804CC30108D4C7010897490BA800F058F985
S31508004D900BA9002000F032FE0600F6B2002E02D063
S31508004DA03000C0B201E03000C0B20DF5A06D0DB004
S31508004DB0BDE8F08F6CC30108F0C701088CC3010871
S31508004DC08CD00108ACC3010894B50108CCC301080E
S31508004DD00CAD010800000000B8B5010810A40108D0
S31508004DE00D0A0000DCB5010800B60108ECC301088D
S31508004DF030D9010824B601083CA40108F8B5040016
S31508004E00200000F0F3F80500002007000020060047
S31508004E10AE4216DAA05D3A2802DAA05D302805DA35
S31508004E20A05D472805DAA05D412802DB00200700BF
S31508004E3001E001200700012F01D1002002E0761CC5
S31508004E40E6E70120F2BD2DE9F041040000275FF0F6
S31508004E500008200000F0CAF8050000200600AE424F
S31508004E601ADAA05D3A2806DAA05D302803DBA05DD1
S31508004E70303807000CE0A05D472806DAA05D412817
S31508004E8003DBA05D3738070002E05FF0FF3004E07F
S31508004E9017EB0818761CE2E74046BDE8F08125487E
S31508004EA00078704748B601086CB601080CC40108BA
S31508004EB090B6010868A40108B4B60108D8B6010876
S31508004EC02CC40108FCB6010894A4010820B70108FF
S31508004ED044B701084CC4010868B70108000020411E
S31508004EE06CC4010834AD01088CC40108C0A40108CB
S31508004EF00CC80108A4D0010828C80108ACC40108D8
S31508004F00CCC401088CB701082CC00108ECC4010800
S31508004F105CAD010844C8010884AD010860C80108F1
S31508004F20ACAD0108D4AD0108ECBF01087CC8010886
S31508004F3098C801081F670020BCD00108CC9E01084C
S31508004F40B4C80108B0B70108D4B701080CC50108F0
S31508004F502CC5010810A10108F0DB010848D9010891
S31508004F6028D60108D0C80108ECC80108F8B7010816
S31508004F704CC5010808C90108FCAD0108249D0108B3
S31508004F8084950108CC9501081496010824C90108DE
S31508004F90E8990108289A01083893010884930108BA
S31508004FA0D0930108D4D001083CD6010864D701087B
S31508004FB074D70108F8DB010850D6010824AE0108A9
S31508004FC04CAE010840A1010870A10108A0A1010882
S31508004FD074AE0108D0A101089CAE0108C4AE010850
S31508004FE0ECAE010814AF010800DC010800F101036A
S31508004FF0810704D010F8011B89B18107FAD102682C
S31508005000B2F10131914311F0803F04BF50F8042FEB
S31508005010F6E710F8011B11B110F8011BFBE7C01ADF
S31508005020704703681AB95A1E02600846704719780D
S3150800503000290FBF4FF0FF30591C016018787047E0
S315080050405FEA000C830706D011F8013B00F8013B24
S31508005050B3B18307F8D10A68B2F1013323EA020330
S3150800506013F0803F02BF40F8042B51F8042FF3E7F2
S3150800507011F8013B00F8013B13B111F8013BF9E7C0
S31508005080604670472DE9F04FE5B004000D0020009A
S31508005090FFF7ACFF8DF808000020824620781B2811
S315080050A002D02078582816D10020DFF8F0160870AC
S315080050B0DFF8EC1603A8FFF7C3FF03A9002000F0EA
S315080050C09DFC82465FFA8AFABAF1000F00F0568311
S315080050D05046C0B254E3207845280AD046281CD04A
S315080050E047282ED0502800F0A580542800F0CD80FF
S315080050F0BDE2EDB2002D0AD0DFF8A81603A8FFF727
S315080051009FFF03A8FFF772FF03A901F035F9DFF83F
S31508005110981603A8FFF794FFBAE2EDB2002D0AD05D
S31508005120DFF8801603A8FFF78BFF03A8FFF75EFFDB
S3150800513003A901F021F9DFF8741603A8FFF780FF29
S31508005140A6E227A806F0D2FC82465FFA8AFABAF1E6
S31508005150000F03D121A806F01DFC82465FFA8AFAE1
S31508005160BAF1000F2AD1DFF8481603A8FFF768FF3F
S3150800517003A9002000F042FC82465FFA8AFABAF1D7
S31508005180000F02D05046C0B2FAE2DFF8281603A88C
S3150800519001F03EFD0DF1AA0103A801F053FDC8A1D7
S315080051A003A801F04FFD03A9002000F027FC824662
S315080051B05FFA8AFABAF1000F01D103E068E25046B5
S315080051C0C0B2DDE2BDF8B220DFF8EC1503A801F0A5
S315080051D01FFD03A9002000F011FC82465FFA8AFA37
S315080051E0BAF1000F02D05046C0B2C9E2EDB2002DA6
S315080051F012D00DF18B0001900DF1A300009021ABA8
S3150800520027AADFF8B81503A801F002FD03A8FFF7DF
S31508005210EDFE03A901F0B0F80DF18B0001900DF138
S31508005220A300009021AB27AADFF8941503A801F084
S31508005230EFFC2DE26078442818D055281FD10420A9
S3150800524006F070FFEDB2002D0AD0DFF8581503A856
S31508005250FFF7F6FE03A8FFF7C9FE03A901F08CF8CD
S31508005260DFF8601503A8FFF7EBFE0DE0042006F053
S3150800527067FFDFF8541503A8FFF7E2FE04E0DFF83E
S315080052804C1503A8FFF7DCFE02E29DF80800022889
S3150800529013DAEDB2002D0AD0DFF8081503A8FFF7D8
S315080052A0CFFE03A8FFF7A2FE03A901F065F8DFF811
S315080052B0201503A8FFF7C4FED8E16078442809D072
S315080052C046283BD04C284FD052281ED0532800F0F1
S315080052D07F80BAE103F04AFA0600EDB2002D0CD041
S315080052E0B6B23200DFF8EC1403A801F091FC03A86B
S315080052F0FFF77CFE03A901F03FF8B6B23200DFF8EB
S31508005300D81403A801F084FCB0E1EDB2002D0DD04D
S31508005310DFF8C81403A8FFF793FE03A8FFF766FE95
S3150800532003A901F029F8642007F0FEFA07F0B3FB99
S31508005330DFF8AC1403A801F06BFC97E107F072FCE8
S31508005340EDB2002D0AD0DFF89C1403A801F060FC2A
S3150800535003A8FFF74BFE03A901F00EF8DFF888143F
S3150800536003A801F055FC81E1EDB2002D0BD0DFF862
S315080053707C1403A801F04CFC03A8FFF737FE03A929
S3150800538000F0FAFF72E1DFF8681403A801F040FCA8
S3150800539003A9002000F032FB82465FFA8AFABAF1C6
S315080053A0000F02D05046C0B2EAE1DFF8481403A85D
S315080053B001F02EFC03A9002000F020FB82465FFACC
S315080053C08AFABAF1000F02D05046C0B2D8E1FEE719
S315080053D0EDB2002D0DD0DFF8CC1303A8FFF730FE91
S315080053E003A8FFF703FE03A900F0C6FF642007F031
S315080053F09BFA47AB2DAADFF80014200007F08CF9BA
S315080054000700022F40F01C8147AADFF8F01303A813
S3150800541001F0FEFB03A9002000F0F0FA82465FFACD
S315080054208AFABAF1000F02D05046C0B2A8E132A9F2
S3150800543047A807F045FD82465FFA8AFABAF1000FD7
S3150800544040D09DF8C900002809D0022813D00CD3F3
S3150800545004281CD015D3062825D01ED329E0DFF84A
S31508005460A01303A801F0D4FBEEE0DFF8981303A815
S3150800547001F0CEFBE8E0DFF8901303A801F0C8FBC3
S31508005480E2E0DFF8881303A801F0C2FBDCE0DFF8EE
S31508005490801303A801F0BCFBD6E0DFF8701303A85D
S315080054A001F0B6FBD0E0DFF86C1303A801F0B0FBFF
S315080054B0CAE0DFF8641303A801F0AAFBC4E000BF42
S315080054C00D0A00009DF8C80000280ED0022816D044
S315080054D010D304281DD017D3062824D01ED3082895
S315080054E02BD025D309282DD031E0CC4903A801F0CB
