S02E0000526F616420426F61726420526576204D2E3520424153454C494E4520446563203920323031362E737265637A
S3150800000050410020A1B5010809BA01088BD500089E
S315080000109FD500080DBA0108B3D5000800000000F6
S31508000020000000000000000000000000677C0108D6
S3150800003011BA010800000000157C0108A97D010815
S3150800004021BC000815BA010819BA01081DBA010829
S3150800005021BA010825BA010829BA01082DBA0108EA
S3150800006031BA010835BA010839BA0108B17D010863
S315080000703DBA010841BA010845BA010849BA01085A
S315080000804DBA010851BA010855BA010859BA01080A
S31508000090BB7D01085DBA010861BA010865BA0108A5
S315080000A069BA01086DBA010871BA010875BA01087A
S315080000B0F77D0108017E0108C57D0108E37D010879
S315080000C0ED7D010879BA01087DBA010881BA0108EF
S315080000D085BA010889BA0108D97D0108CF7D0108CA
S315080000E08DBA010891BA010895BA01088962000813
S315080000F099BA0108000000009DBA0108A1BA0108D2
S31508000100A5BA0108A9BA0108ADBA0108B1BA010829
S31508000110B5BA0108B9BA0108BDBA0108000000005D
S31508000120C1BA010801201D4981F82800002070473E
S3150800013010B50400194890F82800022801D10220B9
S3150800014016E0164890F82800002801D101200FE093
S31508000150200004F03BFD282801D3012008E02100F7
S315080001600E4804F05DFD02200C4981F828000020A5
S3150800017010BD10B5094890F8280002280BD10121B6
S31508000180064800F00DF804000120044981F828000B
S315080001902000C0B200E0002010BD00006C65002001
S315080001A02DE9F04FADF5806D97B004000D002000E5
S315080001B004F00CFD8046DFF8E80D007800281ED014
S315080001C020781B2815D10020DFF8D41D0870DFF829
S315080001D0D41D0AA804F024FD0AA9002004F0F8FD9D
S315080001E00600F6B2002E04F0EB833000C0B204F02D
S315080001F0E9BB2100012005F027FA04F0E1BB2078CD
S3150800020030282FD0312848D0322879D0332800F02A
S31508000210AA80342800F0DA80352800F00A813628CA
S3150800022000F07881412800F08E81422800F0E982AA
S31508000230432800F09385442800F07B87452801F081
S31508000240ED80462801F0FF80472801F017814828ED
S3150800025001F09481502801F06B84542801F09884A9
S3150800026004F025BB05F057FD0600F6B2002E12D1A4
S31508000270EDB2002D0AD0DFF8D81D0AA804F0D0FC8C
S315080002800AA804F0A3FC0AA905F0DEF9DFF81C1E8B
S315080002900AA804F0C5FC04F01BBB8CA805F08DFD6C
S315080002A00600DFF80C1E0AA804F0BAFC0AA900200A
S315080002B004F08EFD0600F6B2002E03D03000C0B260
S315080002C004F080BBEDB2002D0BD08CAADFF8E41D3C
S315080002D00AA805F003FE0AA804F078FC0AA905F0A6
S315080002E0B3F9DFF81C1E0AA805F0F8FD8CA90AA8C0
S315080002F005F00EFED8A10AA805F00AFE04F0E8BA31
S315080003008CA805F076FD0600DFF8FC1D0AA804F0A7
S3150800031087FC0AA9002004F05BFD0600F6B2002E51
S3150800032003D03000C0B204F04DBBEDB2002D0BD0A7
S315080003308CAADFF8D81D0AA805F0D0FD0AA804F093
S3150800034045FC0AA905F080F9DFF8C41D0AA805F0DE
S31508000350C5FD8CA90AA805F0DBFDBFA10AA805F012
S31508000360D7FD04F0B5BA8CA805F061FD0600DFF8E4
S31508000370A41D0AA804F054FC0AA9002004F028FDCC
S315080003800600F6B2002E03D03000C0B204F01ABB45
S31508000390EDB2002D0BD08CAADFF87C1D0AA805F05B
S315080003A09DFD0AA804F012FC0AA905F04DF9DFF82C
S315080003B06C1D0AA805F092FD8CA90AA805F0A8FDEF
S315080003C0A5A10AA805F0A4FD04F082BA8CA805F038
S315080003D04CFD0600DFF8481D0AA804F021FC0AA90E
S315080003E0002004F0F5FC0600F6B2002E03D030001B
S315080003F0C0B204F0E7BAEDB2002D0BD08CAADFF834
S31508000400041E0AA805F06AFD0AA804F0DFFB0AA97B
S3150800041005F01AF9DFF8F01D0AA805F05FFD8CA9AA
S315080004200AA805F075FD8CA10AA805F071FD04F06F
S315080004304FBA05F03DFC4790DFF8D01D0AA804F036
S31508000440EFFB8CA805F0B9FC06000AA9002004F009
S31508000450BFFC0600F6B2002E03D03000C0B204F08E
S31508000460B1BAEDB2002D0AD0DFF8E81D0AA804F0EB
S31508000470D7FB0AA804F0AAFB0AA905F0E5F80020AC
S315080004803A90DAA10AA805F029FD00200700802F76
S315080004902EDA4798C257DFF8C01D2AA805F01EFDB8
S315080004A02AA90AA805F034FD3A98401C3A903A98C9
S315080004B010281BDB68A10AA805F02AFD00203A903F
S315080004C00AA9002004F084FC0600F6B2002E03D028
S315080004D03000C0B204F076BA0AA804F077FB0AA97D
S315080004E005F0B2F8C1A10AA805F0F8FC7F1CCEE712
S315080004F0DFF8101E0AA804F093FB0AA804F066FBAE
S315080005000AA905F0A1F8DFF8001E0AA805F0E6FC1E
S3150800051004F0DEB90020060005F0C5FCEDB2002D9A
S315080005200AD0DFF8E81D0AA804F07AFB0AA804F046
S315080005304DFB0AA905F088F8DFF8D41D0AA804F0CF
S315080005406FFB04F0C5B95FFA88F8B8F1010F00F03F
S3150800055056816078362839D0382800F0B88039288E
S3150800056000F02281492840F0458105F0DFFC0600AD
S31508000570EDB2002D0AD0DFF8041E0AA804F050FBDD
S315080005800AA804F023FB0AA905F05EF8F6B2002EC5
S3150800059005D1DFF8EC1D0AA804F042FB15E0DFF8E8
S315080005A0101E0AA804F03CFB8DF8B4600AA90020C6
S315080005B004F00EFC0600F6B2002E03D03000C0B2DE
S315080005C004F000BA9DF8B400060018E1ADA805F0DD
S315080005D020FD0600F6B2002E04D1FFA8403005F033
S315080005E0CFFC0600F6B2002E5AD1DFF8C81D0AA8BD
S315080005F004F016FB0AA9002004F0EAFB0600F6B28E
S31508000600002E03D03000C0B204F0DCB9DFF8A81D14
S315080006100AA805F063FC0AA9002004F0D9FB060025
S31508000620F6B2002E03D03000C0B204F0CBB9FFAB4F
S315080006304033ADAADFF8841D0AA805F04FFC0AA9C5
S31508000640002004F0C5FB0600F6B2002E06D03000E6
S31508000650C0B204F0B7B900BF0D0A0000EDB2002D14
S315080006600AD0DFF8181D0AA804F0DAFA0AA804F076
S31508000670ADFA0AA904F0E8FFDFF8F41D0AA805F0A8
S315080006802DFCB0A90AA805F043FCB39ADFF8E41DCF
S315080006902AA805F023FC2AA90AA805F039FC15E0C2
S315080006A0DFF8D41D0AA804F0BBFA8DF8B4600AA9CD
S315080006B0002004F08DFB0600F6B2002E03D03000B1
S315080006C0C0B204F07FB99DF8B400060097E03DA8D3
S315080006D005F0E3FC0600F6B2002E27D1DFF8F81D78
S315080006E00AA804F09DFA0AA9002004F071FB060086
S315080006F0F6B2002E03D03000C0B204F063B9DFF8BA
S31508000700DC1D0AA805F0EAFB0DF581710AA805F0BB
S31508000710FFFB37A10AA805F0FBFB0AA9002004F095
S3150800072057FB0600F6B2002E01D104E067E0300060
S31508000730C0B204F047B9BDF80A21DFF8081E0AA8B6
S3150800074005F0CCFB0AA9002004F042FB0600F6B22D
S31508000750002E03D03000C0B204F034B9EDB2002D3B
S315080007600AD0DFF8181C0AA804F05AFA0AA804F0F6
S315080007702DFA0AA904F068FFDFF8CC1D0AA805F0CF
S31508000780ADFB3DA90AA805F0C3FBDFF8C01D0AA802
S3150800079005F0BEFB0DF1FB010AA805F0B9FB14A193
S315080007A00AA805F0B5FB2AE005F0D6FC0600EDB26E
S315080007B0002D0AD0DFF8C41B0AA804F031FA0AA8EB
S315080007C004F004FA0AA904F03FFFF6B2002E05D198
S315080007D0DFF87C1D0AA804F023FA06E0DFF8741D8A
S315080007E00AA804F01DFA0020060008E00000000030
S315080007F00D0A0000DFF8601D0AA804F011FA04F0DB
S3150800080067B85FFA88F8B8F1010F40F0348105201F
S3150800081006F0CAFF00280BD056A808F0D1FB060040
S31508000820F6B2002E17D1C6A808F044F8060012E062
S31508000830062006F0B9FF00280BD056A807F0D6FC0C
S315080008400600F6B2002E06D1C6A807F064F906001F
S3150800085001E001200600EDB2002D0AD0DFF81C1BCE
S315080008600AA804F0DDF90AA804F0B0F90AA904F008
S31508000870EBFEF6B2002E40F0FC80DFF8EC1D0AA86D
S3150800088004F0CEF90AA9002004F0A2FA0600F6B28E
S31508000890002E03D03000C0B204F094B80020070040
S315080008A0092F80F2D380002F0FD0022F35D020D306
S315080008B0042F5AD045D3062F00F07F8069D3082F1E
S315080008C000F0A380C0F08D80B2E0BDF86E01039001
S315080008D0C7A8C01C029057A8C01C0190C6A80090C3
S315080008E056AB0DF5B372DFF81C1E0AA805F0F6FA2A
S315080008F09EE0BDF886010390CDA8C01C02905DA8B5
S31508000900C01C0190CCA800905CAB0DF5BF72DFF857
S31508000910F81D0AA805F0E2FA8AE0BDF89E010390E0
S31508000920D3A8C01C029063A8C01C0190D2A800904E
S3150800093062AB0DF5CB72DFF8D01D0AA805F0CEFA2A
S3150800094076E0BDF8B6010390D9A8C01C029069A844
S31508000950C01C0190D8A8009068AB0DF5D772DFF8D7
S31508000960A81D0AA805F0BAFA62E0BDF8CE01039000
S31508000970DFA8C01C02906FA8C01C0190DEA80090DA
S315080009806EAB0DF5E372DFF8801D0AA805F0A6FA2E
S315080009904EE0BDF8E6010390E5A8C01C029075A8D4
S315080009A0C01C0190E4A8009074AB0DF5EF72DFF857
S315080009B0581D0AA805F092FA3AE0BDF8FE01039020
S315080009C0EBA8C01C02907BA8C01C0190EAA8009066
S315080009D07AAB0DF5FB72DFF8301D0AA805F07EFA32
S315080009E026E0BDF816020390F1A8C01C029081A863
S315080009F0C01C0190F0A8009080AB83AA921CDFF877
S31508000A00081D0AA805F06AFA12E0BDF82E0203903E
S31508000A10F7A8C01C029087A8C01C0190F6A80090F1
S31508000A2086AB89AA921CDFF8E01C0AA805F056FADC
S31508000A300AA9002004F0CCF90600F6B2002E03D06D
S31508000A403000C0B203F0BEBF7F1C29E7DFF8F81DEF
S31508000A500AA805F043FA45A90AA805F059FABEA15D
S31508000A600AA805F055FADFF8E81D0AA805F036FACF
S31508000A7070E103F02DBF607830281FD0312800F0D0
S31508000A805081492840F0668107F05EFE0600EDB207
S31508000A90002D0AD0DFF8E4180AA804F0C1F80AA85D
S31508000AA004F094F80AA904F0CFFDF6B2002E04D19A
S31508000AB0DFF8041E0AA804F0B3F84BE1052006F097
S31508000AC073FE00280BD056A808F07AFA0600F6B28C
S31508000AD0002E17D1C6A807F0EDFE060012E0062084
S31508000AE006F062FE00280BD056A807F07FFB06002A
S31508000AF0F6B2002E06D1C6A807F00DF8060001E0EA
S31508000B0001200600EDB2002D0AD0DFF870180AA8F9
S31508000B1004F086F80AA804F059F80AA904F094FD26
S31508000B20F6B2002E40F0FC80DFF83C1B0AA804F061
S31508000B3077F80AA9002004F04BF90600F6B2002E51
S31508000B4003D03000C0B203F03DBF00200700092FD4
S31508000B5080F2D380002F0FD0022F35D020D3042F58
S31508000B605AD045D3062F00F07F8069D3082F00F0AE
S31508000B70A380C0F08D80B2E0BDF86E010390C7A8CF
S31508000B80C01C029057A8C01C0190C6A8009056AB7E
S31508000B900DF5B372DFF86C1B0AA805F09FF99EE005
S31508000BA0BDF886010390CDA8C01C02905DA8C01CA4
S31508000BB00190CCA800905CAB0DF5BF72DFF8481B1E
S31508000BC00AA805F08BF98AE0BDF89E010390D3A820
S31508000BD0C01C029063A8C01C0190D2A8009062AB0A
S31508000BE00DF5CB72DFF8201B0AA805F077F976E039
S31508000BF0BDF8B6010390D9A8C01C029069A8C01C0C
S31508000C000190D8A8009068AB0DF5D772DFF8F81AEE
S31508000C100AA805F063F962E0BDF8CE010390DFA8E3
S31508000C20C01C02906FA8C01C0190DEA800906EAB95
S31508000C300DF5E372DFF8D01A0AA805F04FF94EE071
S31508000C40BDF8E6010390E5A8C01C029075A8C01C73
S31508000C500190E4A8009074AB0DF5EF72DFF8A81ABE
S31508000C600AA805F03BF93AE0BDF8FE010390EBA8A7
S31508000C70C01C02907BA8C01C0190EAA800907AAB21
S31508000C800DF5FB72DFF8801A0AA805F027F926E0A9
S31508000C90BDF816020390F1A8C01C029081A8C01CDA
S31508000CA00190F0A8009080AB83AA921CDFF8581A2E
S31508000CB00AA805F013F912E0BDF82E020390F7A86A
S31508000CC0C01C029087A8C01C0190F6A8009086ABAD
S31508000CD089AA921CDFF8301A0AA805F0FFF80AA9B3
S31508000CE0002004F075F80600F6B2002E03D0300096
S31508000CF0C0B203F067BE7F1C29E7DFF84C1B0AA8C1
S31508000D0005F0ECF845A90AA805F002F912A10AA807
S31508000D1005F0FEF8DFF8381B0AA805F0DFF819E039
S31508000D2018E007F07CFD0600EDB2002D0AD0DFF8CA
S31508000D304C160AA803F074FF0AA803F047FF0AA98D
S31508000D4004F082FCF6B2002E04D1DFF8D01D0AA802
S31508000D5003F066FF03F0BCBD0D0A00005FFA88F8D1
S31508000D60B8F1010F50D143A808F09FFF0600F6B26C
S31508000D70002E03D195A808F01FFF0600F6B2002E34
S31508000D8026D1DFF8041E0AA803F04AFF0AA90020A4
S31508000D9004F01EF80600F6B2002E03D03000C0B2EA
S31508000DA003F010BEDFF8E41D0AA805F097F845A978
S31508000DB00AA805F0ADF8D3A10AA805F0A9F80AA96A
S31508000DC0002004F005F80600F6B2002E02D105E070
S31508000DD003F07EBD3000C0B203F0F4BDEDB2002DC5
S31508000DE00AD0DFF898150AA803F01AFF0AA803F034
S31508000DF0EDFE0AA904F028FC95AB43AADFF8C41D4A
S31508000E000AA805F06BF892E16078302824D03128DA
S31508000E1072D0322800F0C880332800F01B81492898
S31508000E2040F0808108F098FB0600EDB2002D0AD04C
S31508000E30DFF848150AA803F0F3FE0AA803F0C6FE71
S31508000E400AA904F001FCF6B2002E04D1DFF8E41D6D
S31508000E500AA803F0E5FE6AE143A808F054FC060078
S31508000E60F6B2002E03D195A808F0D1FB0600EDB224
S31508000E70002D0AD0DFF804150AA803F0D1FE0AA847
S31508000E8003F0A4FE0AA904F0DFFBF6B2002E26D171
S31508000E90DFF8D4170AA803F0C3FE0AA9002003F056
S31508000EA097FF0600F6B2002E03D03000C0B203F05A
S31508000EB089BDDFF894190AA805F010F845A90AA80B
S31508000EC005F026F88FA10AA805F022F80AA900203D
S31508000ED003F07EFF0600F6B2002E01D104E026E1FB
S31508000EE03000C0B203F06EBD95AB43AADFF8941D7F
S31508000EF00AA804F0F3FF1AE1C2A808F0F7FC0600F6
S31508000F00F6B2002E04D1FFA8303008F073FC0600B4
S31508000F10EDB2002D0AD0DFF864140AA803F080FEAB
S31508000F200AA803F053FE0AA904F08EFBF6B2002EB7
S31508000F3027D1DFF8F01D0AA803F072FE0AA90020DF
S31508000F4003F046FF0600F6B2002E03D03000C0B20A
S31508000F5003F038BDDFF8D01D0AA804F0BFFFC4A906
S31508000F60491C0AA804F0D4FF66A10AA804F0D0FF19
S31508000F700AA9002003F02CFF0600F6B2002E01D1C4
S31508000F8004E0D4E03000C0B203F01CBDFFAB303340
S31508000F90C2AADFF8981D0AA804F0A0FFC7E000BFA0
S31508000FA010670020EC830108BEA808F090FD060033
S31508000FB0F6B2002E04D1FFA8203008F00EFD060078
S31508000FC0EDB2002D0AD0DFF8B4130AA803F028FE04
S31508000FD00AA803F0FBFD0AA904F036FBF6B2002EB8
S31508000FE027D1DFF84C1D0AA803F01AFE0AA900202B
S31508000FF003F0EEFE0600F6B2002E03D03000C0B2B3
S3150800100003F0E0BCDFF82C1D0AA804F067FFC0A9AE
S31508001010491C0AA804F07CFF3AA10AA804F078FF44
S315080010200AA9002003F0D4FE0600F6B2002E01D16C
S3150800103004E07CE03000C0B203F0C4BCFFAB203350
S31508001040BEAADFF8E01D0AA804F048FF6FE000BF5B
S315080010505093010843A808F028FE0600F6B2002EB1
S3150800106003D195A808F0A8FD0600EDB2002D09D019
S31508001070C2490AA803F0D4FD0AA803F0A7FD0AA9E5
S3150800108004F0E2FAF6B2002E2CD1DFF8FC1A0AA810
S3150800109003F0C6FD0AA9002003F09AFE0600F6B280
S315080010A0002E09D03000C0B203F08CBCB07F010816
S315080010B0088B010858A00108DFF8D01A0AA804F01E
S315080010C00DFF45A90AA804F023FF0EA10AA804F0FB
S315080010D01FFF0AA9002003F07BFE0600F6B2002EC9
S315080010E001D104E023E03000C0B203F06BBC95AB3D
S315080010F043AADFF8D01A0AA804F0F0FE17E000BFEA
S3150800110078A001080D0A0000308B010898A0010894
S31508001110B8A00108588B0108D8A00108F8A0010852
S31508001120808B0108DFF830140AA803F079FD03F074
S31508001130CFBB5FFA88F8B8F1010F69D151A809F059
S315080011401BF80600F6B2002E03D1FCA808F091FEA3
S315080011500600EDB2002D09D088490AA803F060FD03
S315080011600AA803F033FD0AA904F06EFAF6B2002EB7
S3150800117026D1DFF8CC1D0AA803F052FD0AA90020E3
S3150800118003F026FE0600F6B2002E03D03000C0B2E9
S3150800119003F018BCDFF8AC1D0AA804F09FFE53A99B
S315080011A00AA804F0B5FECEA10AA804F0B1FE0AA961
S315080011B0002003F00DFE0600F6B2002E02D105E06F
S315080011C003F086BB3000C0B203F0FCBBBDF8542167
S315080011D0DFF8741D0AA804F081FE0AA9002003F0AE
S315080011E0F7FD0600F6B2002E03D03000C0B203F0B9
S315080011F0E9BBFCAB51AADFF8541D0AA804F06EFE41
S315080012000AE100BF18A1010838A10108A88B010846
S315080012106078302822D0312800F08A80492840F0AA
S31508001220FB8008F0D3FD0600EDB2002D09D0534926
S315080012300AA803F0F5FC0AA803F0C8FC0AA904F0FA
S3150800124003FAF6B2002E04D1DFF8E81D0AA803F067
S31508001250E7FCE1E074930108F4B8010851A808F026
S315080012608BFF0600EDB2002D09D044490AA803F009
S31508001270D7FC0AA803F0AAFC0AA904F0E5F9F6B215
S31508001280002E26D1DFF8B81C0AA803F0C9FC0AA963
S31508001290002003F09DFD0600F6B2002E03D03000B4
S315080012A0C0B203F08FBBDFF89C1C0AA804F016FE38
S315080012B053A90AA804F02CFE89A10AA804F028FE5E
S315080012C00AA9002003F084FD0600F6B2002E01D11B
S315080012D004E0A1E03000C0B203F074BBBDF85421AD
S315080012E0DFF8641C0AA804F0F9FD0AA9002003F037
S315080012F06FFD0600F6B2002E0CD03000C0B203F027
S3150800130061BB00BFE8B60108A8B3010810A7010829
S3150800131098930108DFF8CC1D0AA804F0DFFD51A94F
S315080013200AA804F0F5FD6EA10AA804F0F1FD73E021
S315080013303DA809F020FA0600EDB2002D09D00F49A4
S315080013400AA803F06DFC0AA803F040FC0AA904F0F9
S315080013507BF9F6B2002E33D1DFF8E41B0AA803F0B6
S315080013605FFC0AA9002003F033FD0600F6B2002E42
S3150800137008D03000C0B203F025BB00BF58A1010851
S31508001380D08B010855490AA804F0A8FD0DF581710E
S315080013900AA804F0BDFD52A10AA804F0B9FD0AA9DD
S315080013A0002003F015FD0600F6B2002E09D10CE068
S315080013B0F88B0108208C010824840108BCB30108B5
S315080013C02AE03000C0B203F0FDBABDF80A215D4933
S315080013D00AA804F083FD0AA9002003F0F9FC060018
S315080013E0F6B2002E03D03000C0B203F0EBBA56496D
S315080013F00AA804F073FD3DA90AA804F089FD53491B
S315080014000AA804F085FD0DF1FB010AA804F080FD89
S3150800141033A10AA804F07CFD03F05ABAEDB2002DF8
S315080014200AD0DFF86C1D0AA803F0FAFB0AA803F035
S31508001430CDFB0AA904F008F9DFF8581D0AA803F03D
S31508001440EFFB03F045BAEDB2002D0AD0DFF8401DD8
S315080014500AA803F0E5FB0AA803F0B8FB0AA904F0FA
S31508001460F3F8DFF8341D0AA803F0DAFB03F030BA04
S3150800147030B50108F4B60108488C01083DA809F002
S31508001480AFFB0600EDB2002D0AD0DFF8041D0AA84E
S3150800149003F0C6FB0AA803F099FB0AA904F0D4F8DE
S315080014A0F6B2002E04D1FFA8083009F0EDFA0600BE
S315080014B0F6B2002E2DD1DFF8E41C0AA803F0B0FB23
S315080014C00AA9002003F084FC0600F6B2002E09D013
S315080014D03000C0B203F076BA708C0108D0B30108A8
S315080014E00D0A0000DFF8D81D0AA804F0F7FC0DF570
S315080014F081710AA804F00CFDD4A10AA804F008FD1D
S315080015000AA9002003F064FC0600F6B2002E02D1F8
S3150800151005E003F0DDB93000C0B203F053BABDF8F8
S315080015200A2108490AA804F0D9FC0AA9002003F0F0
S315080015304FFC0600F6B2002E10D03000C0B203F001
S3150800154041BA00BF78A1010840B5010850B50108A5
S31508001550988C0108C08C010898A10108FFA80F30D3
S3150800156001900DF1FB000090FFAB08333DAADFF8B0
S31508001570A81D0AA804F0B2FC03F0AAB95FFA88F815
S31508001580B8F1010F74D1B4A809F0DAFC0600EDB27F
S31508001590002D0AD0DFF8F81B0AA803F041FB0AA8B9
S315080015A003F014FB0AA904F04FF8F6B2002E5DD139
S315080015B0DFF8BC1D0AA803F033FB0AA9002003F0D4
S315080015C007FC0600F6B2002E03D03000C0B203F0C6
S315080015D0F9B9DFF8A01D0AA804F080FC0AA90020C2
S315080015E003F0F6FB0600F6B2002E03D03000C0B2B8
S315080015F003F0E8B9DFF8CC1D0AA803F011FBBAA975
S315080016000AA804F085FC91A10AA804F081FC0AA99D
S31508001610002003F0DDFB0600F6B2002E03D03000F2
S31508001620C0B203F0CFB9DFF8D41D0AA803F0F8FA60
S31508001630B4A90AA804F06CFCDFF8C41D0AA804F0D3
S3150800164067FCB6A90AA804F063FCDFF8B81D0AA867
S3150800165004F05EFCB8A90AA804F05AFC7BA10AA803
S3150800166004F056FC62E200BFBC93010803F030B9EF
S315080016706078302800F06781312800F0D58132285B
S3150800168000F00282332800F01A82492840F0498285
S315080016905FFA88F8B8F1020F1AD109F04FFB060075
S315080016A0EDB2002D0AD0DFF8E81A0AA803F0B8FA56
S315080016B00AA803F08BFA0AA903F0C6FFF6B2002EB1
S315080016C040F04081DFF8D81D0AA803F0A9FA39E1ED
S315080016D0EDB2002D0AD0DFF8B81A0AA803F0A0FA6E
S315080016E00AA803F073FA0AA903F0AEFF5FFA88F8AE
S315080016F0B8F11D0F0AD0DFF8AC1D0AA803F090FA5E
S3150800170020E100BFD486010804870108A0783A289A
S3150800171017D160792E2814D1207A2E2811D1E07A93
S315080017202E280ED1A07B2E280BD1607C2E2808D11E
S31508001730207D2E2805D1E07D2E2802D1A07E2E28D8
S3150800174005D0DFF8E41D0AA803F06AFAFAE00020DB
S31508001750359000200700092F26DA032000FB07F042
S31508001760204490F903008DF8A800032000FB07F039
S31508001770204490F904008DF8A90000208DF8AA00ED
S315080017802AA803F037F9002807D1DFF8A01D0AA810
S3150800179003F046FA0120359006E02AA803F04FF92F
S315080017A099A9C8557F1CD6E79DF86402082805DB69
S315080017B0DFF8F41D0AA803F033FAB7E19DF86402CE
S315080017C010F007008DF8CD009DF86502022805DBAC
S315080017D0DFF8D81D0AA803F023FAA7E19DF86502E9
S315080017E010F00100C0B2C0008DF8CC009DF866026A
S315080017F0022805DBDFF8B81D0AA803F011FA95E1FF
S315080018009DF8660210F00100C0B200018DF8CB0009
S315080018109DF86702022805DBDFF8101E0AA803F008
S31508001820FFF983E19DF8670210F00100C0B240019C
S315080018308DF8CA009DF8680240280BDBDFF8F01D1A
S315080018400AA803F0EDF971E110A901080D0A0000D4
S31508001850E4B301089DF8680210F03F008DF8C9004E
S315080018609DF86902022805DBDFF8C81D0AA803F0FF
S31508001870D7F95BE19DF8690210F001008021484321
S315080018808DF8C8009DF86A02042805DBDFF8201EDB
S315080018900AA803F0C5F949E19DF86A0210F00300A9
S315080018A08DF8B7009DF86B02042807DBDFF8041EE5
S315080018B00AA803F0B5F939E15C8401089DF86B02C2
S315080018C010F00300C0B280008DF8B6009DF86C02D7
S315080018D0022805DBDFF8E01D0AA803F0A1F925E1D7
S315080018E09DF86C0210F00100C0B200018DF8B50039
S315080018F09DF8CD009DF8CC1008189DF8CB10081857
S315080019009DF8CA1008188DF8EC009DF8C9009DF8D6
S31508001910C81008188DF8ED009DF8B7009DF8B610A8
S3150800192008189DF8B51008188DF8EE003BA809F0C0
S315080019302DFA0600F6B2002E04D1DFF8801D0AA89B
S3150800194003F06EF9F2E0B4A809F0FAFA0600EDB26F
S31508001950002D0AD0DFF838180AA803F061F90AA89A
S3150800196003F034F90AA903F06FFEF6B2002E5AD135
S31508001970DFF8FC190AA803F053F90AA9002003F0B6
S3150800198027FA0600F6B2002E03D03000C0B203F0E4
S3150800199019B8DFF8E0190AA804F0A0FA0AA9002085
S315080019A003F016FA0600F6B2002E03D03000C0B2D5
S315080019B003F008B8DFF80C1A0AA803F031F9BAA937
S315080019C00AA804F0A5FAD6A10AA804F0A1FA0AA959
S315080019D0002003F0FDF90600F6B2002E03D0300011
S315080019E0C0B202F0EFBFDFF8141A0AA803F018F91C
S315080019F0B4A90AA804F08CFADFF8041A0AA804F0B5
S31508001A0087FAB6A90AA804F083FADFF8F8190AA82B
S31508001A1004F07EFAB8A90AA804F07AFAC0A10AA8BE
S31508001A2004F076FA82E081E04DA809F042FA060051
S31508001A30EDB2002D0AD0DFF858170AA803F0F0F81F
S31508001A400AA803F0C3F80AA903F0FEFDF6B2002EB1
S31508001A5019D1DFF8C81D0AA803F0E2F89DF8342169
S31508001A60DFF8BC1D2AA804F039FA2AA90AA804F046
S31508001A704FFA4DA9491C0AA804F04AFAA8A10AA8CF
S31508001A8004F046FA52E051E009F0AAF90600EDB270
S31508001A90002D0AD0DFF8F8160AA803F0C1F80AA83C
S31508001AA003F094F80AA903F0CFFDF6B2002E05D18B
S31508001AB0DFF8E41D0AA803F0B3F837E036E04FA8CC
S31508001AC009F0B0F90600EDB2002D0AD0DFF8C0160D
S31508001AD00AA803F0A5F80AA803F078F80AA903F0FB
S31508001AE0B3FDF6B2002E1BD1DFF8B01D0AA803F02D
S31508001AF097F89DF83C21DFF8281D2AA804F0EEF98E
S31508001B002AA90AA804F004FA4FA9491C0AA804F04D
S31508001B10FFF983A10AA804F0FBF907E05488010835
S31508001B2004E0DFF8F01D0AA803F07AF802F0D0BE48
S31508001B306078442818D055281FD1042009F06CFB7A
S31508001B40EDB2002D0AD0DFF848160AA803F068F8A7
S31508001B500AA803F03BF80AA903F076FDDFF8B81DDA
S31508001B600AA803F05DF80DE0042009F063FBDFF82E
S31508001B70201E0AA803F054F804E0DFF8181E0AA885
S31508001B8003F04EF802F0A4BEE88C010828A9010863
S31508001B905FFA88F8B8F1020F16DAEDB2002D0AD00E
S31508001BA0DFF8EC150AA803F03BF80AA803F00EF8CC
S31508001BB00AA903F049FDDFF8E01D0AA803F030F88A
S31508001BC002F074BE2CA701086078432800F0E8826A
S31508001BD0442802F01082462802F00C86492810D0C4
S31508001BE04B2802F043824C2802F01C864D2802F04E
S31508001BF0D785522802F01E82552802F0698502F020
S31508001C0044BE5FFA88F8B8F1090F15DAEDB2002D6F
S31508001C100AD0DFF87C150AA803F002F80AA802F031
S31508001C20D5FF0AA903F010FDDFF8E41D0AA802F0A3
S31508001C30F7FFAAE280880108A078512800F0FC8105
S31508001C40C0F09E82532802D0C0F0CE8098E2E07899
S31508001C503A2802D1A0792E2816D0EDB2002D0AD046
S31508001C60DFF82C150AA802F0DBFF0AA802F0AEFF7F
S31508001C700AA903F0E9FCDFF8101E0AA802F0D0FF53
S31508001C80B1E000BF48A70108EDB2002D0AD0DFF881
S31508001C9000150AA802F0C4FF0AA802F097FF0AA9CD
S31508001CA003F0D2FC94F904008DF8A80094F9050015
S31508001CB08DF8A90000208DF8AA002AA802F09AFE3D
S31508001CC0002805D1DFF8C41D0AA802F0A9FF8AE09A
S31508001CD02AA802F0B4FE319094F907008DF8A800FE
S31508001CE094F908008DF8A90000208DF8AA002AA802
S31508001CF002F080FE002805D1DFF8081E0AA802F0C7
S31508001D008FFF70E02AA802F09AFE349034980028D3
S31508001D1012D1319ADFF8F01D0AA804F0DFF839E08D
S31508001D200D0A0000E0930108F8B3010840A901086C
S31508001D30B8A101080CB4010800203590002007005E
S31508001D403498874226DA032000FB07F0204490F9EE
S31508001D500A008DF8A800032000FB07F0204490F93C
S31508001D600B008DF8A90000208DF8AA002AA802F019
S31508001D7041FE002807D1DFF8141D0AA802F050FF1B
S31508001D800120359006E02AA802F059FE99A9C855FF
S31508001D907F1CD5E73598002805D1319ADFF8E01D74
S31508001DA00AA804F09BF800200700349887420BDA4B
S31508001DB099A8C25DCCA12AA804F090F82AA90AA875
S31508001DC004F0A6F87F1CF0E7C8A10AA804F0A0F85A
S31508001DD04FF4FA733498020092B299A9319880B2F6
S31508001DE009F046FB0600D0E1E0783A2805D1A0794B
S31508001DF02E2802D1607A2E2816D0EDB2002D0AD0F0
S31508001E00DFF88C130AA802F00BFF0AA802F0DEFE20
S31508001E100AA903F019FCDFF8E01D0AA802F000FF82
S31508001E2006E100BF20B40108EDB2002D09D0D8495B
S31508001E300AA802F0F5FE0AA802F0C8FE0AA903F0ED
S31508001E4003FC94F904008DF8A80094F905008DF8B0
S31508001E50A90000208DF8AA002AA802F0CBFD0028C8
S31508001E6005D1DFF80C1E0AA802F0DAFEE0E02AA87F
S31508001E7002F0E5FD319094F907008DF8A80094F971
S31508001E8008008DF8A90000208DF8AA002AA802F0FB
S31508001E90B1FD002805D1DFF8DC1D0AA802F0C0FE56
S31508001EA0C6E02AA802F0CBFD349094F90A008DF812
S31508001EB0A80094F90B008DF8A90000208DF8AA0057
S31508001EC02AA802F097FD002805D1DFF8201E0AA8E7
S31508001ED002F0A6FEACE02AA802F0B1FD39903498CB
S31508001EE0002806D1319ADFF8081E0AA803F0F6FF83
S31508001EF035E00020359000200700349887422EDA16
S31508001F00032000FB07F0204490F90D008DF8A80087
S31508001F10032000FB07F0204490F90E008DF8A90075
S31508001F2000208DF8AA002AA802F064FD00280FD127
S31508001F30DFF8341E0AA802F073FE012035900EE081
S31508001F4058A9010870A901080494010888A901087C
S31508001F502AA802F074FD99A9C8557F1CCDE73598C3
S31508001F60002805D1319ADFF8041E0AA803F0B6FF47
S31508001F7000200700349887420BDA99A8C25D5AA157
S31508001F802AA803F0ABFF2AA90AA803F0C1FF7F1C01
S31508001F90F0E756A10AA803F0BBFF4FF4FA7334988A
S31508001FA0020092B299A9319880B209F061FA060046
S31508001FB0F6B2002E0ED14FF4FA733998020092B297
S31508001FC099A9319880B209F09EFA0600F6B2002E59
S31508001FD005D100E0D9E0142009F0D0FA0600F6B2DF
S31508001FE0002E25D10AA9002002F0F2FE0600F6B25C
S31508001FF0002E03D03000C0B202F0E4BCDFF8E41DC6
S315080020000AA803F06BFF00200700399887420BDA0D
S3150800201099A8C25D34A12AA803F060FF2AA90AA8D4
S3150800202003F076FF7F1CF0E730A10AA803F070FFE3
S31508002030ABE000BFAC880108E0783A2802D1A07965
S315080020402E2812D0EDB2002D09D051490AA802F067
S31508002050E7FD0AA802F0BAFD0AA903F0F5FADFF8C7
S31508002060FC1D0AA802F0DCFD89E0EDB2002D09D0BE
S3150800207047490AA802F0D4FD0AA802F0A7FD0AA952
S3150800208003F0E2FA94F904008DF8A80094F9050023
S315080020908DF8A90000208DF8AA002AA802F0AAFC4B
S315080020A0002805D1DFF8B81D0AA802F0B9FD66E0D8
S315080020B02AA802F0C4FC319094F907008DF8A8000C
S315080020C094F908008DF8A90000208DF8AA002AA81E
S315080020D002F090FC00280BD1DFF8241E0AA802F0B3
S315080020E09FFD4CE060B5010825782E000D0A00001A
S315080020F02AA802F0A4FC3990319ADFF8F41B0AA842
S3150800210003F0ECFE4FF4FA733998020092B299A9DB
S31508002110319880B209F0F7F90600F6B2002E07D119
S31508002120142009F02BFA0600F6B2002E27D100E09B
S315080021302BE00AA9002002F04BFE0600F6B2002E9C
S3150800214003D03000C0B202F03DBCDFF8981C0AA8E4
S3150800215003F0C4FE00200700399887420BDA99A8D5
S31508002160C25DD1A12AA803F0B9FE2AA90AA803F0DC
S31508002170CFFE7F1CF0E7CDA10AA803F0C9FE04E054
S31508002180DFF890170AA802F04BFD02F08FBB00BFDC
S3150800219058A1010834870108A0A9010834B4010828
S315080021A0002006005FFA88F8B8F1020F40F0E480D4
S315080021B0052005F0F9FA002804D056A806F07AFB9F
S315080021C006000BE0062005F0EFFA002804D056A812
S315080021D005F0A1FC060001E001200600F6B2002E7B
S315080021E040F0B1803DA808F04FFC0600F6B2002E7C
S315080021F040F0948051A807F03CFE0600F6B2002E87
S3150800220075D1ADA803F0BCFE0600F6B2002E59D172
S31508002210EDB2002D25D0ADA8099051A808903DA88B
S31508002220079056A8069086A8059080A804907AA8D4
S31508002230039074A802906EA8019068A8009062ABFB
S315080022405CAADFF8801D0AA803F048FEDFF8781DAF
S315080022500AA802F0E5FC0AA802F0B8FC0AA903F0ED
S31508002260F3F9ADA8099051A808903DA8079056A87B
S31508002270069086A8059080A804907AA8039074A86A
S3150800228002906EA8019068A8009062AB5CAADFF87D
S315080022903C1D0AA803F022FE0AA9002002F098FDB8
S315080022A00600F6B2002E03D03000C0B202F08ABB98
S315080022B0DFF82C1E0AA803F011FE01F09ABE00BF33
S315080022C0D0B30108EDB2002D0AD0DFF8181E0AA80F
S315080022D002F0A6FC0AA802F079FC0AA903F0B4F9F0
S315080022E0DFF8041E0AA803F0F9FD01F082BEEDB27C
S315080022F0002D0AD0DFF8F41D0AA802F091FC0AA8FE
S3150800230002F064FC0AA903F09FF9DFF8E41D0AA8A5
S3150800231003F0E4FD01F06DBE108D0108EDB2002D4D
S315080023200AD0DFF8D01D0AA802F07AFC0AA802F043
S315080023304DFC0AA903F088F9DFF8501E0AA803F035
S31508002340CDFD01F056BEEDB2002D0AD0DFF8401ED5
S315080023500AA802F065FC0AA802F038FC0AA903F0EC
S3150800236073F9DFF8301E0AA803F0B8FD01F041BE84
S3150800237064A7010894840108A078492801F00C860E
S31508002380522800F0E985532804D0542801F09F8587
S3150800239001F02FBEE0783A2816D0EDB2002D0AD00B
S315080023A0DFF8F41D0AA802F03BFC0AA802F00EFCAE
S315080023B00AA903F049F9DFF8E41D0AA802F030FC7F
S315080023C000F0C8BD70B501085FFA88F8B8F1050FC6
S315080023D01ADAEDB2002D0AD0DFF8581E0AA802F064
S315080023E01FFC0AA802F0F2FB0AA903F02DF9DFF890
S315080023F0481E0AA802F014FC00F0ACBD00B701089C
S315080024000CB7010818B70108201D3090309948A864
S3150800241002F006FC002029900020289028A80090A9
S3150800242029AB36AADFF8141E48A809F08FF9032845
S3150800243040F07E85289809F09BF9CDE90201299894
S3150800244009F096F9CDE9000136AADFF8F41D0AA8C5
S3150800245003F044FD0422DFF8EC1D36A809F0AFF9B5
S3150800246000283AD1299A2899002009F025FA060069
S31508002470F6B2002E1CD1EDB2002D0AD0DFF85C1E94
S315080024800AA802F0CDFB0AA802F0A0FB0AA903F0ED
S31508002490DBF8DFF84C1E0AA803F020FD00F045BD66
S315080024A0207F0108F47F010825782E000D0A000018
S315080024B0EDB2002D0AD0DFF82C1E0AA802F0B0FBF8
S315080024C00AA802F083FB0AA903F0BEF8DFF8181E73
S315080024D00AA803F003FD00F028BD0422DFF80C1E4D
S315080024E036A809F06CF9002837D1299A28990120CD
S315080024F009F0E2F90600F6B2002E19D1EDB2002D68
S315080025000AD0DFF8EC1D0AA802F08AFB0AA802F036
S315080025105DFB0AA903F098F8DFF86C1E0AA803F019
S31508002520DDFC00F002BD00BF687F0108FC800108E1
S31508002530EDB2002D0AD0DFF8541E0AA802F070FB8F
S315080025400AA802F043FB0AA903F07EF8DFF8981DF3
S315080025500AA803F0C3FC00F0E8BC0422DFF8301E2A
S3150800256036A809F02CF9002839D1299A2899022089
S3150800257009F0A2F90600F6B2002E1BD1EDB2002D25
S315080025800AD0DFF8101E0AA802F04AFB0AA802F0D1
S315080025901DFB0AA903F058F8DFF8FC1D0AA803F08A
S315080025A09DFC00F0C2BC00BFFC820108388301080C
S315080025B074830108EDB2002D0AD0DFF8741E0AA84C
S315080025C002F02EFB0AA802F001FB0AA903F03CF868
S315080025D0DFF8141D0AA803F081FC00F0A6BC04224B
S315080025E0DFF8501E36A809F0EAF8002839D1299AEA
S315080025F02899032009F060F90600F6B2002E1BD1CF
S31508002600EDB2002D0AD0DFF8301E0AA802F008FB4A
S315080026100AA802F0DBFA0AA903F016F8DFF81C1E6E
S315080026200AA803F05BFC00F080BC00BFCC8401085C
S315080026303C8101087C810108EDB2002D0AD0DFF843
S31508002640001E0AA802F0ECFA0AA802F0BFFA0AA9C4
S3150800265002F0FAFFDFF8901C0AA803F03FFC00F02E
S3150800266064BC0422DFF8701E36A809F0A8F8002812
S315080026703BD1299A2899042009F01EF90600F6B2DA
S31508002680002E1DD1EDB2002D0AD0DFF8501E0AA883
S3150800269002F0C6FA0AA802F099FA0AA902F0D4FFCB
S315080026A0DFF83C1E0AA803F019FC00F03EBC00BF88
S315080026B0BC810108FC8101083C82010838800108B8
S315080026C0EDB2002D0AD0DFF81C1E0AA802F0A8FAFF
S315080026D00AA802F07BFA0AA902F0B6FFDFF8081C7E
S315080026E00AA803F0FBFB00F020BC0422DFF8F81D63
S315080026F036A809F064F8002831D1299A28990520C6
S3150800270009F0DAF80600F6B2002E14D1EDB2002D63
S315080027100AD0DFF86C1E0AA802F082FA0AA802F0AC
S3150800272055FA0AA902F090FFDFF8581E0AA803F026
S31508002730D5FB00F0FABBEDB2002D0AD0DFF8481E33
S315080027400AA802F06DFA0AA802F040FA0AA902F0ED
S315080027507BFFDFF8941B0AA803F0C0FBE5E304221D
S31508002760DFF8281E36A809F02AF8002830D1299A59
S315080027702899062009F0A0F80600F6B2002E13D113
S31508002780EDB2002D0AD0DFF8081E0AA802F048FAB2
S315080027900AA802F01BFA0AA902F056FFDFF8881EFB
S315080027A00AA803F09BFBC0E3EDB2002D0AD0DFF8C0
S315080027B07C1E0AA802F034FA0AA802F007FA0AA947
S315080027C002F042FFDFF8201B0AA803F087FBACE300
S315080027D00422DFF85C1E36A808F0F1FF002835D180
S315080027E0299A2899072009F067F80600F6B2002EFC
S315080027F018D1EDB2002D0AD0DFF8381E0AA802F06B
S315080028000FFA0AA802F0E2F90AA902F01DFFDFF89A
S31508002810281E0AA803F062FB87E300BFD8A10108B7
S31508002820FCB80108EDB2002D0AD0DFF8A01E0AA8F0
S3150800283002F0F6F90AA802F0C9F90AA902F004FF9B
S31508002840DFF8A41A0AA803F049FB6EE30422DFF8AE
S31508002850801E36A808F0B3FF002835D1299A289992
S31508002860082009F029F80600F6B2002E18D1EDB2B4
S31508002870002D0AD0DFF85C1E0AA802F0D1F90AA8D2
S3150800288002F0A4F90AA902F0DFFEDFF84C1E0AA836
S3150800289003F024FB49E300BF70850108289401086A
S315080028A0EDB2002D0AD0DFF8341E0AA802F0B8F9F6
S315080028B00AA802F08BF90AA902F0C6FEDFF8281A60
S315080028C00AA803F00BFB30E30422DFF8A41E36A89F
S315080028D008F075FF002835D1299A2899092008F0AB
S315080028E0EBFF0600F6B2002E18D1EDB2002D0AD085
S315080028F0DFF8801E0AA802F093F90AA802F066F922
S315080029000AA902F0A1FEDFF8701E0AA803F0E6FA8B
S315080029100BE300BF98A10108F8A10108EDB2002D4C
S315080029200AD0DFF8581E0AA802F07AF90AA802F0B7
S315080029304DF90AA902F088FEDFF8AC190AA803F0D7
S31508002940CDFAF2E20422DFF8381E36A808F037FF7F
S31508002950002837D1299A28990A2008F0ADFF0600E1
S31508002960F6B2002E1AD1EDB2002D0AD0DFF8A41E59
S315080029700AA802F055F90AA802F028F90AA902F0ED
S3150800298063FEDFF8941E0AA803F0A8FACDE200BF9A
S3150800299018A20108D888010838A20108EDB2002D4E
S315080029A00AD0DFF8781E0AA802F03AF90AA802F057
S315080029B00DF90AA902F048FEDFF82C190AA803F057
S315080029C08DFAB2E20422DFF8581E36A808F0F7FEA0
S315080029D0002833D1299A28990B2008F06DFF0600A4
S315080029E0F6B2002E16D1EDB2002D0AD0DFF8341E4D
S315080029F00AA802F015F90AA802F0E8F80AA902F0EE
S31508002A0023FEDFF8B41E0AA803F068FA8DE200BFB9
S31508002A10388D0108EDB2002D0AD0DFF8A01E0AA8ED
S31508002A2002F0FEF80AA802F0D1F80AA902F00CFE94
S31508002A30DFF8B4180AA803F051FA76E20422DFF8A0
S31508002A40801E36A808F0BBFE002835D1299A289999
S31508002A500C2008F031FF0600F6B2002E18D1EDB2B0
S31508002A60002D0AD0DFF85C1E0AA802F0D9F80AA8D9
S31508002A7002F0ACF80AA902F0E7FDDFF84C1E0AA836
S31508002A8003F02CFA51E200BF608D010804890108A1
S31508002A90EDB2002D0AD0DFF8C41E0AA802F0C0F86D
S31508002AA00AA802F093F80AA902F0CEFDDFF8381852
S31508002AB00AA803F013FA38E20422DFF8A41E36A89F
S31508002AC008F07DFE002835D1299A28990D2008F0AE
S31508002AD0F3FE0600F6B2002E18D1EDB2002D0AD08C
S31508002AE0DFF8801E0AA802F09BF80AA802F06EF822
S31508002AF00AA902F0A9FDDFF8701E0AA803F0EEF98C
S31508002B0013E200BFA4850108B8A90108EDB2002D9B
S31508002B100AD0DFF8581E0AA802F082F80AA802F0BE
S31508002B2055F80AA902F090FDDFF8BC170AA803F0C9
S31508002B30D5F9FAE10422DFF8C81E36A808F03FFEE8
S31508002B40002833D1299A28990E2008F0B5FE0600E8
S31508002B50F6B2002E16D1EDB2002D0AD0DFF8A41E6B
S31508002B600AA802F05DF80AA802F030F80AA902F0ED
S31508002B706BFDDFF8941E0AA803F0B0F9D5E100BF93
S31508002B8048B40108EDB2002D0AD0DFF8801E0AA865
S31508002B9002F046F80AA802F019F80AA902F054FD4C
S31508002BA0DFF844170AA803F099F9BEE10422DFF812
S31508002BB0601E36A808F003FE002833D1299A289902
S31508002BC00F2008F079FE0600F6B2002E16D1EDB2F7
S31508002BD0002D0AD0DFF8CC1E0AA802F021F80AA8B0
S31508002BE001F0F4FF0AA902F02FFDDFF8BC1E0AA8BF
S31508002BF003F074F999E100BF888D0108EDB2002D44
S31508002C000AD0DFF8A81E0AA802F00AF80AA801F0F6
S31508002C10DDFF0AA902F018FDDFF8CC160AA803F0B2
S31508002C205DF982E10422DFF8881E36A808F0C7FDA0
S31508002C30002835D1299A2899102008F03DFE06006B
S31508002C40F6B2002E18D1EDB2002D0AD0DFF8641EB8
S31508002C500AA801F0E5FF0AA801F0B8FF0AA902F0E0
S31508002C60F3FCDFF8541E0AA803F038F95DE100BF4B
S31508002C7030890108D8850108EDB2002D0AD0DFF8A1
S31508002C80CC1E0AA801F0CCFF0AA801F09FFF0AA9EA
S31508002C9002F0DAFCDFF850160AA803F01FF944E13F
S31508002CA00422DFF8AC1E36A808F089FD002835D1C5
S31508002CB0299A2899112008F0FFFD0600F6B2002E81
S31508002CC018D1EDB2002D0AD0DFF8881E0AA801F047
S31508002CD0A7FF0AA801F07AFF0AA902F0B5FCDFF8F7
S31508002CE0781E0AA803F0FAF81FE100BFB0830108AE
S31508002CF0D0A90108EDB2002D0AD0DFF8601E0AA897
S31508002D0001F08EFF0AA801F061FF0AA902F09CFCF7
S31508002D10DFF8D4150AA803F0E1F806E10422DFF883
S31508002D20D01E36A808F04BFD002835D1299A2899D7
S31508002D30122008F0C1FD0600F6B2002E18D1EDB239
S31508002D40002D0AD0DFF8AC1E0AA801F069FF0AA810
S31508002D5001F03CFF0AA902F077FCDFF89C1E0AA8DE
S31508002D6003F0BCF8E1E000BFB08D01085CB40108CF
S31508002D70EDB2002D0AD0DFF8841E0AA801F050FF34
S31508002D800AA801F023FF0AA902F05EFCDFF858152D
S31508002D900AA803F0A3F8C8E00422DFF8641E36A8E0
S31508002DA008F00DFD002833D1299A2899132008F038
S31508002DB083FD0600F6B2002E16D1EDB2002D0AD01C
S31508002DC0DFF8D01E0AA801F02BFF0AA801F0FEFEC4
S31508002DD00AA902F039FCDFF8C01E0AA803F07EF83B
S31508002DE0A3E000BF24B70108EDB2002D0AD0DFF832
S31508002DF0AC1E0AA801F014FF0AA801F0E7FE0AA90A
S31508002E0002F022FCDFF8E0140AA803F067F88CE069
S31508002E100422DFF88C1E36A808F0D1FC002835D12C
S31508002E20299A2899142008F047FD0600F6B2002EC4
S31508002E3018D1EDB2002D0AD0DFF8F81E0AA801F065
S31508002E40EFFE0AA801F0C2FE0AA902F0FDFBDFF8B0
S31508002E50E81E0AA803F042F867E000BFD88D01080B
S31508002E605C890108EDB2002D0AD0DFF8D01E0AA849
S31508002E7001F0D6FE0AA801F0A9FE0AA902F0E4FBB1
S31508002E80DFF864140AA803F029F84EE00422DFF8F4
S31508002E90B01E36A808F093FC002833D1299A289941
S31508002EA0152008F009FD0600F6B2002E13D1EDB282
S31508002EB0002D0AD0DFF88C1E0AA801F0B1FE0AA878
S31508002EC001F084FE0AA902F0BFFBDFF87C1E0AA8FF
S31508002ED003F004F829E0EDB2002D0AD0DFF8FC1E55
S31508002EE00AA801F09DFE0AA801F070FE0AA902F0E0
S31508002EF0ABFBDFF8F4130AA802F0F0FF15E000BFF9
S31508002F000C860108EDB2002D0AD0DFF8D41E0AA8F7
S31508002F1001F086FE0AA801F059FE0AA902F094FB00
S31508002F20DFF8C01E0AA802F0D9FF0020060011E04B
S31508002F30EDB2002D09D0BF490AA801F071FE0AA812
S31508002F4001F044FE0AA902F07FFBDFF89C1E0AA8DE
S31508002F5001F066FE01F04DB8EDB2002D0DD008F077
S31508002F60DDFC0200DFF8841E0AA802F0B7FF0AA8F3
S31508002F7001F02CFE0AA902F067FB08F0CFFC02005C
S31508002F80DFF8141F0AA802F0A9FF0AA9002001F019
S31508002F901FFF0600F6B2002E03D03000C0B201F0C3
S31508002FA011BDDFF8F81E0AA802F098FF0AA900204A
S31508002FB001F00EFF0600F6B2002E09D03000C0B2AE
S31508002FC001F000BD7C82010858A10108008E0108A5
S31508002FD000200700162F80F26687002F36D0022FB2
S31508002FE000F0DE80C0F08880042F00F08381C0F0F6
S31508002FF02B81062F00F02682C0F0D081082F00F022
S31508003000C982C0F073820A2F00F06A83C0F0168363
S315080030100C2F00F00984C0F0B5830E2F00F0A884A9
S31508003020C0F05484102F00F04985C0F0F384122FA5
S3150800303000F0E885C0F09485142F00F08786C0F06C
S315080030403186152F00F0D48600F019BFEDB2002D99
S3150800305024D03800C0B208F050FC83463800C0B20D
S3150800306008F051FC81463800C0B208F052FC82468E
S31508003070584608F07DFBCDE90201484608F078FB82
S31508003080CDE900015246DFF8E41E0AA802F026FF41
S315080030900AA801F09BFD0AA902F0D6FA3800C0B2C8
S315080030A008F02BFC83463800C0B208F02CFC814699
S315080030B03800C0B208F02DFC8246584608F058FB86
S315080030C0CDE90201484608F053FBCDE90001524616
S315080030D0DFF8F41E0AA802F001FF00F0D0BE00BF18
S315080030E030B70108288E0108E8A90108508E0108A2
S315080030F000AA010888890108EDB2002D24D03800FD
S31508003100C0B208F0FAFB83463800C0B208F0FBFBF1
S3150800311081463800C0B208F0FCFB8246584608F0E3
S3150800312027FBCDE90201484608F022FBCDE900015C
S315080031305246DFF8FC1E0AA802F0D0FE0AA801F0E3
S3150800314045FD0AA902F080FA3800C0B208F0D5FB9E
S3150800315083463800C0B208F0D6FB81463800C0B2B4
S3150800316008F0D7FB8246584608F002FBCDE9020173
S31508003170484608F0FDFACDE900015246DFF8E81E98
S315080031800AA802F0ABFE00F07ABE00BF4C94010814
S31508003190788E01087094010858A20108A08E0108CB
S315080031A0EDB2002D24D03800C0B208F0A6FB834645
S315080031B03800C0B208F0A7FB81463800C0B208F054
S315080031C0A8FB8246584608F0D3FACDE902014846DC
S315080031D008F0CEFACDE900015246DFF8C81E0AA863
S315080031E002F07CFE0AA801F0F1FC0AA902F02CFA0A
S315080031F03800C0B208F081FB83463800C0B208F038
S3150800320082FB81463800C0B208F083FB82465846E6
S3150800321008F0AEFACDE90201484608F0A9FACDE968
S3150800322000015246DFF8D81E0AA802F057FE00F041
S3150800323026BE00BF94940108B89401083CB701085B
S3150800324018AA010804B90108EDB2002D24D03800E7
S31508003250C0B208F052FB83463800C0B208F053FBF0
S3150800326081463800C0B208F054FB8246584608F03A
S315080032707FFACDE90201484608F07AFACDE900015D
S315080032805246DFF8801E0AA802F028FE0AA801F0B6
S315080032909DFC0AA902F0D8F93800C0B208F02DFB47
S315080032A083463800C0B208F02EFB81463800C0B20B
S315080032B008F02FFB8246584608F05AFACDE9020173
S315080032C0484608F055FACDE900015246DFF8381E9F
S315080032D00AA802F003FE00F0D2BD00BFDC94010884
S315080032E080A70108C88E01089CA701080CB9010827
S315080032F078A20108EDB2002D24D03800C0B208F03B
S31508003300FCFA83463800C0B208F0FDFA8146380058
S31508003310C0B208F0FEFA8246584608F029FACDE906
S315080033200201484608F024FACDE900015246DFF8C2
S31508003330881E0AA802F0D2FD0AA801F047FC0AA9CD
S3150800334002F082F93800C0B208F0D7FA834638008E
S31508003350C0B208F0D8FA81463800C0B208F0D9FAE7
S315080033608246584608F004FACDE90201484608F0B4
S31508003370FFF9CDE900015246DFF89C1E0AA802F0C3
S31508003380ADFD00F07CBD00BF30AA0108009501081C
S3150800339014B9010898A2010870B40108EDB2002D0D
S315080033A024D03800C0B208F0A8FA83463800C0B264
S315080033B008F0A9FA81463800C0B208F0AAFA82468F
S315080033C0584608F0D5F9CDE90201484608F0D0F983
S315080033D0CDE900015246DFF8441E0AA802F07EFD38
S315080033E00AA801F0F3FB0AA902F02EF93800C0B2C8
S315080033F008F083FA83463800C0B208F084FA81469A
S315080034003800C0B208F085FA8246584608F0B0F986
S31508003410CDE90201484608F0ABF9CDE9000152466C
S31508003420DFF8FC1D0AA802F059FD00F028BD00BF10
S31508003430249501081CB90108B8A2010848AA010880
S3150800344048950108EDB2002D24D03800C0B208F026
S3150800345054FA83463800C0B208F055FA8146380057
S31508003460C0B208F056FA8246584608F081F9CDE906
S315080034700201484608F07CF9CDE900015246DFF81A
S31508003480AC1E0AA802F02AFD0AA801F09FFB0AA9A9
S3150800349002F0DAF83800C0B208F02FFA834638008E
S315080034A0C0B208F030FA81463800C0B208F031FAE6
S315080034B08246584608F05CF9CDE90201484608F00C
S315080034C057F9CDE900015246DFF8641E0AA802F052
S315080034D005FD00F0D4BC00BF24B90108D8A2010834
S315080034E084B401086C9501082CB90108EDB2002DC9
S315080034F024D03800C0B208F000FA83463800C0B2BB
S3150800350008F001FA81463800C0B208F002FA82468D
S31508003510584608F02DF9CDE90201484608F028F981
S31508003520CDE900015246DFF86C1E0AA802F0D6FC67
S315080035300AA801F04BFB0AA902F086F83800C0B2C7
S3150800354008F0DBF983463800C0B208F0DCF981469A
S315080035503800C0B208F0DDF98246584608F008F986
S31508003560CDE90201484608F003F9CDE900015246C3
S31508003570DFF8701E0AA802F0B1FC00F080BC00BF9C
S31508003580F8A2010898B401089095010834B9010811
S31508003590B4950108EDB2002D24D03800C0B208F069
S315080035A0ACF983463800C0B208F0ADF98146380058
S315080035B0C0B208F0AEF98246584608F0D9F8CDE907
S315080035C00201484608F0D4F8CDE900015246DFF872
S315080035D0741E0AA802F082FC0AA801F0F7FA0AA9E2
S315080035E002F032F83800C0B208F087F9834638008E
S315080035F0C0B208F088F981463800C0B208F089F9E7
S315080036008246584608F0B4F8CDE90201484608F063
S31508003610AFF8CDE900015246DFF82C1E0AA802F0E1
S315080036205DFC00F02CBC00BF60AA0108F08E010802
S315080036303CB90108D895010878AA0108EDB2002D11
S3150800364024D03800C0B208F058F983463800C0B212
S3150800365008F059F981463800C0B208F05AF982468E
S31508003660584608F085F8CDE90201484608F080F882
S31508003670CDE900015246DFF8D41D0AA802F02EFC57
S315080036800AA801F0A3FA0AA901F0DEFF3800C0B2C1
S3150800369008F033F983463800C0B208F034F9814699
S315080036A03800C0B208F035F98246584608F060F886
S315080036B0CDE90201484608F05BF8CDE9000152461B
S315080036C0DFF8701E0AA802F009FCD8E3188F010873
S315080036D044B90108FC95010890AA0108408F010821
S315080036E0EDB2002D24D03800C0B208F006F98346A2
S315080036F03800C0B208F007F981463800C0B208F0B1
S3150800370008F98246584608F033F8CDE902014846DA
S3150800371008F02EF8CDE900015246DFF81C1E0AA86B
S3150800372002F0DCFB0AA801F051FA0AA901F08CFFA5
S315080037303800C0B208F0E1F883463800C0B208F095
S31508003740E2F881463800C0B208F0E3F882465846E7
S3150800375008F00EF8CDE90201484608F009F8CDE967
S3150800376000015246DFF8441E0AA802F0B7FB86E3BA
S315080037704CB9010820960108A8AA0108688F010813
S3150800378054B90108EDB2002D24D03800C0B208F0B3
S31508003790B4F883463800C0B208F0B5F88146380058
S315080037A0C0B208F0B6F88246584607F0E1FFCDE900
S315080037B00201484607F0DCFFCDE900015246DFF872
S315080037C0481E0AA802F08AFB0AA801F0FFF90AA90E
S315080037D001F03AFF3800C0B208F08FF88346380087
S315080037E0C0B208F090F881463800C0B208F091F8E7
S315080037F08246584607F0BCFFCDE90201484607F065
S31508003800B7FFCDE900015246DFF8341E0AA802F0D8
S3150800381065FB34E318A30108C0AA01084496010809
S315080038205CB9010868960108EDB2002D24D038006D
S31508003830C0B208F062F883463800C0B208F063F8F0
S3150800384081463800C0B208F064F88246584607F048
S315080038508FFFCDE90201484607F08AFFCDE900014E
S315080038605246DFF83C1E0AA802F038FB0AA801F007
S31508003870ADF90AA901F0E8FE3800C0B208F03DF833
S3150800388083463800C0B208F03EF881463800C0B218
S3150800389008F03FF88246584607F06AFFCDE902016C
S315080038A0484607F065FFCDE900015246DFF8F41DEA
S315080038B00AA802F013FBE2E2D8AA0108908F0108D1
S315080038C064B901088C960108F0AA0108EDB2002D2A
S315080038D024D03800C0B208F010F883463800C0B2C9
S315080038E008F011F881463800C0B208F012F882468E
S315080038F0584607F03DFFCDE90201484607F038FF74
S31508003900CDE900015246DFF8381E0AA802F0E6FAA9
S315080039100AA801F05BF90AA901F096FE3800C0B2C0
S3150800392007F0EBFF83463800C0B207F0ECFF81468C
S315080039303800C0B207F0EDFF8246584607F018FF78
S31508003940CDE90201484607F013FFCDE900015246CA
S31508003950DFF8201E0AA802F0C1FA90E2B88F010823
S315080039606CB9010838A3010808AB0108B09601082C
S31508003970EDB2002D24D03800C0B207F0BEFF834652
S315080039803800C0B207F0BFFF81463800C0B207F062
S31508003990C0FF8246584607F0EBFECDE902014846CD
S315080039A007F0E6FECDE900015246DFF8301E0AA808
S315080039B002F094FA0AA801F009F90AA901F044FEEE
S315080039C03800C0B207F099FF83463800C0B207F046
S315080039D09AFF81463800C0B207F09BFF82465846D8
S315080039E007F0C6FECDE90201484607F0C1FECDE95B
S315080039F000015246DFF8281E0AA802F06FFA3EE2D6
S31508003A0074B90108D496010820AB0108E08F0108B3
S31508003A107CB90108EDB2002D24D03800C0B207F0F9
S31508003A206CFF83463800C0B207F06DFF8146380048
S31508003A30C0B207F06EFF8246584607F099FECDE9F8
S31508003A400201484607F094FECDE900015246DFF828
S31508003A50301E0AA802F042FA0AA801F0B7F80AA925
S31508003A6001F0F2FD3800C0B207F047FF8346380080
S31508003A70C0B207F048FF81463800C0B207F049FFD8
S31508003A808246584607F074FECDE90201484607F01B
S31508003A906FFECDE900015246DFF8E81D0AA802F0DC
S31508003AA01DFAECE1F896010838AB01080890010800
S31508003AB084B901081C97010850AB0108EDB2002D26
S31508003AC024D03800C0B207F018FF83463800C0B2C9
S31508003AD007F019FF81463800C0B207F01AFF824680
S31508003AE0584607F045FECDE90201484607F040FE74
S31508003AF0CDE900015246DFF8EC1D0AA802F0EEF9FE
S31508003B000AA801F063F80AA901F09EFD3800C0B2C0
S31508003B1007F0F3FE83463800C0B207F0F4FE81468C
S31508003B203800C0B207F0F5FE8246584607F020FE78
S31508003B30CDE90201484607F01BFECDE900015246D1
S31508003B40DFF8F01D0AA802F0C9F998E130900108DB
S31508003B508CB901084097010868AB0108589001081C
S31508003B60EDB2002D24D03800C0B207F0C6FE834659
S31508003B703800C0B207F0C7FE81463800C0B207F069
S31508003B80C8FE8246584607F0F3FDCDE902014846CD
S31508003B9007F0EEFDCDE900015246DFF8DC1D0AA864
S31508003BA002F09CF90AA801F011F80AA901F04CFDE7
S31508003BB03800C0B207F0A1FE83463800C0B207F04D
S31508003BC0A2FE81463800C0B207F0A3FE82465846D8
S31508003BD007F0CEFDCDE90201484607F0C9FDCDE95B
S31508003BE000015246DFF8941D0AA802F077F946E16B
S31508003BF094B901086497010880AB01088090010810
S31508003C009CB90108EDB2002D24D03800C0B207F0E7
S31508003C1074FE83463800C0B207F075FE8146380048
S31508003C20C0B207F076FE8246584607F0A1FDCDE9F8
S31508003C300201484607F09CFDCDE900015246DFF82F
S31508003C40901D0AA802F04AF90AA800F0BFFF0AA9BF
S31508003C5001F0FAFC3800C0B207F04FFE8346380080
S31508003C60C0B207F050FE81463800C0B207F051FED8
S31508003C708246584607F07CFDCDE90201484607F022
S31508003C8077FDCDE900015246DFF8481D0AA802F083
S31508003C9025F9F4E08897010898AB0108A89001086F
S31508003CA0A4B90108EDB2002D24D03800C0B207F03F
S31508003CB024FE83463800C0B207F025FE8146380048
S31508003CC0C0B207F026FE8246584607F051FDCDE9F8
S31508003CD00201484607F04CFDCDE900015246DFF8DF
S31508003CE0F81C0AA802F0FAF80AA800F06FFF0AA959
S31508003CF001F0AAFC3800C0B207F0FFFD8346380081
S31508003D00C0B207F000FE81463800C0B207F001FED7
S31508003D108246584607F02CFDCDE90201484607F0D1
S31508003D2027FDCDE900015246DFF8B01C0AA802F0CB
S31508003D30D5F8A4E0AC970108B0AB0108D09001080B
S31508003D40ACB90108D0970108C8AB0108EDB2002D3F
S31508003D5024D03800C0B207F0D0FD83463800C0B280
S31508003D6007F0D1FD81463800C0B207F0D2FD824681
S31508003D70584607F0FDFCCDE90201484607F0F8FC75
S31508003D80CDE900015246DFF8581C0AA802F0A6F849
S31508003D900AA800F01BFF0AA901F056FC3800C0B2B9
S31508003DA007F0ABFD83463800C0B207F0ACFD81468C
S31508003DB03800C0B207F0ADFD8246584607F0D8FC79
S31508003DC0CDE90201484607F0D3FCCDE90001524689
S31508003DD0DFF8101C0AA802F081F850E0F8900108F4
S31508003DE0F497010858A301086487010880B50108FB
S31508003DF0EDB2002D24D03800C0B207F07EFD834610
S31508003E003800C0B207F07FFD81463800C0B207F01F
S31508003E1080FD8246584607F0ABFCCDE902014846CC
S31508003E2007F0A6FCCDE900015246DFF8BC1B0AA83C
S31508003E3002F054F80AA800F0C9FE0AA901F004FC29
S31508003E403800C0B207F059FD83463800C0B207F003
S31508003E505AFD81463800C0B207F05BFD82465846D7
S31508003E6007F086FCCDE90201484607F081FCCDE95A
S31508003E7000015246DFF8741B0AA802F02FF80AA9B7
S31508003E80002000F0A5FF0600F6B2002E08D030008C
S31508003E90C0B200F097BD00BF78A3010818980108C2
S31508003EA07F1CFFF797B8EDB2002D0AD0DFF8401B4C
S31508003EB00AA800F0B5FE0AA800F088FE0AA901F0D3
S31508003EC0C3FBDFF8D81B0AA802F008F891E0E078EF
S31508003ED03A2813D0EDB2002D0AD0DFF8C41B0AA881
S31508003EE000F09EFE0AA800F071FE0AA901F0ACFBDC
S31508003EF0DFF8B01B0AA800F093FE4CE05FFA88F8DA
S31508003F00B8F1050F13DAEDB2002D0AD0DFF8981BC9
S31508003F100AA800F085FE0AA800F058FE0AA901F0D2
S31508003F2093FBDFF8881B0AA800F07AFE33E0201D11
S31508003F303090309948A800F073FE309807F0D5FC09
S31508003F400600F6B2002E13D0EDB2002D0AD0DFF827
S31508003F50601B0AA800F064FE0AA800F037FE0AA94A
S31508003F6001F072FB3000C0B200F02CBDE0AB0108D6
S31508003F70EDB2002D0AD0DFF83C1B0AA800F050FE6F
S31508003F800AA800F023FE0AA901F05EFBDFF80C1B65
S31508003F900AA801F0A3FF2CE007F043FC0600F6B2DE
S31508003FA0002E13D0EDB2002D0AD0DFF80C1B0AA89C
S31508003FB000F036FE0AA800F009FE0AA901F044FB43
S31508003FC03000C0B200F0FEBCF8AB0108EDB2002D1F
S31508003FD00AD0DFF8E81A0AA800F022FE0AA800F0BC
S31508003FE0F5FD0AA901F030FBDFF8B01A0AA801F0BE
S31508003FF075FF00F05BBC03F017FCADF8CE00EDB220
S31508004000002D0CD0BDF8CE20DFF8B41A0AA801F0AE
S3150800401065FF0AA800F0DAFD0AA901F015FBBDF84C
S31508004020CE20DFF8A01A0AA801F058FF00F03EBC1F
S3150800403010AC0108EDB2002D0DD0DFF88C1A0AA8D5
S3150800404000F0EEFD0AA800F0C1FD0AA901F0FCFA8D
S31508004050642007F083FC07F038FDDFF8701A0AA819
S3150800406001F03CFF00F022BC98A3010800200600DE
S315080040705FFA88F8B8F1040F16DAEDB2002D0AD007
S31508004080DFF84C1A0AA800F0CBFD0AA800F09EFD3E
S315080040900AA901F0D9FADFF83C1A0AA800F0C0FD0F
S315080040A015E300BF28AC0108A078522800F0468224
S315080040B0532840F0F982E078422800F0AC81522873
S315080040C006D0532800F09180542800F017812AE280
S315080040D020793A281AD0EDB2002D0AD0DFF8F8195F
S315080040E00AA800F09DFD0AA800F070FD0AA901F0D3
S315080040F0ABFADFF8E8190AA800F092FD74E000BFF1
S3150800410040AC010858AC0108B8A301085FFA88F862
S31508004110B8F1060F10DB01202E90052007005FFA84
S3150800412088F847450ADAE05D07F000FD002801D166
S3150800413000202E907F1CF2E700202E902E98002853
S3150800414013D1EDB2002D0AD0DFF894190AA800F0B1
S3150800415067FD0AA800F03AFD0AA901F075FADFF82A
S3150800416084190AA800F05CFD3EE0601D3090309985
S3150800417048A800F055FD48A807F0DDFC2F902F98B9
S3150800418042F21071884202DA2F98002816D5EDB24D
S31508004190002D0AD0DFF848190AA800F041FD0AA840
S315080041A000F014FD0AA901F04FFADFF838190AA839
S315080041B000F036FD18E000BF70AC01082F9807F034
S315080041C074FDEDB2002D0AD0DFF81C190AA800F01C
S315080041D027FD0AA800F0FAFC0AA901F035FADFF86B
S315080041E00C190AA801F07AFEA2E120793A2819D01A
S315080041F0EDB2002D0AD0DFF8F8180AA800F010FD75
S315080042000AA800F0E3FC0AA901F01EFADFF8E41890
S315080042100AA800F005FD70E088AC0108A0AC01080A
S31508004220B8AC01085FFA88F8B8F1060F10DB012070
S315080042302E90052007005FFA88F847450ADAE05D00
S3150800424007F074FC002801D100202E907F1CF2E7AD
S3150800425000202E902E98002813D1EDB2002D0AD0FA
S31508004260DFF894180AA800F0DBFC0AA800F0AEFCF8
S315080042700AA901F0E9F9DFF884180AA800F0D0FCC9
S315080042803BE0601D3090309948A800F0C9FC48A86A
S3150800429007F051FC2F902F9842F21071884202DAEB
S315080042A02F98002813D5EDB2002D0AD0DFF848184C
S315080042B00AA800F0B5FC0AA800F088FC0AA901F0D3
S315080042C0C3F9DFF838180AA800F0AAFC15E02F98F9
S315080042D007F009FDEDB2002D0AD0DFF824180AA868
S315080042E000F09EFC0AA800F071FC0AA901F0ACF9DE
S315080042F0DFF8F8170AA801F0F1FD19E120793A2844
S3150800430018D0EDB2002D0AD0DFF8F8170AA800F089
S3150800431087FC0AA800F05AFC0AA901F095F9DFF80B
S31508004320E8170AA800F07CFC74E000BFD0AC0108CE
S31508004330E8AC01085FFA88F8B8F1060F10DB01202F
S315080043402E90052007005FFA88F847450ADAE05DEF
S3150800435007F0ECFB002801D100202E907F1CF2E725
S3150800436000202E902E98002816D1EDB2002D0AD0E6
S31508004370DFF898170AA800F053FC0AA800F026FCF4
S315080043800AA901F061F9DFF888170AA800F048FCC5
S3150800439040E000BF00AD0108601D3090309948A884
S315080043A000F03EFC48A807F0C6FB2F902F9842F273
S315080043B01071884202DA2F98002815D5EDB2002D23
S315080043C00AD0DFF848170AA800F02AFC0AA800F065
S315080043D0FDFB0AA901F038F9DFF820170AA800F052
S315080043E01FFC17E018AD01082F9807F0A3FCEDB2E3
S315080043F0002D0AD0DFF81C170AA800F011FC0AA83D
S3150800440000F0E4FB0AA901F01FF9DFF8E0160AA894
S3150800441001F064FD8CE020793A2819D0EDB2002D20
S315080044200AD0DFF8F4160AA800F0FAFB0AA800F08A
S31508004430CDFB0AA901F008F9DFF8E0160AA800F092
S31508004440EFFB6FE030AD010848AD010860AD01082B
S315080044505FFA88F8B8F1060F10DB01202E900520C8
S3150800446007005FFA88F847450ADAE05D07F05EFB61
S31508004470002801D100202E907F1CF2E700202E9004
S315080044802E98002813D1EDB2002D0AD0DFF8901629
S315080044900AA800F0C5FB0AA800F098FB0AA901F0D3
S315080044A0D3F8DFF880160AA800F0BAFB3AE0601DD8
S315080044B03090309948A800F0B3FB48A807F03BFBBA
S315080044C02F902F98B0F57A7F02DA2F98002813D507
S315080044D0EDB2002D0AD0DFF848160AA800F0A0FBB6
S315080044E00AA800F073FB0AA901F0AEF8DFF8341643
S315080044F00AA800F095FB15E02F9807F02DFCEDB201
S31508004500002D0AD0DFF820160AA800F089FB0AA8B1
S3150800451000F05CFB0AA901F097F8DFF8D0150AA8A5
S3150800452001F0DCFC04E0DFF804160AA800F078FBCA
S31508004530CDE000BF78AD010890AD0108E0784228CB
S3150800454000F08080522804D0532831D054285DD0FA
S3150800455092E0EDB2002D16D007F010FC07F03CFCF7
S31508004560DFF8CC1507F048FC07F002F902000B004B
S31508004570DFF8C0150AA801F0B1FC0AA800F026FB6E
S315080045800AA901F061F807F0F9FB07F025FCDFF846
S31508004590A01507F031FC07F0EBF802000B00DFF876
S315080045A098150AA801F09AFC79E000BFD8A301087B
S315080045B0EDB2002D16D007F0E4FB07F00DFCDFF88E
S315080045C0701507F019FC07F0D3F802000B00DFF8A6
S315080045D06C150AA801F082FC0AA800F0F7FA0AA9E5
S315080045E001F032F807F0CDFB07F0F6FBDFF84015CF
S315080045F007F002FC07F0BCF802000B00DFF84015D4
S315080046000AA801F06BFC4AE0A8AD0108EDB2002D3E
S315080046100DD007F0BCFB0200DFF828150AA801F048
S315080046205DFC0AA800F0D2FA0AA901F00DF807F015
S31508004630AEFB0200DFF810150AA801F04FFC2EE0C9
S31508004640C0AD0108EDB2002D0DD007F0A3FB0200A6
S31508004650DFF8F8140AA801F041FC0AA800F0B6FA37
S315080046600AA900F0F1FF07F095FB0200DFF8E01455
S315080046700AA801F033FC12E0EDB2002D0AD0DFF8EB
S31508004680D4140AA800F0CCFA0AA800F09FFA0AA9DE
S3150800469000F0DAFFDFF8C0140AA800F0C1FA16E045
S315080046A0D8AD0108F0AD0108EDB2002D0AD0DFF84B
S315080046B020140AA800F0B4FA0AA800F087FA0AA992
S315080046C000F0C2FFDFF894140AA800F0A9FAEDE09A
S315080046D0002006005FFA88F8B8F1030F13DAEDB286
S315080046E0002D0AD0DFF878140AA800F099FA0AA86B
S315080046F000F06CFA0AA900F0A7FFDFF868140AA808
S3150800470000F08EFA4BE0A07844281BD0452833D118
S31508004710EDB2002D0AD0DFF850140AA800F080FA8E
S315080047200AA800F053FA0AA900F08EFFDFF83C1435
S315080047300AA801F0D3FB012007F0EAFA06002EE0EA
S3150800474008AE0108EDB2002D0AD0DFF824140AA835
S3150800475000F066FA0AA800F039FA0AA900F074FF10
S31508004760DFF810140AA801F0B9FB002007F0D0FA08
S31508004770060014E0F8A30108EDB2002D0AD0DFF810
S31508004780E0130AA800F04CFA0AA800F01FFA0AA9D2
S3150800479000F05AFFDFF8E0130AA800F041FA85E0B6
S315080047A0EDB2002D0AD0DFF8D4130AA800F038FAC3
S315080047B00AA800F00BFA0AA900F046FFDFF8C013B2
S315080047C00AA800F02DFA0AA9002000F001FB06004D
S315080047D0F6B2002E04D03000C0B2F3E020AE0108D5
S315080047E0DFF8A0130AA800F01BFA0120DFF89813D7
S315080047F008705BE007F030FAEDB2002D0AD0DFF85A
S315080048008C130AA801F06AFB0AA800F0DFF90AA9C6
S3150800481000F01AFFDFF878130AA801F05FFB45E0FD
S3150800482038AE0108EDB2002D0BD0DFF868130AA8E0
S3150800483001F054FB0AA800F0C9F90AA900F004FF20
S3150800484034E0DFF854130AA801F048FB0AA900204F
S3150800485000F0BEFA0600F6B2002E02D03000C0B252
S31508004860B0E0CE490AA801F039FB0AA9002000F0F9
S31508004870AFFA0600F6B2002E06D03000C0B2A1E0AC
S3150800488050AE010868AE0108FEE7EDB2002D09D06A
S31508004890BA490AA800F0C4F90AA800F097F90AA9C3
S315080048A000F0D2FEAD490AA800F0BAF910E0EDB260
S315080048B0002D09D0B1490AA800F0B2F90AA800F0FB
S315080048C085F90AA900F0C0FEA4490AA800F0A8F9CB
S315080048D0F6B2002E08D0022E3FD006D3032E43D0C0
S315080048E04EE000BF80AE010850E006F03DFE3C9069
S315080048F03C9801280AD002280DD0042810D0082890
S3150800490013D0102818D020281BD01FE0A4490AA8C5
S3150800491000F086F91EE0A3490AA800F081F919E01B
S31508004920A1490AA800F07CF914E0A0490AA800F0F9
S3150800493077F90FE098AE01089D490AA800F070F9CA
S3150800494008E09C490AA800F06BF903E09A490AA80E
S3150800495000F066F906F0E3FC18E098490AA800F0AA
S315080049605FF906F0DCFC11E095490AA800F058F951
S3150800497006F0D5FC0AE000BFB0AE0108C8AE0108D3
S3150800498090490AA800F04CF906F0C9FC0AA90020CB
S3150800499000F01EFA0600F6B2002E02D03000C0B2B1
S315080049A010E089490AA800F03BF90AA9002000F09E
S315080049B00FFA0600F6B2002E02D03000C0B201E0AF
S315080049C03000C0B20DF5806D17B0BDE8F08F00005D
S315080049D0E0AE0108F8AE010810AF010828AF0108DB
S315080049E040AF010858AF010870AF010888AF010849
S315080049F0E8B60108F8B50400200000F0E7F805005D
S31508004A000020070000200600AE4216DAA05D3A280C
S31508004A1002DAA05D302805DAA05D472805DAA05D30
S31508004A20412802DB0020070001E001200700012FD2
S31508004A3001D1002002E0761CE6E70120F2BD2DE94F
S31508004A40F041040000275FF00008200000F0BEF8DF
S31508004A50050000200600AE421ADAA05D3A2806DAFA
S31508004A60A05D302803DBA05D303807000CE0A05DB0
S31508004A70472806DAA05D412803DBA05D3738070022
S31508004A8002E05FF0FF3004E017EB0818761CE2E757
S31508004A904046BDE8F0813C4800787047ACB4010850
S31508004AA018A40108209101083C980108609801089B
S31508004AB038A40108B8A7010858A40108D4A7010812
S31508004AC078A40108A0AF010898A4010884980108F1
S31508004AD0B8A4010848910108A8980108B4890108F2
S31508004AE0CC980108F0980108D8A4010830B7010845
S31508004AF014990108E0890108389901085C990108A8
S31508004B00F8A40108809901080C8A0108A4990108EB
S31508004B10C899010818A50108EC990108388A0108FE
S31508004B20109A0108349A010838A50108589A01080C
S31508004B300000204158A501087091010878A50108D0
S31508004B40648A0108F0A70108B8AF01080CA8010893
S31508004B5098A50108B8A501087C9A010898A101083A
S31508004B60D8A501089891010828A80108C09101084C
S31508004B7044A80108E89101081092010858A1010803
S31508004B8060A801087CA8010810670020D0AF0108BA
S31508004B904086010898A80108A09A0108C49A010845
S31508004BA03892010894870108C4870108F487010828
S31508004BB0609201082488010888920108B0920108C9
S31508004BC0D892010800930108B4B9010800F101035D
S31508004BD0810704D010F8011B89B18107FAD1026850
S31508004BE0B2F10131914311F0803F04BF50F8042F10
S31508004BF0F6E710F8011B11B110F8011BFBE7C01A04
S31508004C00704703681AB95A1E026008467047197831
S31508004C1000290FBF4FF0FF30591C01601878704704
S31508004C205FEA000C830706D011F8013B00F8013B48
S31508004C30B3B18307F8D10A68B2F1013323EA020354
S31508004C4013F0803F02BF40F8042B51F8042FF3E716
S31508004C5011F8013B00F8013B13B111F8013BF9E7E4
S31508004C606046704780B5DFF88004DFF88014086076
S31508004C704FF49640DFF8741448600020DFF86C148F
S31508004C8088600020DFF86414C8600020DFF85C1430
S31508004C9008610C20DFF8541448610020DFF84C1432
S31508004CA088610020DFF84414C861DFF8400407F083
S31508004CB021F9002801D008F01DF901BD80B5DFF8FB
S31508004CC03004DFF8301408605FF4E130DFF82414AC
S31508004CD048600020DFF81C1488600020DFF81414F0
S31508004CE0C8600020DFF80C1408610C20DFF80414F3
S31508004CF048614FF44070DFF8FC1388610020DFF844
S31508004D00F413C861DFF8EC0307F0F4F8002801D0C3
S31508004D1008F0F0F801BD10B586B004002068DFF889
S31508004D20C81388421ED1DFF8D003006850F400305B
S31508004D30DFF8C4130860DFF8C003006810F4003019
S31508004D40009000980C200190022002900120039008
S31508004D50032004900720059001A9DFF8A00308F0B6
S31508004D60E1F833E02068DFF8881388422ED1DFF8AF
S31508004D708803006850F48020DFF87C130860DFF8A9
S31508004D807803006810F48020009000984FF4406083
S31508004D90019002200290012003900320049007202E
S31508004DA0059001A9DFF8580308F0BCF84FF4C04095
S31508004DB0019002200290002003900320049007200F
S31508004DC0059001A9DFF8380308F0ACF806B010BD65
S31508004DD0F8B504000D002800FFF7F8FE0700BFB27B
S31508004DE0792F01DB01203AE0E4B2002C19D1DFF873
S31508004DF014030078002801D0022030E04FF4004365
S31508004E003A0092B22900DFF8E40207F0ACF806008F
S31508004E10F6B2002E02D03000C0B220E03000C0B298
S31508004E201DE0E4B2012C19D1DFF8DC020078002875
S31508004E3001D0022013E04FF400433A0092B2290051
S31508004E40DFF8B00207F08FF80600F6B2002E02D09F
S31508004E503000C0B203E03000C0B200E00120F2BD6D
S31508004E60F8B504000D002800FFF7B0FE0700BFB232
S31508004E70792F01DB012036E0E4B2002C17D1DFF8E8
S31508004E8084020078002801D002202CE03A0092B271
S31508004E902900DFF8580207F0E4F80600F6B2002EFB
S31508004EA002D03000C0B21EE03000C0B21BE0E4B24F
S31508004EB0012C17D1DFF850020078002801D0022013
S31508004EC011E03A0092B22900DFF8280207F0C9F883
S31508004ED00600F6B2002E02D03000C0B203E0300061
S31508004EE0C0B200E00120F2BDDFF8200270470120C1
S31508004EF0DFF81C1208707047854800787047F8B5C7
S31508004F0004000D001600B6B2792E01DB012032E04E
S31508004F10E4B2002C15D17B480078002801D0022085
S31508004F2029E0320092B22900704807F0D2F807004B
S31508004F30FFB2002F02D03800C0B21CE03800C0B261
S31508004F4019E0E4B2012C15D16F480078002801D089
S31508004F50022010E0320092B22900664807F0B9F83C
S31508004F600700FFB2002F02D03800C0B203E03800B5
S31508004F70C0B200E00120F2BD10B504002000C0B2A6
S31508004F8000F006F8012801D0002000E0012010BD3D
S31508004F900100C9B2002903D1544890F8390007E046
S31508004FA0C9B2012903D1534890F8390000E004201A
S31508004FB0704701684C4A914203D10121514A117048
S31508004FC006E001684A4A914202D101214E4A11700F
S31508004FD07047C0B2002803D100214A4A117005E083
S31508004FE0C0B2012802D10021474A1170704770B536
S31508004FF0040020683C49884203D1012041490870D1
S315080050004CE020683A49884248D1FFF775FF0028E6
S3150800501024D0032040490860FFF766FF3F4908602F
S315080050203E4800684078401C0600002005003A48C3
S31508005030006885420BDA39480068007800F0B7FB4B
S3150800504036480068401C354908606D1CEFE7324851
S315080050500660314800682F4908601CE0FFF744FFE6
S315080050602E490860002005002B48006885420BDAA7
S315080050702A480068007800F09AFB28480068401C17
S31508005080264908606D1CEFE703202349086022487B
S3150800509000682049086001201B49087070BD7047E8
S315080050A014480068C06850F0800012490968C86052
S315080050B0704710480068C06850F480700D49096848
S315080050C0C8600C480068406950F001000949096841
S315080050D0486108480068C06850F02000054909681A
S315080050E0C860704700000000004400409463002038
S315080050F000480040D46300202438024000000240E3
S3150800510000040240136700201467002098650020F9
S315080051101567002048000020FC660020F86600207D
S3150800512038B504000D00DFF8680600680471DFF87A
S31508005130600600684571DFF85C06DFF854160968F2
S315080051400860DFF84C060068011DDFF844060068B1
S31508005150006808F052F9DFF8680A0068001D32BDD9
S315080051600020DFF8601AA1F820030020DFF8581A9B
S3150800517081F896010020DFF8501A81F8970100207F
S31508005180DFF8441A81F898010020DFF83C1A81F804
S3150800519099010020DFF8301A81F89A010020DFF81B
S315080051A0281AA1F89C010120DFF81C1A81F89E0133
S315080051B07047401CC0B2C82800DB0020C0B2704748
S315080051C038B504000D00002C27D0DFF8FC0990F84C
S315080051D09301DFF8F41991F8921188421BD0002048
S315080051E0DFF8E41981F89501DFF8DC09DFF8D8194A
S315080051F091F89311084490F8CA0028706D1CDFF8DE
S31508005200C80990F89301FFF7D4FFDFF8BC1981F8B5
S315080052109301641ED7E7FFF74CFF002032BDDFF885
S31508005220A80990F89501704780B5FFF799FF062001
S3150800523006F000F80FF21140DFF890190860DFF861
S315080052409009DFF890190860DFF88C09DFF88C19E7
S315080052500860062005F0E0FF01BD70B586B00025A0
S31508005260DFF86409D0F8A001002805D108F0B3F8E2
S31508005270DFF85419C1F8A001DFF84C09D0F8A001ED
S31508005280002800F0EF80DFF84009D0F8A001006898
S31508005290DFF84C190840DFF82C19DFF82829B2F88E
S315080052A0202341F82200DFF81C09B0F82003C0B219
S315080052B0FFF77FFFDFF80C19A1F82003DFF80809CC
S315080052C0D0F8A0010068DFF818190840040020008B
S315080052D0DFF8101988422AD0DFF80C19884258D00E
S315080052E0DFF80819884200F08280DFF8041988423E
S315080052F029D0DFF80019884279D0DFF8FC188842EF
S3150800530057D0DFF8F818884200F09280DFF8F018D6
S3150800531088425AD0DFF8EC18884262D0DFF8E818DD
S31508005320884264D0DFF8E41888425AD08BE0DFF868
S31508005330E0180020FFF74CFD012005000120DFF8EA
S31508005340881881F896010020DFF87C1881F8970103
S3150800535002210220FFF7E4FE06003088002817D154
S31508005360EDB2002D0FD1DFF8AC180020FFF730FDA5
S3150800537002210D2008F080F802F099FA0D2008F0B5
S31508005380CBF806F0A2FB0020DFF83C18C1F8A00114
S3150800539068E0DFF884180020FFF71AFD0120DFF81F
S315080053A0281881F897010020DFF81C18C1F8A00119
S315080053B058E0A3A10020FFF70BFD02F089FA0020B0
S315080053C0DFF80418C1F8A0014CE09EA10020FFF701
S315080053D0FFFC02F07DFA0020DFF8EC17C1F8A00107
S315080053E040E00020DFF8E017C1F8A0013AE0DFF856
S315080053F02C180020FFF7ECFCDFF8CC07D0F8A0014A
S31508005400807A00280ED0DFF8C007D0F8A00110F186
S315080054100B02DFF80C18684600F060FD69460020AC
S31508005420FFF7D6FC0020DFF8A017C1F8A00119E0A5
S31508005430DFF8F0170020FFF7CBFC0020DFF888170D
S31508005440C1F8A0010EE02200DFF8DC17684600F07C
S3150800545045FD69460020FFF7BBFC0020DFF868170A
S31508005460C1F8A00106B070BDDFF85C0790F8960198
S315080054707047DFF8540790F897017047DFF8480738
S3150800548090F898017047DFF8400790F8990170473F
S31508005490DFF8341781F898017047DFF82C1781F880
S315080054A09901704710B58AB00024DFF81C0790F8F8
S315080054B09A01032848D1DFF8100790F89E010128C1
S315080054C002D10120040041E000F0DBFE002838D0BC
S315080054D000F0D3FEDFF8F006B0F89C01401CDFF8B8
S315080054E0E816A1F89C0106F052FC0300DFF8D8067E
