S02E0000526F616420426F61726420526576204D2E3520424153454C494E4520446563203920323031362E737265637A
S315080000005041002065D7010819DC01089BE8000863
S31508000010AFE800081DDC0108C3E80008000000007E
S31508000020000000000000000000000000778F0108B3
S3150800003021DC010800000000258F0108B99001089D
S31508000040C9C3000825DC010829DC01082DDC0108E4
S3150800005031DC010835DC010839DC01083DDC010822
S3150800006041DC010845DC010849DC0108C1900108AA
S315080000704DDC010851DC010855DC010859DC010892
S315080000805DDC010861DC010865DC010869DC010842
S31508000090CB9001086DDC010871DC010875DC0108EC
S315080000A079DC01087DDC010881DC010885DC0108B2
S315080000B00791010811910108D5900108F3900108EC
S315080000C0FD90010889DC01088DDC010891DC010836
S315080000D095DC010899DC0108E9900108DF90010820
S315080000E09DDC0108A1DC0108A5DC0108A9DC0108E2
S315080000F0ADDC010800000000B1DC0108B5DC010830
S31508000100B9DC0108BDDC0108C1DC0108C5DC010851
S31508000110C9DC0108CDDC0108D1DC010800000000BB
S31508000120D5DC010801201D4981F828000020704708
S3150800013010B50400194890F82800022801D10220B9
S3150800014016E0164890F82800002801D101200FE093
S31508000150200004F03FFF282801D3012008E02100F1
S315080001600E4804F061FF02200C4981F8280000209F
S3150800017010BD10B5094890F8280002280BD10121B6
S31508000180064800F00DF804000120044981F828000B
S315080001902000C0B200E0002010BD00006C65002001
S315080001A02DE9F04FADF5A06D8DB004000D002000CF
S315080001B004F010FF8DF8280000200600DFF8F40D83
S315080001C0007800281ED020781B2815D10020DFF8DB
S315080001D0E41D0870DFF8E01D0BA804F025FF0BA945
S315080001E0002004F0F9FF0600F6B2002E04F0D185CF
S315080001F03000C0B204F0CFBD2100012005F0AAFCF2
S3150800020004F0C7BD207830282FD0312848D03228AE
S3150800021079D0332800F0AA80342800F0DA8035280F
S3150800022000F00A81362800F07D81412800F093818C
S31508000230422800F0EE82432800F0B485442800F0F6
S31508000240B587452801F03081462801F042814728C4
S3150800025001F05A81482801F0D781502801F0B68468
S31508000260542801F0E18404F001BD05F0DCFF060026
S31508000270F6B2002E12D1EDB2002D0AD0DFF81C1E00
S315080002800BA804F0D1FE0BA804F0A4FE0BA905F0F8
S3150800029061FCDFF80C1E0BA804F0C6FE04F0F7BCE0
S315080002A091A806F012F80600DFF8FC1D0BA804F06A
S315080002B0BBFE0BA9002004F08FFF0600F6B2002E45
S315080002C003D03000C0B204F066BDEDB2002D0BD0ED
S315080002D091AADFF8D81D0BA806F088F80BA804F039
S315080002E079FE0BA905F036FCDFF8C41D0BA806F04D
S315080002F07DF891A90BA806F093F8DAA10BA806F0E9
S315080003008FF804F0C4BC91A805F0FBFF0600DFF8DF
S31508000310A41D0BA804F088FE0BA9002004F05CFFBE
S315080003200600F6B2002E03D03000C0B204F033BD8A
S31508000330EDB2002D0BD091AADFF8201E0BA806F00F
S3150800034055F80BA804F046FE0BA905F003FCDFF8E8
S31508000350101E0BA806F04AF891A90BA806F060F83B
S31508000360C0A10BA806F05CF804F091BC91A805F0B2
S31508000370E6FF0600DFF8EC1D0BA804F055FE0BA9F6
S31508000380002004F029FF0600F6B2002E03D0300044
S31508000390C0B204F000BDEDB2002D0BD091AADFF873
S315080003A0F41D0BA806F022F80BA804F013FE0BA9FF
S315080003B005F0D0FBDFF8E01D0BA806F017F891A9A9
S315080003C00BA806F02DF8A7A10BA806F029F804F04B
S315080003D05EBC91A805F0D1FF0600DFF8C01D0BA88A
S315080003E004F022FE0BA9002004F0F6FE0600F6B281
S315080003F0002E03D03000C0B204F0CDBCEDB2002D03
S315080004000BD091AADFF8981D0BA805F0EFFF0BA8F3
S3150800041004F0E0FD0BA905F09DFBDFF8881D0BA88D
S3150800042005F0E4FF91A90BA805F0FAFF8DA10BA82A
S3150800043005F0F6FF04F02BBC05F0C2FE4890DFF885
S31508000440681D0BA804F0F0FD91A805F03EFF060014
S315080004500BA9002004F0C0FE0600F6B2002E03D059
S315080004603000C0B204F097BCEDB2002D0AD0DFF818
S31508000470181E0BA804F0D8FD0BA804F0ABFD0BA9B9
S3150800048005F068FB00208046D9A10BA805F0AEFF51
S3150800049000200700802F30DA4898C257DFF8EC1D95
S315080004A02BA805F0A3FF2BA90BA805F0B9FF18F197
S315080004B00108B8F1100F1EDB6AA10BA805F0B0FF02
S315080004C0002080460BA9002004F086FE0600F6B23E
S315080004D0002E03D03000C0B204F05DBCEDB2002D92
S315080004E005D00BA804F076FD0BA905F033FBC0A1D7
S315080004F00BA805F07BFF7F1CCCE7EDB2002D0AD0D8
S31508000500DFF8D01D0BA804F08FFD0BA804F062FDE0
S315080005100BA905F01FFBDFF8C01D0BA805F066FF49
S3150800052004F0B5BB0020060005F045FFEDB2002D2E
S315080005300AD0DFF8201E0BA804F076FD0BA804F0FD
S3150800054049FD0BA905F006FBDFF80C1E0BA804F005
S315080005506BFD04F09CBB9DF82800012800F057812C
S315080005606078362839D0382800F0BA80392800F063
S315080005702481492840F0468105F060FF0600EDB267
S31508000580002D0AD0DFF8D41D0BA804F04DFD0BA8EA
S3150800059004F020FD0BA905F0DDFAF6B2002E05D110
S315080005A0DFF8BC1D0BA804F03FFD15E0DFF8B41D0D
S315080005B00BA804F039FD8DF829600BA9002004F07A
S315080005C00BFE0600F6B2002E03D03000C0B204F0CF
S315080005D0E2BB9DF82900060019E1AEA805F0A1FFC7
S315080005E00600F6B2002E04D1FFA8383005F050FFF9
S315080005F00600F6B2002E5CD1DFF8041E0BA804F044
S3150800060013FD0BA9002004F0E7FD0600F6B2002E44
S3150800061003D03000C0B204F0BEBBDFF8E81D0BA85B
S3150800062005F0E4FE0BA9002004F0D6FD0600F6B29C
S31508000630002E03D03000C0B204F0ADBBFFAB383398
S31508000640AEAADFF8C41D0BA805F0D0FE0BA9002042
S3150800065004F0C2FD0600F6B2002E05D03000C0B286
S3150800066004F099BB0D0A0000EDB2002D0DD0FFABCA
S315080006703833AEAADFF8981D0BA805F0B7FE0BA80D
S3150800068004F0A8FC0BA905F065FADFF8881D0BA88D
S3150800069005F0ACFEB1A90BA805F0C2FEB49ADFF8C6
S315080006A0781D2BA805F0A2FE2BA90BA805F0B8FE0D
S315080006B015E0DFF8681D0BA804F0B6FC8DF8296074
S315080006C00BA9002004F088FD0600F6B2002E03D020
S315080006D03000C0B204F05FBB9DF82900060096E022
S315080006E03CA805F062FF0600F6B2002E27D1DFF817
S315080006F00C1E0BA804F098FC0BA9002004F06CFD56
S315080007000600F6B2002E03D03000C0B204F043BB98
S31508000710DFF8EC1D0BA805F069FE0DF1FE010BA82C
S3150800072005F07EFEDBA10BA805F07AFE0BA90020DA
S3150800073004F052FD0600F6B2002E01D104E066E090
S315080007403000C0B204F027BBBDF80621DFF8B41D9F
S315080007500BA805F04BFE0BA9002004F03DFD060092
S31508000760F6B2002E03D03000C0B204F014BBEDB2CE
S31508000770002D0AD0DFF8E41B0BA804F055FC0BA8E3
S3150800078004F028FC0BA905F0E5F9DFF81C1E0BA8F8
S3150800079005F02CFE3CA90BA805F042FEDFF80C1E5E
S315080007A00BA805F03DFE0DF1F7010BA805F038FE84
S315080007B0B8A10BA805F034FE29E005F055FF0600A0
S315080007C0EDB2002D0AD0DFF8941B0BA804F02CFC20
S315080007D00BA804F0FFFB0BA905F0BCF9F6B2002E36
S315080007E008D1DFF8181E0BA804F01EFC09E000BFAC
S315080007F000000000DFF8081E0BA804F015FC002016
S31508000800060004E0DFF8FC1D0BA804F00DFC04F05C
S315080008103EBA9DF82800012840F05181052007F0CE
S3150800082055FB00280BD05BA808F03EFF0600F6B281
S31508000830002E17D1D7A808F0B1FB060012E0062053
S3150800084007F044FB00280BD05BA808F043F8060025
S31508000850F6B2002E06D1D7A807F0D1FC060001E0B3
S3150800086001200600EDB2002D0AD0DFF82C1E0BA8D9
S3150800087004F0DAFB0BA804F0ADFB0BA905F06AF946
S31508000880F6B2002E40F00881DFF8101E0BA804F01F
S31508000890CBFB0BA9002004F09FFC0600F6B2002E45
S315080008A003D03000C0B204F076BA00200700092F42
S315080008B080F2DE80002F0FD0022F35D020D3042FF0
S315080008C05AD045D3062F00F07F8069D3082F00F051
S315080008D0A480C0F08D80B4E0BDF882010390D8A84A
S315080008E0C01C02905CA8C01C0190D7A800905BAB06
S315080008F00DF5BD72DFF80C1E0BA805F077FDA0E01C
S31508000900BDF89A010390DEA8C01C029062A8C01C1C
S315080009100190DDA8009061AB0DF5C972DFF8E81DFE
S315080009200BA805F063FD8CE0BDF8B2010390E4A8BE
S31508000930C01C029068A8C01C0190E3A8009067AB91
S315080009400DF5D572DFF8C01D0BA805F04FFD78E050
S31508000950BDF8CA010390EAA8C01C02906EA8C01C84
S315080009600190E9A800906DAB0DF5E172DFF8981DCE
S315080009700BA805F03BFD64E0BDF8E2010390F0A882
S31508000980C01C029074A8C01C0190EFA8009073AB1D
S315080009900DF5ED72DFF8701D0BA805F027FD50E088
S315080009A0BDF8FA010390F6A8C01C02907AA8C01CEC
S315080009B00190F5A8009079AB0DF5F972DFF8481D9E
S315080009C00BA805F013FD3CE0BDF812020390FCA845
S315080009D0C01C029080A8C01C0190FBA800907FABA9
S315080009E082AA921CDFF8201D0BA805F0FFFC28E060
S315080009F0BDF82A020390FFA80F30029086A8C01CF3
S31508000A000190FFA80830009085AB88AA921CDFF8F1
S31508000A10F81C0BA805F0EAFC13E0BDF842020390A7
S31508000A20FFA8273002908CA8C01C0190FFA8203090
S31508000A3000908BAB8EAA921CDFF8CC1C0BA805F095
S31508000A40D5FCEDB2002D05D00BA804F0C3FA0BA90E
S31508000A5005F080F80BA9002004F0BEFB0600F6B2EC
S31508000A60002E03D03000C0B204F095B97F1C1EE7F3
S31508000A70DFF8001E0BA805F0B9FC44A90BA805F081
S31508000A80CFFC04A10BA805F0CBFCEDB2002D05D1D7
S31508000A900FE000BF0D0A000004F0F9B8DFF83418BB
S31508000AA00BA804F0C1FA0BA804F094FA0BA905F0F8
S31508000AB051F8DFF80C1E0BA805F098FC70E1607879
S31508000AC030281FD0312800F05281492840F068812B
S31508000AD008F0AEF90600EDB2002D0AD0DFF87C1852
S31508000AE00BA804F0A1FA0BA804F074FA0BA905F0F8
S31508000AF031F8F6B2002E04D1DFF80C1E0BA804F06C
S31508000B0093FA4DE1052007F0E1F900280BD05BA820
S31508000B1008F0CAFD0600F6B2002E17D1D7A808F0CD
S31508000B203DFA060012E0062007F0D0F900280BD09F
S31508000B305BA807F0CFFE0600F6B2002E06D1D7A8AE
S31508000B4007F05DFB060001E001200600EDB2002D6E
S31508000B500AD0DFF808180BA804F066FA0BA804F008
S31508000B6039FA0BA904F0F6FFF6B2002E40F0FE8023
S31508000B70DFF8281B0BA804F057FA0BA9002004F08D
S31508000B802BFB0600F6B2002E03D03000C0B204F0EC
S31508000B9002B900200700092F80F2D580002F0FD058
S31508000BA0022F35D020D3042F5AD045D3062F00F074
S31508000BB07F8069D3082F00F0A480C0F08D80B4E050
S31508000BC0BDF882010390D8A8C01C02905CA8C01C7E
S31508000BD00190D7A800905BAB0DF5BD72DFF8241B1A
S31508000BE00BA805F003FCA0E0BDF89A010390DEA867
S31508000BF0C01C029062A8C01C0190DDA8009061ABE1
S31508000C000DF5C972DFF8001B0BA805F0EFFB8CE0A9
S31508000C10BDF8B2010390E4A8C01C029068A8C01CE5
S31508000C200190E3A8009067AB0DF5D572DFF8D81AE6
S31508000C300BA805F0DBFB78E0BDF8CA010390EAA82B
S31508000C40C01C02906EA8C01C0190E9A800906DAB6C
S31508000C500DF5E172DFF8B01A0BA805F0C7FB64E0E2
S31508000C60BDF8E2010390F0A8C01C029074A8C01C4D
S31508000C700190EFA8009073AB0DF5ED72DFF8881AB6
S31508000C800BA805F0B3FB50E0BDF8FA010390F6A8EF
S31508000C90C01C02907AA8C01C0190F5A8009079ABF8
S31508000CA00DF5F972DFF8601A0BA805F09FFB3CE01A
S31508000CB0BDF812020390FCA8C01C029080A8C01CB4
S31508000CC00190FBA800907FAB82AA921CDFF8381A25
S31508000CD00BA805F08BFB28E0BDF82A020390FFA8B5
S31508000CE00F30029086A8C01C0190FFA8083000901B
S31508000CF085AB88AA921CDFF8101A0BA805F076FBBC
S31508000D0013E0BDF842020390FFA8273002908CA892
S31508000D10C01C0190FFA8203000908BAB8EAA921CB5
S31508000D20DFF8E4190BA805F061FB0BA9002004F015
S31508000D3053FA0600F6B2002E03D03000C0B204F013
S31508000D402AB87F1C27E7DFF82C1B0BA805F04EFBFB
S31508000D5044A90BA805F064FBD2A10BA805F060FB1B
S31508000D60DFF85C1B0BA805F041FB19E018E008F05A
S31508000D70CAF80600EDB2002D0AD0DFF8E0150BA878
S31508000D8004F052F90BA804F025F90BA904F0E2FEC9
S31508000D90F6B2002E04D1DFF8B81D0BA804F044F90A
S31508000DA003F075BF9DF82800012852D142A809F022
S31508000DB0F0FA0600F6B2002E03D14EA809F070FA32
S31508000DC00600F6B2002E26D1DFF8E81D0BA804F0BF
S31508000DD02BF90BA9002004F0FFF90600F6B2002E45
S31508000DE003D03000C0B203F0D6BFDFF8CC1D0BA885
S31508000DF005F0FCFA44A90BA805F012FBA9A10BA85B
S31508000E0005F00EFB0BA9002004F0E6F90600F6B281
S31508000E10002E02D105E003F03ABF3000C0B203F05D
S31508000E20BABFEDB2002D0CD04EAB42AADFF8F41DC6
S31508000E300BA805F0DBFA0BA804F0CCF80BA904F014
S31508000E4089FE4EAB42AADFF8141E0BA805F0CEFAAF
S31508000E509DE16078302824D0312874D0322800F0FB
S31508000E60CA80332800F02881492840F07D8108F09F
S31508000E70E7FE0600EDB2002D0AD0DFF8E0140BA855
S31508000E8004F0D2F80BA804F0A5F80BA904F062FE4A
S31508000E90F6B2002E04D1DFF8C81D0BA804F0C4F87A
S31508000EA075E142A808F0A3FF0600F6B2002E03D1AA
S31508000EB04EA808F020FF0600F6B2002E26D1DFF86D
S31508000EC0DC170BA804F0B0F80BA9002004F084F98D
S31508000ED00600F6B2002E03D03000C0B203F05BBFA6
S31508000EE0DFF890190BA805F081FA44A90BA805F0BC
S31508000EF097FA6CA10BA805F093FA0BA9002004F049
S31508000F006BF90600F6B2002E01D104E03FE130008D
S31508000F10C0B203F040BFEDB2002D0CD04EAB42AAD2
S31508000F20DFF8001E0BA805F061FA0BA804F052F8CA
S31508000F300BA904F00FFE4EAB42AADFF8EC1D0BA876
S31508000F4005F054FA23E1D1A809F044F80600F6B2F0
S31508000F50002E03D1CDA808F0C1FF0600F6B2002E78
S31508000F602CD1DFF8C81D0BA804F05EF80BA90020E9
S31508000F7004F032F90600F6B2002E03D03000C0B2F3
S31508000F8003F009BFDFF8A81D0BA805F02FFAD3A9AF
S31508000F90491C0BA805F044FA42A10BA805F040FA33
S31508000FA00BA9002004F018F90600F6B2002E06D1A7
S31508000FB009E000BF1F670020EC9B0108E7E030004E
S31508000FC0C0B203F0E8BEEDB2002D0CD0CDABD1AA6D
S31508000FD0DFF8FC1D0BA805F009FA0BA803F0FAFFC9
S31508000FE00BA904F0B7FDCDABD1AADFF8E81D0BA815
S31508000FF005F0FCF9CBE0C9A809F0DDF80600F6B261
S31508001000002E03D1C5A809F05CF80600F6B2002E3A
S3150800101027D1DFF8C41D0BA804F006F80BA9002099
S3150800102004F0DAF80600F6B2002E03D03000C0B29B
S3150800103003F0B1BEDFF8A41D0BA805F0D7F9CBA9BC
S31508001040491C0BA805F0ECF916A10BA805F0E8F960
S315080010500BA9002004F0C0F80600F6B2002E01D154
S3150800106004E094E03000C0B203F095BEEDB2002D66
S315080010700CD0C5ABC9AADFF8681D0BA805F0B6F9F0
S315080010800BA803F0A7FF0BA904F064FDC5ABC9AA1A
S31508001090DFF8501D0BA805F0A9F978E0F8AF0108AC
S315080010A03C9601080D0A0000ACA60108CCBE010852
S315080010B0ECBE0108D4A6010842A809F06AF90600A0
S315080010C0F6B2002E03D14EA809F0EAF80600F6B2E9
S315080010D0002E26D1DFF8DC1A0BA803F0A5FF0BA912
S315080010E0002004F079F80600F6B2002E03D030008E
S315080010F0C0B203F050BEDFF8C01A0BA805F076F9A7
S3150800110044A90BA805F08CF9C0A10BA805F088F92D
S315080011100BA9002004F060F80600F6B2002E01D1F3
S3150800112004E034E03000C0B203F035BEEDB2002D65
S315080011300CD04EAB42AADFF8EC1A0BA805F056F90C
S315080011400BA803F047FF0BA904F004FD4EAB42AA17
S31508001150DFF8081B0BA805F049F918E00CBF0108D1
S315080011602CBF0108FCA60108EDB2002D0AD0DFF855
S31508001170101E0BA803F058FF0BA803F02BFF0BA9B2
S3150800118004F0E8FCDFF87C140BA803F04DFF03F02D
S315080011907EBD00BF4CBF01086CBF010824A701082B
S315080011A08CBF0108ACBF01084CA701089DF82800B0
S315080011B001286DD149A809F053FB0600F6B2002EA6
S315080011C004D10DF58A6009F0C8F90600F6B2002EBA
S315080011D026D1DFF8B01D0BA803F026FF0BA90020C7
S315080011E003F0FAFF0600F6B2002E03D03000C0B2B4
S315080011F003F0D1BDDFF8FC1D0BA805F0F7F84BA9E5
S315080012000BA805F00DF981A10BA805F009F90BA9A2
S31508001210002003F0E1FF0600F6B2002E02D105E039
S3150800122003F035BD3000C0B203F0B5BDBDF83421BA
S31508001230DFF8C41D0BA805F0D9F80BA9002003F0A8
S31508001240CBFF0600F6B2002E03D03000C0B203F082
S31508001250A2BDEDB2002D0DD00DF58A6349AADFF8BF
S315080012609C1D0BA805F0C2F80BA803F0B3FE0BA94A
S3150800127004F070FC0DF58A6349AADFF8841D0BA8F3
S3150800128005F0B4F80EE100BFB4C60108F4DA0108A7
S315080012906078302822D0312800F08C80492840F028
S315080012A0018109F007F90600EDB2002D09D02B4996
S315080012B00BA803F0B9FE0BA803F08CFE0BA904F0EB
S315080012C049FCF6B2002E04D1DFF8381D0BA803F04E
S315080012D0ABFEE7E0ACD80108D0D4010849A809F06C
S315080012E0BFFA0600EDB2002D09D01C490BA803F081
S315080012F09BFE0BA803F06EFE0BA904F02BFCF6B2BE
S31508001300002E31D1DFF87C1C0BA803F08DFE0BA94B
S31508001310002003F061FF0600F6B2002E03D030006D
S31508001320C0B203F038BDDFF8CC1C0BA805F05EF898
S315080013304BA90BA805F074F834A10BA805F070F8B2
S315080013400BA9002003F048FF0600F6B2002E0CD1C8
S315080013500FE000BFD0C601081CB00108CCBF0108C9
S3150800136074A701089CA701089CE03000C0B203F0EE
S3150800137012BDBDF83421DFF8801C0BA805F036F83D
S315080013800BA9002003F028FF0600F6B2002E03D0B2
S315080013903000C0B203F0FFBCDFF8C81D0BA805F08B
S315080013A025F849A90BA805F03BF818A10BA805F0E4
S315080013B037F877E03CA809F052FD0600EDB2002D9B
S315080013C00AD0DFF8A41D0BA803F02EFE0BA803F025
S315080013D001FE0BA904F0BEFBF6B2002E36D1DFF8EB
S315080013E0A41B0BA803F020FE0BA9002003F0F4FEB3
S315080013F00600F6B2002E13D03000C0B203F0CBBC04
S31508001400C4A70108249C0108E4D401080D0A0000B9
S3150800141040B00108D4D60108B8D80108ECA70108DD
S3150800142037490BA804F0E2FF0DF1FE010BA804F002
S31508001430F7FFB6A10BA804F0F3FF0BA9002003F0F1
S31508001440CBFE0600F6B2002E01D104E02AE03000F9
S31508001450C0B203F0A0BCBDF806212A490BA804F0C7
S31508001460C5FF0BA9002003F0B7FE0600F6B2002E52
S3150800147003D03000C0B203F08EBC4B490BA804F071
S31508001480B5FF3CA90BA804F0CBFF48490BA804F00C
S31508001490C7FF0DF1F7010BA804F0C2FF9BA10BA82B
S315080014A004F0BEFF03F0F3BBEDB2002D0AD0DFF85F
S315080014B0B81C0BA803F0B8FD0BA803F08BFD0BA90D
S315080014C004F048FBDFF8801D0BA803F0ADFD03F020
S315080014D0DEBBEDB2002D0AD0DFF88C1C0BA803F09A
S315080014E0A3FD0BA803F076FD0BA904F033FBDFF888
S315080014F05C1D0BA803F098FD03F0C9BB14A80108EE
S31508001500F8D40108ECBF01083CA809F0DDFE060086
S31508001510F6B2002E03D1BFA809F02AFE0600F6B2DD
S31508001520002E27D1DFF8281D0BA803F07DFD0BA997
S31508001530002003F051FE0600F6B2002E03D030005C
S31508001540C0B203F028BCDFF80C1D0BA804F04EFF50
S315080015500DF1FE010BA804F063FF6CA10BA804F0C3
S315080015605FFF0BA9002003F037FE0600F6B2002E37
S3150800157002D105E003F08BBB3000C0B203F00BBC10
S31508001580BDF80621DFF8EC1D0BA804F02FFF0BA908
S31508001590002003F021FE0600F6B2002E08D0300027
S315080015A0C0B203F0F8BB00BFE4D60108F4D60108C0
S315080015B0EDB2002D12D0C0A8C01C01900DF1F700A5
S315080015C00090BFAB3CAADFF8041E0BA804F00EFF80
S315080015D00BA803F0FFFC0BA904F0BCFAC0A8C01CBA
S315080015E001900DF1F7000090BFAB3CAADFF8E01DB3
S315080015F00BA804F0FBFE03F04ABB00BF3CA8010899
S3150800160064A801080CC001089DF82800012840F0CC
S315080016108180B5A80AF008F80600F6B2002E77D140
S31508001620DFF8DC1D0BA803F0FFFC0BA9002003F074
S31508001630D3FD0600F6B2002E03D03000C0B203F088
S31508001640AABBDFF8EC1D0BA804F0D0FE0BA90020FE
S3150800165003F0C2FD0600F6B2002E03D03000C0B279
S3150800166003F099BBDFF8CC1D0BA803F0DDFCBBA982
S315080016700BA804F0D5FE25A10BA804F0D1FE0BA9F2
S31508001680002003F0A9FD0600F6B2002E08D03000AF
S31508001690C0B203F080BB00BFECC6010864B0010805
S315080016A0EDB2002D0ED0B9A80090B7ABB5AADFF8F9
S315080016B0D41D0BA804F09AFE0BA803F08BFC0BA90B
S315080016C004F048FADFF8C01D0BA803F0ADFCB5A975
S315080016D00BA804F0A5FEDFF8B41D0BA804F0A0FEC5
S315080016E0B7A90BA804F09CFEDFF8D81D0BA804F0D8
S315080016F097FEB9A90BA804F093FE04A10BA804F061
S315080017008FFE61E230A0010860A001080D0A000002
S3150800171003F0BDBA6078302800F05F81312800F008
S31508001720CD81322800F0FA81332800F01482492846
S3150800173040F045829DF8280002281AD109F072FE69
S315080017400600EDB2002D0AD0DFF81C1A0BA803F02C
S315080017506BFC0BA803F03EFC0BA904F0FBF9F6B2F0
S31508001760002E40F03981DFF8601D0BA803F05CFC01
S3150800177032E1EDB2002D0AD0DFF8EC190BA803F020
S3150800178053FC0BA803F026FC0BA904F0E3F99DF81B
S3150800179028001D2805D0DFF8CC1D0BA803F044FC53
S315080017A01AE1A0783A2817D160792E2814D1207A20
S315080017B02E2811D1E07A2E280ED1A07B2E280BD107
S315080017C0607C2E2808D1207D2E2805D1E07D2E2884
S315080017D002D1A07E2E2805D0DFF8941D0BA803F0B1
S315080017E023FCF9E00020359000200700092F26DAAF
S315080017F0032000FB07F0204490F903008DF8AC00A5
S31508001800032000FB07F0204490F904008DF8AD0092
S3150800181000208DF8AE002BA803F0E6FA002807D1C1
S31508001820DFF8C81D0BA803F0FFFB0120359006E082
S315080018302BA803F0FEFA9AA9C8557F1CD6E79DF88F
S315080018406802082805DBDFF8A81D0BA803F0ECFBE7
S31508001850BAE19DF8680210F007008DF8CE009DF8F1
S315080018606902022808DBDFF8041E0BA803F0DCFB7C
S31508001870AAE100BFBCC901089DF8690210F0010081
S31508001880C0B2C0008DF8CD009DF86A02022805DBBB
S31508001890DFF8DC1D0BA803F0C7FB95E19DF86A028B
S315080018A010F00100C0B200018DF8CC009DF86B0263
S315080018B0022807DBDFF8BC1D0BA803F0B5FB83E1A4
S315080018C00CD501089DF86B0210F00100C0B240016A
S315080018D08DF8CB009DF86C02402805DBDFF8101E5A
S315080018E00BA803F0A1FB6FE19DF86C0210F03F0016
S315080018F08DF8CA009DF86D02022807DBDFF8F41D93
S315080019000BA803F091FB5FE15C9C01089DF86D0252
S3150800191010F00100802148438DF8C9009DF86E0239
S31508001920042805DBDFF8D01D0BA803F07DFB4BE18F
S315080019309DF86E0210F003008DF8C8009DF86F023E
S31508001940042805DBDFF82C1E0BA803F06DFB3BE132
S315080019509DF86F0210F00300C0B280008DF82B00CE
S315080019609DF87002022805DBDFF80C1E0BA803F0B1
S315080019705BFB29E19DF8700210F00100C0B200017E
S315080019808DF82A009DF8CE009DF8CD1008189DF810
S31508001990CC1008189DF8CB1008188DF8EC009DF8A7
S315080019A0CA009DF8C91008188DF8ED009DF8C80002
S315080019B09DF82B1008189DF82A1008188DF8EE00C7
S315080019C03BA809F057FD0600F6B2002E04D1DFF851
S315080019D0AC1D0BA803F028FBF6E0B5A809F024FE19
S315080019E00600EDB2002D0AD0DFF87C170BA803F02D
S315080019F01BFB0BA803F0EEFA0BA904F0ABF8F6B242
S31508001A00002E5AD1DFF8F8190BA803F00DFB0BA925
S31508001A10002003F0E1FB0600F6B2002E03D03000EA
S31508001A20C0B203F0B8B9DFF8081A0BA804F0DEFC58
S31508001A300BA9002003F0D0FB0600F6B2002E03D057
S31508001A403000C0B203F0A7B9DFF8E8190BA803F015
S31508001A50EBFABBA90BA804F0E3FCDCA10BA804F085
S31508001A60DFFC0BA9002003F0B7FB0600F6B2002E38
S31508001A7003D03000C0B203F08EB9DFF80C1A0BA8F9
S31508001A8003F0D2FAB5A90BA804F0CAFCDFF8FC19D2
S31508001A900BA804F0C5FCB7A90BA804F0C1FCDFF835
S31508001AA0241A0BA804F0BCFCB9A90BA804F0B8FCCE
S31508001AB0C6A10BA804F0B4FC86E085E057A809F097
S31508001AC06CFD0600EDB2002D0AD0DFF89C160BA8B7
S31508001AD003F0AAFA0BA803F07DFA0BA904F03AF86A
S31508001AE0F6B2002E19D1DFF8F41D0BA803F09CFA04
S31508001AF09DF85C21DFF8E81D2BA804F077FC2BA9DC
S31508001B000BA804F08DFC57A9491C0BA804F088FC07
S31508001B10AEA10BA804F084FC56E055E009F0D4FC0D
S31508001B200600EDB2002D0AD0DFF83C160BA803F02C
S31508001B307BFA0BA803F04EFA0BA904F00BF8F6B2E1
S31508001B40002E07D1DFF8101E0BA803F06DFA3BE054
S31508001B5038A2010838E059A809F0D8FC0600EDB209
S31508001B60002D0AD0DFF800160BA803F05DFA0BA8C3
S31508001B7003F030FA0BA903F0EDFFF6B2002E1DD1E3
S31508001B80DFF8D81D0BA803F04FFA9DF86421DFF89B
S31508001B90501D2BA804F02AFC2BA90BA804F040FC26
S31508001BA059A9491C0BA804F03BFC88A10BA804F012
S31508001BB037FC09E08CA80108D4C9010804E0DFF85D
S31508001BC0141E0BA803F030FA03F061B860784428B5
S31508001BD018D055281FD1042009F092FEEDB2002D29
S31508001BE00AD0DFF884150BA803F01EFA0BA803F039
S31508001BF0F1F90BA903F0AEFFDFF8DC1D0BA803F023
S31508001C0013FA0DE0042009F089FEDFF8D01D0BA8B1
S31508001C1003F00AFA04E0DFF8C81D0BA803F004FA7B
S31508001C2003F035B82CC001089DF82800022819DAF7
S31508001C30EDB2002D0AD0DFF830150BA803F0F4F941
S31508001C400BA803F0C7F90BA903F084FFDFF8081EF9
S31508001C500BA803F0E9F903F008B800BF08C70108A4
S31508001C6064A201086078422802F06586432800F0DD
S31508001C70F382442802F01D82462802F0118649287C
S31508001C8013D04B2802F050824C2802F021864D28AA
S31508001C9002F0DC85522802F02B82532802F0768661
S31508001CA0552802F0698502F0CFBF9DF8280009285B
S31508001CB013DAEDB2002D0AD0DFF8AC140BA803F046
S31508001CC0B3F90BA803F086F90BA903F043FFDFF875
S31508001CD0001E0BA803F0A8F9B3E2A078512800F07B
S31508001CE00482C0F0A982532802D0C0F0D580A3E2AE
S31508001CF0E0783A2802D1A0792E281BD0EDB2002D23
S31508001D000AD0DFF864140BA803F08EF90BA803F0C9
S31508001D1061F90BA903F01EFFDFF82C1E0BA803F0D0
S31508001D2083F9B8E088B0010824C70108ACB00108F7
S31508001D3020D50108EDB2002D0AD0DFF82C140BA827
S31508001D4003F072F90BA803F045F90BA903F002FF9B
S31508001D5094F904008DF8AC0094F905008DF8AD00EF
S31508001D6000208DF8AE002BA803F03EF8002805D118
S31508001D70DFF8D81D0BA803F057F98CE02BA803F061
S31508001D8058F8319094F907008DF8AC0094F90800DA
S31508001D908DF8AD0000208DF8AE002BA803F024F8CE
S31508001DA0002805D1DFF8A81D0BA803F03DF972E05D
S31508001DB02BA803F03EF834903498002814D1319AB1
S31508001DC0DFF8901D0BA804F011FB3BE00D0A00009C
S31508001DD0D0B00108ECC901084CC0010834D5010887
S31508001DE06CC0010848D5010800203590002007007E
S31508001DF03498874226DA032000FB07F0204490F93E
S31508001E000A008DF8AC00032000FB07F0204490F987
S31508001E100B008DF8AD0000208DF8AE002BA802F05F
S31508001E20E3FF002807D1DFF8241D0BA803F0FCF810
S31508001E300120359006E02BA802F0FBFF9AA9C855A9
S31508001E407F1CD5E73598002805D1319ADFF8EC1DB7
S31508001E500BA804F0CBFA00200700349887420BDA67
S31508001E609AA8C25DC1A12BA804F0C0FA2BA90BA899
S31508001E7004F0D6FA7F1CF0E7BDA10BA804F0D0FA4F
S31508001E804FF4FA733498020092B29AA9319880B244
S31508001E9009F063FE0600D4E1E0783A2805D1A07976
S31508001EA02E2802D1607A2E2812D0EDB2002D09D044
S31508001EB0AD490BA803F0B8F80BA803F08BF80BA9EB
S31508001EC003F048FEDFF8EC1D0BA803F0ADF80BE1B4
S31508001ED0EDB2002D09D0A4490BA803F0A5F80BA86C
S31508001EE003F078F80BA903F035FE94F904008DF891
S31508001EF0AC0094F905008DF8AD0000208DF8AE0011
S31508001F002BA802F071FF002805D1DFF8201E0BA8C8
S31508001F1003F08AF8E8E02BA802F08BFF319094F9D9
S31508001F2007008DF8AC0094F908008DF8AD00002084
S31508001F308DF8AE002BA802F057FF002805D1DFF870
S31508001F40F01D0BA803F070F8CEE02BA802F071FF85
S31508001F50349094F90A008DF8AC0094F90B008DF8CA
S31508001F60AD0000208DF8AE002BA802F03DFF00283A
S31508001F700AD1DFF8341E0BA803F056F8B4E000BF08
S31508001F808CC0010804CA01082BA802F052FF3A9037
S31508001F903498002806D1319ADFF8101E0BA804F0F1
S31508001FA025FA38E00020359000200700349887424B
S31508001FB031DA032000FB07F0204490F90D008DF874
S31508001FC0AC00032000FB07F0204490F90E008DF8C2
S31508001FD0AD0000208DF8AE002BA802F005FF002802
S31508001FE012D1DFF8401E0BA803F01EF80120359029
S31508001FF011E000BF1CCA0108F4B00108ACC0010812
S3150800200034CA010890A201082BA802F012FF9AA967
S31508002010C8557F1CCAE73598002805D1319ADFF8DC
S31508002020081E0BA804F0E2F900200700349887423E
S315080020300BDA9AA8C25D4DA12BA804F0D7F92BA9F3
S315080020400BA804F0EDF97F1CF0E749A10BA804F0F2
S31508002050E7F94FF4FA733498020092B29AA93198C4
S3150800206080B209F07AFD0600F6B2002E0ED14FF4C2
S31508002070FA733A98020092B29AA9319880B209F096
S31508002080B7FD0600F6B2002E05D100E0D9E014200F
S3150800209009F0E9FD0600F6B2002E25D10BA90020AD
S315080020A003F09AF80600F6B2002E03D03000C0B24C
S315080020B002F071BEDFF8E81D0BA804F097F90020BE
S315080020C007003A9887420BDA9AA8C25D27A12BA87F
S315080020D004F08CF92BA90BA804F0A2F97F1CF0E7F1
S315080020E023A10BA804F09CF9ABE0E0783A2802D1CA
S315080020F0A0792E2812D0EDB2002D09D01A490BA8C6
S3150800210002F092FF0BA802F065FF0BA903F022FD6F
S31508002110DFF8041E0BA802F087FF8CE0EDB2002D55
S3150800212009D011490BA802F07FFF0BA802F052FF55
S315080021300BA903F00FFD94F904008DF8AC0094F98F
S3150800214005008DF8AD0000208DF8AE002BA802F032
S315080021504BFE00280ED1DFF8C41D0BA802F064FF61
S3150800216069E000BF04D70108CCBF010825782E0016
S315080021700D0A00002BA802F05CFE319094F90700C6
S315080021808DF8AC0094F908008DF8AD0000208DF8A4
S31508002190AE002BA802F028FE002805D1DFF81C1E89
S315080021A00BA802F041FF46E02BA802F042FE3A9047
S315080021B0319ADFF8F81B0BA804F018F94FF4FA73F4
S315080021C03A98020092B29AA9319880B209F010FDA5
S315080021D00600F6B2002E07D1142009F044FD0600C9
S315080021E0F6B2002E27D100E02BE00BA9002002F062
S315080021F0F3FF0600F6B2002E03D03000C0B202F09C
S31508002200CABDDFF89C1C0BA804F0F0F800200700F4
S315080022103A9887420BDA9AA8C25DD3A12BA804F094
S31508002220E5F82BA90BA804F0FBF87F1CF0E7CFA173
S315080022300BA804F0F5F804E0DFF898170BA802F0ED
S31508002240F3FE02F012BD00BF90A001084CCA0108B7
S315080022505CD50108F8D40108002006009DF828007E
S31508002260022840F0E980052005F030FE002804D059
S315080022705BA806F093FE06000BE0062005F026FE96
S31508002280002804D05BA805F0BAFF060001E001208B
S315080022900600F6B2002E40F0B5803CA808F068FFAC
S315080022A00600F6B2002E40F0958049A808F055F9C8
S315080022B00600F6B2002E74D1AEA804F0E9F80600BE
S315080022C0F6B2002E58D1EDB2002D25D0AEA8099051
S315080022D049A808903CA807905BA806908BA805908B
S315080022E085A804907FA8039079A8029073A8019006
S315080022F06DA8009067AB61AADFF8841D0BA804F0EF
S3150800230075F8DFF8801D0BA802F08EFE0BA802F008
S3150800231061FE0BA903F01EFCAEA8099049A8089017
S315080023203CA807905BA806908BA8059085A8049002
S315080023307FA8039079A8029073A801906DA80090D1
S3150800234067AB61AADFF8401D0BA804F04FF80BA98C
S31508002350002002F041FF0600F6B2002E03D030003E
S31508002360C0B202F018BDDFF8341E0BA804F03EF820
S3150800237001F09DBEECBF0108EDB2002D0AD0DFF8D2
S31508002380201E0BA802F050FE0BA802F023FE0BA994
S3150800239003F0E0FBDFF80C1E0BA804F027F801F0A9
S315080023A086BEEDB2002D0AD0DFF8FC1D0BA802F0A0
S315080023B03BFE0BA802F00EFE0BA903F0CBFBDFF8E1
S315080023C0EC1D0BA804F012F801F071BEBCA20108BE
S315080023D0B4A80108EDB2002D0AD0DFF8D41D0BA869
S315080023E002F022FE0BA802F0F5FD0BA903F0B2FBE2
S315080023F0DFF8C01D0BA803F0F9FF01F058BE00BFB7
S3150800240040C70108EDB2002D0AD0DFF8401E0BA820
S3150800241002F00AFE0BA802F0DDFD0BA903F09AFBF9
S31508002420DFF82C1E0BA803F0E1FF01F040BE00BF49
S31508002430949C010814D70108A078492801F00A8657
S31508002440522800F0E785532804D0542801F09D85CA
S3150800245001F02DBEE0783A281AD0EDB2002D0AD048
S31508002460DFF8F01D0BA802F0DFFD0BA802F0B2FDA5
S315080024700BA903F06FFBDFF8E01D0BA802F0D4FDF3
S3150800248000F0C6BDE8A20108C4D80108D0D80108E2
S315080024909DF82800052819DAEDB2002D0AD0DFF8D4
S315080024A0501E0BA802F0C0FD0BA802F093FD0BA965
S315080024B003F050FBDFF83C1E0BA802F0B5FD00F058
S315080024C0A7BD00BFDCD80108D4940108201D3090B0
S315080024D0309952A802F0A8FD00202A9000202990E1
S315080024E029A800902AAB36AADFF80C1E52A809F0D4
S315080024F001FD032840F07A85299809F00DFDCDE9FC
S3150800250002012A9809F008FDCDE9000136AADFF88C
S31508002510EC1D0BA803F06AFF0422DFF8E41D36A8B9
S3150800252009F021FD00283AD12A9A2999002009F0B4
S3150800253097FD0600F6B2002E1CD1EDB2002D0AD08A
S31508002540DFF8541E0BA802F06FFD0BA802F042FD3F
S315080025500BA903F0FFFADFF8441E0BA803F046FFA9
S3150800256000F041BD8096010825782E000D0A00006E
S315080025701C950108EDB2002D0AD0DFF8241E0BA821
S3150800258002F052FD0BA802F025FD0BA903F0E2FAB2
S31508002590DFF8101E0BA803F029FF00F024BD042263
S315080025A0DFF8041E36A809F0DEFC002837D12A9A7F
S315080025B02999012009F054FD0600F6B2002E19D11A
S315080025C0EDB2002D0AD0DFF8E41D0BA802F02CFDB1
S315080025D00BA802F0FFFC0BA903F0BCFADFF8641E97
S315080025E00BA803F003FF00F0FEBC00BF0898010823
S315080025F0C49A0108EDB2002D0AD0DFF84C1E0BA8CC
S3150800260002F012FD0BA802F0E5FC0BA903F0A2FAF2
S31508002610DFF8901D0BA803F0E9FE00F0E4BC0422E5
S31508002620DFF8281E36A809F09EFC002839D12A9A18
S315080026302999022009F014FD0600F6B2002E1BD1D6
S31508002640EDB2002D0AD0DFF8081E0BA802F0ECFC4C
S315080026500BA802F0BFFC0BA903F07CFADFF8F41D07
S315080026600BA803F0C3FE00F0BEBC00BF009B010828
S315080026703C9B0108CC9C0108EDB2002D0AD0DFF87E
S315080026806C1E0BA802F0D0FC0BA802F0A3FC0BA949
S3150800269003F060FADFF80C1D0BA803F0A7FE00F0A4
S315080026A0A2BC0422DFF8481E36A809F05CFC002804
S315080026B039D12A9A2999032009F0D2FC0600F6B2E4
S315080026C0002E1BD1EDB2002D0AD0DFF8281E0BA86C
S315080026D002F0AAFC0BA802F07DFC0BA903F03AFA5B
S315080026E0DFF8141E0BA803F081FE00F07CBC00BFC7
S315080026F04898010888980108C8980108EDB2002D85
S315080027000AD0DFF8F81D0BA802F08EFC0BA802F021
S3150800271061FC0BA903F01EFADFF8881C0BA803F06E
S3150800272065FE00F060BC0422DFF8681E36A809F0D2
S315080027301AFC002839D12A9A2999042009F090FC14
S315080027400600F6B2002E1BD1EDB2002D0AD0DFF836
S31508002750481E0BA802F068FC0BA802F03BFC0BA96C
S3150800276003F0F8F9DFF8341E0BA803F03FFE00F07B
S315080027703ABC00BF0899010848990108C49601089F
S31508002780EDB2002D0AD0DFF8181E0BA802F04CFC9B
S315080027900BA802F01FFC0BA903F0DCF9DFF8041CF8
S315080027A00BA803F023FE00F01EBC0422DFF8F41D7C
S315080027B036A809F0D8FB002831D12A9A299905208C
S315080027C009F04EFC0600F6B2002E14D1EDB2002D2B
S315080027D00AD0DFF8681E0BA802F026FC0BA802F048
S315080027E0F9FB0BA903F0B6F9DFF8541E0BA803F0A2
S315080027F0FDFD00F0F8BBEDB2002D0AD0DFF8441E4F
S315080028000BA802F011FC0BA802F0E4FB0BA903F0DD
S31508002810A1F9DFF8901B0BA803F0E8FDE3E3042217
S31508002820DFF8241E36A809F09EFB002830D12A9A24
S315080028302999062009F014FC0600F6B2002E13D1D9
S31508002840EDB2002D0AD0DFF8041E0BA802F0ECFB4F
S315080028500BA802F0BFFB0BA903F07CF9DFF8841E76
S315080028600BA803F0C3FDBEE3EDB2002D0AD0DFF8D6
S31508002870781E0BA802F0D8FB0BA802F0ABFB0BA93D
S3150800288003F068F9DFF81C1B0BA803F0AFFDAAE3F9
S315080028900422DFF8581E36A809F065FB002835D152
S315080028A02A9A2999072009F0DBFB0600F6B2002EC2
S315080028B018D1EDB2002D0AD0DFF8341E0BA802F0AD
S315080028C0B3FB0BA802F086FB0BA903F043F9DFF86C
S315080028D0241E0BA803F08AFD85E300BFCCC00108BF
S315080028E0FCDA0108EDB2002D0AD0DFF89C1E0BA811
S315080028F002F09AFB0BA802F06DFB0BA903F02AF96C
S31508002900DFF8A01A0BA803F071FD6CE30422DFF8C8
S315080029107C1E36A809F027FB002835D12A9A299962
S31508002920082009F09DFB0600F6B2002E18D1EDB27C
S31508002930002D0AD0DFF8581E0BA802F075FB0BA86D
S3150800294002F048FB0BA903F005F9DFF8481E0BA8AF
S3150800295003F04CFD47E300BFDC9D010818B10108F0
S31508002960EDB2002D0AD0DFF8301E0BA802F05CFB92
S315080029700BA802F02FFB0BA903F0ECF8DFF8241ADA
S315080029800BA803F033FD2EE30422DFF8A01E36A8B9
S3150800299009F0E9FA002839D12A9A2999092009F073
S315080029A05FFB0600F6B2002E1CD1EDB2002D0AD050
S315080029B0DFF87C1E0BA802F037FB0BA802F00AFB17
S315080029C00BA903F0C7F8DFF86C1E0BA803F00EFD81
S315080029D009E300BF0CC00108ECC001080CC10108DE
S315080029E014A30108EDB2002D0AD0DFF84C1E0BA87F
S315080029F002F01AFB0BA802F0EDFA0BA903F0AAF8ED
S31508002A00DFF8A0190BA803F0F1FCECE20422DFF8CA
S31508002A102C1E36A809F0A7FA002833D12A9A299934
S31508002A200A2009F01DFB0600F6B2002E16D1EDB2FB
S31508002A30002D0AD0DFF8981E0BA802F0F5FA0BA8AD
S31508002A4002F0C8FA0BA903F085F8DFF8881E0BA870
S31508002A5003F0CCFCC7E200BF2CC10108EDB2002D83
S31508002A600AD0DFF8741E0BA802F0DEFA0BA802F0F3
S31508002A70B1FA0BA903F06EF8DFF828190BA803F0D2
S31508002A80B5FCB0E20422DFF8541E36A809F06BFA4A
S31508002A90002833D12A9A29990B2009F0E1FA060071
S31508002AA0F6B2002E16D1EDB2002D0AD0DFF8301E90
S31508002AB00BA802F0B9FA0BA802F08CFA0BA903F0DE
S31508002AC049F8DFF8B01E0BA803F090FC8BE200BFB4
S31508002AD0DCA80108EDB2002D0AD0DFF89C1E0BA871
S31508002AE002F0A2FA0BA802F075FA0BA903F032F865
S31508002AF0DFF8B0180BA803F079FC74E20422DFF8BB
S31508002B007C1E36A809F02FFA002839D12A9A299965
S31508002B100C2009F0A5FA0600F6B2002E1CD1EDB27B
S31508002B20002D0AD0DFF8581E0BA802F07DFA0BA874
S31508002B3002F050FA0BA903F00DF8DFF8481E0BA8AF
S31508002B4003F054FC4FE200BF04A9010840A30108A2
S31508002B50109E010864CA0108EDB2002D0AD0DFF8FC
S31508002B60B81E0BA802F060FA0BA802F033FA0BA9FC
S31508002B7002F0F0FFDFF82C180BA803F037FC32E25E
S31508002B800422DFF8981E36A809F0EDF9002830D19E
S31508002B902A9A29990D2009F063FA0600F6B2002E42
S31508002BA013D1EDB2002D0AD0DFF8741E0BA802F07F
S31508002BB03BFA0BA802F00EFA0BA902F0CBFFDFF8DE
S31508002BC0641E0BA803F012FC0DE2EDB2002D0AD02C
S31508002BD0DFF8541E0BA802F027FA0BA802F0FAF940
S31508002BE00BA902F0B7FFDFF8BC170BA803F0FEFB32
S31508002BF0F9E10422DFF8C41E36A809F0B4F9002862
S31508002C0032D12A9A29990E2009F02AFA0600F6B234
S31508002C10002E15D1EDB2002D0AD0DFF8A41E0BA8A0
S31508002C2002F002FA0BA802F0D5F90BA902F092FFFE
S31508002C30DFF8901E0BA803F0D9FBD4E170D5010884
S31508002C40EDB2002D0AD0DFF8801E0BA802F0ECF9D1
S31508002C500BA802F0BFF90BA902F07CFFDFF84417B6
S31508002C600BA803F0C3FBBEE10422DFF8601E36A8FA
S31508002C7009F079F9002833D12A9A29990F2009F001
S31508002C80EFF90600F6B2002E16D1EDB2002D0AD0E5
S31508002C90DFF8CC1E0BA802F0C7F90BA802F09AF9C8
S31508002CA00BA902F057FFDFF8BC1E0BA803F09EFB2A
S31508002CB099E100BF2CA90108EDB2002D0AD0DFF872
S31508002CC0A81E0BA802F0B0F90BA802F083F90BA90D
S31508002CD002F040FFDFF8CC160BA803F087FB82E171
S31508002CE00422DFF8881E36A809F03DF9002835D1F8
S31508002CF02A9A2999102009F0B3F90600F6B2002E8F
S31508002D0018D1EDB2002D0AD0DFF8641E0BA802F028
S31508002D108BF90BA802F05EF90BA902F01BFFDFF88E
S31508002D20541E0BA803F062FB5DE100BF6CA301080B
S31508002D30449E0108EDB2002D0AD0DFF8CC1E0BA880
S31508002D4002F072F90BA802F045F90BA902F002FF8E
S31508002D50DFF850160BA803F049FB44E10422DFF81C
S31508002D60AC1E36A809F0FFF8002835D12A9A299909
S31508002D70112009F075F90600F6B2002E18D1EDB249
S31508002D80002D0AD0DFF8881E0BA802F04DF90BA813
S31508002D9002F020F90BA902F0DDFEDFF8781E0BA879
S31508002DA003F024FB1FE100BF789B01087CCA0108D9
S31508002DB0EDB2002D0AD0DFF8601E0BA802F034F938
S31508002DC00BA802F007F90BA902F0C4FEDFF8D41528
S31508002DD00BA803F00BFB06E10422DFF8D01E36A889
S31508002DE009F0C1F8002835D12A9A2999122009F044
S31508002DF037F90600F6B2002E18D1EDB2002D0AD02A
S31508002E00DFF8AC1E0BA802F00FF90BA802F0E2F8E7
S31508002E100BA902F09FFEDFF89C1E0BA803F0E6FA4A
S31508002E20E1E000BF54A9010884D50108EDB2002DE0
S31508002E300AD0DFF8841E0BA802F0F6F80BA802F0F9
S31508002E40C9F80BA902F086FEDFF858150BA803F09F
S31508002E50CDFAC8E00422DFF8641E36A809F083F824
S31508002E60002833D12A9A2999132009F0F9F806007F
S31508002E70F6B2002E16D1EDB2002D0AD0DFF8D01E1C
S31508002E800BA802F0D1F80BA802F0A4F80BA902F0DF
S31508002E9061FEDFF8C01E0BA803F0A8FAA3E000BF86
S31508002EA0E8D80108EDB2002D0AD0DFF8AC1E0BA851
S31508002EB002F0BAF80BA802F08DF80BA902F04AFE48
S31508002EC0DFF8E0140BA803F091FA8CE00422DFF88F
S31508002ED08C1E36A809F047F8002835D12A9A299970
S31508002EE0142009F0BDF80600F6B2002E18D1EDB28E
S31508002EF0002D0AD0DFF8F81E0BA802F095F80BA8EB
S31508002F0002F068F80BA902F025FEDFF8E81E0BA808
S31508002F1003F06CFA67E000BF7CA9010898A30108D2
S31508002F20EDB2002D0AD0DFF8D01E0BA802F07CF80F
S31508002F300BA802F04FF80BA902F00CFEDFF8641498
S31508002F400BA803F053FA4EE00422DFF8B01E36A8A9
S31508002F5009F009F8002833D12A9A2999152009F089
S31508002F607FF80600F6B2002E13D1EDB2002D0AD076
S31508002F70DFF88C1E0BA802F057F80BA802F02AF807
S31508002F800BA902F0E7FDDFF87C1E0BA803F02EFA6A
S31508002F9029E0EDB2002D0AD0DFF8FC1E0BA802F0DE
S31508002FA043F80BA802F016F80BA902F0D3FDDFF8D8
S31508002FB0F4130BA803F01AFA15E000BF789E01086F
S31508002FC0EDB2002D0AD0DFF8D41E0BA802F02CF8BB
S31508002FD00BA801F0FFFF0BA902F0BCFDDFF8C01E2D
S31508002FE00BA803F003FA0020060011E0EDB2002D4D
S31508002FF009D0BF490BA802F017F80BA801F0EAFFA1
S315080030000BA902F0A7FDDFF89C1E0BA802F00CF82E
S3150800301001F04DB8EDB2002D0DD009F053F80200BD
S31508003020DFF8841E0BA803F0E1F90BA801F0D2FF24
S315080030300BA902F08FFD09F045F80200DFF8141F0E
S315080030400BA803F0D3F90BA9002002F0C5F8060077
S31508003050F6B2002E03D03000C0B201F09CBEDFF8F5
S31508003060F81E0BA803F0C2F90BA9002002F0B4F869
S315080030700600F6B2002E09D03000C0B201F08BBEB1
S3150800308088990108CCBF0108A4A9010800200700F7
S31508003090162F80F26687002F36D0022F00F0DE80CA
S315080030A0C0F08A80042F00F08381C0F02B81062FA0
S315080030B000F02682C0F0D081082F00F0C982C0F047
S315080030C073820A2F00F06A83C0F016830C2F00F073
S315080030D00984C0F0B5830E2F00F0A884C0F054848C
S315080030E0102F00F04985C0F0F384122F00F0E88510
S315080030F0C0F09485142F00F08786C0F03186152F0E
S3150800310000F0D48600F019BFEDB2002D24D03800A7
S31508003110C0B208F0C6FF83463800C0B208F0C7FF41
S3150800312081463800C0B208F0C8FF8246584608F003
S31508003130F3FECDE90201484608F0EEFECDE90001AE
S315080031405246DFF8E41E0BA803F050F90BA801F06D
S3150800315041FF0BA902F0FEFC3800C0B208F0A1FF3F
S3150800316083463800C0B208F0A2FF81463800C0B2D4
S3150800317008F0A3FF8246584608F0CEFECDE90201C4
S31508003180484608F0C9FECDE900015246DFF8F41EAC
S315080031900BA803F02BF900F0D0BE00BFF4D8010845
S315080031A0CCA9010894CA0108F4A90108ACCA010807
S315080031B0C4A301083CB10108EDB2002D24D03800A3
S315080031C0C0B208F06EFF83463800C0B208F06FFF41
S315080031D081463800C0B208F070FF8246584608F0AB
S315080031E09BFECDE90201484608F096FECDE90001AE
S315080031F05246DFF8F81E0BA803F0F8F80BA801F002
S31508003200E9FE0BA902F0A6FC3800C0B208F049FF97
S3150800321083463800C0B208F04AFF81463800C0B27B
S3150800322008F04BFF8246584608F076FECDE90201C3
S31508003230484608F071FECDE900015246DFF8E41E63
S315080032400BA803F0D3F800F078BE00BF1CAA01084B
S3150800325060B101084CC1010844AA0108EDB2002D6D
S3150800326024D03800C0B208F01CFF83463800C0B22C
S3150800327008F01DFF81463800C0B208F01EFF8246DE
S31508003280584608F049FECDE90201484608F044FED2
S31508003290CDE900015246DFF8C41E0BA803F0A6F8D4
S315080032A00BA801F097FE0BA902F054FC3800C0B237
S315080032B008F0F7FE83463800C0B208F0F8FE8146EB
S315080032C03800C0B208F0F9FE8246584608F024FED7
S315080032D0CDE90201484608F01FFECDE90001524635
S315080032E0DFF8D41E0BA803F081F800F026BE00BF55
S315080032F084B10108A8B1010800D90108C4CA0108A7
S3150800330004DB0108EDB2002D24D03800C0B208F065
S31508003310C8FE83463800C0B208F0C9FE81463800A8
S31508003320C0B208F0CAFE8246584608F0F5FDCDE957
S315080033300201484608F0F0FDCDE900015246DFF8E3
S315080033407C1E0BA803F052F80BA801F043FE0BA94C
S3150800335002F000FC3800C0B208F0A3FE834638002D
S31508003360C0B208F0A4FE81463800C0B208F0A5FE37
S315080033708246584608F0D0FDCDE90201484608F0D5
S31508003380CBFDCDE900015246DFF8DC1E0BA803F0A1
S315080033902DF800F0D2BD00BFCCB101085CC701080A
S315080033A06CAA010878C701080CDB01086CC1010882
S315080033B0EDB2002D24D03800C0B208F072FE834664
S315080033C03800C0B208F073FE81463800C0B208F073
S315080033D074FE8246584608F09FFDCDE9020148462C
S315080033E008F09AFDCDE900015246DFF8801E0BA8C9
S315080033F002F0FCFF0BA801F0EDFD0BA902F0AAFBF9
S315080034003800C0B208F04DFE83463800C0B208F056
S315080034104EFE81463800C0B208F04FFE8246584636
S3150800342008F07AFDCDE90201484608F075FDCDE9B8
S3150800343000015246DFF8941E0BA802F0D7FF00F0F1
S315080034407CBD00BFDCCA0108F0B1010814DB010825
S315080034508CC1010898D50108EDB2002D24D038009A
S31508003460C0B208F01EFE83463800C0B208F01FFE40
S3150800347081463800C0B208F020FE8246584608F059
S315080034804BFDCDE90201484608F046FDCDE90001AD
S315080034905246DFF83C1E0BA802F0A8FF0BA801F065
S315080034A099FD0BA902F056FB3800C0B208F0F9FDE9
S315080034B083463800C0B208F0FAFD81463800C0B22B
S315080034C008F0FBFD8246584608F026FDCDE90201C4
S315080034D0484608F021FDCDE900015246DFF8F41D03
S315080034E00BA802F083FF00F028BD00BF14B2010844
S315080034F01CDB0108ACC10108F4CA010838B201088E
S31508003500EDB2002D24D03800C0B208F0CAFD8346BB
S315080035103800C0B208F0CBFD81463800C0B208F0CA
S31508003520CCFD8246584608F0F7FCCDE9020148462C
S3150800353008F0F2FCCDE900015246DFF8A01E0BA800
S3150800354002F054FF0BA801F045FD0BA902F002FB9F
S315080035503800C0B208F0A5FD83463800C0B208F0AE
S31508003560A6FD81463800C0B208F0A7FD8246584637
S3150800357008F0D2FCCDE90201484608F0CDFCCDE9B9
S3150800358000015246DFF8581E0BA802F02FFF00F084
S31508003590D4BC00BF24DB0108CCC10108ACD50108A6
S315080035A05CB201082CDB0108EDB2002D24D03800EE
S315080035B0C0B208F076FD83463800C0B208F077FD41
S315080035C081463800C0B208F078FD8246584608F0B1
S315080035D0A3FCCDE90201484608F09EFCCDE90001AE
S315080035E05246DFF85C1E0BA802F000FF0BA801F09C
S315080035F0F1FC0BA902F0AEFA3800C0B208F051FD92
S3150800360083463800C0B208F052FD81463800C0B281
S3150800361008F053FD8246584608F07EFCCDE90201C3
S31508003620484608F079FCCDE900015246DFF8601EED
S315080036300BA802F0DBFE00F080BC00BFECC101085D
S31508003640C0D5010880B2010834DB0108A4B201081C
S31508003650EDB2002D24D03800C0B208F022FD834612
S315080036603800C0B208F023FD81463800C0B208F021
S3150800367024FD8246584608F04FFCCDE9020148462B
S3150800368008F04AFCCDE900015246DFF8641E0BA893
S3150800369002F0ACFE0BA801F09DFC0BA902F05AFA49
S315080036A03800C0B208F0FDFC83463800C0B208F006
S315080036B0FEFC81463800C0B208F0FFFC8246584638
S315080036C008F02AFCCDE90201484608F025FCCDE9B8
S315080036D000015246DFF81C1E0BA802F087FE00F018
S315080036E02CBC00BF0CCB010894AA01083CDB0108DE
S315080036F0C8B2010824CB0108EDB2002D24D0380049
S31508003700C0B208F0CEFC83463800C0B208F0CFFC41
S3150800371081463800C0B208F0D0FC8246584608F008
S31508003720FBFBCDE90201484608F0F6FBCDE90001AE
S315080037305246DFF86C1E0BA802F058FE0BA801F0E3
S3150800374049FC0BA902F006FA3800C0B208F0A9FC39
S3150800375083463800C0B208F0AAFC81463800C0B2D9
S3150800376008F0ABFC8246584608F0D6FBCDE90201C4
S31508003770484608F0D1FBCDE900015246DFF8601E45
S315080037800BA802F033FED8E3BCAA010844DB010803
S31508003790ECB201083CCB0108E4AA0108EDB2002D01
S315080037A024D03800C0B208F07CFC83463800C0B28A
S315080037B008F07DFC81463800C0B208F07EFC8246DF
S315080037C0584608F0A9FBCDE90201484608F0A4FBD3
S315080037D0CDE900015246DFF80C1E0BA802F006FEE2
S315080037E00BA801F0F7FB0BA902F0B4F93800C0B238
S315080037F008F057FC83463800C0B208F058FC8146EA
S315080038003800C0B208F059FC8246584608F084FBD6
S31508003810CDE90201484608F07FFBCDE90001524692
S31508003820DFF8341E0BA802F0E1FD86E34CDB010845
S3150800383010B3010854CB01080CAB010854DB01088E
S31508003840EDB2002D24D03800C0B208F02AFC834619
S315080038503800C0B208F02BFC81463800C0B208F028
S315080038602CFC8246584608F057FBCDE9020148462B
S3150800387008F052FBCDE900015246DFF8381E0BA8C6
S3150800388002F0B4FD0BA801F0A5FB0BA902F062F942
S315080038903800C0B208F005FC83463800C0B208F00C
S315080038A006FC81463800C0B208F007FC8246584636
S315080038B008F032FBCDE90201484608F02DFBCDE9B8
S315080038C000015246DFF8581E0BA802F08FFD34E3BC
S315080038D00CC201086CCB010834B301085CDB010893
S315080038E058B30108EDB2002D24D03800C0B208F054
S315080038F0D8FB83463800C0B208F0D9FB81463800A9
S31508003900C0B208F0DAFB8246584608F005FBCDE956
S315080039100201484608F000FBCDE900015246DFF8EF
S315080039202C1E0BA802F062FD0BA801F053FB0BA995
S3150800393002F010F93800C0B208F0B3FB834638002D
S31508003940C0B208F0B4FB81463800C0B208F0B5FB37
S315080039508246584608F0E0FACDE90201484608F0E2
S31508003960DBFACDE900015246DFF8401E0BA802F04B
S315080039703DFDE2E284CB010834AB010864DB0108B3
S315080039807CB301089CCB0108EDB2002D24D0380089
S31508003990C0B208F086FB83463800C0B208F087FB41
S315080039A081463800C0B208F088FB8246584608F0BF
S315080039B0B3FACDE90201484608F0AEFACDE90001AE
S315080039C05246DFF8281E0BA802F010FD0BA801F0DE
S315080039D001FB0BA902F0BEF83800C0B208F061FB83
S315080039E083463800C0B208F062FB81463800C0B290
S315080039F008F063FB8246584608F08EFACDE90201C4
S31508003A00484608F089FACDE900015246DFF8381E23
S31508003A100BA802F0EBFC90E25CAB01086CDB01083A
S31508003A202CC20108B4CB0108A0B30108EDB2002DE1
S31508003A3024D03800C0B208F034FB83463800C0B240
S31508003A4008F035FB81463800C0B208F036FB8246DE
S31508003A50584608F061FACDE90201484608F05CFAD2
S31508003A60CDE900015246DFF8341E0BA802F0BEFC71
S31508003A700BA801F0AFFA0BA902F06CF83800C0B237
S31508003A8008F00FFB83463800C0B208F010FB8146E9
S31508003A903800C0B208F011FB8246584608F03CFAD6
S31508003AA0CDE90201484608F037FACDE90001524649
S31508003AB0DFF8181E0BA802F099FC3EE274DB010839
S31508003AC0C4B30108CCCB010884AB01087CDB010830
S31508003AD0EDB2002D24D03800C0B208F0E2FA8346D1
S31508003AE03800C0B208F0E3FA81463800C0B208F0E0
S31508003AF0E4FA8246584608F00FFACDE9020148462C
S31508003B0008F00AFACDE900015246DFF8241E0BA890
S31508003B1002F06CFC0BA801F05DFA0BA902F01AF88A
S31508003B203800C0B208F0BDFA83463800C0B208F0C3
S31508003B30BEFA81463800C0B208F0BFFA8246584637
S31508003B4008F0EAF9CDE90201484608F0E5F9CDE9B9
S31508003B5000015246DFF82C1E0BA802F047FCECE1E8
S31508003B60E8B30108E4CB0108ACAB010884DB010823
S31508003B700CB40108FCCB0108EDB2002D24D03800A6
S31508003B80C0B208F08EFA83463800C0B208F08FFA41
S31508003B9081463800C0B208F090FA8246584608F0C6
S31508003BA0BBF9CDE90201484608F0B6F9CDE90001AE
S31508003BB05246DFF8D41D0BA802F018FC0BA801F03A
S31508003BC009FA0BA901F0C6FF3800C0B208F069FA75
S31508003BD083463800C0B208F06AFA81463800C0B297
S31508003BE008F06BFA8246584608F096F9CDE90201C4
S31508003BF0484608F091F9CDE900015246DFF8EC1D78
S31508003C000BA802F0F3FB98E1D4AB01088CDB0108A2
S31508003C1030B4010814CC0108FCAB0108EDB2002D44
S31508003C2024D03800C0B208F03CFA83463800C0B247
S31508003C3008F03DFA81463800C0B208F03EFA8246DE
S31508003C40584608F069F9CDE90201484608F064F9D2
S31508003C50CDE900015246DFF8041E0BA802F0C6FBA8
S31508003C600BA801F0B7F90BA901F074FF3800C0B230
S31508003C7008F017FA83463800C0B208F018FA8146E9
S31508003C803800C0B208F019FA8246584608F044F9D6
S31508003C90CDE90201484608F03FF9CDE90001524650
S31508003CA0DFF8E01D0BA802F0A1FB46E194DB010852
S31508003CB054B401082CCC010824AC01089CDB01088B
S31508003CC0EDB2002D24D03800C0B208F0EAF98346D8
S31508003CD03800C0B208F0EBF981463800C0B208F0E7
S31508003CE0ECF98246584608F017F9CDE9020148462C
S31508003CF008F012F9CDE900015246DFF8D81D0BA8E5
S31508003D0002F074FB0BA801F065F90BA901F022FF7C
S31508003D103800C0B208F0C5F983463800C0B208F0CA
S31508003D20C6F981463800C0B208F0C7F98246584637
S31508003D3008F0F2F8CDE90201484608F0EDF8CDE9B9
S31508003D4000015246DFF8CC1D0BA802F04FFBF4E049
S31508003D5078B4010844CC01084CAC0108A4DB01087E
S31508003D60EDB2002D24D03800C0B208F09AF9834687
S31508003D703800C0B208F09BF981463800C0B208F096
S31508003D809CF98246584608F0C7F8CDE9020148462C
S31508003D9008F0C2F8CDE900015246DFF8B41D0BA8B9
S31508003DA002F024FB0BA801F015F90BA901F0D2FECD
S31508003DB03800C0B208F075F983463800C0B208F07A
S31508003DC076F981463800C0B208F077F98246584637
S31508003DD008F0A2F8CDE90201484608F09DF8CDE9B9
S31508003DE000015246DFF86C1D0BA802F0FFFAA4E0AA
S31508003DF09CB401085CCC010874AC0108ACDB010872
S31508003E00C0B4010874CC0108EDB2002D24D03800E6
S31508003E10C0B208F046F983463800C0B208F047F940
S31508003E2081463800C0B208F048F98246584608F07C
S31508003E3073F8CDE90201484608F06EF8CDE90001AD
S31508003E405246DFF8741D0BA802F0D0FA0BA801F051
S31508003E50C1F80BA901F07EFE3800C0B208F021F9BE
S31508003E6083463800C0B208F022F981463800C0B24D
S31508003E7008F023F98246584608F04EF8CDE90201C3
S31508003E80484608F049F8CDE900015246DFF8B01D6A
S31508003E900BA802F0ABFA50E09CAC0108E4B40108A8
S31508003EA04CC20108C0A0010824D70108EDB2002DB4
S31508003EB024D03800C0B208F0F4F883463800C0B2FF
S31508003EC008F0F5F881463800C0B208F0F6F88246E0
S31508003ED0584608F021F8CDE90201484608F01CF8D2
S31508003EE0CDE900015246DFF85C1D0BA802F07EFA08
S31508003EF00BA801F06FF80BA901F02CFE3800C0B230
S31508003F0008F0CFF883463800C0B208F0D0F88146EA
S31508003F103800C0B208F0D1F88246584607F0FCFFD0
S31508003F20CDE90201484607F0F7FFCDE90001524600
S31508003F30DFF86C1D0BA802F059FA0BA9002001F056
S31508003F404BF90600F6B2002E08D03000C0B200F0D9
S31508003F5022BF00BF6CC2010808B501087F1CFFF725
S31508003F6097B8EDB2002D0AD0DFF87C1D0BA801F03A
S31508003F705BF80BA801F02EF80BA901F0EBFDDFF8B2
S31508003F806C1D0BA802F032FA91E0E0783A2813D0BB
S31508003F90EDB2002D0AD0DFF8781D0BA801F044F821
S31508003FA00BA801F017F80BA901F0D4FDDFF8641D82
S31508003FB00BA801F039F84CE09DF82800052813DA1B
S31508003FC0EDB2002D0AD0DFF86C1D0BA801F02CF815
S31508003FD00BA800F0FFFF0BA901F0BCFDDFF8581D88
S31508003FE00BA801F021F834E0201D3090309952A832
S31508003FF001F01AF8309808F04CF80600F6B2002ED0
S3150800400014D0EDB2002D0AD0DFF8601D0BA801F020
S315080040100BF80BA800F0DEFF0BA901F09BFD3000A2
S31508004020C0B200F0B8BE00BF8CCC0108EDB2002DBE
S315080040300AD0DFF83C1D0BA800F0F6FF0BA800F02D
S31508004040C9FF0BA901F086FDDFF8A01C0BA802F03A
S31508004050CDF92CE007F0B9FF0600F6B2002E13D012
S31508004060EDB2002D0AD0DFF8381D0BA800F0DCFFF2
S315080040700BA800F0AFFF0BA901F06CFD3000C0B231
S3150800408000F089BEA4CC0108EDB2002D0AD0DFF8F5
S31508004090141D0BA800F0C8FF0BA800F09BFF0BA986
S315080040A001F058FDDFF8441C0BA802F09FF900F058
S315080040B0DCBD03F049FFADF8E400EDB2002D0CD0ED
S315080040C0BDF8E420DFF8E01C0BA802F08FF90BA876
S315080040D000F080FF0BA901F03DFDBDF8E420DFF8F4
S315080040E0CC1C0BA802F082F900F0BFBDBCCC0108BD
S315080040F0EDB2002D0DD0DFF8B81C0BA800F094FF28
S315080041000BA800F067FF0BA901F024FD642007F057
S31508004110F9FF08F0AEF8DFF89C1C0BA802F066F968
S3150800412000F0A3BD8CC20108002006009DF82800F7
S31508004130042815DAEDB2002D0AD0DFF87C1C0BA88E
S3150800414000F072FF0BA800F045FF0BA901F002FD75
S31508004150DFF8681C0BA800F067FF0CE3D4CC010855
S31508004160A078522800F04082532840F0F182E07887
S31508004170422800F0A681522806D0532800F08F80E6
S31508004180542800F0148124E220793A2818D0EDB298
S31508004190002D0AD0DFF82C1C0BA800F045FF0BA851
S315080041A000F018FF0BA901F0D5FCDFF81C1C0BA8C2
S315080041B000F03AFF72E000BFECCC010804CD01081C
S315080041C09DF82800062810DB01202E900520070000
S315080041D09DF8280087420ADAE05D08F07BF8002897
S315080041E001D100202E907F1CF2E700202E902E98F9
S315080041F0002813D1EDB2002D0AD0DFF8D41B0BA886
S3150800420000F012FF0BA800F0E5FE0BA901F0A2FCD6
S31508004210DFF8C01B0BA800F007FF3FE0601D3090D9
S31508004220309952A800F000FF52A808F058F82F90CD
S315080042302F9842F21071884202DA2F98002817D573
S31508004240EDB2002D0AD0DFF8881B0BA800F0ECFEB3
S315080042500BA800F0BFFE0BA901F07CFCDFF8741B6D
S315080042600BA800F0E1FE19E0ACC201081CCD01085C
S315080042702F9808F0EEF8EDB2002D0AD0DFF8581B9B
S315080042800BA800F0D1FE0BA800F0A4FE0BA901F0C4
S3150800429061FCDFF8481B0BA802F0A8F89EE120791C
S315080042A03A2819D0EDB2002D0AD0DFF8341B0BA836
S315080042B000F0BAFE0BA800F08DFE0BA901F04AFC2F
S315080042C0DFF8201B0BA800F0AFFE6FE034CD010825
S315080042D04CCD010864CD01089DF82800062810DB9E
S315080042E001202E90052007009DF8280087420ADA4B
S315080042F0E05D07F0EFFF002801D100202E907F1C1B
S31508004300F2E700202E902E98002813D1EDB2002D4A
S315080043100AD0DFF87C1B0BA800F086FE0BA800F07D
S3150800432059FE0BA901F016FCDFF8681B0BA800F074
S315080043307BFE3BE0601D3090309952A800F074FE79
S3150800434052A807F0CCFF2F902F9842F2107188429E
S3150800435002DA2F98002813D5EDB2002D0AD0DFF81F
S31508004360301B0BA800F060FE0BA800F033FE0BA96B
S3150800437001F0F0FBDFF81C1B0BA800F055FE15E05A
S315080043802F9808F084F8EDB2002D0AD0DFF8081B44
S315080043900BA800F049FE0BA800F01CFE0BA901F0C3
S315080043A0D9FBDFF8381A0BA802F020F816E12079B5
S315080043B03A2817D0EDB2002D0AD0DFF8E01A0BA87C
S315080043C000F032FE0BA800F005FE0BA901F0C2FBB7
S315080043D0DFF8CC1A0BA800F027FE71E07CCD0108A7
S315080043E094CD01089DF82800062810DB01202E90A0
S315080043F0052007009DF8280087420ADAE05D07F0E5
S3150800440069FF002801D100202E907F1CF2E70020CA
S315080044102E902E98002815D1EDB2002D0AD0DFF87F
S31508004420841A0BA800F000FE0BA800F0D3FD0BA918
S3150800443001F090FBDFF8701A0BA800F0F5FD3FE0DD
S31508004440ACCD0108601D3090309952A800F0ECFD03
S3150800445052A807F044FF2F902F9842F21071884215
S3150800446002DA2F98002815D5EDB2002D0AD0DFF80C
S31508004470341A0BA800F0D8FD0BA800F0ABFD0BA969
S3150800448001F068FBDFF80C1A0BA800F0CDFD17E069
S31508004490C4CD01082F9808F021F8EDB2002D0AD0F6
S315080044A0DFF8081A0BA800F0BFFD0BA800F092FD74
S315080044B00BA901F04FFBDFF824190BA801F096FFB2
S315080044C08CE020793A2817D0EDB2002D0AD0DFF813
S315080044D0E0190BA800F0A8FD0BA800F07BFD0BA9BE
S315080044E001F038FBDFF8CC190BA800F09DFD6FE052
S315080044F0DCCD0108F4CD01089DF82800062810DB5C
S3150800450001202E90052007009DF8280087420ADA28
S31508004510E05D07F0DFFE002801D100202E907F1C09
S31508004520F2E700202E902E98002813D1EDB2002D28
S315080045300AD0DFF884190BA800F076FD0BA800F066
S3150800454049FD0BA901F006FBDFF870190BA800F06E
S315080045506BFD3DE0601D3090309952A800F064FD77
S3150800456052A807F0BCFE2F902F98B0F57A7F02DA92
S315080045702F98002816D5EDB2002D0AD0DFF8381985
S315080045800BA800F051FD0BA800F024FD0BA901F0C3
S31508004590E1FADFF828190BA800F046FD18E000BF7D
S315080045A00CCE01082F9807F0ABFFEDB2002D0AD00C
S315080045B0DFF80C190BA800F037FD0BA800F00AFD70
S315080045C00BA901F0C7FADFF814180BA801F00EFFC3
S315080045D004E0DFF8F0180BA800F026FDCBE000BFDA
S315080045E024CE01083CCE0108E078422800F07E80FF
S315080045F0522804D0532831D054285DD092E0EDB229
S31508004600002D16D007F08EFF07F0BAFFDFF8B818AE
S3150800461007F0C6FF07F080FC02000B00DFF8AC18B5
S315080046200BA801F0E3FE0BA800F0D4FC0BA901F0DF
S3150800463091FA07F077FF07F0A3FFDFF88C1807F069
S31508004640AFFF07F069FC02000B00DFF884180BA81F
S3150800465001F0CCFE79E000BFCCC20108EDB2002D16
S3150800466016D007F062FF07F08BFFDFF85C1807F03B
S3150800467097FF07F051FC02000B00DFF858180BA84B
S3150800468001F0B4FE0BA800F0A5FC0BA901F062FA34
S3150800469007F04BFF07F074FFDFF82C1807F080FFD0
S315080046A007F03AFC02000B00DFF82C180BA801F003
S315080046B09DFE4AE054CE0108EDB2002D0DD007F05C
S315080046C03AFF0200DFF814180BA801F08FFE0BA8BA
S315080046D000F080FC0BA901F03DFA07F02CFF020060
S315080046E0DFF8FC170BA801F081FE2EE0EDB2002DD5
S315080046F00DD007F023FF0200DFF8E8170BA801F03A
S3150800470075FE0BA800F066FC0BA901F023FA07F06A
S3150800471015FF0200DFF8D0170BA801F067FE14E0BA
S315080047206CCE0108EDB2002D0AD0DFF8C0170BA831
S3150800473000F07AFC0BA800F04DFC0BA901F00AFA70
S31508004740DFF8AC170BA800F06FFC14E084CE010864
S31508004750EDB2002D0AD0DFF860160BA800F064FC55
S315080047600BA800F037FC0BA901F0F4F9DFF8841761
S315080047700BA800F059FC78E2002006009DF82800F6
S31508004780032815DAEDB2002D0AD0DFF86C170BA84E
S3150800479000F04AFC0BA800F01DFC0BA901F0DAF9A1
S315080047A0DFF858170BA800F03FFC4CE09CCE010838
S315080047B0A07844281CD0452832D1EDB2002D0AD065
S315080047C0DFF83C170BA800F02FFC0BA800F002FC42
S315080047D00BA901F0BFF9DFF82C170BA801F006FEAC
S315080047E0012007F069FE06002DE000BFB4CE0108DF
S315080047F0EDB2002D0AD0DFF810170BA800F014FC54
S315080048000BA800F0E7FB0BA901F0A4F9DFF8FC16EA
S315080048100BA801F0EBFD002007F04EFE060012E0A3
S31508004820EDB2002D0AD0DFF8D0160BA800F0FCFB7D
S315080048300BA800F0CFFB0BA901F08CF9DFF8D01616
S315080048400BA800F0F1FB10E2ECC20108EDB2002D56
S315080048500AD0DFF8C0160BA800F0E6FB0BA800F09C
S31508004860B9FB0BA901F076F9DFF8AC160BA800F036
S31508004870DBFB0BA9002000F0AFFC0600F6B2002E09
S3150800488002D03000C0B286E2DFF890160BA800F01E
S31508004890CBFB0120DFF888160870E6E1CCCE0108CC
S315080048A007F0AEFDEDB2002D0AD0DFF878160BA89A
S315080048B001F09CFD0BA800F08DFB0BA901F04AF94D
S315080048C0DFF864160BA801F091FDCEE1E4CE0108ED
S315080048D0EDB2002D0BD0DFF854160BA801F086FDBB
S315080048E00BA800F077FB0BA901F034F9BDE1DFF85E
S315080048F040160BA801F07AFD0BA9002000F06CFC0D
S315080049000600F6B2002E02D03000C0B243E2DFF84D
S3150800491024160BA801F06AFD0BA9002000F05CFC28
S315080049200600F6B2002E05D03000C0B233E200BF52
S31508004930FCCE0108FEE7EDB2002D0AD0DFF8D4154B
S315080049400BA800F071FB0BA800F044FB0BA901F0C3
S3150800495001F9DFF8E4150BA800F066FB0BA90020A7
S3150800496000F03AFC0600F6B2002E02D03000C0B2C3
S3150800497011E2DFF8C8150BA800F056FB08F00EFA8E
S3150800498073E100BF14CF01082CCF0108EDB2002D4A
S315080049900DD0DFF880150BA800F046FB0BA800F039
S315080049A019FB0BA901F0D6F8642007F0ABFB0DF54F
S315080049B09763D5AADFF88815200007F09BFA479079
S315080049C04798022840F035810DF59762DFF874158F
S315080049D00BA801F00BFD0BA9002000F0FDFB06005B
S315080049E0F6B2002E04D03000C0B2D4E144CF01089C
S315080049F0FFA968310DF5976008F052FA0600F6B27D
S31508004A00002E41D09DF86504002809D0022813D04D
S31508004A100CD304281CD015D3062827D020D32BE086
S31508004A20DFF824150BA801F0E1FC07E1DFF81C15F7
S31508004A300BA801F0DBFC01E1DFF814150BA801F067
S31508004A40D5FCFBE0DFF80C150BA801F0CFFCF5E070
S31508004A50DFF804150BA801F0C9FCEFE05CCF0108EC
S31508004A60DFF8F0140BA801F0C1FCE7E0DFF8EC145E
S31508004A700BA801F0BBFCE1E0DFF8E4140BA801F099
S31508004A80B5FCDBE074CF01089DF8640400280ED05D
S31508004A90022818D011D3042824D01DD306282DD0D7
S31508004AA026D3082838D02FD309283BD040E0DFF892
S31508004AB0B4140BA801F09AFC3FE0DFF8AC140BA87D
S31508004AC001F094FC39E0DFF8A4140BA801F08EFC81
S31508004AD033E000BF8CCF0108DFF894140BA801F06F
S31508004AE085FC2AE0DFF88C140BA801F07FFC24E093
S31508004AF0DFF884140BA801F079FC1EE0DFF87C14BB
S31508004B000BA801F073FC18E0DFF874140BA801F089
S31508004B106DFC12E0A4CF0108DFF868140BA801F0B9
S31508004B2065FC0AE0DFF860140BA801F05FFC04E0FE
S31508004B30DFF858140BA801F059FC0BA9002000F067
S31508004B404BFB0600F6B2002E06D03000C0B222E1BA
S31508004B50BCCF0108D4CF0108DDF86824DFF830148B
S31508004B600BA801F043FC0BA9002000F035FB06005A
S31508004B70F6B2002E02D03000C0B20CE1DDF86C248B
S31508004B80DFF810140BA801F031FC0BA9002000F087
S31508004B9023FB06009DF8640400280FD1FFAA75328E
S31508004BA0DFF8F4130BA801F021FC0BA9002000F094
S31508004BB013FB060035E000BFECCF01080020804655
S31508004BC07FA10BA801F012FC002007002D2F28DA80
S31508004BD0FFA868303844427BDFF8C0132BA801F0E1
S31508004BE005FC2BA90BA801F01BFC18F10108B8F16C
S31508004BF0100F14DB75A10BA801F012FC00208046EB
S31508004C000BA9002000F0E8FA0600F6B2002E02D042
S31508004C103000C0B2BFE06AA10BA801F0E7FB7F1C19
S31508004C20D4E79DF87024DFF878130BA801F0DEFBB3
S31508004C3004E0DFF870130BA800F0F6F915E000BFE2
S31508004C4004D001081CD00108EDB2002D09D0B149E5
S31508004C500BA800F0E9F90BA800F0BCF90BA900F0C5
S31508004C6079FFA4490BA800F0DFF910E0EDB2002D9A
S31508004C7009D0A8490BA800F0D7F90BA800F0AAF9A3
S31508004C800BA900F067FF9B490BA800F0CDF9F6B217
S31508004C90002E07D0022E46D005D3032E4ED054E060
S31508004CA034D0010857E006F0D4FF4690469801280C
S31508004CB00AD002280DD0042810D0082818D01028A9
S31508004CC01BD020281ED027E0B7490BA800F0ACF966
S31508004CD026E0B6490BA800F0A7F921E0B4490BA8CD
S31508004CE000F0A2F91CE000BFACD80108D4D5010831
S31508004CF0B0490BA800F098F912E0AF490BA800F0EC
S31508004D0093F90DE0AD490BA800F08EF908E000BF55
S31508004D100CC30108C4AC0108A9490BA800F084F922
S31508004D2006F071FE17E0A7490BA800F07DF906F01A
S31508004D306AFE10E02CB5010850B50108A2490BA877
S31508004D4000F072F906F05FFE05E0A0490BA800F036
S31508004D506BF906F058FE0BA9002000F03DFA060094
S31508004D60F6B2002E06D03000C0B214E02CC30108FB
S31508004D7094C7010896490BA800F056F90BA900201C
S31508004D8000F02AFA0600F6B2002E02D03000C0B2B1
S31508004D9001E03000C0B20DF5A06D0DB0BDE8F08F92
S31508004DA04CC30108B0C701086CC301084CD0010800
S31508004DB08CC3010874B50108ACC30108ECAC010842
S31508004DC00000000098B50108F0A301080D0A0000CC
S31508004DD0BCB50108E0B50108CCC30108F4D8010840
S31508004DE004B601081CA40108F8B50400200000F068
S31508004DF0F1F805000020070000200600AE4216DA8A
S31508004E00A05D3A2802DAA05D302805DAA05D4728B9
S31508004E1005DAA05D412802DB0020070001E0012039
S31508004E200700012F01D1002002E0761CE6E70120E9
S31508004E30F2BD2DE9F041040000275FF000082000CC
S31508004E4000F0C8F8050000200600AE421ADAA05D98
S31508004E503A2806DAA05D302803DBA05D3038070063
S31508004E600CE0A05D472806DAA05D412803DBA05DBB
S31508004E703738070002E05FF0FF3004E017EB081848
S31508004E80761CE2E74046BDE8F08125480078704781
S31508004E9028B601084CB60108ECC3010870B601082B
S31508004EA048A4010894B60108B8B601080CC401085C
S31508004EB0DCB6010874A4010800B7010824B7010884
S31508004EC02CC4010848B70108000020414CC4010859
S31508004ED014AD01086CC40108A0A40108CCC70108D8
S31508004EE064D00108E8C701088CC40108ACC40108ED
S31508004EF06CB701080CC00108CCC401083CAD010818
S31508004F0004C8010864AD010820C801088CAD010871
S31508004F10B4AD0108CCBF01083CC8010858C801084F
S31508004F201F6700207CD00108AC9E010874C80108E0
S31508004F3090B70108B4B70108ECC40108F0A001084D
S31508004F40B4DB01080CD90108E8D5010890C80108A6
S31508004F50ACC80108D8B701080CC50108C8C80108BB
S31508004F60DCAD0108049D010864950108AC950108AB
S31508004F70F4950108E4C80108C8990108089A0108C7
S31508004F801893010864930108B093010894D00108A6
S31508004F90FCD5010834D7010844D70108BCDB010851
S31508004FA010D6010804AE01082CAE010820A101089C
S31508004FB050A1010880A1010854AE0108B0A101085A
S31508004FC07CAE0108A4AE0108CCAE0108F4AE010817
S31508004FD0C4DB010800F10103810704D010F8011BA6
S31508004FE089B18107FAD10268B2F10131914311F012
S31508004FF0803F04BF50F8042FF6E710F8011B11B1E3
S3150800500010F8011BFBE7C01A704703681AB95A1E45
S31508005010026008467047197800290FBF4FF0FF3025
S31508005020591C0160187870475FEA000C830706D0A0
S3150800503011F8013B00F8013BB3B18307F8D10A68C0
S31508005040B2F1013323EA020313F0803F02BF40F8AE
S31508005050042B51F8042FF3E711F8013B00F8013B44
S3150800506013B111F8013BF9E76046704780B5DFF8E0
S315080050707005DFF8701508604FF49640DFF8641580
S3150800508048600020DFF85C1588600020DFF85415BA
S31508005090C8600020DFF84C1508610C20DFF84415BD
S315080050A048610020DFF83C1588610020DFF83415D8
S315080050B0C861DFF8300508F06DF8002801D009F05E
S315080050C071F801BD80B5DFF82005DFF82015086006
S315080050D05FF4E130DFF8141548600020DFF80C159E
S315080050E088600020DFF80415C8600020DFF8FC148B
S315080050F008610C20DFF8F41448614FF44070DFF8BB
S31508005100EC1488610020DFF8E414C861DFF8DC04D9
S3150800511008F040F8002801D009F044F801BD10B5A0
S3150800512086B004002068DFF8B81488421ED1DFF87C
S31508005130C004006850F40030DFF8B4140860DFF8E3
S31508005140B004006810F40030009000980C2001901C
S315080051500220029001200390032004900720059066
S3150800516001A9DFF8900409F035F833E02068DFF884
S31508005170781488422ED1DFF87804006850F480202D
S31508005180DFF86C140860DFF86804006810F4802003
S31508005190009000984FF44060019002200290012090
S315080051A00390032004900720059001A9DFF848041E
S315080051B009F010F84FF4C040019002200290002038
S315080051C00390032004900720059001A9DFF828041E
S315080051D009F000F806B010BDF8B504000D00280067
S315080051E0FFF7F8FE0700BFB2832F01DB01203AE084
S315080051F0E4B2002C19D1DFF804040078002801D0A5
S31508005200022030E04FF400433A0092B22900DFF85A
S31508005210D40307F0F8FF0600F6B2002E02D03000DD
S31508005220C0B220E03000C0B21DE0E4B2012C19D1B2
S31508005230DFF8CC030078002801D0022013E04FF4F1
S3150800524000433A0092B22900DFF8A00307F0DBFF1B
S315080052500600F6B2002E02D03000C0B203E03000DD
S31508005260C0B200E00120F2BDF8B504000D00280028
S31508005270FFF7B0FE0700BFB2832F01DB012036E03F
S31508005280E4B2002C17D1DFF874030078002801D0A7
S3150800529002202CE03A0092B22900DFF8480308F011
S315080052A030F80600F6B2002E02D03000C0B21EE07A
S315080052B03000C0B21BE0E4B2012C17D1DFF840037E
S315080052C00078002801D0022011E03A0092B22900A5
S315080052D0DFF8180308F015F80600F6B2002E02D01B
S315080052E03000C0B203E03000C0B200E00120F2BDD9
S315080052F0DFF8100370470120DFF80C1308707047B9
S31508005300DFF8040300787047F8B504000D001600AE
S31508005310B6B2832E01DB01205AE0E4B2002C29D173
S31508005320DFF8D8020078002801D0022050E0DFF824
S31508005330E0020560DFF8DC020680DFF8D8020088A4
S31508005340DFF8D4120880DFF8C8020068DFF8CC124C
S3150800535008600122DFF8C812DFF8880208F009F8A9
S315080053600700FFB2002F02D03800C0B230E0380084
S31508005370C0B22DE0E4B2012C29D1DFF8840200780E
S31508005380002801D0022023E0DFF884020560DFF858
S3150800539084020680DFF87C020088DFF87C12088029
S315080053A0DFF86C020068DFF8741208600122DFF883
S315080053B07012DFF8380207F0DCFF0700FFB2002F93
S315080053C002D03800C0B203E03800C0B200E00120C5
S315080053D0F2BD10B504002000C0B200F006F801289E
S315080053E001D0002000E0012010BD0100C9B200294B
S315080053F003D17C4890F8390007E0C9B2012903D1E6
S315080054007A4890F8390000E0042070470168744A29
S31508005410914203D10121794A117006E00168724A66
S31508005420914202D10121764A11707047C0B2002814
S3150800543003D10021714A117005E0C0B2012802D1DA
S3150800544000216F4A1170704770B5040020686449DE
S31508005450884253D1FFF719FD00280CD07048007810
S315080054606E490968087000206C490968487001206F
S31508005470624908708FE06A4800780A2807D06848A9
S3150800548000780D2803D064480088002807D100203A
S315080054906249096808700120584908707BE060482D
S315080054A00078082815D15C4800885A490988884236
S315080054B071D259480088401C5749088057480068E7
S315080054C0401E5649086001225549464807F051FFD3
S315080054D061E0534800785149096808704E480088C9
S315080054E0401E4D4908804D480068401C4B490860DD
