S02E0000526F616420426F61726420526576204D2E3520424153454C494E4520446563203920323031362E737265637A
S31508000000501100200D9301086197010865970108B2
S31508000010699701086D9701087197010800000000AB
S31508000020000000000000000000000000B76601089C
S31508000030759701080000000065660108F967010860
S3150800004089A70008799701087D9701088197010813
S3150800005085970108899701088D97010891970108E6
S3150800006095970108999701089D9701080168010865
S31508000070A1970108A5970108A9970108AD97010856
S31508000080B1970108B5970108B9970108BD97010806
S315080000900B680108C1970108C5970108C9970108A7
S315080000A0CD970108D1970108D5970108D997010876
S315080000B0476801085168010815680108336801088E
S315080000C03D680108DD970108E1970108E5970108F1
S315080000D0E9970108ED970108296801081F680108D2
S315080000E0F1970108F5970108F997010845520008A4
S315080000F0FD9701080000000001980108059801080D
S31508000100099801080D980108119801081598010821
S31508000110199801081D980108219801080000000097
S315080001202598010801201D4981F8280000207047FC
S3150800013010B50400194890F82800022801D10220B9
S3150800014016E0164890F82800002801D101200FE093
S31508000150200003F093FD282801D3012008E02100A0
S315080001600E4803F0B5FD02200C4981F8280000204E
S3150800017010BD10B5094890F8280002280BD10121B6
S31508000180064800F00DF804000120044981F828000B
S315080001902000C0B200E0002010BD00006C35002031
S315080001A02DE9F04FADF5806D97B004000D002000E5
S315080001B003F064FD8046DFF8E80D007800281ED0BD
S315080001C020781B2815D10020DFF8D41D0870DFF829
S315080001D0D41D0FA803F07CFD0FA9002003F050FEE4
S315080001E00600F6B2002E03F054843000C0B203F0C5
S315080001F052BC2100012004F073FA03F04ABC2078AF
S3150800020030282FD0312848D0322879D0332800F02A
S31508000210AA80342800F0DA80352800F00A813628CA
S3150800022000F07881412800F08E81422800F0E982AA
S31508000230432800F09385442800F07B87452801F081
S31508000240ED80462801F0FF80472801F017814828ED
S3150800025001F09481502801F06B84542801F09884A9
S3150800026003F08CBB04F031FD0600F6B2002E12D165
S31508000270EDB2002D0AD0DFF8D81D0FA803F028FD2F
S315080002800FA803F0FBFC0FA904F02AFADFF81C1EDE
S315080002900FA803F01DFD03F082BB8CA804F067FDD0
S315080002A00600DFF80C1E0FA803F012FD0FA90020A8
S315080002B003F0E6FD0600F6B2002E03D03000C0B209
S315080002C003F0E9BBEDB2002D0BD08CAADFF8E41DD4
S315080002D00FA804F0DDFD0FA803F0D0FC0FA904F069
S315080002E0FFF9DFF81C1E0FA804F0D2FD8CA90FA891
S315080002F004F0E8FDD8A10FA804F0E4FD03F04FBB15
S315080003008CA804F050FD0600DFF8FC1D0FA803F0CA
S31508000310DFFC0FA9002003F0B3FD0600F6B2002E9D
S3150800032003D03000C0B203F0B6BBEDB2002D0BD03F
S315080003308CAADFF8D81D0FA804F0AAFD0FA803F0B1
S315080003409DFC0FA904F0CCF9DFF8C41D0FA804F032
S315080003509FFD8CA90FA804F0B5FDBFA10FA804F056
S31508000360B1FD03F01CBB8CA804F03BFD0600DFF8CA
S31508000370A41D0FA803F0ACFC0FA9002003F080FD14
S315080003800600F6B2002E03D03000C0B203F083BBDD
S31508000390EDB2002D0BD08CAADFF87C1D0FA804F057
S315080003A077FD0FA803F06AFC0FA904F099F9DFF8A6
S315080003B06C1D0FA804F06CFD8CA90FA804F082FD33
S315080003C0A5A10FA804F07EFD03F0E9BA8CA804F0F5
S315080003D026FD0600DFF8481D0FA803F079FC0FA9D3
S315080003E0002003F04DFD0600F6B2002E03D03000C3
S315080003F0C0B203F050BBEDB2002D0BD08CAADFF8CB
S31508000400041E0FA804F044FD0FA803F037FC0FA93B
S3150800041004F066F9DFF8F01D0FA804F039FD8CA981
S315080004200FA804F04FFD8CA10FA804F04BFD03F0B4
S31508000430B6BA04F017FC4790DFF8D01D0FA803F0F2
S3150800044047FC8CA804F093FC06000FA9002003F0D3
S3150800045017FD0600F6B2002E03D03000C0B203F036
S315080004601ABBEDB2002D0AD0DFF8E81D0FA803F07D
S315080004702FFC0FA803F002FC0FA904F031F90020A5
S315080004803A90DAA10FA804F003FD00200700802F98
S315080004902EDA4798C257DFF8C01D0CA804F0F8FCFE
S315080004A00CA90FA804F00EFD3A98401C3A903A9809
S315080004B010281BDB68A10FA804F004FD00203A9061
S315080004C00FA9002003F0DCFC0600F6B2002E03D0CC
S315080004D03000C0B203F0DFBA0FA803F0CFFB0FA9B4
S315080004E004F0FEF8C1A10FA804F0D2FC7F1CCEE7E9
S315080004F0DFF8101E0FA803F0EBFB0FA803F0BEFBF6
S315080005000FA904F0EDF8DFF8001E0FA804F0C0FCF0
S3150800051003F045BA0020060004F09FFCEDB2002D5A
S315080005200AD0DFF8E81D0FA803F0D2FB0FA803F0E6
S31508000530A5FB0FA904F0D4F8DFF8D41D0FA803F023
S31508000540C7FB03F02CBA5FFA88F8B8F1010F00F080
S3150800055056816078362839D0382800F0B88039288E
S3150800056000F02281492840F0458104F0B9FC0600D4
S31508000570EDB2002D0AD0DFF8041E0FA803F0A8FB81
S315080005800FA803F07BFB0FA904F0AAF8F6B2002E19
S3150800059005D1DFF8EC1D0FA803F09AFB15E0DFF88C
S315080005A0101E0FA803F094FB8DF8B4600FA9002065
S315080005B003F066FC0600F6B2002E03D03000C0B287
S315080005C003F069BA9DF8B400060018E1ADA804F076
S315080005D0FAFC0600F6B2002E04D1FFA8403004F05B
S315080005E0A9FC0600F6B2002E5AD1DFF8C81D0FA8DE
S315080005F003F06EFB0FA9002003F042FC0600F6B2DA
S31508000600002E03D03000C0B203F045BADFF8A81DAB
S315080006100FA804F03DFC0FA9002003F031FC0600EA
S31508000620F6B2002E03D03000C0B203F034BAFFABE6
S315080006304033ADAADFF8841D0FA804F029FC0FA9E2
S31508000640002003F01DFC0600F6B2002E06D030008E
S31508000650C0B203F020BA00BF0D0A0000EDB2002DAB
S315080006600AD0DFF8181D0FA803F032FB0FA803F015
S3150800067005FB0FA904F034F8DFF8F41D0FA804F001
S3150800068007FCB0A90FA804F01DFCB39ADFF8E41D17
S315080006900CA804F0FDFB0CA90FA804F013FC15E048
S315080006A0DFF8D41D0FA803F013FB8DF8B4600FA96B
S315080006B0002003F0E5FB0600F6B2002E03D030005A
S315080006C0C0B203F0E8B99DF8B400060097E03DA86B
S315080006D004F0BDFC0600F6B2002E27D1DFF8F81D9F
S315080006E00FA803F0F5FA0FA9002003F0C9FB0600CE
S315080006F0F6B2002E03D03000C0B203F0CCB9DFF852
S31508000700DC1D0FA804F0C4FB0DF581710FA804F0D9
S31508000710D9FB37A10FA804F0D5FB0FA9002003F0D9
S31508000720AFFB0600F6B2002E01D104E067E0300008
S31508000730C0B203F0B0B9BDF80A21DFF8081E0FA849
S3150800074004F0A6FB0FA9002003F09AFB0600F6B2F8
S31508000750002E03D03000C0B203F09DB9EDB2002DD3
S315080007600AD0DFF8181C0FA803F0B2FA0FA803F096
S3150800077085FA0FA903F0B4FFDFF8CC1D0FA804F023
S3150800078087FB3DA90FA804F09DFBDFF8C01D0FA845
S3150800079004F098FB0DF1FB010FA804F093FB14A1DC
S315080007A00FA804F08FFB2AE004F0B0FC0600EDB2B7
S315080007B0002D0AD0DFF8C41B0FA803F089FA0FA88A
S315080007C003F05CFA0FA903F08BFFF6B2002E05D1F1
S315080007D0DFF87C1D0FA803F07BFA06E0DFF8741D2E
S315080007E00FA803F075FA0020060008E000000000D4
S315080007F00D0A0000DFF8601D0FA803F069FA03F080
S31508000800CEB85FFA88F8B8F1010F40F034810520B8
S3150800081005F0E6FD00280BD056A807F0A7F9060054
S31508000820F6B2002E17D1C6A806F01AFE060012E088
S31508000830062005F0D5FD00280BD056A806F0ACFA20
S315080008400600F6B2002E06D1C6A805F03AFF060045
S3150800085001E001200600EDB2002D0AD0DFF81C1BCE
S315080008600FA803F035FA0FA803F008FA0FA903F04A
S3150800087037FFF6B2002E40F0FC80DFF8EC1D0FA81B
S3150800088003F026FA0FA9002003F0FAFA0600F6B2DA
S31508000890002E03D03000C0B203F0FDB800200700D8
S315080008A0092F80F2D380002F0FD0022F35D020D306
S315080008B0042F5AD045D3062F00F07F8069D3082F1E
S315080008C000F0A380C0F08D80B2E0BDF86E01039001
S315080008D0C7A8C01C029057A8C01C0190C6A80090C3
S315080008E056AB0DF5B372DFF81C1E0FA804F0D0FA4C
S315080008F09EE0BDF886010390CDA8C01C02905DA8B5
S31508000900C01C0190CCA800905CAB0DF5BF72DFF857
S31508000910F81D0FA804F0BCFA8AE0BDF89E01039002
S31508000920D3A8C01C029063A8C01C0190D2A800904E
S3150800093062AB0DF5CB72DFF8D01D0FA804F0A8FA4C
S3150800094076E0BDF8B6010390D9A8C01C029069A844
S31508000950C01C0190D8A8009068AB0DF5D772DFF8D7
S31508000960A81D0FA804F094FA62E0BDF8CE01039022
S31508000970DFA8C01C02906FA8C01C0190DEA80090DA
S315080009806EAB0DF5E372DFF8801D0FA804F080FA50
S315080009904EE0BDF8E6010390E5A8C01C029075A8D4
S315080009A0C01C0190E4A8009074AB0DF5EF72DFF857
S315080009B0581D0FA804F06CFA3AE0BDF8FE01039042
S315080009C0EBA8C01C02907BA8C01C0190EAA8009066
S315080009D07AAB0DF5FB72DFF8301D0FA804F058FA54
S315080009E026E0BDF816020390F1A8C01C029081A863
S315080009F0C01C0190F0A8009080AB83AA921CDFF877
S31508000A00081D0FA804F044FA12E0BDF82E02039060
S31508000A10F7A8C01C029087A8C01C0190F6A80090F1
S31508000A2086AB89AA921CDFF8E01C0FA804F030FAFE
S31508000A300FA9002003F024FA0600F6B2002E03D010
S31508000A403000C0B203F027B87F1C29E7DFF8F81D8D
S31508000A500FA804F01DFA45A90FA804F033FABEA1A1
S31508000A600FA804F02FFADFF8E81D0FA804F010FA13
S31508000A7070E102F094BF607830281FD0312800F06A
S31508000A805081492840F0668106F034FC0600EDB234
S31508000A90002D0AD0DFF8E4180FA803F019F90FA8FB
S31508000AA003F0ECF80FA903F01BFEF6B2002E04D1F2
S31508000AB0DFF8041E0FA803F00BF94BE1052005F03B
S31508000AC08FFC00280BD056A807F050F80600F6B29F
S31508000AD0002E17D1C6A806F0C3FC060012E00620B1
S31508000AE005F07EFC00280BD056A806F055F906003E
S31508000AF0F6B2002E06D1C6A805F0E3FD060001E011
S31508000B0001200600EDB2002D0AD0DFF870180FA8F4
S31508000B1003F0DEF80FA803F0B1F80FA903F0E0FD23
S31508000B20F6B2002E40F0FC80DFF83C1B0FA803F05D
S31508000B30CFF80FA9002003F0A3F90600F6B2002E9D
S31508000B4003D03000C0B202F0A6BF00200700092F6C
S31508000B5080F2D380002F0FD0022F35D020D3042F58
S31508000B605AD045D3062F00F07F8069D3082F00F0AE
S31508000B70A380C0F08D80B2E0BDF86E010390C7A8CF
S31508000B80C01C029057A8C01C0190C6A8009056AB7E
S31508000B900DF5B372DFF86C1B0FA804F079F99EE027
S31508000BA0BDF886010390CDA8C01C02905DA8C01CA4
S31508000BB00190CCA800905CAB0DF5BF72DFF8481B1E
S31508000BC00FA804F065F98AE0BDF89E010390D3A842
S31508000BD0C01C029063A8C01C0190D2A8009062AB0A
S31508000BE00DF5CB72DFF8201B0FA804F051F976E05B
S31508000BF0BDF8B6010390D9A8C01C029069A8C01C0C
S31508000C000190D8A8009068AB0DF5D772DFF8F81AEE
S31508000C100FA804F03DF962E0BDF8CE010390DFA805
S31508000C20C01C02906FA8C01C0190DEA800906EAB95
S31508000C300DF5E372DFF8D01A0FA804F029F94EE093
S31508000C40BDF8E6010390E5A8C01C029075A8C01C73
S31508000C500190E4A8009074AB0DF5EF72DFF8A81ABE
S31508000C600FA804F015F93AE0BDF8FE010390EBA8C9
S31508000C70C01C02907BA8C01C0190EAA800907AAB21
S31508000C800DF5FB72DFF8801A0FA804F001F926E0CB
S31508000C90BDF816020390F1A8C01C029081A8C01CDA
S31508000CA00190F0A8009080AB83AA921CDFF8581A2E
S31508000CB00FA804F0EDF812E0BDF82E020390F7A88D
S31508000CC0C01C029087A8C01C0190F6A8009086ABAD
S31508000CD089AA921CDFF8301A0FA804F0D9F80FA9D0
S31508000CE0002003F0CDF80600F6B2002E03D030003F
S31508000CF0C0B202F0D0BE7F1C29E7DFF84C1B0FA854
S31508000D0004F0C6F845A90FA804F0DCF812A10FA84C
S31508000D1004F0D8F8DFF8381B0FA804F0B9F819E082
S31508000D2018E006F052FB0600EDB2002D0AD0DFF8F7
S31508000D304C160FA802F0CCFF0FA802F09FFF0FA9D0
S31508000D4003F0CEFCF6B2002E04D1DFF8D01D0FA8B2
S31508000D5002F0BEFF02F023BE0D0A00005FFA88F813
S31508000D60B8F1010F50D143A807F075FD0600F6B299
S31508000D70002E03D195A807F0F5FC0600F6B2002E62
S31508000D8026D1DFF8041E0FA802F0A2FF0FA9002043
S31508000D9003F076F80600F6B2002E03D03000C0B293
S31508000DA002F079BEDFF8E41D0FA804F071F845A932
S31508000DB00FA804F087F8D3A10FA804F083F80FA9A9
S31508000DC0002003F05DF80600F6B2002E02D105E019
S31508000DD002F0E5BD3000C0B202F05DBEEDB2002DF6
S31508000DE00AD0DFF898150FA802F072FF0FA802F0D4
S31508000DF045FF0FA903F074FC95AB43AADFF8C41DA1
S31508000E000FA804F045F892E16078302824D03128FC
S31508000E1072D0322800F0C880332800F01B81492898
S31508000E2040F0808107F06EF90600EDB2002D0AD079
S31508000E30DFF848150FA802F04BFF0FA802F01EFFB7
S31508000E400FA903F04DFCF6B2002E04D1DFF8D81D29
S31508000E500FA802F03DFF6AE143A807F02AFA060048
S31508000E60F6B2002E03D195A807F0A7F90600EDB251
S31508000E70002D0AD0DFF804150FA802F029FF0FA8E5
S31508000E8002F0FCFE0FA903F02BFCF6B2002E26D1C9
S31508000E90DFF8D4170FA802F01BFF0FA9002002F0F5
S31508000EA0EFFF0600F6B2002E03D03000C0B202F003
S31508000EB0F2BDDFF894190FA803F0EAFF45A90FA8B9
S31508000EC004F000F88FA10FA803F0FCFF0FA900207B
S31508000ED002F0D6FF0600F6B2002E01D104E026E1A4
S31508000EE03000C0B202F0D7BD95AB43AADFF8881D23
S31508000EF00FA803F0CDFF1AE1C2A807F0CDFA060045
S31508000F00F6B2002E04D1FFA8303007F049FA0600E1
S31508000F10EDB2002D0AD0DFF864140FA802F0D8FE4F
S31508000F200FA802F0ABFE0FA903F0DAFBF6B2002E0B
S31508000F3027D1DFF8E41D0FA802F0CAFE0FA900208A
S31508000F4002F09EFF0600F6B2002E03D03000C0B2B3
S31508000F5002F0A1BDDFF8C41D0FA803F099FFC4A9CC
S31508000F60491C0FA803F0AEFF66A10FA803F0AAFF5D
S31508000F700FA9002002F084FF0600F6B2002E01D168
S31508000F8004E0D4E03000C0B202F085BDFFAB3033D8
S31508000F90C2AADFF88C1D0FA803F07AFFC7E000BFCE
S31508000FA001370020606E0108BEA807F066FB060040
S31508000FB0F6B2002E04D1FFA8203007F0E4FA0600A6
S31508000FC0EDB2002D0AD0DFF8B4130FA802F080FEA8
S31508000FD00FA802F053FE0FA903F082FBF6B2002E0B
S31508000FE027D1DFF8401D0FA802F072FE0FA90020D6
S31508000FF002F046FF0600F6B2002E03D03000C0B25B
S3150800100002F049BDDFF8201D0FA803F041FFC0A973
S31508001010491C0FA803F056FF3AA10FA803F052FF88
S315080010200FA9002002F02CFF0600F6B2002E01D10F
S3150800103004E07CE03000C0B202F02DBDFFAB2033E7
S31508001040BEAADFF8D41D0FA803F022FF6FE000BF89
S31508001050347A010843A807F0FEFB0600F6B2002E14
S3150800106003D195A807F07EFB0600EDB2002D09D046
S31508001070C2490FA802F02CFE0FA802F0FFFD0FA927
S3150800108003F02EFBF6B2002E2CD1DFF8FC1A0FA8BF
S3150800109002F01EFE0FA9002002F0F2FE0600F6B2CC
S315080010A0002E09D03000C0B202F0F5BC646A01080F
S315080010B0BC74010850820108DFF8D01A0FA803F0A3
S315080010C0E7FE45A90FA803F0FDFE0EA10FA803F041
S315080010D0F9FE0FA9002002F0D3FE0600F6B2002E94
S315080010E001D104E023E03000C0B202F0D4BC95ABD5
S315080010F043AADFF8D01A0FA803F0CAFE17E000BF0C
S31508001100708201080D0A0000E47401089082010843
S31508001110B08201080C750108D0820108F082010826
S3150800112034750108DFF830140FA802F0D1FD02F07B
S3150800113036BC5FFA88F8B8F1010F69D151A807F0F3
S31508001140F1FD0600F6B2002E03D1FCA807F067FCF5
S315080011500600EDB2002D09D088490FA802F0B8FDA7
S315080011600FA802F08BFD0FA903F0BAFAF6B2002E0B
S3150800117026D1DFF8C01D0FA802F0AAFD0FA900208E
S3150800118002F07EFE0600F6B2002E03D03000C0B292
S3150800119002F081BCDFF8A01D0FA803F079FE53A961
S315080011A00FA803F08FFECEA10FA803F08BFE0FA9A0
S315080011B0002002F065FE0600F6B2002E02D105E018
S315080011C002F0EDBB3000C0B202F065BCBDF8542198
S315080011D0DFF8681D0FA803F05BFE0FA9002002F0D8
S315080011E04FFE0600F6B2002E03D03000C0B202F061
S315080011F052BCFCAB51AADFF8481D0FA803F048FE05
S315080012000AE100BF10830108308301085C750108F4
S315080012106078302822D0312800F08A80492840F0AA
S31508001220FB8007F0A9FB0600EDB2002D09D0534953
S315080012300FA802F04DFD0FA802F020FD0FA903F03C
S315080012404FFAF6B2002E04D1DFF8DC1D0FA802F023
S315080012503FFDE1E0587A01085496010851A807F0C5
S3150800126061FD0600EDB2002D09D044490FA802F031
S315080012702FFD0FA802F002FD0FA903F031FAF6B20E
S31508001280002E26D1DFF8AC1C0FA802F021FD0FA90D
S31508001290002002F0F5FD0600F6B2002E03D030005D
S315080012A0C0B202F0F8BBDFF8901C0FA803F0F0FDFF
S315080012B053A90FA803F006FE89A10FA803F002FEA2
S315080012C00FA9002002F0DCFD0600F6B2002E01D1BF
S315080012D004E0A1E03000C0B202F0DDBBBDF8542145
S315080012E0DFF8581C0FA803F0D3FD0FA9002002F061
S315080012F0C7FD0600F6B2002E0CD03000C0B202F0D0
S31508001300CABB00BF4894010814910108A8870108C0
S315080013107C7A0108DFF8C01D0FA803F0B9FD51A9B2
S315080013200FA803F0CFFD6EA10FA803F0CBFD73E065
S315080013303DA807F0F6FF0600EDB2002D09D00F49CB
S315080013400FA802F0C5FC0FA802F098FC0FA903F03D
S31508001350C7F9F6B2002E33D1DFF8D81B0FA802F072
S31508001360B7FC0FA9002002F08BFD0600F6B2002E8E
S3150800137008D03000C0B202F08EBB00BF508301080F
S315080013808475010855490FA803F082FD0DF5817192
S315080013900FA803F097FD52A10FA803F093FD0FA91C
S315080013A0002002F06DFD0600F6B2002E09D10CE011
S315080013B0AC750108D4750108986E010828910108D2
S315080013C02AE03000C0B202F066BBBDF80A215D49CA
S315080013D00FA803F05DFD0FA9002002F051FD0600DD
S315080013E0F6B2002E03D03000C0B202F054BB564904
S315080013F00FA803F04DFD3DA90FA803F063FD53495F
S315080014000FA803F05FFD0DF1FB010FA803F05AFDCD
S3150800141033A10FA803F056FD02F0C1BAEDB2002DB4
S315080014200AD0DFF8601D0FA802F052FC0FA802F0E0
S3150800143025FC0FA903F054F9DFF84C1D0FA802F09C
S3150800144047FC02F0ACBAEDB2002D0AD0DFF8341D25
S315080014500FA802F03DFC0FA802F010FC0FA903F03C
S315080014603FF9DFF8281D0FA802F032FC02F097BA00
S31508001470AC92010854940108FC7501083DA808F0CF
S3150800148085F90600EDB2002D0AD0DFF8F81C0FA882
S3150800149002F01EFC0FA802F0F1FB0FA903F020F9D9
S315080014A0F6B2002E04D1FFA8083008F0C3F80600EB
S315080014B0F6B2002E2DD1DFF8E81D0FA802F008FCC1
S315080014C00FA9002002F0DCFC0600F6B2002E09D0B7
S315080014D03000C0B202F0DFBA247601083C91010858
S315080014E00D0A0000DFF8BC1D0FA803F0D1FC0DF5AE
S315080014F081710FA803F0E6FCD4A10FA803F0E2FC63
S315080015000FA9002002F0BCFC0600F6B2002E02D19C
S3150800151005E002F044BA3000C0B202F0BCBABDF829
S315080015200A2108490FA803F0B3FC0FA9002002F00E
S31508001530A7FC0600F6B2002E10D03000C0B202F0AA
S31508001540AABA00BF70830108BC920108CC920108B0
S315080015504C7601087476010890830108FFA80F30BD
S3150800156001900DF1FB000090FFAB08333DAADFF8B0
S31508001570C41D0FA803F08CFC02F011BA5FFA88F8B4
S31508001580B8F1010F74D1B4A808F0B0FA0600EDB2AC
S31508001590002D0AD0DFF8EC1B0FA802F099FB0FA864
S315080015A002F06CFB0FA903F09BF8F6B2002E5DD192
S315080015B0DFF8841D0FA802F08BFB0FA9002002F0AC
S315080015C05FFC0600F6B2002E03D03000C0B202F06F
S315080015D062BADFF8E41D0FA803F05AFC0FA9002031
S315080015E002F04EFC0600F6B2002E03D03000C0B260
S315080015F002F051BADFF8C41D0FA802F069FBBAA9B8
S315080016000FA803F05FFC91A10FA803F05BFC0FA9DC
S31508001610002002F035FC0600F6B2002E03D030009A
S31508001620C0B202F038BADFF8D41D0FA802F050FB9A
S31508001630B4A90FA803F046FCDFF8C41D0FA803F0F1
S3150800164041FCB6A90FA803F03DFCDFF8B81D0FA8AA
S3150800165003F038FCB8A90FA803F034FC7BA10FA847
S3150800166003F030FC62E200BFA07A010802F097B9E5
S315080016706078302800F06781312800F0D58132285B
S3150800168000F00282332800F01A82492840F0498285
S315080016905FFA88F8B8F1020F1AD108F025F90600A2
S315080016A0EDB2002D0AD0DFF8DC1A0FA802F010FB05
S315080016B00FA802F0E3FA0FA903F012F8F6B2002E0B
S315080016C040F04081DFF8B41D0FA802F001FB39E1B4
S315080016D0EDB2002D0AD0DFF8AC1A0FA802F0F8FA1E
S315080016E00FA802F0CBFA0FA902F0FAFF5FFA88F802
S315080016F0B8F11D0F0AD0DFF8C81D0FA802F0E8FAE6
S3150800170020E100BFB4700108E4700108A0783A2807
S3150800171017D160792E2814D1207A2E2811D1E07A93
S315080017202E280ED1A07B2E280BD1607C2E2808D11E
S31508001730207D2E2805D1E07D2E2802D1A07E2E28D8
S3150800174005D0DFF8C01D0FA802F0C2FAFAE00020A3
S31508001750359000200700092F26DA032000FB07F042
S31508001760204490F903008DF83000032000FB07F0B1
S31508001770204490F904008DF8310000208DF83200DD
S315080017800CA802F09FF9002807D1DFF8B81D0FA8AA
S3150800179002F09EFA0120359006E00CA802F0B7F98F
S315080017A099A9C8557F1CD6E79DF86402082805DB69
S315080017B0DFF8D01D0FA802F08BFAB7E19DF8640296
S315080017C010F007008DF8CD009DF86502022805DBAC
S315080017D0DFF8B41D0FA802F07BFAA7E19DF86502B1
S315080017E010F00100C0B2C0008DF8CC009DF866026A
S315080017F0022805DBDFF8D01D0FA802F069FA95E18B
S315080018009DF8660210F00100C0B200018DF8CB0009
S315080018109DF86702022805DBDFF8B01D0FA802F065
S3150800182057FA83E19DF8670210F00100C0B2400143
S315080018308DF8CA009DF8680240280BDBDFF8CC1D3E
S315080018400FA802F045FA71E16C8901080D0A00003B
S31508001850509101089DF8680210F03F008DF8C90004
S315080018609DF86902022805DBDFF8E01D0FA802F0E3
S315080018702FFA5BE19DF8690210F0010080214843C8
S315080018808DF8C8009DF86A02042805DBDFF8C01D3C
S315080018900FA802F01DFA49E19DF86A0210F003004C
S315080018A08DF8B7009DF86B02042807DBDFF8E01D0A
S315080018B00FA802F00DFA39E1D06E01089DF86B0207
S315080018C010F00300C0B280008DF8B6009DF86C02D7
S315080018D0022805DBDFF8BC1D0FA802F0F9F925E19F
S315080018E09DF86C0210F00100C0B200018DF8B50039
S315080018F09DF8CD009DF8CC1008189DF8CB10081857
S315080019009DF8CA1008188DF8EC009DF8C9009DF8D6
S31508001910C81008188DF8ED009DF8B7009DF8B610A8
S3150800192008189DF8B51008188DF8EE003BA808F0C1
S3150800193003F80600F6B2002E04D1DFF8D01D0FA872
S3150800194002F0C6F9F2E0B4A808F0D0F80600EDB245
S31508001950002D0AD0DFF82C180FA802F0B9F90FA845
S3150800196002F08CF90FA902F0BBFEF6B2002E5AD18E
S31508001970DFF8C4190FA802F0ABF90FA9002002F08E
S315080019807FFA0600F6B2002E03D03000C0B202F08D
S3150800199082B8DFF8241A0FA803F07AFA0FA90020F4
S315080019A002F06EFA0600F6B2002E03D03000C0B27E
S315080019B002F071B8DFF8041A0FA802F089F9BAA97B
S315080019C00FA803F07FFAD3A10FA803F07BFA0FA99B
S315080019D0002002F055FA0600F6B2002E03D03000B9
S315080019E0C0B202F058B8DFF8141A0FA802F070F95E
S315080019F0B4A90FA803F066FADFF8041A0FA803F0D3
S31508001A0061FAB6A90FA803F05DFADFF8F8190FA86E
S31508001A1003F058FAB8A90FA803F054FABDA10FA805
S31508001A2003F050FA82E081E04DA808F018F80600A5
S31508001A30EDB2002D0AD0DFF84C170FA802F048F9CE
S31508001A400FA802F01BF90FA902F04AFEF6B2002E03
S31508001A5019D1DFF8A41D0FA802F03AF99DF8342130
S31508001A60DFF8D41D0CA803F013FA0CA90FA803F08D
S31508001A7029FA4DA9491C0FA803F024FAA5A10FA815
S31508001A8003F020FA52E051E007F080FF0600EDB2BD
S31508001A90002D0AD0DFF8EC160FA802F019F90FA8E6
S31508001AA002F0ECF80FA902F01BFEF6B2002E05D1E3
S31508001AB0DFF8C41D0FA802F00BF937E036E04FA88F
S31508001AC007F086FF0600EDB2002D0AD0DFF8B4163F
S31508001AD00FA802F0FDF80FA802F0D0F80FA902F03F
S31508001AE0FFFDF6B2002E1BD1DFF8CC1D0FA802F0C1
S31508001AF0EFF89DF83C21DFF8401D0CA803F0C8F963
S31508001B000CA90FA803F0DEF94FA9491C0FA803F08A
S31508001B10D9F980A10FA803F0D5F907E034720108B6
S31508001B2004E0DFF8981D0FA802F0D2F801F037BFDD
S31508001B306078442818D055281FD1042008F020F9C9
S31508001B40EDB2002D0AD0DFF83C160FA802F0C0F857
S31508001B500FA802F093F80FA902F0C2FDDFF8C41D22
S31508001B600FA802F0B5F80DE0042008F017F9DFF821
S31508001B70B81D0FA802F0ACF804E0DFF8B01D0FA8F6
S31508001B8002F0A6F801F00BBF9C76010884890108CB
S31508001B905FFA88F8B8F1020F16DAEDB2002D0AD00E
S31508001BA0DFF8E0150FA802F093F80FA802F066F820
S31508001BB00FA902F095FDDFF8BC1D0FA802F088F802
S31508001BC001F0DBBEC48701086078432800F0E08294
S31508001BD0442801F0878249280DD04B2801F0C0829D
S31508001BE04D2801F09186522801F09E82552801F071
S31508001BF0218601F0B1BE5FFA88F8B8F1090F15DA47
S31508001C00EDB2002D0AD0DFF87C150FA802F060F8B7
S31508001C100FA802F033F80FA902F062FDDFF8581D8D
S31508001C200FA802F055F8AAE260720108A0785128B8
S31508001C3000F0FC81C0F09E82532802D0C0F0CE800E
S31508001C4098E2E0783A2802D1A0792E2816D0EDB28B
S31508001C50002D0AD0DFF82C150FA802F039F80FA8C6
S31508001C6002F00CF80FA902F03BFDDFF8101D0FA8D3
S31508001C7002F02EF8B1E000BFE0870108EDB2002DB2
S31508001C800AD0DFF800150FA802F022F80FA801F015
S31508001C90F5FF0FA902F024FD94F904008DF8300031
S31508001CA094F905008DF8310000208DF832000CA853
S31508001CB001F008FF002805D1DFF8DC1D0FA802F0A7
S31508001CC007F88AE00CA801F022FF319094F9070082
S31508001CD08DF8300094F908008DF8310000208DF851
S31508001CE032000CA801F0EEFE002805D1DFF8AC1D85
S31508001CF00FA801F0EDFF70E00CA801F008FF349082
S31508001D003498002812D1319ADFF8941D0FA803F0F1
S31508001D10BFF839E00D0A0000C47A01086491010889
S31508001D209C890108B0830108789101080020359044
S31508001D30002007003498874226DA032000FB07F0C4
S31508001D40204490F90A008DF83000032000FB07F0C4
S31508001D50204490F90B008DF8310000208DF83200F0
S31508001D600CA801F0AFFE002807D1DFF82C1D0FA83C
S31508001D7001F0AEFF0120359006E00CA801F0C7FE81
S31508001D8099A9C8557F1CD5E73598002805D1319AF9
S31508001D90DFF8D01D0FA803F07BF800200700349861
S31508001DA087420BDA99A8C25DCCA10CA803F070F89B
S31508001DB00CA90FA803F086F87F1CF0E7C8A10FA8A6
S31508001DC003F080F84FF4FA733498020092B299A996
S31508001DD0319880B208F000F90600D0E1E0783A2898
S31508001DE005D1A0792E2802D1607A2E2816D0EDB218
S31508001DF0002D0AD0DFF88C130FA801F069FF0FA891
S31508001E0001F03CFF0FA902F06BFCDFF8DC1D0FA800
S31508001E1001F05EFF06E100BF8C910108EDB2002DCE
S31508001E2009D0D8490FA801F053FF0FA801F026FFE3
S31508001E300FA902F055FC94F904008DF8300094F9C6
S31508001E4005008DF8310000208DF832000CA801F04D
S31508001E5039FE002805D1DFF8941D0FA801F038FFD8
S31508001E60E0E00CA801F053FE319094F907008DF8D4
S31508001E70300094F908008DF8310000208DF8320002
S31508001E800CA801F01FFE002805D1DFF8E41D0FA8F5
S31508001E9001F01EFFC6E00CA801F039FE349094F953
S31508001EA00A008DF8300094F90B008DF831000020F7
S31508001EB08DF832000CA801F005FE002805D1DFF8E0
S31508001EC0B41D0FA801F004FFACE00CA801F01FFE3A
S31508001ED039903498002806D1319ADFF89C1D0FA84E
S31508001EE002F0D6FF35E00020359000200700349830
S31508001EF087422EDA032000FB07F0204490F90D00F4
S31508001F008DF83000032000FB07F0204490F90E00FE
S31508001F108DF8310000208DF832000CA801F0D2FDB2
S31508001F2000280FD1DFF8D41D0FA801F0D1FE01203B
S31508001F3035900EE0B4890108CC890108E87A0108D1
S31508001F40E48901080CA801F0E2FD99A9C8557F1C8F
S31508001F50CDE73598002805D1319ADFF8A41D0FA8DA
S31508001F6002F096FF00200700349887420BDA99A8FA
S31508001F70C25D5AA10CA802F08BFF0CA90FA802F0AB
S31508001F80A1FF7F1CF0E756A10FA802F09BFF4FF4B4
S31508001F90FA733498020092B299A9319880B208F07F
S31508001FA01BF80600F6B2002E0ED14FF4FA733998D4
S31508001FB0020092B299A9319880B208F058F8060042
S31508001FC0F6B2002E05D100E0D9E0142008F08AF810
S31508001FD00600F6B2002E25D10FA9002001F050FF09
S31508001FE00600F6B2002E03D03000C0B201F053BD91
S31508001FF0DFF8D01D0FA802F04BFF00200700399824
S3150800200087420BDA99A8C25D34A10CA802F040FFFA
S315080020100CA90FA802F056FF7F1CF0E730A10FA805
S3150800202002F050FFABE000BF8C720108E0783A2856
S3150800203002D1A0792E2812D0EDB2002D09D051492F
S315080020400FA801F045FE0FA801F018FE0FA902F02F
S3150800205047FBDFF8F41D0FA801F03AFE89E0EDB260
S31508002060002D09D047490FA801F032FE0FA801F04C
S3150800207005FE0FA902F034FB94F904008DF8300030
S3150800208094F905008DF8310000208DF832000CA86F
S3150800209001F018FD002805D1DFF8B01D0FA801F0E2
S315080020A017FE66E00CA801F032FD319094F907009E
S315080020B08DF8300094F908008DF8310000208DF86D
S315080020C032000CA801F0FEFC00280BD1DFF8001E38
S315080020D00FA801F0FDFD4CE0DC92010825782E00E2
S315080020E00D0A00000CA801F012FD3990319ADFF8AC
S315080020F0881B0FA802F0CCFE4FF4FA733998020039
S3150800210092B299A9319880B207F0B1FF0600F6B2EB
S31508002110002E07D1142007F0E5FF0600F6B2002EC0
S3150800212027D100E02BE00FA9002001F0A9FE060048
S31508002130F6B2002E03D03000C0B201F0ACBCDFF816
S31508002140841C0FA802F0A4FE0020070039988742D5
S315080021500BDA99A8C25DD9A10CA802F099FE0CA9C0
S315080021600FA802F0AFFE7F1CF0E7D6A10FA802F079
S31508002170A9FE04E0DFF844170FA801F0A9FD01F055
S31508002180FCBB00BF5083010814710108FC890108D3
S31508002190002006005FFA88F8B8F1020F40F08B803D
S315080021A0052004F01DF9002804D056A805F058F9B2
S315080021B006000BE0062004F013F9002804D056A800
S315080021C004F07FFA060001E001200600EDB2002DBA
S315080021D00AD0DFF8181E0FA801F07AFD0FA801F043
S315080021E04DFD0FA902F07CFAF6B2002E5CD13DA88F
S315080021F007F020FA0600F6B2002E49D151A806F0DB
S315080022000EFC0600F6B2002E3BD1ADA802F092FEF7
S315080022100600F6B2002E2DD1ADA8099051A8089057
S315080022203DA8079056A8069086A8059080A8049011
S315080022307AA8039074A802906EA8019068A80090E6
S3150800224062AB5CAADFF8181E0FA802F021FE0FA9E0
S31508002250002001F015FE0600F6B2002E03D030006D
S31508002260C0B201F018BCDFF8FC1D0FA802F010FE82
S3150800227000F036BFDFF8F01D0FA802F009FE00F0E7
S315080022802FBFDFF8E81D0FA802F002FE00F028BFF6
S31508002290DFF8DC1D0FA802F0FBFD00F021BF00BF30
S315080022A0A09101083C910108DFF8C81D0FA802F0AB
S315080022B0EFFD00F015BFA078492800F0F4865228F3
S315080022C000F03683532804D0542800F0998600F08D
S315080022D007BFE0783A2813D0EDB2002D0AD0DFF810
S315080022E00C1D0FA801F0F4FC0FA801F0C7FC0FA9FC
S315080022F002F0F6F9DFF8281E0FA801F0E9FC0FE353
S31508002300EDB2002D0AD0DFF8E41C0FA801F0E0FCBE
S315080023100FA801F0B3FC0FA902F0E2F95FFA88F8FA
S31508002320B8F1050F0ADADFF8FC1D0FA801F0D0FC9A
S31508002330F6E200BFC4760108FC870108201D30902C
S31508002340309948A801F0C4FC00200B9000200A90A0
S315080023500AA800900BAB36AADFF8001E48A807F0BB
S31508002360A9FF032840F0D7820A9807F0B5FFCDE900
S3150800237002010B9807F0B0FFCDE9000136AADFF895
S31508002380181E0FA802F084FD0422DFF8101E36A8D6
S3150800239007F0C9FF002819D10B9A0A99002008F0FE
S315080023A03FF80600F6B2002E0AD1DFF8F41D0FA892
S315080023B002F06EFDACE200BF086F0108EC9201085E
S315080023C0DFF8E01D0FA802F063FDA1E20422DFF8A2
S315080023D0D81D36A807F0A7FF00281BD10B9A0A9923
S315080023E0012008F01DF80600F6B2002E0CD1DFF821
S315080023F0141E0FA802F04CFD8AE200BF6094010883
S315080024006C94010878940108DFF8981D0FA802F06B
S315080024103FFD7DE20422DFF8F01D36A807F083FFB2
S31508002420002814D10B9A0A99022007F0F9FF060032
S31508002430F6B2002E05D1DFF8D41D0FA802F028FD4C
S3150800244066E2DFF8601D0FA802F022FD60E20422B2
S31508002450DFF8BC1D36A807F066FF002816D10B9AD0
S315080024600A99032007F0DCFF0600F6B2002E07D112
S31508002470DFF8A01D0FA802F00BFD49E2D469010898
S31508002480DFF8201D0FA802F003FD41E20422DFF861
S31508002490881D36A807F047FF00281BD10B9A0A9912
S315080024A0042007F0BDFF0600F6B2002E0CD1DFF8B7
S315080024B0181E0FA802F0ECFC2AE200BF25782E00B1
S315080024C0A86A01080D0A0000DFF8D81C0FA802F058
S315080024D0DFFC1DE20422DFF8F41D36A807F023FF0F
S315080024E0002817D10B9A0A99052007F099FF0600CC
S315080024F0F6B2002E08D1DFF8D81D0FA802F0C8FCE6
S3150800250006E200BF1C6A0108DFF8981C0FA802F053
S31508002510BFFCFDE10422DFF8BC1D36A807F003FF67
S31508002520002817D10B9A0A99062007F079FF0600AA
S31508002530F6B2002E08D1DFF8FC1D0FA802F0A8FCA1
S31508002540E6E100BFB06B0108DFF8581C0FA802F0DF
S315080025509FFCDDE10422DFF8E01D36A807F0E3FE64
S31508002560002819D10B9A0A99072007F059FF060087
S31508002570F6B2002E0AD1DFF8C41D0FA802F088FCB7
S31508002580C6E100BF706D0108AC6D0108DFF8141CC8
S315080025900FA802F07DFCBBE10422DFF8A41D36A8D3
S315080025A007F0C1FE002819D10B9A0A99082007F0EE
S315080025B037FF0600F6B2002E0AD1DFF8881D0FA8ED
S315080025C002F066FCA4E100BFE86D0108406F01084F
S315080025D0DFF8D01B0FA802F05BFC99E10422DFF8B4
S315080025E0681D36A807F09FFE002817D10B9A0A998E
S315080025F0092007F015FF0600F6B2002E08D1DFF80D
S315080026004C1D0FA802F044FC82E100BFF06B0108E4
S31508002610DFF8901B0FA802F03BFC79E10422DFF8F3
S31508002620301D36A807F07FFE002819D10B9A0A99A3
S315080026300A2007F0F5FE0600F6B2002E0AD1DFF8EA
S315080026401C1E0FA802F024FC62E100BF306C0108D2
S31508002650706C0108DFF84C1B0FA802F019FC57E153
S315080026600422DFF8FC1D36A807F05DFE002819D104
S315080026700B9A0A990B2007F0D3FE0600F6B2002E35
S315080026800AD1DFF8E01D0FA802F002FC40E100BF06
S31508002690B06C0108F06C0108DFF8081B0FA802F0FF
S315080026A0F7FB35E10422DFF8201E36A807F03BFECB
S315080026B0002814D10B9A0A990C2007F0B1FE0600DF
S315080026C0F6B2002E05D1DFF8041E0FA802F0E0FBD3
S315080026D01EE1DFF8D01A0FA802F0DAFB18E104228F
S315080026E0DFF8EC1D36A807F01EFE002816D10B9A57
S315080026F00A990D2007F094FE0600F6B2002E07D1BF
S31508002700DFF81C1E0FA802F0C3FB01E1EC6A010802
S31508002710DFF8901A0FA802F0BBFBF9E00422DFF8F5
S31508002720041E36A807F0FFFD002814D10B9A0A9953
S315080027300E2007F075FE0600F6B2002E05D1DFF86A
S31508002740E81D0FA802F0A4FBE2E0DFF8581A0FA86C
S3150800275002F09EFBDCE00422DFF82C1E36A807F008
S31508002760E2FD002814D10B9A0A990F2007F058FEAB
S315080027700600F6B2002E05D1DFF8101E0FA802F0EB
S3150800278087FBC5E0DFF81C1A0FA802F081FBBFE043
S315080027900422DFF8FC1D36A807F0C5FD002814D171
S315080027A00B9A0A99102007F03BFE0600F6B2002E97
S315080027B005D1DFF8E01D0FA802F06AFBA8E0DFF8F4
S315080027C0E4190FA802F064FBA2E00422DFF8C81D92
S315080027D036A807F0A8FD002816D10B9A0A991120E9
S315080027E007F01EFE0600F6B2002E07D1DFF8AC1D74
S315080027F00FA802F04DFB8BE0D0830108DFF8A4197F
S315080028000FA802F045FB83E00422DFF83C1E36A839
S3150800281007F089FD002817D10B9A0A99122007F0AC
S31508002820FFFD0600F6B2002E08D1DFF8201E0FA81D
S3150800283002F02EFB6CE000BF5C960108DFF8641915
S315080028400FA802F025FB63E00422DFF8341E36A841
S3150800285007F069FD002817D10B9A0A99132007F08B
S31508002860DFFD0600F6B2002E08D1DFF8181E0FA805
S3150800287002F00EFB4CE000BFE46F0108DFF82419F4
S315080028800FA802F005FB43E00422DFF8FC1D36A87A
S3150800289007F049FD002819D10B9A0A99142007F068
S315080028A0BFFD0600F6B2002E0AD1DFF8E01D0FA81C
S315080028B002F0EEFA2CE000BF0C7B010890830108B9
S315080028C0DFF8E0180FA802F0E3FA21E00422DFF8A7
S315080028D03C1E36A807F027FD002814D10B9A0A9942
S315080028E0152007F09DFD0600F6B2002E05D1DFF88B
S315080028F0201E0FA802F0CCFA0AE0DFF8A8180FA8E5
S3150800290002F0C6FA04E0DFF80C1E0FA802F0C0FABF
S315080029100020060004E0DFF8581E0FA801F0D8F9D9
S31508002920DEE300BFF083010810840108B8720108CD
S31508002930EDB2002D0AD0DFF8B4160FA801F0C8F9D9
S315080029400FA801F09BF90FA901F0CAFE07F09AFD3E
S315080029500200DFF8541E0FA802F09AFA0FA9002009
S3150800296001F08EFA0600F6B2002E09D03000C0B289
S3150800297001F091B830840108EC7601081477010853
S31508002980DFF8281E0FA802F083FA0FA9002001F02D
S3150800299077FA0600F6B2002E03D03000C0B201F076
S315080029A07AB800200700162F80F22483002F33D030
S315080029B0022F77D050D3042F00F0B480C0F0928055
S315080029C0062F00F0F180C0F0CF80082F00F030818C
S315080029D0C0F00E810A2F00F07181C0F04F810C2FD4
S315080029E000F0B081C0F08E810E2F00F0ED81C0F0AE
S315080029F0C981102F00F02C82C0F00682122F00F039
S31508002A006982C0F04582142F00F0A482C0F0828249
S31508002A10152F00F0BF82DCE23800C0B207F021FDB6
S31508002A2083463800C0B207F022FD81463800C0B29E
S31508002A3007F023FD8246584607F04EFCCDE9020111
S31508002A40484607F049FCCDE900015246DFF81C1E4E
S31508002A500FA802F01DFABCE23800C0B207F001FD6B
S31508002A6083463800C0B207F002FD81463800C0B27E
S31508002A7007F003FD8246584607F02EFCCDE9020111
S31508002A80484607F029FCCDE900015246DFF81C1E2E
S31508002A900FA802F0FDF99CE2E4720108187001081B
S31508002AA0148A01083800C0B207F0DBFC83463800F8
S31508002AB0C0B207F0DCFC81463800C0B207F0DDFC86
S31508002AC08246584607F008FCCDE90201484607F059
S31508002AD003FCCDE900015246DFF8041E0FA802F0F8
S31508002AE0D7F976E23800C0B207F0BBFC8346380057
S31508002AF0C0B207F0BCFC81463800C0B207F0BDFC86
S31508002B008246584607F0E8FBCDE90201484607F039
S31508002B10E3FBCDE900015246DFF8241E0FA802F0B8
S31508002B20B7F956E23800C0B207F09BFC8346380076
S31508002B30C0B207F09CFC81463800C0B207F09DFC85
S31508002B408246584607F0C8FBCDE90201484607F019
S31508002B50C3FBCDE900015246DFF8F81D0FA802F0C5
S31508002B6097F936E2B49101083800C0B207F079FC4B
S31508002B7083463800C0B207F07AFC81463800C0B2F6
S31508002B8007F07BFC8246584607F0A6FBCDE9020112
S31508002B90484607F0A1FBCDE900015246DFF8101EB2
S31508002BA00FA802F075F914E23800C0B207F059FC14
S31508002BB083463800C0B207F05AFC81463800C0B2D6
S31508002BC007F05BFC8246584607F086FBCDE9020112
S31508002BD0484607F081FBCDE900015246DFF8D41DCF
S31508002BE00FA802F055F9F4E13C77010810730108C3
S31508002BF03800C0B207F035FC83463800C0B207F08B
S31508002C0036FC81463800C0B207F037FC8246584683
S31508002C1007F062FBCDE90201484607F05DFBCDE906
S31508002C2000015246DFF8E81D0FA802F031F9D0E19D
S31508002C303800C0B207F015FC83463800C0B207F06A
S31508002C4016FC81463800C0B207F017FC8246584683
S31508002C5007F042FBCDE90201484607F03DFBCDE906
S31508002C6000015246DFF8D41D0FA802F011F9B0E1B1
S31508002C704C700108246E01082C8A01083800C0B27D
S31508002C8007F0EFFB83463800C0B207F0F0FB814639
S31508002C903800C0B207F0F1FB8246584607F01CFB25
S31508002CA0CDE90201484607F017FBCDE90001524677
S31508002CB0DFF8BC1D0FA802F0EBF88AE13800C0B2B5
S31508002CC007F0CFFB83463800C0B207F0D0FB814639
S31508002CD03800C0B207F0D1FB8246584607F0FCFA26
S31508002CE0CDE90201484607F0F7FACDE90001524658
S31508002CF0DFF8AC1D0FA802F0CBF86AE1647701088B
S31508002D00C89101083800C0B207F0ABFB834638000B
S31508002D10C0B207F0ACFB81463800C0B207F0ADFB85
S31508002D208246584607F0D8FACDE90201484607F028
S31508002D30D3FACDE900015246DFF8681D0FA802F064
S31508002D40A7F846E13800C0B207F08BFB8346380087
S31508002D50C0B207F08CFB81463800C0B207F08DFB85
S31508002D608246584607F0B8FACDE90201484607F008
S31508002D70B3FACDE900015246DFF82C1D0FA802F080
S31508002D8087F826E13800C0B207F06BFB83463800A7
S31508002D90C0B207F06CFB81463800C0B207F06DFB85
S31508002DA08246584607F098FACDE90201484607F0E8
S31508002DB093FACDE900015246DFF8F01C0FA802F09D
S31508002DC067F806E1849401083800C0B207F049FBA9
S31508002DD083463800C0B207F04AFB81463800C0B2C5
S31508002DE007F04BFB8246584607F076FACDE9020112
S31508002DF0484607F071FACDE900015246DFF8B01CE3
S31508002E000FA802F045F8E4E03800C0B207F029FB45
S31508002E1083463800C0B207F02AFB81463800C0B2A4
S31508002E2007F02BFB8246584607F056FACDE9020111
S31508002E30484607F051FACDE900015246DFF8741CFE
S31508002E400FA802F025F8C4E08C7701083C73010846
S31508002E503800C0B207F005FB83463800C0B207F059
S31508002E6006FB81463800C0B207F007FB8246584683
S31508002E7007F032FACDE90201484607F02DFACDE906
S31508002E8000015246DFF8301C0FA802F001F8A0E056
S31508002E903800C0B207F0E5FA83463800C0B207F03A
S31508002EA0E6FA81463800C0B207F0E7FA8246584685
S31508002EB007F012FACDE90201484607F00DFACDE906
S31508002EC000015246DFF8F41B0FA801F0E1FF80E08D
S31508002ED0807001083800C0B207F0C3FA834638008C
S31508002EE0C0B207F0C4FA81463800C0B207F0C5FA86
S31508002EF08246584607F0F0F9CDE90201484607F040
S31508002F00EBF9CDE900015246DFF8B41B0FA801F032
S31508002F10BFFF5EE03800C0B207F0A3FA8346380068
S31508002F20C0B207F0A4FA81463800C0B207F0A5FA85
S31508002F308246584607F0D0F9CDE90201484607F01F
S31508002F40CBF9CDE900015246DFF8201C0FA801F0A5
S31508002F509FFF3EE03800C0B207F083FA8346380088
S31508002F60C0B207F084FA81463800C0B207F085FA85
S31508002F708246584607F0B0F9CDE90201484607F0FF
S31508002F80ABF9CDE900015246DFF8E41B0FA801F0C2
S31508002F907FFF1EE03800C0B207F063FA83463800A8
S31508002FA0C0B207F064FA81463800C0B207F065FA85
S31508002FB08246584607F090F9CDE90201484607F0DF
S31508002FC08BF9CDE900015246DFF8A81B0FA801F0DE
S31508002FD05FFF0FA9002000F053FF0600F6B2002E8F
S31508002FE006D03000C0B200F056BD00BF50830108BD
S31508002FF07F1CD8E4DFF8801B0FA801F049FF6FE0BB
S31508003000E0783A2813D0EDB2002D0AD0DFF86C1B11
S315080030100FA800F05DFE0FA800F030FE0FA901F022
S315080030205FFBDFF85C1B0FA800F052FE3AE0EDB23A
S31508003030002D0AD0DFF8441B0FA800F049FE0FA8A0
S3150800304000F01CFE0FA901F04BFB5FFA88F8B8F1F7
S31508003050050F11DADFF82C1B0FA800F039FE21E066
S31508003060B477010890940108448A01085C8A01082B
S31508003070307B0108547B0108201D3090309948A800
S3150800308000F026FE309807F0E4F90600F6B2002EA6
S3150800309003D03000C0B200F0FEBCDFF8DC1A0FA87F
S315080030A001F0F6FE1CE007F070F90600EDB2002DFF
S315080030B00AD0DFF8C81A0FA800F00AFE0FA800F019
S315080030C0DDFD0FA901F00CFBF6B2002E03D030008F
S315080030D0C0B200F0E0BCDFF8A01A0FA801F0D8FED5
S315080030E000F04BBC03F0BCF9ADF8CE00EDB2002DF4
S315080030F00CD0BDF8CE20DFF8901A0FA801F0C8FE54
S315080031000FA800F0BBFD0FA901F0EAFABDF8CE2022
S31508003110DFF8781A0FA801F0BBFE00F02EBC00BF3E
S31508003120DC770108787B0108EDB2002D0DD0DFF8B9
S31508003130601A0FA800F0CCFD0FA800F09FFD0FA99C
S3150800314001F0CEFA642007F0BDF907F072FADFF84D
S31508003150441A0FA801F09CFE00F00FBC9C940108CD
S31508003160002006005FFA88F8B8F1040F1EDAEDB2FF
S31508003170002D0AD0DFF8201A0FA800F0A9FD0FA825
S3150800318000F07CFD0FA901F0ABFADFF8101A0FA8C2
S3150800319000F09EFD4DE300BF748A0108649601089D
S315080031A018880108348801086C960108A078522806
S315080031B000F07482532840F02983E078422800F012
S315080031C0CC81522806D0532800F09D80542800F060
S315080031D02D815DE220793A2820D0EDB2002D0AD063
S315080031E0DFF8BC190FA800F073FD0FA800F046FD24
S315080031F00FA901F075FADFF8AC190FA800F068FD01
S3150800320080E000BF8C8A010874960108DC910108E9
S315080032107C960108A48A0108849601085FFA88F852
S31508003220B8F1060F10DB01202E90052007005FFA83
S3150800323088F847450ADAE05D07F02CFA002801D13C
S3150800324000202E907F1CF2E700202E902E98002852
S3150800325013D1EDB2002D0AD0DFF84C190FA800F0F3
S3150800326037FD0FA800F00AFD0FA901F039FADFF8BB
S315080032703C190FA800F02CFD44E0601D30903099F1
S3150800328048A800F025FD48A807F009FA2F902F98BE
S3150800329042F21071884202DA2F9800281CD5EDB246
S315080032A0002D0AD0DFF800190FA800F011FD0FA8AD
S315080032B000F0E4FC0FA901F013FADFF8F0180FA8E4
S315080032C000F006FD1EE000BFF09101088C9601088B
S315080032D004920108949601082F9807F09AFAEDB21D
S315080032E0002D0AD0DFF8C8180FA800F0F1FC0FA8C7
S315080032F000F0C4FC0FA901F0F3F9DFF8B8180FA81D
S3150800330001F0C6FDC9E120793A2823D0EDB2002D97
S315080033100AD0DFF8A4180FA800F0DAFC0FA800F00E
S31508003320ADFC0FA901F0DCF9DFF890180FA800F042
S31508003330CFFC7AE0BC8A01089C960108D48A010869
S31508003340A4960108EC8A0108AC960108048B0108CA
S31508003350B49601085FFA88F8B8F1060F10DB012069
S315080033602E90052007005FFA88F847450ADAE05DDF
S3150800337007F090F9002801D100202E907F1CF2E773
S3150800338000202E902E98002813D1EDB2002D0AD0D9
S31508003390DFF82C180FA800F09BFC0FA800F06EFCB5
S315080033A00FA901F09DF9DFF81C180FA800F090FC92
S315080033B03BE0601D3090309948A800F089FC48A889
S315080033C007F06DF92F902F9842F21071884202DAB1
S315080033D02F98002813D5EDB2002D0AD0DFF8E01794
S315080033E00FA800F075FC0FA800F048FC0FA901F023
S315080033F077F9DFF8D0170FA800F06AFC15E02F98C8
S3150800340007F025FAEDB2002D0AD0DFF8BC170FA891
S3150800341000F05EFC0FA800F031FC0FA901F060F97E
S31508003420DFF890170FA801F033FD36E120793A2826
S315080034301AD0EDB2002D0AD0DFF890170FA800F0C9
S3150800344047FC0FA800F01AFC0FA901F049F9DFF8AC
S3150800345080170FA800F03CFC7EE000BF1C8B01081B
S31508003460BC960108348B01085FFA88F8B8F1060F94
S3150800347010DB01202E90052007005FFA88F84745E3
S315080034800ADAE05D07F006F9002801D100202E903F
S315080034907F1CF2E700202E902E9800281AD1EDB254
S315080034A0002D0AD0DFF82C170FA800F011FC0FA882
S315080034B000F0E4FB0FA901F013F9DFF81C170FA8B9
S315080034C000F006FC48E000BFC49601084C8B0108D2
S315080034D0CC960108601D3090309948A800F0F8FB9A
S315080034E048A807F0DCF82F902F9842F2107188420E
S315080034F002DA2F98002819D5EDB2002D0AD0DFF888
S31508003500D4160FA800F0E4FB0FA800F0B7FB0FA92C
S3150800351001F0E6F8DFF8AC160FA800F0D9FB1BE0BF
S31508003520648B0108D49601087C8B01082F9807F054
S31508003530B5F9EDB2002D0AD0DFF8A0160FA800F0F5
S31508003540C7FB0FA800F09AFB0FA901F0C9F8DFF82E
S3150800355064160FA801F09CFC9FE020793A281FD03A
S31508003560EDB2002D0AD0DFF878160FA800F0B0FBF0
S315080035700FA800F083FB0FA901F0B2F8DFF8641674
S315080035800FA800F0A5FB79E0DC960108948B0108EA
S31508003590E4960108AC8B0108EC960108C48B010877
S315080035A05FFA88F8B8F1060F10DB01202E90052087
S315080035B007005FFA88F847450ADAE05D07F06AF817
S315080035C0002801D100202E907F1CF2E700202E90C3
S315080035D02E98002813D1EDB2002D0AD0DFF8081670
S315080035E00FA800F075FB0FA800F048FB0FA901F023
S315080035F077F8DFF8F8150FA800F06AFB3EE0601DC3
S315080036003090309948A800F063FB48A807F047F8BF
S315080036102F902F98B0F57A7F02DA2F98002817D5C1
S31508003620EDB2002D0AD0DFF8C0150FA800F050FB48
S315080036300FA800F023FB0FA901F052F8DFF8AC152C
S315080036400FA800F045FB19E0F4960108DC8B010889
S315080036502F9807F035F9EDB2002D0AD0DFF890154E
S315080036600FA800F035FB0FA800F008FB0FA901F022
S3150800367037F8DFF840150FA801F00AFC0DE000BF87
S31508003680FC960108F48B0108049701080C8C0108C4
S31508003690DFF860150FA800F01BFBCAE0E0784228A7
S315080036A000F08680522804D0532835D0542861D09B
S315080036B098E0EDB2002D16D007F014F907F040F99E
S315080036C0DFF8341507F04CF906F006FE02000B0089
S315080036D0DFF828150FA801F0DBFB0FA800F0CEFADB
S315080036E00FA900F0FDFF07F0FDF807F029F9DFF84C
S315080036F0081507F035F906F0EFFD02000B00DFF8B4
S3150800370000150FA801F0C4FB7FE000BF0C97010865
S31508003710248C010850840108EDB2002D16D007F05C
S31508003720E4F807F00DF9DFF8D01407F019F906F0F8
S31508003730D3FD02000B00DFF8CC140FA801F0A8FB9C
S315080037400FA800F09BFA0FA900F0CAFF07F0CDF802
S3150800375007F0F6F8DFF8A01407F002F906F0BCFD4A
S3150800376002000B00DFF8A0140FA801F091FB4CE053
S3150800377044710108EDB2002D0DD007F0BCF8020027
S31508003780DFF888140FA801F083FB0FA800F076FA7B
S315080037900FA900F0A5FF07F0AEF80200DFF87014D5
S315080037A00FA801F075FB30E0708401089C7B0108C6
S315080037B0EDB2002D0DD007F0A1F80200DFF8541481
S315080037C00FA801F065FB0FA800F058FA0FA900F042
S315080037D087FF07F093F80200DFF83C140FA801F002
S315080037E057FB12E0EDB2002D0AD0DFF830140FA80F
S315080037F000F06EFA0FA800F041FA0FA900F070FF6A
S31508003800DFF81C140FA800F063FA12E0EDB2002DE1
S315080038100AD0DFF884130FA800F05AFA0FA800F0B0
S315080038202DFA0FA900F05CFFDFF8F8130FA800F0D7
S315080038304FFAA2E0002006005FFA88F8B8F1030FF5
S3150800384016DAEDB2002D0AD0DFF8DC130FA800F067
S315080038503FFA0FA800F012FA0FA900F041FFDFF8AF
S31508003860CC130FA800F034FA4DE000BF3C8C0108D9
S31508003870A07844281CD0452834D1EDB2002D0AD0B2
S31508003880DFF8AC130FA800F023FA0FA800F0F6F93A
S315080038900FA900F025FFDFF89C130FA801F0F8FA2E
S315080038A0012006F0E9FF06002DE000BF908401081C
S315080038B0EDB2002D0AD0DFF880130FA800F008FA41
S315080038C00FA800F0DBF90FA900F00AFFDFF86C1368
S315080038D00FA801F0DDFA002006F0CEFF060012E080
S315080038E0548C0108EDB2002D09D0CF490FA800F07D
S315080038F0EFF90FA800F0C2F90FA900F0F1FED049C0
S315080039000FA800F0E5F938E0EDB2002D09D09B4983
S315080039100FA800F0DDF90FA800F0B0F90FA900F024
S31508003920DFFEC8490FA800F0D3F90FA9002000F060
S31508003930A7FA0600F6B2002E04D03000C0B2AAE0FC
S31508003940B0840108C0490FA800F0C2F90120BF4998
S31508003950087012E06C8C0108EDB2002D09D0874979
S315080039600FA800F0B5F90FA800F088F90FA900F024
S31508003970B7FEAC490FA800F0ABF910E0EDB2002D88
S3150800398009D07E490FA800F0A3F90FA800F076F930
S315080039900FA900F0A5FEA3490FA800F099F9F6B201
S315080039A0002E09D0022E41D007D3032E48D04EE070
S315080039B0848C01089C8C01084FE006F089FB3C903A
S315080039C03C9801280AD002280DD0042810D00828CF
S315080039D013D0102816D020281CD020E09C490FA808
S315080039E000F076F91FE09B490FA800F071F91AE07C
S315080039F099490FA800F06CF915E098490FA800F04E
S31508003A0067F910E096490FA800F062F90BE000BFCD
S31508003A10B48C010893490FA800F05AF903E09249BB
S31508003A200FA800F055F906F02EFA16E08F490FA8F0
S31508003A3000F04EF906F027FA0FE000BFCC8C01081B
S31508003A408B490FA800F044F906F01DFA05E08949EC
S31508003A500FA800F03DF906F016FA0FA9002000F0AD
S31508003A600FFA0600F6B2002E04D03000C0B212E0FB
S31508003A70E48C010880490FA800F02AF90FA9002054
S31508003A8000F0FEF90600F6B2002E02D03000C0B2F1
S31508003A9001E03000C0B20DF5806D17B0BDE8F08FBB
S31508003AA0D0840108FC8C0108148D0108F0840108F3
S31508003AB02C8D0108448D01085C8D0108748D010860
S31508003AC08C8D0108F8B50400200000F0D7F8050031
S31508003AD00020070000200600AE4216DAA05D3A284C
S31508003AE002DAA05D302805DAA05D472805DAA05D70
S31508003AF0412802DB0020070001E001200700012F12
S31508003B0001D1002002E0761CE6E70120F2BD2DE98E
S31508003B10F041040000275FF00008200000F0AEF82E
S31508003B20050000200600AE421ADAA05D3A2806DA39
S31508003B30A05D302803DBA05D303807000CE0A05DEF
S31508003B40472806DAA05D412803DBA05D3738070061
S31508003B5002E05FF0FF3004E017EB0818761CE2E796
S31508003B604046BDE8F081394800787047A48D0108C1
S31508003B70BC8D0108D48D01081892010850830108EC
S31508003B8004780108C07B010810850108EC8D01083E
S31508003B9030850108E47B0108508501082C78010866
S31508003BA0087C0108687301082C7C0108507C010810
S31508003BB07085010890940108747C010894730108C3
S31508003BC0987C0108BC7C010890850108E07C010806
S31508003BD0C0730108047D0108287D0108B085010825
S31508003BE04C7D0108EC730108707D0108947D01087D
S31508003BF0D0850108B87D010800002041F08501083C
S31508003C0054780108108601081874010850880108BC
S31508003C10048E01086C880108308601085086010860
S31508003C20DC7D010890830108708601087C7801080C
S31508003C3088880108A4780108A4880108CC780108B6
S31508003C40F4780108C0880108DC88010801370020DB
S31508003C501C79010874710108A4710108D47101085E
S31508003C6044790108047201086C79010894790108FD
S31508003C70BC790108E47901081497010800F10103E9
S31508003C80810704D010F8011B89B18107FAD10268AF
S31508003C90B2F10131914311F0803F04BF50F8042F6F
S31508003CA0F6E710F8011B11B110F8011BFBE7C01A63
S31508003CB0704703681AB95A1E026008467047197891
S31508003CC000290FBF4FF0FF30591C01601878704764
S31508003CD05FEA000C830706D011F8013B00F8013BA8
S31508003CE0B3B18307F8D10A68B2F1013323EA0203B4
S31508003CF013F0803F02BF40F8042B51F8042FF3E776
S31508003D0011F8013B00F8013B13B111F8013BF9E743
S31508003D106046704780B5DFF88004DFF880140860D5
S31508003D204FF49640DFF8741448600020DFF86C14EE
S31508003D3088600020DFF86414C8600020DFF85C148F
S31508003D4008610C20DFF8541448610020DFF84C1491
S31508003D5088610020DFF84414C861DFF8400406F0E3
S31508003D607DFE002801D007F06DFE01BD80B5DFF8A5
S31508003D703004DFF8301408605FF4E130DFF824140B
S31508003D8048600020DFF81C1488600020DFF814144F
S31508003D90C8600020DFF80C1408610C20DFF8041452
S31508003DA048614FF44070DFF8FC1388610020DFF8A3
S31508003DB0F413C861DFF8EC0306F050FE002801D0C2
S31508003DC007F040FE01BD10B586B004002068DFF894
S31508003DD0C81388421ED1DFF8D003006850F40030BB
S31508003DE0DFF8C4130860DFF8C003006810F4003079
S31508003DF0009000980C200190022002900120039068
S31508003E00032004900720059001A9DFF8A00307F016
S31508003E1031FE33E02068DFF8881388422ED1DFF8B8
S31508003E208803006850F48020DFF87C130860DFF808
S31508003E307803006810F48020009000984FF44060E2
S31508003E40019002200290012003900320049007208D
S31508003E50059001A9DFF8580307F00CFE4FF4C0409F
S31508003E60019002200290002003900320049007206E
S31508003E70059001A9DFF8380307F0FCFD06B010BD70
S31508003E80F8B504000D002800FFF7F8FE0700BFB2DA
S31508003E90792F01DB01203AE0E4B2002C19D1DFF8D2
S31508003EA014030078002801D0022030E04FF40043C4
S31508003EB03A0092B22900DFF8E40206F008FE06008E
S31508003EC0F6B2002E02D03000C0B220E03000C0B2F8
S31508003ED01DE0E4B2012C19D1DFF8DC0200780028D5
S31508003EE001D0022013E04FF400433A0092B22900B1
S31508003EF0DFF8B00206F0EBFD0600F6B2002E02D09F
S31508003F003000C0B203E03000C0B200E00120F2BDCC
S31508003F10F8B504000D002800FFF7B0FE0700BFB291
S31508003F20792F01DB012036E0E4B2002C17D1DFF847
S31508003F3084020078002801D002202CE03A0092B2D0
S31508003F402900DFF8580206F040FE0600F6B2002EF9
S31508003F5002D03000C0B21EE03000C0B21BE0E4B2AE
S31508003F60012C17D1DFF850020078002801D0022072
S31508003F7011E03A0092B22900DFF8280206F025FE81
S31508003F800600F6B2002E02D03000C0B203E03000C0
S31508003F90C0B200E00120F2BDDFF820027047012020
S31508003FA0DFF81C1208707047854800787047F8B526
S31508003FB004000D001600B6B2792E01DB012032E0AE
S31508003FC0E4B2002C15D17B480078002801D00220E5
S31508003FD029E0320092B22900704806F02EFE07004A
S31508003FE0FFB2002F02D03800C0B21CE03800C0B2C1
S31508003FF019E0E4B2012C15D16F480078002801D0E9
S31508004000022010E0320092B22900664806F015FE3A
S315080040100700FFB2002F02D03800C0B203E0380014
S31508004020C0B200E00120F2BD10B504002000C0B205
S3150800403000F006F8012801D0002000E0012010BD9C
S315080040400100C9B2002903D1544890F8390007E0A5
S31508004050C9B2012903D1534890F8390000E0042079
S31508004060704701684C4A914203D10121514A1170A7
S3150800407006E001684A4A914202D101214E4A11706E
S315080040807047C0B2002803D100214A4A117005E0E2
S31508004090C0B2012802D10021474A1170704770B595
S315080040A0040020683C49884203D101204149087030
S315080040B04CE020683A49884248D1FFF775FF002846
S315080040C024D0032040490860FFF766FF3F4908608F
S315080040D03E4800684078401C0600002005003A4823
S315080040E0006885420BDA39480068007800F0A6FBBC
S315080040F036480068401C354908606D1CEFE73248B1
S315080041000660314800682F4908601CE0FFF744FF45
S315080041102E490860002005002B48006885420BDA06
S315080041202A480068007800F089FB28480068401C87
S31508004130264908606D1CEFE70320234908602248DA
S3150800414000682049086001201B49087070BD704747
S3150800415014480068C06850F0800012490968C860B1
S31508004160704710480068C06850F480700D490968A7
S31508004170C8600C480068406950F0010009490968A0
S31508004180486108480068C06850F020000549096879
S31508004190C8607047000000000044004094330020C7
S315080041A000480040D4330020243802400000024072
S315080041B00004024004370020053700209835002007
S315080041C00637002048000020EC360020E83600209C
S315080041D038B504000D00DFF89C0900680471DFF8A3
S315080041E0940900684571DFF89009DFF888190968AD
S315080041F00860DFF880090068011DDFF878090068A3
S31508004200006807F0A2FEDFF874090068001D32BDD9
S315080042100020DFF86C19A1F820030020DFF86419E4
S3150800422081F896010020DFF85C1981F897010020D3
S31508004230DFF8501981F898010020DFF8481981F84D
S3150800424099010020DFF83C1981F89A010020DFF86F
S31508004250341981F89B010120DFF8281981F89C019F
S315080042607047401CC0B2C82800DB0020C0B27047A7
S3150800427038B504000D00002C27D0DFF8080990F89F
S315080042809301DFF8001991F8921188421BD000209B
S31508004290DFF8F01881F89501DFF8E808DFF8E41888
S315080042A091F89311084490F8CA0028706D1CDFF83D
S315080042B0D40890F89301FFF7D4FFDFF8C81881F8FF
S315080042C09301641ED7E7FFF74CFF002032BDDFF8E5
S315080042D0B40890F89501704780B5FFF799FF062056
S315080042E005F05CFD0FF2F930DFF89C180860DFF87E
S315080042F09C08DFF89C180860DFF89808DFF898181B
S315080043000860062005F03CFD01BD70B586B00025A5
S31508004310DFF87008D0F8A001002805D107F003FEE1
S31508004320DFF86018C1F8A001DFF85808D0F8A00136
S31508004330002800F0EF80DFF84C08D0F8A0010068EC
S31508004340DFF858180840DFF83818DFF83428B2F8CC
S31508004350202341F82200DFF82808B0F82003C0B26D
S31508004360FFF77FFFDFF81818A1F82003DFF8140815
S31508004370D0F8A0010068DFF82418084004002000DF
S31508004380DFF81C1888422AD0DFF81818884258D057
S31508004390DFF81418884200F08280DFF81018884287
S315080043A029D0DFF80C18884279D0DFF80818884237
S315080043B057D0DFF80418884200F09280DFF8FC171F
S315080043C088425AD0DFF8F817884262D0DFF8F41727
S315080043D0884264D0DFF8F01788425AD08BE0DFF8BD
S315080043E0EC170020FFF74CFD012005000120DFF83F
S315080043F0941781F896010020DFF8881781F897014D
S3150800440002210220FFF7E4FE06003088002817D1B3
S31508004410EDB2002D0FD1DFF8B8170020FFF730FDF9
S3150800442002210D2007F0D0FD02F05DF80D2007F0FF
S315080044301BFE06F0FEF80020DFF84817C1F8A001B9
S3150800444068E0DFF890170020FFF71AFD0120DFF873
S31508004450341781F897010020DFF82817C1F8A00162
S3150800446058E09DA10020FFF70BFD02F04FF8002051
S31508004470DFF81017C1F8A0014CE098A10020FFF75B
S31508004480FFFC02F043F80020DFF8F816C1F8A00197
S3150800449040E00020DFF8EC16C1F8A0013AE0DFF8AA
S315080044A038170020FFF7ECFCDFF8D806D0F8A00193
S315080044B0807A00280ED0DFF8CC06D0F8A00110F1DB
S315080044C00B02DFF81817684600F0E2FC6946002080
S315080044D0FFF7D6FC0020DFF8AC16C1F8A00119E0FA
S315080044E0DFF8FC160020FFF7CBFC0020DFF8941657
S315080044F0C1F8A0010EE02200DFF8E816684600F0D1
S31508004500C7FC69460020FFF7BBFC0020DFF87416DD
S31508004510C1F8A00106B070BDDFF8680690F89601EC
S315080045207047DFF8600690F897017047DFF8540681
S3150800453090F898017047DFF84C0690F89901704793
S31508004540DFF8401681F898017047DFF8381681F8C9
S315080045509901704700B585B0DFF8280690F89A01EA
S31508004560032840D1DFF81C0690F89C01012801D1E8
S31508004570012039E000F062FE002832D000F059FE32
S31508004580DFF8000690F89B01401CDFF8F81581F863
S315080045909B0106F0B0F90300DFF8E80590F89B21C7
S315080045A0DFF84416684600F073FC69460020FFF7FA
S315080045B067FC06F0A0F9DFF8CC1591F89B11884244
S315080045C00FD2DFF828160020FFF75AFC0221122026
S315080045D007F0FAFC01F087FF122007F045FD06F008
S315080045E028F8002000E0012005B000BDDFF894059A
S315080045F090F89A01032809D1DFF8880590F89C01FC
S31508004600012801D1012002E0002000E001207047C6
S31508004610DFF8701581F89C017047DFF8681591F886
S315080046209A11032903D1DFF85C1581F89C017047BC
S31508004630DFF8500590F89A017047DFF8481581F8B9
S315080046409A01704738B5040020680068000626D528
S31508004650DFF8300590F8C900DFF8281591F8C8107A
S31508004660884215D0DFF81C05DFF8181591F8C9102F
S31508004670415C89B2200000F0D6F8DFF8080590F80A
S31508004680C900FFF7EEFDDFF8FC1481F8C90006E063
S315080046902068C0687FF0800108402168C8602068EB
S315080046A0006810F00F000F2808D10020DFF8D41496
S315080046B081F89401200000F0BCF80BE0206800683F
S315080046C0800607D5200000F0B4F805002800C0B21F
S315080046D000F0B4F831BD00002D2A2D002D4F2D0015
S315080046E02DE9F04104000D0054F07F400600DFF884
S315080046F09004DFF88C14B1F8201340F82160DFF835
S315080047008004B0F82003C0B2FFF7ABFDDFF87014E1
S31508004710A1F8200328786978090411EB0060A978C4
S3150800472010EB0120E97808180600DFF85404DFF8D2
S315080047305014B1F8201340F82160DFF84404B0F8AB
S315080047402003C0B2FFF78DFDDFF83414A1F820036B
S3150800475028796979090411EB0060A97910EB012021
S31508004760E97908180600DFF81804DFF81414B1F818
S31508004770201340F82160DFF80804B0F82003C0B21F
S31508004780FFF76FFDDFF8F813A1F820034FF4FA607E
S315080047900700002C45D0DFF8EC0390F8C800FFF7B7
S315080047A060FD80464046DFF8DC1391F8C910C0B2B8
S315080047B0884223D02878DFF8CC13DFF8C82392F88C
S315080047C0C8208854272005F02DFFDFF8B80390F895
S315080047D0C800DFF8B01391F8C910884201D1FFF775
S315080047E0B7FCDFF8A00380F8C880272005F013FF80
S315080047F0641E6D1C4FF4FA600700CAE73800471EAE
S315080048000028C6D10020DFF87C1381F89601022122
S315080048100F2007F0D9FB0F2007F026FC05F009FF4B
S31508004820B7E7BDE8F08189B2CA05D20D03685A60B8
S31508004830704700684068C005C00D704770B59EB0E7
S315080048400400DFF8AC03DFF8AC1309784454DFF84A
S31508004850A4030078401CDFF89C130870E4B20A2C05
S3150800486003D0E4B23F2C40F080810020DFF88413A7
S315080048700870DFF87C23DFF88013684600F008FB31
S3150800488069460020FFF7FCFA0600F6B2002E02D0B1
S315080048903000C0B26BE10422DFF86013DFF8500382
S315080048A005F041FD002812D10120B64981F896018C
S315080048B00020B44981F898010020B24981F899018D
S315080048C0DFF83C130020FFF7DBFA06004DE109226A
S315080048D0CC49C74805F027FD002815D10120A9496C
S315080048E081F897010120A74981F89A010020A54976
S315080048F081F89B01C4490020FFF7C2FAC34900208A
S31508004900FFF7BEFA060030E10C22C149B84805F0A7
S315080049100AFD002821D100209A4981F89701002034
S31508004920984981F898010020964981F89901012053
S31508004930944981F89A010020924981F89B01B2496D
S315080049400020FFF79DFA00F01DFC01F0E3FDB149D8
S315080049500020FFF795FA060007E10422AE49A448AD
S3150800496005F0E1FC002820D1AC49A14800F090FAF6
S315080049709F490020FFF784FA0600F6B2002E02D0FF
S315080049803000C0B2F3E09A48FFF778F99849FFF784
S31508004990A7FE0A2005F052FF0120FFF7D6FDA04921
S315080049A00020FFF76DFA0600DFE006229D499048D1
S315080049B005F0B9FC002840F0C280FFF7BCFD0028CE
S315080049C02ED09949684600F063FA69460020FFF739
S315080049D057FA0600F6B2002E02D03000C0B2C6E082
S315080049E06846FFF74BF96946FFF77AFE0020FFF79E
S315080049F0ACFD0120FFF7A4FD05F0CBFE05F072FF24
S31508004A0007F077FC03205F4981F89A0100205D4989
S31508004A1081F89B0185490020FFF732FA060038E045
S31508004A20584890F89A01022822D10320554981F85E
S31508004A309A010020534981F89B017B49684600F09A
S31508004A4027FA69460020FFF71BFA0600F6B2002E81
S31508004A5002D03000C0B28AE06846FFF70FF969460F
S31508004A60FFF73EFE71490020FFF70AFA060010E03C
S31508004A70444890F89A0103280BD10020414981F84F
S31508004A809B016B490020FFF7FBF906000120FFF7A1
S31508004A90BFFD6848050029000FA8FFF719F9664900
S31508004AA00FA807F041FC0500002D2FD00020287024
S31508004AB00FA8FFF7E3F8002828D00FA8FBF738FB64
S31508004AC00600F6B2022E0FD15C49684600F0E0F9FE
S31508004AD069460020FFF7D4F906004548FFF7CEF8E7
S31508004AE04349FFF7FDFD11E0F6B2002E0ED05449FA
S31508004AF0684600F0CDF969460020FFF7C1F90600BF
S31508004B003B48FFF7BBF83A49FFF7EAFD05F0DEFD3B
S31508004B1002004C49364800F0BBF935490020FFF73A
S31508004B20AFF90600F6B2002E02D03000C0B21EE081
S31508004B302F48FFF7A3F82E49FFF7D2FD15E0082204
S31508004B4041492B4805F0EFFB002809D10221112025
S31508004B5007F03AFA112007F087FA05F06AFD04E033
S31508004B603A490020FFF78CF906003000C0B21EB0A3
S31508004B7070BD00000C000020200203011000002078
S31508004B80C8200020C02D0020A03600207142000851
S31508004B90A4360020CF420008A8360020F800FFFF00
S31508004BA0A0000100A0000800A0000900A00008015C
S31508004BB0A000080220000A02A0000B02A0000A03B7
S31508004BC020000A0520000908A000002028930108F3
S31508004BD04C9201085C920108D081010834930108BF
S31508004BE0AC8601084093010860900108749001089A
S31508004BF01434002000370020C886010824950108CF
S31508004C006C9201084C930108F0810108889001080C
S31508004C107C9201088C9201082C9501083C890108B0
S31508004C205489010834950108E486010800870108BB
S31508004C309C9001081A3400203C9501081C8701083D
S31508004C40388701085487010858930108B09001086D
S31508004C5000210800802804DA00218A4A1154401CE1
S31508004C60F8E7704788487047F8B5040080212000A7
S31508004C7007F05CFC0500EDB2002D02D02800C0B29A
S31508004C8022E007F08AFC050000200600C82E0ADA92
S31508004C9007F083FC0500EDB2002D04D0052005F0D1
S31508004CA040FA761CF2E7C82E01DB03200CE0270049
S31508004CB000200600802E05DA3878803838707F1C88
S31508004CC0761CF7E72800C0B2F2BD2DE9F8436C4818
S31508004CD0FFF7CAFF80465FFA88F8B8F1000F02D0DE
S31508004CE04046C0B241E000200700802F05DA64483C
S31508004CF0C05D6549C8557F1CF7E7FFF7A9FF002384
S31508004D00072260495E4807F075FC070017F1010F96
S31508004D1001D1012029E000200700402F23DA584856
S31508004D20C05705F003FE05005648C05705F0FEFDBE
S31508004D3006002800290007F033FD814630003100BF
S31508004D4007F02EFD494607F097FD05F0C5FA07F06E
S31508004D50D5FD07F04BFE0400200007F08FFE4849FA
S31508004D60C8557F1CD9E74046C0B2BDE8F28370B586
S31508004D7082B004000020050040A1200000F088F859
S31508004D8000200600102E0BDA3D4882573F49684638
S31508004D9000F07EF86946200000F094F8761CF1E7EA
S31508004DA02800C0B276BD70B582B0040000200500A8
S31508004DB032A1200000F06CF800200600102E0DDA53
S31508004DC02F48304490F910203049684600F060F8C2
S31508004DD06946200000F076F8761CEFE72800C0B296
S31508004DE076BD70B582B004000020050023A120001E
S31508004DF000F04EF800200600102E0DDA2048304448
S31508004E0090F920202149684600F042F869462000BA
S31508004E1000F058F8761CEFE72800C0B276BD70B5EA
S31508004E2082B004000020050014A1200000F030F82C
S31508004E3000200600102E0DDA1148304490F9302073
S31508004E401249684600F024F86946200000F03AF84E
S31508004E50761CEFE72800C0B276BD0021080080283E
S31508004E600ADA0021064A11540021064A1154002183
S31508004E70054A1154401CF2E7704700000000000084
S31508004E80C031002040320020C03200201C970108A3
S31508004E900CB41CB5044604A801900A46009401AB5C
S31508004EA0694607487844183007F00AFE009A002138
S31508004EB0117000285CBF0098001B16BC5DF80CFB3F
S31508004EC093540000024600E0521C1378002BFBD1D5
S31508004ED011F8013B137012F8013B002BF8D170470B
S31508004EE01CB520208DF8000001208DF8010008204F
S31508004EF08DF8020000208DF8030000208DF80400CC
S31508004F0000208DF80500684608F0AAFE0400E4B201
S31508004F10002C05D0022C07D004D3032C06D007E0BA
S31508004F20002006E0012004E0032002E0012000E062
S31508004F30012016BD2DE9FF4704000020804668467B
S31508004F4008F03CFF00283AD10098060031000620F8
S31508004F5005F053FA0600009805F0BEF90022644BE6
S31508004F6008F0A2FF09F088F805002D0202AA924669
S31508004F70009805F0B1F9524609F094F807F036FDA5
S31508004F8081465FF08740494607F00AFC07F076FD40
S31508004F90070017F0F0077D192A00564914F10C008E
S31508004FA0FFF776FFA561300005F096F902000B00C1
S31508004FB051492000FFF76CFF4046C0B200E00120CF
S31508004FC004B0BDE8F0872DE9FF470400002005007E
S31508004FD0684608F0F3FE002835D100988146009807
S31508004FE005F07AF90022424B08F05EFF09F044F812
S31508004FF00600360202AA9246009805F06DF9524656
S3150800500009F050F807F0F2FC80465FF08740414609
S3150800501007F0C6FB07F032FD070017F0F007BE19C8
S315080050203200344914F10C00FFF732FFA6614846F6
S3150800503005F052F902000B002F492000FFF728FF60
S315080050402800C0B200E0012004B0BDE8F08730B502
S3150800505085B00400684608F0C7FE002801D0012084
S3150800506041E001A808F0E1FE00283BD1019805F0CF
S3150800507033F9224A224B08F017FF0022214B09F088
S315080050806DF807F0B3FC0500BDF80000E082019852
S3150800509005F022F902000B001B492000FFF7F8FE75
S315080050A0280005F019F902000B001749E01DFFF763
S315080050B0EFFEBDF90000C0F3072212B20B4914F146
S315080050C00E00FFF7E5FEBDF9000000F0FF020749F4
S315080050D002A8FFF7DDFE02A914F10E00FFF7F2FEA3
S315080050E0002000E0012005B030BD0000049501084D
S315080050F0000004400C95010814950108CDCCCCCCD1
S31508005100CCCCFC3F000040401C95010810B5A0B06F
S3150800511000208DF8040000208DF805004FF4FA7081
S315080051200090002301AA0F21BA2004F008FF04000A
S31508005130E4B2002C07D14FF4FA73012201A9BA2070
S3150800514004F095FF04009DF80400BD2801D1002055
S3150800515000E0012020B010BD80B501203C49487010
S3150800516000F010F800203A4988700020DFF8181D72
S3150800517008700020DFF8101D48800020DFF8081DA1
S31508005180888001BD80B501203149487031493248CF
S31508005190FEF79EFD2F493148FEF79AFD2D49304806
S315080051A0FEF796FD2B492F48FEF792FD29492E4812
S315080051B0FEF78EFD2D492E48FEF78AFD2D492E480D
S315080051C0FEF786FD23492D48FEF782FD21492C4826
S315080051D0FEF77EFD1F492B48FEF77AFD1D492A4832
S315080051E0FEF776FD1B492948FEF772FD194928483E
S315080051F0FEF76EFD17492748FEF76AFD154926484A
S31508005200FEF766FD13492548FEF762FD1149244855
S31508005210FEF75EFD0F492348FEF75AFD0D49DFF8F4
S315080052206C0CFEF755FD01BD0120DFF8641C087003
S3150800523070470020DFF8581C08707047DFF8500CDC
S31508005240007870470120DFF8481C08707047000096
S3150800525058290020CC9401086329002073290020CE
S315080052608329002092290020A82900202C920108D1
S31508005270CA2900201C930108E8290020062A0020D4
S31508005280182A0020302A0020D42A0020EC2A0020E0
S31508005290042B00201C2B0020342B00204C2B002034
S315080052A0642B00207C2B002010B58CB00020040055
S315080052B0DFF8DC0B0078002800F0E185DFF8D00B7A
S315080052C08078002808D0022846D03AD3042861D02E
S315080052D04DD3052871D085E0DFF8B81B01A8FFF784
S315080052E0D7FD01A90020FEF7CBFD01A8FEF7C6FCF5
S315080052F001A9FFF7F5F9002001F072F800281FD080
S31508005300DFF8940B02F059FF0400E4B2002C69D1CF
S31508005310DFF8880B03F044F80400E4B2002C61D1EE
S31508005320DFF87C0B03F02FF90400E4B2002C59D106
S31508005330DFF8700B03F016FA0400E4B2002C51D122
S3150800534050E0012001F04CF8002804D0DFF8580B93
S3150800535004F070F9040045E0022001F041F8002845
S3150800536004D0DFF8480B04F0C1FB04003AE0032040
S3150800537001F036F800280CD0DFF8340BFFF7DAFD19
S315080053800400E4B2002C2DD1DFF8280BFFF75FFEEE
S31508005390040027E0042001F023F800280CD0DFF8E9
S315080053A0180B03F03CFB0400E4B2002C1AD1DFF81A
S315080053B00C0B03F035FE040014E0052001F010F88C
S315080053C0002805D0DFF8F80A02F04AF8040009E0D8
S315080053D0062001F005F8002804D0DFF8E40A01F0F9
S315080053E070F90400DFF8A80A8078401CDFF8A01AD4
S315080053F08870DFF89C0A80780A2815DBDFF8880AA7
S315080054008088052808DADFF8800A8088401CDFF8DB
S31508005410781A8880FFF7B6FE0020DFF8741A8870BD
S315080054200020DFF86C1A0870E4B2002C03D02000C4
S31508005430C0B200F026BD05F088F9DFF8881ADFF853
S31508005440880A08F0FFFE00282ED0012004F098FCF8
S31508005450DFF8741ADFF86C0AFEF73AFCDFF8381A38
S31508005460DFF8680AFEF734FC05F042FA00280AD08D
S31508005470DFF8580A009022232222DFF8541A01A8DE
S31508005480FFF706FD06E0DFF8442ADFF8481A01A808
S31508005490FFF7FEFC01A90020FEF7F2FC01A8FEF7C3
S315080054A0EDFB01A9FFF71CF9DFF82C1ADFF82C0A27
S315080054B008F0C8FE00282ED0012004F061FCDFF8B1
S315080054C01C1ADFF8140AFEF703FCDFF8D019DFF818
S315080054D0100AFEF7FDFB05F00BFA00280AD0DFF8E4
S315080054E0000A009022232222DFF8F81901A8FFF704
