S02E0000526F616420426F61726420526576204D2E3520424153454C494E4520446563203920323031362E737265637A
S3150800000050410020F99501084D9A010893C200084D
S31508000010A7C20008519A0108BBC2000800000000E8
S315080000200000000000000000000000000F69010841
S31508000030559A010800000000BD680108516A0108C8
S3150800004041A90008599A01085D9A0108619A0108B0
S31508000050659A0108699A01086D9A0108719A01085A
S31508000060759A0108799A01087D9A0108596A010862
S31508000070819A0108859A0108899A01088D9A0108CA
S31508000080919A0108959A0108999A01089D9A01087A
S31508000090636A0108A19A0108A59A0108A99A0108A4
S315080000A0AD9A0108B19A0108B59A0108B99A0108EA
S315080000B09F6A0108A96A01086D6A01088B6A010826
S315080000C0956A0108BD9A0108C19A0108C59A0108EE
S315080000D0C99A0108CD9A0108816A0108776A010858
S315080000E0D19A0108D59A0108D99A0108F953000846
S315080000F0DD9A010800000000E19A0108E59A010866
S31508000100E99A0108ED9A0108F19A0108F59A010899
S31508000110F99A0108FD9A0108019B010800000000F0
S31508000120059B010801201D4981F828000020704719
S3150800013010B50400194890F82800022801D10220B9
S3150800014016E0164890F82800002801D101200FE093
S31508000150200003F0EBFD282801D3012008E0210048
S315080001600E4803F00DFE02200C4981F828000020F5
S3150800017010BD10B5094890F8280002280BD10121B6
S31508000180064800F00DF804000120044981F828000B
S315080001902000C0B200E0002010BD00006C65002001
S315080001A02DE9F04FADF5806D97B004000D002000E5
S315080001B003F0BCFD8046DFF8E80D007800281ED065
S315080001C020781B2815D10020DFF8D41D0870DFF829
S315080001D0D41D0FA803F0D4FD0FA9002003F0A8FE34
S315080001E00600F6B2002E03F0A5843000C0B203F074
S315080001F0A3BC2100012004F0D7FA03F09BBC2078A9
S3150800020030282FD0312848D0322879D0332800F02A
S31508000210AA80342800F0DA80352800F00A813628CA
S3150800022000F07881412800F08E81422800F0E982AA
S31508000230432800F09385442800F07B87452801F081
S31508000240ED80462801F0FF80472801F017814828ED
S3150800025001F09481502801F06B84542801F09884A9
S3150800026003F0DFBB04F007FE0600F6B2002E12D13B
S31508000270EDB2002D0AD0DFF8D81D0FA803F080FDD7
S315080002800FA803F053FD0FA904F08EFADFF81C1E21
S315080002900FA803F075FD03F0D5BB8CA804F03DFE4E
S315080002A00600DFF80C1E0FA803F06AFD0FA9002050
S315080002B003F03EFE0600F6B2002E03D03000C0B2B0
S315080002C003F03ABCEDB2002D0BD08CAADFF8E41D82
S315080002D00FA804F0B3FE0FA803F028FD0FA904F039
S315080002E063FADFF81C1E0FA804F0A8FE8CA90FA855
S315080002F004F0BEFED8A10FA804F0BAFE03F0A2BB14
S315080003008CA804F026FE0600DFF8FC1D0FA803F0F3
S3150800031037FD0FA9002003F00BFE0600F6B2002EEB
S3150800032003D03000C0B203F007BCEDB2002D0BD0ED
S315080003308CAADFF8D81D0FA804F080FE0FA803F0DA
S31508000340F5FC0FA904F030FADFF8C41D0FA804F075
S3150800035075FE8CA90FA804F08BFEBFA10FA804F0A8
S3150800036087FE03F06FBB8CA804F011FE0600DFF8C9
S31508000370A41D0FA803F004FD0FA9002003F0D8FD63
S315080003800600F6B2002E03D03000C0B203F0D4BB8C
S31508000390EDB2002D0BD08CAADFF87C1D0FA804F057
S315080003A04DFE0FA803F0C2FC0FA904F0FDF9DFF813
S315080003B06C1D0FA804F042FE8CA90FA804F058FE85
S315080003C0A5A10FA804F054FE03F03CBB8CA804F0CA
S315080003D0FCFD0600DFF8481D0FA803F0D1FC0FA9A5
S315080003E0002003F0A5FD0600F6B2002E03D030006B
S315080003F0C0B203F0A1BBEDB2002D0BD08CAADFF87A
S31508000400041E0FA804F01AFE0FA803F08FFC0FA90C
S3150800041004F0CAF9DFF8F01D0FA804F00FFE8CA946
S315080004200FA804F025FE8CA10FA804F021FE03F006
S3150800043009BB04F0EDFC4790DFF8D01D0FA803F0C8
S315080004409FFC8CA804F069FD06000FA9002003F0A4
S315080004506FFD0600F6B2002E03D03000C0B203F0DE
S315080004606BBBEDB2002D0AD0DFF8E81D0FA803F02C
S3150800047087FC0FA803F05AFC0FA904F095F9002091
S315080004803A90DAA10FA804F0D9FD00200700802FC2
S315080004902EDA4798C257DFF8C01D0CA804F0CEFD27
S315080004A00CA90FA804F0E4FD3A98401C3A903A9833
S315080004B010281BDB68A10FA804F0DAFD00203A908B
S315080004C00FA9002003F034FD0600F6B2002E03D073
S315080004D03000C0B203F030BB0FA803F027FC0FA909
S315080004E004F062F9C1A10FA804F0A8FD7F1CCEE7AD
S315080004F0DFF8101E0FA803F043FC0FA803F016FC44
S315080005000FA904F051F9DFF8001E0FA804F096FDB4
S3150800051003F098BA0020060004F075FDEDB2002D30
S315080005200AD0DFF8E81D0FA803F02AFC0FA803F08D
S31508000530FDFB0FA904F038F9DFF8D41D0FA803F066
S315080005401FFC03F07FBA5FFA88F8B8F1010F00F0D4
S3150800055056816078362839D0382800F0B88039288E
S3150800056000F02281492840F0458104F08FFD0600FD
S31508000570EDB2002D0AD0DFF8041E0FA803F000FC28
S315080005800FA803F0D3FB0FA904F00EF9F6B2002E5C
S3150800059005D1DFF8EC1D0FA803F0F2FB15E0DFF834
S315080005A0101E0FA803F0ECFB8DF8B4600FA900200D
S315080005B003F0BEFC0600F6B2002E03D03000C0B22F
S315080005C003F0BABA9DF8B400060018E1ADA804F025
S315080005D0D0FD0600F6B2002E04D1FFA8403004F084
S315080005E07FFD0600F6B2002E5AD1DFF8C81D0FA807
S315080005F003F0C6FB0FA9002003F09AFC0600F6B22A
S31508000600002E03D03000C0B203F096BADFF8A81D5A
S315080006100FA804F013FD0FA9002003F089FC0600BB
S31508000620F6B2002E03D03000C0B203F085BAFFAB95
S315080006304033ADAADFF8841D0FA804F0FFFC0FA90C
S31508000640002003F075FC0600F6B2002E06D0300036
S31508000650C0B203F071BA00BF0D0A0000EDB2002D5A
S315080006600AD0DFF8181D0FA803F08AFB0FA803F0BD
S315080006705DFB0FA904F098F8DFF8F41D0FA804F045
S31508000680DDFCB0A90FA804F0F3FCB39ADFF8E41D6B
S315080006900CA804F0D3FC0CA90FA804F0E9FC15E09B
S315080006A0DFF8D41D0FA803F06BFB8DF8B4600FA913
S315080006B0002003F03DFC0600F6B2002E03D0300001
S315080006C0C0B203F039BA9DF8B400060097E03DA819
S315080006D004F093FD0600F6B2002E27D1DFF8F81DC8
S315080006E00FA803F04DFB0FA9002003F021FC06001C
S315080006F0F6B2002E03D03000C0B203F01DBADFF800
S31508000700DC1D0FA804F09AFC0DF581710FA804F002
S31508000710AFFC37A10FA804F0ABFC0FA9002003F02B
S3150800072007FC0600F6B2002E01D104E067E03000AF
S31508000730C0B203F001BABDF80A21DFF8081E0FA8F7
S3150800074004F07CFC0FA9002003F0F2FB0600F6B2C9
S31508000750002E03D03000C0B203F0EEB9EDB2002D82
S315080007600AD0DFF8181C0FA803F00AFB0FA803F03D
S31508000770DDFA0FA904F018F8DFF8CC1D0FA804F06D
S315080007805DFC3DA90FA804F073FCDFF8C01D0FA897
S3150800079004F06EFC0DF1FB010FA804F069FC14A12E
S315080007A00FA804F065FC2AE004F086FD0600EDB209
S315080007B0002D0AD0DFF8C41B0FA803F0E1FA0FA832
S315080007C003F0B4FA0FA903F0EFFFF6B2002E05D135
S315080007D0DFF87C1D0FA803F0D3FA06E0DFF8741DD6
S315080007E00FA803F0CDFA0020060008E0000000007C
S315080007F00D0A0000DFF8601D0FA803F0C1FA03F028
S3150800080021B95FFA88F8B8F1010F40F03481052064
S3150800081005F0C2FE00280BD056A807F083FA06009A
S31508000820F6B2002E17D1C6A806F0F6FE060012E0AC
S31508000830062005F0B1FE00280BD056A806F088FB66
S315080008400600F6B2002E06D1C6A806F016F806006F
S3150800085001E001200600EDB2002D0AD0DFF81C1BCE
S315080008600FA803F08DFA0FA803F060FA0FA903F09A
S315080008709BFFF6B2002E40F0FC80DFF8EC1D0FA8B7
S3150800088003F07EFA0FA9002003F052FB0600F6B229
S31508000890002E03D03000C0B203F04EB90020070086
S315080008A0092F80F2D380002F0FD0022F35D020D306
S315080008B0042F5AD045D3062F00F07F8069D3082F1E
S315080008C000F0A380C0F08D80B2E0BDF86E01039001
S315080008D0C7A8C01C029057A8C01C0190C6A80090C3
S315080008E056AB0DF5B372DFF81C1E0FA804F0A6FB75
S315080008F09EE0BDF886010390CDA8C01C02905DA8B5
S31508000900C01C0190CCA800905CAB0DF5BF72DFF857
S31508000910F81D0FA804F092FB8AE0BDF89E0103902B
S31508000920D3A8C01C029063A8C01C0190D2A800904E
S3150800093062AB0DF5CB72DFF8D01D0FA804F07EFB75
S3150800094076E0BDF8B6010390D9A8C01C029069A844
S31508000950C01C0190D8A8009068AB0DF5D772DFF8D7
S31508000960A81D0FA804F06AFB62E0BDF8CE0103904B
S31508000970DFA8C01C02906FA8C01C0190DEA80090DA
S315080009806EAB0DF5E372DFF8801D0FA804F056FB79
S315080009904EE0BDF8E6010390E5A8C01C029075A8D4
S315080009A0C01C0190E4A8009074AB0DF5EF72DFF857
S315080009B0581D0FA804F042FB3AE0BDF8FE0103906B
S315080009C0EBA8C01C02907BA8C01C0190EAA8009066
S315080009D07AAB0DF5FB72DFF8301D0FA804F02EFB7D
S315080009E026E0BDF816020390F1A8C01C029081A863
S315080009F0C01C0190F0A8009080AB83AA921CDFF877
S31508000A00081D0FA804F01AFB12E0BDF82E02039089
S31508000A10F7A8C01C029087A8C01C0190F6A80090F1
S31508000A2086AB89AA921CDFF8E01C0FA804F006FB27
S31508000A300FA9002003F07CFA0600F6B2002E03D0B8
S31508000A403000C0B203F078B87F1C29E7DFF8F81D3C
S31508000A500FA804F0F3FA45A90FA804F009FBBEA1F4
S31508000A600FA804F005FBDFF8E81D0FA804F0E6FA66
S31508000A7070E102F0E7BF607830281FD0312800F017
S31508000A805081492840F0668106F010FD0600EDB257
S31508000A90002D0AD0DFF8E4180FA803F071F90FA8A3
S31508000AA003F044F90FA903F07FFEF6B2002E04D135
S31508000AB0DFF8041E0FA803F063F94BE1052005F0E3
S31508000AC06BFD00280BD056A807F02CF90600F6B2E5
S31508000AD0002E17D1C6A806F09FFD060012E00620D4
S31508000AE005F05AFD00280BD056A806F031FA060084
S31508000AF0F6B2002E06D1C6A805F0BFFE060001E034
S31508000B0001200600EDB2002D0AD0DFF870180FA8F4
S31508000B1003F036F90FA803F009F90FA903F044FE0C
S31508000B20F6B2002E40F0FC80DFF83C1B0FA803F05D
S31508000B3027F90FA9002003F0FBF90600F6B2002EEC
S31508000B4003D03000C0B202F0F7BF00200700092F1B
S31508000B5080F2D380002F0FD0022F35D020D3042F58
S31508000B605AD045D3062F00F07F8069D3082F00F0AE
S31508000B70A380C0F08D80B2E0BDF86E010390C7A8CF
S31508000B80C01C029057A8C01C0190C6A8009056AB7E
S31508000B900DF5B372DFF86C1B0FA804F04FFA9EE050
S31508000BA0BDF886010390CDA8C01C02905DA8C01CA4
S31508000BB00190CCA800905CAB0DF5BF72DFF8481B1E
S31508000BC00FA804F03BFA8AE0BDF89E010390D3A86B
S31508000BD0C01C029063A8C01C0190D2A8009062AB0A
S31508000BE00DF5CB72DFF8201B0FA804F027FA76E084
S31508000BF0BDF8B6010390D9A8C01C029069A8C01C0C
S31508000C000190D8A8009068AB0DF5D772DFF8F81AEE
S31508000C100FA804F013FA62E0BDF8CE010390DFA82E
S31508000C20C01C02906FA8C01C0190DEA800906EAB95
S31508000C300DF5E372DFF8D01A0FA804F0FFF94EE0BD
S31508000C40BDF8E6010390E5A8C01C029075A8C01C73
S31508000C500190E4A8009074AB0DF5EF72DFF8A81ABE
S31508000C600FA804F0EBF93AE0BDF8FE010390EBA8F3
S31508000C70C01C02907BA8C01C0190EAA800907AAB21
S31508000C800DF5FB72DFF8801A0FA804F0D7F926E0F5
S31508000C90BDF816020390F1A8C01C029081A8C01CDA
S31508000CA00190F0A8009080AB83AA921CDFF8581A2E
S31508000CB00FA804F0C3F912E0BDF82E020390F7A8B6
S31508000CC0C01C029087A8C01C0190F6A8009086ABAD
S31508000CD089AA921CDFF8301A0FA804F0AFF90FA9F9
S31508000CE0002003F025F90600F6B2002E03D03000E6
S31508000CF0C0B202F021BF7F1C29E7DFF84C1B0FA802
S31508000D0004F09CF945A90FA804F0B2F912A10FA89E
S31508000D1004F0AEF9DFF8381B0FA804F08FF919E0D4
S31508000D2018E006F02EFC0600EDB2002D0AD0DFF81A
S31508000D304C160FA803F024F80FA802F0F7FF0FA926
S31508000D4003F032FDF6B2002E04D1DFF8D01D0FA84D
S31508000D5003F016F802F076BE0D0A00005FFA88F86E
S31508000D60B8F1010F50D143A807F051FE0600F6B2BC
S31508000D70002E03D195A807F0D1FD0600F6B2002E85
S31508000D8026D1DFF8041E0FA802F0FAFF0FA90020EB
S31508000D9003F0CEF80600F6B2002E03D03000C0B23B
S31508000DA002F0CABEDFF8E41D0FA804F047F945A90A
S31508000DB00FA804F05DF9D3A10FA804F059F90FA9FB
S31508000DC0002003F0B5F80600F6B2002E02D105E0C1
S31508000DD002F038BE3000C0B202F0AEBEEDB2002D51
S31508000DE00AD0DFF898150FA802F0CAFF0FA802F07C
S31508000DF09DFF0FA903F0D8FC95AB43AADFF8C41DE5
S31508000E000FA804F01BF992E16078302824D0312825
S31508000E1072D0322800F0C880332800F01B81492898
S31508000E2040F0808107F04AFA0600EDB2002D0AD09C
S31508000E30DFF848150FA802F0A3FF0FA802F076FF07
S31508000E400FA903F0B1FCF6B2002E04D1DFF8E41DB9
S31508000E500FA802F095FF6AE143A807F006FB060013
S31508000E60F6B2002E03D195A807F083FA0600EDB274
S31508000E70002D0AD0DFF804150FA802F081FF0FA88D
S31508000E8002F054FF0FA903F08FFCF6B2002E26D10C
S31508000E90DFF8D4170FA802F073FF0FA9002003F09C
S31508000EA047F80600F6B2002E03D03000C0B202F0B2
S31508000EB043BEDFF894190FA804F0C0F845A90FA897
S31508000EC004F0D6F88FA10FA804F0D2F80FA90020D5
S31508000ED003F02EF80600F6B2002E01D104E026E152
S31508000EE03000C0B202F028BE95AB43AADFF8941DC5
S31508000EF00FA804F0A3F81AE1C2A807F0A9FB060098
S31508000F00F6B2002E04D1FFA8303007F025FB060004
S31508000F10EDB2002D0AD0DFF864140FA802F030FFF6
S31508000F200FA802F003FF0FA903F03EFCF6B2002E4D
S31508000F3027D1DFF8F01D0FA802F022FF0FA9002025
S31508000F4002F0F6FF0600F6B2002E03D03000C0B25B
S31508000F5002F0F2BDDFF8D01D0FA804F06FF8C4A99F
S31508000F60491C0FA804F084F866A10FA804F080F8BD
S31508000F700FA9002002F0DCFF0600F6B2002E01D110
S31508000F8004E0D4E03000C0B202F0D6BDFFAB303387
S31508000F90C2AADFF8981D0FA804F050F8C7E000BFF2
S31508000FA00067002054700108BEA807F042FC06003E
S31508000FB0F6B2002E04D1FFA8203007F0C0FB0600C9
S31508000FC0EDB2002D0AD0DFF8B4130FA802F0D8FE50
S31508000FD00FA802F0ABFE0FA903F0E6FBF6B2002E4F
S31508000FE027D1DFF84C1D0FA802F0CAFE0FA9002072
S31508000FF002F09EFF0600F6B2002E03D03000C0B203
S3150800100002F09ABDDFF82C1D0FA804F017F8C0A946
S31508001010491C0FA804F02CF83AA10FA804F028F8E8
S315080010200FA9002002F084FF0600F6B2002E01D1B7
S3150800103004E07CE03000C0B202F07EBDFFAB203396
S31508001040BEAADFF8E01D0FA803F0F8FF6FE000BFA7
S31508001050BC7C010843A807F0DAFC0600F6B2002EAD
S3150800106003D195A807F05AFC0600EDB2002D09D069
S31508001070C2490FA802F084FE0FA802F057FE0FA976
S3150800108003F092FBF6B2002E2CD1DFF8FC1A0FA85B
S3150800109002F076FE0FA9002002F04AFF0600F6B21B
S315080010A0002E09D03000C0B202F046BD586C0108C7
S315080010B04477010820850108DFF8D01A0FA803F045
S315080010C0BDFF45A90FA803F0D3FF0EA10FA803F093
S315080010D0CFFF0FA9002002F02BFF0600F6B2002E64
S315080010E001D104E023E03000C0B202F025BD95AB83
S315080010F043AADFF8D01A0FA803F0A0FF17E000BF35
S31508001100408501080D0A00006C7701086085010812
S315080011108085010894770108A0850108C085010823
S31508001120BC770108DFF830140FA802F029FE02F098
S3150800113089BC5FFA88F8B8F1010F69D151A807F0A0
S31508001140CDFE0600F6B2002E03D1FCA807F043FD3B
S315080011500600EDB2002D09D088490FA802F010FE4E
S315080011600FA802F0E3FD0FA903F01EFBF6B2002E4E
S3150800117026D1DFF8CC1D0FA802F002FE0FA9002029
S3150800118002F0D6FE0600F6B2002E03D03000C0B23A
S3150800119002F0D2BCDFF8AC1D0FA803F04FFF53A92D
S315080011A00FA803F065FFCEA10FA803F061FF0FA9F2
S315080011B0002002F0BDFE0600F6B2002E02D105E0C0
S315080011C002F040BC3000C0B202F0B6BCBDF85421F3
S315080011D0DFF8741D0FA803F031FF0FA9002002F0F5
S315080011E0A7FE0600F6B2002E03D03000C0B202F009
S315080011F0A3BCFCAB51AADFF8541D0FA803F01EFFD1
S315080012000AE100BFE085010800860108E4770108C5
S315080012106078302822D0312800F08A80492840F0AA
S31508001220FB8007F085FC0600EDB2002D09D0534976
S315080012300FA802F0A5FD0FA802F078FD0FA903F08C
S31508001240B3FAF6B2002E04D1DFF8E81D0FA802F0B3
S3150800125097FDE1E0E07C01084099010851A807F0F4
S315080012603DFE0600EDB2002D09D044490FA802F054
S3150800127087FD0FA802F05AFD0FA903F095FAF6B2FA
S31508001280002E26D1DFF8B81C0FA802F079FD0FA9A9
S31508001290002002F04DFE0600F6B2002E03D0300004
S315080012A0C0B202F049BCDFF89C1C0FA803F0C6FECA
S315080012B053A90FA803F0DCFE89A10FA803F0D8FEF6
S315080012C00FA9002002F034FE0600F6B2002E01D166
S315080012D004E0A1E03000C0B202F02EBCBDF85421F3
S315080012E0DFF8641C0FA803F0A9FE0FA9002002F07E
S315080012F01FFE0600F6B2002E0CD03000C0B202F077
S315080013001BBC00BF3497010800940108788A0108BD
S31508001310047D0108DFF8CC1D0FA803F08FFE51A944
S315080013200FA803F0A5FE6EA10FA803F0A1FE73E0B7
S315080013303DA808F0D2F80600EDB2002D09D00F49F5
S315080013400FA802F01DFD0FA802F0F0FC0FA903F08C
S315080013502BFAF6B2002E33D1DFF8E41B0FA802F001
S315080013600FFD0FA9002002F0E3FD0600F6B2002EDD
S3150800137008D03000C0B202F0DFBB00BF20860108EB
S315080013800C78010855490FA803F058FE0DF5817130
S315080013900FA803F06DFE52A10FA803F069FE0FA96E
S315080013A0002002F0C5FD0600F6B2002E09D10CE0B9
S315080013B0347801085C7801088C70010814940108D7
S315080013C02AE03000C0B202F0B7BBBDF80A215D4979
S315080013D00FA803F033FE0FA9002002F0A9FD0600AE
S315080013E0F6B2002E03D03000C0B202F0A5BB5649B3
S315080013F00FA803F023FE3DA90FA803F039FE5349B1
S315080014000FA803F035FE0DF1FB010FA803F030FE1F
S3150800141033A10FA803F02CFE02F014BBEDB2002D89
S315080014200AD0DFF86C1D0FA802F0AAFC0FA802F07C
S315080014307DFC0FA903F0B8F9DFF8581D0FA802F0D4
S315080014409FFC02F0FFBAEDB2002D0AD0DFF8401D6E
S315080014500FA802F095FC0FA802F068FC0FA903F08C
S31508001460A3F9DFF8341D0FA802F08AFC02F0EABAE5
S315080014709895010840970108847801083DA808F066
S3150800148061FA0600EDB2002D0AD0DFF8041D0FA898
S3150800149002F076FC0FA802F049FC0FA903F084F9C4
S315080014A0F6B2002E04D1FFA8083008F09FF906000E
S315080014B0F6B2002E2DD1DFF8E41D0FA802F060FC6D
S315080014C00FA9002002F034FD0600F6B2002E09D05E
S315080014D03000C0B202F030BBAC780108289401088D
S315080014E00D0A0000DFF8D41D0FA803F0A7FD0DF5BF
S315080014F081710FA803F0BCFDD4A10FA803F0B8FDB5
S315080015000FA9002002F014FD0600F6B2002E02D143
S3150800151005E002F097BA3000C0B202F00DBBBDF884
S315080015200A2108490FA803F089FD0FA9002002F037
S31508001530FFFC0600F6B2002E10D03000C0B202F052
S31508001540FBBA00BF40860108A8950108B8950108AE
S31508001550D4780108FC78010860860108FFA80F30D6
S3150800156001900DF1FB000090FFAB08333DAADFF8B0
S31508001570CC1D0FA803F062FD02F064BA5FFA88F882
S31508001580B8F1010F74D1B4A808F08CFB0600EDB2CF
S31508001590002D0AD0DFF8F81B0FA802F0F1FB0FA800
S315080015A002F0C4FB0FA903F0FFF8F6B2002E5DD1D6
S315080015B0DFF88C1D0FA802F0E3FB0FA9002002F04C
S315080015C0B7FC0600F6B2002E03D03000C0B202F017
S315080015D0B3BADFF8EC1D0FA803F030FD0FA9002001
S315080015E002F0A6FC0600F6B2002E03D03000C0B208
S315080015F002F0A2BADFF8CC1D0FA802F0C1FBBAA907
S315080016000FA803F035FD91A10FA803F031FD0FA92E
S31508001610002002F08DFC0600F6B2002E03D0300042
S31508001620C0B202F089BADFF8DC1D0FA802F0A8FBE9
S31508001630B4A90FA803F01CFDDFF8CC1D0FA803F012
S3150800164017FDB6A90FA803F013FDDFF8C01D0FA8F4
S3150800165003F00EFDB8A90FA803F00AFD7BA10FA899
S3150800166003F006FD62E200BF287D010802F0EAB930
S315080016706078302800F06781312800F0D58132285B
S3150800168000F00282332800F01A82492840F0498285
S315080016905FFA88F8B8F1020F1AD108F001FA0600C5
S315080016A0EDB2002D0AD0DFF8E81A0FA802F068FBA1
S315080016B00FA802F03BFB0FA903F076F8F6B2002E4E
S315080016C040F04081DFF8BC1D0FA802F059FB39E154
S315080016D0EDB2002D0AD0DFF8B81A0FA802F050FBB9
S315080016E00FA802F023FB0FA903F05EF85FFA88F84B
S315080016F0B8F11D0F0AD0DFF8CC1D0FA802F040FB89
S3150800170020E100BF3C7301086C730108A0783A28F1
S3150800171017D160792E2814D1207A2E2811D1E07A93
S315080017202E280ED1A07B2E280BD1607C2E2808D11E
S31508001730207D2E2805D1E07D2E2802D1A07E2E28D8
S3150800174005D0DFF88C1D0FA802F01AFBFAE000207E
S31508001750359000200700092F26DA032000FB07F042
S31508001760204490F903008DF83000032000FB07F0B1
S31508001770204490F904008DF8310000208DF83200DD
S315080017800CA802F0F3F9002807D1DFF8BC1D0FA852
S3150800179002F0F6FA0120359006E00CA802F00BFAE2
S315080017A099A9C8557F1CD6E79DF86402082805DB69
S315080017B0DFF8D41D0FA802F0E3FAB7E19DF864023A
S315080017C010F007008DF8CD009DF86502022805DBAC
S315080017D0DFF8B81D0FA802F0D3FAA7E19DF8650255
S315080017E010F00100C0B2C0008DF8CC009DF866026A
S315080017F0022805DBDFF8D41D0FA802F0C1FA95E12F
S315080018009DF8660210F00100C0B200018DF8CB0009
S315080018109DF86702022805DBDFF8B41D0FA802F061
S31508001820AFFA83E19DF8670210F00100C0B24001EB
S315080018308DF8CA009DF8680240280BDBDFF8D01D3A
S315080018400FA802F09DFA71E1408C01080D0A00000C
S315080018503C9401089DF8680210F03F008DF8C90015
S315080018609DF86902022805DBDFF8A81D0FA802F01B
S3150800187087FA5BE19DF8690210F001008021484370
S315080018808DF8C8009DF86A02042805DBDFF8C41D38
S315080018900FA802F075FA49E19DF86A0210F00300F4
S315080018A08DF8B7009DF86B02042807DBDFF8E41D06
S315080018B00FA802F065FA39E1C47001089DF86B02B9
S315080018C010F00300C0B280008DF8B6009DF86C02D7
S315080018D0022805DBDFF8C01D0FA802F051FA25E142
S315080018E09DF86C0210F00100C0B200018DF8B50039
S315080018F09DF8CD009DF8CC1008189DF8CB10081857
S315080019009DF8CA1008188DF8EC009DF8C9009DF8D6
S31508001910C81008188DF8ED009DF8B7009DF8B610A8
S3150800192008189DF8B51008188DF8EE003BA808F0C1
S31508001930DFF80600F6B2002E04D1DFF89C1D0FA8CA
S3150800194002F01EFAF2E0B4A808F0ACF90600EDB20F
S31508001950002D0AD0DFF838180FA802F011FA0FA8E0
S3150800196002F0E4F90FA902F01FFFF6B2002E5AD1D1
S31508001970DFF8CC190FA802F003FA0FA9002002F02D
S31508001980D7FA0600F6B2002E03D03000C0B202F035
S31508001990D3B8DFF82C1A0FA803F050FB0FA90020C4
S315080019A002F0C6FA0600F6B2002E03D03000C0B226
S315080019B002F0C2B8DFF80C1A0FA802F0E1F9BAA9CA
S315080019C00FA803F055FBD6A10FA803F051FB0FA9EA
S315080019D0002002F0ADFA0600F6B2002E03D0300061
S315080019E0C0B202F0A9B8DFF81C1A0FA802F0C8F9AD
S315080019F0B4A90FA803F03CFBDFF80C1A0FA803F0F4
S31508001A0037FBB6A90FA803F033FBDFF8001A0FA8B7
S31508001A1003F02EFBB8A90FA803F02AFBC0A10FA854
S31508001A2003F026FB82E081E04DA808F0F4F80600F2
S31508001A30EDB2002D0AD0DFF858170FA802F0A0F96A
S31508001A400FA802F073F90FA902F0AEFEF6B2002E47
S31508001A5019D1DFF8AC1D0FA802F092F99DF83421D0
S31508001A60DFF8A01D0CA803F0E9FA0CA90FA803F0EB
S31508001A70FFFA4DA9491C0FA803F0FAFAA8A10FA866
S31508001A8003F0F6FA52E051E008F05CF80600EDB211
S31508001A90002D0AD0DFF8F8160FA802F071F90FA882
S31508001AA002F044F90FA902F07FFEF6B2002E05D126
S31508001AB0DFF8C81D0FA802F063F937E036E04FA833
S31508001AC008F062F80600EDB2002D0AD0DFF8C0165D
S31508001AD00FA802F055F90FA802F028F90FA902F08D
S31508001AE063FEF6B2002E1BD1DFF8D01D0FA802F058
S31508001AF047F99DF83C21DFF80C1D0CA803F09EFA67
S31508001B000CA90FA803F0B4FA4FA9491C0FA803F0B3
S31508001B10AFFA83A10FA803F0ABFA07E0BC7401087B
S31508001B2004E0DFF89C1D0FA802F02AF901F08ABF2D
S31508001B306078442818D055281FD1042008F0FCF9ED
S31508001B40EDB2002D0AD0DFF848160FA802F018F9F2
S31508001B500FA802F0EBF80FA902F026FEDFF8BC1D6D
S31508001B600FA802F00DF90DE0042008F0F3F9DFF8EC
S31508001B70B01D0FA802F004F904E0DFF8A81D0FA8AD
S31508001B8002F0FEF801F05EBF24790108588C0108BE
S31508001B905FFA88F8B8F1020F16DAEDB2002D0AD00E
S31508001BA0DFF8EC150FA802F0EBF80FA802F0BEF864
S31508001BB00FA902F0F9FDDFF8C01D0FA802F0E0F842
S31508001BC001F02EBF948A01086078432800F0E68267
S31508001BD0442801F08982462801F0C686492810D093
S31508001BE04B2801F0BF824C2801F0D4864D2801F01D
S31508001BF08F86522801F09A82552801F01D8601F039
S31508001C00FEBE5FFA88F8B8F1090F15DAEDB2002DB5
S31508001C100AD0DFF87C150FA802F0B2F80FA802F078
S31508001C2085F80FA902F0C0FDDFF8501D0FA802F0D5
S31508001C30A7F8AAE2E8740108A078512800F0FC8108
S31508001C40C0F09E82532802D0C0F0CE8098E2E07899
S31508001C503A2802D1A0792E2816D0EDB2002D0AD046
S31508001C60DFF82C150FA802F08BF80FA802F05EF823
S31508001C700FA902F099FDDFF8081D0FA802F080F8F9
S31508001C80B1E000BFB08A0108EDB2002D0AD0DFF836
S31508001C9000150FA802F074F80FA802F047F80FA96C
S31508001CA002F082FD94F904008DF8300094F90500DD
S31508001CB08DF8310000208DF832000CA801F056FF8F
S31508001CC0002805D1DFF8D41D0FA802F059F88AE0DC
S31508001CD00CA801F070FF319094F907008DF83000D8
S31508001CE094F908008DF8310000208DF832000CA810
S31508001CF001F03CFF002805D1DFF8A41D0FA802F06B
S31508001D003FF870E00CA801F056FF3490349800288C
S31508001D1012D1319ADFF88C1D0FA803F08FF939E03C
S31508001D200D0A00004C7D010850940108708C0108CA
S31508001D308086010864940108002035900020070079
S31508001D403498874226DA032000FB07F0204490F9EE
S31508001D500A008DF83000032000FB07F0204490F9B4
S31508001D600B008DF8310000208DF832000CA801F028
S31508001D70FDFE002807D1DFF8241D0FA802F000F8A1
S31508001D800120359006E00CA801F015FF99A9C85561
S31508001D907F1CD5E73598002805D1319ADFF8C81D8C
S31508001DA00FA803F04BF900200700349887420BDA96
S31508001DB099A8C25DCCA10CA803F040F90CA90FA8FC
S31508001DC003F056F97F1CF0E7C8A10FA803F050F9F5
S31508001DD04FF4FA733498020092B299A9319880B2F6
S31508001DE008F0D6F90600D0E1E0783A2805D1A079BE
S31508001DF02E2802D1607A2E2816D0EDB2002D0AD0F0
S31508001E00DFF88C130FA801F0BBFF0FA801F08EFFB7
S31508001E100FA902F0C9FCDFF8D41D0FA801F0B0FF26
S31508001E2006E100BF78940108EDB2002D09D0D84923
S31508001E300FA801F0A5FF0FA801F078FF0FA902F07F
S31508001E40B3FC94F904008DF8300094F905008DF878
S31508001E50310000208DF832000CA801F087FE00281A
S31508001E6005D1DFF88C1D0FA801F08AFFE0E00CA869
S31508001E7001F0A1FE319094F907008DF8300094F92D
S31508001E8008008DF8310000208DF832000CA801F00A
S31508001E906DFE002805D1DFF8DC1D0FA801F070FFE4
S31508001EA0C6E00CA801F087FE349094F90A008DF874
S31508001EB0300094F90B008DF8310000208DF83200BF
S31508001EC00CA801F053FE002805D1DFF8AC1D0FA8B9
S31508001ED001F056FFACE00CA801F06DFE399034987D
S31508001EE0002806D1319ADFF8941D0FA803F0A6F84A
S31508001EF035E00020359000200700349887422EDA16
S31508001F00032000FB07F0204490F90D008DF83000FF
S31508001F10032000FB07F0204490F90E008DF83100ED
S31508001F2000208DF832000CA801F020FE00280FD101
S31508001F30DFF8CC1D0FA801F023FF012035900EE035
S31508001F40888C0108A08C0108707D0108B88C0108EE
S31508001F500CA801F030FE99A9C8557F1CCDE7359825
S31508001F60002805D1319ADFF89C1D0FA803F066F802
S31508001F7000200700349887420BDA99A8C25D5AA157
S31508001F800CA803F05BF80CA90FA803F071F87F1CE6
S31508001F90F0E756A10FA803F06BF84FF4FA733498DC
S31508001FA0020092B299A9319880B208F0F1F80600B9
S31508001FB0F6B2002E0ED14FF4FA733998020092B297
S31508001FC099A9319880B208F02EF90600F6B2002ECB
S31508001FD005D100E0D9E0142008F060F90600F6B251
S31508001FE0002E25D10FA9002001F0A2FF0600F6B2A7
S31508001FF0002E03D03000C0B201F09EBDDFF8C81D28
S315080020000FA803F01BF800200700399887420BDA5F
S3150800201099A8C25D34A10CA803F010F80CA90FA862
S3150800202003F026F87F1CF0E730A10FA803F020F88C
S31508002030ABE000BF14750108E0783A2802D1A07910
S315080020402E2812D0EDB2002D09D051490FA801F063
S3150800205097FE0FA801F06AFE0FA902F0A5FBDFF8AC
S31508002060EC1D0FA801F08CFE89E0EDB2002D09D019
S3150800207047490FA801F084FE0FA801F057FE0FA9E3
S3150800208002F092FB94F904008DF8300094F90500EB
S315080020908DF8310000208DF832000CA801F066FD9D
S315080020A0002805D1DFF8A81D0FA801F069FE66E033
S315080020B00CA801F080FD319094F907008DF83000E6
S315080020C094F908008DF8310000208DF832000CA82C
S315080020D001F04CFD00280BD1DFF8F81D0FA801F020
S315080020E04FFE4CE0C895010825782E000D0A000021
S315080020F00CA801F060FD3990319ADFF8801B0FA813
S3150800210002F09CFF4FF4FA733998020092B299A92B
S31508002110319880B208F087F80600F6B2002E07D18B
S31508002120142008F0BBF80600F6B2002E27D100E00E
S315080021302BE00FA9002001F0FBFE0600F6B2002EE8
S3150800214003D03000C0B201F0F7BCDFF87C1C0FA842
S3150800215002F074FF00200700399887420BDA99A825
S31508002160C25DD9A10CA802F069FF0CA90FA802F05C
S315080021707FFF7F1CF0E7D5A10FA802F079FF04E0E6
S31508002180DFF83C170FA801F0FBFD01F049BC00BFC2
S31508002190208601089C730108D08C010800200600DF
S315080021A05FFA88F8B8F1020F40F08A80052004F03B
S315080021B0F3F9002804D056A805F02EFA06000BE01D
S315080021C0062004F0E9F9002804D056A804F055FBC7
S315080021D0060001E001200600EDB2002D0AD0DFF866
S315080021E0101E0FA801F0CCFD0FA801F09FFD0FA946
S315080021F002F0DAFAF6B2002E59D13DA807F0F6FA3F
S315080022000600F6B2002E4BD151A806F0E4FC0600F3
S31508002210F6B2002E3BD1ADA802F062FF0600F6B278
S31508002220002E2DD1ADA8099051A808903DA8079079
S3150800223056A8069086A8059080A804907AA80390C8
S3150800224074A802906EA8019068A8009062AB5CAA78
S31508002250DFF8101E0FA802F0F1FE0FA9002001F00A
S3150800226067FE0600F6B2002E03D03000C0B201F0B9
S3150800227063BCDFF8F41D0FA802F0E0FE00F032BFE1
S31508002280DFF8E81D0FA802F0D9FE00F02BBFDFF833
S31508002290E01D0FA802F0D2FE00F024BF8C940108BE
S315080022A0DFF8D01D0FA802F0C9FE00F01BBFDFF84B
S315080022B0C81D0FA802F0C2FE00F014BF289401083A
S315080022C0A078492800F0F186522800F03383532875
S315080022D004D0542800F0968600F004BFE0783A2827
S315080022E013D0EDB2002D0AD0DFF8041D0FA801F0B7
S315080022F047FD0FA801F01AFD0FA902F055FADFF8FD
S31508002300241E0FA801F03CFD13E3EDB2002D0AD000
S31508002310DFF8DC1C0FA801F033FD0FA801F006FD5D
S315080023200FA902F041FA5FFA88F8B8F1050F09DA41
S31508002330DFF8F41D0FA801F023FDFAE24C79010835
S31508002340CC8A0108201D3090309948A801F018FD64
S3150800235000200B9000200A900AA800900BAB36AA22
S31508002360DFF8FC1D48A808F081F8032840F0DC8255
S315080023700A9808F08DF8CDE902010B9808F088F85C
S31508002380CDE9000136AADFF8141E0FA802F056FEA2
S315080023900422DFF80C1E36A808F0A1F8002819D187
S315080023A00B9A0A99002008F017F90600F6B2002ED3
S315080023B00AD1DFF8F01D0FA802F040FEAAE200BF1E
S315080023C0FC700108D8950108DFF8DC1D0FA802F09B
S315080023D035FE9FE20422DFF8D41D36A808F07FF800
S315080023E000281BD10B9A0A99012008F0F5F8060077
S315080023F0F6B2002E0CD1DFF8101E0FA802F01EFE52
S3150800240088E200BF4C9701085897010864970108AD
S31508002410DFF8941D0FA802F011FE7BE20422DFF814
S31508002420EC1D36A808F05BF8002814D10B9A0A9917
S31508002430022008F0D1F80600F6B2002E05D1DFF822
S31508002440D01D0FA802F0FAFD64E2DFF85C1D0FA8A4
S3150800245002F0F4FD5EE20422DFF8B81D36A808F0A3
S315080024603EF8002816D10B9A0A99032008F0B4F80A
S315080024700600F6B2002E07D1DFF89C1D0FA802F061
S31508002480DDFD47E2C86B0108DFF81C1D0FA802F046
S31508002490D5FD3FE20422DFF8841D36A808F01FF8B0
S315080024A000281DD10B9A0A99042008F095F8060011
S315080024B0F6B2002E0ED1DFF8141E0FA802F0BEFDEC
S315080024C028E200BF9C6C010825782E000D0A000042
S315080024D0106C0108DFF8D01C0FA802F0AFFD19E256
S315080024E00422DFF8EC1D36A807F0F9FF002814D1FE
S315080024F00B9A0A99052008F06FF80600F6B2002E26
S3150800250005D1DFF8D01D0FA802F098FD02E2DFF82A
S31508002510981C0FA802F092FDFCE10422DFF8B81D12
S3150800252036A807F0DCFF002816D10B9A0A99062070
S3150800253008F052F80600F6B2002E07D1DFF8F81DAB
S315080025400FA802F07BFDE5E1A46D0108DFF8581C31
S315080025500FA802F073FDDDE10422DFF8E01D36A8BE
S3150800256007F0BDFF002819D10B9A0A99072008F031
S3150800257033F80600F6B2002E0AD1DFF8C41D0FA8FC
S3150800258002F05CFDC6E100BF646F0108A06F010898
S31508002590DFF8141C0FA802F051FDBBE10422DFF896
S315080025A0A41D36A807F09BFF002819D10B9A0A9993
S315080025B0082008F011F80600F6B2002E0AD1DFF856
S315080025C0881D0FA802F03AFDA4E100BFDC6F0108E0
S315080025D034710108DFF8D01B0FA802F02FFD99E12E
S315080025E00422DFF8681D36A807F079FF002819D1FC
S315080025F00B9A0A99092007F0EFFF0600F6B2002E9B
S315080026000AD1DFF84C1D0FA802F018FD82E100BFC1
S31508002610E46D0108246E0108DFF88C1B0FA802F090
S315080026200DFD77E10422DFF82C1D36A807F057FFC9
S31508002630002817D10B9A0A990A2007F0CDFF060041
S31508002640F6B2002E08D1DFF8181E0FA802F0F6FC25
S3150800265060E100BF646E0108DFF84C1B0FA802F0AA
S31508002660EDFC57E10422DFF8FC1D36A807F037FF1A
S31508002670002819D10B9A0A990B2007F0ADFF06001E
S31508002680F6B2002E0AD1DFF8E01D0FA802F0D6FC3C
S3150800269040E100BFA46E0108E46E0108DFF8081BDC
S315080026A00FA802F0CBFC35E10422DFF8201E36A87D
S315080026B007F015FF002817D10B9A0A990C2007F086
S315080026C08BFF0600F6B2002E08D1DFF8041E0FA80D
S315080026D002F0B4FC1EE100BFE06C0108DFF8C81A7E
S315080026E00FA802F0ABFC15E10422DFF8E81D36A8B6
S315080026F007F0F5FE002814D10B9A0A990D2007F069
S315080027006BFF0600F6B2002E05D1DFF8181E0FA8DB
S3150800271002F094FCFEE0DFF8901A0FA802F08EFC97
S31508002720F8E00422DFF8001E36A807F0D8FE0028D5
S3150800273014D10B9A0A990E2007F04EFF0600F6B23E
S31508002740002E05D1DFF8E41D0FA802F077FCE1E0C2
S31508002750DFF8541A0FA802F071FCDBE00422DFF858
S315080027602C1E36A807F0BBFE002814D10B9A0A992E
S315080027700F2007F031FF0600F6B2002E05D1DFF86C
S31508002780101E0FA802F05AFCC4E0DFF81C1A0FA8A6
S3150800279002F054FCBEE00422DFF8F81D36A807F064
S315080027A09EFE002814D10B9A0A99102007F014FFF0
S315080027B00600F6B2002E05D1DFF8DC1D0FA802F0E0
S315080027C03DFCA7E0DFF8E0190FA802F037FCA1E00E
S315080027D00422DFF8C81D36A807F081FE002819D1A3
S315080027E00B9A0A99112007F0F7FE0600F6B2002E9A
S315080027F00AD1DFF8AC1D0FA802F020FC8AE000BF62
S31508002800A086010848990108DFF89C190FA802F06C
S3150800281015FC7FE00422DFF8341E36A807F05FFEB9
S31508002820002814D10B9A0A99122007F0D5FE060043
S31508002830F6B2002E05D1DFF8181E0FA802F0FEFB2F
S3150800284068E0DFF864190FA802F0F8FB62E00422DA
S31508002850DFF8301E36A807F042FE002816D10B9A7C
S315080028600A99132007F0B8FE0600F6B2002E07D123
S31508002870DFF8141E0FA802F0E1FB4BE0D87101083F
S31508002880DFF824190FA802F0D9FB43E00422DFF889
S31508002890FC1D36A807F023FE002819D10B9A0A99C1
S315080028A0142007F099FE0600F6B2002E0AD1DFF8CA
S315080028B0E01D0FA802F0C2FB2CE000BF947D0108C2
S315080028C060860108DFF8E0180FA802F0B7FB21E0E0
S315080028D00422DFF83C1E36A807F001FE002814D1B2
S315080028E00B9A0A99152007F077FE0600F6B2002E15
S315080028F005D1DFF8201E0FA802F0A0FB0AE0DFF8DA
S31508002900A8180FA802F09AFB04E0DFF80C1E0FA81F
S3150800291002F094FB002006000BE000BFC086010809
S31508002920E086010840750108DFF8481E0FA801F087
S3150800293027FAD7E3EDB2002D0AD0DFF8B4160FA8B0
S3150800294001F01EFA0FA801F0F1F90FA901F02CFF0A
S3150800295007F074FE0200DFF8541E0FA802F06EFBA3
S315080029600FA9002001F0E4FA0600F6B2002E09D0FD
S315080029703000C0B201F0E0B8008701087479010898
S315080029809C790108DFF8281E0FA802F057FB0FA94B
S31508002990002001F0CDFA0600F6B2002E03D0300072
S315080029A0C0B201F0C9B800200700162F80F22483B0
S315080029B0002F33D0022F77D050D3042F00F0B480E5
S315080029C0C0F09280062F00F0F180C0F0CF80082F6B
S315080029D000F03081C0F00E810A2F00F07181C0F03E
S315080029E04F810C2F00F0B081C0F08E810E2F00F0C1
S315080029F0ED81C0F0C981102F00F02C82C0F006824C
S31508002A00122F00F06982C0F04582142F00F0A482CC
S31508002A10C0F08282152F00F0BF82DCE23800C0B217
S31508002A2007F0FBFD83463800C0B207F0FCFD81467F
S31508002A303800C0B207F0FDFD8246584607F028FD6B
S31508002A40CDE90201484607F023FDCDE900015246CB
S31508002A50DFF81C1E0FA802F0F1FABCE23800C0B27B
S31508002A6007F0DBFD83463800C0B207F0DCFD81467F
S31508002A703800C0B207F0DDFD8246584607F008FD6B
S31508002A80CDE90201484607F003FDCDE900015246AB
S31508002A90DFF81C1E0FA802F0D1FA9CE26C7501083B
S31508002AA00C720108E88C01083800C0B207F0B5FDC1
S31508002AB083463800C0B207F0B6FD81463800C0B27A
S31508002AC007F0B7FD8246584607F0E2FCCDE9020159
S31508002AD0484607F0DDFCCDE900015246DFF8041E42
S31508002AE00FA802F0ABFA76E23800C0B207F095FDFF
S31508002AF083463800C0B207F096FD81463800C0B25A
S31508002B0007F097FD8246584607F0C2FCCDE9020158
S31508002B10484607F0BDFCCDE900015246DFF82C1EF9
S31508002B200FA802F08BFA56E23800C0B207F075FD1E
S31508002B3083463800C0B207F076FD81463800C0B239
S31508002B4007F077FD8246584607F0A2FCCDE9020158
S31508002B50484607F09DFCCDE900015246DFF8041E01
S31508002B600FA802F06BFA36E2A09401083800C0B24A
S31508002B7007F053FD83463800C0B207F054FD81467E
S31508002B803800C0B207F055FD8246584607F080FC6B
S31508002B90CDE90201484607F07BFCCDE90001524623
S31508002BA0DFF8101E0FA802F049FA14E23800C0B286
S31508002BB007F033FD83463800C0B207F034FD81467E
S31508002BC03800C0B207F035FD8246584607F060FC6B
S31508002BD0CDE90201484607F05BFCCDE90001524603
S31508002BE0DFF8101E0FA802F029FAF4E1C4790108EB
S31508002BF0987501083800C0B207F00FFD8346380003
S31508002C00C0B207F010FD81463800C0B207F011FDCA
S31508002C108246584607F03CFCCDE90201484607F0D3
S31508002C2037FCCDE900015246DFF8CC1D0FA802F0AB
S31508002C3005FAD0E13800C0B207F0EFFC8346380049
S31508002C40C0B207F0F0FC81463800C0B207F0F1FCCC
S31508002C508246584607F01CFCCDE90201484607F0B3
S31508002C6017FCCDE900015246DFF8EC1D0FA802F06B
S31508002C70E5F9B0E14072010818700108008D0108F5
S31508002C803800C0B207F0C9FC83463800C0B207F066
S31508002C90CAFC81463800C0B207F0CBFC82465846CB
S31508002CA007F0F6FBCDE90201484607F0F1FBCDE94E
S31508002CB000015246DFF8E81D0FA802F0BFF98AE1C5
S31508002CC03800C0B207F0A9FC83463800C0B207F046
S31508002CD0AAFC81463800C0B207F0ABFC82465846CB
S31508002CE007F0D6FBCDE90201484607F0D1FBCDE94E
S31508002CF000015246DFF8D81D0FA802F09FF96AE1D5
S31508002D00EC790108B49401083800C0B207F085FCD4
S31508002D1083463800C0B207F086FC81463800C0B248
S31508002D2007F087FC8246584607F0B2FBCDE9020158
S31508002D30484607F0ADFBCDE900015246DFF8B01D65
S31508002D400FA802F07BF946E13800C0B207F065FC2F
S31508002D5083463800C0B207F066FC81463800C0B228
S31508002D6007F067FC8246584607F092FBCDE9020158
S31508002D70484607F08DFBCDE900015246DFF8C41D31
S31508002D800FA802F05BF926E13800C0B207F045FC4F
S31508002D9083463800C0B207F046FC81463800C0B208
S31508002DA007F047FC8246584607F072FBCDE9020158
S31508002DB0484607F06DFBCDE900015246DFF8881D4D
S31508002DC00FA802F03BF906E1709701083800C0B277
S31508002DD007F023FC83463800C0B207F024FC81467E
S31508002DE03800C0B207F025FC8246584607F050FB6B
S31508002DF0CDE90201484607F04BFBCDE900015246F2
S31508002E00DFF8481D0FA802F019F9E4E03800C0B24F
S31508002E1007F003FC83463800C0B207F004FC81467D
S31508002E203800C0B207F005FC8246584607F030FB6A
S31508002E30CDE90201484607F02BFBCDE900015246D1
S31508002E40DFF80C1D0FA802F0F9F8C4E0147A01089F
S31508002E50C47501083800C0B207F0DFFB83463800A6
S31508002E60C0B207F0E0FB81463800C0B207F0E1FBCC
S31508002E708246584607F00CFBCDE90201484607F0A2
S31508002E8007FBCDE900015246DFF8C81C0FA802F07F
S31508002E90D5F8A0E03800C0B207F0BFFB834638007B
S31508002EA0C0B207F0C0FB81463800C0B207F0C1FBCC
S31508002EB08246584607F0ECFACDE90201484607F083
S31508002EC0E7FACDE900015246DFF88C1C0FA802F09C
S31508002ED0B5F880E0747201083800C0B207F09DFBAF
S31508002EE083463800C0B207F09EFB81463800C0B260
S31508002EF007F09FFB8246584607F0CAFACDE9020159
S31508002F00484607F0C5FACDE900015246DFF84C1CE1
S31508002F100FA802F093F85EE03800C0B207F07DFB18
S31508002F2083463800C0B207F07EFB81463800C0B23F
S31508002F3007F07FFB8246584607F0AAFACDE9020158
S31508002F40484607F0A5FACDE900015246DFF8101CFD
S31508002F500FA802F073F83EE03800C0B207F05DFB38
S31508002F6083463800C0B207F05EFB81463800C0B21F
S31508002F7007F05FFB8246584607F08AFACDE9020158
S31508002F80484607F085FACDE900015246DFF8D41B1A
S31508002F900FA802F053F81EE03800C0B207F03DFB58
S31508002FA083463800C0B207F03EFB81463800C0B2FF
S31508002FB007F03FFB8246584607F06AFACDE9020158
S31508002FC0484607F065FACDE900015246DFF8981B36
S31508002FD00FA802F033F80FA9002000F0A9FF060099
S31508002FE0F6B2002E06D03000C0B200F0A5BD00BF74
S31508002FF0208601087F1CD8E4DFF8181C0FA802F009
S315080030001DF86FE0E0783A2813D0EDB2002D0AD00B
S31508003010DFF8041C0FA800F0B3FE0FA800F086FE28
S315080030200FA901F0C1FBDFF8F41B0FA800F0A8FEFA
S315080030303AE0EDB2002D0AD0DFF8DC1B0FA800F04D
S315080030409FFE0FA800F072FE0FA901F0ADFB5FFA14
S3150800305088F8B8F1050F11DADFF8C41B0FA800F0DD
S315080030608FFE21E03C7A01087C970108188D01083B
S31508003070308D0108B87D0108DC7D0108201D3090DF
S31508003080309948A800F07CFE309807F0BEFA060092
S31508003090F6B2002E03D03000C0B200F04DBDDFF806
S315080030A0741B0FA801F0CAFF1CE007F04AFA0600D5
S315080030B0EDB2002D0AD0DFF8601B0FA800F060FE05
S315080030C00FA800F033FE0FA901F06EFBF6B2002E32
S315080030D003D03000C0B200F02FBDDFF8381B0FA8B0
S315080030E001F0ACFF00F09CBC03F096FAADF8CE00F8
S315080030F0EDB2002D0CD0BDF8CE20DFF8281B0FA8A6
S3150800310001F09CFF0FA800F011FE0FA901F04CFB7F
S31508003110BDF8CE20DFF8101B0FA801F08FFF00F0D6
S315080031207FBC00BF647A0108007E0108EDB2002D5D
S315080031300DD0DFF8F81A0FA800F022FE0FA800F04D
S31508003140F5FD0FA901F030FB642007F097FA07F0A8
S315080031504CFBDFF8DC1A0FA801F070FF00F060BC2A
S3150800316088970108002006005FFA88F8B8F1040F6E
S315080031701EDAEDB2002D0AD0DFF8B81A0FA800F053
S31508003180FFFD0FA800F0D2FD0FA901F00DFBDFF837
S31508003190A81A0FA800F0F4FD4DE300BF488D0108FA
S315080031A050990108E88A0108048B01085899010812
S315080031B0A078522800F07482532840F02983E078DA
S315080031C0422800F0CC81522806D0532800F09D8072
S315080031D0542800F02D815DE220793A2820D0EDB2FE
S315080031E0002D0AD0DFF8541A0FA800F0C9FD0FA861
S315080031F000F09CFD0FA901F0D7FADFF8441A0FA8D2
S3150800320000F0BEFD80E000BF608D010860990108EE
S31508003210C894010868990108788D01087099010811
S315080032205FFA88F8B8F1060F10DB01202E9005200A
S3150800323007005FFA88F847450ADAE05D07F006FBFB
S31508003240002801D100202E907F1CF2E700202E9046
S315080032502E98002813D1EDB2002D0AD0DFF8E41914
S315080032600FA800F08DFD0FA800F060FD0FA901F072
S315080032709BFADFF8D4190FA800F082FD44E0601D20
S315080032803090309948A800F07BFD48A807F0E3FA8B
S315080032902F902F9842F21071884202DA2F98002850
S315080032A01CD5EDB2002D0AD0DFF898190FA800F04A
S315080032B067FD0FA800F03AFD0FA901F075FADFF8CF
S315080032C088190FA800F05CFD1EE000BFDC94010819
S315080032D078990108F0940108809901082F9807F059
S315080032E074FBEDB2002D0AD0DFF860190FA800F0C4
S315080032F047FD0FA800F01AFD0FA901F055FADFF8EF
S3150800330050190FA801F09AFEC9E120793A2823D06E
S31508003310EDB2002D0AD0DFF83C190FA800F030FDF9
S315080033200FA800F003FD0FA901F03EFADFF82819EF
S315080033300FA800F025FD7AE0908D0108889901080C
S31508003340A88D010890990108C08D0108989901086F
S31508003350D88D0108A09901085FFA88F8B8F1060F18
S3150800336010DB01202E90052007005FFA88F84745F4
S315080033700ADAE05D07F06AFA002801D100202E90EB
S315080033807F1CF2E700202E902E98002813D1EDB26C
S31508003390002D0AD0DFF8C4180FA800F0F1FC0FA81A
S315080033A000F0C4FC0FA901F0FFF9DFF8B4180FA864
S315080033B000F0E6FC3BE0601D3090309948A800F02C
S315080033C0DFFC48A807F047FA2F902F9842F21071B1
S315080033D0884202DA2F98002813D5EDB2002D0AD0BC
S315080033E0DFF878180FA800F0CBFC0FA800F09EFCB9
S315080033F00FA901F0D9F9DFF868180FA800F0C0FC8A
S3150800340015E02F9807F0FFFAEDB2002D0AD0DFF885
S3150800341054180FA800F0B4FC0FA800F087FC0FA9F9
S3150800342001F0C2F9DFF828180FA801F007FE36E107
S3150800343020793A281AD0EDB2002D0AD0DFF82818DC
S315080034400FA800F09DFC0FA800F070FC0FA901F072
S31508003450ABF9DFF818180FA800F092FC7EE000BF61
S31508003460F08D0108A8990108088E01085FFA88F806
S31508003470B8F1060F10DB01202E90052007005FFA31
S3150800348088F847450ADAE05D07F0E0F9002801D137
S3150800349000202E907F1CF2E700202E902E98002800
S315080034A01AD1EDB2002D0AD0DFF8C4170FA800F024
S315080034B067FC0FA800F03AFC0FA901F075F9DFF8D0
S315080034C0B4170FA800F05CFC48E000BFB0990108EB
S315080034D0208E0108B8990108601D3090309948A8D7
S315080034E000F04EFC48A807F0B6F92F902F9842F244
S315080034F01071884202DA2F98002819D5EDB2002DEE
S315080035000AD0DFF86C170FA800F03AFC0FA800F0F5
S315080035100DFC0FA901F048F9DFF844170FA800F0D1
S315080035202FFC1BE0388E0108C0990108508E01084F
S315080035302F9807F08FFAEDB2002D0AD0DFF838176A
S315080035400FA800F01DFC0FA800F0F0FB0FA901F072
S315080035502BF9DFF8FC160FA801F070FD9FE0207923
S315080035603A281FD0EDB2002D0AD0DFF810170FA8A1
S3150800357000F006FC0FA800F0D9FB0FA901F014F91A
S31508003580DFF8FC160FA800F0FBFB79E0C8990108E4
S31508003590688E0108D0990108808E0108D89901081B
S315080035A0988E01085FFA88F8B8F1060F10DB01203B
S315080035B02E90052007005FFA88F847450ADAE05D8D
S315080035C007F044F9002801D100202E907F1CF2E76D
S315080035D000202E902E98002813D1EDB2002D0AD087
S315080035E0DFF8A0160FA800F0CBFB0FA800F09EFB93
S315080035F00FA901F0D9F8DFF890160FA800F0C0FB64
S315080036003EE0601D3090309948A800F0B9FB48A804
S3150800361007F021F92F902F98B0F57A7F02DA2F98C4
S31508003620002817D5EDB2002D0AD0DFF858160FA8D6
S3150800363000F0A6FB0FA800F079FB0FA901F0B4F87B
S31508003640DFF844160FA800F09BFB19E0E099010883
S31508003650B08E01082F9807F00FFAEDB2002D0AD0A8
S31508003660DFF828160FA800F08BFB0FA800F05EFB0A
S315080036700FA901F099F8DFF8D8150FA801F0DEFCBC
S315080036800DE000BFE8990108C88E0108F099010805
S31508003690E08E0108DFF8F8150FA800F071FBCAE004
S315080036A0E078422800F08680522804D0532835D086
S315080036B0542861D098E0EDB2002D16D007F0EEF947
S315080036C007F01AFADFF8CC1507F026FA06F0E0FE3E
S315080036D002000B00DFF8C0150FA801F0AFFC0FA819
S315080036E000F024FB0FA901F05FF807F0D7F907F0FF
S315080036F003FADFF8A01507F00FFA06F0C9FE020074
S315080037000B00DFF898150FA801F098FC7FE000BFC2
S31508003710F8990108F88E010820870108EDB2002DF6
S3150800372016D007F0BEF907F0E7F9DFF8681507F0D5
S31508003730F3F906F0ADFE02000B00DFF864150FA8DA
S3150800374001F07CFC0FA800F0F1FA0FA901F02CF8A3
S3150800375007F0A7F907F0D0F9DFF8381507F0DCF914
S3150800376006F096FE02000B00DFF838150FA801F0E8
S3150800377065FC4CE0CC730108EDB2002D0DD007F0C6
S3150800378096F90200DFF820150FA801F057FC0FA8DC
S3150800379000F0CCFA0FA901F007F807F088F9020043
S315080037A0DFF808150FA801F049FC30E0408701084A
S315080037B0247E0108EDB2002D0DD007F07BF902003A
S315080037C0DFF8EC140FA801F039FC0FA800F0AEFAE8
S315080037D00FA900F0E9FF07F06DF90200DFF8D4142D
S315080037E00FA801F02BFC12E0EDB2002D0AD0DFF88D
S315080037F0C8140FA800F0C4FA0FA800F097FA0FA98A
S3150800380000F0D2FFDFF8B4140FA800F0B9FA12E0FE
S31508003810EDB2002D0AD0DFF81C140FA800F0B0FA9C
S315080038200FA800F083FA0FA900F0BEFFDFF8901486
S315080038300FA800F0A5FAF3E0002006005FFA88F862
S31508003840B8F1030F16DAEDB2002D0AD0DFF87414BA
S315080038500FA800F095FA0FA800F068FA0FA900F073
S31508003860A3FFDFF864140FA800F08AFA4FE000BF40
S31508003870108F0108A07844281CD0452834D1EDB211
S31508003880002D0AD0DFF844140FA800F079FA0FA823
S3150800389000F04CFA0FA900F087FFDFF834140FA8E0
S315080038A001F0CCFB012007F0C3F806002FE000BFAB
S315080038B060870108EDB2002D0AD0DFF818140FA8AA
S315080038C000F05EFA0FA800F031FA0FA900F06CFFBD
S315080038D0DFF804140FA801F0B1FB002007F0A8F8E0
S315080038E0060014E0288F0108EDB2002D0AD0DFF893
S315080038F0D4130FA800F044FA0FA800F017FA0FA97E
S3150800390000F052FFDFF8D4130FA800F039FA87E069
S31508003910EDB2002D09D0C0490FA800F031FA0FA862
S3150800392000F004FA0FA900F03FFFDFF8B4130FA860
S3150800393000F026FA0FA9002000F0FAFA0600F6B2FF
S31508003940002E05D03000C0B2F6E000BF808701081F
S31508003950DFF890130FA800F013FA0120DFF8881398
S3150800396008705DE0408F010807F006F8EDB2002DFB
S315080039700AD0DFF878130FA801F060FB0FA800F053
S31508003980D5F90FA900F010FFDFF864130FA801F0AE
S3150800399055FB45E0EDB2002D0ED0DFF858130FA801
S315080039A001F04CFB0FA800F0C1F90FA900F0FCFECE
S315080039B036E000BF588F0108CF490FA801F03EFB3B
S315080039C00FA9002000F0B4FA0600F6B2002E02D0C5
S315080039D03000C0B2B0E0C9490FA801F02FFB0FA90B
S315080039E0002000F0A5FA0600F6B2002E06D0300038
S315080039F0C0B2A1E0708F0108888F0108FEE7EDB21A
S31508003A00002D09D084490FA800F0BAF90FA800F0D4
S31508003A108DF90FA900F0C8FEA9490FA800F0B0F962
S31508003A2010E0EDB2002D09D07B490FA800F0A8F9E7
S31508003A300FA800F07BF90FA900F0B6FEA0490FA861
S31508003A4000F09EF9F6B2002E08D0022E42D006D318
S31508003A50032E46D04EE000BFA08F010850E006F0C6
S31508003A6013FC3C903C9801280AD002280DD0042863
S31508003A7010D0082816D0102819D020281CD020E0ED
S31508003A809F490FA800F07CF91FE09E490FA800F097
S31508003A9077F91AE09C490FA800F072F915E000BF03
S31508003AA0B88F010899490FA800F06AF90DE09849FE
S31508003AB00FA800F065F908E096490FA800F060F92C
S31508003AC003E095490FA800F05BF906F0B8FA17E08D
S31508003AD0A087010891490FA800F052F906F0AFFA3D
S31508003AE00EE08F490FA800F04BF906F0A8FA07E098
S31508003AF0D08F01088B490FA800F042F906F09FFA0B
S31508003B000FA9002000F014FA0600F6B2002E02D023
S31508003B103000C0B210E084490FA800F031F90FA9AF
S31508003B20002000F005FA0600F6B2002E02D030009A
S31508003B30C0B201E03000C0B20DF5806D17B0BDE827
S31508003B40F08F00BFE88F0108C087010800900108C0
S31508003B501890010830900108489001086090010803
S31508003B607890010890900108A8900108F8B504001B
S31508003B70200000F0DBF80500002007000020060002
S31508003B80AE4216DAA05D3A2802DAA05D302805DAD8
S31508003B90A05D472805DAA05D412802DB0020070062
S31508003BA001E001200700012F01D1002002E0761C68
S31508003BB0E6E70120F2BD2DE9F041040000275FF099
S31508003BC00008200000F0B2F8050000200600AE420A
S31508003BD01ADAA05D3A2806DAA05D302803DBA05D74
S31508003BE0303807000CE0A05D472806DAA05D4128BA
S31508003BF003DBA05D3738070002E05FF0FF3004E022
S31508003C0017EB0818761CE2E74046BDE8F08136480F
S31508003C100078704704950108208601088C7A010807
S31508003C20487E0108E0870108C0900108008801085D
S31508003C306C7E010820880108B47A0108907E010884
S31508003C40F0750108B47E0108D87E0108408801088D
S31508003C507C970108FC7E01081C760108207F010874
S31508003C60447F010860880108687F010848760108D2
S31508003C708C7F0108B07F010880880108D47F01087D
S31508003C8074760108F87F01081C800108A0880108DD
S31508003C904080010800002041C0880108DC7A01083C
S31508003CA0E0880108A0760108208B0108D890010851
S31508003CB03C8B0108008901082089010864800108F5
S31508003CC06086010840890108047B0108588B0108B1
S31508003CD02C7B0108748B0108547B01087C7B010846
S31508003CE0908B0108AC8B010800670020F090010852
S31508003CF0A8720108C88B010888800108AC800108F1
S31508003D00A47B0108FC7301082C7401085C74010883
S31508003D10CC7B01088C740108F47B01081C7C010823
S31508003D20447C01086C7C0108009A010800F1010333
S31508003D30810704D010F8011B89B18107FAD10268FE
S31508003D40B2F10131914311F0803F04BF50F8042FBE
S31508003D50F6E710F8011B11B110F8011BFBE7C01AB2
S31508003D60704703681AB95A1E0260084670471978E0
S31508003D7000290FBF4FF0FF30591C016018787047B3
S31508003D805FEA000C830706D011F8013B00F8013BF7
S31508003D90B3B18307F8D10A68B2F1013323EA020303
S31508003DA013F0803F02BF40F8042B51F8042FF3E7C5
S31508003DB011F8013B00F8013B13B111F8013BF9E793
S31508003DC06046704780B5DFF88004DFF88014086025
S31508003DD04FF49640DFF8741448600020DFF86C143E
S31508003DE088600020DFF86414C8600020DFF85C14DF
S31508003DF008610C20DFF8541448610020DFF84C14E1
S31508003E0088610020DFF84414C861DFF8400406F032
S31508003E1001FF002801D007F0F1FE01BD80B5DFF8EB
S31508003E203004DFF8301408605FF4E130DFF824145A
S31508003E3048600020DFF81C1488600020DFF814149E
S31508003E40C8600020DFF80C1408610C20DFF80414A1
S31508003E5048614FF44070DFF8FC1388610020DFF8F2
S31508003E60F413C861DFF8EC0306F0D4FE002801D08D
S31508003E7007F0C4FE01BD10B586B004002068DFF85F
S31508003E80C81388421ED1DFF8D003006850F400300A
S31508003E90DFF8C4130860DFF8C003006810F40030C8
S31508003EA0009000980C2001900220029001200390B7
S31508003EB0032004900720059001A9DFF8A00307F066
S31508003EC0B5FE33E02068DFF8881388422ED1DFF884
S31508003ED08803006850F48020DFF87C130860DFF858
S31508003EE07803006810F48020009000984FF4406032
S31508003EF001900220029001200390032004900720DD
S31508003F00059001A9DFF8580307F090FE4FF4C0406A
S31508003F1001900220029000200390032004900720BD
S31508003F20059001A9DFF8380307F080FE06B010BD3A
S31508003F30F8B504000D002800FFF7F8FE0700BFB229
S31508003F40792F01DB01203AE0E4B2002C19D1DFF821
S31508003F5014030078002801D0022030E04FF4004313
S31508003F603A0092B22900DFF8E40206F08CFE060059
S31508003F70F6B2002E02D03000C0B220E03000C0B247
S31508003F801DE0E4B2012C19D1DFF8DC020078002824
S31508003F9001D0022013E04FF400433A0092B2290000
S31508003FA0DFF8B00206F06FFE0600F6B2002E02D069
S31508003FB03000C0B203E03000C0B200E00120F2BD1C
S31508003FC0F8B504000D002800FFF7B0FE0700BFB2E1
S31508003FD0792F01DB012036E0E4B2002C17D1DFF897
S31508003FE084020078002801D002202CE03A0092B220
S31508003FF02900DFF8580206F0C4FE0600F6B2002EC5
S3150800400002D03000C0B21EE03000C0B21BE0E4B2FD
S31508004010012C17D1DFF850020078002801D00220C1
S3150800402011E03A0092B22900DFF8280206F0A9FE4C
S315080040300600F6B2002E02D03000C0B203E030000F
S31508004040C0B200E00120F2BDDFF82002704701206F
S31508004050DFF81C1208707047854800787047F8B575
S3150800406004000D001600B6B2792E01DB012032E0FD
S31508004070E4B2002C15D17B480078002801D0022034
S3150800408029E0320092B22900704806F0B2FE070015
S31508004090FFB2002F02D03800C0B21CE03800C0B210
S315080040A019E0E4B2012C15D16F480078002801D038
S315080040B0022010E0320092B22900664806F099FE06
S315080040C00700FFB2002F02D03800C0B203E0380064
S315080040D0C0B200E00120F2BD10B504002000C0B255
S315080040E000F006F8012801D0002000E0012010BDEC
S315080040F00100C9B2002903D1544890F8390007E0F5
S31508004100C9B2012903D1534890F8390000E00420C8
S31508004110704701684C4A914203D10121514A1170F6
S3150800412006E001684A4A914202D101214E4A1170BD
S315080041307047C0B2002803D100214A4A117005E031
S31508004140C0B2012802D10021474A1170704770B5E4
S31508004150040020683C49884203D10120414908707F
S315080041604CE020683A49884248D1FFF775FF002895
S3150800417024D0032040490860FFF766FF3F490860DE
S315080041803E4800684078401C0600002005003A4872
S31508004190006885420BDA39480068007800F0B7FBFA
S315080041A036480068401C354908606D1CEFE7324800
S315080041B00660314800682F4908601CE0FFF744FF95
S315080041C02E490860002005002B48006885420BDA56
S315080041D02A480068007800F09AFB28480068401CC6
S315080041E0264908606D1CEFE703202349086022482A
S315080041F000682049086001201B49087070BD704797
S3150800420014480068C06850F0800012490968C86000
S31508004210704710480068C06850F480700D490968F6
S31508004220C8600C480068406950F0010009490968EF
S31508004230486108480068C06850F0200005490968C8
S31508004240C8607047000000000044004094630020E6
S3150800425000480040D4630020243802400000024091
S3150800426000040240036700200467002098650020C8
S315080042700567002048000020EC660020E86600205C
S3150800428038B504000D00DFF8680600680471DFF829
S31508004290600600684571DFF85C06DFF854160968A1
S315080042A00860DFF84C060068011DDFF84406006860
S315080042B0006807F026FFDFF8680A0068001D32BDAF
S315080042C00020DFF8601AA1F820030020DFF8581A4A
S315080042D081F896010020DFF8501A81F8970100202E
S315080042E0DFF8441A81F898010020DFF83C1A81F8B3
S315080042F099010020DFF8301A81F89A010020DFF8CA
S31508004300281AA1F89C010120DFF81C1A81F89E01E1
S315080043107047401CC0B2C82800DB0020C0B27047F6
S3150800432038B504000D00002C27D0DFF8FC0990F8FA
S315080043309301DFF8F41991F8921188421BD00020F6
S31508004340DFF8E41981F89501DFF8DC09DFF8D819F8
S3150800435091F89311084490F8CA0028706D1CDFF88C
S31508004360C80990F89301FFF7D4FFDFF8BC1981F864
S315080043709301641ED7E7FFF74CFF002032BDDFF834
S31508004380A80990F89501704780B5FFF799FF0620B0
S3150800439005F0E0FD0FF21140DFF890190860DFF82C
S315080043A09009DFF890190860DFF88C09DFF88C1996
S315080043B00860062005F0C0FD01BD70B586B0002571
S315080043C0DFF86409D0F8A001002805D107F087FEB8
S315080043D0DFF85419C1F8A001DFF84C09D0F8A0019C
S315080043E0002800F0EF80DFF84009D0F8A001006847
S315080043F0DFF84C190840DFF82C19DFF82829B2F83D
S31508004400202341F82200DFF81C09B0F82003C0B2C7
S31508004410FFF77FFFDFF80C19A1F82003DFF808097A
S31508004420D0F8A0010068DFF8181908400400200039
S31508004430DFF8101988422AD0DFF80C19884258D0BC
S31508004440DFF80819884200F08280DFF804198842EC
S3150800445029D0DFF80019884279D0DFF8FC1888429D
S3150800446057D0DFF8F818884200F09280DFF8F01885
S3150800447088425AD0DFF8EC18884262D0DFF8E8188C
S31508004480884264D0DFF8E41888425AD08BE0DFF817
S31508004490E0180020FFF74CFD012005000120DFF899
S315080044A0881881F896010020DFF87C1881F89701B2
S315080044B002210220FFF7E4FE06003088002817D103
S315080044C0EDB2002D0FD1DFF8AC180020FFF730FD54
S315080044D002210D2007F054FE02F0E1F80D2007F046
S315080044E09FFE06F082F90020DFF83C18C1F8A0010B
S315080044F068E0DFF884180020FFF71AFD0120DFF8CE
S31508004500281881F897010020DFF81C18C1F8A001C7
S3150800451058E0A3A10020FFF70BFD02F0CDF800201C
S31508004520DFF80418C1F8A0014CE09EA10020FFF7AF
S31508004530FFFC02F0C1F80020DFF8EC17C1F8A00173
S3150800454040E00020DFF8E017C1F8A0013AE0DFF804
S315080045502C180020FFF7ECFCDFF8CC07D0F8A001F8
S31508004560807A00280ED0DFF8C007D0F8A00110F135
S315080045700B02DFF80C18684600F060FD694600205B
S31508004580FFF7D6FC0020DFF8A017C1F8A00119E054
S31508004590DFF8F0170020FFF7CBFC0020DFF88817BC
S315080045A0C1F8A0010EE02200DFF8DC17684600F02B
S315080045B045FD69460020FFF7BBFC0020DFF86817B9
S315080045C0C1F8A00106B070BDDFF85C0790F8960147
S315080045D07047DFF8540790F897017047DFF84807E7
S315080045E090F898017047DFF8400790F899017047EE
S315080045F0DFF8341781F898017047DFF82C1781F82F
S315080046009901704710B58AB00024DFF81C0790F8A6
S315080046109A01032848D1DFF8100790F89E0101286F
S3150800462002D10120040041E000F0E2FE002838D063
S3150800463000F0D9FEDFF8F006B0F89C01401CDFF860
S31508004640E816A1F89C0106F032FA0300DFF8D8064E
S31508004650B0F89C21DFF83417684600F0EFFC69468D
S315080046600020FFF765FC6846FFF760FB694600F027
S315080046709BF806F01CFADFF8B016B1F89C118842D0
S315080046800FD2DFF80C170020FFF752FC0221122088
S3150800469007F076FD02F003F8122007F0C1FD06F0D8
S315080046A0A4F80020040001E0012004002000C0B2A4
S315080046B00AB010BDDFF8700690F89A01032809D1F0
S315080046C0DFF8640690F89E01012801D1012002E076
S315080046D0002000E001207047DFF84C1681F89E01A3
S315080046E07047DFF8441691F89A11032903D1DFF8C9
S315080046F0381681F89E017047DFF82C0690F89A0163
S315080047007047DFF8241681F89A01704738B5040017
S3150800471020680068000626D5DFF80C0690F8C90060
S31508004720DFF8041691F8C810884215D0DFF8F805A6
S31508004730DFF8F41591F8C910415C89B2200000F041
S31508004740DBF8DFF8E40590F8C900FFF7E2FDDFF8CB
S31508004750D81581F8C90006E02068C0687FF0800196
S3150800476008402168C8602068006810F00F000F280C
S3150800477008D10020DFF8B01581F89401200000F078
S31508004780C1F80BE020680068800607D5200000F015
S31508004790B9F805002800C0B200F0B9F831BD00002C
S315080047A02D2A2D002D4F2D002DE9F04104000D0076
S315080047B054F07F400600DFF86C05DFF86815B1F89D
S315080047C0201340F82160DFF85C05B0F82003C0B27A
S315080047D0FFF79FFDDFF84C15A1F8200328786978C4
S315080047E0090411EB0060A97810EB0120E978081894
S315080047F00600DFF83005DFF82C15B1F8201340F86D
S315080048002160DFF82005B0F82003C0B2FFF781FD6C
S31508004810DFF81015A1F8200328796979090411EB46
S315080048200060A97910EB0120E97908180600DFF87D
S31508004830F404DFF8F014B1F8201340F82160DFF82B
S31508004840E404B0F82003C0B2FFF763FDDFF8D41420
S31508004850A1F820034FF4FA600700002C45D0DFF8D2
S31508004860C80490F8C800FFF754FD80464046DFF8B4
S31508004870B81491F8C910C0B2884223D02878DFF856
S31508004880A814DFF8A42492F8C8208854272005F035
S31508004890A5FFDFF8940490F8C800DFF88C1491F8A7
S315080048A0C910884201D1FFF7ABFCDFF87C0480F819
S315080048B0C880272005F08BFF641E6D1C4FF4FA6034
S315080048C00700CAE73800471E0028C6D10020DFF8CF
S315080048D0581481F8960102210F2007F051FC0F2089
S315080048E007F09EFC05F081FFB7E7BDE8F081000000
S315080048F00C0000202002030189B2CA05D20D036804
S315080049005A60704700684068C005C00D70472DE9B9
S31508004910F04FA3B00400DFF87C04DFF87C140978B4
S315080049204454DFF874040078401CDFF86C140870EF
S31508004930E4B20A2C03D0E4B23F2C40F0EB8100200D
S31508004940DFF854140870DFF84C24DFF8501404A874
S3150800495000F074FB04A90020FFF7EAFA0700FFB28B
S31508004960002F02D03800C0B2D6E10422DFF8301496
S31508004970DFF8200405F0B3FD002815D10120DFF883
S31508004980A81381F896010020DFF89C1381F8980196
S315080049900020DFF8941381F89901DFF80814002045
S315080049A0FFF7C6FA0700ACE10922DFF8FC13DFF8C7
S315080049B0E40305F094FD00281AD10120DFF86813F6
S315080049C081F897010120DFF8601381F89A01002029
S315080049D0DFF85413A1F89C01DFF8D0130020FFF785
S315080049E0A7FADFF8CC130020FFF7A2FA070088E140
S315080049F00C22DFF8C013DFF89C0305F070FD0028D1
S31508004A0025D10020C84981F897010020C64981F8B8
S31508004A1098010020C44981F899010120C24981F80A
S31508004A209A010020C049A1F89C0101F04DFEDFF86B
S31508004A307C130020FFF77CFA00F07EFC01F048FEAC
S31508004A40DFF874130020FFF773FA070059E1042210
S31508004A50DFF86813CF4805F042FD002871D106F04B
S31508004A6023F8002828D006F025F8814606F01FF816
S31508004A70824606F016F8834606F010F88046CDF80A
S31508004A800C90CDF808A0584606F036F8CC4906F042
S31508004A9043F805F0FDFCCDE90001404606F02CF888
S31508004AA0C74906F039F805F0F3FC02000B00C549C2
S31508004AB0B84800F0C3FA27E005F0FCFF814605F088
S31508004AC0F6FF824605F0EDFF834605F0E7FF8046D0
S31508004AD0CDF80C90CDF808A0584606F00DF8B84960
S31508004AE006F01AF805F0D4FCCDE90001404606F0B8
S31508004AF003F8B34906F010F805F0CAFC02000B00EB
S31508004B00B149A44800F09AFAA2490020FFF710FA22
S31508004B100700FFB2002F02D03800C0B2FCE09D4863
S31508004B20FFF704F99B49FFF73FFE0A2005F062FFED
S31508004B300120FFF762FDA5490020FFF7F9F90700F4
S31508004B40DFE00622A249934805F0C9FC002840F098
S31508004B50C280FFF748FD00282ED09E4904A800F021
S31508004B606DFA04A90020FFF7E3F90700FFB2002F4A
S31508004B7002D03800C0B2CFE004A8FFF7D7F804A9DE
S31508004B80FFF712FE0020FFF738FD0120FFF730FD82
S31508004B9005F0DBFE05F082FF07F0A5FC032062495D
S31508004BA081F89A0100206049A1F89C018A490020F1
S31508004BB0FFF7BEF9070038E05B4890F89A0102282B
S31508004BC022D10320584981F89A0100205649A1F8B4
S31508004BD09C01804904A800F031FA04A90020FFF7D7
S31508004BE0A7F90700FFB2002F02D03800C0B293E041
S31508004BF004A8FFF79BF804A9FFF7D6FD764900201D
S31508004C00FFF796F9070010E0474890F89A0103283D
S31508004C100BD100204449A1F89C0170490020FFF7F8
S31508004C2087F907000120FFF757FD6D4805002900A1
S31508004C3013A8FFF7A5F86B4913A807F06FFC050042
S31508004C40002D2FD00020287013A8FFF76FF8002832
S31508004C5028D013A8FBF76CFA0700FFB2022F0FD172
S31508004C60614904A800F0EAF904A90020FFF760F9F1
S31508004C7007004848FFF75AF84649FFF795FD11E03F
S31508004C80FFB2002F0ED0594904A800F0D7F904A99D
S31508004C900020FFF74DF907003E48FFF747F83D4962
S31508004CA0FFF782FD05F0EEFD02005149394800F094
S31508004CB0C5F938490020FFF73BF90700FFB2002F76
S31508004CC002D03800C0B227E03248FFF72FF8314942
S31508004CD0FFF76AFD15E0082246492E4805F0FFFB56
S31508004CE0002809D10221112007F04AFA112007F0FD
S31508004CF097FA05F07AFD04E03F490020FFF718F916
S31508004D000700002006003C2E04DA002021498855B9
S31508004D10761CF8E73800C0B223B0BDE8F08F000073
S31508004D2010000020C8500020C05D0020A0660020AA
S31508004D3021430008A46600207F430008A8660020D7
S31508004D40F800FFFFA0000100A0000800A00009006D
S31508004D50A0000801A000080220000A02A0000B0219
S31508004D60A0000A0320000A0520000908A000002068
S31508004D70149601083895010848950108A084010889
S31508004D80209601087C8901082C9601084C93010895
S31508004D906093010814640020FF66002098890108C2
S31508004DA0109801085895010838960108C08401082A
S31508004DB07493010868950108789501081898010800
S31508004DC000002041DC7201080C730108288C0108D8
S31508004DD020980108B4890108D08901088893010838
S31508004DE01A64002028980108EC890108088A010835
S31508004DF0248A0108449601089C93010800210800AA
S31508004E00802804DA00218A4A1154401CF8E77047C2
S31508004E1088487047F8B504008021200007F080FC18
S31508004E200500EDB2002D02D02800C0B222E007F03E
S31508004E30AEFC050000200600C82E0ADA07F0A7FC1B
S31508004E400500EDB2002D04D0052005F046FA761CC3
S31508004E50F2E7C82E01DB03200CE02700002006003D
S31508004E60802E05DA3878803838707F1C761CF7E78C
S31508004E702800C0B2F2BD2DE9F8436C48FFF7CAFF17
S31508004E8080465FFA88F8B8F1000F02D04046C0B2F3
S31508004E9041E000200700802F05DA6448C05D6549B7
S31508004EA0C8557F1CF7E7FFF7A9FF002307226049CB
S31508004EB05E4807F099FC070017F1010F01D10120A0
S31508004EC029E000200700402F23DA5848C05705F08C
S31508004ED009FE05005648C05705F004FE06002800DE
S31508004EE0290007F057FD81463000310007F052FDD2
S31508004EF0494607F0BBFD05F0CBFA07F0F9FD07F0C8
S31508004F006FFE0400200007F0B3FE4849C8557F1C11
S31508004F10D9E74046C0B2BDE8F28370B582B0040056
S31508004F200020050040A1200000F088F800200600B7
S31508004F30102E0BDA3D4882573F49684600F07EF846
S31508004F406946200000F094F8761CF1E72800C0B204
S31508004F5076BD70B582B004000020050032A120009D
S31508004F6000F06CF800200600102E0DDA2F483044A9
S31508004F7090F910203049684600F060F8694620002C
S31508004F8000F076F8761CEFE72800C0B276BD70B55B
S31508004F9082B004000020050023A1200000F04EF88E
S31508004FA000200600102E0DDA2048304490F9202003
S31508004FB02149684600F042F86946200000F058F892
S31508004FC0761CEFE72800C0B276BD70B582B0040043
S31508004FD00020050014A1200000F030F8002006008B
S31508004FE0102E0DDA1148304490F9302012496846DF
S31508004FF000F024F86946200000F03AF8761CEFE73E
S315080050002800C0B276BD0021080080280ADA0021EF
S31508005010064A11540021064A11540021054A115422
S31508005020401CF2E77047000000000000C061002045
S3150800503040620020C0620020089A01080CB41CB522
S31508005040044604A801900A46009401AB694607483D
S315080050507844183007F02EFE009A002111700028B7
S315080050605CBF0098001B16BC5DF80CFB9F54000043
S31508005070024600E0521C1378002BFBD111F8013BC5
S31508005080137012F8013B002BF8D170471CB520208D
S315080050908DF8000001208DF8010008208DF8020027
S315080050A000208DF8030000208DF8040000208DF8FC
S315080050B00500684608F0CEFE0400E4B2002C05D0D0
S315080050C0022C07D004D3032C06D007E0002006E004
S315080050D0012004E0032002E0012000E0012016BDC3
S315080050E02DE9FF47040000208046684608F060FF67
S315080050F000283AD1009806003100062005F059FA32
S315080051000600009805F0C4F90022644B08F0C6FFB3
S3150800511009F0ACF805002D0202AA9246009805F09F
S31508005120B7F9524609F0B8F807F05AFD81465FF01C
S315080051308740494607F02EFC07F09AFD070017F04E
S31508005140F0077D192A00564914F10C00FFF776FF7F
S31508005150A561300005F09CF902000B0051492000BA
S31508005160FFF76CFF4046C0B200E0012004B0BDE87E
S31508005170F0872DE9FF47040000200500684608F07F
S3150800518017FF002835D100988146009805F080F968
S315080051900022424B08F082FF09F068F80600360242
S315080051A002AA9246009805F073F9524609F074F877
S315080051B007F016FD80465FF08740414607F0EAFB98
S315080051C007F056FD070017F0F007BE1932003449FC
S315080051D014F10C00FFF732FFA661484605F058F9AE
S315080051E002000B002F492000FFF728FF2800C0B255
S315080051F000E0012004B0BDE8F08730B585B00400B2
S31508005200684608F0EBFE002801D0012041E001A81D
S3150800521008F005FF00283BD1019805F039F9224A24
S31508005220224B08F03BFF0022214B09F091F807F0CA
S31508005230D7FC0500BDF80000E082019805F028F9C2
S3150800524002000B001B492000FFF7F8FE280005F0B6
S315080052501FF902000B001749E01DFFF7EFFEBDF925
S315080052600000C0F3072212B20B4914F10E00FFF733
S31508005270E5FEBDF9000000F0FF02074902A8FFF7A6
S31508005280DDFE02A914F10E00FFF7F2FE002000E091
S31508005290012005B030BD0000F09701080000044069
S315080052A0F897010800980108CDCCCCCCCCCCFC3FB3
S315080052B0000040400898010810B5A0B000208DF8FD
S315080052C0040000208DF805004FF4FA7000900023C2
S315080052D001AA0F21BA2004F00EFF0400E4B2002C44
S315080052E007D14FF4FA73012201A9BA2004F09BFFF3
S315080052F004009DF80400BD2801D1002000E001202B
S3150800530020B010BD80B501203E49487000F014F861
S3150800531000203C4988700020DFF8201D0870002016
S31508005320DFF8181D48800020DFF8101D888000204F
S31508005330DFF8081D887101BD80B501203149487024
S3150800534031493248FEF71CFD2F493148FEF718FD52
S315080053502D493048FEF714FD2B492F48FEF710FD5E
S3150800536029492E48FEF70CFD2D492E48FEF708FD63
S315080053702D492E48FEF704FD23492D48FEF700FD6A
S3150800538021492C48FEF7FCFC1F492B48FEF7F8FC80
S315080053901D492A48FEF7F4FC1B492948FEF7F0FC8C
S315080053A019492848FEF7ECFC17492748FEF7E8FC98
S315080053B015492648FEF7E4FC13492548FEF7E0FCA4
S315080053C011492448FEF7DCFC0F492348FEF7D8FCB0
S315080053D00D49DFF86C0CFEF7D3FC01BD0120DFF8A0
S315080053E0641C087070470020DFF8581C0870704766
S315080053F0DFF8500C007870470120DFF8481C087069
S315080054007047000058590020B897010863590020D2
S31508005410735900208359002092590020A85900206A
S3150800542018950108CA59002008960108E85900206D
S31508005430065A0020185A0020305A0020D45A002054
S31508005440EC5A0020045B00201C5B0020345B002023
S315080054504C5B0020645B00207C5B002010B58CB0A0
S3150800546000200400DFF8DC0B0078002800F0E18556
S31508005470DFF8D00B8078002808D0022846D03AD327
S31508005480042861D04DD3052871D085E0DFF8B81B14
S3150800549001A8FFF7D3FD01A90020FEF749FD01A8E1
S315080054A0FEF744FC01A9FFF77FF9002001F074F824
S315080054B000281FD0DFF8940B02F05BFF0400E4B26B
S315080054C0002C69D1DFF8880B03F046F80400E4B233
S315080054D0002C61D1DFF87C0B03F031F90400E4B24B
S315080054E0002C59D1DFF8700B03F018FA0400E4B267
