S02E0000526F616420426F61726420526576204D2E3520424153454C494E4520446563203920323031362E737265637A
S31508000000500500201D160108091801080D180108D9
S315080000101118010815180108191801080000000030
S315080000200000000000000000000000004300010876
S315080000301D18010800000000F1FF0008C5000108AE
S315080000402118010825180108291801082D18010882
S315080000503118010835180108391801083D18010832
S31508000060411801084518010849180108CD0001087A
S315080000704D180108511801085518010859180108A2
S315080000805D18010861180108651801086918010852
S31508000090D70001086D1801087118010875180108BC
S315080000A0791801087D1801088118010885180108C2
S315080000B0130101081D010108E1000108FF000108FC
S315080000C009010108891801088D1801089118010805
S315080000D09518010899180108F5000108EB000108B0
S315080000E09D180108A1180108A51801082728000865
S315080000F0A918010800000000AD180108B118010888
S31508000100B5180108B9180108BD180108C118010871
S31508000110C5180108C9180108CD1801080000000013
S31508000120D11801082DE9F04FADF51B7D040020001C
S3150800013001F08CFE0500207830282FD031283CD0DD
S31508000140322860D0332800F08480342800F0A78055
S31508000150352800F0CA80362800F01F81412800F0B3
S315080001602781422800F05982432800F061844428F8
S3150800017000F0EC85452800F02687462800F02A87F7
S31508000180472800F03987482800F0A587502801F04D
S315080001905C82542801F0768201F0FDBC01F0A4FED1
S315080001A082465FFA8AFABAF1000F04D1DFF8781DA1
S315080001B006A801F07FFF01F0F2BC79A801F0D7FE8E
S315080001C08246DFF8681D06A801F074FF06A900201C
S315080001D002F048F882465FFA8AFABAF1000F03D0AD
S315080001E05046C0B201F059BDDFF8F81D06A802F066
S315080001F0E3F979A906A802F0F9F9D2A106A802F04E
S31508000200F5F901F0CCBC79A801F0D1FE8246DFF8F9
S31508000210D81D06A801F04EFF06A9002002F022F814
S3150800022082465FFA8AFABAF1000F03D05046C0B286
S3150800023001F033BDDFF8B41D06A802F0BDF979A9AF
S3150800024006A802F0D3F9BFA106A802F0CFF901F07B
S31508000250A6BC79A801F0CCFE8246DFF8941D06A854
S3150800026001F028FF06A9002001F0FCFF82465FFA8C
S315080002708AFABAF1000F03D05046C0B201F00DBD9C
S31508000280DFF8701D06A802F097F979A906A802F00A
S31508000290ADF9ACA106A802F0A9F901F080BC79A8CD
S315080002A001F0C8FE8246DFF8EC1D06A801F002FF41
S315080002B006A9002001F0D6FF82465FFA8AFABAF14B
S315080002C0000F03D05046C0B201F0E7BCDFF8C81DE6
S315080002D006A802F071F979A906A802F087F999A18A
S315080002E006A802F083F901F05ABC01F0D5FD239067
S315080002F0DFF8A81D06A801F0DDFE79A801F037FE93
S31508000300824606A9002001F0ADFF82465FFA8AFA06
S31508000310BAF1000F03D05046C0B201F0BEBC0020AF
S315080003208146B9A106A802F047F900208346BBF129
S31508000330800F2BDA239810F80B20DFF8681D02A827
S3150800034002F03AF902A906A802F050F919F10109D2
S31508000350B9F1100F17DB7BA106A802F047F90020B8
S31508000360814606A9002001F07DFF82465FFA8AFAD7
S31508000370BAF1000F03D05046C0B201F08EBCA2A15C
S3150800038006A802F019F91BF1010BD0E7DFF8E01D0A
S3150800039006A802F011F901F002BC0020824601F01D
S315080003A06BFEDFF8D01D06A801F084FE01F0F7BB4E
S315080003B0EDB2012D00F02F81607836282FD038282D
S315080003C000F0A480392800F00981492840F01E81F0
S315080003D002F01AF982465FFA8AFABAF1000F05D1D5
S315080003E0DFF8D41D06A801F065FE17E0DFF8CC1D7E
S315080003F006A801F05FFE8DF814A006A9002001F0FA
S3150800040031FF82465FFA8AFABAF1000F03D05046E6
S31508000410C0B201F042BC9DF814008246FBE094A8E5
S3150800042002F01CF982465FFA8AFABAF1000F54D133
S31508000430DFF8E81D06A801F03DFE06A9002001F038
S3150800044011FF82465FFA8AFABAF1000F03D05046C6
S31508000450C0B201F022BCDFF8C81D06A802F0ACF84D
S3150800046006A9002001F0FEFE82465FFA8AFABAF172
S31508000470000F03D05046C0B201F00FBCDFF8A41D30
S3150800048006A802F099F894A906A802F0AFF82DA1DB
S3150800049006A802F0ABF806A9002001F0E3FE8246A2
S315080004A05FFA8AFABAF1000F03D05046C0B201F0DB
S315080004B0F4BBDFF8001E06A802F07EF897A906A886
S315080004C002F094F89A9ADFF8F01D02A802F074F880
S315080004D002A906A802F08AF817E0DFF8E01D06A8C8
S315080004E001F0E8FD8DF814A006A9002001F0BAFE77
S315080004F082465FFA8AFABAF1000F03D05046C0B2B4
S3150800050001F0CBBB9DF81400824684E024A802F0D3
S31508000510E9F882465FFA8AFABAF1000F2CD1DFF8B9
S31508000520E81D06A801F0C6FD06A9002001F09AFEFE
S3150800053082465FFA8AFABAF1000F05D05046C0B271
S3150800054001F0ABBB0D0A0000DFF8C01D06A802F0DB
S3150800055033F827A906A802F049F8B5A106A802F0BB
S3150800056045F806A9002001F07DFE82465FFA8AFA60
S31508000570BAF1000F01D104E04DE05046C0B201F0D7
S315080005808CBBBDF8A420DFF8F41D06A802F014F809
S3150800059006A9002001F066FE82465FFA8AFABAF1D9
S315080005A0000F03D05046C0B201F077BBDFF8D01D6C
S315080005B006A802F001F824A906A802F017F8DFF841
S315080005C0C41D06A802F012F80DF1960106A802F05D
S315080005D00DF897A106A802F009F81CE002F0EAF85F
S315080005E082465FFA8AFABAF1000F05D1DFF8DC1DF8
S315080005F006A801F05FFD06E0DFF8D41D06A801F0A5
S3150800060059FD0020824606E000000000DFF8C41D00
S3150800061006A801F04FFD01F0C2BAEDB2012D40F077
S31508000620F080052002F0F6FF002804D02EA803F07B
S31508000630BBFC82460BE0062002F0ECFF002804D043
S315080006402EA803F01DF9824601E0012082465FFAD2
S315080006508AFABAF1000F40F0D280DFF8C41D06A866
S3150800066001F028FD06A9002001F0FCFD82465FFA8C
S315080006708AFABAF1000F03D05046C0B201F00DBB9A
S3150800068000208346BBF1090F80F2A680BBF1000F5C
S3150800069010D0BBF1020F2AD01AD3BBF1040F43D0F6
S315080006A033D3BBF1060F5CD04CD3BBF1080F75D022
S315080006B065D380E0BDF8CC0001900DF1BE00009036
S315080006C02EAB31AADFF8FC1D06A801F075FF72E013
S315080006D0BDF8E200019035A800900DF1CE030DF1AA
S315080006E0DA02DFF8E41D06A801F066FF63E0BDF84C
S315080006F0F80001900DF1EA00009039AB3CAADFF84A
S31508000700CC1D06A801F058FF55E0BDF80E01019072
S3150800071040A800900DF1FA030DF58372DFF8B01DBD
S3150800072006A801F049FF46E0BDF8240101900DF541
S315080007308B70009044AB47AADFF8981D06A801F015
S315080007403BFF38E0BDF83A0101904BA800900DF543
S3150800075093730DF59972DFF8801D06A801F02CFF3A
S3150800076029E0BDF8500101900DF5A17000904FAB3E
S3150800077052AADFF8681D06A801F01EFF1BE0BDF8A7
S315080007806601019056A800900DF5A9730DF5AF7294
S31508000790DFF84C1D06A801F00FFF0CE0BDF87C0140
S315080007A001900DF5B77000905AAB5DAADFF8341DBD
S315080007B006A801F001FF06A9002001F053FD8246B4
S315080007C05FFA8AFABAF1000F03D05046C0B201F0B8
S315080007D064BA1BF1010B55E7DFF80C1D06A801F0FA
S315080007E0EBFE21A906A801F001FF11A106A801F058
S315080007F0FDFEDFF8F81D06A801F0DEFE16E101F0A1
S31508000800CEB96078302815D0312800F00281492801
S3150800081040F00C8103F012FB82465FFA8AFABAF1BD
S31508000820000F04D1DFF8C81D06A801F043FCFDE05F
S315080008300D0A0000052002F0EDFE002804D02EA8BF
S3150800084003F0B2FB82460BE0062002F0E3FE002826
S3150800085004D02EA803F014F8824601E0012082464F
S315080008605FFA8AFABAF1000F40F0D280DFF8B01BBF
S3150800087006A801F01FFC06A9002001F0F3FC824639
S315080008805FFA8AFABAF1000F03D05046C0B201F0F7
S3150800089004BA00208346BBF1090F80F2A680BBF19B
S315080008A0000F10D0BBF1020F2AD01AD3BBF1040FE8
S315080008B043D033D3BBF1060F5CD04CD3BBF1080F42
S315080008C075D065D380E0BDF8CC0001900DF1BE006F
S315080008D000902EAB31AADFF8EC1B06A801F06CFEDF
S315080008E072E0BDF8E200019035A800900DF1CE0344
S315080008F00DF1DA02DFF8D01B06A801F05DFE63E011
S31508000900BDF8F80001900DF1EA00009039AB3CAA59
S31508000910DFF8B81B06A801F04FFE55E0BDF80E013A
S31508000920019040A800900DF1FA030DF58372DFF8E7
S31508000930A01B06A801F040FE46E0BDF82401019080
S315080009400DF58B70009044AB47AADFF8881B06A804
S3150800095001F032FE38E0BDF83A0101904BA800904C
S315080009600DF593730DF59972DFF86C1B06A801F067
S3150800097023FE29E0BDF8500101900DF5A170009005
S315080009804FAB52AADFF8541B06A801F015FE1BE070
S31508000990BDF86601019056A800900DF5A9730DF5EE
S315080009A0AF72DFF83C1B06A801F006FE0CE0BDF8A6
S315080009B07C0101900DF5B77000905AAB5DAADFF87F
S315080009C0241B06A801F0F8FD06A9002001F04AFC40
S315080009D082465FFA8AFABAF1000F03D05046C0B2CF
S315080009E001F05BB91BF1010B55E7DFF8FC1A06A805
S315080009F001F0E2FD21A906A801F0F8FDD2A106A89A
S31508000A0001F0F4FDDFF8E41B06A801F0D5FD0DE0C2
S31508000A100CE003F07EFA82465FFA8AFABAF1000F12
S31508000A2004D1DFF8801D06A801F044FB01F0B7B831
S31508000A30EDB2012D47D11FA803F07CFF82465FFA6D
S31508000A408AFABAF1000F2AD1DFF8E41D06A801F0E8
S31508000A5031FB06A9002001F005FC82465FFA8AFAF6
S31508000A60BAF1000F03D05046C0B201F016B9DFF84C
S31508000A70C41D06A801F0A0FD21A906A801F0B6FD2F
S31508000A80B1A106A801F0B2FD06A9002001F0EAFB13
S31508000A9082465FFA8AFABAF1000F02D105E001F040
S31508000AA07EB85046C0B201F0F8B8DFF8E81D06A8CF
S31508000AB001F082FD1FA906A801F098FDA2A106A8CB
S31508000AC001F094FD3EE16078302818D031285DD0D9
S31508000AD0322800F0A380332800F0E880492840F047
S31508000AE02C8103F063FD82465FFA8AFABAF1000F99
S31508000AF004D1DFF8A41D06A801F0DCFA22E11FA83C
S31508000B0003F0AFFD82465FFA8AFABAF1000F2AD1DE
S31508000B10DFF80C1906A801F0CDFA06A9002001F0A5
S31508000B20A1FB82465FFA8AFABAF1000F03D0504653
S31508000B30C0B201F0B2B8DFF8B01906A801F03CFD62
S31508000B4021A906A801F052FD7FA106A801F04EFDD5
S31508000B5006A9002001F086FB82465FFA8AFABAF1F6
S31508000B60000F01D104E0EDE05046C0B201F095B89F
S31508000B70DFF8BC1D06A801F01FFD1FA906A801F095
S31508000B8035FD71A106A801F031FDDBE090A803F060
S31508000B90DEFD82465FFA8AFABAF1000F2BD1DFF83A
S31508000BA0941D06A801F086FA06A9002001F05AFB52
S31508000BB082465FFA8AFABAF1000F03D05046C0B2ED
S31508000BC001F06BB8DFF8701D06A801F0F5FC92A9D4
S31508000BD0491C06A801F00AFD5BA106A801F006FD5E
S31508000BE006A9002001F03EFB82465FFA8AFABAF1AE
S31508000BF0000F01D104E0A5E05046C0B201F04DB89F
S31508000C00DFF8381D06A801F0D7FC90A906A801F060
S31508000C10EDFC4DA106A801F0E9FC93E08CA803F0D1
S31508000C200CFE82465FFA8AFABAF1000F2BD1DFF87A
S31508000C30101D06A801F03EFA06A9002001F012FBD5
S31508000C4082465FFA8AFABAF1000F03D05046C0B25C
S31508000C5001F023B8DFF8E81D06A801F0ADFC8EA95F
S31508000C60491C06A801F0C2FC37A106A801F0BEFC83
S31508000C7006A9002001F0F6FA82465FFA8AFABAF166
S31508000C80000F01D104E05DE05046C0B201F005B89E
S31508000C90DFF8B01D06A801F08FFC8CA906A801F0A4
S31508000CA0A5FC29A106A801F0A1FC4BE01FA803F0AA
S31508000CB041FE82465FFA8AFABAF1000F2AD1DFF8B6
S31508000CC0701B06A801F0F6F906A9002001F0CAFA79
S31508000CD082465FFA8AFABAF1000F03D05046C0B2CC
S31508000CE000F0DBBFDFF84C1B06A801F065FC21A964
S31508000CF006A801F07BFC14A106A801F077FC06A95A
S31508000D00002001F0AFFA82465FFA8AFABAF1000FBC
S31508000D1001D104E016E05046C0B200F0BEBFDFF8CD
S31508000D20741B06A801F048FC1FA906A801F05EFC82
S31508000D3005A106A801F05AFC04E0DFF8981606A8F3
S31508000D4001F0B8F900F02BBF0D0A0000EDB2012D35
S31508000D505CD160A803F0DDFE82465FFA8AFABAF132
S31508000D60000F2AD1DFF8941D06A801F0A3F906A9F9
S31508000D70002001F077FA82465FFA8AFABAF1000F84
S31508000D8003D05046C0B200F088BFDFF8C81D06A8D9
S31508000D9001F012FC62A906A801F028FCC0A106A869
S31508000DA001F024FC06A9002001F05CFA82465FFAED
S31508000DB08AFABAF1000F02D105E000F0F0BE5046FB
S31508000DC0C0B200F06ABFBDF89021DFF8BC1D06A8C6
S31508000DD001F0F2FB06A9002001F044FA82465FFA08
S31508000DE08AFABAF1000F03D05046C0B200F055BFD8
S31508000DF0DFF8C41D06A801F0DFFB60A906A801F00C
S31508000E00F5FBA7A106A801F0F1FBDAE06078302827
S31508000E1012D031286CD0492840F0D38003F026FE42
S31508000E2082465FFA8AFABAF1000F04D1DFF88C1D00
S31508000E3006A801F03FF9C4E060A803F06AFE8246FE
S31508000E405FFA8AFABAF1000F2AD1DFF8B01C06A8B1
S31508000E5001F030F906A9002001F004FA82465FFA8B
S31508000E608AFABAF1000F03D05046C0B200F015BF97
S31508000E70DFF8E01C06A801F09FFB62A906A801F0AE
S31508000E80B5FB87A106A801F0B1FB06A9002001F071
S31508000E90E9F982465FFA8AFABAF1000F01D104E04D
S31508000EA08FE05046C0B200F0F8BEBDF89021DFF8DA
S31508000EB0D81C06A801F080FB06A9002001F0D2F98B
S31508000EC082465FFA8AFABAF1000F03D05046C0B2DA
S31508000ED000F0E3BEDFF8E01C06A801F06DFB60A990
S31508000EE006A801F083FB6EA106A801F07FFB68E067
S31508000EF024A803F08DFF82465FFA8AFABAF1000F3A
S31508000F002ED1DFF8F81B06A801F0D4F806A90020B0
S31508000F1001F0A8F982465FFA8AFABAF1000F07D0FB
S31508000F205046C0B200F0B9BE34030108C80B010828
S31508000F30DFF8D81306A801F03FFB27A906A801F099
S31508000F4055FB57A106A801F051FB06A9002001F0A0
S31508000F5089F982465FFA8AFABAF1000F01D104E0EC
S31508000F602FE05046C0B200F098BEBDF8A420DFF8C6
S31508000F700C1406A801F020FB06A9002001F072F95E
S31508000F8082465FFA8AFABAF1000F03D05046C0B219
S31508000F9000F083BEDFF8E81306A801F00DFB24A9CC
S31508000FA006A801F023FBDFF8DC1306A801F01EFBF8
S31508000FB00DF1960106A801F019FB39A106A801F062
S31508000FC015FB00F0ECBDDFF8DC1C06A801F072F892
S31508000FD000F0E5BDDFF8D01C06A801F06BF800F0BC
S31508000FE0DEBD00BFE8110108F00B01080812010870
S31508000FF0180C01082812010824A804F09BF8824658
S315080010005FFA8AFABAF1000F29D1DFF8A01C06A800
S3150800101001F050F806A9002001F024F982465FFA8B
S315080010208AFABAF1000F03D05046C0B200F035BEB6
S31508001030B64906A801F0C0FA27A906A801F0D6FA0B
S3150800104017A106A801F0D2FA06A9002001F00AF9AC
S3150800105082465FFA8AFABAF1000F02D105E000F07B
S315080010609EBD5046C0B200F018BEBDF8A420C349C4
S3150800107006A801F0A1FA06A9002001F0F3F88246B5
S315080010805FFA8AFABAF1000F0ED05046C0B200F0E5
S3150800109004BE00BF400C010848120108680C01088C
S315080010A00D0A00008C170108B54906A801F084FA54
S315080010B024A906A801F09AFAB24906A801F096FAF8
S315080010C00DF1960106A801F091FAD4A106A801F03F
S315080010D08DFA00F064BDEDB2012D73D182A804F03B
S315080010E0E9F982465FFA8AFABAF1000F68D1DFF8A1
S315080010F0C41B06A800F0DEFF06A9002001F0B2F81E
S3150800110082465FFA8AFABAF1000F03D05046C0B297
S3150800111000F0C3BDDFF8A01B06A801F04DFA06A92A
S31508001120002001F09FF882465FFA8AFABAF1000FAA
S3150800113003D05046C0B200F0B0BDDFF8801B06A849
S3150800114000F0B8FF88A906A801F050FAB3A106A8CE
S3150800115001F04CFA06A9002001F084F882465FFAED
S315080011608AFABAF1000F07D05046C0B200F095BD12
S31508001170D8140108F0100108DFF8441B06A800F08F
S3150800118099FF82A906A801F031FADFF8381B06A8EC
S3150800119001F02CFA84A906A801F028FADFF8281B22
S315080011A006A801F023FA86A906A801F01FFA9BA152
S315080011B006A801F01BFA47E2900C0108B80C0108D2
S315080011C000F0EDBC6078302800F06181312800F02D
S315080011D0DA81322800F0FB81332800F00C82492896
S315080011E040F02D82EDB2022D0ED104F059F8824658
S315080011F05FFA8AFABAF1000F40F04881DFF8CC1A94
S3150800120006A800F057FF41E1EDB21D2D0CD0DFF81E
S31508001210C01A06A800F04EFF38E100BFE00C01082E
S31508001220300701082C160108A0783A2817D16079EA
S315080012302E2814D1207A2E2811D1E07A2E280ED104
S31508001240A07B2E280BD1607C2E2808D1207D2E2845
S3150800125005D1E07D2E2802D1A07E2E2805D0DFF804
S31508001260741A06A800F026FF10E100208046002028
S315080012708346BBF1090F2CDA032000FB0BF0204450
S31508001280C0788DF80800032000FB0BF02044007995
S315080012908DF8090000208DF80A0002A800F080FDEC
S315080012A000280DD1DFF8301A06A800F003FF012048
S315080012B080460EE09C15010838160108080D01083D
S315080012C002A800F092FD65A901F80B001BF1010BBD
S315080012D0CFE79DF89401082805DBDFF8001A06A871
S315080012E000F0E8FEB0E19DF8940110F007008DF8D3
S315080012F06D009DF8950102280ADBDFF8E41906A8B7
S3150800130000F0D8FEA0E100BF300D0108EC1401087A
S315080013109DF8950110F00100C0B2C0008DF86C0070
S315080013209DF89601022805DBDFF8B81906A800F033
S31508001330C1FE89E19DF8960110F00100C0B20001D6
S315080013408DF86B009DF89701022805DBDFF89819E0
S3150800135006A800F0AFFE77E19DF8970110F00100AE
S31508001360C0B240018DF86A009DF8980140280BDB51
S31508001370DFF8781906A800F09DFE65E168120108F5
S31508001380AC150108BC1501089DF8980110F03F003E
S315080013908DF869009DF89901022805DBDFF85019D8
S315080013A006A800F087FE4FE19DF8990110F00100AC
S315080013B0802148438DF868009DF89A0104280BDBC4
S315080013C0DFF8301906A800F075FE3DE1580D010852
S315080013D0800D0108881201089DF89A0110F0030093
S315080013E08DF817009DF89B01042805DBDFF808191E
S315080013F006A800F05FFE27E19DF89B0110F00300A8
S31508001400C0B280008DF816009DF89C01022809DB01
S31508001410DFF8E81806A800F04DFE15E10D0A0000F1
S31508001420141101089DF89C0110F00100C0B20001DA
S315080014308DF815009DF86D009DF86C1008189DF83C
S315080014406B1008189DF86A1008188DF874009DF836
S3150800145069009DF8681008188DF875009DF8170042
S315080014609DF8161008189DF8151008188DF87600BE
S315080014701DA803F03DFF82465FFA8AFABAF1000F0B
S3150800148004D1DFF87C1806A800F014FEDCE082A878
S3150800149004F010F882465FFA8AFABAF1000F71D1A1
S315080014A0DFF8101806A800F005FE06A9002000F0CF
S315080014B0D9FE82465FFA8AFABAF1000F16D050466C
S315080014C0C0B2EAE3680A0108A80D0108D00D0108B0
S315080014D0F80D0108200E0108480E0108700E0108D3
S315080014E0980E0108C00E0108C4130108DFF8C817D2
S315080014F006A801F061F806A9002000F0B3FE8246AE
S315080015005FFA8AFABAF1000F02D05046C0B2C4E3B5
S31508001510DFF8A81706A800F0CDFD88A906A801F0EF
S3150800152065F8C5A106A801F061F806A9002000F033
S3150800153099FE82465FFA8AFABAF1000F02D050463F
S31508001540C0B2AAE3DFF8781706A800F0B3FD82A9AF
S3150800155006A801F04BF8DFF86C1706A801F046F864
S3150800156084A906A801F042F8DFF85C1706A801F07E
S315080015703DF886A906A801F039F8AFA106A801F03A
S3150800158035F861E060E02AA803F049FF82465FFA71
S315080015908AFABAF1000F19D1DFF8681706A800F021
S315080015A089FD9DF8A820DFF8601702A801F004F865
S315080015B002A906A801F01AF80DF1A90106A801F07A
S315080015C015F89DA106A801F011F83DE03CE003F0EE
S315080015D0B9FE82465FFA8AFABAF1000F0AD1DFF835
S315080015E02C1706A800F066FD2EE000BF00150108BE
S315080015F06807010828E02CA803F0C6FE82465FFAB1
S315080016008AFABAF1000F19D1DFF8041706A800F014
S3150800161051FD9DF8B020DFF8F01602A800F0CCFFC7
S3150800162002A906A800F0E2FF0DF1B10106A800F034
S31508001630DDFF81A106A800F0D9FF05E004E0DFF888
S31508001640D41606A800F036FDA9E2607844280AD028
S31508001650552811D1042004F07DF8DFF8BC1606A839
S3150800166000F028FD0DE0042004F082F8DFF8AC163F
S3150800167006A800F01FFD04E0DFF8A41606A800F08F
S3150800168019FD8CE2EDB2022D05DADFF8981606A8E8
S3150800169000F010FD7EE26078442800F06282492856
S315080016A003D0522800F0688270E2EDB2092D05DAFF
S315080016B0DFF8741606A800F0FDFC51E2A078512860
S315080016C000F0C281C0F04882532802D0C0F0A08042
S315080016D042E2E0783A2802D1A0792E2805D0DFF830
S315080016E04C1606A800F0E6FC91E020798DF8080073
S315080016F060798DF8090000208DF80A0002A800F02C
S315080017004FFB002805D1DFF8281606A800F0D2FC02
S315080017107DE002A800F069FB0600E0798DF8080074
S31508001720207A8DF8090000208DF80A0002A800F03A
S3150800173037FB002805D1DFF8FC1506A800F0BAFC2F
S3150800174065E002A800F051FB0700002F06D1320021
S31508001750DFF8E41506A800F02FFF2EE000208046EB
S3150800176000208346BB4528DA032000FB0BF0204403
S31508001770807A8DF80800032000FB0BF02044C07A1D
S315080017808DF8090000208DF80A0002A800F008FB71
S31508001790002809D1DFF8981506A800F08BFC01206F
S315080017A080460AE0940A010802A800F01EFB65A913
S315080017B001F80B001BF1010BD4E7B8F1000F05D1B6
S315080017C03200DFF8781506A800F0F6FE00208346FA
S315080017D0BB450DDA65A810F80B20C7A102A800F0D2
S315080017E0EBFE02A906A800F001FF1BF1010BEFE7CB
S315080017F011A106A800F0FAFE4FF4FA7338000200A9
S3150800180092B265A9300080B204F0D0F88246A7E10A
S31508001810E0783A2805D1A0792E2802D1607A2E28B8
S315080018200CD0DFF81C1506A800F044FC06E100BF42
S31508001830E80E0108DC1301080D0A000020798DF86E
S31508001840080060798DF8090000208DF80A0002A8C2
S3150800185000F0A6FA002805D1DFF8E81406A800F07B
S3150800186029FCEBE002A800F0C0FA0600E0798DF842
S315080018700800207A8DF8090000208DF80A0002A8D1
S3150800188000F08EFA002809D1DFF8BC1406A800F08B
S3150800189011FCD3E014150108C00A010802A800F0DB
S315080018A0A4FA0700A07A8DF80800E07A8DF80900F6
S315080018B000208DF80A0002A800F072FA002805D167
S315080018C0DFF8881406A800F0F5FBB7E002A800F0D8
S315080018D08CFA1C90002F06D13200DFF8741406A883
S315080018E000F06AFE37E00020804600208346BB45AC
S315080018F031DA032000FB0BF02044407B8DF808000A
S31508001900032000FB0BF02044807B8DF809000020A3
S315080019108DF80A0002A800F043FA002812D1DFF871
S31508001920341406A800F0C6FB0120804613E000BF69
S31508001930F41301083811010828150108CC15010807
S31508001940A812010802A800F050FA65A901F80B00D0
S315080019501BF1010BCBE7B8F1000F05D13200DFF818
S31508001960F81306A800F028FE00208346BB450DDACA
S3150800197065A810F80B2060A102A800F01DFE02A9B8
S3150800198006A800F033FE1BF1010BEFE7B8A106A885
S3150800199000F02CFE4FF4FA733800020092B265A9E3
S315080019A0300080B204F002F882465FFA8AFABAF189
S315080019B0000F10D14FF4FA731C98020092B265A971
S315080019C0300080B204F03DF882465FFA8AFABAF12E
S315080019D0000F05D100E0C3E0142004F06DF882463C
S315080019E05FFA8AFABAF1000F28D106A9002000F09A
S315080019F039FC82465FFA8AFABAF1000F02D05046DD
S31508001A00C0B24AE1DFF8541306A800F0D5FD00205D
S31508001A1083461C9883450DDA65A810F80B2036A175
S31508001A2002A800F0C9FD02A906A800F0DFFD1BF117
S31508001A30010BEEE78EA106A800F0D8FD90E000BFE6
S31508001A403C150108DC150108E0783A2802D1A0798E
S31508001A502E2804D0C24906A800F02CFB79E020798C
S31508001A608DF8080060798DF8090000208DF80A00C5
S31508001A7002A800F095F9002804D1BA4906A800F092
S31508001A8019FB66E002A800F0B0F90600E0798DF8C7
S31508001A900800207A8DF8090000208DF80A0002A8AF
S31508001AA000F07EF9002804D1AF4906A800F002FB31
S31508001AB04FE002A800F099F91C903200A44906A844
S31508001AC000F07AFD4FF4FA731C98020092B265A9E9
S31508001AD0300080B203F0B5FF82465FFA8AFABAF19F
S31508001AE0000F0DD1142003F0E7FF82465FFA8AFA49
S31508001AF0BAF1000F2DD104E025782E000C14010848
S31508001B002EE006A9002000F0ADFB82465FFA8AFAAD
S31508001B10BAF1000F02D05046C0B2BEE08F4906A8FF
S31508001B2000F04AFD002083461C9883450DDA65A817
S31508001B3010F80B205EA102A800F03EFD02A906A837
S31508001B4000F054FD1BF1010BEEE749A106A800F0D1
S31508001B504DFD05E0241401086E4906A800F0AAFA0E
S31508001B6018E001F08BFDADF86E00BDF86E207F49D8
S31508001B7006A800F021FD0DE004F02BF97C4906A823
S31508001B8000F01AFD06E000BF5C110108614906A8CD
S31508001B9000F090FA03E05F4906A800F08BFA5FFAB6
S31508001BA08AFABAF1000F0BD0BAF1020F3FD008D368
S31508001BB0BAF1030F42D048E0EC150108EC0A010817
S31508001BC049E003F06FFF1E901E9801280AD00228EC
S31508001BD00DD0042810D0082813D0102816D0202895
S31508001BE019D01DE0634906A800F064FA1CE06249B2
S31508001BF006A800F05FFA17E0604906A800F05AFA4E
S31508001C0012E05F4906A800F055FA0DE05D4906A8FE
S31508001C1000F050FA08E05C4906A800F04BFA03E029
S31508001C205A4906A800F046FA03F017FE13E0584989
S31508001C3006A800F03FFA03F010FE0CE0554906A886
S31508001C4000F038FA03F009FE05E0534906A800F04B
S31508001C5031FA03F002FE06A9002000F003FB8246D3
S31508001C605FFA8AFABAF1000F04D05046C0B214E0FF
S31508001C700D0A0000494906A800F01CFA06A900202A
S31508001C8000F0F0FA82465FFA8AFABAF1000F02D03B
S31508001C905046C0B201E05046C0B20DF51B7DBDE806
S31508001CA0F08F00BF4C0901083C14010850150108C3
S31508001CB025782E0064130108A0070108FC15010801
S31508001CC044160108501601085C160108600201084E
S31508001CD078030108A80201088004010840060108E3
S31508001CE07C060108B8060108D8070108C0040108DF
S31508001CF0000501084005010880050108C00501081E
S31508001D00BC030108C8120108941701087C080108D9
S31508001D108011010888120108E81201080813010851
S31508001D20180B010828130108100F0108380F0108BD
S31508001D30440B0108B0080108541401086415010889
S31508001D40600F0108700B0108E4080108F406010891
S31508001D506C140108880F010878150108681601082F
S31508001D60B00F01089C0B0108180901088414010822
S31508001D70A4110108D80F01087C090108AC0901085B
S31508001D80DC090108001001080C0A010828100108DE
S31508001D905010010878100108A01001089C170108C6
S31508001DA0F8B50400200000F051F8050000200700EF
S31508001DB000200600AE4216DAA05D3A2802DAA05DD7
S31508001DC0302805DAA05D472805DAA05D412802DB40
S31508001DD00020070001E001200700012F01D10020A3
S31508001DE002E0761CE6E70120F2BD2DE9F041040089
S31508001DF000275FF00008200000F028F80500002002
S31508001E000600AE421ADAA05D3A2806DAA05D302846
S31508001E1003DBA05D303807000CE0A05D472806DA32
S31508001E20A05D412803DBA05D3738070002E05FF0BC
S31508001E30FF3004E017EB0818761CE2E74046BDE8D9
S31508001E40F0810268531C03601170704700F10103AA
S31508001E50810704D010F8011B89B18107FAD10268FD
S31508001E60B2F10131914311F0803F04BF50F8042FBD
S31508001E70F6E710F8011B11B110F8011BFBE7C01AB1
S31508001E807047000000210800802804DA0021864AED
S31508001E901154401CF8E770478448704770B5040031
S31508001EA08021200004F0C0F80500EDB2002D02D014
S31508001EB02800C0B217E004F0EEF80500002006007E
S31508001EC0C82E0ADA04F0E7F80500EDB2002D04D0B2
S31508001ED0052003F00EFE761CF2E7C82E01DB032070
S31508001EE001E02800C0B270BD70B56E48FFF7D6FF96
S31508001EF00600F6B2002E02D03000C0B236E000204E
S31508001F000500802D05DA6748405D684948556D1C0F
S31508001F10F7E7FFF7B7FF002307226349614804F094
S31508001F20E7F8050015F1010F01D101201EE0002098
S31508001F300500402D18DA5B48405D5A49495D5A4A02
S31508001F40525D594B5B5D5A4301FB002004F0F0F9E2
S31508001F5004F006FA04F07CFA0400200004F0C0FA43
S31508001F60504948556D1CE4E73000C0B270BD70B5E5
S31508001F7082B004000020050048A1200000F01CFBE8
S31508001F8000200600102E0BDA4648825D484968464E
S31508001F9000F012FB6946200000F028FB761CF1E7EA
S31508001FA03FA1200000F022FB2800C0B276BD70B524
S31508001FB082B004000020050038A1200000F0FCFAD9
S31508001FC000200600102E0CDA36483044027C3849C8
S31508001FD0684600F0F1FA6946200000F007FB761C17
S31508001FE0F0E72FA1200000F001FB2800C0B276BD63
S31508001FF070B582B004000020050028A1200000F07A
S31508002000DBFA00200600102E0DDA2648304490F838
S3150800201020202749684600F0CFFA6946200000F0DC
S31508002020E5FA761CEFE71EA1200000F0DFFA28008B
S31508002030C0B276BD70B582B004000020050017A1B5
S31508002040200000F0B9FA00200600102E0DDA154817
S31508002050304490F830201649684600F0ADFA6946D3
S31508002060200000F0C3FA761CEFE70DA1200000F06F
S31508002070BDFA2800C0B276BD0021080080280ADA19
S315080020800021084A11540021074A11540021074A21
S315080020901154401CF2E770470000000000000000E1
S315080020A0426E0000B826002038270020B8270020F6
S315080020B0A41701085FEA000C830706D011F8013B54
S315080020C000F8013BB3B18307F8D10A68B2F10133CE
S315080020D023EA020313F0803F02BF40F8042B51F8AD
S315080020E0042FF3E711F8013B00F8013B13B111F88F
S315080020F0013BF9E76046704780B5DFF88404DFF8EE
S31508002100841408604FF49640DFF87814486000207D
S31508002110DFF8701488600020DFF86814C8600020B3
S31508002120DFF8601408610C20DFF8581448610020B5
S31508002130DFF8501488610020DFF84814C861DFF81A
S31508002140440404F0EFF9002801D005F097F801BD22
S3150800215080B5DFF83404DFF8341408604FF41650FD
S31508002160DFF8281448600020DFF820148860002073
S31508002170DFF81814C8600020DFF8101408610C2076
S31508002180DFF8081448614FF44070DFF800148861DE
S315080021900020DFF8F813C861DFF8F00304F0C2F98D
S315080021A0002801D005F06AF801BD10B586B0040014
S315080021B02068DFF8CC1388421ED1DFF8D403006804
S315080021C050F40030DFF8C8130860DFF8C40300686D
S315080021D010F40030009000980C2001900220029024
S315080021E001200390032004900720059001A9DFF839
S315080021F0A40305F05BF833E02068DFF88C13884207
S315080022002ED1DFF88C03006850F48020DFF88013A5
S315080022100860DFF87C03006810F4802000900098BE
S315080022204FF44060019002200290012003900320A1
S3150800223004900720059001A9DFF85C0305F036F83D
S315080022404FF4C04001900220029000200390032022
S3150800225004900720059001A9DFF83C0305F026F84D
S3150800226006B010BDF8B504000D002800FFF7EEFD16
S315080022700700BFB2512F01DB01203AE0E4B2002C7F
S3150800228019D1DFF818030078002801D0022030E0C1
S315080022905FF0FF333A0092B22900DFF8E80204F053
S315080022A07AF90600F6B2002E02D03000C0B220E05D
S315080022B03000C0B21DE0E4B2012C19D1DFF8E0020B
S315080022C00078002801D0022013E05FF0FF333A00BF
S315080022D092B22900DFF8B40204F05DF90600F6B2FE
S315080022E0002E02D03000C0B203E03000C0B200E0D9
S315080022F00120F2BDF8B504000D002800FFF7A6FD81
S315080023000700BFB2512F01DB012036E0E4B2002CF2
S3150800231017D1DFF888020078002801D002202CE0C7
S315080023203A0092B22900DFF85C0204F0B2F906001E
S31508002330F6B2002E02D03000C0B21EE03000C0B2A5
S315080023401BE0E4B2012C17D1DFF85402007800280C
S3150800235001D0022011E03A0092B22900DFF82C02DF
S3150800236004F097F90600F6B2002E02D03000C0B28B
S3150800237003E03000C0B200E00120F2BDDFF824021D
S3150800238070470120DFF820120870704786480078E9
S315080023907047F8B504000D001600B6B2512E01DBE1
S315080023A0012032E0E4B2002C15D17C4800780028E0
S315080023B001D0022029E0320092B22900714804F0C7
S315080023C0A0F90700FFB2002F02D03800C0B21CE007
S315080023D03800C0B219E0E4B2012C15D17048007873
S315080023E0002801D0022010E0320092B22900674886
S315080023F004F087F90700FFB2002F02D03800C0B2F8
S3150800240003E03800C0B200E00120F2BD10B50400B8
S315080024102000C0B200F006F8012801D0002000E034
S31508002420012010BD0100C9B2002903D1554890F812
S31508002430390007E0C9B2012903D1544890F8390098
S3150800244000E00420704701684D4A914203D10121FA
S31508002450524A117006E001684B4A914202D10121A5
S315080024604F4A11707047C0B2002803D100214B4A69
S31508002470117005E0C0B2012802D10021484A117046
S31508002480704770B5040020683D49884203D1012091
S31508002490424908704CE020683B49884248D1FFF71A
S315080024A075FF002824D0032041490860FFF766FF1E
S315080024B0404908603F4800684078401C06000020F4
S315080024C005003B48006885420BDA3A480068007800
S315080024D005F042FB37480068401C364908606D1C09
S315080024E0EFE73348066032480068304908601CE068
S315080024F0FFF744FF2F490860002005002C480068B4
S3150800250085420BDA2B480068007805F025FB294838
S315080025100068401C274908606D1CEFE70320244922
S315080025200860234800682149086001201C49087092
S3150800253070BD10B5040004F0A1FE10BD1348006874
S31508002540C06850F0800011490968C86070470F4894
S315080025500068C06850F480700C490968C8600B4868
S315080025600068406950F00100084909684861074851
S315080025700068C06850F0200004490968C8607047C0
S31508002580004400408C28002000480040CC28002049
S31508002590243802400000024000040240CC2A0020F1
S315080025A0CD2A0020282A0020CE2A00204800002014
S315080025B0B82A0020B42A00200CB41CB5044604A886
S315080025C001900A46009401AB6946074878441830DA
S315080025D005F0B6FB009A0021117000285CBF009830
S315080025E0001B16BC5DF80CFB5BF8FFFF024600E01B
S315080025F0521C1378002BFBD111F8013B137012F80B
S31508002600013B002BF8D170471CB520208DF800003F
S3150800261001208DF8010008208DF8020000208DF8B1
S31508002620030000208DF8040000208DF80500684698
S3150800263006F056FC0400E4B2002C05D0022C07D0A4
S3150800264004D3032C06D007E0002006E0012004E0AE
S31508002650032002E0012000E0012016BD2DE9FF4716
S31508002660040000200500684606F0E8FC002835D17D
S3150800267000988146009806F057FD0022454B06F063
S315080026807BFD06F061FE0600360202AA9246009815
S3150800269006F04AFD524606F06DFE03F0D9FE804666
S315080026A05FF08740414606F0C1FE03F019FF0700B8
S315080026B017F0F007BE193200374914F10C00FFF77E
S315080026C07BFFA661484606F02FFD02000B00334942
S315080026D02000FFF771FF2800C0B200E0012004B017
S315080026E0BDE8F08730B585B00400684606F0BCFC46
S315080026F0002801D0012046E001A806F0D6FC0028F3
S3150800270040D1019806F010FD254A264B06F034FD07
S315080027100022254B06F0F6FE03F09AFE0500BDF8EA
S315080027200000A082019806F0FFFC02000B001F497A
S315080027302000FFF741FF280006F0F6FC02000B0018
S315080027401B49A01DFFF738FFBDF90000C0F307229B
S3150800275012B20F4914F10C00FFF72EFFBDF9000065
S3150800276000F0FF020A4902A8FFF726FF02A914F1A2
S315080027700C00FFF73BFF05A114F10C00FFF736FF2D
S31508002780002000E0012005B030BD000052770000AF
S3150800279094160108000004409C160108A4160108B6
S315080027A0CDCCCCCCCCCCFC3F00004040AC160108CC
S315080027B0B416010810B596B000208DF80400002064
S315080027C08DF805004FF4FA700090002301AA0F2136
S315080027D0BA2003F09EF80400E4B2002C07D14FF4A7
S315080027E0FA73012201A9BA2003F02BF904009DF817
S315080027F00400BD2801D1002000E0012016B010BD5C
S3150800280001200B4948700020094988700020DFF82C
S31508002810F01D08700020DFF8E81D48807047012089
S315080028200349087070470120014908707047000085
S315080028303C1F002010B584B000200400DFF8280EE5
S315080028400078002800F0CC85DFF81C0E8078002878
S3150800285008D0022837D02BD3042852D03ED30528D7
S3150800286062D076E0002000F0D5FE00281FD0DFF801
S31508002870780B01F0F6FE0400E4B2002C69D1DFF80B
S315080028806C0B01F064FF0400E4B2002C61D1DFF8A0
S31508002890600B01F0D2FF0400E4B2002C59D1DFF836
S315080028A0540B02F047F80400E4B2002C51D150E072
S315080028B0012000F0AFFE002804D0DFF83C0B02F040
S315080028C039FC040045E0022000F0A4FE002804D0EC
S315080028D0DFF8280B02F0EEFD04003AE0032000F0D2
S315080028E099FE00280CD0DFF8780CFFF7B7FE040035
S315080028F0E4B2002C2DD1DFF8080BFFF7F3FE040035
S3150800290027E0042000F086FE00280CD0DFF8900CA3
S3150800291002F0FFF80400E4B2002C1AD1DFF8E40A4A
S3150800292002F076FA040014E0052000F073FE002891
S3150800293005D0DFF8D40A01F037FB040009E00620C9
S3150800294000F068FE002804D0DFF8BC0A00F098FF03
S315080029500400DFF8140D8078401CDFF80C1D887021
S31508002960DFF8040D8078082807DB0020DFF8F81C5C
S3150800297088700020DFF8F01C0870E4B2002C03D041
S315080029802000C0B200F02EBDDFF85C1BDFF85C0B40
S3150800299006F02CFE002824D0012002F0DBFEDFF82A
S315080029A04C1BDFF8440BFFF785FBDFF83C1ADFF812
S315080029B0400BFFF77FFBDFF8300BFFF747FADFF82E
S315080029C0282B0100C9B2082004F0E5FFDFF8200B28
S315080029D0FFF73CFA0100DFF8182BC9B20C2004F007
S315080029E0DAFFDFF8801BDFF8800B06F0FFFD002812
S315080029F024D0012002F0AEFEDFF86C1BDFF8640B72
S31508002A00FFF758FBDFF8E419DFF8980BFFF752FBDE
S31508002A10DFF8500BFFF71AFADFF8482B0100C9B2A6
S31508002A20102004F0B8FFDFF87C0BFFF70FFADFF889
S31508002A30742B0100C9B2142004F0ADFFDFF8681B3F
S31508002A40DFF8680B06F0D2FD002824D0012002F03A
S31508002A5081FEDFF8581BDFF8500BFFF72BFBDFF87A
S31508002A609019DFF8A00BFFF725FBDFF83C0BFFF703
S31508002A70EDF9DFF8342B0100C9B2182004F08BFFFA
S31508002A80DFF8800BFFF7E2F9DFF8782B0100C9B20F
S31508002A901C2004F080FFDFF8701BDFF8700B06F0CF
S31508002AA0A5FD002824D0012002F054FEDFF85C1BA7
S31508002AB0DFF8540BFFF7FEFADFF83819DFF8500B8A
S31508002AC0FFF7F8FADFF8400BFFF7C0F9DFF8382B05
S31508002AD00100C9B2202004F05EFFDFF8340BFFF7CF
S31508002AE0B5F9DFF82C2B0100C9B2242004F053FFF6
S31508002AF0DFF8781BDFF8780B06F078FD002856D04B
S31508002B00012002F027FEDFF8681BDFF8600BFFF7ED
S31508002B10D1FADFF8E418DFF85C0BFFF7CBFADFF839
S31508002B20581BDFF8C80BFFF7C5FADFF8D40BB0F867
S31508002B305600DFF8341BA1F85600DFF8300BFFF714
S31508002B4085F9DFF8282B0100C9B2282004F023FFF5
S31508002B50DFF8200BFFF77AF9DFF8182B0100C9B266
S31508002B602C2004F018FFDFF8840BFFF76FF9DFF865
S31508002B707C2B0100C9B2302004F00DFF54208DF8DB
S31508002B80000000208DF80100DFF8DC0AB0F85600D6
S31508002B908DF80200DFF8D00AB0F8560080B2000AB5
S31508002BA08DF803006A460421C82004F0F4FEDFF815
S31508002BB0541BDFF8540B06F019FD002846D00120F7
S31508002BC002F0C8FDDFF8401BDFF8380BFFF772FA92
S31508002BD0DFF82818DFF8340BFFF76CFADFF8301B3C
S31508002BE0DFF8300BFFF766FADFF82C1BDFF82C0B43
S31508002BF0FFF760FADFF80C0BFFF728F9DFF8042B6C
S31508002C000100C9B25D2004F0C6FEDFF8000BFFF72D
S31508002C101DF9DFF8F82A0100C9B2612004F0BBFEED
S31508002C20DFF8F00AFFF712F9DFF8E82A0100C9B25F
S31508002C30652004F0B0FEDFF8E40AFFF707F9DFF8CD
S31508002C40DC2A0100C9B2692004F0A5FEDFF8D01A13
S31508002C50DFF8D00A06F0CAFC002848D0012002F0A6
S31508002C6079FDDFF8C01ADFF8B80AFFF723FADFF8AC
S31508002C70F018DFF8B40AFFF71DFADFF8840AD0F86F
S31508002C809800DFF8E419C1F89800DFF8940AFFF70E
S31508002C90DDF8DFF88C2A0100C9B2342004F07BFE87
S31508002CA0DFF8840AFFF7D2F8DFF87C2A0100C9B2F8
S31508002CB0382004F070FE50208DF80000DFF8A809CF
S31508002CC0D0F898008DF80300DFF89C09D0F8980032
S31508002CD0000A8DF80200DFF89009D0F89800000C79
S31508002CE08DF801006A460421F42004F054FEDFF84A
S31508002CF03C1ADFF83C0A06F079FC002835D001209A
S31508002D0002F028FDDFF8281ADFF8200AFFF7D2F9C3
S31508002D10DFF8EC16DFF81C0AFFF7CCF9DFF8181A0B
S31508002D20DFF8180AFFF7C6F9DFF8000AFFF78EF88A
S31508002D30DFF8F8290100C9B23C2004F02CFEDFF8C0
S31508002D40F409FFF783F8DFF8EC290100C9B240203F
S31508002D5004F021FEDFF8E409FFF778F8DFF8DC294C
S31508002D600100C9B2442004F016FEDFF8D419DFF8D2
S31508002D70D40906F03BFC002845D0012002F0EAFC05
S31508002D80DFF8C019DFF8B809FFF794F9DFF810186B
S31508002D90DFF8B409FFF78EF9DFF86409B0F8C20066
S31508002DA0DFF8C418A1F8C200DFF89409FFF74EF857
S31508002DB0DFF88C290100C9B2482004F0ECFDDFF8E1
S31508002DC08809FFF743F8DFF880290100C9B24C20CB
S31508002DD004F0E1FD48208DF80000DFF88C08B0F813
S31508002DE0C2008DF80200DFF88008B0F8C20080B291
S31508002DF0000A8DF8010000208DF803006A460321B9
S31508002E00F02004F0C8FDDFF84419DFF8440906F09D
S31508002E10EDFB00283DD0012002F09CFCDFF83019BC
S31508002E20DFF82809FFF746F9DFF8D815DFF824098F
S31508002E30FFF740F9DFF82019DFF82009FFF73AF91C
S31508002E40DFF8BC08B0F8D800DFF81C18A1F8D800DD
S31508002E50DFF8F808FEF7FAFFDFF8F0280100C9B234
S31508002E60502004F098FDDFF8EC08FEF7EFFFDFF8D6
S31508002E70E4280100C9B2542004F08DFDDFF8DC080F
S31508002E80FEF7E4FFDFF8D4280100C9B2582004F0A1
S31508002E9082FDDFF8CC18DFF8CC0806F0A7FB00287F
S31508002EA024D0012002F056FCDFF8B818DFF8B00885
S31508002EB0FFF700F9DFF85015DFF8AC08FFF7FAF866
S31508002EC0DFF89C08FEF7C2FFDFF894280100C9B2B4
S31508002ED07F2004F060FDDFF89008FEF7B7FFDFF803
S31508002EE088280100C9B2832004F055FDDFF87C1854
S31508002EF0DFF87C0806F07AFB002845D0012002F0AE
S31508002F0029FCDFF86C18DFF86408FFF7D3F8DFF858
S31508002F106418DFF86408FFF7CDF8DFF8E407B0F8BF
S31508002F209001DFF84417A1F89001DFF84008FEF792
S31508002F308DFFDFF838280100C9B2872004F02BFD81
S31508002F40DFF83408FEF782FFDFF82C280100C9B243
S31508002F508B2004F020FD54208DF8000001208DF808
S31508002F600100DFF80407B0F890018DF80200DFF8D9
S31508002F70F806B0F8900180B2000A8DF803006A4698
S31508002F800421CC2004F007FDDFF8F017DFF8F0077E
S31508002F9006F02CFB002845D0012002F0DBFBDFF809
S31508002FA0E017DFF8D807FFF785F8DFF8D817DFF856
S31508002FB0D807FFF77FF8DFF84807B0F8A601DFF86B
S31508002FC0A816A1F8A601DFF8B407FEF73FFFDFF859
S31508002FD0AC270100C9B28F2004F0DDFCDFF8A80792
S31508002FE0FEF734FFDFF8A0270100C9B2932004F0EA
S31508002FF0D2FC54208DF8000002208DF80100DFF87D
S315080030006806B0F8A6018DF80200DFF85C06B0F88D
S31508003010A60180B2000A8DF803006A460421D02072
S3150800302004F0B9FCDFF86417DFF8640706F0DEFA87
S31508003030002845D0012002F08DFBDFF85417DFF891
S315080030404C07FFF737F8DFF84C17DFF84C07FFF7A0
S3150800305031F8DFF8AC06B0F8BC01DFF80C16A1F8B9
S31508003060BC01DFF82807FEF7F1FEDFF8202701008C
S31508003070C9B2972004F08FFCDFF81C07FEF7E6FEBE
S31508003080DFF814270100C9B29B2004F084FC542001
S315080030908DF8000004208DF80100DFF8CC05B0F8A3
S315080030A0BC018DF80200DFF8C005B0F8BC0180B29B
S315080030B0000A8DF803006A460421D42004F06BFC4C
S315080030C0DFF8D816DFF8D80606F090FA002845D0BB
S315080030D0012002F03FFBDFF8C816DFF8C006FEF74E
S315080030E0E9FFDFF8C016DFF8C006FEF7E3FFDFF8F2
S315080030F01006B0F8D201DFF87015A1F8D201DFF892
S315080031009C06FEF7A3FEDFF894260100C9B29F20AD
S3150800311004F041FCDFF89006FEF798FEDFF88826F3
S315080031200100C9B2A32004F036FC54208DF8000033
S3150800313004208DF80100DFF83005B0F8D2018DF8CB
S315080031400200DFF82405B0F8D20180B2000A8DF833
S3150800315003006A460421D82004F01DFCDFF84C164B
S31508003160DFF84C0606F042FA002845D0012002F0A6
S31508003170F1FADFF83C16DFF83406FEF79BFFDFF8B6
S315080031803416DFF83406FEF795FFDFF87405B0F855
S31508003190E801DFF8D414A1F8E801DFF81006FEF715
S315080031A055FEDFF808260100C9B2A72004F0F3FB94
S315080031B0DFF80406FEF74AFEDFF8FC250100C9B26F
S315080031C0AB2004F0E8FB54208DF8000005208DF8AC
S315080031D00100DFF89404B0F8E8018DF80200DFF882
S315080031E08804B0F8E80180B2000A8DF803006A4640
S315080031F00421DC2004F0CFFBDFF8C015DFF8C0059A
S3150800320006F0F4F9002845D0012002F0A3FADFF809
S31508003210B015DFF8A805FEF74DFFDFF8A815DFF8AB
S31508003220A805FEF747FFDFF8D804B0F8FE01DFF877
S315080032303814A1F8FE01DFF88405FEF707FEDFF86B
S315080032407C250100C9B2AF2004F0A5FBDFF878059C
S31508003250FEF7FCFDDFF870250100C9B2B32004F0C3
S315080032609AFB54208DF8000006208DF80100DFF83F
S31508003270F803B0F8FE018DF80200DFF8EC03B0F8A9
S31508003280FE0180B2000A8DF803006A460421E02098
S3150800329004F081FBDFF83415DFF8340506F0A6F9EB
S315080032A0002845D0012002F055FADFF82415DFF88A
S315080032B01C05FEF7FFFEDFF81C15DFF81C05FEF7F8
S315080032C0F9FEDFF83C04B0F81402DFF89C13A1F805
S315080032D01402DFF8F804FEF7B9FDDFF8F024010060
S315080032E0C9B2B72004F057FBDFF8EC04FEF7AEFDD1
S315080032F0DFF8E4240100C9B2BB2004F04CFB5420DB
S315080033008DF8000007208DF80100DFF85C03B0F89F
S3150800331014028DF80200DFF85003B0F8140280B2E8
S31508003320000A8DF803006A460421E42004F033FB02
S31508003330DFF8A814DFF8A80406F058F9002842D0E8
S31508003340012002F007FADFF89814DFF89004FEF778
S31508003350B1FEDFF89014DFF89004FEF7ABFEDFF855
S31508003360A003B0F82A02C049A1F82A02DFF86C04C3
S31508003370FEF76CFDDFF864240100C9B2BF2004F033
S315080033800AFBDFF86404FEF761FDDFF85C24010040
S31508003390C9B2C32004F0FFFA54208DF800000820B3
S315080033A08DF80100B048B0F82A028DF80200AE4840
S315080033B0B0F82A0280B2000A8DF803006A46042192
S315080033C0E82004F0E8FAA8484078002808D0002049
S315080033D0A5494870DFF814240C21FC2004F0DBFA18
S315080033E02000C0B204B010BD131D0020221D00200D
S315080033F0321D0020421D0020521D0020681D00209D
S31508003400AC1D0020D41D0020761E002000B585B016
S31508003410022002F09FF9FEF767FDDFF8D403FEF7F6
S31508003420A6FDDFF8D003FEF7C2FDDFF8CC03FEF7F2
S31508003430DFFDDFF8C803FEF7FDFD012002F08AF97B
S31508003440DFF8AC03FEF702FDDFF8A4230100C9B2DA
S315080034506E2004F0A0FA012002F07CF9DFF894034C
S31508003460FEF7F4FCDFF88C230100C9B2722004F0E1
S3150800347092FA012002F06EF9DFF87C03FEF7E6FC0B
S31508003480DFF874230100C9B2762004F084FA01201B
S3150800349002F060F9DFF86403FEF7D8FCDFF85C2376
S315080034A00100C9B27A2004F076FA00F01CF9002867
S315080034B014D153484288501C5149488092B2DFF8CB
S315080034C040136846FFF778F86846FEF7BFFC6A4679
S315080034D00100C9B240F2211004F05DFA022002F0A0
S315080034E047F905B000BD0000471F00201B1D00203E
S315080034F03F1F002080B504F068FA00281FD000207E
S31508003500C049088000F0EFF8002812D0BE480088AD
S31508003510401CBD490880BC48008807281EDB0221DC
S315080035200E2006F09BF80020B749088002F051FCEF
S3150800353014E00020B449088000F0DAF80EE0B1483B
S315080035400088401CAF490880AE480088132805DB70
S3150800355002210D2006F082F802F03BFC01BD0000B6
S31508003560901D0020571F00202B1D00200020A74972
S3150800357008700020A54948700020A4490871002059
S31508003580A249C8700020A149887000209F49487147
S3150800359000209E49887100209C49C8717047000028
S315080035A0C21D00204E1F0020671F00203B1D002063
S315080035B0C0B200280BD002280FD00BD3042812D093
S315080035C00ED3062815D011D3072815D017E08F4A31
S315080035D0117014E08D4A517011E08C4A91700EE01A
S315080035E08A4AD1700BE0894A117108E0874A5171FD
S315080035F005E0864A917102E0844AD171FFE7704777
S315080036006C2A00205E1F0020761F00204A1D00201D
S315080036106E1F00200100C9B200290BD002290FD065
S315080036200BD3042912D00ED3062915D011D3072996
S3150800363015D017E07548007815E07448407812E010
S31508003640724880780FE07148C0780CE06F480079BE
S3150800365009E06E48407906E06C48807903E06B48DB
S31508003660C07900E0002070473C1F00208A1F002018
S315080036705E1D00207E1F0020581D002010B5002466
S315080036800020FFF7C7FF002800D0641C0120FFF7C1
S31508003690C1FF002800D0A41C0220FFF7BBFF0028AA
S315080036A000D0241D0320FFF7B5FF002800D00834FA
S315080036B00420FFF7AFFF002800D010340520FFF7DD
S315080036C0A9FF002800D020340620FFF7A3FF002812
S315080036D000D040340720FFF79DFF002800D0803433
S315080036E0200080B210BD4A4800787047841F002029
S315080036F001204749087070470020454908707047FF
S31508003700101D0020AC1F0020801D0020941F0020E3
S31508003710701D00209C1F0020781D0020A41F00207B
S31508003720C81F00209C1D0020BC1F0020E41F00208D
S31508003730B81D0020D81F0020B21D0020DE1F002063
S31508003740F61F0020CA1D0020EE1F00200C200020B6
S31508003750E01D002000200020DA1D002006200020A1
S31508003760AE200020821E0020A2200020C4200020B7
S31508003770981E00208C1E0020B8200020DA20002089
S31508003780AE1E0020A21E0020CE200020F020002021
S31508003790C41E0020B81E0020E420002006210020B8
S315080037A0DA1E0020CE1E0020FA2000201C21002050
S315080037B0F01E0020E41E00201021002032210020E7
S315080037C0061F0020FA1E002026210020482100207E
S315080037D01C1F0020101F00203C2100205E21002015
S315080037E0321F0020261F0020522100208C150108B8
S315080037F016200020392000205C2000207F20002091
S315080038008C160108C02A0020C22A00205C2A002043
S315080038106C2A002038B50020050000208DF800002D
S31508003820280003009BB26A461221142002F03DF8D4
S315080038300400E4B2002C1FD1642002F03DF9040014
S31508003840E4B2002C02D02000C0B217E0022269467A
S31508003850142002F011F90400E4B2002C09D1642006
S3150800386002F02AF90400E4B2002C05D02000C0B208
S3150800387004E02000C0B201E02000C0B232BD000062
S315080038802DE9F04F85B004000020039000208DF844
S315080038900000039803009BB26A461221142002F026
S315080038A004F80700FFB2002F23D1642002F004F9C0
S315080038B00700FFB2002F02D03800C0B2B9E20222D8
S315080038C06946142002F0D8F80700FFB2002F0DD180
S315080038D0642002F0F1F80700FFB2002F02D038008A
S315080038E0C0B2A6E2FFB2002F69D105E03800C0B227
S315080038F09FE23800C0B29CE29DF801004FF4807147
S315080039009DF8002001FB002082461FFA8AFAD3465A
S315080039100A209BFBF0F005F0EFFE0500DFF85C0CD3
S31508003920290005F083FD05F0FFFB05F0FFFE05F015
S31508003930F5FC0600280005F0F7FBDFF8442CDFF855
S31508003940443C05F019FC0022DFF83C3C05F0DAFDA2
S3150800395002F07EFD8146A682280005F0E5FB0200FE
S315080039600B00DFF8281C2000FEF726FE484605F067
S31508003970DBFB02000B00DFF8181CA01DFEF71CFE7F
S31508003980300080B2020A92B2DFF8081C14F10C006B
S31508003990FEF712FEB6B206F0FF02DFF8F81B01A822
S315080039A0FEF70AFE01A914F10C00FEF71FFEB2A1EC
S315080039B014F10C00FEF71AFE0020804602E03800DB
S315080039C0C0B236E2B8F1080F80F2318200200390C7
S315080039D000208DF80000039803009BB26A4618F190
S315080039E01301C9B2142001F060FF0700FFB2002FCF
S315080039F024D1642002F060F80700FFB2002F02D03D
S31508003A003800C0B215E202226946142002F034F8E2
S31508003A100700FFB2002F0ED1642002F04DF8070010
S31508003A20FFB2002F02D03800C0B202E2FFB2002F68
S31508003A3040F0FA8105E03800C0B2FAE13800C0B2B9
S31508003A40F7E19DF801004FF480719DF8002001FB15
S31508003A50002082461FFA8AFAD3460A209BFBF0F01A
S31508003A6005F04AFE0500DFF8140B290005F0DEFC18
S31508003A7005F05AFB05F05AFE05F050FC0600280032
S31508003A8005F052FBDFF8F82ADFF8F83A05F074FB80
S31508003A900022DFF8F43A05F035FD02F0D9FC81463C
S31508003AA0B8F1000F14D0B8F1020F7AD044D3B8F1A8
S31508003AB0040F00F0E380C0F0A980B8F1060F00F00B
S31508003AC04781C0F01081B8F1070F00F07681A8E1B0
S31508003AD06685280005F028FB02000B00DFF8AC1A03
S31508003AE014F11600FEF768FD484605F01DFB0200B6
S31508003AF00B00DFF89C1A14F11C00FEF75DFD300080
S31508003B0080B2020A92B2DFF88C1A14F12200FEF78C
S31508003B1053FDB6B206F0FF02DFF8781A01A8FEF7E1
S31508003B204BFD01A914F12200FEF760FD52A114F124
S31508003B302200FEF75BFD74E1A4F84060280005F05A
S31508003B40F3FA02000B00DFF8441A14F12C00FEF712
S31508003B5033FD484605F0E8FA02000B00DFF8301A94
S31508003B6014F13200FEF728FD300080B2020A92B244
S31508003B70DFF8201A14F13800FEF71EFDB6B206F07B
S31508003B80FF02DFF8101A01A8FEF716FD01A914F1C5
S31508003B903800FEF72BFD38A114F13800FEF726FD94
S31508003BA03FE1A4F85660280005F0BEFA02000B00B3
S31508003BB0DFF8D81914F14200FEF7FEFC484605F076
S31508003BC0B3FA02000B00DFF8C81914F14800FEF733
S31508003BD0F3FC300080B2020A92B2DFF8B81914F189
S31508003BE04E00FEF7E9FCB6B206F0FF02DFF8A419AC
S31508003BF001A8FEF7E1FC01A914F14E00FEF7F6FC58
S31508003C001DA114F14E00FEF7F1FC0AE1A4F86C6060
S31508003C10280005F089FA02000B00DFF8701914F184
S31508003C205800FEF7C9FC484605F07EFA02000B006C
S31508003C30DFF85C1914F15E00FEF7BEFC300080B2B6
S31508003C40020A92B2DFF84C1914F16400FEF7B4FCCC
S31508003C50B6B206F0FF02DFF83C1901A8FEF7ACFC85
S31508003C6001A914F16400FEF7C1FC03A114F1640074
S31508003C70FEF7BCFCD5E000BF52770000A4F88260CE
S31508003C80280005F051FA02000B00DFF8001914F1BC
S31508003C906E00FEF791FC484605F046FA02000B0056
S31508003CA0DFF8EC1814F17400FEF786FC300080B2D9
S31508003CB0020A92B2DFF8DC1814F17A00FEF77CFCEF
S31508003CC0B6B206F0FF02DFF8CC1801A8FEF774FCBE
S31508003CD001A914F17A00FEF789FC57A114F17A00BC
S31508003CE0FEF784FC9DE0A4F89860280005F01CFA0D
S31508003CF002000B00DFF8941814F18400FEF75CFC50
S31508003D00484605F011FA02000B00DFF8841814F192
S31508003D108A00FEF751FC300080B2020A92B2DFF840
S31508003D20741814F19000FEF747FCB6B206F0FF02CD
S31508003D30DFF8601801A8FEF73FFC01A914F190000E
S31508003D40FEF754FC3CA114F19000FEF74FFC68E026
S31508003D50A4F8AE60280005F0E7F902000B00DFF8CA
S31508003D602C1814F19A00FEF727FC484605F0DCF9F2
S31508003D7002000B00DFF8181814F1A000FEF71CFC6F
S31508003D80300080B2020A92B2DFF8081814F1A600D1
S31508003D90FEF712FCB6B206F0FF02DFF8F81701A824
S31508003DA0FEF70AFC01A914F1A600FEF71FFC22A1E2
S31508003DB014F1A600FEF71AFC33E0A4F8C460280044
S31508003DC005F0B2F902000B00DFF8C01714F1B000D5
S31508003DD0FEF7F2FB484605F0A7F902000B00DFF8EC
S31508003DE0B01714F1B600FEF7E7FB300080B2020AFE
S31508003DF092B2DFF8A01714F1BC00FEF7DDFBB6B2ED
S31508003E0006F0FF02DFF88C1701A8FEF7D5FB01A91B
S31508003E1014F1BC00FEF7EAFB07A114F1BC00FEF79B
S31508003E20E5FB18F10108CDE53800C0B201E038001D
S31508003E30C0B205B0BDE8F08F5277000038B5002053
S31508003E4004000120050000208DF8000000208DF8F0
S31508003E500100280003009BB26A460021D02001F029
S31508003E6024FD0400E4B2002C1ED1642001F024FED7
S31508003E700400E4B2002C02D02000C0B248E00120C1
S31508003E80050001208DF8000000208DF801002800AB
S31508003E9003009BB26A460221D02001F006FD040009
S31508003EA0E4B2002C22D102E02000C0B230E0642047
S31508003EB001F002FE0400E4B2002C02D02000C0B2D9
S31508003EC026E00120050020208DF8000000208DF84E
S31508003ED00100280003009BB26A460721D02001F0A2
S31508003EE0E4FC0400E4B2002C10D102E02000C0B2C9
S31508003EF00EE0642001F0E0FD0400E4B2002C02D0DC
S31508003F002000C0B204E02000C0B201E02000C0B228
S31508003F1032BD38B5012005003F208DF8000000208D
S31508003F208DF80100280003009BB26A460121D020C3
S31508003F3001F0BBFC0400E4B2002C22D1642001F09D
S31508003F40BBFD0400E4B2002C02D02000C0B22AE077
S31508003F504FF47A7001F0CDFD0120050000208DF8A0
S31508003F60000000208DF80100280003009BB26A4675
S31508003F700121D02001F099FC0400E4B2002C10D1F4
S31508003F8002E02000C0B20EE0642001F095FD0400B6
S31508003F90E4B2002C02D02000C0B204E02000C0B277
S31508003FA001E02000C0B232BD2DE9F04F89B004000F
S31508003FB00020029000208DF80C00029803009BB2A6
S31508003FC003AA0E21D02001F070FC0700FFB2002FD3
S31508003FD024D1642001F070FD0700FFB2002F02D043
S31508003FE03800C0B2C5E2022203A9D02001F044FD80
S31508003FF00700FFB2002F0ED1642001F05DFD070017
S31508004000FFB2002F02D03800C0B2B2E2FFB2002FD2
S3150800401040F07F8005E03800C0B2AAE23800C0B29E
S31508004020A7E29DF80D004FF480719DF80C2001FB66
S31508004030002082465FEA0A5007D51FFA8AFADFF897
S31508004040580550EA0A00834602E01FFA8AFAD34660
S31508004050584602F06DF90022DFF8403505F08CF875
S3150800406002F0F6F906003000DFF8341505F080FB9B
S3150800407001D896F00046DFF80405310005F0D6F9B8
S3150800408005F052F805F052FB05F048F90500300036
S3150800409005F04AF8DFF8E824DFF8E83405F06CF8AC
S315080040A00022DFF8E43405F02DFA02F0D1F9814652
S315080040B0A582300005F038F802000B00DFF8CC14B2
S315080040C02000FEF779FA484605F02EF802000B00A4
S315080040D0DFF8BC14A01DFEF76FFA280080B2020AAA
S315080040E092B2DFF8B01414F10C00FEF765FAADB21F
S315080040F005F0FF02DFF89C146846FEF75DFA69468C
S3150800410014F10C00FEF772FA9CA114F10C00FEF7EC
S315080041106DFA0020029000208DF80C00029803002A
S315080041209BB203AAC021D02001F0BFFB0700FFB253
S31508004130002F24D1642001F0BFFC0700FFB2002F36
S3150800414002D03800C0B214E2102203A9D02001F030
S3150800415093FC0700FFB2002F0ED1642001F0ACFCDF
S315080041600700FFB2002F02D03800C0B201E2FFB24A
S31508004170002F40F0FC8105E03800C0B2F9E13800B4
S31508004180C0B2F6E100208046B8F1080F80F2EF8150
S3150800419003A800EB480040784FF4807103AA12F890
S315080041A0182001FB002082465FEA0A5007D51FFA4D
S315080041B08AFADFF8E40350EA0A00834602E01FFAA7
S315080041C08AFAD346584602F0B3F80022DFF8D43309
S315080041D004F0D2FF02F03CF906005FEA4A5007D520
S315080041E01FFA8AFADFF8C00350EA0A00834602E09B
S315080041F01FFA8AFAD346E148310005F017F904F0A8
S3150800420093FF05F093FA05F089F80500300004F0ED
S315080042108BFFDB4ADB4B04F0AFFF0022DA4B05F0DD
S3150800422071F902F015F98146B8F1000F14D0B8F10A
S31508004230020F72D040D3B8F1040F00F0D280C0F05C
S315080042409F80B8F1060F00F02E81C0F0FB80B8F110
S31508004250070F00F0598187E16585300004F064FF97
S3150800426002000B00C94914F11600FEF7A5F94846E5
S3150800427004F05AFF02000B00C54914F11C00FEF7B2
S315080042809BF9280080B2020A92B2C24914F12200B0
S31508004290FEF792F9ADB205F0FF02BE496846FEF791
S315080042A08BF9694614F12200FEF7A0F933A114F13F
S315080042B02200FEF79BF957E1A4F84050300004F0BD
S315080042C033FF02000B00B14914F12C00FEF774F914
S315080042D0484604F029FF02000B00AD4914F13200EC
S315080042E0FEF76AF9280080B2020A92B2A94914F1C7
S315080042F03800FEF761F9ADB205F0FF02A549684638
S31508004300FEF75AF9694614F13800FEF76FF91BA152
S3150800431014F13800FEF76AF926E1A4F85650300081
S3150800432004F002FF02000B00984914F14200FEF760
S3150800433043F9484604F0F8FE02000B00944914F1CC
S315080043404800FEF739F9280080B2020A92B291496C
S3150800435014F14E00FEF730F9ADB205F0FF028D49B3
S315080043606846FEF729F9694614F14E00FEF73EF94C
S3150800437002A114F14E00FEF739F9F5E05277000074
S31508004380A4F86C50300004F0CFFE02000B007F4901
S3150800439014F15800FEF710F9484604F0C5FE02006D
S315080043A00B007B4914F15E00FEF706F9280080B27F
S315080043B0020A92B2774914F16400FEF7FDF8ADB22D
S315080043C005F0FF0273496846FEF7F6F8694614F1E8
S315080043D06400FEF70BF968A114F16400FEF706F90C
S315080043E0C2E0A4F88250300004F09EFE02000B00E2
S315080043F0664914F16E00FEF7DFF8484604F094FEAD
S3150800440002000B00624914F17400FEF7D5F8280083
S3150800441080B2020A92B25F4914F17A00FEF7CCF82C
S31508004420ADB205F0FF025B496846FEF7C5F8694676
S3150800443014F17A00FEF7DAF84FA114F17A00FEF7C4
S31508004440D5F891E0A4F89850300004F06DFE02000B
S315080044500B004E4914F18400FEF7AEF8484604F006
S3150800446063FE02000B004A4914F18A00FEF7A4F81D
S31508004470280080B2020A92B2464914F19000FEF76B
S315080044809BF8ADB205F0FF0242496846FEF794F87C
S31508004490694614F19000FEF7A9F837A114F19000C7
S315080044A0FEF7A4F860E0A4F8AE50300004F03CFE35
S315080044B002000B00354914F19A00FEF77DF84846CC
S315080044C004F032FE02000B00314914F1A000FEF799
S315080044D073F8280080B2020A92B22E4914F1A60097
S315080044E0FEF76AF8ADB205F0FF022A496846FEF7FC
S315080044F063F8694614F1A600FEF778F81EA114F1D0
S31508004500A600FEF773F82FE0A4F8C450300004F0B4
S315080045100BFE02000B001D4914F1B000FEF74CF823
S31508004520484604F001FE02000B00194914F1B600D2
S31508004530FEF742F8280080B2020A92B2154914F131
S31508004540BC00FEF739F8ADB205F0FF02114968461E
S31508004550FEF732F8694614F1BC00FEF747F806A1E3
S3150800456014F1BC00FEF742F818F101080CE6380011
S31508004570C0B209B0BDE8F08F5277000000002041B4
S31508004580CDCCCCCCCCCCFC3F000040404C1701082D
S31508004590541701085C17010800F8FFFF0000B03F38
S315080045A0010080440000D03F00FCFFFF7CB50020DE
S315080045B00500012D2CDA00200400200003009BB220
S315080045C001AA0521822001F070F90600322001F0C7
S315080045D090FAF6B2002E19D1642001F06DFA0600A1
S315080045E0F6B2002E12D1022201A9822001F044FA65
S315080045F00600322001F07DFAF6B2002E06D16420BC
S3150800460001F05AFA0600F6B2002E01D06D1CD0E76A
S31508004610012D02DB3000C0B222E09DF8040010280C
S3150800462005D19DF80500622801D1002018E0322046
S3150800463001F05FFA0220040010208DF804006220C1
S315080046408DF805004FF4FA700090200003009BB225
S3150800465001AA0521822001F05CF906003000C0B2EB
S3150800466076BD2DE9F04184B0040000200600002044
S315080046700600012E26DA00200500280003009BB25A
S315080046806A460121822001F010F90700FFB2002FC7
S3150800469016D1642001F010FA0700FFB2002F0FD1DF
S315080046A002226946822001F0E7F90700FFB2002FCF
S315080046B006D1642001F000FA0700FFB2002F01D0EE
S315080046C0761CD6E7012E02DB3800C0B23CE0FFB20A
S315080046D0002F37D19DF80020D54914F10800FDF7C1
S315080046E06BFF9DF80120D24901A8FDF765FF01A9D6
S315080046F014F10800FDF77AFF8DA114F10800FDF703
S3150800470075FF9DF800004FF480719DF8012001FBAC
S31508004710002001F00DFEC74AC74B04F02DFD00220C
S31508004720C64B04F029FD01F093FE8046404604F08E
S31508004730FBFC02000B00C2492000FDF73DFF3800D4
S31508004740C0B201E03800C0B204B0BDE8F0812DE97E
S31508004750F04184B004000020060000200600012E67
S3150800476026DA00200500280003009BB26A460421C9
S31508004770822001F09AF80700FFB2002F16D16420B4
S3150800478001F09AF90700FFB2002F0FD102226946FD
S31508004790822001F071F90700FFB2002F06D16420CC
S315080047A001F08AF90700FFB2002F01D0761CD6E780
S315080047B0012E02DB3800C0B23CE0FFB2002F37D131
S315080047C09DF800209A4914F10900FDF7F5FE9DF8B9
S315080047D00120974901A8FDF7EFFE01A914F1090088
S315080047E0FDF704FF52A114F10900FDF7FFFE9DF83D
S315080047F000004FF480719DF8012001FB002001F0B4
S3150800480097FD904A904B04F0B7FC00228B4B04F0BE
S31508004810B3FC01F01DFE8046404604F085FC02000C
S315080048200B008A492000FDF7C7FE3800C0B201E038
S315080048303800C0B204B0BDE8F0812DE9F04184B07B
S3150800484004000020060000200600012E26DA0020BB
S315080048500500280003009BB26A460321822001F066
S3150800486024F80700FFB2002F16D1642001F024F9BE
S315080048700700FFB2002F0FD102226946822001F0FD
S31508004880FBF80700FFB2002F06D1642001F014F9E7
S315080048900700FFB2002F01D0761CD6E7012E02DBF7
S315080048A03800C0B240E0FFB2002F3BD19DF800208F
S315080048B05F4914F10900FDF77FFE9DF801205C4968
S315080048C001A8FDF779FE01A914F10900FDF78EFE8E
S315080048D017A114F10900FDF789FE9DF800004FF4B1
S315080048E080719DF8012001FB002001F021FD584A46
S315080048F0584B04F041FC0022574B04F03DFC0022C3
S315080049004E4B04F039FC01F0A3FD8046404604F006
S315080049100BFC02000B0051492000FDF74DFE380044
S31508004920C0B201E03800C0B204B0BDE8F0810000B2
S31508004930527700002DE9F04184B0040000200600FB
S3150800494000200600012E26DA0020050028000300B4
S315080049509BB26A460221822000F0A7FF0700FFB239
S31508004960002F16D1642001F0A7F80700FFB2002F28
S315080049700FD102226946822001F07EF80700FFB2B5
S31508004980002F06D1642001F097F80700FFB2002F28
S3150800499001D0761CD6E7012E02DB3800C0B23FE014
S315080049A0FFB2002F3AD19DF80020214914F10800E2
S315080049B0FDF702FE9DF801201D4901A8FDF7FCFD43
S315080049C001A914F10800FDF711FE17A114F108005A
S315080049D0FDF70CFE15A101A8FDF708FE9DF80000DD
S315080049E04FF480719DF8012001FB0020042190FB03
S315080049F0F1F001F09DFC1A4A1A4B04F0BDFB01F0D8
S31508004A0027FD8046404604F08FFB02000B0016493E
S31508004A102000FDF7D1FD3800C0B201E03800C0B271
S31508004A2004B0BDE8F0810000527700000D0A0000CE
S31508004A30DC170108F168E388B5F8E43E00408F40CA
S31508004A40E4170108C41D519C0100303FEC1701080A
S31508004A50CDAD41134B62B03E0088C340F417010840
S31508004A60FCA9F1D24D62703FFC17010838B5012048
S31508004A70050005208DF8000000208DF801002800AB
S31508004A8003009BB26A461021BE2000F00EFF040008
S31508004A90E4B2002C0DD1642001F00EF80400E4B253
S31508004AA0002C02D02000C0B232E0E4B2002C03D1C0
S31508004AB005E02000C0B22BE02000C0B228E00320A9
S31508004AC0050081208DF8000000208DF801000020E7
S31508004AD08DF8020000208DF80300280003009BB221
S31508004AE06A46A021BE2000F0E0FE0400E4B2002CD5
S31508004AF00CD1642000F0E0FF0400E4B2002C02D0E0
S31508004B002000C0B204E02000C0B201E02000C0B21C
S31508004B1032BD2DE9F04F85B00400002005000020C5
S31508004B20804600208DF80000404603009BB26A4686
S31508004B30B021BE2000F0B9FE0500EDB2002D3ED131
S31508004B40642000F0B9FF0500EDB2002D02D0280060
S31508004B50C0B257E102226946BE2000F08DFF05006B
S31508004B60EDB2002D28D1642000F0A6FF0500EDB2B5
S31508004B70002D02D02800C0B244E19DF80000C0B262
S31508004B804008C0B281469DF80100C0B24008C0B2D4
S31508004B90ADF806000020804600208DF8000040464B
S31508004BA003009BB26A46B621BE2000F07EFE0500D1
S31508004BB0EDB2002D3FD105E02800C0B222E1280061
S31508004BC0C0B21FE1642000F077FF0500EDB2002DAA
S31508004BD002D02800C0B215E102226946BE2000F0C4
S31508004BE04BFF0500EDB2002D22D1642000F064FFD2
S31508004BF00500EDB2002D02D02800C0B202E19DF8F2
S31508004C0001009DF8001051EA0020824600208046E7
S31508004C1000208DF80000404603009BB26A46BA2180
S31508004C20BE2000F042FE0500EDB2002D40D105E0A1
S31508004C302800C0B2E6E02800C0B2E3E0642000F035
S31508004C403BFF0500EDB2002D02D02800C0B2D9E026
S31508004C5002226946BE2000F00FFF0500EDB2002DC6
S31508004C6023D1642000F028FF0500EDB2002D02D004
S31508004C702800C0B2C6E09DF801009DF8001051EA70
S31508004C800020ADF80A000020804600208DF80000BC
S31508004C90404603009BB26A46A821BE2000F005FEE6
S31508004CA00500EDB2002D66D105E02800C0B2A9E0E6
S31508004CB02800C0B2A6E0642000F0FEFE0500EDB2B2
S31508004CC0002D02D02800C0B29CE002226946BE2010
S31508004CD000F0D2FE0500EDB2002D49D1642000F0A7
S31508004CE0EBFE0500EDB2002D02D02800C0B289E027
S31508004CF09DF801009DF8001051EA0020ADF8080063
S31508004D00BDF908000FFA8AFAB0EB0A0004F0F4FCC1
S31508004D108346BDF906000FFA89F9B0EB090004F0DD
S31508004D20EBFCDFF8E01304F081FB594604F07EFB48
S31508004D300600BDF90A000FFA8AFAB0EB0A0004F079
S31508004D40DBFC0100300004F025FD06000FFA89F9A6
S31508004D500A2000FB09F004F0CFFC310004F098FDAE
S31508004D6006003000DFF8A01304F002FD09D805E0BC
S31508004D702800C0B246E02800C0B243E0DFF88C0342
S31508004D800600300001F0ACFB20823000DD4904F05B
S31508004D9001FD04F0C9F902000B00DD492000FDF70A
S31508004DA00BFC208A80B2020A92B2DA4914F1080092
S31508004DB0FDF702FC207C00F0FF02D64903A8FDF7A8
S31508004DC0FBFB03A914F10800FDF710FC0FA114F171
S31508004DD00800FDF70BFC3000CA4904F0DBFCCE499D
S31508004DE004F056FD0700CD48390004F01FFB070004
S31508004DF0380001F075FBADF80400BDF80400208208
S31508004E002800C0B205B0BDE8F08F00005277000058
S31508004E102DE9F04F89B004000020050000208146E6
S31508004E2000208DF81000484603009BB204AAB22160
S31508004E30BE2000F03AFD0500EDB2002D31D1642008
S31508004E4000F03AFE0500EDB2002D02D02800C0B2EF
S31508004E5053E102226946BE2000F00EFE0500EDB2BF
S31508004E60002D1BD1642000F027FE0500EDB2002DB1
S31508004E7002D02800C0B240E10020814600208DF80B
S31508004E801000484603009BB204AAB521BE2000F0D4
S31508004E900CFD0500EDB2002D55D105E02800C0B285
S31508004EA02BE12800C0B228E1642000F005FE0500C9
S31508004EB0EDB2002D02D02800C0B21EE1012201A9E0
S31508004EC0BE2000F0D9FD0500EDB2002D38D16420D2
S31508004ED000F0F2FD0500EDB2002D02D02800C0B2A8
S31508004EE00BE19DF8040010F003009DF8001051EA4C
S31508004EF00020ADF80A009DF8040010F00C009DF89B
S31508004F00011051EA8010ADF80800BDF90A00C0107A
S31508004F108246BDF90800C010ADF80600002081469B
S31508004F2000208DF81000484603009BB204AABC2155
S31508004F30BE2000F0BAFC0500EDB2002D48D105E010
S31508004F402800C0B2D9E02800C0B2D6E0642000F03C
S31508004F50B3FD0500EDB2002D02D02800C0B2CCE0AA
S31508004F6004226946BE2000F087FD0500EDB2002D3B
S31508004F702BD1642000F0A0FD0500EDB2002D02D073
S31508004F802800C0B2B9E09DF801009DF8001051EA6A
S31508004F90002083469DF803009DF8021051EA002080
S31508004FA0ADF80E000020814600208DF81000484616
S31508004FB003009BB204AAAA21BE2000F076FC0500D5
S31508004FC0EDB2002D40F0978005E02800C0B294E0CD
S31508004FD02800C0B291E0642000F06EFD0500EDB235
S31508004FE0002D02D02800C0B287E002226946BE2002
S31508004FF000F042FD0500EDB2002D79D1642000F0E5
S315080050005BFD0500EDB2002D02D02800C0B274E0A9
S315080050109DF801009DF8001051EA0020ADF80C003B
S31508005020BDF90C000FFA8BFBB0EB0B00BDF90610AF
S315080050300FFA8AFAB1EB0A0148430A2148430600E7
S31508005040BDF90E000FFA8BFBB0EB0B00B6FBF0F0C8
S315080050500FFA8AFA0A2101FB0A0630008046300058
S3150800506004F054FB07003800264904F093FB0700B8
S31508005070380004F059F82A4A2A4B04F07DF8002231
S31508005080294B04F03FFA01F0E3F90690A4F81480DE
S31508005090380004F049F802000B0024492000FDF707
S315080050A08BFA069804F040F802000B002049A01D70
S315080050B0FDF782FA404680B2020A92B2154914F107
S315080050C00C00FDF779FA1FFA88F808F0FF02114973
S315080050D007A8FDF771FA07A914F10C00FDF786FA7F
S315080050E007A114F10C00FDF781FA2800C0B204E00C
S315080050F02800C0B201E02800C0B209B0BDE8F08FB0
S31508005100527700000000204101007A4400007A44EA
S31508005110641701086C1701080000C040000003442A
S31508005120CDCCCCCCCCCCFC3F000040407417010859
S315080051307C1701082DE9FE4F040000208346002055
S315080051408DF80000584603009BB26A460021942059
S3150800515000F0ABFB0700FFB2002F23D1642000F05C
S31508005160ABFC0700FFB2002F02D03800C0B282E0C5
S3150800517002226946942000F07FFC0700FFB2002F48
S315080051800DD1642000F098FC0700FFB2002F02D072
S315080051903800C0B26FE0FFB2002F6AD105E03800D0
S315080051A0C0B268E03800C0B265E09DF800004FF470
S315080051B080719DF8012001FB002040110600700552
S315080051C004D5B6B22E483043814601E0B6B2B146A0
S315080051D0484601F0ADF800225FF07F5303F0CCFF9C
S315080051E001F036F980462748414604F01FF903F0D6
S315080051F09BFF04F09BFA04F091F80500404603F083
S3150800520093FF214A214B03F0B7FF0022204B04F0FD
S3150800521079F901F01DF98246A582404603F084FF1C
S3150800522002000B001B492000FDF7C6F9504603F0A3
S315080052307BFF02000B001849A01DFDF7BDF92800E9
S3150800524080B2020A92B2154914F10C00FDF7B4F9BE
S31508005250ADB205F0FF02114901A8FDF7ADF901A9A4
S3150800526014F10C00FDF7C2F904A114F10C00FDF7C6
S31508005270BDF93800C0B2BDE8FE8F00BF5277000006
S3150800528000FCFFFF00002041CDCCCCCCCCCCFC3FB1
S3150800529000004040C4170108CC170108D4170108BC
S315080052A038B5032005001D208DF8000000208DF874
S315080052B0010000208DF80200280003009BB26A4610
S315080052C00121882000F0F1FA0400E4B2002C0CD188
S315080052D0642000F0F1FB0400E4B2002C02D02000A8
S315080052E0C0B204E02000C0B201E02000C0B232BD66
S315080052F070B582B004000320060020788DF80000FF
S3150800530060788DF80100A0788DF80200300003005F
S315080053109BB26A460121882000F0C7FA0500EDB263
S31508005320002D0CD1642000F0C7FB0500EDB2002D5E
S3150800533002D02800C0B204E02800C0B201E028006C
S31508005340C0B276BD38B50120050046208DF80000AC
S31508005350280003009BB26A460021882000F0A5FABF
S315080053600400E4B2002C0CD1642000F0A5FB040074
S31508005370E4B2002C02D02000C0B204E02000C0B283
S3150800538001E02000C0B232BD70B582B00400002032
S31508005390060000208DF80000300003009BB26A4624
S315080053A00021882000F081FA0500EDB2002D23D1F6
S315080053B0642000F081FB0500EDB2002D02D0280024
S315080053C0C0B22BE001226946882000F055FB050093
S315080053D0EDB2002D0DD1642000F06EFB0500EDB294
S315080053E0002D02D02800C0B218E0EDB2002D13D16E
S315080053F005E02800C0B211E02800C0B20EE09DF812
S31508005400000020709DF800207449601CFDF7D4F850
S3150800541070A1601CFDF7EAF82800C0B276BD70B529
S3150800542082B004000020060000208DF8000030003D
S3150800543003009BB26A460821882000F036FA050068
S31508005440EDB2002D23D1642000F036FB0500EDB245
S31508005450002D02D02800C0B22BE001226946882020
S3150800546000F00AFB0500EDB2002D0DD1642000F016
S3150800547023FB0500EDB2002D02D02800C0B218E0CB
S31508005480EDB2002D13D105E02800C0B211E02800C6
S31508005490C0B20EE09DF8000020709DF800204F492C
S315080054A0601CFDF789F84BA1601CFDF79FF82800E2
S315080054B0C0B276BD2DE9FF410400002080460020D9
S315080054C08DF80000404603009BB26A4609218820F1
S315080054D000F0EBF90500EDB2002D23D1642000F0B1
S315080054E0EBFA0500EDB2002D02D02800C0B26EE03E
