S02E0000526F616420426F61726420526576204D2E3520424153454C494E4520446563203920323031362E737265637A
S3150800000050110020F5230108792601087D260108EC
S3150800001081260108852601088926010800000000B6
S31508000020000000000000000000000000B7090108F9
S315080000308D2601080000000065090108390A010833
S31508000040919B000891260108952601089926010822
S315080000509D260108A1260108A5260108A92601084A
S31508000060AD260108B1260108B5260108410A01088E
S31508000070B9260108BD260108C1260108C5260108BA
S31508000080C9260108CD260108D1260108D52601086A
S315080000904B0A0108D9260108DD260108E1260108D0
S315080000A0E5260108E9260108ED260108F1260108DA
S315080000B0870A0108910A0108550A0108730A010806
S315080000C07D0A0108F5260108F9260108FD2601081A
S315080000D00127010805270108690A01085F0A0108BE
S315080000E0092701080D27010811270108A93000086A
S315080000F01527010800000000192701081D27010817
S315080001002127010825270108292701082D27010885
S3150800011031270108352701083927010800000000A2
S315080001203D2701082DE9F04FADF5317D040020008B
S3150800013001F072FF0500DFF8040E0078002820D0D1
S3150800014020781B2817D10020DFF8F01D0870DFF88B
S31508000150F01D10A801F080FF10A9002002F054F845
S3150800016082465FFA8AFABAF1000F01F071865046A4
S31508000170C0B201F06FBE2100012002F0CBFB01F0F6
S3150800018067BE207830282FD031283CD0322860D05E
S31508000190332800F08480342800F0A780352800F042
S315080001A0CA80362800F01F81412800F0278142289E
S315080001B000F05B82432800F06E84442800F0FA853C
S315080001C0452800F03B87462800F03F87472800F07F
S315080001D04D87482800F0BB87502801F071825428C3
S315080001E001F08B8201F0B3BD02F03EFD82465FFA54
S315080001F08AFABAF1000F04D1DFF89C1D10A801F0A5
S315080002002BFF01F0A8BD8FA802F071FD8246DFF82A
S315080002108C1D10A801F020FF10A9002001F0F4FFA2
S3150800022082465FFA8AFABAF1000F03D05046C0B286
S3150800023001F010BEDFF8681D10A802F0FBFD8FA9BB
S3150800024010A802F011FED2A110A802F00DFE01F0CE
S3150800025082BD8FA802F06BFD8246DFF8FC1D10A850
S3150800026001F0FAFE10A9002001F0CEFF82465FFADF
S315080002708AFABAF1000F03D05046C0B201F0EABDBF
S31508000280DFF8D81D10A802F0D5FD8FA910A802F036
S31508000290EBFDBFA110A802F0E7FD01F05CBD8FA839
S315080002A002F066FD8246DFF8B81D10A801F0D4FEFC
S315080002B010A9002001F0A8FF82465FFA8AFABAF16F
S315080002C0000F03D05046C0B201F0C4BDDFF8941D3C
S315080002D010A802F0AFFD8FA910A802F0C5FDACA1C9
S315080002E010A802F0C1FD01F036BD8FA802F062FD2C
S315080002F08246DFF8741D10A801F0AEFE10A9002092
S3150800030001F082FF82465FFA8AFABAF1000F03D03B
S315080003105046C0B201F09EBDDFF8EC1D10A802F0F1
S3150800032089FD8FA910A802F09FFD99A110A802F0D7
S315080003309BFD01F010BD02F06FFC3B90DFF8CC1D71
S3150800034010A801F089FE8FA802F0D1FC824610A9F8
S31508000350002001F059FF82465FFA8AFABAF1000FC7
S3150800036003D05046C0B201F075BD00208146BAA13F
S3150800037010A802F05FFD00208346BBF1800F2BDA40
S315080003803B9810F80B20DFF88C1D0AA802F052FDE6
S315080003900AA910A802F068FD19F10109B9F1100FB0
S315080003A017DB7BA110A802F05FFD0020814610A98B
S315080003B0002001F029FF82465FFA8AFABAF1000F97
S315080003C003D05046C0B201F045BDA3A110A802F063
S315080003D031FD1BF1010BD0E7DFF83C1D10A802F038
S315080003E029FD01F0B8BC0020824602F005FDDFF8C1
S315080003F02C1D10A801F030FE01F0ADBCEDB2012DA8
S3150800040000F03181607836282FD0382800F0A48093
S31508000410392800F00A81492840F0208102F032FD8F
S3150800042082465FFA8AFABAF1000F05D1DFF8F81D9D
S3150800043010A801F011FE17E0DFF8F01D10A801F072
S315080004400BFE8DF834A010A9002001F0DDFE8246CF
S315080004505FFA8AFABAF1000F03D05046C0B201F02B
S31508000460F9BC9DF834008246FDE098A802F034FDF8
S3150800047082465FFA8AFABAF1000F54D1DFF80C1EE9
S3150800048010A801F0E9FD10A9002001F0BDFE824682
S315080004905FFA8AFABAF1000F03D05046C0B201F0EB
S315080004A0D9BCDFF8EC1D10A802F0C4FC10A9002086
S315080004B001F0AAFE82465FFA8AFABAF1000F03D063
S315080004C05046C0B201F0C6BCDFF8C81D10A802F03D
S315080004D0B1FC98A910A802F0C7FC2DA110A802F03B
S315080004E0C3FC10A9002001F08FFE82465FFA8AFA43
S315080004F0BAF1000F03D05046C0B201F0ABBCDFF82A
S31508000500981D10A802F096FC9BA910A802F0ACFC56
S315080005109E9ADFF8881D0AA802F08CFC0AA910A882
S3150800052002F0A2FC17E0DFF8041E10A801F094FD03
S315080005308DF834A010A9002001F066FE82465FFA05
S315080005408AFABAF1000F03D05046C0B201F082BC55
S315080005509DF83400824686E031A802F001FD824605
S315080005605FFA8AFABAF1000F2DD1DFF8C41D10A878
S3150800057001F072FD10A9002001F046FE82465FFADE
S315080005808AFABAF1000F05D05046C0B201F062BC33
S315080005900D0A0000DFF8E41D10A802F04BFC0DF16F
S315080005A0D20110A802F060FCB8A110A802F05CFC09
S315080005B010A9002001F028FE82465FFA8AFABAF1ED
S315080005C0000F01D104E04EE05046C0B201F042BC33
S315080005D0BDF8DA20DFF8F01D10A802F02BFC10A9F0
S315080005E0002001F011FE82465FFA8AFABAF1000F7E
S315080005F003D05046C0B201F02DBCDFF8D01D10A8BC
S3150800060002F018FC31A910A802F02EFCDFF8C01D74
S3150800061010A802F029FC0DF1CB0110A802F024FC69
S315080006209AA110A802F020FC1DE002F001FD824606
S315080006305FFA8AFABAF1000F05D1DFF8DC1D10A8B7
S3150800064001F00AFD06E0DFF8D41D10A801F004FD4C
S315080006500020824607E000BF00000000DFF8C01D4A
S3150800066010A801F0F9FC01F076BBEDB2012D40F0BF
S31508000670F580052003F0A2FB002804D045A804F065
S31508000680ADF882460BE0062003F098FB002804D05C
S3150800069045A803F00FFD824601E0012082465FFA75
S315080006A08AFABAF1000F40F0D780DFF8E01D10A8EB
S315080006B001F0D2FC10A9002001F0A6FD82465FFADF
S315080006C08AFABAF1000F03D05046C0B201F0C2BB95
S315080006D000208346BBF1090F80F2AB80BBF1000F07
S315080006E010D0BBF1020F2BD01BD3BBF1040F45D0A2
S315080006F035D3BBF1060F5FD04FD3BBF1080F79D0C6
S3150800070069D385E0BDF82A01019046A8C01C00906F
S3150800071045AB0DF59172DFF87C1D10A802F08AFB37
S3150800072076E0BDF8420101904CA8C01C00904BAB86
S315080007300DF59D72DFF8041E10A802F07BFB67E03A
S31508000740BDF85A01019052A8C01C009051AB0DF596
S31508000750A972DFF8EC1D10A802F06CFB58E0BDF892
S315080007607201019058A8C01C009057AB0DF5B572E0
S31508000770DFF8D01D10A802F05DFB49E0BDF88A013C
S3150800078001905EA8C01C00905DAB0DF5C172DFF844
S31508000790B81D10A802F04EFB3AE0BDF8A201019080
S315080007A064A8C01C009063AB0DF5CD72DFF89C1DE4
S315080007B010A802F03FFB2BE0BDF8BA0101906AA829
S315080007C0C01C009069AB0DF5D972DFF8841D10A81E
S315080007D002F030FB1CE0BDF8D201019070A8C01CE5
S315080007E000906FAB0DF5E572DFF8681D10A802F0F2
S315080007F021FB0DE0BDF8EA01019076A8C01C009027
S3150800080075AB0DF5F172DFF8501D10A802F012FB5A
S3150800081010A9002001F0F8FC82465FFA8AFABAF1BC
S31508000820000F03D05046C0B201F014BB1BF1010BF8
S3150800083050E7DFF8281D10A802F0FCFA39A910A81D
S3150800084002F012FB11A110A802F00EFBDFF8101D32
S3150800085010A802F0EFFA1CE101F07DBA60783028A2
S3150800086016D0312800F00881492840F0128103F09B
S31508000870FFFE82465FFA8AFABAF1000F04D1DFF862
S31508000880E41C10A801F0E8FB03E100BF0D0A000014
S31508000890052003F093FA002804D045A803F09EFF2C
S315080008A082460BE0062003F089FA002804D045A802
S315080008B003F000FC824601E0012082465FFA8AFACC
S315080008C0BAF1000F40F0D780DFF8C01B10A801F07E
S315080008D0C3FB10A9002001F097FC82465FFA8AFA4A
S315080008E0BAF1000F03D05046C0B201F0B3BA0020E7
S315080008F08346BBF1090F80F2AB80BBF1000F10D025
S31508000900BBF1020F2BD01BD3BBF1040F45D035D357
S31508000910BBF1060F5FD04FD3BBF1080F79D069D36F
S3150800092085E0BDF82A01019046A8C01C009045AB99
S315080009300DF59172DFF85C1B10A802F07BFA76E0E1
S31508000940BDF8420101904CA8C01C00904BAB0DF5B8
S315080009509D72DFF8E81B10A802F06CFA67E0BDF894
S315080009605A01019052A8C01C009051AB0DF5A9720E
S31508000970DFF8CC1B10A802F05DFA58E0BDF872014A
S31508000980019058A8C01C009057AB0DF5B572DFF85A
S31508000990B41B10A802F04EFA49E0BDF88A0101908E
S315080009A05EA8C01C00905DAB0DF5C172DFF8981B00
S315080009B010A802F03FFA3AE0BDF8A201019064A837
S315080009C0C01C009063AB0DF5CD72DFF8801B10A834
S315080009D002F030FA2BE0BDF8BA0101906AA8C01CF3
S315080009E0009069AB0DF5D972DFF8641B10A802F008
S315080009F021FA1CE0BDF8D201019070A8C01C009035
S31508000A006FAB0DF5E572DFF84C1B10A802F012FA71
S31508000A100DE0BDF8EA01019076A8C01C009075AB00
S31508000A200DF5F172DFF8301B10A802F003FA10A9D1
S31508000A30002001F0E9FB82465FFA8AFABAF1000F54
S31508000A4003D05046C0B201F005BA1BF1010B50E7BE
S31508000A50DFF8081B10A802F0EDF939A910A802F072
S31508000A6003FAD3A110A802F0FFF9DFF8F41A10A8C8
S31508000A7002F0E0F90DE00CE003F065FE82465FFA4D
S31508000A808AFABAF1000F04D1DFF89C1D10A801F00C
S31508000A90E3FA01F060B9EDB2012D47D137A804F0A9
S31508000AA063FB82465FFA8AFABAF1000F2AD1DFF8A9
S31508000AB0041E10A801F0D0FA10A9002001F0A4FB2A
S31508000AC082465FFA8AFABAF1000F03D05046C0B2DE
S31508000AD001F0C0B9DFF8E01D10A802F0ABF939A99A
S31508000AE010A802F0C1F9B2A110A802F0BDF910A928
S31508000AF0002001F089FB82465FFA8AFABAF1000FF4
S31508000B0002D105E001F027B95046C0B201F0A2B9FA
S31508000B10DFF8AC1D10A802F08DF937A910A802F06D
S31508000B20A3F9A3A110A802F09FF93EE16078302846
S31508000B3018D031285DD0322800F0A380332800F081
S31508000B40E880492840F02C8104F04AF982465FFA89
S31508000B508AFABAF1000F04D1DFF8C01D10A801F017
S31508000B607BFA22E137A804F096F982465FFA8AFAF8
S31508000B70BAF1000F2AD1DFF8141910A801F06CFA9F
S31508000B8010A9002001F040FB82465FFA8AFABAF102
S31508000B90000F03D05046C0B201F05CB9DFF8BC19AB
S31508000BA010A802F047F939A910A802F05DF980A14A
S31508000BB010A802F059F910A9002001F025FB824679
S31508000BC05FFA8AFABAF1000F01D104E0EDE0504667
S31508000BD0C0B201F03FB9DFF8DC1D10A802F02AF90F
S31508000BE037A910A802F040F971A110A802F03CF943
S31508000BF0DBE0ADA804F0C5F982465FFA8AFABAF1D5
S31508000C00000F2BD1DFF8B01D10A801F025FA10A9A6
S31508000C10002001F0F9FA82465FFA8AFABAF1000F63
S31508000C2003D05046C0B201F015B9DFF8901D10A8E0
S31508000C3002F000F9AFA9491C10A802F015F95CA149
S31508000C4010A802F011F910A9002001F0DDFA824679
S31508000C505FFA8AFABAF1000F01D104E0A5E050461E
S31508000C60C0B201F0F7B8DFF8581D10A802F0E2F894
S31508000C70ADA910A802F0F8F84DA110A802F0F4F8F2
S31508000C8093E0A9A804F0F3F982465FFA8AFABAF162
S31508000C90000F2BD1DFF82C1D10A801F0DDF910A9E3
S31508000CA0002001F0B1FA82465FFA8AFABAF1000F1B
S31508000CB003D05046C0B201F0CDB8DFF80C1D10A81D
S31508000CC002F0B8F8ABA9491C10A802F0CDF838A173
S31508000CD010A802F0C9F810A9002001F095FA82467A
S31508000CE05FFA8AFABAF1000F01D104E05DE05046D6
S31508000CF0C0B201F0AFB8DFF8E81D10A802F09AF804
S31508000D00A9A910A802F0B0F829A110A802F0ACF819
S31508000D104BE037A804F028FA82465FFA8AFABAF155
S31508000D20000F2AD1DFF88C1B10A801F095F910A93D
S31508000D30002001F069FA82465FFA8AFABAF1000FD2
S31508000D4003D05046C0B201F085B8DFF86C1B10A876
S31508000D5002F070F839A910A802F086F814A110A8B4
S31508000D6002F082F810A9002001F04EFA82465FFAD6
S31508000D708AFABAF1000F01D104E016E05046C0B273
S31508000D8001F068B8DFF8381B10A802F053F837A945
S31508000D9010A802F069F806A110A802F065F804E0A8
S31508000DA0DFF87C1610A801F057F900F0D4BF00BF91
S31508000DB00D0A0000EDB2012D5CD140A804F0C3FA7B
S31508000DC082465FFA8AFABAF1000F2AD1DFF8B41D13
S31508000DD010A801F041F910A9002001F015FA824681
S31508000DE05FFA8AFABAF1000F03D05046C0B201F092
S31508000DF031B8DFF8E41D10A802F01CF842A910A8C3
S31508000E0002F032F8C2A110A802F02EF810A90020AC
S31508000E1001F0FAF982465FFA8AFABAF1000F02D1AE
S31508000E2005E000F098BF5046C0B201F013B8BDF80F
S31508000E301021DFF8A81D10A801F0FCFF10A900205A
S31508000E4001F0E2F982465FFA8AFABAF1000F03D096
S31508000E505046C0B200F0FEBFDFF8841D10A801F0AE
S31508000E60E9FF40A910A801F0FFFFA9A110A801F009
S31508000E70FBFFE1E06078302812D0312870D049288D
S31508000E8040F0DA8004F00CFA82465FFA8AFABAF180
S31508000E90000F04D1DFF84C1D10A801F0DDF8CBE0F7
S31508000EA040A804F050FA82465FFA8AFABAF1000FAF
S31508000EB02AD1DFF8D01C10A801F0CEF810A900201E
S31508000EC001F0A2F982465FFA8AFABAF1000F03D056
S31508000ED05046C0B200F0BEBFDFF8FC1C10A801F0F7
S31508000EE0A9FF42A910A801F0BFFF89A110A801F027
S31508000EF0BBFF10A9002001F087F982465FFA8AFA3B
S31508000F00BAF1000F01D104E096E05046C0B200F0F5
S31508000F10A1BFBDF81021DFF8C41C10A801F08AFF94
S31508000F2010A9002001F070F982465FFA8AFABAF130
S31508000F30000F07D05046C0B200F08CBF9C35002089
S31508000F40B8100108DFF8981C10A801F073FF40A933
S31508000F5010A801F089FF6EA110A801F085FF6BE0CB
S31508000F6031A804F06FFB82465FFA8AFABAF1000FDD
S31508000F7031D1DFF8101C10A801F06EF810A9002076
S31508000F8001F042F982465FFA8AFABAF1000F09D0EF
S31508000F905046C0B200F05EBFBC0C010888150108B7
S31508000FA0401C0108DFF8D41310A801F043FF0DF127
S31508000FB0D20110A801F058FF55A110A801F054FF5E
S31508000FC010A9002001F020F982465FFA8AFABAF1E0
S31508000FD0000F01D104E02FE05046C0B200F03ABF3E
S31508000FE0BDF8DA20DFF8E01310A801F023FF10A9F6
S31508000FF0002001F009F982465FFA8AFABAF1000F71
S3150800100003D05046C0B200F025BFDFF8C01310A8C1
S3150800101001F010FF31A910A801F026FFDFF8B01380
S3150800102010A801F021FF0DF1CB0110A801F01CFF5B
S3150800103037A110A801F018FF00F08DBEDFF8881D53
S3150800104010A801F009F800F086BEDFF8801D10A888
S3150800105001F002F800F07FBEB0150108601C010817
S31508001060D8150108801C01080016010831A804F0EB
S315080010707BFC82465FFA8AFABAF1000F2AD1DFF8BA
S31508001080681D10A800F0E8FF10A9002001F0BCF8C0
S3150800109082465FFA8AFABAF1000F03D05046C0B208
S315080010A000F0D8BEB54910A801F0C4FE0DF1D20172
S315080010B010A801F0D9FE16A110A801F0D5FE10A9B6
S315080010C0002001F0A1F882465FFA8AFABAF1000F09
S315080010D002D105E000F03FBE5046C0B200F0BABEED
S315080010E0BDF8DA20B84910A801F0A4FE10A900201E
S315080010F001F08AF882465FFA8AFABAF1000F0FD031
S315080011005046C0B200F0A6BEA01C01082816010869
S315080011100D0A0000FC25010870220108D81A0108EA
S31508001120AA4910A801F086FE31A910A801F09CFE74
S31508001130A74910A801F098FE0DF1CB0110A801F0FF
S3150800114093FED3A110A801F08FFE00F004BEEDB205
S31508001150012D6FD19FA804F0C7FD82465FFA8AFA6F
S31508001160BAF1000F64D1DFF8F81C10A800F074FF7C
S3150800117010A9002001F048F882465FFA8AFABAF107
S31508001180000F03D05046C0B200F064BEDFF8D41C8E
S3150800119010A801F04FFE10A9002001F035F882468C
S315080011A05FFA8AFABAF1000F03D05046C0B200F0CF
S315080011B051BEDFF8B41C10A800F04EFFA5A910A870
S315080011C001F052FEB2A110A801F04EFE10A90020AF
S315080011D001F01AF882465FFA8AFABAF1000F03D0CC
S315080011E05046C0B200F036BEDFF8801C10A800F0EA
S315080011F033FF9FA910A801F037FEDFF8741C10A86A
S3150800120001F032FEA1A910A801F02EFEDFF8641C39
S3150800121010A801F029FEA3A910A801F025FE9CA19B
S3150800122010A801F021FE4AE25016010878160108B6
S3150800123000F091BD6078302800F06381312800F015
S31508001240E281322800F00382332800F00F82492811
S3150800125040F03082EDB2022D0ED104F03BFC8246FE
S315080012605FFA8AFABAF1000F40F04A81DFF8081CE3
S3150800127010A800F0F1FE43E1EDB21D2D10D0DFF805
S31508001280FC1B10A800F0E8FE3AE100BFA016010812
S31508001290F010010858240108742301086424010881
S315080012A0A0783A2817D160792E2814D1207A2E28CA
S315080012B011D1E07A2E280ED1A07B2E280BD1607C86
S315080012C02E2808D1207D2E2805D1E07D2E2802D192
S315080012D0A07E2E2805D0DFF8A81B10A800F0BCFEBB
S315080012E00EE10020804600208346BBF1090F2ADA6A
S315080012F0032000FB0BF02044C0788DF8280003205B
S3150800130000FB0BF0204400798DF8290000208DF8A9
S315080013102A000AA800F0B6FD00280BD1DFF80C1C3D
S3150800132010A800F099FE012080460CE0C8160108B6
S31508001330F01601080AA800F0CAFD7BA901F80B00FF
S315080013401BF1010BD1E79DF8EC01082805DBDFF856
S31508001350E01B10A800F080FEB1E19DF8EC0110F04A
S3150800136007008DF83D009DF8ED01022808DBDFF83F
S31508001370C41B10A800F070FEA1E100BF842201087A
S315080013809DF8ED0110F00100C0B2C0008DF83C00D8
S315080013909DF8EE01022805DBDFF89C1B10A800F07B
S315080013A05BFE8CE19DF8EE0110F00100C0B2000171
S315080013B08DF83B009DF8EF0102280BDBDFF87C1B5C
S315080013C010A800F049FE7AE1C01C01088423010830
S315080013D0942301089DF8EF0110F00100C0B2400106
S315080013E08DF83A009DF8F001402805DBDFF8501B20
S315080013F010A800F031FE62E19DF8F00110F03F0000
S315080014008DF839009DF8F10102280BDBDFF8341B53
S3150800141010A800F021FE52E118170108401701082C
S31508001420E01C01089DF8F10110F0010080214843F5
S315080014308DF838009DF8F201042805DBDFF8081B53
S3150800144010A800F009FE3AE19DF8F20110F0030039
S315080014508DF837009DF8F301042805DBDFF8EC1A50
S3150800146010A800F0F9FD2AE19DF8F30110F0030039
S31508001470C0B280008DF836009DF8F40102280BDB17
S31508001480DFF8CC1A10A800F0E7FD18E1FC1A0108ED
S315080014900D0A0000281401089DF8F40110F0010057
S315080014A0C0B200018DF835009DF83D009DF83C104E
S315080014B008189DF83B1008189DF83A1008188DF87A
S315080014C0BC009DF839009DF8381008188DF8BD0045
S315080014D09DF837009DF8361008189DF8351008183D
S315080014E08DF8BE002FA804F01DFB82465FFA8AFA23
S315080014F0BAF1000F04D1DFF85C1A10A800F0ACFDB1
S31508001500DDE09FA804F0F0FB82465FFA8AFABAF19A
S31508001510000F77D1DFF8481910A800F09DFD10A933
S31508001520002000F071FE82465FFA8AFABAF1000FCF
S315080015301AD05046C0B200F08DBC00BF681701082B
S3150800154090170108B8170108E017010808180108DC
S31508001550301801085818010880180108D41E010817
S315080015609822010828110108DFF8F81810A801F0D8
S3150800157061FC10A9002000F047FE82465FFA8AFA4D
S31508001580BAF1000F03D05046C0B200F063BCDFF8D2
S31508001590D81810A800F060FDA5A910A801F064FCF1
S315080015A0C6A110A801F060FC10A9002000F02CFECE
S315080015B082465FFA8AFABAF1000F03D05046C0B2E3
S315080015C000F048BCDFF8A41810A800F045FD9FA954
S315080015D010A801F049FCDFF8981810A801F044FC9F
S315080015E0A1A910A801F040FCDFF8881810A801F09E
S315080015F03BFCA3A910A801F037FCB0A110A801F084
S3150800160033FC5CE05BE03CA804F023FB82465FFA0F
S315080016108AFABAF1000F19D1DFF83C1910A800F0C0
S315080016201BFD9DF8F020DFF834190AA801F002FC2A
S315080016300AA910A801F018FC0DF1F10110A801F093
S3150800164013FC9EA110A801F00FFC38E037E004F067
S3150800165093FA82465FFA8AFABAF1000F05D1DFF8E3
S31508001660001910A800F0F8FC29E028E03EA804F0CC
S31508001670A5FA82465FFA8AFABAF1000F19D1DFF89D
S31508001680E41810A800F0E8FC9DF8F820DFF8CC185C
S315080016900AA801F0CFFB0AA910A801F0E5FB0DF195
S315080016A0F90110A801F0E0FB84A110A801F0DCFB09
S315080016B005E004E0DFF8B01810A800F0CDFC4AE316
S315080016C0607844280AD0552811D1042004F05CFC1F
S315080016D0DFF8981810A800F0BFFC0DE0042004F00D
S315080016E061FCDFF88C1810A800F0B6FC04E0DFF8FF
S315080016F0841810A800F0B0FC2DE3EDB2022D05DA2F
S31508001700DFF8741810A800F0A7FC1FE360784328D8
S3150800171000F07582442800F0E882492806D04D2852
S3150800172000F0F582522800F0EB820BE3EDB2092DAA
S3150800173005DADFF8481810A800F08EFC5EE2A078FB
S31508001740512800F0C081C0F05482532802D0C0F05E
S31508001750A1804EE2E0783A2802D1A0792E2805D059
S31508001760DFF81C1810A800F077FC92E020798DF8B5
S31508001770280060798DF8290000208DF82A000AA82B
S3150800178000F080FB002805D1DFF8F81710A800F054
S3150800179063FC7EE00AA800F09AFB0600E0798DF863
S315080017A02800207A8DF8290000208DF82A000AA83A
S315080017B000F068FB002805D1DFF8CC1710A800F068
S315080017C04BFC66E00AA800F082FB0700002F06D152
S315080017D03200DFF8B81710A801F02CFB2FE0002024
S315080017E0804600208346BB4529DA032000FB0BF020
S315080017F02044807A8DF82800032000FB0BF0204453
S31508001800C07A8DF8290000208DF82A000AA800F071
S3150800181039FB00280AD1DFF86C1710A800F01CFC69
S31508001820012080460BE000BF541401080AA800F006
S315080018304EFB7BA901F80B001BF1010BD3E7B8F1AE
S31508001840000F05D13200DFF8481710A801F0F2FAA8
S3150800185000208346BB450DDA7BA810F80B20CAA1E9
S315080018600AA801F0E7FA0AA910A801F0FDFA1BF187
S31508001870010BEFE711A110A801F0F6FA4FF4FA737D
S315080018803800020092B27BA9300080B204F0A8FCAE
S315080018908246B3E1E0783A2805D1A0792E2802D10C
S315080018A0607A2E280ED0DFF8EC1610A800F0D4FBCC
S315080018B008E100BFA8180108EC1E01080D0A00007F
S315080018C0AC22010820798DF8280060798DF8290066
S315080018D000208DF82A000AA800F0D4FA002805D1BD
S315080018E0DFF8B41610A800F0B7FBEBE00AA800F082
S315080018F0EEFA0600E0798DF82800207A8DF829009E
S3150800190000208DF82A000AA800F0BCFA002807D1A2
S31508001910DFF8881610A800F09FFBD3E080140108B2
S315080019200AA800F0D4FA0700A07A8DF82800E07A11
S315080019308DF8290000208DF82A000AA800F0A2FADE
S31508001940002805D1DFF8581610A800F085FBB9E085
S315080019500AA800F0BCFA2E90002F06D13200DFF854
S31508001960441610A801F066FA39E0002080460020E7
S315080019708346BB4533DA032000FB0BF02044407B4B
S315080019808DF82800032000FB0BF02044807B8DF89F
S31508001990290000208DF82A000AA800F073FA00280A
S315080019A014D1DFF8041610A800F056FB0120804673
S315080019B015E000BF041F0108201B0108C02201080A
S315080019C0A4230108001D0108D42201080AA800F072
S315080019D07EFA7BA901F80B001BF1010BC9E7B8F1E8
S315080019E0000F05D13200DFF8C41510A801F022FA5D
S315080019F000208346BB450DDA7BA810F80B2062A1B0
S31508001A000AA801F017FA0AA910A801F02DFA1BF185
S31508001A10010BEFE7CAA110A801F026FA4FF4FA73F2
S31508001A203800020092B27BA9300080B204F0D8FBDD
S31508001A3082465FFA8AFABAF1000F10D14FF4FA73A8
S31508001A402E98020092B27BA9300080B204F013FCF3
S31508001A5082465FFA8AFABAF1000F05D100E0CDE0B6
S31508001A60142004F043FC82465FFA8AFABAF1000FA2
S31508001A7028D110A9002000F0C7FB82465FFA8AFA2F
S31508001A80BAF1000F02D05046C0B2E3E1DFF82015E4
S31508001A9010A801F0CFF9002083462E9883450DDA69
S31508001AA07BA810F80B2038A10AA801F0C3F90AA9E7
S31508001AB010A801F0D9F91BF1010BEEE7A0A110A8B7
S31508001AC001F0D2F99AE0E0783A2802D1A0792E28D6
S31508001AD008D0DFF8E01410A800F0BEFA88E000BFCE
S31508001AE0B423010820798DF8280060798DF829003B
S31508001AF000208DF82A000AA800F0C4F9002805D1AC
S31508001B00DFF8B41410A800F0A7FA71E00AA800F0EC
S31508001B10DEF90600E0798DF82800207A8DF829008C
S31508001B2000208DF82A000AA800F0ACF9002805D193
S31508001B30DFF8881410A800F08FFA59E00AA800F018
S31508001B40C6F92E903200DFF85C1410A801F072F97D
S31508001B504FF4FA732E98020092B27BA9300080B235
S31508001B6004F089FB82465FFA8AFABAF1000F0DD1B2
S31508001B70142004F0BBFB82465FFA8AFABAF1000F1A
S31508001B8036D104E01C1F010825782E0036E010A97E
S31508001B90002000F039FB82465FFA8AFABAF1000F94
S31508001BA002D05046C0B255E1DFF8041410A801F07F
S31508001BB041F9002083462E98834515DA7BA810F84C
S31508001BC00B20A6A10AA801F035F90AA910A801F068
S31508001BD04BF91BF1010BEEE7341F0108441B010802
S31508001BE0C4230108AC14010855A110A801F03CF95A
S31508001BF004E0DFF8741310A800F02EFAA6E005201A
S31508001C0002F0DCF8002804D045A802F0E7FD824679
S31508001C100BE0062002F0D2F8002804D045A802F00E
S31508001C2049FA824601E0012082465FFA8AFABAF149
S31508001C30000F55D131A803F097FE82465FFA8AFA5B
S31508001C40BAF1000F47D140A803F07DFB82465FFA40
S31508001C508AFABAF1000F39D198A801F03DF98246FF
S31508001C605FFA8AFABAF1000F2BD198A8099040A812
S31508001C70089031A8079045A8069075A805906FA802
S31508001C80049069A8039063A802905DA8019057A8DC
S31508001C90009051AB4BAACA4910A801F0CBF810A97D
S31508001CA0002000F0B1FA82465FFA8AFABAF1000F0C
S31508001CB002D05046C0B2CDE0C24910A801F0BAF829
S31508001CC012E0C14910A801F0B5F80DE0BF4910A807
S31508001CD001F0B0F808E0BE4910A801F0ABF803E03F
S31508001CE0BC4910A801F0A6F830E002F0A3F8ADF858
S31508001CF03E00BDF83E20B84910A801F09BF825E043
S31508001D0004F083FCB54910A801F094F81EE0B44924
S31508001D1010A800F0A1F910A9002000F075FA824673
S31508001D205FFA8AFABAF1000F02D05046C0B291E0C3
S31508001D30AC4910A800F090F90120AB49087005E0FD
S31508001D400D0A0000884910A800F086F903E08649C4
S31508001D5010A800F081F95FFA8AFABAF1000F07D0E5
S31508001D60BAF1020F42D004D3BAF1030F45D04BE0C3
S31508001D7050E004F0B1FA3090309801280AD00228D1
S31508001D800DD0042810D0082813D0102816D02028E3
S31508001D901ED022E0954910A800F05EF921E094498A
S31508001DA010A800F059F91CE0924910A800F054F95F
S31508001DB017E0914910A800F04FF912E08F4910A8D2
S31508001DC000F04AF90DE000BF0C1301084C1F01088A
S31508001DD08B4910A800F040F903E08A4910A800F0E2
S31508001DE03BF904F054F915E0E8220108864910A8E1
S31508001DF000F032F904F04BF90CE0844910A800F021
S31508001E002BF904F044F905E0814910A800F024F9FB
S31508001E1004F03DF910A9002000F0F6F982465FFAB1
S31508001E208AFABAF1000F02D05046C0B212E07949D8
S31508001E3010A800F011F910A9002000F0E5F9824673
S31508001E405FFA8AFABAF1000F02D05046C0B201E032
S31508001E505046C0B20DF5317DBDE8F08F25782E00CD
S31508001E60F41D010860110108D42301087024010833
S31508001E707C240108882401082C0C0108000D01089F
S31508001E80740C0108F8B50400200000F0C5F8050038
S31508001E900020070000200600AE4216DAA05D3A28A8
S31508001EA002DAA05D302805DAA05D472805DAA05DCC
S31508001EB0412802DB0020070001E001200700012F6E
S31508001EC001D1002002E0761CE6E70120F2BD2DE9EB
S31508001ED0F041040000275FF00008200000F09CF89D
S31508001EE0050000200600AE421ADAA05D3A2806DA96
S31508001EF0A05D302803DBA05D303807000CE0A05D4C
S31508001F00472806DAA05D412803DBA05D37380700BD
S31508001F1002E05FF0FF3004E017EB0818761CE2E7F2
S31508001F204046BDE8F081304800787047080E010841
S31508001F30C80F01080410010840100108981101088B
S31508001F40480E0108880E0108C80E0108080F010886
S31508001F50480F0108440D0108201D01080426010840
S31508001F603C120108681B0108E01C0108401D010815
S31508001F70601D0108D8140108801D0108D018010841
S31508001F80F81801080415010870120108641F0108F1
S31508001F90FC2201082019010830150108A4120108BD
S31508001FA07C1001087C1F0108481901081023010844
S31508001FB094240108701901085C150108D812010853
S31508001FC098190108A0240108941F0108AC1F0108EC
S31508001FD08C1B0108B01B0108C41F0108D41B01088B
S31508001FE0101E01082C1E01089C350020C019010886
S31508001FF03C1301086C1301089C130108E819010831
S31508002000CC130108101A0108381A0108601A0108C9
S31508002010881A01080C26010800F10103810704D07B
S3150800202010F8011B89B18107FAD10268B2F10131B2
S31508002030914311F0803F04BF50F8042FF6E710F8DB
S31508002040011B11B110F8011BFBE7C01A70470268A3
S31508002050531C0360117070475FEA000C830706D0B3
S3150800206011F8013B00F8013BB3B18307F8D10A68C0
S31508002070B2F1013323EA020313F0803F02BF40F8AE
S31508002080042B51F8042FF3E711F8013B00F8013B44
S3150800209013B111F8013BF9E76046704780B5DFF8E0
S315080020A08004DFF8801408604FF49640DFF8741453
S315080020B048600020DFF86C1488600020DFF864149C
S315080020C0C8600020DFF85C1408610C20DFF854149F
S315080020D048610020DFF84C1488610020DFF84414BA
S315080020E0C861DFF8400404F0C1FA002801D005F001
S315080020F0CFF901BD80B5DFF83004DFF83014086089
S315080021005FF4E130DFF8241448600020DFF81C147F
S3150800211088600020DFF81414C8600020DFF80C146B
S3150800212008610C20DFF8041448614FF44070DFF8AA
S31508002130FC1388610020DFF8F413C861DFF8EC03AC
S3150800214004F094FA002801D005F0A2F901BD10B5F3
S3150800215086B004002068DFF8C81388421ED1DFF86D
S31508002160D003006850F40030DFF8C4130860DFF8C5
S31508002170C003006810F40030009000980C2001900D
S315080021800220029001200390032004900720059066
S3150800219001A9DFF8A00305F093F933E02068DFF81A
S315080021A0881388422ED1DFF88803006850F480200F
S315080021B0DFF87C130860DFF87803006810F48020E5
S315080021C0009000984FF44060019002200290012090
S315080021D00390032004900720059001A9DFF858030F
S315080021E005F06EF94FF4C0400190022002900020DD
S315080021F00390032004900720059001A9DFF838030F
S3150800220005F05EF906B010BDF8B504000D0028000B
S31508002210FFF702FF0700BFB2792F01DB01203AE082
S31508002220E4B2002C19D1DFF814030078002801D095
S31508002230022030E04FF400433A0092B22900DFF85A
S31508002240E40204F04CFA0600F6B2002E02D0300082
S31508002250C0B220E03000C0B21DE0E4B2012C19D1B2
S31508002260DFF8DC020078002801D0022013E04FF4E2
S3150800227000433A0092B22900DFF8B00204F02FFAC0
S315080022800600F6B2002E02D03000C0B203E03000DD
S31508002290C0B200E00120F2BDF8B504000D00280028
S315080022A0FFF7BAFE0700BFB2792F01DB012036E03F
S315080022B0E4B2002C17D1DFF884020078002801D098
S315080022C002202CE03A0092B22900DFF8580204F006
S315080022D084FA0600F6B2002E02D03000C0B21EE024
S315080022E03000C0B21BE0E4B2012C17D1DFF850026F
S315080022F00078002801D0022011E03A0092B22900A5
S31508002300DFF8280204F069FA0600F6B2002E02D0B9
S315080023103000C0B203E03000C0B200E00120F2BDD8
S31508002320DFF8200270470120DFF81C12087070479A
S31508002330854800787047F8B504000D001600B6B257
S31508002340792E01DB012032E0E4B2002C15D17B485E
S315080023500078002801D0022029E0320092B2290034
S31508002360704804F072FA0700FFB2002F02D0380056
S31508002370C0B21CE03800C0B219E0E4B2012C15D195
S315080023806F480078002801D0022010E0320092B28F
S315080023902900664804F059FA0700FFB2002F02D058
S315080023A03800C0B203E03800C0B200E00120F2BD38
S315080023B010B504002000C0B200F006F8012801D0CC
S315080023C0002000E0012010BD0100C9B2002903D198
S315080023D0544890F8390007E0C9B2012903D1534897
S315080023E090F8390000E00420704701684C4A914291
S315080023F003D10121514A117006E001684A4A914207
S3150800240002D101214E4A11707047C0B2002803D18B
S3150800241000214A4A117005E0C0B2012802D1002104
S31508002420474A1170704770B5040020683C498842D5
S3150800243003D10120414908704CE020683A49884296
S3150800244048D1FFF775FF002824D0032040490860CB
S31508002450FFF766FF3F4908603E4800684078401C21
S315080024600600002005003A48006885420BDA39481C
S315080024700068007800F0EDFA36480068401C3549D7
S3150800248008606D1CEFE732480660314800682F493E
S3150800249008601CE0FFF744FF2E490860002005008D
S315080024A02B48006885420BDA2A480068007800F055
S315080024B0D0FA28480068401C264908606D1CEFE7DA
S315080024C00320234908602248006820490860012043
S315080024D01B49087070BD704714480068C06850F002
S315080024E0800012490968C860704710480068C068CB
S315080024F050F480700D490968C8600C480068406946
S3150800250050F0010009490968486108480068C06830
S3150800251050F0200005490968C860704700000000AF
S3150800252000440040C832002000480040083300201C
S315080025302438024000000240000402409F35002073
S31508002540A03500208C340020A1350020480000204A
S31508002550883500208435002038B504000D00DFF8E2
S31508002560FC0500680471DFF8F40500684571DFF8BA
S31508002570F005DFF8E81509680860DFF8E005006887
S31508002580011DDFF8D8050068006805F004FADFF8D1
S31508002590D4050068001D32BD0020DFF8CC15A1F86F
S315080025A020030020DFF8C41581F896010020DFF823
S315080025B0BC1581F897010020DFF8B01581F898015D
S315080025C07047401CC0B2C82800DB0020C0B2704764
S315080025D038B504000D00002C27D0DFF8900590F8D8
S315080025E09301DFF8881591F8921188421BD00020D4
S315080025F0DFF8781581F89501DFF87005DFF86C15B6
S3150800260091F89311084490F8CA0028706D1CDFF8F9
S315080026105C0590F89301FFF7D4FFDFF8501581F8B1
S315080026209301641ED7E7FFF760FF002032BDDFF88D
S315080026303C0590F89501704780B5FFF7ADFF062079
S3150800264003F0B0FC0FF2CD20DFF824150860DFF8A0
S315080026502405DFF824150860DFF82005DFF82015C3
S315080026600860062003F090FC01BD70B586B0002511
S31508002670DFF8F804D0F89C01002805D105F079F9AF
S31508002680DFF8E814C1F89C01DFF8E004D0F89C01F3
S31508002690002800F0EE80DFF8D404D0F89C0100682A
S315080026A0DFF8E0140840DFF8C014DFF8BC24B2F8FD
S315080026B0202341F82200DFF8B004B0F82003C0B2A6
S315080026C0FFF77FFFDFF8A014A1F82003DFF89C04CA
S315080026D0D0F89C010068DFF8AC140840040020001C
S315080026E0DFF8A41488422AD0DFF8A014884258D00C
S315080026F0DFF89C14884200F08280DFF8981488423C
S3150800270029D0DFF89414884279D0DFF890148842EB
S3150800271057D0DFF88C14884200F09280DFF88414D2
S3150800272088425AD0DFF88014884262D0DFF87C14D9
S31508002730884264D0DFF8781488425AD08BE0DFF8F4
S3150800274074140020FFF760FD012005000120DFF862
S315080027501C1481F896010020DFF8101481F89701FF
S3150800276002210220FFF7F8FE06003088002817D15C
S31508002770EDB2002D0FD1DFF840140020FFF744FD1D
S3150800278002210D2005F046F901F090FB0D2005F019
S3150800279091F903F03AFF0020DFF8D013C1F89C0145
S315080027A067E0DFF818140020FFF72EFD0120DFF898
S315080027B0BC1381F897010020DFF8B013C1F89C011B
S315080027C057E09CA10020FFF71FFD01F07DFB0020CC
S315080027D0DFF89813C1F89C014BE097A10020FFF79A
S315080027E013FD01F071FB0020DFF88013C1F89C018E
S315080027F03FE00020DFF87413C1F89C0139E0DFF8E8
S31508002800C0130020FFF700FDDFF86003D0F89C0135
S31508002810807A00280ED0DFF85403D0F89C0110F116
S315080028200B02DFF8A013684600F004FB6946002097
S31508002830FFF7EAFC0020DFF83413C1F89C0118E022
S31508002840DFF884130020FFF7DFFC0020DFF81C13F5
S31508002850C1F89C010DE02200DFF87013684600F00D
S31508002860E9FA69460020FFF7CFFC0020BF49C1F806
S315080028709C0106B070BDBD4890F896017047BB48EC
S3150800288090F897017047B94890F89801704738B59D
S31508002890040020680068000620D5B44890F8C900EE
S315080028A0B24991F8C810884211D0B048AF4991F89A
S315080028B0C910415C89B2200000F0C0F8AB4890F816
S315080028C0C900FFF77EFEA94981F8C90006E020681D
S315080028D0C0687FF0800108402168C86020680068E9
S315080028E010F00F000F2807D10020A04981F89401A5
S315080028F0200000F0A9F80BE020680068800607D5DC
S31508002900200000F0A1F805002800C0B200F0A1F8E8
S3150800291031BD00002DE9F04104000D0054F07F4060
S31508002920060091489049B1F8201340F821608E4876
S31508002930B0F82003C0B2FFF744FE8B49A1F8200384
S3150800294028786978090411EB0060A97810EB012052
S31508002950E9780818060084488349B1F8201340F836
S3150800296021608148B0F82003C0B2FFF72AFE7E49ED
S31508002970A1F8200328796979090411EB0060A9797F
S3150800298010EB0120E9790818060077487649B1F86E
S31508002990201340F821607448B0F82003C0B2FFF74E
S315080029A010FE7149A1F820034FF4FA600700002CC5
S315080029B03DD06E4890F8C800FFF703FE80464046B3
S315080029C06A4991F8C910C0B288421ED0287867496A
S315080029D0664A92F8C8208854272003F00FFE6348F9
S315080029E090F8C800614991F8C910884201D1FFF7EB
S315080029F073FD5E4880F8C880272003F0F8FD641E42
S31508002A006D1C4FF4FA600700D1E73800471E00280E
S31508002A10CDD10020554981F8960102210F2004F0F6
S31508002A20F9FF0F2005F046F803F0EFFDBFE7BDE814
S31508002A30F08100002D2A2D002D4F2D0089B2CA05E0
S31508002A40D20D03685A60704700684068C005C00D1B
S31508002A50704730B58FB004005D485E490978445424
S31508002A605C480078401C5B490870E4B20A2C70D1B7
S31508002A70002058490870564A5749684600F0DAF95E
S31508002A8069460020FFF7C0FB0500EDB2002D02D015
S31508002A902800C0B25FE0042250494D4805F043F8CB
S31508002AA0002809D10120314981F896014C490020B6
S31508002AB0FFF7AAFB05004CE009224A49444805F0FD
S31508002AC032F8002809D10120284981F8970146499A
S31508002AD00020FFF799FB05003BE00C2243493C48E0
S31508002AE005F021F800280DD10020204981F897012A
S31508002AF000201E4981F898013D490020FFF784FB14
S31508002B00050026E004223B49314805F00CF8002868
S31508002B1009D10120154981F8980137490020FFF7A6
S31508002B2073FB050015E008223449294804F0FBFF29
S31508002B30002809D10221112004F06CFF112004F0AD
S31508002B40B9FF03F062FD04E02D490020FFF75CFBA6
S31508002B5005002800C0B20FB030BD00000C000020F0
S31508002B602002030110000020C8200020C02D0020EC
S31508002B703C350020D1250008403500202F260008C6
S31508002B8044350020F800FFFFA0000100A00008005F
S31508002B90A0000900A0000801A000080220000A02FF
S31508002BA0A0000B02A0000A0320000A05200009085D
S31508002BB0A00000201024010824230108342301085A
S31508002BC0201C01081C240108A01D0108282401084E
S31508002BD0643400209B350020BC1D0108042501082B
S31508002BE0442301083424010820220108542301083B
S31508002BF0642301080C250108BC1E010840240108AD
S31508002C003422010800210800802804DA0021864AB7
S31508002C101154401CF8E770478448704770B50400A3
S31508002C208021200005F090F80500EDB2002D02D0B5
S31508002C302800C0B217E005F0BEF80500002006001F
S31508002C40C82E0ADA05F0B7F80500EDB2002D04D053
S31508002C50052003F06AFB761CF2E7C82E01DB032089
S31508002C6001E02800C0B270BD70B56E48FFF7D6FF08
S31508002C700600F6B2002E02D03000C0B236E00020C0
S31508002C800500802D05DA6748405D684948556D1C82
S31508002C90F7E7FFF7B7FF002307226349614805F006
S31508002CA0B7F8050015F1010F01D101201EE000203B
S31508002CB00500402D18DA5B48405D5A49495D5A4A75
S31508002CC0525D594B5B5D5A4301FB002005F0C0F984
S31508002CD005F0D6F905F04CFA0400200005F090FA44
S31508002CE0504948556D1CE4E73000C0B270BD70B558
S31508002CF082B004000020050048A1200000F09AF8E0
S31508002D0000200600102E0BDA4648825D48496846C0
S31508002D1000F090F86946200000F0A6F8761CF1E766
S31508002D203FA1200000F0A0F82800C0B276BD70B51B
S31508002D3082B004000020050038A1200000F07AF8CF
S31508002D4000200600102E0CDA36483044027C38493A
S31508002D50684600F06FF86946200000F085F8761C92
S31508002D60F0E72FA1200000F07FF82800C0B276BD5A
S31508002D7070B582B004000020050028A1200000F0EC
S31508002D8059F800200600102E0DDA2648304490F82F
S31508002D9020202749684600F04DF86946200000F0D3
S31508002DA063F8761CEFE71EA1200000F05DF8280006
S31508002DB0C0B276BD70B582B004000020050017A128
S31508002DC0200000F037F800200600102E0DDA15480E
S31508002DD0304490F830201649684600F02BF86946CA
S31508002DE0200000F041F8761CEFE70DA1200000F066
S31508002DF03BF82800C0B276BD0021080080280ADA10
S31508002E000021084A11540021074A11540021074A93
S31508002E101154401CF2E77047000000000000000053
S31508002E20426E0000F430002074310020F431002096
S31508002E30142601080CB41CB5044604A801900A46D9
S31508002E40009401AB694607487844183005F0FAF94A
S31508002E50009A0021117000285CBF0098001B16BC60
S31508002E605DF80CFBEBF1FFFF024600E0521C1378FD
S31508002E70002BFBD111F8013B137012F8013B002B14
S31508002E80F8D170471CB520208DF8000001208DF878
S31508002E90010008208DF8020000208DF803000020AC
S31508002EA08DF8040000208DF80500684606F09AFAA9
S31508002EB00400E4B2002C05D0022C07D004D3032C5E
S31508002EC006D007E0002006E0012004E0032002E027
S31508002ED0012000E0012016BD2DE9FF47040000206F
S31508002EE00500684606F02CFB002835D10098814677
S31508002EF0009806F09BFB0022454B06F0BFFB06F048
S31508002F00A5FC0600360202AA9246009806F08EFB39
S31508002F10524606F0B1FC05F02BF980465FF0874073
S31508002F20414606F005FD05F06BF9070017F0F007B6
S31508002F30BE193200374914F10C00FFF77BFFA66172
S31508002F40484606F073FB02000B0033492000FFF7E2
S31508002F5071FF2800C0B200E0012004B0BDE8F08788
S31508002F6030B585B00400684606F000FB002801D09D
S31508002F70012046E001A806F01AFB002840D1019876
S31508002F8006F054FB254A264B06F078FB0022254B13
S31508002F9006F03AFD05F0ECF80500BDF80000E08201
S31508002FA0019806F043FB02000B001F492000FFF7BB
S31508002FB041FF280006F03AFB02000B001B49E01D02
S31508002FC0FFF738FFBDF90000C0F3072212B20F4918
S31508002FD014F10E00FFF72EFFBDF9000000F0FF0206
S31508002FE00A4902A8FFF726FF02A914F10E00FFF707
S31508002FF03BFF05A114F10E00FFF736FF002000E0A5
S31508003000012005B030BD000052770000DC2401081D
S3150800301000000440E4240108EC240108CDCCCCCC03
S31508003020CCCCFC3F00004040F4240108FC240108F5
S3150800303010B5A0B000208DF8040000208DF805001A
S315080030404FF4FA700090002301AA0F21BA2003F06A
S315080030507AF80400E4B2002C07D14FF4FA7301227F
S3150800306001A9BA2003F007F904009DF80400BD2859
S3150800307001D1002000E0012020B010BD0120DFF8BA
S315080030809C1948700020DFF8941988700020DFF832
S31508003090881D08700020DFF8801D488070470120D1
S315080030A0DFF87819087070470120DFF87019087082
S315080030B0704710B58AB000200400DFF86009007870
S315080030C0002800F0A784DFF854098078002808D083
S315080030D0022846D03AD3042861D04DD3052871D0AA
S315080030E085E0DFF83C196846FFF7A4FE694600202C
S315080030F0FFF78AF86846FEF78FFF6946FFF70AFC6E
S31508003100002000F05BFE00281FD0DFF8180901F048
S31508003110C2FE0400E4B2002C69D1DFF80C0901F004
S3150800312030FF0400E4B2002C61D1DFF8780A01F020
S315080031309EFF0400E4B2002C59D1DFF8F00802F033
S3150800314013F80400E4B2002C51D150E0012000F03D
S3150800315035FE002804D0DFF8D80802F005FC040084
S3150800316045E0022000F02AFE002804D0DFF8380ADD
S3150800317002F0BAFD04003AE0032000F01FFE002822
S315080031800CD0DFF8740BFFF7A7FE0400E4B2002C9E
S315080031902DD1DFF8180AFFF7E3FE040027E0042024
S315080031A000F00CFE00280CD0DFF88C0B02F0CBF8F0
S315080031B00400E4B2002C1AD1DFF8F40902F042FA4E
S315080031C0040014E0052000F0F9FD002805D0DFF81A
S315080031D0E40901F003FB040009E0062000F0EEFD17
S315080031E0002804D0DFF8CC0900F064FF0400DFF8FB
S315080031F02C088078401CDFF824188870DFF81C0833
S315080032008078092807DB0020DFF81018887000206E
S31508003210DFF808180870E4B2002C02D02000C0B20B
S31508003220FAE306F096FCDFF89019DFF8900906F045
S31508003230F3FC00281FD0012002F0A6FEDFF87C1957
S31508003240DFF87409FEF708FFDFF8D817DFF870090A
S31508003250FEF702FFDFF86829DFF868196846FFF706
S31508003260E9FD69460020FEF7CFFF6846FEF7D4FE63
S315080032706946FFF74FFBDFF85019DFF8500906F0EB
S31508003280CBFC00281FD0012002F07EFEDFF83C1997
S31508003290DFF83409FEF7E0FEDFF88C17DFF85C0A82
S315080032A0FEF7DAFEDFF8542ADFF8541A6846FFF705
S315080032B0C1FD69460020FEF7A7FF6846FEF7ACFE8B
S315080032C06946FFF727FBDFF8741ADFF8740A06F079
S315080032D0A3FC00281FD0012002F056FEDFF8601A72
S315080032E0DFF8580AFEF7B8FEDFF8B818DFF8540A10
S315080032F0FEF7B2FEDFF84C2ADFF84C1A6846FFF7ED
S3150800330099FD69460020FEF77FFF6846FEF784FEB2
S315080033106946FFF7FFFADFF8341ADFF8340A06F0D1
S315080033207BFC00281FD0012002F02EFEDFF8201AB1
S31508003330DFF8180AFEF790FEDFF8F016DFF86C0AD9
S31508003340FEF78AFEDFF8642ADFF8641A6846FFF794
S3150800335071FD69460020FEF757FF6846FEF75CFEDA
S315080033606946FFF7D7FADFF84C1ADFF84C0A06F079
S3150800337053FC00283ED0012002F006FEDFF8381A7A
S31508003380DFF8300AFEF768FEDFF8A416DFF88C0AC5
S31508003390FEF762FEDFF8881ADFF8880AFEF75CFE99
S315080033A0DFF82C0BB0F85800DFF87016A1F85800B3
S315080033B0DFF8682ADFF8701A6846FFF73BFD6946AA
S315080033C00020FEF721FF6846FEF726FE6946FFF74E
S315080033D0A1FADFF8502ADFF8541A6846FFF72AFDE3
S315080033E069460020FEF710FF6846FEF715FE694697
S315080033F0FFF790FADFF8C41ADFF8340A06F00CFC77
S3150800340000285ED0012002F0BFFDDFF8241ADFF89D
S31508003410AC0AFEF721FEDFF89017DFF8B80AFEF7C8
S315080034201BFEDFF8B41ADFF8B40AFEF715FEDFF85C
S31508003430B01ADFF8B00AFEF70FFEDFF8802ADFF8C9
S31508003440A81A6846FFF7F6FC69460020FEF7DCFE78
S315080034506846FEF7E1FD6946FFF75CFADFF8742A6D
S31508003460DFF8881A6846FFF7E5FC69460020FEF78C
S31508003470CBFE6846FEF7D0FD6946FFF74BFADFF844
S315080034805C2ADFF86C1A6846FFF7D4FC6946002008
S31508003490FEF7BAFE6846FEF7BFFD6946FFF73AFA39
S315080034A0DFF8402ADFF84C1A6846FFF7C3FC69467E
S315080034B00020FEF7A9FE6846FEF7AEFD6946FFF74F
S315080034C029FADFF8341ADFF8340A06F0A5FB0028D3
S315080034D027D0012002F058FDDFF8201ADFF8180A75
S315080034E0FEF7BAFDDFF81018DFF8140AFEF7B4FD88
S315080034F0DFF8DC09D0F89C00DFF82015C1F89C003D
S31508003500DFF8FC29DFF8FC196846FFF793FC6946E3
S315080035100020FEF779FE6846FEF77EFD6946FFF74E
S31508003520F9F9DFF8E419DFF8E40906F075FB002875
S3150800353025D0012002F028FDDFF8D019DFF8C809E8
S31508003540FEF78AFDDFF86416DFF8C409FEF784FD86
S31508003550DFF8C019DFF8C009FEF77EFDDFF8A029FD
S31508003560DFF8A0196846FFF765FC69460020FEF7F4
S315080035704BFE6846FEF750FD6946FFF7CBF9DFF8C4
S315080035809C19DFF89C0906F047FB002827D0012084
S3150800359002F0FAFCDFF88819DFF88009FEF75CFD0F
S315080035A0DFF89417DFF87C09FEF756FDDFF82009E7
S315080035B0B0F8C800DFF86414A1F8C800DFF8642979
S315080035C0DFF864196846FFF735FC69460020FEF700
S315080035D01BFE6846FEF720FD6946FFF79BF9DFF8F4
S315080035E04C19DFF84C0906F017FB00283ED00120DD
S315080035F002F0CAFCDFF83819DFF83009FEF72CFDAF
S31508003600DFF8AC15DFF82C09FEF726FDDFF82819D8
S31508003610DFF82809FEF720FDDFF8B408B0F8E00067
S31508003620DFF8F813A1F8E000DFF80829DFF8101929
S315080036306846FFF7FFFB69460020FEF7E5FD68468A
S31508003640FEF7EAFC6946FFF765F9DFF8F028DFF8C8
S31508003650F4186846FFF7EEFB69460020FEF7D4FD2E
S315080036606846FEF7D9FC6946FFF754F9DFF8D8181B
S31508003670DFF8D80806F0D0FA00281FD0012002F09B
S3150800368083FCDFF8C818DFF8C008FEF7E5FCDFF8AA
S315080036902415DFF8BC08FEF7DFFCDFF8B428DFF8EE
S315080036A0B4186846FFF7C6FB69460020FEF7ACFD6E
S315080036B06846FEF7B1FC6946FFF72CF9DFF898185B
S315080036C0DFF8980806F0A8FA002826D0012002F0AC
S315080036D05BFCDFF88818DFF88008FEF7BDFCDFF82A
S315080036E08018DFF88008FEF7B7FCDFF8E407B0F8C3
S315080036F09C01CA49A1F89C01DFF86828DFF8681818
S315080037006846FFF797FB69460020FEF77DFD684689
S31508003710FEF782FC6946FFF7FDF8DFF85018DFF878
S31508003720500806F079FA002826D0012002F02CFC71
S31508003730DFF83C18DFF83408FEF78EFCDFF834189B
S31508003740DFF83408FEF788FCDFF88407B0F8B40120
S31508003750B249A1F8B401DFF82028DFF82018684636
S31508003760FFF768FB69460020FEF74EFD6846FEF740
S3150800377053FC6946FFF7CEF8DFF80418DFF80408AB
S3150800378006F04AFA002826D0012002F0FDFBDFF8F1
S31508003790F417DFF8EC07FEF75FFCDFF8EC17DFF845
S315080037A0EC07FEF759FCDFF82807B0F8CC019B496F
S315080037B0A1F8CC01DFF8D427DFF8D4176846FFF75D
S315080037C039FB69460020FEF71FFD6846FEF724FC14
S315080037D06946FFF79FF8DFF8BC17DFF8BC0706F065
S315080037E01BFA002826D0012002F0CEFBDFF8AC1722
S315080037F0DFF8AC07FEF730FCDFF89C17DFF8940714
S31508003800FEF72AFCDFF8C806B0F8E4018349A1F8F8
S31508003810E401DFF88027DFF88C176846FFF70AFB14
S3150800382069460020FEF7F0FC6846FEF7F5FB694698
S31508003830FFF770F8DFF87017DFF8700706F0ECF995
S31508003840002826D0012002F09FFBDFF86017DFF87A
S315080038505807FEF701FCDFF85817DFF85807FEF798
S31508003860FBFBDFF86C06B0F8FC016C49A1F8FC011B
S31508003870DFF84027DFF840176846FFF7DBFA6946A6
S315080038800020FEF7C1FC6846FEF7C6FB6946FFF74F
S3150800389041F8DFF82817DFF8280706F0BDF90028F1
S315080038A026D0012002F070FBDFF81417DFF80C07AA
S315080038B0FEF7D2FBDFF80C17DFF80C07FEF7CCFB98
S315080038C0DFF80C06B0F814025449A1F81402DFF820
S315080038D0F826DFF8F8166846FFF7ACFA69460020BE
S315080038E0FEF792FC6846FEF797FB6946FFF712F863
S315080038F0DFF8DC16DFF8DC0606F08EF9002826D09D
S31508003900012002F041FBDFF8CC16DFF8C406FEF70B
S31508003910A3FBDFF8C416DFF8C406FEF79DFBDFF845
S31508003920B005B0F82C023D49A1F82C02DFF8AC2608
S31508003930DFF8AC166846FFF77DFA69460020FEF701
S3150800394063FC6846FEF768FB6946FEF7E3FFDFF8A7
S315080039509416DFF8940606F05FF9002826D00120B1
S3150800396002F012FBDFF88016DFF87806FEF774FB24
S31508003970DFF87816DFF87806FEF76EFBDFF85005F5
S31508003980B0F844022549A1F84402DFF86426DFF8B6
S3150800399064166846FFF74EFA69460020FEF734FCBF
S315080039A06846FEF739FB6946FEF7B4FF1B484078C0
S315080039B0002813D0002019494870DFF83C26DFF8A4
S315080039C03C166846FFF736FA69460020FEF71CFCE7
S315080039D06846FEF721FB6946FEF79CFF0F4880788C
S315080039E0002817D1DFF818166846FFF723FA694644
S315080039F00020FEF709FC6846FEF70EFB6946FEF74F
S31508003A0089FFDFF800166846FFF714FA69460020B2
S31508003A10FEF7FAFB2000C0B20AB010BD58290020F4
S31508003A20C42401081327002022270020422700204B
S31508003A305227002000B595B0FEF71DFF002800F0BC
S31508003A40A180FEF71CFF002800F09C80FEF71BFFF4
S31508003A50002800F09780DFF8B0156846FFF7EAF906
S31508003A6069460020FEF7D0FB6846FEF7D5FA694698
S31508003A70FEF750FF022002F087FAFFF7F5F8DFF8A5
S31508003A808C05FFF734F9DFF88805FFF750F9DFF8FA
S31508003A908405FFF76DF9DFF88005FFF78BF901203C
S31508003AA002F072FADFF86425DFF870156846FFF74A
S31508003AB0C1F969460020FEF7A7FB6846FEF7ACFA8F
S31508003AC06946FEF727FF012002F05EFADFF8402577
S31508003AD0DFF84C156846FFF7ADF969460020FEF792
S31508003AE093FB6846FEF798FA6946FEF713FF01202E
S31508003AF002F04AFADFF81C25DFF828156846FFF7B2
S31508003B0099F969460020FEF77FFB6846FEF784FAB6
S31508003B106946FEF7FFFE012002F036FADFF8F824C0
S31508003B20DFF804156846FFF785F969460020FEF7B1
S31508003B306BFB6846FEF770FA6946FEF7EBFE06F081
S31508003B409EF80200DFF8E4146846FFF773F9694641
S31508003B500020FEF759FB6846FEF75EFA6946FEF74F
S31508003B60D9FE05F0F6FFDFF898146846FFF762F904
S31508003B7069460020FEF748FB6846FEF74DFA694697
S31508003B80FEF7C8FE00F096F9022002F00BFADFF8FD
S31508003B9074146846FFF74EF969460020FEF734FBB1
S31508003BA015B000BD322700206A270020B027002064
S31508003BB0DA2700207E280020632900201B27002002
S31508003BC05B290020DC1F0108732900202B27002011
S31508003BD030B587B00400FEF74EFE002813D0142235
S31508003BE02100684606F05EF82000FEF715FA15284B
S31508003BF003D314F11400050000E02500142229005F
S31508003C00684606F04FF807B030BD00B58BB0FEF732
S31508003C1036FE002842D00020DFF81414088000F091
S31508003C2049F9002833D0DFF80C040088401CDFF877
S31508003C3004140880DFF8FC030088052190FBF1F2E4
S31508003C4001FB1200002811D106F019F80300DFF86D
S31508003C50E4030288DFF8E0136846FFF7EBF86946E5
S31508003C600020FEF7D1FA6846FFF7B2FFDFF8C40373
S31508003C700088B0F5616F3DDD02210E2003F0CAFE13
S31508003C800020DFF8B013088000F010F932E00020B9
S31508003C90DFF8A013088000F013F92BE0DFF8900393
S31508003CA00088401CDFF888130880DFF88403008842
S31508003CB0052190FBF1F201FB120000280ED105F058
S31508003CC0DEFF0300DFF868030288DFF87013684632
S31508003CD0FFF7B0F869460020FEF796FADFF85003BA
S31508003CE00088B0F5616F05DD02210D2003F092FE14
S31508003CF000F0DCF80BB000BD942700206A290020EC
S31508003D00F01F01080020CE4908700020CC494870F1
S31508003D100020CB4908710020C949C8700020C8494D
S31508003D2088700020C64948710020C549887100205E
S31508003D30C349C87170470000C8270020832900209E
S31508003D403B2700207A290020042001089229002018
S31508003D504A270020C0B200280CD0022810D00CD365
S31508003D60042813D00FD3062816D012D3082819D042
S31508003D7015D31AE0B24A117017E0B14A517014E02F
S31508003D80AF4A917011E0AE4AD1700EE0AC4A11719B
S31508003D900BE0AB4A517108E0A94A917105E0A84ABF
S31508003DA0D17102E0A64A1172FFE770478A290020FE
S31508003DB018200108A8290020602700200100C9B2A0
S31508003DC000290CD0022910D00CD3042913D00FD304
S31508003DD0062916D012D3082919D015D31AE09848FF
S31508003DE0007818E09648407815E09548807812E003
S31508003DF09348C0780FE0924800790CE090484079E3
S31508003E0009E08F48807906E08D48C07903E08C4840
S31508003E10007A00E000207047383500209A290020F3
S31508003E2059270020A12900202C200108402001083C
S31508003E308227002010B500240020FFF7BFFF0028C6
S31508003E4000D0641C0120FFF7B9FF002800D0A41C8D
S31508003E500220FFF7B3FF002800D0241D0320FFF738
S31508003E60ADFF002800D008340420FFF7A7FF00287C
S31508003E7000D010340520FFF7A1FF002800D0203419
S31508003E800620FFF79BFF002800D040340720FFF7E5
S31508003E9095FF002800D080340820FFF78FFF002800
S31508003EA001D014F58074200080B210BD0020654949
S31508003EB0488070476348007870470000CA29002088
S31508003EC0012060490870704700205E4908707047F5
S31508003ED010270020B229002072270020BA290020C6
S31508003EE07A270020C22900205420010868200108EA
S31508003EF07C20010890200108E8290020A02700203E
S31508003F00DC290020A4200108062A0020BE2700205C
S31508003F10F8290020B7270020FF290020182A0020AA
S31508003F20D0270020102A0020B8200108302A0020B7
S31508003F30E8270020222A0020E1270020292A00203D
S31508003F40CC200108E0200108D42A00208C28002073
S31508003F50C62A0020F4200108EC2A0020A428002004
S31508003F6096280020DE2A002008210108042B0020BC
S31508003F70BC280020AE280020F62A00201C210108B3
S31508003F801C2B0020D4280020C62800200E2B002039
S31508003F9030210108262B0020DE280020EC280020EE
S31508003FA0342B0020442101084C2B00200429002032
S31508003FB0F62800203E2B002058210108642B0020FB
S31508003FC01C2900200E290020562B00206C210108F0
S31508003FD07C2B002034290020262900206E2B002067
S31508003FE080210108942B00204C2900203E2900201E
S31508003FF0862B00209421010804240108A821010821
S31508004000CC240108D4240108C42401083A2A002033
S315080040105D2A0020802A0020A32A0020BC2101084E
S31508004020D0210108E4210108F82101088C1E0108A5
S3150800403094350020963500200C220108A41E01089C
S31508004040183500203835002038B500200500002036
S315080040508DF80000280003009BB26A46122114203E
S3150800406002F03DF80400E4B2002C1FD1642002F0EF
S315080040703DF90400E4B2002C02D02000C0B217E0DB
S3150800408002226946142002F011F90400E4B2002C59
S3150800409009D1642002F02AF90400E4B2002C05D004
S315080040A02000C0B204E02000C0B201E02000C0B287
S315080040B032BD00002DE9F04F85B0040000200390C2
S315080040C000208DF80000039803009BB26A4612216F
S315080040D0142002F004F80700FFB2002F23D1642051
S315080040E002F004F90700FFB2002F02D03800C0B270
S315080040F0B9E202226946142002F0D8F80700FFB296
S31508004100002F0DD1642002F0F1F80700FFB2002F4E
S3150800411002D03800C0B2A6E2FFB2002F69D105E08E
S315080041203800C0B29FE23800C0B29CE29DF8010098
S315080041304FF480719DF8002001FB002082461FFA8B
S315080041408AFAD3460A209BFBF0F005F0E1FD05004C
S31508004150DFF85C0C290005F0EBFB05F067FA05F0C3
S31508004160F1FD05F05DFB0600280005F05FFADFF8B3
S31508004170442CDFF8443C05F081FA0022DFF83C3C89
S3150800418005F042FC03F0F4FF8146E682280005F0BC
S315080041904DFA02000B00DFF8281C2000FEF74AFE45
S315080041A0484605F043FA02000B00DFF8181CE01D2C
S315080041B0FEF740FE300080B2020A92B2DFF8081C11
S315080041C014F10E00FEF736FEB6B206F0FF02DFF86F
S315080041D0F81B01A8FEF72EFE01A914F10E00FEF742
S315080041E043FEB2A114F10E00FEF73EFE0020804603
S315080041F002E03800C0B236E2B8F1080F80F2318228
S315080042000020039000208DF80000039803009BB25D
S315080042106A4618F11301C9B2142001F060FF0700BD
S31508004220FFB2002F24D1642002F060F80700FFB225
S31508004230002F02D03800C0B215E2022269461420C7
S3150800424002F034F80700FFB2002F0ED1642002F006
S315080042504DF80700FFB2002F02D03800C0B202E2C4
S31508004260FFB2002F40F0FA8105E03800C0B2FAE14B
S315080042703800C0B2F7E19DF801004FF480719DF84F
S31508004280002001FB002082461FFA8AFAD3460A203C
S315080042909BFBF0F005F03CFD0500DFF8140B290048
S315080042A005F046FB05F0C2F905F04CFD05F0B8FA35
S315080042B00600280005F0BAF9DFF8F82ADFF8F83A18
S315080042C005F0DCF90022DFF8F43A05F09DFB03F06F
S315080042D04FFF8146B8F1000F14D0B8F1020F7AD01B
S315080042E044D3B8F1040F00F0E380C0F0A980B8F118
S315080042F0060F00F04781C0F01081B8F1070F00F0F3
S315080043007681A8E1E685280005F090F902000B0001
S31508004310DFF8AC1A14F11800FEF78CFD484605F0D4
S3150800432085F902000B00DFF89C1A14F11F00FEF74E
S3150800433081FD300080B2020A92B2DFF88C1A14F1BD
S315080043402600FEF777FDB6B206F0FF02DFF8781A08
S3150800435001A8FEF76FFD01A914F12600FEF784FDFA
S3150800436052A114F12600FEF77FFD74E1A4F8466019
S31508004370280005F05BF902000B00DFF8441A14F177
S315080043803000FEF757FD484605F050F902000B00CD
S31508004390DFF8301A14F13700FEF74CFD300080B212
S315080043A0020A92B2DFF8201A14F13E00FEF742FD27
S315080043B0B6B206F0FF02DFF8101A01A8FEF73AFDBA
S315080043C001A914F13E00FEF74FFD38A114F13E0095
S315080043D0FEF74AFD3FE1A4F85E60280005F026F9DD
S315080043E002000B00DFF8D81914F14800FEF722FD89
S315080043F0484605F01BF902000B00DFF8C81914F14E
S315080044004F00FEF717FD300080B2020A92B2DFF8BD
S31508004410B81914F15600FEF70DFDB6B206F0FF0204
S31508004420DFF8A41901A8FEF705FD01A914F1560045
S31508004430FEF71AFD1DA114F15600FEF715FD0AE157
S31508004440A4F87660280005F0F1F802000B00DFF802
S31508004450701914F16000FEF7EDFC484605F0E6F821
S3150800446002000B00DFF85C1914F16700FEF7E2FCA6
S31508004470300080B2020A92B2DFF84C1914F16E00CD
S31508004480FEF7D8FCB6B206F0FF02DFF83C1901A821
S31508004490FEF7D0FC01A914F16E00FEF7E5FC03A1B6
S315080044A014F16E00FEF7E0FCD5E000BF527700007D
S315080044B0A4F88E60280005F0B9F802000B00DFF8B2
S315080044C0001914F17800FEF7B5FC484605F0AEF879
S315080044D002000B00DFF8EC1814F17F00FEF7AAFCC7
S315080044E0300080B2020A92B2DFF8DC1814F18600B6
S315080044F0FEF7A0FCB6B206F0FF02DFF8CC1801A85A
S31508004500FEF798FC01A914F18600FEF7ADFC57A149
S3150800451014F18600FEF7A8FC9DE0A4F8A660280022
S3150800452005F084F802000B00DFF8941814F19000E7
S31508004530FEF780FC484605F079F802000B00DFF824
S31508004540841814F19700FEF775FC300080B2020A51
S3150800455092B2DFF8741814F19E00FEF76BFCB6B23F
S3150800456006F0FF02DFF8601801A8FEF763FC01A950
S3150800457014F19E00FEF778FC3CA114F19E00FEF7AC
S3150800458073FC68E0A4F8BE60280005F04FF8020046
S315080045900B00DFF82C1814F1A800FEF74BFC484670
S315080045A005F044F802000B00DFF8181814F1AF0004
S315080045B0FEF740FC300080B2020A92B2DFF8081813
S315080045C014F1B600FEF736FCB6B206F0FF02DFF8C5
S315080045D0F81701A8FEF72EFC01A914F1B600FEF79C
S315080045E043FC22A114F1B600FEF73EFC33E0A4F822
S315080045F0D660280005F01AF802000B00DFF8C0178D
S3150800460014F1C000FEF716FC484605F00FF8020044
S315080046100B00DFF8B01714F1C700FEF70BFC3000EB
S3150800462080B2020A92B2DFF8A01714F1CE00FEF7A4
S3150800463001FCB6B206F0FF02DFF88C1701A8FEF7F8
S31508004640F9FB01A914F1CE00FEF70EFC07A114F13F
S31508004650CE00FEF709FC18F10108CDE53800C0B216
S3150800466001E03800C0B205B0BDE8F08F527700000F
S3150800467038B5002004000120050000208DF8000050
S3150800468000208DF80100280003009BB26A4600212D
S31508004690D02001F024FD0400E4B2002C1ED16420D1
S315080046A001F024FE0400E4B2002C02D02000C0B2BF
S315080046B048E00120050001208DF8000000208DF853
S315080046C00100280003009BB26A460221D02001F0AF
S315080046D006FD0400E4B2002C22D102E02000C0B29C
S315080046E030E0642001F002FE0400E4B2002C02D09F
S315080046F02000C0B226E00120050020208DF8000029
S3150800470000208DF80100280003009BB26A460721A5
S31508004710D02001F0E4FC0400E4B2002C10D102E041
S315080047202000C0B20EE0642001F0E0FD0400E4B20F
S31508004730002C02D02000C0B204E02000C0B201E084
S315080047402000C0B232BD38B5012005003F208DF8E3
S31508004750000000208DF80100280003009BB26A467D
S315080047600121D02001F0BBFC0400E4B2002C22D1C8
S31508004770642001F0BBFD0400E4B2002C02D0200046
S31508004780C0B22AE04FF47A7001F0CFFD012005008F
S3150800479000208DF8000000208DF801002800030095
S315080047A09BB26A460121D02001F099FC0400E4B2CC
S315080047B0002C10D102E02000C0B20EE0642001F007
S315080047C095FD0400E4B2002C02D02000C0B204E03B
S315080047D02000C0B201E02000C0B232BD2DE9F04F82
S315080047E089B004000020029000208DF80C00029881
S315080047F003009BB203AA0E21D02001F070FC07002B
S31508004800FFB2002F24D1642001F070FD0700FFB22B
S31508004810002F02D03800C0B2C5E2022203A9D02078
S3150800482001F044FD0700FFB2002F0ED1642001F00D
S315080048305DFD0700FFB2002F02D03800C0B2B2E219
S31508004840FFB2002F40F07F8005E03800C0B2AAE230
S315080048503800C0B2A7E29DF80D004FF480719DF8AC
S315080048600C2001FB002082465FEA0A5007D51FFA92
S315080048708AFADFF8580550EA0A00834602E01FFA6A
S315080048808AFAD346584603F0E3FB0022DFF84035A0
S3150800489004F0F4FE03F06CFC06003000DFF8341573
S315080048A005F072FA01D896F00046DFF804053100E3
S315080048B005F03EF804F0BAFE05F044FA04F0B0FF3D
S315080048C00500300004F0B2FEDFF8E824DFF8E8342B
S315080048D004F0D4FE0022DFF8E43405F095F803F07E
S315080048E047FC8146E582300004F0A0FE02000B007A
S315080048F0DFF8CC142000FEF79DFA484604F096FE31
S3150800490002000B00DFF8BC14E01DFEF793FA28003E
S3150800491080B2020A92B2DFF8B01414F10E00FEF764
S3150800492089FAADB205F0FF02DFF89C146846FEF777
S3150800493081FA694614F10E00FEF796FA9CA114F165
S315080049400E00FEF791FA0020029000208DF80C0068
S31508004950029803009BB203AAC021D02001F0BFFB36
S315080049600700FFB2002F24D1642001F0BFFC070026
S31508004970FFB2002F02D03800C0B214E2102203A9F9
S31508004980D02001F093FC0700FFB2002F0ED164205F
S3150800499001F0ACFC0700FFB2002F02D03800C0B20D
S315080049A001E2FFB2002F40F0FC8105E03800C0B2FA
S315080049B0F9E13800C0B2F6E100208046B8F1080FE8
S315080049C080F2EF8103A800EB480040784FF480712D
S315080049D003AA12F8182001FB002082465FEA0A5053
S315080049E007D51FFA8AFADFF8E40350EA0A00834675
S315080049F002E01FFA8AFAD346584603F029FB00223A
S31508004A00DFF8D43304F03AFE03F0B2FB06005FEA9F
S31508004A104A5007D51FFA8AFADFF8C00350EA0A0097
S31508004A20834602E01FFA8AFAD346E148310004F0C9
S31508004A307FFF04F0FBFD05F085F904F0F1FE0500A3
S31508004A40300004F0F3FDDB4ADB4B04F017FE0022CE
S31508004A50DA4B04F0D9FF03F08BFB8146B8F1000F5F
S31508004A6014D0B8F1020F72D040D3B8F1040F00F099
S31508004A70D280C0F09F80B8F1060F00F02E81C0F0FA
S31508004A80FB80B8F1070F00F0598187E1E585300012
S31508004A9004F0CCFD02000B00C94914F11800FEF71A
S31508004AA0C9F9484604F0C2FD02000B00C54914F1D5
S31508004AB01F00FEF7BFF9280080B2020A92B2C24967
S31508004AC014F12600FEF7B6F9ADB205F0FF02BE49AD
S31508004AD06846FEF7AFF9694614F12600FEF7C4F9F1
S31508004AE033A114F12600FEF7BFF957E1A4F84650A2
S31508004AF0300004F09BFD02000B00B14914F13000B0
S31508004B00FEF798F9484604F091FD02000B00AD49FE
S31508004B1014F13700FEF78EF9280080B2020A92B225
S31508004B20A94914F13E00FEF785F9ADB205F0FF027A
S31508004B30A5496846FEF77EF9694614F13E00FEF778
S31508004B4093F91BA114F13E00FEF78EF926E1A4F8AD
S31508004B505E50300004F06AFD02000B00984914F11B
S31508004B604800FEF767F9484604F060FD02000B00AE
S31508004B70944914F14F00FEF75DF9280080B2020A45
S31508004B8092B2914914F15600FEF754F9ADB205F008
S31508004B90FF028D496846FEF74DF9694614F156003D
S31508004BA0FEF762F902A114F15600FEF75DF9F5E089
S31508004BB052770000A4F87650300004F037FD020062
S31508004BC00B007F4914F16000FEF734F9484604F0FB
S31508004BD02DFD02000B007B4914F16700FEF72AF948
S31508004BE0280080B2020A92B2774914F16E00FEF7E5
S31508004BF021F9ADB205F0FF0273496846FEF71AF9C6
S31508004C00694614F16E00FEF72FF968A114F16E00DB
S31508004C10FEF72AF9C2E0A4F88E50300004F006FD2B
S31508004C2002000B00664914F17800FEF703F94846BE
S31508004C3004F0FCFC02000B00624914F17F00FEF749
S31508004C40F9F8280080B2020A92B25F4914F1860088
S31508004C50FEF7F0F8ADB205F0FF025B496846FEF7CD
S31508004C60E9F8694614F18600FEF7FEF84FA114F13B
S31508004C708600FEF7F9F891E0A4F8A650300004F093
S31508004C80D5FC02000B004E4914F19000FEF7D2F84D
S31508004C90484604F0CBFC02000B004A4914F1970081
S31508004CA0FEF7C8F8280080B2020A92B2464914F103
S31508004CB09E00FEF7BFF8ADB205F0FF02424968460E
S31508004CC0FEF7B8F8694614F19E00FEF7CDF837A14D
S31508004CD014F19E00FEF7C8F860E0A4F8BE50300054
S31508004CE004F0A4FC02000B00354914F1A800FEF7F5
S31508004CF0A1F8484604F09AFC02000B00314914F169
S31508004D00AF00FEF797F8280080B2020A92B22E4941
S31508004D1014F1B600FEF78EF8ADB205F0FF022A4987
S31508004D206846FEF787F8694614F1B600FEF79CF860
S31508004D301EA114F1B600FEF797F82FE0A4F8D65096
S31508004D40300004F073FC02000B001D4914F1C0008A
S31508004D50FEF770F8484604F069FC02000B00194992
S31508004D6014F1C700FEF766F8280080B2020A92B26C
S31508004D70154914F1CE00FEF75DF8ADB205F0FF0255
S31508004D8011496846FEF756F8694614F1CE00FEF753
S31508004D906BF806A114F1CE00FEF766F818F10108C3
S31508004DA00CE63800C0B209B0BDE8F08F52770000B3
S31508004DB000002041CDCCCCCCCCCCFC3F0000404000
S31508004DC0BC250108C4250108CC25010800F8FFFF09
S31508004DD00000B03F010080440000D03F00FCFFFF08
S31508004DE07CB500200500012D2CDA002004002000E7
S31508004DF003009BB201AA0521822001F070F9060082
S31508004E00322001F092FAF6B2002E19D1642001F090
S31508004E106DFA0600F6B2002E12D1022201A98220EE
S31508004E2001F044FA0600322001F07FFAF6B2002EAD
S31508004E3006D1642001F05AFA0600F6B2002E01D017
S31508004E406D1CD0E7012D02DB3000C0B222E09DF8D0
S31508004E500400102805D19DF80500622801D100201C
S31508004E6018E0322001F061FA0220040010208DF8C3
S31508004E70040062208DF805004FF4FA7000902000B7
S31508004E8003009BB201AA0521822001F05CF9060005
S31508004E903000C0B276BD2DE9F04184B00400002090
S31508004EA0060000200600012E26DA0020050028004C
S31508004EB003009BB26A460121822001F010F907001F
S31508004EC0FFB2002F16D1642001F010FA0700FFB2D6
S31508004ED0002F0FD102226946822001F0E7F9070068
S31508004EE0FFB2002F06D1642001F000FA0700FFB2D6
S31508004EF0002F01D0761CD6E7012E02DB3800C0B29F
S31508004F003CE0FFB2002F37D19DF80020D54914F1B7
S31508004F100800FDF78FFF9DF80120D24901A8FDF78B
S31508004F2089FF01A914F10800FDF79EFF8DA114F170
S31508004F300800FDF799FF9DF800004FF480719DF871
S31508004F40012001FB002003F083F8C74AC74B04F091
S31508004F5095FB0022C64B04F091FB03F009F9804645
S31508004F60404604F063FB02000B00C2492000FDF72F
S31508004F7061FF3800C0B201E03800C0B204B0BDE835
S31508004F80F0812DE9F04184B00400002006000020DD
S31508004F900600012E26DA00200500280003009BB231
S31508004FA06A460421822001F09AF80700FFB2002F12
S31508004FB016D1642001F09AF90700FFB2002F0FD12D
S31508004FC002226946822001F071F90700FFB2002F1C
S31508004FD006D1642001F08AF90700FFB2002F01D03C
S31508004FE0761CD6E7012E02DB3800C0B23CE0FFB2E1
S31508004FF0002F37D19DF800209A4914F10900FDF7D2
S3150800500019FF9DF80120974901A8FDF713FF01A98B
S3150800501014F10900FDF728FF52A114F10900FDF764
S3150800502023FF9DF800004FF480719DF8012001FBD5
S31508005030002003F00DF8904A904B04F01FFB002265
S315080050408B4B04F01BFB03F093F88046404604F0B4
S31508005050EDFA02000B008A492000FDF7EBFE380046
S31508005060C0B201E03800C0B204B0BDE8F0812DE955
S31508005070F04184B004000020060000200600012E3E
S3150800508026DA00200500280003009BB26A460321A1
S31508005090822001F024F80700FFB2002F16D1642001
S315080050A001F024F90700FFB2002F0FD1022269464A
S315080050B0822001F0FBF80700FFB2002F06D164201A
S315080050C001F014F90700FFB2002F01D0761CD6E7CD
S315080050D0012E02DB3800C0B240E0FFB2002F3BD100
S315080050E09DF800205F4914F10900FDF7A3FE9DF81D
S315080050F001205C4901A8FDF79DFE01A914F10900EC
S31508005100FDF7B2FE17A114F10900FDF7ADFE9DF8F3
S3150800511000004FF480719DF8012001FB002002F089
S3150800512097FF584A584B04F0A9FA0022574B04F047
S31508005130A5FA00224E4B04F0A1FA03F019F88046AE
S31508005140404604F073FA02000B0051492000FDF7AF
S3150800515071FE3800C0B201E03800C0B204B0BDE844
S31508005160F0810000527700002DE9F04184B0040078
S315080051700020060000200600012E26DA0020050081
S31508005180280003009BB26A460221822000F0A7FF8E
S315080051900700FFB2002F16D1642001F0A7F8070018
S315080051A0FFB2002F0FD102226946822001F07EF855
S315080051B00700FFB2002F06D1642001F097F8070018
S315080051C0FFB2002F01D0761CD6E7012E02DB38008D
S315080051D0C0B23FE0FFB2002F3AD19DF80020214926
S315080051E014F10800FDF726FE9DF801201D4901A8C7
S315080051F0FDF720FE01A914F10800FDF735FE17A1F9
S3150800520014F10800FDF730FE15A101A8FDF72CFEE4
S315080052109DF800004FF480719DF8012001FB0020E5
S31508005220042190FBF1F002F013FF1A4A1A4B04F01E
S3150800523025FA02F09DFF8046404604F0F7F9020081
S315080052400B0016492000FDF7F5FD3800C0B201E055
S315080052503800C0B204B0BDE8F08100005277000003
S315080052600D0A00004C260108F168E388B5F8E43E0B
S3150800527000408F4054260108C41D519C0100303F50
S315080052805C260108CDAD41134B62B03E0088C34091
S3150800529064260108FCA9F1D24D62703F6C2601080C
S315080052A038B50120050005208DF8000000208DF88E
S315080052B00100280003009BB26A461021BE2000F0B8
S315080052C00EFF0400E4B2002C0DD1642001F00EF8A4
S315080052D00400E4B2002C02D02000C0B232E0E4B2EE
S315080052E0002C03D105E02000C0B22BE02000C0B29C
S315080052F028E00320050081208DF8000000208DF8A5
S31508005300010000208DF8020000208DF80300280017
S3150800531003009BB26A46A021BE2000F0E0FE04000E
S31508005320E4B2002C0CD1642000F0E0FF0400E4B2E3
S31508005330002C02D02000C0B204E02000C0B201E078
S315080053402000C0B232BD2DE9F04F85B00400002020
S3150800535005000020804600208DF800004046030026
S315080053609BB26A46B021BE2000F0B9FE0500EDB238
S31508005370002D3ED1642000F0B9FF0500EDB2002DE6
S3150800538002D02800C0B257E102226946BE2000F0CA
S315080053908DFF0500EDB2002D28D1642000F0A6FF90
S315080053A00500EDB2002D02D02800C0B244E19DF8F8
S315080053B00000C0B24008C0B281469DF80100C0B2E4
S315080053C04008C0B2ADF806000020804600208DF8DF
S315080053D00000404603009BB26A46B621BE2000F094
S315080053E07EFE0500EDB2002D3FD105E02800C0B2D3
S315080053F022E12800C0B21FE1642000F077FF050013
S31508005400EDB2002D02D02800C0B215E1022269468D
S31508005410BE2000F04BFF0500EDB2002D22D164201E
S3150800542000F064FF0500EDB2002D02D02800C0B2DE
S3150800543002E19DF801009DF8001051EA002082461D
S315080054400020804600208DF80000404603009BB2ED
S315080054506A46BA21BE2000F042FE0500EDB2002DD4
S3150800546040D105E02800C0B2E6E02800C0B2E3E07B
S31508005470642000F03BFF0500EDB2002D02D02800A5
S31508005480C0B2D9E002226946BE2000F00FFF05002F
S31508005490EDB2002D23D1642000F028FF0500EDB2FF
S315080054A0002D02D02800C0B2C6E09DF801009DF884
S315080054B0001051EA0020ADF80A00002080460020BE
S315080054C08DF80000404603009BB26A46A821BE201C
S315080054D000F005FE0500EDB2002D66D105E02800B6
S315080054E0C0B2A9E02800C0B2A6E0642000F0FEFE23
