S02E0000526F616420426F61726420526576204D2E3520424153454C494E4520446563203920323031362E737265637A
S3150800000050110020A1740108D5780108D978010893
S31508000010DD780108E1780108E578010800000000AC
S31508000020000000000000000000000000C7510108A1
S31508000030E978010800000000755101080953010814
S31508000040B1930008ED780108F1780108F578010800
S31508000050F9780108FD780108017901080579010890
S31508000060097901080D790108117901081153010868
S3150800007015790108197901081D79010821790108FE
S3150800008025790108297901082D79010831790108AE
S315080000901B53010835790108397901083D790108AA
S315080000A04179010845790108497901084D7901081E
S315080000B057530108615301082553010843530108A2
S315080000C04D530108517901085579010859790108F4
S315080000D05D79010861790108395301082F53010830
S315080000E065790108697901086D790108B74300083F
S315080000F0717901080000000075790108797901080D
S315080001007D790108817901088579010889790108CD
S315080001108D79010891790108957901080000000098
S31508000120997901082DE9F04FADF5806D95B0040079
S31508000130200002F051FF8046DFF89C0D0078002869
S315080001401ED020781B2815D10020DFF88C1D0870DA
S31508000150DFF8881D11A802F069FF11A9002003F035
S315080001603DF80500EDB2002D02F041862800C0B228
S3150800017002F03FBE2100012003F040FC02F037BE2A
S31508000180207830282ED0312839D032285BD0332831
S315080001907DD0342800F09F80352800F0C0803628AE
S315080001A000F00C81412800F01481422800F03582C5
S315080001B0432800F0A784442800F01E86452800F04E
S315080001C04787462800F04B87472800F05587482878
S315080001D000F0C087502801F05582542801F070823B
S315080001E002F081BD03F015FE0500EDB2002D04D125
S315080001F0DFF8C41D11A802F019FF02F078BDA3A804
S3150800020003F059FE0500DFF8B41D11A802F00EFF31
S3150800021011A9002002F0E2FF0500EDB2002D03D07F
S315080002202800C0B202F0E5BDDFF8941D11A803F05E
S31508000230D3FEA3A911A803F0E9FEC4A111A803F0EF
S31508000240E5FE02F054BDA3A803F051FE0500DFF851
S31508000250741D11A802F0EAFE11A9002002F0BEFFE3
S315080002600500EDB2002D03D02800C0B202F0C1BDD2
S31508000270DFF8F81D11A803F0AFFEA3A911A803F033
S31508000280C5FEB2A111A803F0C1FE02F030BDA3A8B5
S3150800029003F04BFE0500DFF8D81D11A802F0C6FED4
S315080002A011A9002002F09AFF0500EDB2002D03D037
S315080002B02800C0B202F09DBDDFF8B81D11A803F0F2
S315080002C08BFEA3A911A803F0A1FEA0A111A803F013
S315080002D09DFE02F00CBDA3A803F045FE0500DFF85D
S315080002E0041E11A802F0A2FE11A9002002F076FF52
S315080002F00500EDB2002D03D02800C0B202F079BD8A
S31508000300DFF8E41D11A803F067FEA3A911A803F0FE
S315080003107DFE8EA111A803F079FE02F0E8BC03F079
S3150800032045FD4690DFF8C41D11A802F07FFEA3A87C
S3150800033003F0C1FD050011A9002002F04FFF0500DA
S31508000340EDB2002D03D02800C0B202F052BD002045
S315080003500700ADA111A803F03FFE00200600802E7D
S3150800036025DA46988257DFF8D81D0CA803F034FE24
S315080003700CA911A803F04AFE7F1C102F15DB73A1E8
S3150800038011A803F043FE0020070011A9002002F07F
S3150800039025FF0500EDB2002D03D02800C0B202F0FB
S315080003A028BD99A111A803F017FE761CD7E7DFF838
S315080003B0941D11A803F010FE02F099BC0020050058
S315080003C003F0EFFDDFF8841D11A802F02FFE02F0FE
S315080003D08EBC5FFA88F8B8F1010F00F01C816078CE
S315080003E036282BD0382800F09980392800F0F78075
S315080003F0492840F00B8103F017FE0500EDB2002DE9
S3150800040005D1DFF84C1D11A802F010FE15E0DFF843
S31508000410141E11A802F00AFE8DF83C5011A90020FE
S3150800042002F0DCFE0500EDB2002D03D02800C0B2B4
S3150800043002F0DFBC9DF83C000500ECE0ACA803F038
S3150800044066FE0500EDB2002D04D10DF5876003F0B8
S3150800045015FE0500EDB2002D49D1DFF8CC1D11A817
S3150800046002F0E4FD11A9002002F0B8FE0500EDB285
S31508000470002D03D02800C0B202F0BBBCDFF80C1E6A
S3150800048011A803F0A9FD11A9002002F0A7FE050096
S31508000490EDB2002D03D02800C0B202F0AABC0DF5BB
S315080004A08763ACAADFF8E81D11A803F095FD11A92A
S315080004B0002002F093FE0500EDB2002D03D02800BF
S315080004C0C0B202F096BCDFF8CC1D11A803F084FD7B
S315080004D0AFA911A803F09AFDB29ADFF8BC1D0CA8C3
S315080004E003F07AFD0CA911A803F090FD15E0DFF8DA
S315080004F0AC1D11A802F09AFD8DF83C5011A90020F8
S3150800050002F06CFE0500EDB2002D03D02800C0B243
S3150800051002F06FBC9DF83C0005007CE03CA803F0A7
S315080005203AFE0500EDB2002D29D1DFF8041E11A808
S3150800053002F07CFD11A9002002F050FE0500EDB284
S31508000540002D05D02800C0B202F053BC0D0A0000E9
S31508000550DFF8E01D11A803F03FFD0DF1FE0111A81B
S3150800056003F054FDCDA111A803F050FD11A90020F8
S3150800057002F034FE0500EDB2002D01D104E04AE098
S315080005802800C0B202F035BCBDF80621DFF8EC1D24
S3150800059011A803F021FD11A9002002F01FFE050095
S315080005A0EDB2002D03D02800C0B202F022BCDFF85D
S315080005B0D01D11A803F010FD3CA911A803F026FDD3
S315080005C0DFF8C01D11A803F021FD0DF1F70111A8F0
S315080005D003F01CFDB1A111A803F018FD1BE003F000
S315080005E039FE0500EDB2002D05D1DFF8E41D11A88E
S315080005F002F01CFD06E0DFF8DC1D11A802F016FD6E
S315080006000020050007E000BF00000000DFF8C81D55
S3150800061011A802F00BFD02F06ABB5FFA88F8B8F180
S31508000620010F40F02681052004F032FD00280BD08A
S3150800063055A806F0F3F80500EDB2002D17D1C5A8A8
S3150800064005F066FD050012E0062004F021FD0028ED
S315080006500BD055A805F0F8F90500EDB2002D06D126
S31508000660C5A804F086FE050001E001200500EDB2EC
S31508000670002D40F0FC80DFF8EC1D11A802F0D6FC36
S3150800068011A9002002F0AAFD0500EDB2002D03D045
S315080006902800C0B202F0ADBB00200600092E80F289
S315080006A0D380002E0FD0022E35D020D3042E5AD058
S315080006B045D3062E00F07F8069D3082E00F0A3806C
S315080006C0C0F08D80B2E0BDF86A010390C6A8C01CD0
S315080006D0029056A8C01C0190C5A8009055AB0DF510
S315080006E0B172DFF8841D11A803F076FC9EE0BDF810
S315080006F082010390CCA8C01C02905CA8C01C019083
S31508000700CBA800905BAB0DF5BD72DFF8EC1D11A808
S3150800071003F062FC8AE0BDF89A010390D2A8C01CD7
S31508000720029062A8C01C0190D1A8009061AB0DF59B
S31508000730C972DFF8C41D11A803F04EFC76E0BDF8B7
S31508000740B2010390D8A8C01C029068A8C01C0190EA
S31508000750D7A8009067AB0DF5D572DFF89C1D11A8D8
S3150800076003F03AFC62E0BDF8CA010390DEA8C01C9B
S3150800077002906EA8C01C0190DDA800906DAB0DF527
S31508000780E172DFF8741D11A803F026FC4EE0BDF8EF
S31508000790E2010390E4A8C01C029074A8C01C019052
S315080007A0E3A8009073AB0DF5ED72DFF84C1D11A8A8
S315080007B003F012FC3AE0BDF8FA010390EAA8C01C5F
S315080007C002907AA8C01C0190E9A8009079AB0DF5B3
S315080007D0F972DFF8241D11A803F0FEFB26E0BDF828
S315080007E012020390F0A8C01C029080A8C01C0190B9
S315080007F0EFA800907FAB82AA921CDFF8FC1C11A818
S3150800080003F0EAFB12E0BDF82A020390F6A8C01C22
S31508000810029086A8C01C0190F5A8009085AB88AA0E
S31508000820921CDFF8D41C11A803F0D6FB11A90020EE
S3150800083002F0D4FC0500EDB2002D03D02800C0B2AA
S3150800084002F0D7BA761C29E7DFF8D81D11A803F0FD
S31508000850C3FB44A911A803F0D9FB10A111A803F002
S31508000860D5FBDFF8C41D11A803F0B6FB48E102F07A
S315080008703EBA6078302813D0312800F036814928EE
S3150800088040F03E8105F08EFB0500EDB2002D04D147
S31508000890DFF8DC1D11A802F0C9FB31E10D0A0000E2
S315080008A0052004F0F5FB00280BD055A805F0B6FF87
S315080008B00500EDB2002D17D1C5A805F029FC0500E5
S315080008C012E0062004F0E4FB00280BD055A805F03A
S315080008D0BBF80500EDB2002D06D1C5A804F049FD08
S315080008E0050001E001200500EDB2002D40F0FC8076
S315080008F0DFF8701B11A802F099FB11A9002002F07D
S315080009006DFC0500EDB2002D03D02800C0B202F040
S3150800091070BA00200600092E80F2D380002E0FD070
S31508000920022E35D020D3042E5AD045D3062E00F0F9
S315080009307F8069D3082E00F0A380C0F08D80B2E0D6
S31508000940BDF86A010390C6A8C01C029056A8C01C30
S315080009500190C5A8009055AB0DF5B172DFF8081BDC
S3150800096011A803F039FB9EE0BDF882010390CCA8DC
S31508000970C01C02905CA8C01C0190CBA800905BAB81
S315080009800DF5BD72DFF8701B11A803F025FB8AE090
S31508000990BDF89A010390D2A8C01C029062A8C01C98
S315080009A00190D1A8009061AB0DF5C972DFF8481B1C
S315080009B011A803F011FB76E0BDF8B2010390D8A8A0
S315080009C0C01C029068A8C01C0190D7A8009067AB0D
S315080009D00DF5D572DFF8201B11A803F0FDFA62E0C9
S315080009E0BDF8CA010390DEA8C01C02906EA8C01C00
S315080009F00190DDA800906DAB0DF5E172DFF8F81AED
S31508000A0011A803F0E9FA4EE0BDF8E2010390E4A864
S31508000A10C01C029074A8C01C0190E3A8009073AB98
S31508000A200DF5ED72DFF8D01A11A803F0D5FA3AE001
S31508000A30BDF8FA010390EAA8C01C02907AA8C01C67
S31508000A400190E9A8009079AB0DF5F972DFF8A81ABC
S31508000A5011A803F0C1FA26E0BDF812020390F0A827
S31508000A60C01C029080A8C01C0190EFA800907FAB24
S31508000A7082AA921CDFF8801A11A803F0ADFA12E0D8
S31508000A80BDF82A020390F6A8C01C029086A8C01CCE
S31508000A900190F5A8009085AB88AA921CDFF8581A31
S31508000AA011A803F099FA11A9002002F097FB050096
S31508000AB0EDB2002D03D02800C0B202F09AB9761C18
S31508000AC029E7DFF8601B11A803F086FA44A911A8E4
S31508000AD003F09CFAC7A111A803F098FADFF8481B9F
S31508000AE011A803F079FA0BE00AE005F0C6FA05004A
S31508000AF0EDB2002D04D1DFF8C81D11A802F096FA50
S31508000B0002F0F5B85FFA88F8B8F1010F42D142A8A9
S31508000B1006F0F9FC0500EDB2002D03D18BA806F00E
S31508000B2079FC0500EDB2002D26D1DFF8981D11A835
S31508000B3002F07CFA11A9002002F050FB0500EDB284
S31508000B40002D03D02800C0B202F053B9DFF8E01D2B
S31508000B5011A803F041FA44A911A803F057FAA5A170
S31508000B6011A803F053FA11A9002002F037FB05007B
S31508000B70EDB2002D02D105E002F0B9B82800C0B2E6
S31508000B8002F037B98BAB42AADFF8A81D11A803F00B
S31508000B9023FA2CE16078302816D0312856D032282E
S31508000BA000F09980332800F0DB80492840F01A814C
S31508000BB006F000F90500EDB2002D04D1DFF8781D26
S31508000BC011A802F033FA12E142A806F0CAF90500A4
S31508000BD0EDB2002D03D18BA806F047F90500EDB25A
S31508000BE0002D26D1DFF87C1811A802F01FFA11A9EA
S31508000BF0002002F0F3FA0500EDB2002D03D028001C
S31508000C00C0B202F0F6B8DFF81C1A11A803F0E4F92E
S31508000C1044A911A803F0FAF976A111A803F0F6F988
S31508000C2011A9002002F0DAFA0500EDB2002D01D173
S31508000C3004E0DCE02800C0B202F0DBB88BAB42AAC5
S31508000C40DFF8641D11A803F0C7F9D0E0C1A806F0C3
S31508000C507BFA0500EDB2002D04D10DF5856006F08E
S31508000C60F7F90500EDB2002D27D1DFF8401D11A8D0
S31508000C7002F0DCF911A9002002F0B0FA0500EDB285
S31508000C80002D03D02800C0B202F0B3B8DFF8201D4B
S31508000C9011A803F0A1F9C3A9491C11A803F0B6F9D4
S31508000CA054A111A803F0B2F911A9002002F096FA8E
S31508000CB00500EDB2002D01D104E098E02800C0B28D
S31508000CC002F097B80DF58563C1AADFF8E41D11A8EF
S31508000CD003F082F98BE0BDA806F027FB0500EDB20C
S31508000CE0002D04D10DF5836006F0A5FA0500EDB2D6
S31508000CF0002D27D1DFF8BC1D11A802F097F911A91C
S31508000D00002002F06BFA0500EDB2002D03D0280092
S31508000D10C0B202F06EB8DFF8A01D11A803F05CF9A6
S31508000D20BFA9491C11A803F071F932A111A803F053
S31508000D306DF911A9002002F051FA0500EDB2002D57
S31508000D4001D104E053E02800C0B202F052B80DF514
S31508000D508363BDAADFF8C41D11A803F03DF946E078
S31508000D6042A806F0D0FB0500EDB2002D03D18BA8F2
S31508000D7006F050FB0500EDB2002D26D1DFF8441B26
S31508000D8011A802F053F911A9002002F027FA05006C
S31508000D90EDB2002D03D02800C0B202F02AB8DFF861
S31508000DA0901B11A803F018F944A911A803F02EF90D
S31508000DB010A111A803F02AF911A9002002F00EFAD1
S31508000DC00500EDB2002D01D104E010E02800C0B204
S31508000DD002F00FB88BAB42AADFF8581B11A803F034
S31508000DE0FBF804E0DFF8F01511A802F01FF901F08E
S31508000DF07EBF00BF0D0A00005FFA88F8B8F1010F40
S31508000E0055D14BA806F0E6FD0500EDB2002D03D13D
S31508000E10FBA806F05CFC0500EDB2002D26D1DFF834
S31508000E20A41D11A802F002F911A9002002F0D6F9B2
S31508000E300500EDB2002D03D02800C0B201F0D9BFDD
S31508000E40DFF8841D11A803F0C7F84DA911A803F00F
S31508000E50DDF8BDA111A803F0D9F811A9002002F008
S31508000E60BDF90500EDB2002D02D105E001F03FBF46
S31508000E702800C0B201F0BDBFBDF83C21DFF84C1D0B
S31508000E8011A803F0A9F811A9002002F0A7F9050096
S31508000E90EDB2002D03D02800C0B201F0AABFFBAB0B
S31508000EA04BAADFF82C1D11A803F096F8CEE060785F
S31508000EB0302815D0312867D0492840F0C78006F079
S31508000EC0B3FB0500EDB2002D04D1DFF8EC1D11A827
S31508000ED002F0ACF8BAE000BF703600200C590108E1
S31508000EE04BA806F077FD0500EDB2002D26D1DFF8F8
S31508000EF0D41C11A802F09AF811A9002002F06EF984
S31508000F000500EDB2002D03D02800C0B201F071BF74
S31508000F10DFF8B41C11A803F05FF84DA911A803F077
S31508000F2075F889A111A803F071F811A9002002F03B
S31508000F3055F90500EDB2002D01D104E086E0280040
S31508000F40C0B201F056BFBDF83C21DFF8801C11A8DD
S31508000F5003F042F811A9002002F040F90500EDB2AD
S31508000F60002D03D02800C0B201F043BFDFF8AC1D46
S31508000F7011A803F031F84BA911A803F047F872A19C
S31508000F8011A803F043F861E03CA807F022F8050031
S31508000F90EDB2002D2ED1DFF82C1C11A802F046F870
S31508000FA011A9002002F01AF90500EDB2002D0BD0A8
S31508000FB02800C0B201F01DBF10550108145F0108D2
S31508000FC0346801083C5F0108DA4911A803F004F8FF
S31508000FD00DF1FE0111A803F019F85BA111A803F0A1
S31508000FE015F811A9002002F0F9F80500EDB2002D58
S31508000FF001D104E02AE02800C0B201F0FABEBDF82B
S315080010000621DE4911A802F0E7FF11A9002002F027
S31508001010E5F80500EDB2002D03D02800C0B201F0B6
S31508001020E8BED74911A802F0D7FF3CA911A802F0DB
S31508001030EDFFD44911A802F0E9FF0DF1F70111A857
S3150800104002F0E4FF40A111A802F0E0FF01F04FBE54
S31508001050DFF8C01D11A801F0E9FF01F048BEDFF86E
S31508001060B81D11A801F0E2FF01F041BE546801085D
S31508001070645F0108746801083CA807F0DFF90500F9
S31508001080EDB2002D04D10DF5806007F02BF90500AF
S31508001090EDB2002D2CD1DFF8C01D11A801F0C6FF56
S315080010A011A9002002F09AF80500EDB2002D03D030
S315080010B02800C0B201F09DBE9E4911A802F08CFF1F
S315080010C00DF1FE0111A802F0A1FF1FA111A802F05F
S315080010D09DFF11A9002002F081F80500EDB2002D50
S315080010E008D10BE08C5F010894680108B45F010819
S315080010F001F0FDBD2800C0B201F07BBEBDF8062197
S315080011009E4911A802F068FF11A9002002F066F8AE
S315080011100500EDB2002D03D02800C0B201F069BE6B
S31508001120FFA80B3001900DF1F70000900DF58063D4
S315080011303CAADFF8DC1D11A802F04EFF01F0D7BD6E
S31508001140C8770108C87201080D0A0000EC63010897
S31508001150DC5F01085FFA88F8B8F1010F68D1B3A817
S3150800116007F01CFB0500EDB2002D5FD1DFF8A41DCA
S3150800117011A801F05BFF11A9002002F02FF8050065
S31508001180EDB2002D03D02800C0B201F032BEDFF860
S31508001190C41D11A802F020FF11A9002002F01EF8B4
S315080011A00500EDB2002D03D02800C0B201F021BE23
S315080011B0DFF8A41D11A801F039FFB9A911A802F09A
S315080011C025FFCEA111A802F021FF11A9002002F0E7
S315080011D005F80500EDB2002D03D02800C0B201F0D5
S315080011E008BEDFF8B41D11A801F020FFB3A911A8A5
S315080011F002F00CFFDFF8A41D11A802F007FFB5A93D
S3150800120011A802F003FFDFF8D41D11A802F0FEFEB4
S31508001210B7A911A802F0FAFEB8A111A802F0F6FEC5
S315080012202EE200BF046001082C60010801F05FBDD2
S315080012306078302800F06481312800F0C4813228B3
S3150800124000F0E381332800F0F281492840F0138248
S315080012505FFA88F8B8F1020F0CD107F09DF905007E
S31508001260EDB2002D40F04681DFF8B01D11A801F05F
S31508001270DDFE3FE15FFA88F8B8F11D0F10D0DFF800
S31508001280A01D11A801F0D2FE34E100BF445901089F
S31508001290DC72010840740108F475010854600108FD
S315080012A0A0783A2817D160792E2814D1207A2E28CA
S315080012B011D1E07A2E280ED1A07B2E280BD1607C86
S315080012C02E2808D1207D2E2805D1E07D2E2802D192
S315080012D0A07E2E2805D0DFF8C01D11A801F0A6FEB5
S315080012E008E10020359000200600092E2BDA03209D
S315080012F000FB06F0204490F903008DF83000032027
S3150800130000FB06F0204490F904008DF83100002017
S315080013108DF832000CA801F08DFD00280CD1DFF8FD
S31508001320B81D11A801F082FE012035900BE000BF20
S315080013307C600108F07201080CA801F0A0FD8FA9D5
S315080013408855761CD1E79DF83C02082805DBDFF8AE
S31508001350C81D11A801F06AFE92E19DF83C0210F042
S3150800136007008DF8C1009DF83D0202280CDBDFF866
S31508001370AC1D11A801F05AFE82E100BFB46801084D
S3150800138050740108607401089DF83D0210F00100D0
S31508001390C0B2C0008DF8C0009DF83E02022805DBE9
S315080013A0DFF8B81D11A801F041FE69E19DF83E027B
S315080013B010F00100C0B200018DF8BF009DF83F0291
S315080013C002280BDBDFF8981D11A801F02FFE57E164
S315080013D0A4600108CC600108D46801089DF83F02A2
S315080013E010F00100C0B240018DF8BE009DF8400221
S315080013F0402805DBDFF8A81D11A801F017FE3FE11C
S315080014009DF8400210F03F008DF8BD009DF841029E
S31508001410022805DBDFF8C81D11A801F007FE2FE139
S315080014209DF8410210F00100802148438DF8BC0068
S315080014309DF84202042805DBDFF8A81D11A801F073
S31508001440F5FD1DE19DF8420210F003008DF83F00FE
S315080014509DF84302042809DBDFF8C81D11A801F02E
S31508001460E5FD0DE110640108605B01089DF8430283
S3150800147010F00300C0B280008DF83E009DF84402CB
S31508001480022805DBDFF8A01D11A801F0CFFDF7E063
S315080014909DF8440210F00100C0B200018DF83D002D
S315080014A09DF8C1009DF8C01008189DF8BF100818CF
S315080014B09DF8BE1008188DF8E8009DF8BD009DF847
S315080014C0BC1008188DF8E9009DF83F009DF83E10FD
S315080014D008189DF83D1008188DF8EA003AA807F094
S315080014E083F80500EDB2002D04D1DFF8B41D11A86C
S315080014F001F09CFDC4E000BF905B01080D0A0000E6
S31508001500B3A807F04BF90500EDB2002D5AD1DFF864
S31508001510041A11A801F08AFD11A9002001F05EFE47
S315080015200500EDB2002D03D02800C0B201F061BC61
S31508001530DFF8201A11A802F04FFD11A9002001F0CA
S315080015404DFE0500EDB2002D03D02800C0B201F013
S3150800155050BCDFF8041A11A801F068FDB9A911A852
S3150800156002F054FDD5A111A802F050FD11A90020E2
S3150800157001F034FE0500EDB2002D03D02800C0B2FC
S3150800158001F037BCDFF8101A11A801F04FFDB3A916
S3150800159011A802F03BFDDFF8041A11A802F036FD87
S315080015A0B5A911A802F032FDDFF8301A11A802F029
S315080015B02DFDB7A911A802F029FDC0A111A802F0B6
S315080015C025FD5DE05CE047A807F0A1F80500EDB24F
S315080015D0002D19D1DFF8781D11A801F027FD9DF817
S315080015E01C21DFF8701D0CA802F0F6FC0CA911A846
S315080015F002F00CFD47A9491C11A802F007FDAFA18E
S3150800160011A802F003FD3BE03AE007F017F80500E1
S31508001610EDB2002D0AD1DFF8401D11A801F006FD34
S315080016202EE000BF686D01080473010828E049A888
S3150800163007F026F80500EDB2002D1BD1DFF81C1DBA
S3150800164011A801F0F3FC9DF82421DFF8081D0CA869
S3150800165002F0C2FC0CA911A802F0D8FC49A9491C41
S3150800166011A802F0D3FC95A111A802F0CFFC07E05F
S315080016707C59010804E0DFF8E81C11A801F0D6FC43
S3150800168001F035BB607844280AD0552811D10420CA
S3150800169007F0CEF9DFF8C41D11A801F0C7FC0DE06C
S315080016A0042007F0D3F9DFF8B81D11A801F0BEFC35
S315080016B004E0DFF8B01D11A801F0B8FC01F017BB73
S315080016C05FFA88F8B8F1020F06DADFF89C1D11A850
S315080016D001F0ACFC01F006BB6078432800F07A8282
S315080016E0442801F0B08149280AD04B2801F0C88166
S315080016F04D2801F0D682522801F0B18101F0EEBAE8
S315080017005FFA88F8B8F1090F05DADFF8601D11A845
S3150800171001F08CFC53E2A078512800F0BC81C0F09F
S315080017204982532802D0C0F0A38043E2E0783A28E1
S3150800173002D1A0792E2805D0DFF8B41D11A801F032
S3150800174075FC94E094F904008DF8300094F90500CE
S315080017508DF8310000208DF832000CA801F06AFBE4
S31508001760002805D1DFF88C1D11A801F05FFC7EE08A
S315080017700CA801F084FB109094F907008DF830004E
S3150800178094F908008DF8310000208DF832000CA875
S3150800179001F050FB002805D1DFF8DC1D11A801F087
S315080017A045FC64E00CA801F06AFB319031980028EA
S315080017B006D1109ADFF8C41D11A802F00DFC2DE021
S315080017C000203590002006003198864226DA03204C
S315080017D000FB06F0204490F90A008DF8300003203B
S315080017E000FB06F0204490F90B008DF8310000202C
S315080017F08DF832000CA801F01DFB002807D1DFF890
S31508001800F41C11A801F012FC0120359006E00CA882
S3150800181001F035FB8FA98855761CD5E73598002841
S3150800182005D1109ADFF8D81D11A802F0D5FB0020C3
S315080018300600319886420BDA8FA8825DB8A10CA8FB
S3150800184002F0CAFB0CA911A802F0E0FB761CF0E72F
S315080018501AA111A802F0DAFB4FF4FA7331980200C4
S3150800186092B28FA9109880B207F00EFA0500A6E189
S31508001870E0783A2805D1A0792E2802D1607A2E2858
S3150800188005D0DFF8801D11A801F0D0FB02E194F91C
S3150800189004008DF8300094F905008DF83100002019
S315080018A08DF832000CA801F0C5FA00280CD1DFF833
S315080018B0D81D11A801F0BAFBECE000BF0D0A000024
S315080018C00C5D0108F46001080CA801F0D8FA109024
S315080018D094F907008DF8300094F908008DF8310066
S315080018E000208DF832000CA801F0A4FA002805D1D2
S315080018F0DFF8981D11A801F099FBCBE00CA801F0C0
S31508001900BEFA319094F90A008DF8300094F90B006C
S315080019108DF8310000208DF832000CA801F08AFA03
S3150800192000280BD1DFF8E81D11A801F07FFBB1E014
S31508001930806D0108306C0108385D01080CA801F0BB
S315080019409EFA39903198002806D1109ADFF8C41DFE
S3150800195011A802F041FB34E0002035900020060073
S31508001960319886422DDA032000FB06F0204490F9D0
S315080019700D008DF83000032000FB06F0204490F996
S315080019800E008DF8310000208DF832000CA801F009
S3150800199051FA00280ED1DFF8001E11A801F046FB07
S315080019A0012035900DE000BF4C6C01083464010835
S315080019B0187301080CA801F062FA8FA98855761CDD
S315080019C0CEE73598002805D1109ADFF8D01D11A862
S315080019D002F002FB00200600319886420BDA8FA837
S315080019E0825D4FA10CA802F0F7FA0CA911A802F023
S315080019F00DFB761CF0E7CAA111A802F007FB4FF40D
S31508001A00FA733198020092B28FA9109880B207F043
S31508001A103BF90500EDB2002D0ED14FF4FA73399853
S31508001A20020092B28FA9109880B207F078F90500E3
S31508001A30EDB2002D05D100E0C1E0142007F0AAF9A7
S31508001A400500EDB2002D25D111A9002001F0C6FB35
S31508001A500500EDB2002D03D02800C0B201F0C9B9C7
S31508001A60DFF8FC1D11A802F0B7FA00200600399825
S31508001A7086420BDA8FA8825D29A10CA802F0ACFA7F
S31508001A800CA911A802F0C2FA761CF0E7A4A111A8C5
S31508001A9002F0BCFA93E0E0783A2802D1A0792E2821
S31508001AA00CD0DFF8C01D11A801F0C0FA81E000BF14
S31508001AB0986D0108F46801082C73010894F904006C
S31508001AC08DF8300094F905008DF8310000208DF866
S31508001AD032000CA801F0AEF9002805D1DFF8081E7F
S31508001AE011A801F0A3FA64E00CA801F0C8F9109057
S31508001AF094F907008DF8300094F908008DF8310044
S31508001B0000208DF832000CA801F094F9002809D1BC
S31508001B10DFF8D81D11A801F089FA4AE040730108D8
S31508001B2025782E000CA801F0AAF93990109ADFF84A
S31508001B30E41B11A802F050FA4FF4FA733998020020
S31508001B4092B28FA9109880B207F0E9F80500EDB2B5
S31508001B50002D07D1142007F01DF90500EDB2002D60
S31508001B6027D100E02BE011A9002001F037FB050082
S31508001B70EDB2002D03D02800C0B201F03AB9DFF863
S31508001B80E01C11A802F028FA0020060039988642BF
S31508001B900BDA8FA8825DCEA10CA802F01DFA0CA95B
S31508001BA011A802F033FA761CF0E75DA111A802F03D
S31508001BB02DFA04E0DFF8A81711A801F037FA01F0AA
S31508001BC091B800BFB06D0108C86D010858640108D6
S31508001BD0E06D0108002005005FFA88F8B8F1020FE9
S31508001BE07AD1052003F054FA002804D055A804F049
S31508001BF08FFA05000BE0062003F04AFA002804D005
S31508001C0055A803F0B6FB050001E001200500EDB27A
S31508001C10002D5AD13CA806F065FB0500EDB2002D53
S31508001C204CD14BA805F053FD0500EDB2002D3BD174
S31508001C30ACA802F023FA0500EDB2002D2DD1ACA810
S31508001C4009904BA808903CA8079055A8069085A827
S31508001C5005907FA8049079A8039073A802906DA8B0
S31508001C60019067A8009061AB5BAADFF8041E11A873
S31508001C7002F0B2F911A9002001F0B0FA0500EDB2A0
S31508001C80002D03D02800C0B201F0B3B8DFF8E41D78
S31508001C9011A802F0A1F900F0D5BEDFF8DC1D11A8E5
S31508001CA002F09AF900F0CEBEDFF8D01D11A802F0B6
S31508001CB093F900F0C7BE00BF645D0108DFF8081E8F
S31508001CC011A802F089F900F0BDBEDFF8001E11A8C0
S31508001CD002F082F900F0B6BEA078492800F0A48682
S31508001CE0522800F01083532804D0542800F0728636
S31508001CF000F0A8BEE0783A2805D0DFF8D41D11A870
S31508001D0001F094F9FEE25FFA88F8B8F1050F09DAEE
S31508001D10DFF8C01D11A801F089F9F3E27074010813
S31508001D200D0A0000201D3290329950A801F07EF964
S31508001D3000200B9000200A900AA800900BAB36AA48
S31508001D40DFF8081E50A807F00DF9032840F0D582E1
S31508001D500A9807F019F9CDE902010B9807F014F96A
S31508001D60CDE9000136AADFF8E81D11A802F034F91A
S31508001D700422DFF8E01D36A807F02DF9002814D153
S31508001D800B9A0A99002007F0A3F90500EDB2002D79
S31508001D9005D1DFF8E81D11A802F01EF9AAE2DFF85E
S31508001DA0E01D11A802F018F9A4E20422DFF8D41DF8
S31508001DB036A807F010F9002814D10B9A0A990120C1
S31508001DC007F086F90500EDB2002D05D1DFF8B81D3C
S31508001DD011A802F001F98DE2DFF8A41D11A802F09E
S31508001DE0FBF887E20422DFF8A41D36A807F0F3F80B
S31508001DF0002819D10B9A0A99022007F069F90500FB
S31508001E00EDB2002D0AD1DFF8FC1D11A802F0E4F8A6
S31508001E1070E200BFC05B0108F86D0108DFF8601DBD
S31508001E2011A802F0D9F865E20422DFF8DC1D36A80D
S31508001E3007F0D1F8002817D10B9A0A99032007F062
S31508001E4047F90500EDB2002D08D1DFF8C01D11A82D
S31508001E5002F0C2F84EE200BF54730108DFF8201DF5
S31508001E6011A802F0B9F845E20422DFF8F41D36A8F5
S31508001E7007F0B1F8002814D10B9A0A99042007F044
S31508001E8027F90500EDB2002D05D1DFF8041E11A8CB
S31508001E9002F0A2F82EE2DFF8E81C11A802F09CF87E
S31508001EA028E20422DFF8EC1D36A807F094F800288B
S31508001EB016D10B9A0A99052007F00AF90500EDB222
S31508001EC0002D07D1DFF8F81D11A802F085F811E2F8
S31508001ED025782E00DFF8A81C11A802F07DF809E283
S31508001EE00422DFF8F01D36A807F075F8002819D186
S31508001EF00B9A0A99062007F0EBF80500EDB2002DBB
S31508001F000AD1DFF8D41D11A802F066F8F2E100BF85
S31508001F101C610108686C0108DFF8641C11A802F04E
S31508001F205BF8E7E10422DFF8D81D36A807F053F876
S31508001F30002819D10B9A0A99072007F0C9F8050055
S31508001F40EDB2002D0AD1DFF8BC1D11A802F044F845
S31508001F50D0E100BFB459010880740108DFF8201CDD
S31508001F6011A802F039F8C5E10422DFF8D41D36A815
S31508001F7007F031F8002819D10B9A0A99082007F0BA
S31508001F80A7F80500EDB2002D0AD1DFF8CC1D11A87F
S31508001F9002F022F8AEE100BF007601080C760108CF
S31508001FA0DFF8DC1B11A802F017F8A3E10422DFF81A
S31508001FB0C01D36A807F00FF8002817D10B9A0A9902
S31508001FC0092007F085F80500EDB2002D08D1DFF8E5
S31508001FD0C01D11A802F000F88CE100BF18760108B0
S31508001FE0DFF89C1B11A801F0F7FF83E10422DFF854
S31508001FF0A41D36A806F0EFFF002819D10B9A0A99F6
S315080020000A2007F065F80500EDB2002D0AD1DFF8C1
S31508002010B81D11A801F0E0FF6CE100BF805401086B
S3150800202054550108DFF8581B11A801F0D5FF61E1E6
S315080020300422DFF8981D36A806F0CDFF002814D133
S315080020400B9A0A990B2007F043F80500EDB2002D0C
S3150800205005D1DFF8A81D11A801F0BEFF4AE1DFF897
S31508002060201B11A801F0B8FF44E10422DFF8901DF7
S3150800207036A806F0B0FF002816D10B9A0A990C204C
S3150800208007F026F80500EDB2002D07D1DFF8741D1C
S3150800209011A801F0A1FF2DE1C8540108DFF8E01AE4
S315080020A011A801F099FF25E10422DFF85C1D36A886
S315080020B006F091FF002817D10B9A0A990D2007F010
S315080020C007F80500EDB2002D08D1DFF8401D11A86C
S315080020D001F082FF0EE100BF5C560108DFF8A01A86
S315080020E011A801F079FF05E10422DFF8241D36A8BE
S315080020F006F071FF002819D10B9A0A990E2006F0EE
S31508002100E7FF0500EDB2002D0AD1DFF8081D11A87A
S3150800211001F062FFEEE000BF1C580108585801089C
S31508002120DFF85C1A11A801F057FFE3E00422DFF894
S31508002130E81C36A806F04FFF002819D10B9A0A9911
S315080021400F2006F0C5FF0500EDB2002D0AD1DFF815
S31508002150CC1C11A801F040FFCCE000BF9458010840
S31508002160EC590108DFF8181A11A801F035FFC1E08B
S315080021700422DFF8AC1C36A806F02DFF002817D17C
S315080021800B9A0A99102006F0A3FF0500EDB2002D60
S3150800219008D1DFF8901C11A801F01EFFAAE000BFC5
S315080021A09C560108DFF8D81911A801F015FFA1E01F
S315080021B00422DFF8741C36A806F00DFF002819D192
S315080021C00B9A0A99112006F083FF0500EDB2002D3F
S315080021D00AD1DFF8581C11A801F0FEFE8AE000BFFC
S315080021E0DC5601081C570108DFF8941911A801F0FC
S315080021F0F3FE7FE00422DFF8381C36A806F0EBFE73
S31508002200002819D10B9A0A99122006F061FF0500D9
S31508002210EDB2002D0AD1DFF8C41C11A801F0DCFECE
S3150800222068E000BF5C5701089C570108DFF85019A1
S3150800223011A801F0D1FE5DE00422DFF8A41C36A83F
S3150800224006F0C9FE002814D10B9A0A99132006F045
S315080022503FFF0500EDB2002D05D1DFF8881C11A857
S3150800226001F0BAFE46E0DFF8181911A801F0B4FE2D
S3150800227040E00422DFF8701C36A806F0ACFE002801
S3150800228016D10B9A0A99142006F022FF0500EDB222
S31508002290002D07D1DFF8541C11A801F09DFE29E096
S315080022A098550108DFF8D81811A801F095FE21E025
S315080022B00422DFF83C1C36A806F08DFE002814D14F
S315080022C00B9A0A99152006F003FF0500EDB2002DBA
S315080022D005D1DFF8201C11A801F07EFE0AE0DFF820
S315080022E0A01811A801F078FE04E0DFF80C1C11A86C
S315080022F001F072FE0020050004E0DFF8001C11A8BA
S3150800230000F094FE9EE306F015FF0200DFF8F01BCE
S3150800231011A801F061FE11A9002000F05FFF050079
S31508002320EDB2002D03D02800C0B200F062BDDFF880
S31508002330D41B11A801F050FE11A9002000F04EFF91
S315080023400500EDB2002D0DD02800C0B200F051BD39
S3150800235014690108D0770108905A01087C640108BD
S31508002360D468010800200600162E80F22D83002E60
S3150800237033D0022E7CD050D3042E00F0BD80C0F09E
S315080023809780062E00F0FC80C0F0D680082E00F05C
S315080023903B81C0F015810A2E00F07A81C0F0548185
S315080023A00C2E00F0B981C0F093810E2E00F0F88152
S315080023B0C0F0D281102E00F03382C0F01182122EA6
S315080023C000F07282C0F05082142E00F0B182C0F084
S315080023D08F82152E00F0CC82E9E23000C0B206F0FA
S315080023E098FE83463000C0B206F099FE814630005A
S315080023F0C0B206F09AFE8246584606F0C5FDCDE9FB
S315080024000201484606F0C0FDCDE900015246DFF854
S31508002410F81A11A801F0E0FDC9E23000C0B206F0D2
S3150800242078FE83463000C0B206F079FE8146300059
S31508002430C0B206F07AFE8246584606F0A5FDCDE9FA
S315080024400201484606F0A0FDCDE900015246DFF834
S31508002450BC1A11A801F0C0FDA9E200BF3469010841
S3150800246054690108905D010874690108446101080E
S315080024703000C0B206F04DFE83463000C0B206F00A
S315080024804EFE81463000C0B206F04FFE82465846E0
S3150800249006F07AFDCDE90201484606F075FDCDE95C
S315080024A000015246DFF8681A11A801F095FD7EE290
S315080024B03000C0B206F02DFE83463000C0B206F0EA
S315080024C02EFE81463000C0B206F02FFE82465846E0
S315080024D006F05AFDCDE90201484606F055FDCDE95C
S315080024E000015246DFF82C1A11A801F075FD5EE2CC
S315080024F06C610108BC5D01083000C0B206F009FE37
S3150800250083463000C0B206F00AFE81463000C0B2EB
S3150800251006F00BFE8246584606F036FDCDE9020166
S31508002520484606F031FDCDE900015246DFF8E819C4
S3150800253011A801F051FD3AE23000C0B206F0E9FDFB
S3150800254083463000C0B206F0EAFD81463000C0B2CC
S3150800255006F0EBFD8246584606F016FDCDE9020167
S31508002560484606F011FDCDE900015246DFF8AC19E0
S3150800257011A801F031FD1AE2C45A0108106E0108CB
S315080025803000C0B206F0C5FD83463000C0B206F082
S31508002590C6FD81463000C0B206F0C7FD82465846E1
S315080025A006F0F2FCCDE90201484606F0EDFCCDE95D
S315080025B000015246DFF8681911A801F00DFDF6E191
S315080025C03000C0B206F0A5FD83463000C0B206F062
S315080025D0A6FD81463000C0B206F0A7FD82465846E1
S315080025E006F0D2FCCDE90201484606F0CDFCCDE95D
S315080025F000015246DFF82C1911A801F0EDFCD6E1CE
S3150800260068730108946101083000C0B206F081FDC4
S3150800261083463000C0B206F082FD81463000C0B263
S3150800262006F083FD8246584606F0AEFCCDE9020167
S31508002630484606F0A9FCCDE900015246DFF8E8183D
S3150800264011A801F0C9FCB2E13000C0B206F061FD84
S3150800265083463000C0B206F062FD81463000C0B243
S3150800266006F063FD8246584606F08EFCCDE9020167
S31508002670484606F089FCCDE900015246DFF8AC1859
S3150800268011A801F0A9FC92E1E85D0108F85A0108D1
S315080026903000C0B206F03DFD83463000C0B206F0F9
S315080026A03EFD81463000C0B206F03FFD82465846E0
S315080026B006F06AFCCDE90201484606F065FCCDE95C
S315080026C000015246DFF8681811A801F085FC6EE192
S315080026D03000C0B206F01DFD83463000C0B206F0D9
S315080026E01EFD81463000C0B206F01FFD82465846E0
S315080026F006F04AFCCDE90201484606F045FCCDE95C
S3150800270000015246DFF82C1811A801F065FC4EE1CD
S31508002710D0580108286E01083000C0B206F0F9FC4E
S3150800272083463000C0B206F0FAFC81463000C0B2DB
S3150800273006F0FBFC8246584606F026FCCDE9020167
S31508002740484606F021FCCDE900015246DFF8E817B5
S3150800275011A801F041FC2AE13000C0B206F0D9FC0C
S3150800276083463000C0B206F0DAFC81463000C0B2BB
S3150800277006F0DBFC8246584606F006FCCDE9020167
S31508002780484606F001FCCDE900015246DFF8AC17D1
S3150800279011A801F021FC0AE1BC6101087C7301085B
S315080027A03000C0B206F0B5FC83463000C0B206F071
S315080027B0B6FC81463000C0B206F0B7FC82465846E1
S315080027C006F0E2FBCDE90201484606F0DDFBCDE95D
S315080027D000015246DFF8681711A801F0FDFBE6E094
S315080027E03000C0B206F095FC83463000C0B206F051
S315080027F096FC81463000C0B206F097FC82465846E1
S3150800280006F0C2FBCDE90201484606F0BDFBCDE95C
S3150800281000015246DFF82C1711A801F0DDFBC6E0CF
S315080028203000C0B206F075FC83463000C0B206F030
S3150800283076FC81463000C0B206F077FC82465846E0
S3150800284006F0A2FBCDE90201484606F09DFBCDE95C
S3150800285000015246DFF8F01611A801F0BDFBA6E00C
S3150800286024760108E46101083000C0B206F051FC84
S3150800287083463000C0B206F052FC81463000C0B232
S3150800288006F053FC8246584606F07EFBCDE9020167
S31508002890484606F079FBCDE900015246DFF8AC164A
S315080028A011A801F099FB82E03000C0B206F031FCB5
S315080028B083463000C0B206F032FC81463000C0B212
S315080028C006F033FC8246584606F05EFBCDE9020167
S315080028D0484606F059FBCDE900015246DFF8701666
S315080028E011A801F079FB62E0145E01082C5B01086F
S315080028F03000C0B206F00DFC83463000C0B206F0C8
S315080029000EFC81463000C0B206F00FFC82465846DF
S3150800291006F03AFBCDE90201484606F035FBCDE95B
S3150800292000015246DFF82C1611A801F055FB3EE0CF
S315080029303000C0B206F0EDFB83463000C0B206F0A8
S31508002940EEFB81463000C0B206F0EFFB82465846E1
S3150800295006F01AFBCDE90201484606F015FBCDE95B
S3150800296000015246DFF8F01511A801F035FB1EE00C
S315080029703000C0B206F0CDFB83463000C0B206F088
S31508002980CEFB81463000C0B206F0CFFB82465846E1
S3150800299006F0FAFACDE90201484606F0F5FACDE95D
S315080029A000015246DFF8B41511A801F015FB11A96C
S315080029B0002000F013FC0500EDB2002D02D028001F
S315080029C0C0B216E2761CCFE4DFF8941511A801F020
S315080029D003FB37E0E0783A2805D0DFF8881511A818
S315080029E000F024FB1FE05FFA88F8B8F1050F05DA56
S315080029F0DFF8741511A800F019FB14E0201D3290B9
S31508002A00329950A800F012FB329806F07AFB0500BE
S31508002A10EDB2002D02D02800C0B2EAE1DFF8401579
S31508002A2011A801F0D9FA0DE006F007FB0500EDB292
S31508002A30002D02D02800C0B2DBE1DFF8241511A86A
S31508002A4001F0CAFA4EE102F069FBADF8C200BDF822
S31508002A50C220DFF8181511A801F0BEFA42E106F007
S31508002A601CFCDFF80C1511A801F0B6FA3AE100BF14
S31508002A700C62010830760108406E0108586E01089C
S31508002A80002005005FFA88F8B8F1040F05DADFF8C8
S31508002A90E41411A800F0CAFA02E1A078522800F05E
S31508002AA0C680532840F0F880E078522802D0532890
S31508002AB05BD0B6E020793A280ED0DFF8BC1411A80E
S31508002AC000F0B4FA50E000BFA0640108C46401082D
S31508002AD034620108E86401085FFA88F8B8F1060F5D
S31508002AE010DB01203390052006005FFA88F846457A
S31508002AF00ADAA05D06F002FC002801D10020339016
S31508002B00761CF2E7002033903398002805D1DFF8C9
S31508002B106C1411A800F08AFA26E0601D32903299EA
S31508002B2050A800F083FA50A806F0EDFB34903498CC
S31508002B3042F21071884202DA349800280CD5DFF880
S31508002B403C1411A800F072FA0EE000BF3C760108AA
S31508002B50706E0108D8770108349806F065FCDFF82E
S31508002B60201411A801F038FA60E020793A280FD02D
S31508002B70DFF8101411A800F059FA51E0846C010826
S31508002B80A06C0108E0770108886E0108E87701085B
S31508002B905FFA88F8B8F1060F10DB0120339005209C
S31508002BA006005FFA88F846450ADAA05D06F0A6FB35
S31508002BB0002801D100203390761CF2E700203390DC
S31508002BC03398002805D1DFF8C01311A800F02EFAB3
S31508002BD026E0601D3290329950A800F027FA50A8D6
S31508002BE006F091FB3490349842F21071884202DA6A
S31508002BF0349800280CD5DFF8901311A800F016FABF
S31508002C000EE000BF90730108F0770108A06E010876
S31508002C10349806F01EFCDFF8681311A801F0DCF9F9
S31508002C2004E0DFF8681311A800F000FA38E0E0784D
S31508002C30522802D0532815D024E006F01FFC06F0CF
S31508002C403BFCDFF84C1306F047FC06F09DF9020042
S31508002C500B00DFF8401311A801F0BEF916E000BF1B
S31508002C60F877010806F00DFC06F026FCC84906F0C0
S31508002C7033FC06F089F902000B00C74911A801F0D8
S31508002C80ABF903E0C14911A800F0D0F908E000BF8C
S31508002C90A473010800780108C04911A800F0C6F914
S31508002CA020E0BF4911A800F0C1F911A9002000F0E1
S31508002CB095FA0500EDB2002D04D02800C0B298E0C0
S31508002CC0B8730108B74911A800F0B0F90120B64950
S31508002CD0087007E008780108B86E0108AF4911A81E
S31508002CE000F0A4F903E0AD4911A800F09FF9EDB290
S31508002CF0002D09D0022D44D007D3032D4CD052E025
S31508002D0010780108D06E010853E006F039F83B90B8
S31508002D103B9801280AD002280DD0042812D008288A
S31508002D2015D010281AD020281DD023E09F4911A8B5
S31508002D3000F07CF922E09E4911A800F077F91DE021
S31508002D40187801089B4911A800F070F916E09A490D
S31508002D5011A800F06BF911E0E86E0108974911A86F
S31508002D6000F064F90AE0964911A800F05FF905E059
S31508002D7020780108934911A800F058F905F0DBFE00
S31508002D8017E0914911A800F051F905F0D4FE10E0BA
S31508002D90006F0108287801088C4911A800F046F947
S31508002DA005F0C9FE05E08A4911A800F03FF905F0CB
S31508002DB0C2FE11A9002000F011FA0500EDB2002D9F
S31508002DC006D02800C0B214E0186F01083078010850
S31508002DD0804911A800F02AF911A9002000F0FEF98F
S31508002DE00500EDB2002D02D02800C0B201E028008F
S31508002DF0C0B20DF5806D15B0BDE8F08F306F0108D3
S31508002E0038780108486F010840780108606F0108A2
S31508002E1048780108786F010850780108906F010812
S31508002E2058780108A86F010860780108C06F010882
S31508002E3068780108F8B50400200000F0CDF8050010
S31508002E400020070000200600AE4216DAA05D3A28E8
S31508002E5002DAA05D302805DAA05D472805DAA05D0C
S31508002E60412802DB0020070001E001200700012FAE
S31508002E7001D1002002E0761CE6E70120F2BD2DE92B
S31508002E80F041040000275FF00008200000F0A4F8D5
S31508002E90050000200600AE421ADAA05D3A2806DAD6
S31508002EA0A05D302803DBA05D303807000CE0A05D8C
S31508002EB0472806DAA05D412803DBA05D37380700FE
S31508002EC002E05FF0FF3004E017EB0818761CE2E733
S31508002ED04046BDE8F081344800787047D86F01084D
S31508002EE070780108F06F0108787801080870010801
S31508002EF0807801082070010894690108F05B0108D0
S31508002F00B46901080C65010838700108D46901081C
S31508002F1050700108F469010868700108807001089A
S31508002F2098700108B0700108C8700108E0700108BF
S31508002F30146A0108F870010810710108346A01085A
S31508002F40287101084071010858710108707101085B
S31508002F5088710108A0710108B8710108D0710108CB
S31508002F60CC7301085C62010830650108E871010844
S31508002F705465010884620108405E01087865010805
S31508002F80307601086C5E01089C650108C065010879
S31508002F9000002041AC620108985E0108D468010867
S31508002FA0BC6C0108D86C010870360020D462010890
S31508002FB0205C0108505C0108805C0108FC6201087D
S31508002FC0B05C0108246301084C63010874630108B6
S31508002FD09C6301088878010800F10103810704D081
S31508002FE010F8011B89B18107FAD10268B2F10131E3
S31508002FF0914311F0803F04BF50F8042FF6E710F80C
S31508003000011B11B110F8011BFBE7C01A70470368D2
S315080030101AB95A1E026008467047197800290FBF68
S315080030204FF0FF30591C0160187870475FEA000CB2
S31508003030830706D011F8013B00F8013BB3B18307BB
S31508003040F8D10A68B2F1013323EA020313F0803F8C
S3150800305002BF40F8042B51F8042FF3E711F8013B9F
S3150800306000F8013B13B111F8013BF9E760467047D8
S3150800307080B5DFF88004DFF8801408604FF49640C6
S31508003080DFF8741448600020DFF86C1488600020AC
S31508003090DFF86414C8600020DFF85C1408610C20AF
S315080030A0DFF8541448610020DFF84C1488610020CA
S315080030B0DFF84414C861DFF8400406F08BFA0028EC
S315080030C001D007F011FA01BD80B5DFF83004DFF84A
S315080030D0301408605FF4E130DFF8241448600020FB
S315080030E0DFF81C1488600020DFF81414C86000207C
S315080030F0DFF80C1408610C20DFF8041448614FF45B
S315080031004070DFF8FC1388610020DFF8F413C8610B
S31508003110DFF8EC0306F05EFA002801D007F0E4F9C0
S3150800312001BD10B586B004002068DFF8C8138842D0
S315080031301ED1DFF8D003006850F40030DFF8C4135E
S315080031400860DFF8C003006810F4003000900098AB
S315080031500C20019002200290012003900320049085
S315080031600720059001A9DFF8A00307F0D5F933E099
S315080031702068DFF8881388422ED1DFF888030068B4
S3150800318050F48020DFF87C130860DFF878030068C5
S3150800319010F48020009000984FF4406001900220BF
S315080031A0029001200390032004900720059001A9AE
S315080031B0DFF8580307F0B0F94FF4C0400190022039
S315080031C0029000200390032004900720059001A98F
S315080031D0DFF8380307F0A0F906B010BDF8B504000B
S315080031E00D002800FFF7F8FE0700BFB2792F01DBB4
S315080031F001203AE0E4B2002C19D1DFF81403007874
S31508003200002801D0022030E04FF400433A0092B281
S315080032102900DFF8E40206F016FA0600F6B2002ED8
S3150800322002D03000C0B220E03000C0B21DE0E4B2E7
S31508003230012C19D1DFF8DC020078002801D0022021
S3150800324013E04FF400433A0092B22900DFF8B002C7
S3150800325006F0F9F90600F6B2002E02D03000C0B228
S3150800326003E03000C0B200E00120F2BDF8B504006A
S315080032700D002800FFF7B0FE0700BFB2792F01DB6B
S31508003280012036E0E4B2002C17D1DFF8840200787A
S31508003290002801D002202CE03A0092B22900DFF87B
S315080032A0580206F04EFA0600F6B2002E02D030009A
S315080032B0C0B21EE03000C0B21BE0E4B2012C17D148
S315080032C0DFF850020078002801D0022011E03A0009
S315080032D092B22900DFF8280206F033FA0600F6B2A1
S315080032E0002E02D03000C0B203E03000C0B200E0C9
S315080032F00120F2BDDFF8200270470120DFF81C121A
S3150800330008707047854800787047F8B504000D00C6
S315080033101600B6B2792E01DB012032E0E4B2002CA9
S3150800332015D17B480078002801D0022029E0320018
S3150800333092B22900704806F03CFA0700FFB2002F47
S3150800334002D03800C0B21CE03800C0B219E0E4B2BE
S31508003350012C15D16F480078002801D0022010E012
S31508003360320092B22900664806F023FA0700FFB237
S31508003370002F02D03800C0B203E03800C0B200E027
S315080033800120F2BD10B504002000C0B200F006F816
S31508003390012801D0002000E0012010BD0100C9B2BB
S315080033A0002903D1544890F8390007E0C9B2012929
S315080033B003D1534890F8390000E0042070470168AB
S315080033C04C4A914203D10121514A117006E0016825
S315080033D04A4A914202D101214E4A11707047C0B241
S315080033E0002803D100214A4A117005E0C0B201281D
S315080033F002D10021474A1170704770B50400206851
S315080034003C49884203D10120414908704CE02068B4
S315080034103A49884248D1FFF775FF002824D003208F
S3150800342040490860FFF766FF3F4908603E48006864
S315080034304078401C0600002005003A48006885428E
S315080034400BDA39480068007800F072FB36480068E5
S31508003450401C354908606D1CEFE732480660314864
S3150800346000682F4908601CE0FFF744FF2E490860F2
S31508003470002005002B48006885420BDA2A480068B8
S31508003480007800F055FB28480068401C264908606B
S315080034906D1CEFE70320234908602248006820498D
S315080034A0086001201B49087070BD70471448006801
S315080034B0C06850F0800012490968C8607047104813
S315080034C00068C06850F480700D490968C8600C48E7
S315080034D00068406950F001000949096848610848D0
S315080034E00068C06850F0200005490968C860704740
S315080034F000000000004400409033002000480040CF
S31508003500D033002024380240000002400004024064
S315080035107336002074360020543500207536002096
S31508003520480000205C3600205836002038B50400D4
S315080035300D00DFF8A40700680471DFF89C0700682F
S315080035404571DFF89807DFF8901709680860DFF813
S3150800355088070068011DDFF880070068006807F023
S3150800356046FADFF87C070068001D32BD0020DFF848
S315080035707417A1F820030020DFF86C1781F896016C
S315080035800020DFF8641781F897010020DFF8581744
S3150800359081F898010020DFF8501781F8990100207A
S315080035A0DFF8441781F89A010120DFF83C1781F803
S315080035B09B017047401CC0B2C82800DB0020C0B27F
S315080035C0704738B504000D00002C27D0DFF818071F
S315080035D090F89301DFF8101791F8921188421BD0E2
S315080035E00020DFF8041781F89501DFF8FC06DFF8FC
S315080035F0F81691F89311084490F8CA0028706D1CC3
S31508003600DFF8E40690F89301FFF7D4FFDFF8D81641
S3150800361081F89301641ED7E7FFF751FF002032BDFA
S31508003620DFF8C40690F89501704780B5FFF79EFF4E
S31508003630062005F00BFA0FF2C530DFF8B016086061
S31508003640DFF8AC06DFF8AC160860DFF8AC06DFF882
S31508003650AC160860062005F0EBF901BD70B586B01A
S315080036600025DFF88406D0F89C01002805D107F06C
S31508003670ACF9DFF87416C1F89C01DFF86C06D0F8CF
S315080036809C01002800F0EF80DFF85C06D0F89C016A
S315080036900068DFF86C160840DFF84816DFF844269D
S315080036A0B2F8202341F82200DFF83806B0F82003E4
S315080036B0C0B2FFF77FFFDFF82C16A1F82003DFF86A
S315080036C02806D0F89C010068DFF834160840040084
S315080036D02000DFF8301688422AD0DFF82C168842F8
S315080036E058D0DFF82816884200F08280DFF82016C6
S315080036F0884229D0DFF81C16884279D0DFF81816D8
S31508003700884257D0DFF81416884200F09280DFF816
S31508003710101688425AD0DFF80C16884262D0DFF8B5
S315080037200816884264D0DFF8041688425AD08BE01F
S31508003730DFF8FC150020FFF751FD012005000120E8
S31508003740DFF8A41581F896010020DFF89C1581F8AA
S31508003750970102210220FFF7E9FE060030880028BB
S3150800376017D1EDB2002D0FD1DFF8C8150020FFF7ED
S3150800377035FD02210D2007F079F901F012FD0D2023
S3150800378007F0C4F905F089FD0020DFF85C15C1F8DB
S315080037909C0168E0DFF8A0150020FFF71FFD012057
S315080037A0DFF8441581F897010020DFF83C15C1F8C9
S315080037B09C0158E08FA10020FFF710FD01F0FEFCE8
S315080037C00020DFF82415C1F89C014CE08AA10020EE
S315080037D0FFF704FD01F0F2FC0020DFF80C15C1F834
S315080037E09C0140E00020DFF80015C1F89C013AE092
S315080037F0DFF848150020FFF7F1FCDFF8EC04D0F8F5
S315080038009C01807A00280ED0DFF8DC04D0F89C01F1
S3150800381010F10B02DFF82815684600F0DDFB694653
S315080038200020FFF7DBFC0020DFF8BC14C1F89C0180
S3150800383019E0DFF810150020FFF7D0FC0020DFF8AC
S31508003840A814C1F89C010EE02200DFF8FC146846B3
S3150800385000F0C2FB69460020FFF7C0FC0020DFF835
S315080038608814C1F89C0106B070BDDFF87C0490F896
S3150800387096017047DFF8700490F897017047DFF8F3
S31508003880680490F89801704700B585B0DFF85804C9
S3150800389090F89901032835D1DFF84C0490F89B017C
S315080038A0012801D101202EE0DFF83C0490F89A01A6
S315080038B0401CDFF8341481F89A01DFF82C0490F8DC
S315080038C09A21DFF88814684600F086FB69460020CE
S315080038D0FFF784FCDFF8100490F89A0105280FDB3F
S315080038E0DFF86C140020FFF779FC0221122007F09C
S315080038F0BDF801F056FC122007F008F905F0CDFCDA
S31508003900002000E0012005B000BDDFF8DC0390F8D8
S315080039109901032809D1DFF8D00390F89B01012803
S3150800392001D1012002E0002000E001207047DFF805
S31508003930B81381F89B017047DFF8AC1391F8991119
S31508003940032903D1DFF8A01381F89B017047DFF83C
S31508003950980390F899017047DFF88C1381F899015C
S31508003960704738B5040020680068000626D5DFF8D9
S31508003970780390F8C900DFF8701391F8C8108842E8
S3150800398015D0DFF86403DFF8601391F8C910415CBD
S3150800399089B2200000F0C1F8DFF84C0390F8C9009E
S315080039A0FFF708FEDFF8401381F8C90006E0206833
S315080039B0C0687FF0800108402168C86020680068F8
S315080039C010F00F000F2807D10020C74981F894018D
S315080039D0200000F0A8F80BE020680068800607D5EC
S315080039E0200000F0A0F805002800C0B200F0A0F8FA
S315080039F031BD00002D2A2D002D4F2D002DE9F04157
S31508003A0004000D0054F07F400600B648B549B1F8E9
S31508003A10201340F82160B348B0F82003C0B2FFF77E
S31508003A20C9FDB049A1F8200328786978090411EB83
S31508003A300060A97810EB0120E97808180600A94863
S31508003A40A849B1F8201340F82160A648B0F8200329
S31508003A50C0B2FFF7AFFDA349A1F820032879697919
S31508003A60090411EB0060A97910EB0120E97908181F
S31508003A7006009C489B49B1F8201340F821609948F4
S31508003A80B0F82003C0B2FFF795FD9649A1F82003C8
S31508003A904FF4FA600700002C3DD0934890F8C80010
S31508003AA0FFF788FD804640468F4991F8C910C0B295
S31508003AB088421ED028788C498B4A92F8C8208854A8
S31508003AC0272005F0E3FB884890F8C800864991F856
S31508003AD0C910884201D1FFF7E9FC834880F8C880FD
S31508003AE0272005F0CCFB641E6D1C4FF4FA60070016
S31508003AF0D1E73800471E0028CDD100207A4981F841
S31508003B00960102210F2006F0B1FF0F2006F0FEFFF6
S31508003B1005F0C3FBBFE7BDE8F08189B2CA05D20D3F
S31508003B2003685A60704700684068C005C00D704752
S31508003B3030B58FB0040087488749097844548648C9
S31508003B400078401C84490870E4B20A2C03D0E4B219
S31508003B503F2C40F0BD8000207F4908707D4A7F4990
S31508003B60684600F039FA69460020FFF737FB05007A
S31508003B70EDB2002D02D02800C0B2ABE0042278498D
S31508003B80744805F028FA00280DD10120564981F815
S31508003B9096010020544981F8980172490020FFF7E0
S31508003BA01DFB050094E009226F496A4805F013FADF
S31508003BB0002815D101204C4981F8970101204A496E
S31508003BC081F899010020484981F89A01674900203F
S31508003BD0FFF704FB66490020FFF700FB050077E0C6
S31508003BE00C2264495B4805F0F6F900281DD100202F
S31508003BF03D4981F8970100203B4981F89801012049
S31508003C00394981F899010020374981F89A015749BD
S31508003C100020FFF7E3FA00F059FB01F0D3FA564902
S31508003C200020FFF7DBFA050052E004225349494811
S31508003C3005F0D1F9002809D101202B4981F898010E
S31508003C404F490020FFF7CAFA050041E005224D4911
S31508003C50404805F0C0F9002824D1234890F8990176
S31508003C6002280DD10320204981F8990100201E4918
S31508003C7081F89A0144490020FFF7B0FA050027E0C9
S31508003C80194890F89901032822D10020164981F88D
S31508003C909A013E490020FFF7A1FA05000120FFF727
S31508003CA046FE15E008223A492A4805F094F9002804
S31508003CB009D10221112006F0D9FE112006F026FFAF
S31508003CC005F0EBFA04E033490020FFF787FA050010
S31508003CD02800C0B20FB030BD0C000020200203013E
S31508003CE010000020C8200020C02D0020103600201B
S31508003CF0C33500081436002021360008183600207F
S31508003D00F800FFFFA0000100A0000800A0000900BD
S31508003D10A0000801A000080220000A02A0000B0269
S31508003D20A0000A0320000A0520000908A0000020B8
S31508003D30C8740108F073010800740108F4670108E3
S31508003D40D4740108C06B0108E074010828720108E0
S31508003D503C7201082C3500206F360020DC6B010808
S31508003D60A076010810740108EC74010814680108AB
S31508003D70507201082074010830740108A8760108F9
S31508003D80506D0108B0760108F86B010864720108E5
S31508003D90F87401087872010800210800802804DAFE
S31508003DA000218A4A1154401CF8E770478848704732
S31508003DB0F8B504008021200006F0DCFF0500EDB20E
S31508003DC0002D02D02800C0B222E007F00AF805004C
S31508003DD000200600C82E0ADA07F003F80500EDB23F
S31508003DE0002D04D0052004F0F4FF761CF2E7C82E57
S31508003DF001DB03200CE0270000200600802E05DAF0
S31508003E003878803838707F1C761CF7E72800C0B2EF
S31508003E10F2BD2DE9F8436C48FFF7CAFF80465FFA02
S31508003E2088F8B8F1000F02D04046C0B241E0002041
S31508003E300700802F05DA6448C05D6549C8557F1CB0
S31508003E40F7E7FFF7A9FF0023072260495E4806F057
S31508003E50F5FF070017F1010F01D1012029E0002025
S31508003E600700402F23DA5848C05705F01BFB05000A
S31508003E705648C05705F016FB06002800290007F02B
S31508003E80B3F881463000310007F0AEF8494607F02E
S31508003E9017F905F079F807F055F907F0CBF904009A
S31508003EA0200007F00FFA4849C8557F1CD9E7404655
S31508003EB0C0B2BDE8F28370B582B0040000200500E8
S31508003EC040A1200000F088F800200600102E0BDA2A
S31508003ED03D4882573F49684600F07EF8694620000B
S31508003EE000F094F8761CF1E72800C0B276BD70B5EC
S31508003EF082B004000020050032A1200000F06CF812
S31508003F0000200600102E0DDA2F48304490F91020B4
S31508003F103049684600F060F86946200000F076F8F7
S31508003F20761CEFE72800C0B276BD70B582B00400F3
S31508003F300020050023A1200000F04EF8002006000E
S31508003F40102E0DDA2048304490F920202149684681
S31508003F5000F042F86946200000F058F8761CEFE7B2
S31508003F602800C0B276BD70B582B0040000200500F6
S31508003F7014A1200000F030F800200600102E0DDAFB
S31508003F801148304490F930201249684600F024F868
S31508003F906946200000F03AF8761CEFE72800C0B220
S31508003FA076BD0021080080280ADA0021064A115445
S31508003FB00021064A11540021054A1154401CF2E713
S31508003FC07047000000000000BC3100203C32002091
S31508003FD0BC320020907801080CB41CB5044604A82D
S31508003FE001900A46009401AB6946074878441830A0
S31508003FF007F08AF9009A0021117000285CBF009822
S31508004000001B16BC5DF80CFBFB4F0000024600E0E7
S31508004010521C1378002BFBD111F8013B137012F8D0
S31508004020013B002BF8D170471CB520208DF8000005
S3150800403001208DF8010008208DF8020000208DF877
S31508004040030000208DF8040000208DF8050068465E
S3150800405008F02AFA0400E4B2002C05D0022C07D096
S3150800406004D3032C06D007E0002006E0012004E074
S31508004070032002E0012000E0012016BD2DE9FF47DC
S31508004080040000208046684608F0BCFA00283AD1A9
S31508004090009806003100062005F007F8060000988B
S315080040A004F072FF0022644B08F022FB08F008FCBB
S315080040B005002D0202AA9246009804F065FF5246B2
S315080040C008F014FC07F0B6F881465FF087404946C9
S315080040D006F08AFF07F0F6F8070017F0F0077D19D3
S315080040E02A00564914F10C00FFF776FFA561300047
S315080040F004F04AFF02000B0051492000FFF76CFF4D
S315080041004046C0B200E0012004B0BDE8F0872DE9C2
S31508004110FF47040000200500684608F073FA0028E7
S3150800412035D100988146009804F02EFF0022424BB4
S3150800413008F0DEFA08F0C4FB0600360202AA924628
S31508004140009804F021FF524608F0D0FB07F072F8F9
S3150800415080465FF08740414606F046FF07F0B2F812
S31508004160070017F0F007BE193200344914F10C00A5
S31508004170FFF732FFA661484604F006FF02000B006F
S315080041802F492000FFF728FF2800C0B200E00120D1
S3150800419004B0BDE8F08730B585B00400684608F07D
S315080041A047FA002801D0012041E001A808F061FA89
S315080041B000283BD1019804F0E7FE224A224B08F07A
S315080041C097FA0022214B08F0EDFB07F033F80500BB
S315080041D0BDF80000E082019804F0D6FE02000B004C
S315080041E01B492000FFF7F8FE280004F0CDFE020068
S315080041F00B001749E01DFFF7EFFEBDF90000C0F3FD
S31508004200072212B20B4914F10E00FFF7E5FEBDF9BD
S31508004210000000F0FF02074902A8FFF7DDFE02A929
S3150800422014F10E00FFF7F2FE002000E0012005B0B1
S3150800423030BD000080760108000004408876010839
S3150800424090760108CDCCCCCCCCCCFC3F00004040CD
S315080042509876010810B5A0B000208DF8040000205B
S315080042608DF805004FF4FA700090002301AA0F217B
S31508004270BA2004F0BCFC0400E4B2002C07D14FF4C9
S31508004280FA73012201A9BA2004F049FD04009DF839
S315080042900400BD2801D1002000E0012020B010BD97
S315080042A080B501204649487000F010F800204449BE
S315080042B088700020DFF8701C08700020DFF8681C82
S315080042C048800020DFF8601C888001BD80B5012089
S315080042D03B494870DFF8181A3A48FEF7A7FEDFF898
S315080042E0101A3948FEF7A2FEDFF8041A3748FEF717
S315080042F09DFEDFF8FC193648FEF798FEDFF8F01940
S315080043003448FEF793FE34493448FEF78FFEDFF84B
S31508004310E419DFF8E409FEF789FEDFF8D419DFF8B7
S31508004320DC09FEF783FEDFF8C819DFF8D409FEF7C3
S315080043307DFEDFF8BC19DFF8CC09FEF777FEDFF85B
S31508004340B019DFF8C409FEF771FEDFF8A419DFF823
S31508004350BC09FEF76BFEDFF89819DFF8B409FEF71B
S3150800436065FEDFF88C19DFF8AC09FEF75FFEDFF8AB
S315080043708019DFF8A409FEF759FEDFF87419DFF88B
S315080043809C09FEF753FEDFF86819DFF89409FEF773
S315080043904DFEDFF85C19DFF88C09FEF747FEDFF8FB
S315080043A05019DFF8540DFEF741FE01BD0120DFF874
S315080043B07819087070470120DFF86C190870704783
S315080043C0582900206329002073290020832900200A
S315080043D092290020A8290020E0730108CA29002094
S315080043E010B58AB000200400DFF83C0900780028E0
S315080043F000F07984DFF830098078002808D0022890
S3150800440046D03AD3042861D04DD3052871D085E02B
S31508004410DFF818196846FFF7DFFD69460020FEF742
S31508004420DDFE6846FEF7D8FD6946FFF7E7FA002085
S3150800443000F02EFE00281FD0DFF8F40802F015FD64
S315080044400400E4B2002C69D1DFF8E80802F000FEA7
S315080044500400E4B2002C61D1DFF8DC0802F0EBFEC0
S315080044600400E4B2002C59D1DFF8D00802F0D2FFDC
S315080044700400E4B2002C51D150E0012000F008FEFF
S31508004480002804D0DFF8B80803F02CFF040045E044
S31508004490022000F0FDFD002804D0DFF8A80804F08B
S315080044A07DF904003AE0032000F0F2FD00280CD064
S315080044B0DFF8400BFFF7E2FD0400E4B2002C2DD133
S315080044C0DFF88408FFF767FE040027E0042000F001
S315080044D0DFFD00280CD0DFF8200B03F0F8F8040005
S315080044E0E4B2002C1AD1DFF8440A03F0F1FB040009
S315080044F014E0052000F0CCFD002805D0DFF8300ACE
S3150800450001F006FE040009E0062000F0C1FD0028BF
S3150800451004D0DFF81C0A00F02CFF0400DFF80808B6
S315080045208078401CDFF800188870DFF8FC07807870
S315080045300A2815DBDFF8F0098088052808DADFF88D
S31508004540E8098088401CDFF8E0198880FFF7BEFE7E
S315080045500020DFF8D41788700020DFF8CC17087021
S31508004560E4B2002C02D02000C0B2BEE304F001FF82
S31508004570DFF8441ADFF8440A08F088FA00281FD042
S31508004580012004F055FADFF8341ADFF82C0AFEF792
S315080045904DFDDFF89C17DFF8640AFEF747FDDFF8E4
S315080045A05C2ADFF85C1A6846FFF716FD69460020A4
S315080045B0FEF714FE6846FEF70FFD6946FFF71EFA7A
S315080045C0DFF8401ADFF8400A08F060FA00281FD022
S315080045D0012004F02DFADFF8301ADFF8280AFEF772
S315080045E025FDDFF85017DFF8240AFEF71FFDDFF870
S315080045F01C2ADFF81C1A6846FFF7EEFC69460020FD
S31508004600FEF7ECFD6846FEF7E7FC6946FFF7F6F9A4
S31508004610DFF8641ADFF8640A08F038FA00281FD0B1
S31508004620012004F005FADFF8541ADFF84C0AFEF701
S31508004630FDFCDFF80417DFF8480AFEF7F7FCDFF899
S31508004640402ADFF8401A6846FFF7C6FC694600208C
S31508004650FEF7C4FD6846FEF7BFFC6946FFF7CEF9CC
S31508004660DFF8241ADFF8240A08F010FA00281FD009
S31508004670012004F0DDF9DFF8141ADFF80C0AFEF75A
S31508004680D5FCDFF8B816DFF8740AFEF7CFFCDFF8BA
S315080046906C2ADFF86C1A6846FFF79EFC694600200C
S315080046A0FEF79CFD6846FEF797FC6946FFF7A6F9F4
S315080046B0DFF8501ADFF8500A08F0E8F900283ED06B
S315080046C0012004F0B5F9DFF8401ADFF8380AFEF7DA
S315080046D0ADFCDFF86C16DFF8340AFEF7A7FCDFF846
S315080046E0301ADFF8300AFEF7A1FCDFF8E00AB0F866
S315080046F05800DFF83416A1F85800DFF8102ADFF85A
S31508004700181A6846FFF768FC69460020FEF766FD3A
S315080047106846FEF761FC6946FFF770F9DFF8F42989
S31508004720DFF8941A6846FFF757FC69460020FEF73B
S3150800473055FD6846FEF750FC6946FFF75FF9DFF856
S31508004740901ADFF8900A08F0A1F900285ED0012037
S3150800475004F06EF9DFF87C1ADFF8740AFEF766FCD7
S31508004760DFF8E015DFF8700AFEF760FCDFF86C1A70
S31508004770DFF86C0AFEF75AFCDFF8681ADFF8680AF1
S31508004780FEF754FCDFF8482ADFF8601A6846FFF798
S3150800479023FC69460020FEF721FD6846FEF71CFC4F
S315080047A06946FFF72BF9DFF8302ADFF8441A68461E
S315080047B0FFF712FC69460020FEF710FD6846FEF773
S315080047C00BFC6946FFF71AF9DFF8142ADFF8241AF2
S315080047D06846FFF701FC69460020FEF7FFFC6846BD
S315080047E0FEF7FAFB6946FFF709F9DFF8FC29DFF857
S315080047F0081A6846FFF7F0FB69460020FEF7EEFC4C
S315080048006846FEF7E9FB6946FFF7F8F8DFF8E814AB
S31508004810DFF8E80908F03AF9002827D0012004F063
S3150800482007F9DFF8D819DFF8D004FEF7FFFBDFF841
S31508004830C417DFF8CC09FEF7F9FBDFF89009D0F8C2
S315080048409C00DFF8E414C1F89C00DFF8B429DFF80F
S31508004850B4196846FFF7C0FB69460020FEF7BEFCA0
S315080048606846FEF7B9FB6946FFF7C8F8DFF8901403
S31508004870DFF8940908F00AF9002827D0012004F087
S31508004880D7F8DFF88419DFF87804FEF7CFFBDFF8EE
S315080048906817DFF87809FEF7C9FBDFF83009B0F8C2
S315080048A0C800DFF88414A1F8C800DFF86029DFF82B
S315080048B060196846FFF790FB69460020FEF78EFCF4
S315080048C06846FEF789FB6946FFF798F8DFF834145F
S315080048D0DFF8400908F0DAF800283ED0012004F095
S315080048E0A7F8DFF83019DFF81C04FEF79FFBDFF89E
S315080048F03C16DFF82409FEF799FBDFF82019DFF8E4
S315080049002009FEF793FBDFF8C408B0F8E000DFF8EB
S315080049101814A1F8E000DFF80029DFF8081968463E
S31508004920FFF75AFB69460020FEF758FC6846FEF773
S3150800493053FB6946FFF762F8DFF8E428DFF8E81862
S315080049406846FFF749FB69460020FEF747FC6846BC
S31508004950FEF742FB6946FFF751F8DFF8AC13DFF8BC
S31508004960CC0808F093F800281ED0012004F060F85F
S31508004970DFF8B818E448FEF759FBDFF8B415DFF896
S31508004980B008FEF753FBDFF8A828DFF8A818684632
S31508004990FFF722FB69460020FEF720FC6846FEF773
S315080049A01BFB6946FFF72AF8D849DFF88C0808F098
S315080049B06DF8002825D0012004F03AF8DFF87818B9
S315080049C0D248FEF733FBDFF87418DFF87408FEF7F1
S315080049D02DFBDFF8F807B0F89C01D349A1F89C0134
S315080049E0DFF85C28DFF85C186846FFF7F5FA6946D1
S315080049F00020FEF7F3FB6846FEF7EEFA6946FEF777
S31508004A00FDFFC349DFF8400808F040F8002825D024
S31508004A10012004F00DF8DFF83018BD48FEF706FB54
S31508004A20DFF82818DFF82808FEF700FBDFF89C07F0
S31508004A30B0F8B401BC49A1F8B401DFF81428DFF8CE
S31508004A4014186846FFF7C8FA69460020FEF7C6FB41
S31508004A506846FEF7C1FA6946FEF7D0FFAD49DFF8AA
S31508004A60F80708F013F8002825D0012003F0E0FF26
S31508004A70DFF8E417A748FEF7D9FADFF8E017DFF8FA
S31508004A80E007FEF7D3FADFF84407B0F8CC01A649E9
S31508004A90A1F8CC01DFF8C827DFF8C8176846FFF782
S31508004AA09BFA69460020FEF799FB6846FEF794FADA
S31508004AB06946FEF7A3FFDFF8B017DFF8B00707F07F
S31508004AC0E5FF002825D0012003F0B2FFDFF8A01784
S31508004AD09148FEF7ABFADFF89417DFF88C07FEF774
S31508004AE0A5FADFF8E806B0F8E4018F49A1F8E40171
S31508004AF0DFF87427DFF87C176846FFF76DFA694612
S31508004B000020FEF76BFB6846FEF766FA6946FEF775
S31508004B1075FF8249DFF8600707F0B8FF002825D03F
S31508004B20012003F085FFDFF850177C48FEF77EFA70
S31508004B30DFF84817DFF84807FEF778FADFF88C063B
S31508004B40B0F8FC017849A1F8FC01DFF83427DFF852
S31508004B5034176846FFF740FA69460020FEF73EFB21
S31508004B606846FEF739FA6946FEF748FF6C49DFF8EA
S31508004B70180707F08BFF002825D0012003F058FFFF
S31508004B80DFF804176648FEF751FADFF80017DFF872
S31508004B900007FEF74BFADFF83406B0F8140262494C
S31508004BA0A1F81402DFF8E826DFF8E8166846FFF7EA
S31508004BB013FA69460020FEF711FB6846FEF70CFA61
S31508004BC06946FEF71BFF5749DFF8CC0607F05EFF7C
S31508004BD0002825D0012003F02BFFDFF8BC1651482A
S31508004BE0FEF724FADFF8B416DFF8B406FEF71EFA65
S31508004BF0DFF8D805B0F82C024B49A1F82C02DFF8EB
S31508004C00A026DFF8A0166846FFF7E6F969460020F1
S31508004C10FEF7E4FA6846FEF7DFF96946FEF7EEFEA8
S31508004C20DFF8D414DFF8800607F030FF002826D016
S31508004C30012003F0FDFEDFF87016DFF8BC04FEF76E
S31508004C40F5F9DFF86816DFF86806FEF7EFF9DFF81A
S31508004C507C05B0F844023449A1F84402DFF850262E
S31508004C60DFF850166846FFF7B7F969460020FEF7E1
S31508004C70B5FA6846FEF7B0F96946FEF7BFFE2A4858
S31508004C804078002813D0002027494870DFF82826E6
S31508004C90DFF828166846FFF79FF969460020FEF7F1
S31508004CA09DFA6846FEF798F96946FEF7A7FE1E487C
S31508004CB08078002817D1DFF808166846FFF78CF9C0
S31508004CC069460020FEF78AFA6846FEF785F96946BE
S31508004CD0FEF794FEDFF8EC156846FFF77DF969469E
S31508004CE00020FEF77BFA2000C0B20AB010BD000013
S31508004CF060760108B0740108E8290020062A002019
S31508004D00182A0020302A0020D42A0020EC2A002065
S31508004D10042B00201C2B0020342B00204C2B0020B9
S31508004D20642B00207C2B0020582900206876010877
S31508004D3013270020222700203227002042270020A0
S31508004D40522700206A270020B027002000B595B01A
S31508004D50FEF78BFD002800F0CB80FEF78BFD0028C0
S31508004D6000F0C680FEF78BFD002800F0C180FEF734
S31508004D70CCFD002800F0BC80DFF84C156846FFF72C
S31508004D802BF969460020FEF729FA6846FEF724F94A
S31508004D906946FEF733FE022003F04AFEFFF739F8AC
S31508004DA0DFF82805FFF787F8DFF82405FFF79FF8EF
S31508004DB0DFF82005FFF7B9F8DFF81C05FFF7D3F889
S31508004DC0012003F035FEDFF80425DFF810156846E4
S31508004DD0FFF702F969460020FEF700FA6846FEF773
S31508004DE0FBF86946FEF70AFE012003F021FEDFF80C
S31508004DF0E024DFF8EC146846FFF7EEF86946002071
S31508004E00FEF7ECF96846FEF7E7F86946FEF7F6FDA1
S31508004E10012003F00DFEDFF8BC24DFF8C81468464D
S31508004E20FFF7DAF869460020FEF7D8F96846FEF774
S31508004E30D3F86946FEF7E2FD012003F0F9FDDFF835
S31508004E409824DFF8A4146846FFF7C6F869460020D8
S31508004E50FEF7C4F96846FEF7BFF86946FEF7CEFDC9
S31508004E6007F047FE0200DFF884146846FFF7B4F837
S31508004E7069460020FEF7B2F96846FEF7ADF86946BE
S31508004E80FEF7BCFD0020FEF757FDFEF760FD012882
S31508004E9008D10220FEF760FDDFF854140020FEF763
S31508004EA09DF90BE0FEF753FD022807D10420FEF713
S31508004EB053FDDFF840140020FEF790F904F059FA84
S31508004EC0DFF8FC136846FFF787F869460020FEF707
S31508004ED085F96846FEF780F86946FEF78FFDDFF824
S31508004EE0E4136846FFF778F869460020FEF776F976
S31508004EF00D484088052801DAFFF7E8F90A4840888E
S31508004F00411C094A518080B20E2807DB0020064959
S31508004F108880002004494880FFF7D8F9022003F06A
S31508004F2095FD15B000BD000000360020DA270020E8
S31508004F307E28002030B587B00400FEF796FC0028CE
S31508004F4013D014222100684607F0E6FD2000FEF77C
S31508004F5043F8152803D314F11400050000E02500D2
S31508004F6014222900684607F0D7FD07B030BD80B582
S31508004F70FEF780FC002816D00020DFF87C13088096
S31508004F8000F013F9002807D0DFF870030088401CEA
S31508004F90DFF8681308800DE00020DFF8601308804A
S31508004FA000F006F906E0DFF850030088401CDFF839
S31508004FB04813088001BD0000632900201B27002034
S31508004FC00020DFF83C1308700020CD494870002007
S31508004FD0CB4908710020CA49C8700020C8498870A2
S31508004FE00020C74948710020C54988710020C44976
S31508004FF0C871704794270020C82700205B29002025
S3150800500014660108732900202B2700206A2900202E
S3150800501034660108C0B200280ED0022812D00ED37A
S31508005020042815D011D3062818D014D308281BD065
S3150800503017D309281BD01DE0B14A11701AE0B04AEF
S31508005040517017E0AE4A917014E0AD4AD17011E084
S31508005050AB4A11710EE0AA4A51710BE0A84A917148
S3150800506008E0A74AD17105E0A54A117202E0A44AF0
S315080050705172FFE770470000832900203B27002074
S315080050807A29002054660108922900204A27002020
S315080050900100C9B200290ED0022912D00ED3042964
S315080050A015D011D3062918D014D308291BD017D325
S315080050B009291BD01DE0924800781BE090484078EB
S315080050C018E08F48807815E08D48C07812E08C4843
S315080050D000790FE08A4840790CE08948807909E030
S315080050E08748C07906E08648007A03E08448407A13
S315080050F000E0002070470000942B00208A29002039
S31508005100546A0108A8290020602700209A2900204F
S3150800511059270020A1290020706A010810B500242B
S315080051200020FFF7B5FF002800D0641C0120FFF718
S31508005130AFFF002800D0A41C0220FFF7A9FF002813
S3150800514000D0241D0320FFF7A3FF002800D0083451
S315080051500420FFF79DFF002800D010340520FFF734
S3150800516097FF002800D020340620FFF791FF00287B
S3150800517000D040340720FFF78BFF002800D080348A
S315080051800820FFF785FF002801D014F58074092050
S31508005190FFF77EFF002801D014F50074200080B2C6
S315080051A010BD002057494880704756480078704718
S315080051B001205449087070478C6A0108002051493B
S315080051C00870704700204F498880704710270020D4
S315080051D0CA29002082270020B22900207227002031
S315080051E0BA2900207A270020C229002074660108FF
S315080051F094660108B4660108D4660108A027002051
S31508005200DC290020F4660108D0270020102A002097
S3150800521014670108E8270020222A0020E127002039
S31508005220292A0020A86A0108007201088C28002093
S31508005230C62A0020C46A0108A4280020962800204F
S31508005240DE2A0020E06A0108BC280020AE280020DB
S31508005250F62A0020FC6A0108D4280020C628002067
S315080052600E2B0020186B0108262B0020DE280020B4
S31508005270EC280020346B010804290020F6280020B9
S315080052803E2B0020506B01081C2900200E29002007
S31508005290562B00206C6B0108342900202629002093
S315080052A06E2B0020886B01084C2900203E2900201F
S315080052B0862B0020A46B0108BC740108147201082F
S315080052C07076010878760108687601083A2A00207F
S315080052D05D2A0020802A0020A32A002034670108BE
S315080052E0546701087467010894670108386D010856
S315080052F0B4670108D4670108683600206A360020BA
S31508005300E83500200036002038B5002005000020CA
S315080053108DF80000280003009BB26A46122114206B
S3150800532003F031FC0400E4B2002C1FD1642003F022
S3150800533031FD0400E4B2002C02D02000C0B217E010
S3150800534002226946142003F005FD0400E4B2002C8D
S3150800535009D1642003F01EFD0400E4B2002C05D038
S315080053602000C0B204E02000C0B201E02000C0B2B4
S3150800537032BD2DE9F04F85B00400002003900020CF
S315080053808DF80000039803009BB26A461221142088
S3150800539003F0F9FB0700FFB2002F23D1642003F0C6
S315080053A0F9FC0700FFB2002F02D03800C0B248E36C
S315080053B002226946142003F0CDFC0700FFB2002F35
S315080053C00DD1642003F0E6FC0700FFB2002F02D0DF
S315080053D03800C0B235E3FFB2002F76D105E03800B9
S315080053E0C0B22EE33800C0B22BE39DF801004FF49B
S315080053F080719DF8002001FB002082465FEA0A4082
S3150800540007D51FFA8AFADFF8800B50EA0A008346A6
S3150800541002E01FFA8AFAD346584604F043F8DFF842
S315080054206C1B04F059F8050029000D2003F03DFE19
S315080054300500DFF8580B290005F0D6FD03F0A4FD9A
S3150800544007F0A0FB07F026FA0600280003F09CFDEB
S31508005450DFF83C2BDFF83C3B07F04AF90022DFF87F
S31508005460383B07F09FFA05F0E5FE8046E6822800FD
S3150800547003F08AFD02000B00DFF8201B2000FEF770
S31508005480ABFD404603F080FD02000B00DFF80C1B65
S31508005490E01DFEF7A1FD300080B2020A92B2DFF8E5
S315080054A0001B14F10E00FEF797FDB6B206F0FF02D8
S315080054B0DFF8EC1A01A8FEF78FFD01A914F10E001A
S315080054C0FEF7A4FD0020814602E03800C0B2B8E22B
S315080054D0B9F1080F80F2B3820020039000208DF8FE
S315080054E00000039803009BB26A4619F11301C9B27A
