S02E0000526F616420426F61726420526576204D2E3520424153454C494E4520446563203920323031362E737265637A
S31508000000501100207D750108B1790108B5790108FC
S31508000010B9790108BD790108C17901080000000015
S31508000020000000000000000000000000FF51010869
S31508000030C579010800000000AD51010841530108C7
S315080000404D940008C9790108CD790108D1790108CC
S31508000050D5790108D9790108DD790108E17901081E
S31508000060E5790108E9790108ED790108495301089C
S31508000070F1790108F5790108F9790108FD7901088E
S31508000080017A0108057A0108097A01080D7A01083A
S3150800009053530108117A0108157A0108197A0108DB
S315080000A01D7A0108217A0108257A0108297A0108AA
S315080000B08F530108995301085D5301087B530108C2
S315080000C0855301082D7A0108317A0108357A010825
S315080000D0397A01083D7A0108715301086753010806
S315080000E0417A0108457A0108497A010885430008DA
S315080000F04D7A010800000000517A0108557A010876
S31508000100597A01085D7A0108617A0108657A010859
S31508000110697A01086D7A0108717A01080000000001
S31508000120757A01082DE9F04FADF5806D95B004009C
S31508000130200002F051FF8046DFF89C0D0078002869
S315080001401ED020781B2815D10020DFF88C1D0870DA
S31508000150DFF8881D11A802F069FF11A9002003F035
S315080001603DF80500EDB2002D02F041862800C0B228
S3150800017002F03FBE2100012003F040FC02F037BE2A
S31508000180207830282ED0312839D032285BD0332831
S315080001907DD0342800F09F80352800F0C0803628AE
S315080001A000F00C81412800F01481422800F03582C5
S315080001B0432800F0A784442800F01E86452800F04E
S315080001C04787462800F04B87472800F05587482878
S315080001D000F0C087502801F05582542801F070823B
S315080001E002F081BD03F015FE0500EDB2002D04D125
S315080001F0DFF8C41D11A802F019FF02F078BDA3A804
S3150800020003F059FE0500DFF8B41D11A802F00EFF31
S3150800021011A9002002F0E2FF0500EDB2002D03D07F
S315080002202800C0B202F0E5BDDFF8941D11A803F05E
S31508000230D3FEA3A911A803F0E9FEC4A111A803F0EF
S31508000240E5FE02F054BDA3A803F051FE0500DFF851
S31508000250741D11A802F0EAFE11A9002002F0BEFFE3
S315080002600500EDB2002D03D02800C0B202F0C1BDD2
S31508000270DFF8F81D11A803F0AFFEA3A911A803F033
S31508000280C5FEB2A111A803F0C1FE02F030BDA3A8B5
S3150800029003F04BFE0500DFF8D81D11A802F0C6FED4
S315080002A011A9002002F09AFF0500EDB2002D03D037
S315080002B02800C0B202F09DBDDFF8B81D11A803F0F2
S315080002C08BFEA3A911A803F0A1FEA0A111A803F013
S315080002D09DFE02F00CBDA3A803F045FE0500DFF85D
S315080002E0041E11A802F0A2FE11A9002002F076FF52
S315080002F00500EDB2002D03D02800C0B202F079BD8A
S31508000300DFF8E41D11A803F067FEA3A911A803F0FE
S315080003107DFE8EA111A803F079FE02F0E8BC03F079
S3150800032045FD4690DFF8C41D11A802F07FFEA3A87C
S3150800033003F0C1FD050011A9002002F04FFF0500DA
S31508000340EDB2002D03D02800C0B202F052BD002045
S315080003500700ADA111A803F03FFE00200600802E7D
S3150800036025DA46988257DFF8D81D0CA803F034FE24
S315080003700CA911A803F04AFE7F1C102F15DB73A1E8
S3150800038011A803F043FE0020070011A9002002F07F
S3150800039025FF0500EDB2002D03D02800C0B202F0FB
S315080003A028BD99A111A803F017FE761CD7E7DFF838
S315080003B0941D11A803F010FE02F099BC0020050058
S315080003C003F0EFFDDFF8841D11A802F02FFE02F0FE
S315080003D08EBC5FFA88F8B8F1010F00F01C816078CE
S315080003E036282BD0382800F09980392800F0F78075
S315080003F0492840F00B8103F017FE0500EDB2002DE9
S3150800040005D1DFF84C1D11A802F010FE15E0DFF843
S31508000410141E11A802F00AFE8DF83C5011A90020FE
S3150800042002F0DCFE0500EDB2002D03D02800C0B2B4
S3150800043002F0DFBC9DF83C000500ECE0ACA803F038
S3150800044066FE0500EDB2002D04D10DF5876003F0B8
S3150800045015FE0500EDB2002D49D1DFF8CC1D11A817
S3150800046002F0E4FD11A9002002F0B8FE0500EDB285
S31508000470002D03D02800C0B202F0BBBCDFF80C1E6A
S3150800048011A803F0A9FD11A9002002F0A7FE050096
S31508000490EDB2002D03D02800C0B202F0AABC0DF5BB
S315080004A08763ACAADFF8E81D11A803F095FD11A92A
S315080004B0002002F093FE0500EDB2002D03D02800BF
S315080004C0C0B202F096BCDFF8CC1D11A803F084FD7B
S315080004D0AFA911A803F09AFDB29ADFF8BC1D0CA8C3
S315080004E003F07AFD0CA911A803F090FD15E0DFF8DA
S315080004F0AC1D11A802F09AFD8DF83C5011A90020F8
S3150800050002F06CFE0500EDB2002D03D02800C0B243
S3150800051002F06FBC9DF83C0005007CE03CA803F0A7
S315080005203AFE0500EDB2002D29D1DFF8041E11A808
S3150800053002F07CFD11A9002002F050FE0500EDB284
S31508000540002D05D02800C0B202F053BC0D0A0000E9
S31508000550DFF8E01D11A803F03FFD0DF1FE0111A81B
S3150800056003F054FDCDA111A803F050FD11A90020F8
S3150800057002F034FE0500EDB2002D01D104E04AE098
S315080005802800C0B202F035BCBDF80621DFF8EC1D24
S3150800059011A803F021FD11A9002002F01FFE050095
S315080005A0EDB2002D03D02800C0B202F022BCDFF85D
S315080005B0D01D11A803F010FD3CA911A803F026FDD3
S315080005C0DFF8C01D11A803F021FD0DF1F70111A8F0
S315080005D003F01CFDB1A111A803F018FD1BE003F000
S315080005E039FE0500EDB2002D05D1DFF8E41D11A88E
S315080005F002F01CFD06E0DFF8DC1D11A802F016FD6E
S315080006000020050007E000BF00000000DFF8C81D55
S3150800061011A802F00BFD02F06ABB5FFA88F8B8F180
S31508000620010F40F02681052004F07EFD00280BD03E
S3150800063055A806F041F90500EDB2002D17D1C5A859
S3150800064005F0B4FD050012E0062004F06DFD002853
S315080006500BD055A805F046FA0500EDB2002D06D1D7
S31508000660C5A804F0D4FE050001E001200500EDB29E
S31508000670002D40F0FC80DFF8EC1D11A802F0D6FC36
S3150800068011A9002002F0AAFD0500EDB2002D03D045
S315080006902800C0B202F0ADBB00200600092E80F289
S315080006A0D380002E0FD0022E35D020D3042E5AD058
S315080006B045D3062E00F07F8069D3082E00F0A3806C
S315080006C0C0F08D80B2E0BDF86A010390C6A8C01CD0
S315080006D0029056A8C01C0190C5A8009055AB0DF510
S315080006E0B172DFF8841D11A803F076FC9EE0BDF810
S315080006F082010390CCA8C01C02905CA8C01C019083
S31508000700CBA800905BAB0DF5BD72DFF8EC1D11A808
S3150800071003F062FC8AE0BDF89A010390D2A8C01CD7
S31508000720029062A8C01C0190D1A8009061AB0DF59B
S31508000730C972DFF8C41D11A803F04EFC76E0BDF8B7
S31508000740B2010390D8A8C01C029068A8C01C0190EA
S31508000750D7A8009067AB0DF5D572DFF89C1D11A8D8
S3150800076003F03AFC62E0BDF8CA010390DEA8C01C9B
S3150800077002906EA8C01C0190DDA800906DAB0DF527
S31508000780E172DFF8741D11A803F026FC4EE0BDF8EF
S31508000790E2010390E4A8C01C029074A8C01C019052
S315080007A0E3A8009073AB0DF5ED72DFF84C1D11A8A8
S315080007B003F012FC3AE0BDF8FA010390EAA8C01C5F
S315080007C002907AA8C01C0190E9A8009079AB0DF5B3
S315080007D0F972DFF8241D11A803F0FEFB26E0BDF828
S315080007E012020390F0A8C01C029080A8C01C0190B9
S315080007F0EFA800907FAB82AA921CDFF8FC1C11A818
S3150800080003F0EAFB12E0BDF82A020390F6A8C01C22
S31508000810029086A8C01C0190F5A8009085AB88AA0E
S31508000820921CDFF8D41C11A803F0D6FB11A90020EE
S3150800083002F0D4FC0500EDB2002D03D02800C0B2AA
S3150800084002F0D7BA761C29E7DFF8D81D11A803F0FD
S31508000850C3FB44A911A803F0D9FB10A111A803F002
S31508000860D5FBDFF8C41D11A803F0B6FB48E102F07A
S315080008703EBA6078302813D0312800F036814928EE
S3150800088040F03E8105F0DCFB0500EDB2002D04D1F9
S31508000890DFF8DC1D11A802F0C9FB31E10D0A0000E2
S315080008A0052004F041FC00280BD055A806F004F8F2
S315080008B00500EDB2002D17D1C5A805F077FC050097
S315080008C012E0062004F030FC00280BD055A805F0ED
S315080008D009F90500EDB2002D06D1C5A804F097FD6B
S315080008E0050001E001200500EDB2002D40F0FC8076
S315080008F0DFF8701B11A802F099FB11A9002002F07D
S315080009006DFC0500EDB2002D03D02800C0B202F040
S3150800091070BA00200600092E80F2D380002E0FD070
S31508000920022E35D020D3042E5AD045D3062E00F0F9
S315080009307F8069D3082E00F0A380C0F08D80B2E0D6
S31508000940BDF86A010390C6A8C01C029056A8C01C30
S315080009500190C5A8009055AB0DF5B172DFF8081BDC
S3150800096011A803F039FB9EE0BDF882010390CCA8DC
S31508000970C01C02905CA8C01C0190CBA800905BAB81
S315080009800DF5BD72DFF8701B11A803F025FB8AE090
S31508000990BDF89A010390D2A8C01C029062A8C01C98
S315080009A00190D1A8009061AB0DF5C972DFF8481B1C
S315080009B011A803F011FB76E0BDF8B2010390D8A8A0
S315080009C0C01C029068A8C01C0190D7A8009067AB0D
S315080009D00DF5D572DFF8201B11A803F0FDFA62E0C9
S315080009E0BDF8CA010390DEA8C01C02906EA8C01C00
S315080009F00190DDA800906DAB0DF5E172DFF8F81AED
S31508000A0011A803F0E9FA4EE0BDF8E2010390E4A864
S31508000A10C01C029074A8C01C0190E3A8009073AB98
S31508000A200DF5ED72DFF8D01A11A803F0D5FA3AE001
S31508000A30BDF8FA010390EAA8C01C02907AA8C01C67
S31508000A400190E9A8009079AB0DF5F972DFF8A81ABC
S31508000A5011A803F0C1FA26E0BDF812020390F0A827
S31508000A60C01C029080A8C01C0190EFA800907FAB24
S31508000A7082AA921CDFF8801A11A803F0ADFA12E0D8
S31508000A80BDF82A020390F6A8C01C029086A8C01CCE
S31508000A900190F5A8009085AB88AA921CDFF8581A31
S31508000AA011A803F099FA11A9002002F097FB050096
S31508000AB0EDB2002D03D02800C0B202F09AB9761C18
S31508000AC029E7DFF8601B11A803F086FA44A911A8E4
S31508000AD003F09CFAC7A111A803F098FADFF8481B9F
S31508000AE011A803F079FA0BE00AE005F014FB0500FB
S31508000AF0EDB2002D04D1DFF8C81D11A802F096FA50
S31508000B0002F0F5B85FFA88F8B8F1010F42D142A8A9
S31508000B1006F047FD0500EDB2002D03D18BA806F0BF
S31508000B20C7FC0500EDB2002D26D1DFF8981D11A8E7
S31508000B3002F07CFA11A9002002F050FB0500EDB284
S31508000B40002D03D02800C0B202F053B9DFF8E01D2B
S31508000B5011A803F041FA44A911A803F057FAA5A170
S31508000B6011A803F053FA11A9002002F037FB05007B
S31508000B70EDB2002D02D105E002F0B9B82800C0B2E6
S31508000B8002F037B98BAB42AADFF8A81D11A803F00B
S31508000B9023FA2CE16078302816D0312856D032282E
S31508000BA000F09980332800F0DB80492840F01A814C
S31508000BB006F04EF90500EDB2002D04D1DFF8781DD8
S31508000BC011A802F033FA12E142A806F018FA050055
S31508000BD0EDB2002D03D18BA806F095F90500EDB20C
S31508000BE0002D26D1DFF87C1811A802F01FFA11A9EA
S31508000BF0002002F0F3FA0500EDB2002D03D028001C
S31508000C00C0B202F0F6B8DFF81C1A11A803F0E4F92E
S31508000C1044A911A803F0FAF976A111A803F0F6F988
S31508000C2011A9002002F0DAFA0500EDB2002D01D173
S31508000C3004E0DCE02800C0B202F0DBB88BAB42AAC5
S31508000C40DFF8641D11A803F0C7F9D0E0C1A806F0C3
S31508000C50C9FA0500EDB2002D04D10DF5856006F040
S31508000C6045FA0500EDB2002D27D1DFF8401D11A881
S31508000C7002F0DCF911A9002002F0B0FA0500EDB285
S31508000C80002D03D02800C0B202F0B3B8DFF8201D4B
S31508000C9011A803F0A1F9C3A9491C11A803F0B6F9D4
S31508000CA054A111A803F0B2F911A9002002F096FA8E
S31508000CB00500EDB2002D01D104E098E02800C0B28D
S31508000CC002F097B80DF58563C1AADFF8E41D11A8EF
S31508000CD003F082F98BE0BDA806F075FB0500EDB2BE
S31508000CE0002D04D10DF5836006F0F3FA0500EDB288
S31508000CF0002D27D1DFF8BC1D11A802F097F911A91C
S31508000D00002002F06BFA0500EDB2002D03D0280092
S31508000D10C0B202F06EB8DFF8A01D11A803F05CF9A6
S31508000D20BFA9491C11A803F071F932A111A803F053
S31508000D306DF911A9002002F051FA0500EDB2002D57
S31508000D4001D104E053E02800C0B202F052B80DF514
S31508000D508363BDAADFF8C41D11A803F03DF946E078
S31508000D6042A806F01EFC0500EDB2002D03D18BA8A3
S31508000D7006F09EFB0500EDB2002D26D1DFF8441BD8
S31508000D8011A802F053F911A9002002F027FA05006C
S31508000D90EDB2002D03D02800C0B202F02AB8DFF861
S31508000DA0901B11A803F018F944A911A803F02EF90D
S31508000DB010A111A803F02AF911A9002002F00EFAD1
S31508000DC00500EDB2002D01D104E010E02800C0B204
S31508000DD002F00FB88BAB42AADFF8581B11A803F034
S31508000DE0FBF804E0DFF8F01511A802F01FF901F08E
S31508000DF07EBF00BF0D0A00005FFA88F8B8F1010F40
S31508000E0055D14BA806F034FE0500EDB2002D03D1EE
S31508000E10FBA806F0AAFC0500EDB2002D26D1DFF8E6
S31508000E20A41D11A802F002F911A9002002F0D6F9B2
S31508000E300500EDB2002D03D02800C0B201F0D9BFDD
S31508000E40DFF8841D11A803F0C7F84DA911A803F00F
S31508000E50DDF8BDA111A803F0D9F811A9002002F008
S31508000E60BDF90500EDB2002D02D105E001F03FBF46
S31508000E702800C0B201F0BDBFBDF83C21DFF84C1D0B
S31508000E8011A803F0A9F811A9002002F0A7F9050096
S31508000E90EDB2002D03D02800C0B201F0AABFFBAB0B
S31508000EA04BAADFF82C1D11A803F096F8CEE060785F
S31508000EB0302815D0312867D0492840F0C78006F079
S31508000EC001FC0500EDB2002D04D1DFF8EC1D11A8D8
S31508000ED002F0ACF8BAE000BF70360020A859010845
S31508000EE04BA806F0C5FD0500EDB2002D26D1DFF8AA
S31508000EF0D41C11A802F09AF811A9002002F06EF984
S31508000F000500EDB2002D03D02800C0B201F071BF74
S31508000F10DFF8B41C11A803F05FF84DA911A803F077
S31508000F2075F889A111A803F071F811A9002002F03B
S31508000F3055F90500EDB2002D01D104E086E0280040
S31508000F40C0B201F056BFBDF83C21DFF8801C11A8DD
S31508000F5003F042F811A9002002F040F90500EDB2AD
S31508000F60002D03D02800C0B201F043BFDFF8AC1D46
S31508000F7011A803F031F84BA911A803F047F872A19C
S31508000F8011A803F043F861E03CA807F070F80500E3
S31508000F90EDB2002D2ED1DFF82C1C11A802F046F870
S31508000FA011A9002002F01AF90500EDB2002D0BD0A8
S31508000FB02800C0B201F01DBFAC550108B05F01089A
S31508000FC0906A0108D85F0108DA4911A803F004F805
S31508000FD00DF1FE0111A803F019F85BA111A803F0A1
S31508000FE015F811A9002002F0F9F80500EDB2002D58
S31508000FF001D104E02AE02800C0B201F0FABEBDF82B
S315080010000621DE4911A802F0E7FF11A9002002F027
S31508001010E5F80500EDB2002D03D02800C0B201F0B6
S31508001020E8BED74911A802F0D7FF3CA911A802F0DB
S31508001030EDFFD44911A802F0E9FF0DF1F70111A857
S3150800104002F0E4FF40A111A802F0E0FF01F04FBE54
S31508001050DFF8C01D11A801F0E9FF01F048BEDFF86E
S31508001060B81D11A801F0E2FF01F041BEB06A0108FF
S3150800107000600108D06A01083CA807F02DFA0500AF
S31508001080EDB2002D04D10DF5806007F079F9050061
S31508001090EDB2002D2CD1DFF8C01D11A801F0C6FF56
S315080010A011A9002002F09AF80500EDB2002D03D030
S315080010B02800C0B201F09DBE9E4911A802F08CFF1F
S315080010C00DF1FE0111A802F0A1FF1FA111A802F05F
S315080010D09DFF11A9002002F081F80500EDB2002D50
S315080010E008D10BE028600108F06A01085060010881
S315080010F001F0FDBD2800C0B201F07BBEBDF8062197
S315080011009E4911A802F068FF11A9002002F066F8AE
S315080011100500EDB2002D03D02800C0B201F069BE6B
S31508001120FFA80B3001900DF1F70000900DF58063D4
S315080011303CAADFF8DC1D11A802F04EFF01F0D7BD6E
S31508001140A4780108A47301080D0A00008864010840
S31508001150786001085FFA88F8B8F1010F68D1B3A87A
S3150800116007F06AFB0500EDB2002D5FD1DFF8A41D7C
S3150800117011A801F05BFF11A9002002F02FF8050065
S31508001180EDB2002D03D02800C0B201F032BEDFF860
S31508001190C41D11A802F020FF11A9002002F01EF8B4
S315080011A00500EDB2002D03D02800C0B201F021BE23
S315080011B0DFF8A41D11A801F039FFB9A911A802F09A
S315080011C025FFCEA111A802F021FF11A9002002F0E7
S315080011D005F80500EDB2002D03D02800C0B201F0D5
S315080011E008BEDFF8B41D11A801F020FFB3A911A8A5
S315080011F002F00CFFDFF8A41D11A802F007FFB5A93D
S3150800120011A802F003FFDFF8D41D11A802F0FEFEB4
S31508001210B7A911A802F0FAFEB8A111A802F0F6FEC5
S315080012202EE200BFA0600108C860010801F05FBD9A
S315080012306078302800F06481312800F0C4813228B3
S3150800124000F0E381332800F0F281492840F0138248
S315080012505FFA88F8B8F1020F0CD107F0EBF9050030
S31508001260EDB2002D40F04681DFF8B01D11A801F05F
S31508001270DDFE3FE15FFA88F8B8F11D0F10D0DFF800
S31508001280A01D11A801F0D2FE34E100BFE059010803
S31508001290B87301081C750108D0760108F0600108CA
S315080012A0A0783A2817D160792E2814D1207A2E28CA
S315080012B011D1E07A2E280ED1A07B2E280BD1607C86
S315080012C02E2808D1207D2E2805D1E07D2E2802D192
S315080012D0A07E2E2805D0DFF8C01D11A801F0A6FEB5
S315080012E008E10020359000200600092E2BDA03209D
S315080012F000FB06F0204490F903008DF83000032027
S3150800130000FB06F0204490F904008DF83100002017
S315080013108DF832000CA801F08DFD00280CD1DFF8FD
S31508001320B81D11A801F082FE012035900BE000BF20
S3150800133018610108CC7301080CA801F0A0FD8FA95B
S315080013408855761CD1E79DF83C02082805DBDFF8AE
S31508001350C81D11A801F06AFE92E19DF83C0210F042
S3150800136007008DF8C1009DF83D0202280CDBDFF866
S31508001370AC1D11A801F05AFE82E100BF106B0108EE
S315080013802C7501083C7501089DF83D0210F0010016
S31508001390C0B2C0008DF8C0009DF83E02022805DBE9
S315080013A0DFF8B81D11A801F041FE69E19DF83E027B
S315080013B010F00100C0B200018DF8BF009DF83F0291
S315080013C002280BDBDFF8981D11A801F02FFE57E164
S315080013D04061010868610108306B01089DF83F0209
S315080013E010F00100C0B240018DF8BE009DF8400221
S315080013F0402805DBDFF8A81D11A801F017FE3FE11C
S315080014009DF8400210F03F008DF8BD009DF841029E
S31508001410022805DBDFF8C81D11A801F007FE2FE139
S315080014209DF8410210F00100802148438DF8BC0068
S315080014309DF84202042805DBDFF8A81D11A801F073
S31508001440F5FD1DE19DF8420210F003008DF83F00FE
S315080014509DF84302042809DBDFF8C81D11A801F02E
S31508001460E5FD0DE1AC640108FC5B01089DF843024B
S3150800147010F00300C0B280008DF83E009DF84402CB
S31508001480022805DBDFF8A01D11A801F0CFFDF7E063
S315080014909DF8440210F00100C0B200018DF83D002D
S315080014A09DF8C1009DF8C01008189DF8BF100818CF
S315080014B09DF8BE1008188DF8E8009DF8BD009DF847
S315080014C0BC1008188DF8E9009DF83F009DF83E10FD
S315080014D008189DF83D1008188DF8EA003AA807F094
S315080014E0D1F80500EDB2002D04D1DFF8B41D11A81E
S315080014F001F09CFDC4E000BF2C5C01080D0A000049
S31508001500B3A807F099F90500EDB2002D5AD1DFF816
S31508001510041A11A801F08AFD11A9002001F05EFE47
S315080015200500EDB2002D03D02800C0B201F061BC61
S31508001530DFF8201A11A802F04FFD11A9002001F0CA
S315080015404DFE0500EDB2002D03D02800C0B201F013
S3150800155050BCDFF8041A11A801F068FDB9A911A852
S3150800156002F054FDD5A111A802F050FD11A90020E2
S3150800157001F034FE0500EDB2002D03D02800C0B2FC
S3150800158001F037BCDFF8101A11A801F04FFDB3A916
S3150800159011A802F03BFDDFF8041A11A802F036FD87
S315080015A0B5A911A802F032FDDFF8301A11A802F029
S315080015B02DFDB7A911A802F029FDC0A111A802F0B6
S315080015C025FD5DE05CE047A807F0EFF80500EDB201
S315080015D0002D19D1DFF8781D11A801F027FD9DF817
S315080015E01C21DFF8701D0CA802F0F6FC0CA911A846
S315080015F002F00CFD47A9491C11A802F007FDAFA18E
S3150800160011A802F003FD3BE03AE007F065F8050093
S31508001610EDB2002D0AD1DFF8401D11A801F006FD34
S315080016202EE000BF586E0108E073010828E049A8BB
S3150800163007F074F80500EDB2002D1BD1DFF81C1D6C
S3150800164011A801F0F3FC9DF82421DFF8081D0CA869
S3150800165002F0C2FC0CA911A802F0D8FC49A9491C41
S3150800166011A802F0D3FC95A111A802F0CFFC07E05F
S31508001670185A010804E0DFF8E81C11A801F0D6FCA6
S3150800168001F035BB607844280AD0552811D10420CA
S3150800169007F01CFADFF8C41D11A801F0C7FC0DE01D
S315080016A0042007F021FADFF8B81D11A801F0BEFCE6
S315080016B004E0DFF8B01D11A801F0B8FC01F017BB73
S315080016C05FFA88F8B8F1020F06DADFF89C1D11A850
S315080016D001F0ACFC01F006BB6078432800F07A8282
S315080016E0442801F0B08149280AD04B2801F0C88166
S315080016F04D2801F0D682522801F0B18101F0EEBAE8
S315080017005FFA88F8B8F1090F05DADFF8601D11A845
S3150800171001F08CFC53E2A078512800F0BC81C0F09F
S315080017204982532802D0C0F0A38043E2E0783A28E1
S3150800173002D1A0792E2805D0DFF8B41D11A801F032
S3150800174075FC94E094F904008DF8300094F90500CE
S315080017508DF8310000208DF832000CA801F06AFBE4
S31508001760002805D1DFF88C1D11A801F05FFC7EE08A
S315080017700CA801F084FB109094F907008DF830004E
S3150800178094F908008DF8310000208DF832000CA875
S3150800179001F050FB002805D1DFF8DC1D11A801F087
S315080017A045FC64E00CA801F06AFB319031980028EA
S315080017B006D1109ADFF8C41D11A802F00DFC2DE021
S315080017C000203590002006003198864226DA03204C
S315080017D000FB06F0204490F90A008DF8300003203B
S315080017E000FB06F0204490F90B008DF8310000202C
S315080017F08DF832000CA801F01DFB002807D1DFF890
S31508001800F41C11A801F012FC0120359006E00CA882
S3150800181001F035FB8FA98855761CD5E73598002841
S3150800182005D1109ADFF8D81D11A802F0D5FB0020C3
S315080018300600319886420BDA8FA8825DB8A10CA8FB
S3150800184002F0CAFB0CA911A802F0E0FB761CF0E72F
S315080018501AA111A802F0DAFB4FF4FA7331980200C4
S3150800186092B28FA9109880B207F05CFA0500A6E13B
S31508001870E0783A2805D1A0792E2802D1607A2E2858
S3150800188005D0DFF8801D11A801F0D0FB02E194F91C
S3150800189004008DF8300094F905008DF83100002019
S315080018A08DF832000CA801F0C5FA00280CD1DFF833
S315080018B0D81D11A801F0BAFBECE000BF0D0A000024
S315080018C0A85D0108906101080CA801F0D8FA1090EB
S315080018D094F907008DF8300094F908008DF8310066
S315080018E000208DF832000CA801F0A4FA002805D1D2
S315080018F0DFF8981D11A801F099FBCBE00CA801F0C0
S31508001900BEFA319094F90A008DF8300094F90B006C
S315080019108DF8310000208DF832000CA801F08AFA03
S3150800192000280BD1DFF8E81D11A801F07FFBB1E014
S31508001930706E0108206D0108D45D01080CA801F03D
S315080019409EFA39903198002806D1109ADFF8C41DFE
S3150800195011A802F041FB34E0002035900020060073
S31508001960319886422DDA032000FB06F0204490F9D0
S315080019700D008DF83000032000FB06F0204490F996
S315080019800E008DF8310000208DF832000CA801F009
S3150800199051FA00280ED1DFF8001E11A801F046FB07
S315080019A0012035900DE000BF3C6D0108D0640108A8
S315080019B0F47301080CA801F062FA8FA98855761C01
S315080019C0CEE73598002805D1109ADFF8D01D11A862
S315080019D002F002FB00200600319886420BDA8FA837
S315080019E0825D4FA10CA802F0F7FA0CA911A802F023
S315080019F00DFB761CF0E7CAA111A802F007FB4FF40D
S31508001A00FA733198020092B28FA9109880B207F043
S31508001A1089F90500EDB2002D0ED14FF4FA73399805
S31508001A20020092B28FA9109880B207F0C6F9050095
S31508001A30EDB2002D05D100E0C1E0142007F0F8F959
S31508001A400500EDB2002D25D111A9002001F0C6FB35
S31508001A500500EDB2002D03D02800C0B201F0C9B9C7
S31508001A60DFF8FC1D11A802F0B7FA00200600399825
S31508001A7086420BDA8FA8825D29A10CA802F0ACFA7F
S31508001A800CA911A802F0C2FA761CF0E7A4A111A8C5
S31508001A9002F0BCFA93E0E0783A2802D1A0792E2821
S31508001AA00CD0DFF8C01D11A801F0C0FA81E000BF14
S31508001AB0886E0108506B01080874010894F904003F
S31508001AC08DF8300094F905008DF8310000208DF866
S31508001AD032000CA801F0AEF9002805D1DFF8081E7F
S31508001AE011A801F0A3FA64E00CA801F0C8F9109057
S31508001AF094F907008DF8300094F908008DF8310044
S31508001B0000208DF832000CA801F094F9002809D1BC
S31508001B10DFF8D81D11A801F089FA4AE01C740108FB
S31508001B2025782E000CA801F0AAF93990109ADFF84A
S31508001B30E41B11A802F050FA4FF4FA733998020020
S31508001B4092B28FA9109880B207F037F90500EDB266
S31508001B50002D07D1142007F06BF90500EDB2002D12
S31508001B6027D100E02BE011A9002001F037FB050082
S31508001B70EDB2002D03D02800C0B201F03AB9DFF863
S31508001B80E01C11A802F028FA0020060039988642BF
S31508001B900BDA8FA8825DCEA10CA802F01DFA0CA95B
S31508001BA011A802F033FA761CF0E75DA111A802F03D
S31508001BB02DFA04E0DFF8A81711A801F037FA01F0AA
S31508001BC091B800BFA06E0108B86E0108F464010858
S31508001BD0D06E0108002005005FFA88F8B8F1020FF8
S31508001BE07AD1052003F0A0FA002804D055A804F0FD
S31508001BF0DDFA05000BE0062003F096FA002804D06B
S31508001C0055A803F004FC050001E001200500EDB22B
S31508001C10002D5AD13CA806F0B3FB0500EDB2002D05
S31508001C204CD14BA805F0A1FD0500EDB2002D3BD126
S31508001C30ACA802F023FA0500EDB2002D2DD1ACA810
S31508001C4009904BA808903CA8079055A8069085A827
S31508001C5005907FA8049079A8039073A802906DA8B0
S31508001C60019067A8009061AB5BAADFF8041E11A873
S31508001C7002F0B2F911A9002001F0B0FA0500EDB2A0
S31508001C80002D03D02800C0B201F0B3B8DFF8E41D78
S31508001C9011A802F0A1F900F0D5BEDFF8DC1D11A8E5
S31508001CA002F09AF900F0CEBEDFF8D01D11A802F0B6
S31508001CB093F900F0C7BE00BF005E0108DFF8081EF2
S31508001CC011A802F089F900F0BDBEDFF8001E11A8C0
S31508001CD002F082F900F0B6BEA078492800F0A48682
S31508001CE0522800F01083532804D0542800F0728636
S31508001CF000F0A8BEE0783A2805D0DFF8D41D11A870
S31508001D0001F094F9FEE25FFA88F8B8F1050F09DAEE
S31508001D10DFF8C01D11A801F089F9F3E24C75010836
S31508001D200D0A0000201D3290329950A801F07EF964
S31508001D3000200B9000200A900AA800900BAB36AA48
S31508001D40DFF8081E50A807F05BF9032840F0D58293
S31508001D500A9807F067F9CDE902010B9807F062F9CE
S31508001D60CDE9000136AADFF8E81D11A802F034F91A
S31508001D700422DFF8E01D36A807F07BF9002814D105
S31508001D800B9A0A99002007F0F1F90500EDB2002D2B
S31508001D9005D1DFF8E81D11A802F01EF9AAE2DFF85E
S31508001DA0E01D11A802F018F9A4E20422DFF8D41DF8
S31508001DB036A807F05EF9002814D10B9A0A99012073
S31508001DC007F0D4F90500EDB2002D05D1DFF8B81DEE
S31508001DD011A802F001F98DE2DFF8A41D11A802F09E
S31508001DE0FBF887E20422DFF8A41D36A807F041F9BC
S31508001DF0002819D10B9A0A99022007F0B7F90500AD
S31508001E00EDB2002D0AD1DFF8FC1D11A802F0E4F8A6
S31508001E1070E200BF5C5C0108E86E0108DFF8601D2F
S31508001E2011A802F0D9F865E20422DFF8DC1D36A80D
S31508001E3007F01FF9002817D10B9A0A99032007F013
S31508001E4095F90500EDB2002D08D1DFF8C01D11A8DF
S31508001E5002F0C2F84EE200BF30740108DFF8201D18
S31508001E6011A802F0B9F845E20422DFF8F41D36A8F5
S31508001E7007F0FFF8002814D10B9A0A99042007F0F6
S31508001E8075F90500EDB2002D05D1DFF8041E11A87D
S31508001E9002F0A2F82EE2DFF8E81C11A802F09CF87E
S31508001EA028E20422DFF8EC1D36A807F0E2F800283D
S31508001EB016D10B9A0A99052007F058F90500EDB2D4
S31508001EC0002D07D1DFF8F81D11A802F085F811E2F8
S31508001ED025782E00DFF8A81C11A802F07DF809E283
S31508001EE00422DFF8F01D36A807F0C3F8002819D138
S31508001EF00B9A0A99062007F039F90500EDB2002D6C
S31508001F000AD1DFF8D41D11A802F066F8F2E100BF85
S31508001F10B8610108586D0108DFF8641C11A802F0C1
S31508001F205BF8E7E10422DFF8D81D36A807F0A1F828
S31508001F30002819D10B9A0A99072007F017F9050006
S31508001F40EDB2002D0AD1DFF8BC1D11A802F044F845
S31508001F50D0E100BF505A01085C750108DFF8201C63
S31508001F6011A802F039F8C5E10422DFF8D41D36A815
S31508001F7007F07FF8002819D10B9A0A99082007F06C
S31508001F80F5F80500EDB2002D0AD1DFF8CC1D11A831
S31508001F9002F022F8AEE100BFDC760108E876010817
S31508001FA0DFF8DC1B11A802F017F8A3E10422DFF81A
S31508001FB0C01D36A807F05DF8002817D10B9A0A99B4
S31508001FC0092007F0D3F80500EDB2002D08D1DFF897
S31508001FD0C01D11A802F000F88CE100BFF4760108D4
S31508001FE0DFF89C1B11A801F0F7FF83E10422DFF854
S31508001FF0A41D36A807F03DF8002819D10B9A0A99AE
S315080020000A2007F0B3F80500EDB2002D0AD1DFF873
S31508002010B81D11A801F0E0FF6CE100BF1C550108CE
S31508002020F0550108DFF8581B11A801F0D5FF61E14A
S315080020300422DFF8981D36A807F01BF8002814D1EB
S315080020400B9A0A990B2007F091F80500EDB2002DBE
S3150800205005D1DFF8A81D11A801F0BEFF4AE1DFF897
S31508002060201B11A801F0B8FF44E10422DFF8901DF7
S3150800207036A806F0FEFF002816D10B9A0A990C20FE
S3150800208007F074F80500EDB2002D07D1DFF8741DCE
S3150800209011A801F0A1FF2DE164550108DFF8E01A47
S315080020A011A801F099FF25E10422DFF85C1D36A886
S315080020B006F0DFFF002817D10B9A0A990D2007F0C2
S315080020C055F80500EDB2002D08D1DFF8401D11A81E
S315080020D001F082FF0EE100BFF8560108DFF8A01AEA
S315080020E011A801F079FF05E10422DFF8241D36A8BE
S315080020F006F0BFFF002819D10B9A0A990E2007F09F
S3150800210035F80500EDB2002D0AD1DFF8081D11A833
S3150800211001F062FFEEE000BFB8580108F458010864
S31508002120DFF85C1A11A801F057FFE3E00422DFF894
S31508002130E81C36A806F09DFF002819D10B9A0A99C3
S315080021400F2007F013F80500EDB2002D0AD1DFF8CD
S31508002150CC1C11A801F040FFCCE000BF30590108A3
S31508002160885A0108DFF8181A11A801F035FFC1E0EE
S315080021700422DFF8AC1C36A806F07BFF002817D12E
S315080021800B9A0A99102006F0F1FF0500EDB2002D12
S3150800219008D1DFF8901C11A801F01EFFAAE000BFC5
S315080021A038570108DFF8D81911A801F015FFA1E082
S315080021B00422DFF8741C36A806F05BFF002819D144
S315080021C00B9A0A99112006F0D1FF0500EDB2002DF1
S315080021D00AD1DFF8581C11A801F0FEFE8AE000BFFC
S315080021E078570108B8570108DFF8941911A801F0C3
S315080021F0F3FE7FE00422DFF8381C36A806F039FF24
S31508002200002819D10B9A0A99122006F0AFFF05008B
S31508002210EDB2002D0AD1DFF8C41C11A801F0DCFECE
S3150800222068E000BFF857010838580108DFF8501968
S3150800223011A801F0D1FE5DE00422DFF8A41C36A83F
S3150800224006F017FF002814D10B9A0A99132006F0F6
S315080022508DFF0500EDB2002D05D1DFF8881C11A809
S3150800226001F0BAFE46E0DFF8181911A801F0B4FE2D
S3150800227040E00422DFF8701C36A806F0FAFE0028B3
S3150800228016D10B9A0A99142006F070FF0500EDB2D4
S31508002290002D07D1DFF8541C11A801F09DFE29E096
S315080022A034560108DFF8D81811A801F095FE21E088
S315080022B00422DFF83C1C36A806F0DBFE002814D101
S315080022C00B9A0A99152006F051FF0500EDB2002D6C
S315080022D005D1DFF8201C11A801F07EFE0AE0DFF820
S315080022E0A01811A801F078FE04E0DFF80C1C11A86C
S315080022F001F072FE0020050004E0DFF8001C11A8BA
S3150800230000F094FE9EE306F063FF0200DFF8F01B80
S3150800231011A801F061FE11A9002000F05FFF050079
S31508002320EDB2002D03D02800C0B200F062BDDFF880
S31508002330D41B11A801F050FE11A9002000F04EFF91
S315080023400500EDB2002D0DD02800C0B200F051BD39
S31508002350706B0108AC7801082C5B01081865010848
S31508002360306B010800200600162E80F22D83002E01
S3150800237033D0022E7CD050D3042E00F0BD80C0F09E
S315080023809780062E00F0FC80C0F0D680082E00F05C
S315080023903B81C0F015810A2E00F07A81C0F0548185
S315080023A00C2E00F0B981C0F093810E2E00F0F88152
S315080023B0C0F0D281102E00F03382C0F01182122EA6
S315080023C000F07282C0F05082142E00F0B182C0F084
S315080023D08F82152E00F0CC82E9E23000C0B206F0FA
S315080023E0E6FE83463000C0B206F0E7FE81463000BE
S315080023F0C0B206F0E8FE8246584606F013FECDE95E
S315080024000201484606F00EFECDE900015246DFF805
S31508002410F81A11A801F0E0FDC9E23000C0B206F0D2
S31508002420C6FE83463000C0B206F0C7FE81463000BD
S31508002430C0B206F0C8FE8246584606F0F3FDCDE95E
S315080024400201484606F0EEFDCDE900015246DFF8E6
S31508002450BC1A11A801F0C0FDA9E200BF906B0108E3
S31508002460B06B01082C5E0108D06B0108E061010819
S315080024703000C0B206F09BFE83463000C0B206F0BC
S315080024809CFE81463000C0B206F09DFE8246584644
S3150800249006F0C8FDCDE90201484606F0C3FDCDE9C0
S315080024A000015246DFF8681A11A801F095FD7EE290
S315080024B03000C0B206F07BFE83463000C0B206F09C
S315080024C07CFE81463000C0B206F07DFE8246584644
S315080024D006F0A8FDCDE90201484606F0A3FDCDE9C0
S315080024E000015246DFF82C1A11A801F075FD5EE2CC
S315080024F008620108585E01083000C0B206F057FEAF
S3150800250083463000C0B206F058FE81463000C0B29D
S3150800251006F059FE8246584606F084FDCDE90201CA
S31508002520484606F07FFDCDE900015246DFF8E81976
S3150800253011A801F051FD3AE23000C0B206F037FEAC
S3150800254083463000C0B206F038FE81463000C0B27D
S3150800255006F039FE8246584606F064FDCDE90201CA
S31508002560484606F05FFDCDE900015246DFF8AC1992
S3150800257011A801F031FD1AE2605B0108006F01083D
S315080025803000C0B206F013FE83463000C0B206F033
S3150800259014FE81463000C0B206F015FE8246584643
S315080025A006F040FDCDE90201484606F03BFDCDE9BF
S315080025B000015246DFF8681911A801F00DFDF6E191
S315080025C03000C0B206F0F3FD83463000C0B206F014
S315080025D0F4FD81463000C0B206F0F5FD8246584645
S315080025E006F020FDCDE90201484606F01BFDCDE9BF
S315080025F000015246DFF82C1911A801F0EDFCD6E1CE
S3150800260044740108306201083000C0B206F0CFFDFC
S3150800261083463000C0B206F0D0FD81463000C0B215
S3150800262006F0D1FD8246584606F0FCFCCDE90201CB
S31508002630484606F0F7FCCDE900015246DFF8E818EF
S3150800264011A801F0C9FCB2E13000C0B206F0AFFD36
S3150800265083463000C0B206F0B0FD81463000C0B2F5
S3150800266006F0B1FD8246584606F0DCFCCDE90201CB
S31508002670484606F0D7FCCDE900015246DFF8AC180B
S3150800268011A801F0A9FC92E1845E0108945B010897
S315080026903000C0B206F08BFD83463000C0B206F0AB
S315080026A08CFD81463000C0B206F08DFD8246584644
S315080026B006F0B8FCCDE90201484606F0B3FCCDE9C0
S315080026C000015246DFF8681811A801F085FC6EE192
S315080026D03000C0B206F06BFD83463000C0B206F08B
S315080026E06CFD81463000C0B206F06DFD8246584644
S315080026F006F098FCCDE90201484606F093FCCDE9C0
S3150800270000015246DFF82C1811A801F065FC4EE1CD
S315080027106C590108186F01083000C0B206F047FD71
S3150800272083463000C0B206F048FD81463000C0B28C
S3150800273006F049FD8246584606F074FCCDE90201CA
S31508002740484606F06FFCCDE900015246DFF8E81767
S3150800275011A801F041FC2AE13000C0B206F027FDBD
S3150800276083463000C0B206F028FD81463000C0B26C
S3150800277006F029FD8246584606F054FCCDE90201CA
S31508002780484606F04FFCCDE900015246DFF8AC1783
S3150800279011A801F021FC0AE15862010858740108E1
S315080027A03000C0B206F003FD83463000C0B206F022
S315080027B004FD81463000C0B206F005FD8246584643
S315080027C006F030FCCDE90201484606F02BFCCDE9BF
S315080027D000015246DFF8681711A801F0FDFBE6E094
S315080027E03000C0B206F0E3FC83463000C0B206F003
S315080027F0E4FC81463000C0B206F0E5FC8246584645
S3150800280006F010FCCDE90201484606F00BFCCDE9BE
S3150800281000015246DFF82C1711A801F0DDFBC6E0CF
S315080028203000C0B206F0C3FC83463000C0B206F0E2
S31508002830C4FC81463000C0B206F0C5FC8246584644
S3150800284006F0F0FBCDE90201484606F0EBFBCDE9C0
S3150800285000015246DFF8F01611A801F0BDFBA6E00C
S3150800286000770108806201083000C0B206F09FFCBC
S3150800287083463000C0B206F0A0FC81463000C0B2E4
S3150800288006F0A1FC8246584606F0CCFBCDE90201CB
S31508002890484606F0C7FBCDE900015246DFF8AC16FC
S315080028A011A801F099FB82E03000C0B206F07FFC67
S315080028B083463000C0B206F080FC81463000C0B2C4
S315080028C006F081FC8246584606F0ACFBCDE90201CB
S315080028D0484606F0A7FBCDE900015246DFF8701618
S315080028E011A801F079FB62E0B05E0108C85B010837
S315080028F03000C0B206F05BFC83463000C0B206F07A
S315080029005CFC81463000C0B206F05DFC8246584643
S3150800291006F088FBCDE90201484606F083FBCDE9BF
S3150800292000015246DFF82C1611A801F055FB3EE0CF
S315080029303000C0B206F03BFC83463000C0B206F059
S315080029403CFC81463000C0B206F03DFC8246584643
S3150800295006F068FBCDE90201484606F063FBCDE9BF
S3150800296000015246DFF8F01511A801F035FB1EE00C
S315080029703000C0B206F01BFC83463000C0B206F039
S315080029801CFC81463000C0B206F01DFC8246584643
S3150800299006F048FBCDE90201484606F043FBCDE9BF
S315080029A000015246DFF8B41511A801F015FB11A96C
S315080029B0002000F013FC0500EDB2002D02D028001F
S315080029C0C0B216E2761CCFE4DFF8941511A801F020
S315080029D003FB37E0E0783A2805D0DFF8881511A818
S315080029E000F024FB1FE05FFA88F8B8F1050F05DA56
S315080029F0DFF8741511A800F019FB14E0201D3290B9
S31508002A00329950A800F012FB329806F0C8FB050070
S31508002A10EDB2002D02D02800C0B2EAE1DFF8401579
S31508002A2011A801F0D9FA0DE006F055FB0500EDB244
S31508002A30002D02D02800C0B2DBE1DFF8241511A86A
S31508002A4001F0CAFA4EE102F0AFFBADF8C200BDF8DC
S31508002A50C220DFF8181511A801F0BEFA42E106F007
S31508002A606AFCDFF80C1511A801F0B6FA3AE100BFC6
S31508002A70A86201080C770108306F0108486F010841
S31508002A80002005005FFA88F8B8F1040F05DADFF8C8
S31508002A90E41411A800F0CAFA02E1A078522800F05E
S31508002AA0C680532840F0F880E078522802D0532890
S31508002AB05BD0B6E020793A280ED0DFF8BC1411A80E
S31508002AC000F0B4FA50E000BF3C65010860650108F3
S31508002AD0D0620108846501085FFA88F8B8F1060F24
S31508002AE010DB01203390052006005FFA88F846457A
S31508002AF00ADAA05D06F050FC002801D100203390C8
S31508002B00761CF2E7002033903398002805D1DFF8C9
S31508002B106C1411A800F08AFA26E0601D32903299EA
S31508002B2050A800F083FA50A806F03BFC349034987D
S31508002B3042F21071884202DA349800280CD5DFF880
S31508002B403C1411A800F072FA0EE000BF18770108CD
S31508002B50606F0108B4780108349806F0B3FCDFF812
S31508002B60201411A801F038FA60E020793A280FD02D
S31508002B70DFF8101411A800F059FA51E0746D010835
S31508002B80906D0108BC780108786F0108C4780108BF
S31508002B905FFA88F8B8F1060F10DB0120339005209C
S31508002BA006005FFA88F846450ADAA05D06F0F4FBE7
S31508002BB0002801D100203390761CF2E700203390DC
S31508002BC03398002805D1DFF8C01311A800F02EFAB3
S31508002BD026E0601D3290329950A800F027FA50A8D6
S31508002BE006F0DFFB3490349842F21071884202DA1C
S31508002BF0349800280CD5DFF8901311A800F016FABF
S31508002C000EE000BF6C740108CC780108906F0108CB
S31508002C10349806F06CFCDFF8681311A801F0DCF9AB
S31508002C2004E0DFF8681311A800F000FA38E0E0784D
S31508002C30522802D0532815D024E006F06DFC06F081
S31508002C4089FCDFF84C1306F095FC06F0EBF9020058
S31508002C500B00DFF8401311A801F0BEF916E000BF1B
S31508002C60D478010806F05BFC06F074FCC84906F047
S31508002C7081FC06F0D7F902000B00C74911A801F03C
S31508002C80ABF903E0C14911A800F0D0F908E000BF8C
S31508002C9080740108DC780108C04911A800F0C6F95B
S31508002CA020E0BF4911A800F0C1F911A9002000F0E1
S31508002CB095FA0500EDB2002D04D02800C0B298E0C0
S31508002CC094740108B74911A800F0B0F90120B64973
S31508002CD0087007E0E4780108A86F0108AF4911A851
S31508002CE000F0A4F903E0AD4911A800F09FF9EDB290
S31508002CF0002D09D0022D44D007D3032D4CD052E025
S31508002D00EC780108C06F010853E006F087F83B909D
S31508002D103B9801280AD002280DD0042812D008288A
S31508002D2015D010281AD020281DD023E09F4911A8B5
S31508002D3000F07CF922E09E4911A800F077F91DE021
S31508002D40F47801089B4911A800F070F916E09A4931
S31508002D5011A800F06BF911E0D86F0108974911A87E
S31508002D6000F064F90AE0964911A800F05FF905E059
S31508002D70FC780108934911A800F058F905F029FFD5
S31508002D8017E0914911A800F051F905F022FF10E06B
S31508002D90F06F0108047901088C4911A800F046F97A
S31508002DA005F017FF05E08A4911A800F03FF905F07C
S31508002DB010FF11A9002000F011FA0500EDB2002D50
S31508002DC006D02800C0B214E0087001080C79010882
S31508002DD0804911A800F02AF911A9002000F0FEF98F
S31508002DE00500EDB2002D02D02800C0B201E028008F
S31508002DF0C0B20DF5806D15B0BDE8F08F20700108E2
S31508002E0014790108387001081C7901085070010806
S31508002E1024790108687001082C7901088070010876
S31508002E2034790108987001083C790108B0700108E6
S31508002E3044790108F8B50400200000F0CDF8050033
S31508002E400020070000200600AE4216DAA05D3A28E8
S31508002E5002DAA05D302805DAA05D472805DAA05D0C
S31508002E60412802DB0020070001E001200700012FAE
S31508002E7001D1002002E0761CE6E70120F2BD2DE92B
S31508002E80F041040000275FF00008200000F0A4F8D5
S31508002E90050000200600AE421ADAA05D3A2806DAD6
S31508002EA0A05D302803DBA05D303807000CE0A05D8C
S31508002EB0472806DAA05D412803DBA05D37380700FE
S31508002EC002E05FF0FF3004E017EB0818761CE2E733
S31508002ED04046BDE8F081344800787047C87001085C
S31508002EE04C790108E070010854790108F870010866
S31508002EF05C79010810710108F06B01088C5C010807
S31508002F00106C0108A865010828710108306C0108D1
S31508002F1040710108506C0108587101087071010868
S31508002F2088710108A0710108B8710108D0710108FB
S31508002F30706C0108E871010800720108906C0108BC
S31508002F401872010830720108487201086072010897
S31508002F507872010890720108A8720108C072010807
S31508002F60A8740108F8620108CC650108D87201083E
S31508002F70F065010820630108DC5E01081466010893
S31508002F800C770108085F0108386601085C660108C5
S31508002F900000204148630108345F0108306B0108CE
S31508002FA0AC6D0108C86D0108703600207063010811
S31508002FB0BC5C0108EC5C01081C5D0108986301080B
S31508002FC04C5D0108C0630108E86301081064010844
S31508002FD0386401086479010800F10103810704D007
S31508002FE010F8011B89B18107FAD10268B2F10131E3
S31508002FF0914311F0803F04BF50F8042FF6E710F80C
S31508003000011B11B110F8011BFBE7C01A70470368D2
S315080030101AB95A1E026008467047197800290FBF68
S315080030204FF0FF30591C0160187870475FEA000CB2
S31508003030830706D011F8013B00F8013BB3B18307BB
S31508003040F8D10A68B2F1013323EA020313F0803F8C
S3150800305002BF40F8042B51F8042FF3E711F8013B9F
S3150800306000F8013B13B111F8013BF9E760467047D8
S3150800307080B5DFF88004DFF8801408604FF49640C6
S31508003080DFF8741448600020DFF86C1488600020AC
S31508003090DFF86414C8600020DFF85C1408610C20AF
S315080030A0DFF8541448610020DFF84C1488610020CA
S315080030B0DFF84414C861DFF8400406F0D9FA00289E
S315080030C001D007F05FFA01BD80B5DFF83004DFF8FC
S315080030D0301408605FF4E130DFF8241448600020FB
S315080030E0DFF81C1488600020DFF81414C86000207C
S315080030F0DFF80C1408610C20DFF8041448614FF45B
S315080031004070DFF8FC1388610020DFF8F413C8610B
S31508003110DFF8EC0306F0ACFA002801D007F032FA23
S3150800312001BD10B586B004002068DFF8C8138842D0
S315080031301ED1DFF8D003006850F40030DFF8C4135E
S315080031400860DFF8C003006810F4003000900098AB
S315080031500C20019002200290012003900320049085
S315080031600720059001A9DFF8A00307F023FA33E04A
S315080031702068DFF8881388422ED1DFF888030068B4
S3150800318050F48020DFF87C130860DFF878030068C5
S3150800319010F48020009000984FF4406001900220BF
S315080031A0029001200390032004900720059001A9AE
S315080031B0DFF8580307F0FEF94FF4C04001900220EB
S315080031C0029000200390032004900720059001A98F
S315080031D0DFF8380307F0EEF906B010BDF8B50400BD
S315080031E00D002800FFF7F8FE0700BFB2792F01DBB4
S315080031F001203AE0E4B2002C19D1DFF81403007874
S31508003200002801D0022030E04FF400433A0092B281
S315080032102900DFF8E40206F064FA0600F6B2002E8A
S3150800322002D03000C0B220E03000C0B21DE0E4B2E7
S31508003230012C19D1DFF8DC020078002801D0022021
S3150800324013E04FF400433A0092B22900DFF8B002C7
S3150800325006F047FA0600F6B2002E02D03000C0B2D9
S3150800326003E03000C0B200E00120F2BDF8B504006A
S315080032700D002800FFF7B0FE0700BFB2792F01DB6B
S31508003280012036E0E4B2002C17D1DFF8840200787A
S31508003290002801D002202CE03A0092B22900DFF87B
S315080032A0580206F09CFA0600F6B2002E02D030004C
S315080032B0C0B21EE03000C0B21BE0E4B2012C17D148
S315080032C0DFF850020078002801D0022011E03A0009
S315080032D092B22900DFF8280206F081FA0600F6B253
S315080032E0002E02D03000C0B203E03000C0B200E0C9
S315080032F00120F2BDDFF8200270470120DFF81C121A
S3150800330008707047854800787047F8B504000D00C6
S315080033101600B6B2792E01DB012032E0E4B2002CA9
S3150800332015D17B480078002801D0022029E0320018
S3150800333092B22900704806F08AFA0700FFB2002FF9
S3150800334002D03800C0B21CE03800C0B219E0E4B2BE
S31508003350012C15D16F480078002801D0022010E012
S31508003360320092B22900664806F071FA0700FFB2E9
S31508003370002F02D03800C0B203E03800C0B200E027
S315080033800120F2BD10B504002000C0B200F006F816
S31508003390012801D0002000E0012010BD0100C9B2BB
S315080033A0002903D1544890F8390007E0C9B2012929
S315080033B003D1534890F8390000E0042070470168AB
S315080033C04C4A914203D10121514A117006E0016825
S315080033D04A4A914202D101214E4A11707047C0B241
S315080033E0002803D100214A4A117005E0C0B201281D
S315080033F002D10021474A1170704770B50400206851
S315080034003C49884203D10120414908704CE02068B4
S315080034103A49884248D1FFF775FF002824D003208F
S3150800342040490860FFF766FF3F4908603E48006864
S315080034304078401C0600002005003A48006885428E
S315080034400BDA39480068007800F072FB36480068E5
S31508003450401C354908606D1CEFE732480660314864
S3150800346000682F4908601CE0FFF744FF2E490860F2
S31508003470002005002B48006885420BDA2A480068B8
S31508003480007800F055FB28480068401C264908606B
S315080034906D1CEFE70320234908602248006820498D
S315080034A0086001201B49087070BD70471448006801
S315080034B0C06850F0800012490968C8607047104813
S315080034C00068C06850F480700D490968C8600C48E7
S315080034D00068406950F001000949096848610848D0
S315080034E00068C06850F0200005490968C860704740
S315080034F000000000004400409033002000480040CF
S31508003500D033002024380240000002400004024064
S315080035107336002074360020543500207536002096
S31508003520480000205C3600205836002038B50400D4
S315080035300D00DFF8A40700680471DFF89C0700682F
S315080035404571DFF89807DFF8901709680860DFF813
S3150800355088070068011DDFF880070068006807F023
S3150800356094FADFF87C070068001D32BD0020DFF8FA
S315080035707417A1F820030020DFF86C1781F896016C
S315080035800020DFF8641781F897010020DFF8581744
S3150800359081F898010020DFF8501781F8990100207A
S315080035A0DFF8441781F89A010120DFF83C1781F803
S315080035B09B017047401CC0B2C82800DB0020C0B27F
S315080035C0704738B504000D00002C27D0DFF818071F
S315080035D090F89301DFF8101791F8921188421BD0E2
S315080035E00020DFF8041781F89501DFF8FC06DFF8FC
S315080035F0F81691F89311084490F8CA0028706D1CC3
S31508003600DFF8E40690F89301FFF7D4FFDFF8D81641
S3150800361081F89301641ED7E7FFF751FF002032BDFA
S31508003620DFF8C40690F89501704780B5FFF79EFF4E
S31508003630062005F059FA0FF2C530DFF8B016086013
S31508003640DFF8AC06DFF8AC160860DFF8AC06DFF882
S31508003650AC160860062005F039FA01BD70B586B0CB
S315080036600025DFF88406D0F89C01002805D107F06C
S31508003670FAF9DFF87416C1F89C01DFF86C06D0F881
S315080036809C01002800F0EF80DFF85C06D0F89C016A
S315080036900068DFF86C160840DFF84816DFF844269D
S315080036A0B2F8202341F82200DFF83806B0F82003E4
S315080036B0C0B2FFF77FFFDFF82C16A1F82003DFF86A
S315080036C02806D0F89C010068DFF834160840040084
S315080036D02000DFF8301688422AD0DFF82C168842F8
S315080036E058D0DFF82816884200F08280DFF82016C6
S315080036F0884229D0DFF81C16884279D0DFF81816D8
S31508003700884257D0DFF81416884200F09280DFF816
S31508003710101688425AD0DFF80C16884262D0DFF8B5
S315080037200816884264D0DFF8041688425AD08BE01F
S31508003730DFF8FC150020FFF751FD012005000120E8
S31508003740DFF8A41581F896010020DFF89C1581F8AA
S31508003750970102210220FFF7E9FE060030880028BB
S3150800376017D1EDB2002D0FD1DFF8C8150020FFF7ED
S3150800377035FD02210D2007F0C7F901F058FD0D208F
S3150800378007F012FA05F0D7FD0020DFF85C15C1F83E
S315080037909C0168E0DFF8A0150020FFF71FFD012057
S315080037A0DFF8441581F897010020DFF83C15C1F8C9
S315080037B09C0158E08FA10020FFF710FD01F044FDA1
S315080037C00020DFF82415C1F89C014CE08AA10020EE
S315080037D0FFF704FD01F038FD0020DFF80C15C1F8ED
S315080037E09C0140E00020DFF80015C1F89C013AE092
S315080037F0DFF848150020FFF7F1FCDFF8EC04D0F8F5
S315080038009C01807A00280ED0DFF8DC04D0F89C01F1
S3150800381010F10B02DFF82815684600F0DDFB694653
S315080038200020FFF7DBFC0020DFF8BC14C1F89C0180
S3150800383019E0DFF810150020FFF7D0FC0020DFF8AC
S31508003840A814C1F89C010EE02200DFF8FC146846B3
S3150800385000F0C2FB69460020FFF7C0FC0020DFF835
S315080038608814C1F89C0106B070BDDFF87C0490F896
S3150800387096017047DFF8700490F897017047DFF8F3
S31508003880680490F89801704700B585B0DFF85804C9
S3150800389090F89901032835D1DFF84C0490F89B017C
S315080038A0012801D101202EE0DFF83C0490F89A01A6
S315080038B0401CDFF8341481F89A01DFF82C0490F8DC
S315080038C09A21DFF88814684600F086FB69460020CE
S315080038D0FFF784FCDFF8100490F89A0105280FDB3F
S315080038E0DFF86C140020FFF779FC0221122007F09C
S315080038F00BF901F09CFC122007F056F905F01BFDA8
S31508003900002000E0012005B000BDDFF8DC0390F8D8
S315080039109901032809D1DFF8D00390F89B01012803
S3150800392001D1012002E0002000E001207047DFF805
S31508003930B81381F89B017047DFF8AC1391F8991119
S31508003940032903D1DFF8A01381F89B017047DFF83C
S31508003950980390F899017047DFF88C1381F899015C
S31508003960704738B5040020680068000626D5DFF8D9
S31508003970780390F8C900DFF8701391F8C8108842E8
S3150800398015D0DFF86403DFF8601391F8C910415CBD
S3150800399089B2200000F0C1F8DFF84C0390F8C9009E
S315080039A0FFF708FEDFF8401381F8C90006E0206833
S315080039B0C0687FF0800108402168C86020680068F8
S315080039C010F00F000F2807D10020C74981F894018D
S315080039D0200000F0A8F80BE020680068800607D5EC
S315080039E0200000F0A0F805002800C0B200F0A0F8FA
S315080039F031BD00002D2A2D002D4F2D002DE9F04157
S31508003A0004000D0054F07F400600B648B549B1F8E9
S31508003A10201340F82160B348B0F82003C0B2FFF77E
S31508003A20C9FDB049A1F8200328786978090411EB83
S31508003A300060A97810EB0120E97808180600A94863
S31508003A40A849B1F8201340F82160A648B0F8200329
S31508003A50C0B2FFF7AFFDA349A1F820032879697919
S31508003A60090411EB0060A97910EB0120E97908181F
S31508003A7006009C489B49B1F8201340F821609948F4
S31508003A80B0F82003C0B2FFF795FD9649A1F82003C8
S31508003A904FF4FA600700002C3DD0934890F8C80010
S31508003AA0FFF788FD804640468F4991F8C910C0B295
S31508003AB088421ED028788C498B4A92F8C8208854A8
S31508003AC0272005F031FC884890F8C800864991F807
S31508003AD0C910884201D1FFF7E9FC834880F8C880FD
S31508003AE0272005F01AFC641E6D1C4FF4FA600700C7
S31508003AF0D1E73800471E0028CDD100207A4981F841
S31508003B00960102210F2006F0FFFF0F2007F04CF860
S31508003B1005F011FCBFE7BDE8F08189B2CA05D20DF0
S31508003B2003685A60704700684068C005C00D704752
S31508003B3030B58FB0040087488749097844548648C9
S31508003B400078401C84490870E4B20A2C03D0E4B219
S31508003B503F2C40F0BD8000207F4908707D4A7F4990
S31508003B60684600F039FA69460020FFF737FB05007A
S31508003B70EDB2002D02D02800C0B2ABE0042278498D
S31508003B80744805F076FA00280DD10120564981F8C7
S31508003B9096010020544981F8980172490020FFF7E0
S31508003BA01DFB050094E009226F496A4805F061FA91
S31508003BB0002815D101204C4981F8970101204A496E
S31508003BC081F899010020484981F89A01674900203F
S31508003BD0FFF704FB66490020FFF700FB050077E0C6
S31508003BE00C2264495B4805F044FA00281DD10020E0
S31508003BF03D4981F8970100203B4981F89801012049
S31508003C00394981F899010020374981F89A015749BD
S31508003C100020FFF7E3FA00F059FB01F01BFB5649B9
S31508003C200020FFF7DBFA050052E004225349494811
S31508003C3005F01FFA002809D101202B4981F89801BF
S31508003C404F490020FFF7CAFA050041E005224D4911
S31508003C50404805F00EFA002824D1234890F8990127
S31508003C6002280DD10320204981F8990100201E4918
S31508003C7081F89A0144490020FFF7B0FA050027E0C9
S31508003C80194890F89901032822D10020164981F88D
S31508003C909A013E490020FFF7A1FA05000120FFF727
S31508003CA046FE15E008223A492A4805F0E2F90028B6
S31508003CB009D10221112006F027FF112006F074FF12
S31508003CC005F039FB04E033490020FFF787FA0500C1
S31508003CD02800C0B20FB030BD0C000020200203013E
S31508003CE010000020C8200020C02D0020103600201B
S31508003CF0C33500081436002021360008183600207F
S31508003D00F800FFFFA0000100A0000800A0000900BD
S31508003D10A0000801A000080220000A02A0000B0269
S31508003D20A0000A0320000A0520000908A0000020B8
S31508003D30A4750108CC740108DC740108506A0108EE
S31508003D40B0750108B06C0108BC7501080473010858
S31508003D50187301082C3500206F360020CC6C01083A
S31508003D607C770108EC740108C8750108706A0108B7
S31508003D702C730108FC7401080C7501088477010886
S31508003D80406E01088C770108E86C01084073010849
S31508003D90D47501085473010800210800802804DA44
S31508003DA000218A4A1154401CF8E770478848704732
S31508003DB0F8B504008021200007F02AF80500EDB2C6
S31508003DC0002D02D02800C0B222E007F058F80500FE
S31508003DD000200600C82E0ADA07F051F80500EDB2F1
S31508003DE0002D04D0052005F042F8761CF2E7C82E0F
S31508003DF001DB03200CE0270000200600802E05DAF0
S31508003E003878803838707F1C761CF7E72800C0B2EF
S31508003E10F2BD2DE9F8436C48FFF7CAFF80465FFA02
S31508003E2088F8B8F1000F02D04046C0B241E0002041
S31508003E300700802F05DA6448C05D6549C8557F1CB0
S31508003E40F7E7FFF7A9FF0023072260495E4807F056
S31508003E5043F8070017F1010F01D1012029E00020DE
S31508003E600700402F23DA5848C05705F069FB0500BC
S31508003E705648C05705F064FB06002800290007F0DD
S31508003E8001F981463000310007F0FCF8494607F091
S31508003E9065F905F0C7F807F0A3F907F019FA040061
S31508003EA0200007F05DFA4849C8557F1CD9E7404607
S31508003EB0C0B2BDE8F28370B582B0040000200500E8
S31508003EC040A1200000F088F800200600102E0BDA2A
S31508003ED03D4882573F49684600F07EF8694620000B
S31508003EE000F094F8761CF1E72800C0B276BD70B5EC
S31508003EF082B004000020050032A1200000F06CF812
S31508003F0000200600102E0DDA2F48304490F91020B4
S31508003F103049684600F060F86946200000F076F8F7
S31508003F20761CEFE72800C0B276BD70B582B00400F3
S31508003F300020050023A1200000F04EF8002006000E
S31508003F40102E0DDA2048304490F920202149684681
S31508003F5000F042F86946200000F058F8761CEFE7B2
S31508003F602800C0B276BD70B582B0040000200500F6
S31508003F7014A1200000F030F800200600102E0DDAFB
S31508003F801148304490F930201249684600F024F868
S31508003F906946200000F03AF8761CEFE72800C0B220
S31508003FA076BD0021080080280ADA0021064A115445
S31508003FB00021064A11540021054A1154401CF2E713
S31508003FC07047000000000000BC3100203C32002091
S31508003FD0BC3200206C7901080CB41CB5044604A850
S31508003FE001900A46009401AB6946074878441830A0
S31508003FF007F0D8F9009A0021117000285CBF0098D4
S31508004000001B16BC5DF80CFB97500000024600E04A
S31508004010521C1378002BFBD111F8013B137012F8D0
S31508004020013B002BF8D170471CB520208DF8000005
S3150800403001208DF8010008208DF8020000208DF877
S31508004040030000208DF8040000208DF8050068465E
S3150800405008F078FA0400E4B2002C05D0022C07D048
S3150800406004D3032C06D007E0002006E0012004E074
S31508004070032002E0012000E0012016BD2DE9FF47DC
S31508004080040000208046684608F00AFB00283AD15A
S31508004090009806003100062005F055F8060000983D
S315080040A004F0C0FF0022644B08F070FB08F056FCD1
S315080040B005002D0202AA9246009804F0B3FF524664
S315080040C008F062FC07F004F981465FF0874049462C
S315080040D006F0D8FF07F044F9070017F0F0077D1936
S315080040E02A00564914F10C00FFF776FFA561300047
S315080040F004F098FF02000B0051492000FFF76CFFFF
S315080041004046C0B200E0012004B0BDE8F0872DE9C2
S31508004110FF47040000200500684608F0C1FA002899
S3150800412035D100988146009804F07CFF0022424B66
S3150800413008F02CFB08F012FC0600360202AA92468A
S31508004140009804F06FFF524608F01EFC07F0C0F80E
S3150800415080465FF08740414606F094FF07F000F975
S31508004160070017F0F007BE193200344914F10C00A5
S31508004170FFF732FFA661484604F054FF02000B0021
S315080041802F492000FFF728FF2800C0B200E00120D1
S3150800419004B0BDE8F08730B585B00400684608F07D
S315080041A095FA002801D0012041E001A808F0AFFAED
S315080041B000283BD1019804F035FF224A224B08F02B
S315080041C0E5FA0022214B08F03BFC07F081F80500D0
S315080041D0BDF80000E082019804F024FF02000B00FD
S315080041E01B492000FFF7F8FE280004F01BFF020019
S315080041F00B001749E01DFFF7EFFEBDF90000C0F3FD
S31508004200072212B20B4914F10E00FFF7E5FEBDF9BD
S31508004210000000F0FF02074902A8FFF7DDFE02A929
S3150800422014F10E00FFF7F2FE002000E0012005B0B1
S3150800423030BD00005C77010800000440647701087F
S315080042406C770108CDCCCCCCCCCCFC3F00004040F0
S315080042507477010810B5A0B000208DF8040000207E
S315080042608DF805004FF4FA700090002301AA0F217B
S31508004270BA2004F00AFD0400E4B2002C07D14FF47A
S31508004280FA73012201A9BA2004F097FD04009DF8EB
S315080042900400BD2801D1002000E0012020B010BD97
S315080042A080B501203A49487000F010F800203849D6
S315080042B088700020DFF8C01A08700020DFF8B81AE6
S315080042C048800020DFF8B01A888001BD80B501203B
S315080042D02F4948702F493048FEF7A8FE2D492F4828
S315080042E0FEF7A4FE2B492E48FEF7A0FE29492D48C5
S315080042F0FEF79CFE27492C48FEF798FE2B492C48CA
S31508004300FEF794FE2B492C48FEF790FE21492B48D0
S31508004310FEF78CFE1F492A48FEF788FE1D492948E4
S31508004320FEF784FE1B492848FEF780FE19492748F0
S31508004330FEF77CFE17492648FEF778FE1549DFF892
S315080043403C0AFEF773FE1349DFF8340AFEF76EFEE1
S315080043501049DFF8300AFEF769FE0E49DFF8280A29
S31508004360FEF764FE0B49DFF8240AFEF75FFE0949EB
S31508004370DFF8980DFEF75AFE01BD0120DFF8101A86
S31508004380087070470120DFF8081A087070470000A7
S31508004390582900203C77010863290020732900204A
S315080043A08329002092290020A8290020BC7401082E
S315080043B0CA2900208C750108E8290020062A002051
S315080043C0182A0020302A0020D42A0020EC2A0020AF
S315080043D0042B002010B58CB000200400DFF8B009CB
S315080043E00078002800F0C484DFF8A4098078002843
S315080043F008D0022846D03AD3042861D04DD30528E0
S3150800440071D085E0DFF88C1901A8FFF7E5FD01A951
S315080044100020FEF7E3FE01A8FEF7DEFD01A9FFF77F
S31508004420EDFA002000F080FE00281FD0DFF86809AA
S3150800443002F069FD0400E4B2002C69D1DFF85C09DA
S3150800444002F054FE0400E4B2002C61D1DFF85009F2
S3150800445002F03FFF0400E4B2002C59D1DFF844090A
S3150800446003F026F80400E4B2002C51D150E00120F4
S3150800447000F05AFE002804D0DFF82C0903F080FF6C
S31508004480040045E0022000F04FFE002804D0DFF8C3
S315080044901C0904F0D1F904003AE0032000F044FEB8
S315080044A000280CD0DFF8A40BFFF7E8FD0400E4B2FF
S315080044B0002C2DD1DFF8F808FFF76DFE040027E081
S315080044C0042000F031FE00280CD0DFF8C40B03F0FE
S315080044D04CF90400E4B2002C1AD1DFF8D80803F02E
S315080044E045FC040014E0052000F01EFE002805D057
S315080044F0DFF8C40801F05AFE040009E0062000F0BF
S3150800450013FE002804D0DFF8B00800F080FF04008E
S31508004510DFF87C088078401CDFF874188870DFF8AC
S31508004520700880780A2815DBDFF84C08808805288B
S3150800453008DADFF844088088401CDFF83C188880D1
S31508004540FFF7C4FE0020DFF8481888700020DFF85F
S3150800455040180870E4B2002C03D02000C0B200F066
S3150800456009BC04F054FFDFF8501ADFF8500A08F0C7
S31508004570DBFA002822D0012004F0A8FADFF83C1A5A
S31508004580DFF8340AFEF752FDDFF80C18DFF8300AB8
S31508004590FEF74CFDDFF8280A009022232222DFF8D6
S315080045A0241A01A8FFF718FD01A90020FEF716FE38
S315080045B001A8FEF711FD01A9FFF720FADFF8901A06
S315080045C0DFF8900A08F0B0FA002822D0012004F09B
S315080045D07DFADFF8801ADFF8780AFEF727FDDFF89C
S315080045E0BC17DFF8740AFEF721FDDFF86C0A0090A5
S315080045F022232222DFF89C1A01A8FFF7EDFC01A965
S315080046000020FEF7EBFD01A8FEF7E6FC01A9FFF77F
S31508004610F5F9DFF8841ADFF8840A08F085FA002825
S3150800462022D0012004F052FADFF8701ADFF8680A7F
S31508004630FEF7FCFCDFF86817DFF8640AFEF7F6FCFD
S31508004640DFF85C0A009022232222DFF8581A01A814
S31508004650FFF7C2FC01A90020FEF7C0FD01A8FEF77E
S31508004660BBFC01A9FFF7CAF9DFF8A41ADFF8A40A08
S3150800467008F05AFA002822D0012004F027FADFF8B9
S31508004680941ADFF88C0AFEF7D1FCDFF81817DFF862
S31508004690880AFEF7CBFCDFF8800A00902223222244
S315080046A0DFF8781A01A8FFF797FC01A90020FEF7A2
S315080046B095FD01A8FEF790FC01A9FFF79FF9DFF821
S315080046C0601ADFF8600A08F02FFA002844D00120A3
S315080046D004F0FCF9DFF84C1ADFF8440AFEF7A6FCEA
S315080046E0DFF8C416DFF8A80AFEF7A0FCDFF8A41A5C
S315080046F0DFF8A40AFEF79AFCDFF8600BB0F858005A
S31508004700DFF88C16A1F85800DFF8840A00902223F7
S315080047102222DFF8881A01A8FFF75EFC01A900200B
S31508004720FEF75CFD01A8FEF757FC01A9FFF766F93D
S31508004730DFF8640A009022232222DFF8641A01A80F
S31508004740FFF74AFC01A90020FEF748FD01A8FEF77D
S3150800475043FC01A9FFF752F9DFF8E01ADFF8440A2B
S3150800476008F0E2F900286AD0012004F0AFF9DFF872
S31508004770341ADFF8C80AFEF759FCDFF83016DFF8F6
S31508004780E00AFEF753FCDFF8C81ADFF8D80AFEF786
S315080047904DFCDFF8D41ADFF8D40AFEF747FCDFF839
S315080047A09C0A009022232222DFF8C41A01A8FFF7E8
S315080047B013FC01A90020FEF711FD01A8FEF70CFC69
S315080047C001A9FFF71BF9DFF8980A00902223222295
S315080047D0DFF8A01A01A8FFF7FFFB01A90020FEF7E2
S315080047E0FDFC01A8FEF7F8FB01A9FFF707F9DFF8BA
S315080047F0740A009022232222DFF87C1A01A8FFF708
S31508004800EBFB01A90020FEF7E9FC01A8FEF7E4FB93
S3150800481001A9FFF7F3F8DFF8540A009022232222B1
S31508004820DFF8581A01A8FFF7D7FB01A90020FEF701
S31508004830D5FC01A8FEF7D0FB01A9FFF7DFF8DFF8E2
S31508004840401ADFF8400A08F06FF900282AD001203C
S3150800485004F03CF9DFF82C1ADFF8240AFEF7E6FB29
S31508004860DFF8E817DFF8200AFEF7E0FBDFF8EC09C7
S31508004870D0F89C00DFF81815C1F89C00DFF8080A84
S31508004880009022232222DFF8041A01A8FFF7A4FBCE
S3150800489001A90020FEF7A2FC01A8FEF79DFB01A9CD
S315080048A0FFF7ACF8DFF8E819DFF8E80908F03CF993
S315080048B000282AD0012004F009F9DFF8D819DFF812
S315080048C0D009FEF7B3FBDFF8C817DFF8CC09FEF707
S315080048D0ADFBDFF88809B0F8C800DFF8B414A1F812
S315080048E0C800DFF8B409009022232222DFF8AC19A9
S315080048F001A8FFF771FB01A90020FEF76FFC01A8CC
S31508004900FEF76AFB01A9FFF779F8DFF89419DFF8D3
S31508004910940908F009F9002844D0012004F0D6F8D3
S31508004920DFF88019DFF87809FEF780FBDFF88414D2
S31508004930DFF87409FEF77AFBDFF87019DFF87009FB
S31508004940FEF774FBDFF81409B0F8E000DFF840144E
S31508004950A1F8E000DFF85009009022232222DFF8B0
S31508004960541901A8FFF738FB01A90020FEF736FC09
S3150800497001A8FEF731FB01A9FFF740F8DFF8300977
S31508004980009022232222DFF8301901A8FFF724FB22
S3150800499001A90020FEF722FC01A8FEF71DFB01A9CC
S315080049A0FFF72CF8DFF81419DFF8140908F0BCF83B
S315080049B0002822D0012004F089F8DFF80419DFF86E
S315080049C0FC08FEF733FBDFF8F013DFF8F808FEF70C
S315080049D02DFBDFF8F008009022232222DFF8E818E2
S315080049E001A8FFF7F9FA01A90020FEF7F7FB01A8CD
S315080049F0FEF7F2FA01A9FFF701F8DFF8D018DFF899
S31508004A00D00808F091F8002829D0012004F05EF8B3
S31508004A10DFF8BC18DFF8B408FEF708FBDFF8B418AF
S31508004A20DFF8B408FEF702FBDFF83008B0F89C019F
S31508004A30D749A1F89C01DFF8A0080090222322227A
S31508004A40DFF8981801A8FFF7C7FA01A90020FEF7B2
S31508004A50C5FB01A8FEF7C0FA01A9FEF7CFFFDFF8EC
S31508004A608018DFF8800808F05FF8002829D00120B0
S31508004A7004F02CF8DFF86C18DFF86408FEF7D6FAAD
S31508004A80DFF86418DFF86408FEF7D0FADFF8CC0719
S31508004A90B0F8B401BE49A1F8B401DFF85008009097
S31508004AA022232222DFF8481801A8FFF795FA01A960
S31508004AB00020FEF793FB01A8FEF78EFA01A9FEF780
S31508004AC09DFFAE49DFF82C0808F02EF8002828D0FC
S31508004AD0012003F0FBFFDFF81C18A848FEF7A6FA2A
S31508004AE0DFF81418DFF81408FEF7A0FADFF86C07E9
S31508004AF0B0F8CC01A649A1F8CC01DFF8000800906F
S31508004B0022232222DFF8F81701A8FFF765FA01A980
S31508004B100020FEF763FB01A8FEF75EFA01A9FEF77F
S31508004B206DFFDFF8E017DFF8E00707F0FDFF002864
S31508004B3028D0012003F0CAFFDFF8D0179048FEF707
S31508004B4075FADFF8C417DFF8BC07FEF76FFADFF867
S31508004B500C07B0F8E4018E49A1F8E401DFF8A407D0
S31508004B60009022232222DFF8A81701A8FFF734FABB
S31508004B7001A90020FEF732FB01A8FEF72DFA01A9CC
S31508004B80FEF73CFF7F49DFF88C0707F0CDFF0028CA
S31508004B9028D0012003F09AFFDFF878177948FEF746
S31508004BA045FADFF87417DFF87407FEF73FFADFF8FF
S31508004BB0AC06B0F8FC017649A1F8FC01DFF85C0701
S31508004BC0009022232222DFF8581701A8FFF704FADB
S31508004BD001A90020FEF702FB01A8FEF7FDF901A9CD
S31508004BE0FEF70CFF6849DFF83C0707F09DFF002831
S31508004BF028D0012003F06AFFDFF828176248FEF77D
S31508004C0015FADFF82417DFF82407FEF70FFADFF89E
S31508004C104C06B0F814025E49A1F81402DFF80C0736
S31508004C20009022232222DFF8081701A8FFF7D4F9FB
S31508004C3001A90020FEF7D2FA01A8FEF7CDF901A9CD
S31508004C40FEF7DCFE5149DFF8EC0607F06DFF002899
S31508004C5028D0012003F03AFFDFF8D8164B48FEF7B4
S31508004C60E5F9DFF8D416DFF8D406FEF7DFF9DFF842
S31508004C70EC05B0F82C024649A1F82C02DFF8BC0670
S31508004C80009022232222DFF8B81601A8FFF7A4F91C
S31508004C9001A90020FEF7A2FA01A8FEF79DF901A9CD
S31508004CA0FEF7ACFEDFF86414DFF8980607F03CFF61
S31508004CB0002829D0012003F009FFDFF88816DFF85D
S31508004CC04C04FEF7B3F9DFF88016DFF88006FEF726
S31508004CD0ADF9DFF88805B0F844022D49A1F8440279
S31508004CE0DFF86806009022232222DFF8641601A85E
S31508004CF0FFF772F901A90020FEF770FA01A8FEF77E
S31508004D006BF901A9FEF77AFE21484078002813D0EE
S31508004D1000201F494870DFF83C26DFF83C1601A83A
S31508004D20FFF75AF901A90020FEF758FA01A8FEF77D
S31508004D3053F901A9FEF762FE15488078002817D1B5
S31508004D40DFF8181601A8FFF747F901A90020FEF7B2
S31508004D5045FA01A8FEF740F901A9FEF74FFEDFF86C
S31508004D60001601A8FFF738F901A90020FEF736FA60
S31508004D702000C0B20CB010BD003600201C2B00204D
S31508004D80342B00204C2B0020642B00207C2B002089
S31508004D9058290020447701081327002022270020DD
S31508004DA03227002042270020522700206A270020A9
S31508004DB0B0270020DA2700207E28002000B595B00D
S31508004DC0FEF753FD002800F0D780FEF753FD0028B4
S31508004DD000F0D280FEF753FD002800F0CD80FEF7E4
S31508004DE094FD002800F0C880DFF8781501A8FFF7C1
S31508004DF0F3F801A90020FEF7F1F901A8FEF7ECF88F
S31508004E0001A9FEF7FBFD022003F060FEFFF701F89B
S31508004E10DFF85405FFF74FF8DFF85005FFF767F896
S31508004E20DFF84C05FFF781F8DFF84805FFF79BF830
S31508004E30012003F04BFEDFF83005009022232222E2
S31508004E40DFF8341501A8FFF7C7F801A90020FEF717
S31508004E50C5F901A8FEF7C0F801A9FEF7CFFD0120A4
S31508004E6003F034FEDFF80405009022232222DFF83F
S31508004E700C1501A8FFF7B0F801A90020FEF7AEF956
S31508004E8001A8FEF7A9F801A9FEF7B8FD012003F06D
S31508004E901DFEDFF8DC04009022232222DFF8E0144E
S31508004EA001A8FFF799F801A90020FEF797F901A8CC
S31508004EB0FEF792F801A9FEF7A1FD012003F006FE10
S31508004EC0DFF8B004009022232222DFF8B81401A8E4
S31508004ED0FFF782F801A90020FEF780F901A8FEF77E
S31508004EE07BF801A9FEF78AFD07F051FE0200DFF8FC
S31508004EF0981401A8FFF770F801A90020FEF76EF9CB
S31508004F0001A8FEF769F801A9FEF778FD0020FEF76B
S31508004F1013FDFEF71CFD012808D10220FEF71CFD33
S31508004F20DFF868140020FEF759F90BE0FEF70FFDCD
S31508004F30022807D10420FEF70FFDDFF854140020DD
S31508004F40FEF74CF904F063FADFF8101401A8FFF72E
S31508004F5043F801A90020FEF741F901A8FEF73CF83D
S31508004F6001A9FEF74BFDDFF8F81301A8FFF734F89F
S31508004F7001A90020FEF732F9DFF818044088052851
S31508004F8001DAFFF7A3F9DFF80C044088411CDFF8C3
S31508004F900424518080B20E2809DB0020DFF8F413C0
S31508004FA088800020DFF8EC134880FFF78FF902208D
S31508004FB003F09AFD15B000BD632900201B270020C9
S31508004FC05B290020B066010830B587B00400FEF7FB
S31508004FD04CFC002813D014222100684607F0EAFD8D
S31508004FE02000FDF7F9FF152803D314F11400050076
S31508004FF000E0250014222900684607F0DBFD07B00B
S3150800500030BD80B5FEF736FC002816D00020DFF844
S315080050108813088000F00FF9002807D0DFF87C0312
S315080050200088401CDFF8741308800DE00020DFF8C4
S315080050306C13088000F004F906E0DFF85C030088CA
S31508005040401CDFF85413088001BD00009427002097
S31508005050732900202B2700206A2900200020DFF86A
S31508005060401308700020CE4948700020CC490871CA
S315080050700020CB49C8700020C94988700020C8495B
S3150800508048710020C64988710020C549C871704713
S31508005090C8270020D0660108832900203B27002066
S315080050A07A290020F0660108C0B200280ED002282E
S315080050B012D00ED3042815D011D3062818D014D32D
S315080050C008281BD017D309281BD01DE0B44A117035
S315080050D01AE0B34A517017E0B14A917014E0B04A29
S315080050E0D17011E0AE4A11710EE0AD4A51710BE074
S315080050F0AB4A917108E0AA4AD17105E0A84A117233
S3150800510002E0A74A5172FFE770470000942B00207F
S31508005110922900204A2700208A29002010670108C2
S31508005120A8290020602700200100C9B200290ED056
S31508005130022912D00ED3042915D011D3062918D066
S3150800514014D308291BD017D309291BD01DE094486E
S3150800515000781BE09248407818E09148807815E07E
S315080051608F48C07812E08E4800790FE08C48407965
S315080051700CE08B48807909E08948C07906E08848C0
S31508005180007A03E08648407A00E000207047000075
S315080051909A29002059270020A129002030670108F4
S315080051A0506701088227002010B500240020FFF769
S315080051B0BBFF002800D0641C0120FFF7B5FF0028BC
S315080051C000D0A41C0220FFF7AFFF002800D0241D42
S315080051D00320FFF7A9FF002800D008340420FFF7B2
S315080051E0A3FF002800D010340520FFF79DFF0028F4
S315080051F000D020340620FFF797FF002800D040345F
S315080052000720FFF791FF002800D080340820FFF719
S315080052108BFF002801D014F580740920FFF784FF5E
S31508005220002801D014F50074200080B210BD0020BB
S31508005230584948807047574800787047CA2900205F
S315080052400120544908707047002052490870704779
S315080052507227002000204F498880704710270020B9
S31508005260B2290020BA2900207A270020C229002066
S315080052707067010890670108B0670108D0670108E0
S31508005280E8290020A0270020DC290020F067010873
S31508005290182A0020D0270020102A002010680108AC
S315080052A0302A0020E8270020222A0020E1270020B3
S315080052B0292A00203068010850680108D42A0020ED
S315080052C08C280020C62A002070680108EC2A0020D5
S315080052D0A428002096280020DE2A002090680108CD
S315080052E0042B0020BC280020AE280020F62A002027
S315080052F0B0680108D4280020C62800200E2B0020FC
S31508005300D0680108262B0020DE280020EC28002083
S31508005310F068010804290020F62800203E2B00200A
S31508005320106901081C2900200E290020562B002090
S315080053303069010834290020262900206E2B002018
S31508005340506901084C2900203E290020862B0020A0
S315080053507069010898750108F07201084C77010810
S3150800536054770108447701083A2A00205D2A00206C
S31508005370802A0020A32A002090690108B069010844
S31508005380D0690108F0690108286E0108106A010849
S31508005390306A010800360020683600206A36002088
S315080053A0E835002038B50020050000208DF80000FB
S315080053B0280003009BB26A461221142003F031FC30
S315080053C00400E4B2002C1FD1642003F031FD040070
S315080053D0E4B2002C02D02000C0B217E002226946CF
S315080053E0142003F005FD0400E4B2002C09D1642062
S315080053F003F01EFD0400E4B2002C05D02000C0B264
S3150800540004E02000C0B201E02000C0B232BD2DE9A0
S31508005410F04F85B004000020039000208DF80000AE
S31508005420039803009BB26A461221142003F0F9FB85
S315080054300700FFB2002F23D1642003F0F9FC070010
S31508005440FFB2002F02D03800C0B248E302226946F4
S31508005450142003F0CDFC0700FFB2002F0DD1642005
S3150800546003F0E6FC0700FFB2002F02D03800C0B2F6
S3150800547035E3FFB2002F76D105E03800C0B22EE33F
S315080054803800C0B22BE39DF801004FF480719DF8F7
S31508005490002001FB002082465FEA0A4007D51FFA72
S315080054A08AFADFF8800B50EA0A00834602E01FFA00
S315080054B08AFAD346584604F043F8DFF86C1B04F022
S315080054C059F8050029000D2003F03DFE0500DFF818
S315080054D0580B290005F0D6FD03F0A4FD07F0A0FB44
S315080054E007F026FA0600280003F09CFDDFF83C2B9F
