S02E0000526F616420426F61726420526576204D2E3520424153454C494E4520446563203920323031362E737265637A
S3150800000050110020592C0108092F01080D2F01084D
S31508000010112F0108152F0108192F010800000000EB
S31508000020000000000000000000000000EF0F0108BB
S315080000301D2F0108000000009D0F0108711001081E
S31508000040FD690008212F0108252F0108292F01081D
S315080000502D2F0108312F0108352F0108392F0108E6
S315080000603D2F0108412F0108452F01087910010885
S31508000070492F01084D2F0108512F0108552F010856
S31508000080592F01085D2F0108612F0108652F010806
S3150800009083100108692F01086D2F0108712F0108C7
S315080000A0752F0108792F01087D2F0108812F010876
S315080000B0BF100108C91001088D100108AB1001080E
S315080000C0B5100108852F0108892F01088D2F010811
S315080000D0912F0108952F0108A11001089710010812
S315080000E0992F01089D2F0108A12F0108AB3300089D
S315080000F0A52F010800000000A92F0108AD2F01084F
S31508000100B12F0108B52F0108B92F0108BD2F010825
S31508000110C12F0108C52F0108C92F010800000000DA
S31508000120CD2F01082DE9F04FADF5377D04002000ED
S3150800013001F0AEFF8046DFF8600D007800281ED07B
S3150800014020781B2815D10020DFF84C1D0870DFF831
S31508000150F81D10A801F0BCFF10A9002002F090F8C5
S315080001600500EDB2002D01F0AF862800C0B201F0FF
S31508000170ADBE2100012002F093FC01F0A5BE207857
S3150800018030282ED0312839D032285BD033287DD07C
S31508000190342800F09F80352800F0C080362800F00B
S315080001A00C81412800F01481422800F0328243284D
S315080001B000F02884442800F09585452800F0B68686
S315080001C0462800F0BA86472800F0C286482800F07C
S315080001D03287502801F0D081542801F0F18101F0CE
S315080001E0F2BD02F05BFE0500EDB2002D04D1DFF88A
S315080001F05C1D10A801F06CFF01F0E9BD95A802F09E
S315080002009FFE0500DFF8D81D10A801F061FF10A9B0
S31508000210002002F035F80500EDB2002D03D02800C5
S31508000220C0B201F053BEDFF8BC1D10A802F02AFFC9
S3150800023095A910A802F040FFC2A110A802F03CFF41
S3150800024001F0C5BD95A802F09BFE0500DFF8981DD4
S3150800025010A801F03DFF10A9002002F011F80500D2
S31508000260EDB2002D03D02800C0B201F02FBEDFF892
S315080002707C1D10A802F006FF95A910A802F01CFF25
S31508000280B0A110A802F018FF01F0A1BD95A802F0D0
S3150800029098FE0500DFF8581D10A801F019FF10A9EF
S315080002A0002001F0EDFF0500EDB2002D03D0280077
S315080002B0C0B201F00BBEDFF8401D10A802F0E2FE46
S315080002C095A910A802F0F8FE9EA110A802F0F4FE67
S315080002D001F07DBD95A802F096FE0500DFF81C1D0D
S315080002E010A801F0F5FE10A9002001F0C9FF0500CD
S315080002F0EDB2002D03D02800C0B201F0E7BDDFF84B
S31508000300001D10A802F0BEFE95A910A802F0D4FEA2
S315080003108CA110A802F0D0FE01F059BD02F096FD9E
S315080003203E90DFF8E01C10A801F0D2FE95A802F076
S3150800033007FE050010A9002001F0A2FF0500EDB296
S31508000340002D03D02800C0B201F0C0BD0020070070
S31508000350ABA110A802F096FE00200600802E25DA32
S315080003603E98825DDFF8FC1D0AA802F08BFE0AA9FA
S3150800037010A802F0A1FE7F1C102F15DB71A110A892
S3150800038002F09AFE0020070010A9002001F078FF6D
S315080003900500EDB2002D03D02800C0B201F096BDCD
S315080003A097A110A802F06EFE761CD7E7DFF8B81DF5
S315080003B010A802F067FE01F00ABD0020050002F051
S315080003C044FEDFF8A81D10A801F082FE01F0FFBC6C
S315080003D05FFA88F8B8F1010F00F0198160783628BD
S315080003E02BD0382800F09680392800F0F480492868
S315080003F040F0088102F06EFE0500EDB2002D05D131
S31508000400DFF86C1D10A801F063FE15E0DFF8641D27
S3150800041010A801F05DFE8DF8345010A9002001F0F7
S315080004202FFF0500EDB2002D03D02800C0B201F061
S315080004304DBD9DF834000500E9E09EA802F074FE63
S315080004400500EDB2002D4ED1DFF8D81D10A801F039
S315080004503FFE10A9002001F013FF0500EDB2002DA4
S3150800046003D02800C0B201F031BDDFF8BC1D10A8CA
S3150800047002F008FE10A9002001F002FF0500EDB207
S31508000480002D03D02800C0B201F020BDDFF8E01D22
S3150800049010A802F0F7FD9EA910A802F00DFE29A1EA
S315080004A010A802F009FE10A9002001F0E9FE0500D7
S315080004B0EDB2002D03D02800C0B201F007BDDFF869
S315080004C0B41D10A802F0DEFDA1A910A802F0F4FDE3
S315080004D0A49ADFF8EC1D0AA802F0D4FD0AA910A810
S315080004E002F0EAFD15E0DFF8DC1D10A801F0F0FDCA
S315080004F08DF8345010A9002001F0C2FE0500EDB2B7
S31508000500002D03D02800C0B201F0E0BC9DF83400ED
S3150800051005007CE034A802F04BFE0500EDB2002D84
S3150800052029D1DFF8E81D10A801F0D2FD10A9002096
S3150800053001F0A6FE0500EDB2002D05D02800C0B2D8
S3150800054001F0C4BC0D0A0000DFF8C41D10A802F0B3
S3150800055099FD0DF1DE0110A802F0AEFDD5A110A897
S3150800056002F0AAFD10A9002001F08AFE0500EDB2EE
S31508000570002D01D104E04AE02800C0B201F0A6BC73
S31508000580BDF8E620DFF8D01D10A802F07BFD10A903
S31508000590002001F075FE0500EDB2002D03D02800FD
S315080005A0C0B201F093BCDFF8B41D10A802F06AFDD2
S315080005B034A910A802F080FDDFF8A81D10A802F0E3
S315080005C07BFD0DF1D70110A802F076FDB9A110A8A0
S315080005D002F072FD1BE002F053FE0500EDB2002D9D
S315080005E005D1DFF8841D10A801F072FD06E0DFF8DA
S315080005F07C1D10A801F06CFD0020050007E000BF77
S3150800060000000000DFF8681D10A801F061FD01F088
S31508000610DEBB5FFA88F8B8F1010F40F0E8800520E4
S3150800062003F048FD002804D04BA804F045FA05005D
S315080006300BE0062003F03EFD002804D04BA803F08B
S31508000640A7FE050001E001200500EDB2002D40F0EF
S31508000650CC80DFF8D81D10A801F03AFD10A90020BB
S3150800066001F00EFE0500EDB2002D03D02800C0B241
S3150800067001F02CBC00200600092E80F2A380002E73
S315080006800CD0022E28D018D3042E43D033D3062EEE
S315080006905ED04ED3082E79D069D385E0BDF84201E5
S315080006A001904CA8C01C00904BAB0DF59D72DFF86D
S315080006B0801D10A802F0E6FC76E0BDF85A0101900C
S315080006C052A8C01C009051AB0DF5A972DFF8641D45
S315080006D010A802F0D7FC67E0BDF87201019058A88F
S315080006E0C01C009057AB0DF5B572DFF84C1D10A86D
S315080006F002F0C8FC58E0BDF88A0101905EA8C01C4B
S3150800070000905DAB0DF5C172DFF8301D10A802F040
S31508000710B9FC49E0BDF8A201019064A8C01C00908C
S3150800072063AB0DF5CD72DFF8E81D10A802F0AAFC40
S315080007303AE0BDF8BA0101906AA8C01C009069ABFE
S315080007400DF5D972DFF8CC1D10A802F09BFC2BE042
S31508000750BDF8D201019070A8C01C00906FAB0DF5D2
S31508000760E572DFF8B41D10A802F08CFC1CE0BDF899
S31508000770EA01019076A8C01C009075AB0DF5F172E0
S31508000780DFF8DC1D10A802F07DFC0DE0BDF80202C2
S3150800079001907CA8C01C00907BAB0DF5FD72DFF8BC
S315080007A0C41D10A802F06EFC10A9002001F068FD17
S315080007B00500EDB2002D03D02800C0B201F086BBBB
S315080007C0761C59E7DFF8EC1D10A802F05BFC3CA983
S315080007D010A802F071FC37A110A802F06DFCDFF832
S315080007E0D81D10A802F04EFC0AE101F0F0BA6078B4
S315080007F0302811D0312800F0F880492840F00081CF
S3150800080004F0A4F80500EDB2002D04D1DFF8AC1D04
S3150800081010A801F05DFCF3E0052003F04BFC00286E
S3150800082004D04BA804F048F905000BE0062003F0B5
S3150800083041FC002804D04BA803F0AAFD050001E0FE
S3150800084001200500EDB2002D40F0CE80DFF8DC1B5C
S3150800085010A801F03DFC10A9002001F011FD0500CB
S31508000860EDB2002D03D02800C0B201F02FBB002046
S315080008700600092E80F2A580002E0CD0022E2AD062
S315080008801AD3042E45D035D3062E60D050D3082E61
S315080008907BD06BD387E0BDF8420101904CA8C01C01
S315080008A000904BAB0DF59D72DFF8841B10A802F083
S315080008B0E9FB78E00D0A0000BDF85A01019052A83C
S315080008C0C01C009051AB0DF5A972DFF8681B10A883
S315080008D002F0D8FB67E0BDF87201019058A8C01C69
S315080008E0009057AB0DF5B572DFF84C1B10A802F057
S315080008F0C9FB58E0BDF88A0101905EA8C01C0090AB
S315080009005DAB0DF5C172DFF8341B10A802F0BAFB17
S3150800091049E0BDF8A201019064A8C01C009063AB31
S315080009200DF5CD72DFF8E81B10A802F0ABFB3AE034
S31508000930BDF8BA0101906AA8C01C009069AB0DF514
S31508000940D972DFF8D01B10A802F09CFB2BE0BDF88B
S31508000950D201019070A8C01C00906FAB0DF5E5722E
S31508000960DFF8B41B10A802F08DFB1CE0BDF8EA0105
S31508000970019076A8C01C009075AB0DF5F172DFF8F2
S31508000980E01B10A802F07EFB0DE0BDF80202019004
S315080009907CA8C01C00907BAB0DF5FD72DFF8C41B6C
S315080009A010A802F06FFB10A9002001F069FC0500F1
S315080009B0EDB2002D03D02800C0B201F087BA761C2C
S315080009C057E7DFF8F01B10A802F05CFB3CA910A85B
S315080009D002F072FBC2A110A802F06EFBDFF8D81B6A
S315080009E010A802F04FFB0BE00AE004F01AF8050025
S315080009F0EDB2002D04D1DFF80C1D10A801F068FB3C
S31508000A0001F0E5B95FFA88F8B8F1010F41D13AA8C3
S31508000A1004F018FD0500EDB2002D26D1DFF8E81C1C
S31508000A2010A801F055FB10A9002001F029FC0500CB
S31508000A30EDB2002D03D02800C0B201F047BADFF8A6
S31508000A40CC1C10A802F01EFB3CA910A802F034FB2F
S31508000A50A3A110A802F030FB10A9002001F010FC99
S31508000A600500EDB2002D02D105E001F0B0B928006D
S31508000A70C0B201F02BBADFF8981C10A802F002FBEE
S31508000A803AA910A802F018FB95A110A802F014FBC9
S31508000A9024E16078302816D0312855D0322800F065
S31508000AA09580332800F0D480492840F0128104F05C
S31508000AB005FB0500EDB2002D04D1DFF8C41D10A812
S31508000AC001F006FB0AE13AA804F053FB0500EDB273
S31508000AD0002D26D1DFF8541910A801F0F9FA10A94B
S31508000AE0002001F0CDFB0500EDB2002D03D0280053
S31508000AF0C0B201F0EBB9DFF8BC1A10A802F0C2FACE
S31508000B003CA910A802F0D8FA75A110A802F0D4FAE8
S31508000B1010A9002001F0B4FB0500EDB2002D01D1AB
S31508000B2004E0DBE02800C0B201F0D0B9DFF8541DBC
S31508000B3010A802F0A7FA3AA910A802F0BDFA68A10F
S31508000B4010A802F0B9FAC9E0B3A804F088FB0500BA
S31508000B50EDB2002D27D1DFF8301D10A801F0B8FA44
S31508000B6010A9002001F08CFB0500EDB2002D03D082
S31508000B702800C0B201F0AAB9DFF8101D10A802F0CB
S31508000B8081FAB5A9491C10A802F096FA54A110A832
S31508000B9002F092FA10A9002001F072FB0500EDB2EE
S31508000BA0002D01D104E099E02800C0B201F08EB909
S31508000BB0DFF8D41D10A802F065FAB3A910A802F050
S31508000BC07BFA47A110A802F077FA87E0AFA804F0ED
S31508000BD0BCFB0500EDB2002D27D1DFF8B01D10A82B
S31508000BE001F076FA10A9002001F04AFB0500EDB2E3
S31508000BF0002D03D02800C0B201F068B9DFF8E81D5F
S31508000C0010A802F03FFAB1A9491C10A802F054FA3C
S31508000C1033A110A802F050FA10A9002001F030FB09
S31508000C200500EDB2002D01D104E057E02800C0B25E
S31508000C3001F04CB9DFF8B41D10A802F023FAAFA9E9
S31508000C4010A802F039FA26A110A802F035FA45E0F4
S31508000C503AA804F0F7FB0500EDB2002D26D1DFF81F
S31508000C60A81A10A801F034FA10A9002001F008FB10
S31508000C700500EDB2002D03D02800C0B201F026B958
S31508000C80DFF8881A10A802F0FDF93CA910A802F0AE
S31508000C9013FA13A110A802F00FFA10A9002001F008
S31508000CA0EFFA0500EDB2002D01D104E016E02800A8
S31508000CB0C0B201F00BB9DFF8581A10A802F0E2F931
S31508000CC03AA910A802F0F8F905A110A802F0F4F95B
S31508000CD004E0DFF89C1610A801F0FAF901F077B8DD
S31508000CE00D0A00005FFA88F8B8F1010F54D143A83D
S31508000CF004F097FC0500EDB2002D26D1DFF8881D1B
S31508000D0010A801F0E5F910A9002001F0B9FA0500CC
S31508000D10EDB2002D03D02800C0B201F0D7B8DFF835
S31508000D206C1D10A802F0AEF945A910A802F0C4F986
S31508000D30B0A110A802F0C0F910A9002001F0A0FA8D
S31508000D400500EDB2002D02D105E001F040B82800FB
S31508000D50C0B201F0BBB8BDF81C21DFF8341D10A8DD
S31508000D6002F090F910A9002001F08AFA0500EDB208
S31508000D70002D03D02800C0B201F0A8B8DFF8C81DBE
S31508000D8010A802F07FF943A910A802F095F999A1D5
S31508000D9010A802F091F9C7E06078302810D0312801
S31508000DA062D0492840F0C08004F0E8FB0500EDB2A7
S31508000DB0002D04D1DFF8D01D10A801F089F9B3E0A1
S31508000DC043A804F02EFC0500EDB2002D26D1DFF86D
S31508000DD0B81C10A801F07CF910A9002001F050FAFF
S31508000DE00500EDB2002D03D02800C0B201F06EB8A0
S31508000DF0DFF8981C10A802F045F945A910A802F0DA
S31508000E005BF97CA110A802F057F910A9002001F09F
S31508000E1037FA0500EDB2002D01D104E084E0280080
S31508000E20C0B201F053B8BDF81C21DFF8641C10A845
S31508000E3002F028F910A9002001F022FA0500EDB207
S31508000E40002D03D02800C0B201F040B8DFF8F81C26
S31508000E5010A802F017F943A910A802F02DF965A108
S31508000E6010A802F029F95FE034A804F059FD05003E
S31508000E70EDB2002D29D1DFF8101C10A801F028F9D1
S31508000E8010A9002001F0FCF90500EDB2002D05D0EF
S31508000E902800C0B201F01AB8A4350020DFF8701493
S31508000EA010A802F0EFF80DF1DE0110A802F004F91F
S31508000EB050A110A802F000F910A9002001F0E0F9ED
S31508000EC00500EDB2002D01D104E02DE02800C0B2E6
S31508000ED000F0FCBFBDF8E620DFF87C1410A802F08D
S31508000EE0D1F810A9002001F0CBF90500EDB2002DCC
S31508000EF003D02800C0B200F0E9BFDFF8601410A8DC
S31508000F0002F0C0F834A910A802F0D6F8DFF8541495
S31508000F1010A802F0D1F80DF1D70110A802F0CCF80C
S31508000F2034A110A802F0C8F800F051BFDFF8601D20
S31508000F3010A801F0CDF800F04ABFDFF8581D10A838
S31508000F4001F0C6F800F043BFF0160108F4120108D4
S31508000F5034A804F077FE0500EDB2002D27D1DFF89E
S31508000F60AC1D10A801F0B4F810A9002001F088F90A
S31508000F700500EDB2002D03D02800C0B200F0A6BFD0
S31508000F80DFF88C1310A802F07DF80DF1DE0110A829
S31508000F9002F092F817A110A802F08EF810A9002006
S31508000FA001F06EF90500EDB2002D02D105E000F062
S31508000FB00EBF2800C0B200F089BFBDF8E620DFF8F2
S31508000FC0981310A802F05EF810A9002001F058F94D
S31508000FD00500EDB2002D17D02800C0B200F076BF8C
S31508000FE0941C010868240108BC1C0108882401080F
S31508000FF0E41C01080D0A0000A82401080C1D0108BC
S31508001000C8240108341D0108D44910A802F03AF88A
S3150800101034A910A802F050F8D24910A802F04CF8EA
S315080010200DF1D70110A802F047F8CDA110A802F0DB
S3150800103043F800F0CCBE5FFA88F8B8F1010F63D127
S31508001040A5A804F0BFFF0500EDB2002D5AD1DFF8C0
S31508001050681D10A801F03CF810A9002001F010F94D
S315080010600500EDB2002D03D02800C0B200F02EBF57
S31508001070DFF86C1D10A802F005F810A9002001F091
S31508001080FFF80500EDB2002D03D02800C0B200F02D
S315080010901DBFDFF8501D10A801F01AF8ABA910A85B
S315080010A002F00AF8AEA110A802F006F810A900206E
S315080010B001F0E6F80500EDB2002D03D02800C0B215
S315080010C000F004BFDFF8641D10A801F001F8A5A917
S315080010D010A801F0F1FFDFF8581D10A801F0ECFF89
S315080010E0A7A910A801F0E8FFDFF85C1D10A801F019
S315080010F0E3FFA9A910A801F0DFFF99A110A801F044
S31508001100DBFF37E200F063BE6078302800F06581C7
S31508001110312800F0CF81322800F0EE81332800F024
S31508001120FE81492840F021825FFA88F8B8F1020F5B
S315080011300CD104F03DFE0500EDB2002D40F04C81C7
S31508001140DFF83C1D10A800F0C3FF45E15FFA88F8F8
S31508001150B8F11D0F10D0DFF82C1D10A800F0B8FF4D
S315080011603AE100BF8C2E0108C42A0108342201087E
S315080011705C1D0108841D0108A0783A2817D16079FA
S315080011802E2814D1207A2E2811D1E07A2E280ED1B5
S31508001190A07B2E280BD1607C2E2808D1207D2E28F6
S315080011A005D1E07D2E2802D1A07E2E2805D0DFF8B5
S315080011B0241D10A800F08CFF0EE100202F900020BF
S315080011C00600092E24DA032000FB06F02044C07826
S315080011D08DF82800032000FB06F0204400798DF8DE
S315080011E0290000208DF82A000AA800F089FE0028A8
S315080011F007D1DFF8E41C10A800F06AFF01202F9041
S3150800120006E00AA800F0A1FE81A98855761CD8E751
S315080012109DF80402082809DBDFF8C01C10A800F0B6
S3150800122057FFA7E1AC1D0108281701089DF804021D
S3150800123010F007008DF83D009DF80502022805DB31
S31508001240DFF89C1C10A800F043FF93E19DF8050207
S3150800125010F00100C0B2C0008DF83C009DF80602EF
S31508001260022809DBDFF87C1C10A800F031FF81E1B9
S31508001270C82C0108D82B01089DF8060210F00100B9
S31508001280C0B200018DF83B009DF80702022805DB75
S31508001290DFF8541C10A800F01BFF6BE19DF807024D
S315080012A010F00100C0B240018DF83A009DF808021E
S315080012B0402809DBDFF8341C10A800F009FF59E1C3
S315080012C0D42C0108D41D01089DF8080210F03F002F
S315080012D08DF839009DF80902022805DBDFF8101C95
S315080012E010A800F0F5FE45E19DF8090210F001008E
S315080012F0802148438DF838009DF80A02042809DB46
S31508001300DFF8F01B10A800F0E3FE33E1FC1D01082E
S31508001310D82A01089DF80A0210F003008DF8370054
S315080013209DF80B02042805DBDFF8CC1B10A800F09B
S31508001330CFFE1FE19DF80B0210F00300C0B280003B
S315080013408DF836009DF80C02022813DBDFF8AC1B7B
S3150800135010A800F0BDFE0DE1E8240108E82B0108FD
S315080013600D0A0000F82B0108241E01084C1E01086E
S31508001370082501089DF80C0210F00100C0B2000112
S315080013808DF835009DF83D009DF83C1008189DF82D
S315080013903B1008189DF83A1008188DF8C8009DF8F3
S315080013A039009DF8381008188DF8C9009DF83700DF
S315080013B09DF8361008189DF8351008188DF8CA00DB
S315080013C032A804F01DFD0500EDB2002D04D1DFF8AA
S315080013D0D81B10A800F07CFECCE0A5A804F0F2FD0E
S315080013E00500EDB2002D64D1DFF8CC1910A800F085
S315080013F06FFE10A9002000F043FF0500EDB2002D96
S3150800140003D02800C0B200F061BDDFF8D41910A8D7
S3150800141001F038FE10A9002000F032FF0500EDB2F9
S31508001420002D0DD02800C0B200F050BD582201088A
S31508001430601A0108741E01089C1E0108C41E0108D2
S31508001440DFF8A01910A800F043FEABA910A801F018
S3150800145033FEABA110A801F02FFE10A9002000F062
S315080014600FFF0500EDB2002D03D02800C0B200F032
S315080014702DBDDFF8B81910A800F02AFEA5A910A8F6
S3150800148001F01AFEDFF8A81910A801F015FEA7A9A1
S3150800149010A801F011FEDFF8B01910A801F00CFE33
S315080014A0A9A910A801F008FE95A110A801F004FE4C
S315080014B060E05FE03FA804F03AFD0500EDB2002DBC
S315080014C019D1DFF8E81A10A800F002FE9DF8FC20F2
S315080014D0DFF8DC1A0AA801F0D5FD0AA910A801F060
S315080014E0EBFD0DF1FD0110A801F0E6FD84A110A8A1
S315080014F001F0E2FD3EE03DE004F0ACFC0500EDB293
S31508001500002D0BD1DFF8AC1A10A800F0E1FD31E090
S31508001510EC1E0108141F01083C1F01082AE041A817
S3150800152004F0BAFC0500EDB2002D1DD1DFF8881ACB
S3150800153010A800F0CDFD9DF80421DFF8741A0AA85A
S3150800154001F0A0FD0AA910A801F0B6FD41A9491CA1
S3150800155010A801F0B1FD6AA110A801F0ADFD09E0DF
S31508001560641F01088C1F010804E0DFF8501A10A850
S3150800157000F0AEFD00F02BBC607844280AD0552850
S3150800158011D1042004F06EFEDFF8341A10A800F01A
S315080015909FFD0DE0042004F073FEDFF8281A10A85A
S315080015A000F096FD04E0DFF8201A10A800F090FD80
S315080015B000F00DBC00270108EC2A01086017010895
S315080015C05FFA88F8B8F1020F06DADFF8001A10A8F1
S315080015D000F07EFD00F0F6BB6078432800F06082DC
S315080015E0442800F0D382492809D04B2800F0E2822B
S315080015F04D2800F0CA83522800F0D482DEE35FFA51
S3150800160088F8B8F1090F05DADFF8C41910A800F050
S315080016105FFD44E2A078512800F0A981C0F03A8223
S31508001620532802D0C0F0A68034E2E0783A2802D1E6
S31508001630A0792E2805D0DFF89C1910A800F048FDDF
S3150800164097E020798DF8280060798DF82900002028
S315080016508DF82A000AA800F053FC002805D1DFF807
S31508001660781910A800F034FD83E00AA800F06DFC94
S315080016708246E0798DF82800207A8DF82900002026
S315080016808DF82A000AA800F03BFC002805D1DFF8EF
S315080016904C1910A800F01CFD6BE00AA800F055FCD8
S315080016A08146B9F1000F06D15246DFF8341910A861
S315080016B001F0E8FC35E000202F90002006004E459A
S315080016C02FDA032000FB06F02044807A8DF82800E4
S315080016D0032000FB06F02044C07A8DF8290000207C
S315080016E08DF82A000AA800F00BFC002812D1DFF8B2
S315080016F0E81810A800F0ECFC01202F9011E000BFBC
S315080017000D0A00008C1A0108B41F010818270108E1
S31508001710002B01080AA800F018FC81A98855761C38
S31508001720CDE72F98002805D15246DFF8B81810A83B
S3150800173001F0A8FC002006004E450BDA81A8825D60
S31508001740CFA10AA801F09EFC0AA910A801F0B4FCD2
S31508001750761CF1E7CBA110A801F0AEFC4FF4FA73A2
S315080017604846020092B281A9504680B204F0A6FE0D
S31508001770050094E1E0783A2805D1A0792E2802D10F
S31508001780607A2E2805D0DFF8601810A800F0A0FCB3
S31508001790ECE020798DF8280060798DF82900002082
S315080017A08DF82A000AA800F0ABFB002805D1DFF85F
S315080017B03C1810A800F08CFCD8E00AA800F0C5FB7D
S315080017C08246E0798DF82800207A8DF829000020D5
S315080017D08DF82A000AA800F093FB002805D1DFF847
S315080017E0101810A800F074FCC0E00AA800F0ADFBC1
S315080017F08146A07A8DF82800E07A8DF82900002025
S315080018008DF82A000AA800F07BFB002805D1DFF82E
S31508001810E41710A800F05CFCA8E00AA800F095FB05
S315080018203090B9F1000F06D15246DFF8CC1710A850
S3150800183001F028FC33E000202F90002006004E45DA
S315080018402DDA032000FB06F02044407B8DF82800A3
S31508001850032000FB06F02044807B8DF82900002039
S315080018608DF82A000AA800F04BFB002810D1DFF8F3
S315080018708C1710A800F02CFC01202F900FE000BF59
S31508001880B81A0108302701087C220108142B010820
S315080018900AA800F05AFB81A98855761CCFE72F982D
S315080018A0002805D15246DFF8581710A801F0EAFBC0
S315080018B0002006004E450BDA81A8825D70A10AA8B1
S315080018C001F0E0FB0AA910A801F0F6FB761CF1E787
S315080018D06CA110A801F0F0FB4FF4FA734846020019
S315080018E092B281A9504680B204F0E8FD0500EDB237
S315080018F0002D0ED14FF4FA733098020092B281A9E6
S31508001900504680B204F025FE0500EDB2002D05D143
S3150800191000E0C4E0142004F057FE0500EDB2002DE7
S3150800192024D110A9002000F0ABFC0500EDB2002D73
S3150800193002D02800C0B2C9E2DFF8C81610A801F024
S31508001940A1FB00200600309886420BDA81A8825D4A
S315080019504BA10AA801F096FB0AA910A801F0ACFB56
S31508001960761CF0E747A110A801F0A6FB97E0E078FF
S315080019703A2802D1A0792E280AD0DFF88C1610A8AA
S3150800198000F0A6FB7AE000BF082C0108282501080C
S3150800199020798DF8280060798DF8290000208DF8C7
S315080019A02A000AA800F0ACFA002805D1DFF85C1670
S315080019B010A800F08DFB61E00AA800F0C6FA82467E
S315080019C0E0798DF82800207A8DF8290000208DF816
S315080019D02A000AA800F094FA002809D1DFF8301680
S315080019E010A800F075FB49E0282B0108182C0108FF
S315080019F00AA800F0AAFA30905246DFF8FC1510A89B
S31508001A0001F040FB4FF4FA733098020092B281A9B4
S31508001A10504680B204F09DFD0500EDB2002D07D1B9
S31508001A20142004F0D1FD0500EDB2002D26D100E00A
S31508001A3035E010A9002000F023FC0500EDB2002DCA
S31508001A4002D02800C0B241E2DFF8B81510A801F0AC
S31508001A5019FB00200600309886420BDA81A8825DC1
S31508001A6007A10AA801F00EFB0AA910A801F024FB99
S31508001A70761CF0E703A110A801F01EFB0FE000BFDB
S31508001A8025782E000D0A000048270108602701085E
S31508001A90A0220108DFF8241510A800F019FB91E12F
S31508001AA0052002F007FB002804D04BA803F004F831
S31508001AB005000BE0062002F0FDFA002804D04BA82A
S31508001AC002F066FC050001E001200500EDB2002DDC
S31508001AD054D134A804F0B6F80500EDB2002D47D16C
S31508001AE043A803F09EFD0500EDB2002D3AD19EA84D
S31508001AF001F01AFB0500EDB2002D2DD19EA8099024
S31508001B0043A8089034A807904BA806907BA8059090
S31508001B1075A804906FA8039069A8029063A801901D
S31508001B205DA8009057AB51AADFF8E81410A801F099
S31508001B30A9FA10A9002000F0A3FB0500EDB2002DBC
S31508001B4004D02800C0B2C1E1282C0108DFF8C81467
S31508001B5010A801F097FA16E0DFF8C01410A801F0F3
S31508001B6091FA10E0DFF8B81410A801F08BFA0AE031
S31508001B70DFF8B01410A801F085FA04E0DFF8A8141D
S31508001B8010A801F07FFA1DE1E41A010802F0CCFA68
S31508001B90ADF83E00BDF83E20DFF8901410A801F01D
S31508001BA071FA0FE104F09FFEDFF8841410A801F023
S31508001BB069FA07E1002005005FFA88F8B8F1040F12
S31508001BC005DADFF8701410A800F082FADCE0A078D5
S31508001BD0522800F0AA80532840F0D280E078522894
S31508001BE002D053284BD09BE020793A2805D0DFF85D
S31508001BF0481410A800F06CFA40E05FFA88F8B8F1CB
S31508001C00060F10DB01208346052006005FFA88F8D8
S31508001C1046450ADAA05D04F097FE002801D10020A7
S31508001C208346761CF2E700208346BBF1000F05D1F8
S31508001C30DFF8081410A800F04BFA1FE0601D319079
S31508001C40319948A800F044FA48A804F082FE2E907C
S31508001C502E9842F21071884202DA2E98002805D58D
S31508001C60DFF8D81310A800F033FA07E02E9804F02E
S31508001C7001FFDFF8A41310A801F004FA54E0207954
S31508001C803A2809D0DFF8B81310A800F021FA46E080
S31508001C9044190108782701085FFA88F8B8F1060F91
S31508001CA010DB01208346052006005FFA88F84645C2
S31508001CB00ADAA05D04F048FE002801D10020834618
S31508001CC0761CF2E700208346BBF1000F05D1DFF84A
S31508001CD0741310A800F0FCF921E0601D31903199C9
S31508001CE048A800F0F5F948A804F033FE2E902E987F
S31508001CF042F21071884202DA2E98002808D5DFF8D9
S31508001D00441310A800F0E4F909E000BF3C2B0108D1
S31508001D102E9804F0C4FEC04910A801F0B3F903E0F8
S31508001D20C94910A800F0D4F92EE0E078522802D06C
S31508001D30532810D01FE004F0C7FE04F0E3FEC349A1
S31508001D4004F0F0FE04F06CFF02000B00C04910A876
S31508001D5001F098F913E004F0BAFE04F0D3FEBB498B
S31508001D6004F0E0FE04F05CFF02000B00B94910A87D
S31508001D7001F088F903E0B44910A800F0A9F903E0D6
S31508001D808E4910A800F0A4F91CE0B34910A800F089
S31508001D909FF910A9002000F073FA0500EDB2002D96
S31508001DA002D02800C0B291E0AC4910A800F090F922
S31508001DB00120AB49087005E0382601087F4910A8BC
S31508001DC000F086F903E07D4910A800F081F9EDB22C
S31508001DD0002D09D0022D45D007D3032D49D053E055
S31508001DE098170108382C010854E004F0E3FB3390F7
S31508001DF0339801280AD002280DD0042810D00828C4
S31508001E0018D010281BD0202820D024E0954910A8E7
S31508001E1000F05EF923E0944910A800F059F91EE095
S31508001E20924910A800F054F919E000BFE02C010807
S31508001E30EC2C01088E4910A800F04AF90FE08D49EC
S31508001E4010A800F045F90AE0F82C01088A4910A8FC
S31508001E5000F03EF903E0894910A800F039F904F0CA
S31508001E6084FA17E0864910A800F032F904F07DFAE2
S31508001E7010E0844910A800F02BF904F076FA09E07E
S31508001E8064120108381301087F4910A800F020F9E8
S31508001E9004F06BFA10A9002000F0F2F90500EDB283
S31508001EA0002D02D02800C0B210E0784910A800F032
S31508001EB00FF910A9002000F0E3F90500EDB2002D96
S31508001EC002D02800C0B201E02800C0B20DF5377D67
S31508001ED0BDE8F08FAC12010840140108001601088D
S31508001EE03C16010878160108D01701088014010865
S31508001EF0C0140108001501084015010880150108DD
S31508001F00F8B50400200000F0C3F80500002007001B
S31508001F1000200600AE4216DAA05D3A2802DAA05D75
S31508001F20302805DAA05D472805DAA05D412802DBDE
S31508001F300020070001E001200700012F01D1002041
S31508001F4002E0761CE6E70120F2BD2DE9F041040027
S31508001F5000275FF00008200000F09AF8050000202E
S31508001F600600AE421ADAA05D3A2806DAA05D3028E5
S31508001F7003DBA05D303807000CE0A05D472806DAD1
S31508001F80A05D412803DBA05D3738070002E05FF05B
S31508001F90FF3004E017EB0818761CE2E74046BDE878
S31508001FA0F0812F48007870477C13010848250108FE
S31508001FB0942E010874180108C4220108082501088E
S31508001FC06825010888250108101B0108A8250108AD
S31508001FD0DC1F0108042001083C1B0108A818010899
S31508001FE090270108502B01082C200108681B0108BE
S31508001FF0DC180108B4160108A827010854200108AE
S31508002000642B0108042D01087C200108941B010893
S3150800201010190108A4200108102D0108C02701087D
S31508002020D8270108E82201080C230108F02701082F
S3150800203030230108CC200108C01B010854230108DD
S31508002040EC1B0108782301089C23010800002041A5
S31508002050F4200108181C01085426010870260108F6
S31508002060A43500201C21010874190108A4190108C7
S31508002070D419010844210108041A01086C21010831
S3150800208094210108BC210108E42101089C2E0108BD
S3150800209000F10103810704D010F8011B89B18107FB
S315080020A0FAD10268B2F10131914311F0803F04BFC1
S315080020B050F8042FF6E710F8011B11B110F8011BB0
S315080020C0FBE7C01A70470268531C0360117070471B
S315080020D05FEA000C830706D011F8013B00F8013BC4
S315080020E0B3B18307F8D10A68B2F1013323EA0203D0
S315080020F013F0803F02BF40F8042B51F8042FF3E792
S3150800210011F8013B00F8013B13B111F8013BF9E75F
S315080021106046704780B5DFF88004DFF880140860F1
S315080021204FF49640DFF8741448600020DFF86C140A
S3150800213088600020DFF86414C8600020DFF85C14AB
S3150800214008610C20DFF8541448610020DFF84C14AD
S3150800215088610020DFF84414C861DFF8400404F001
S3150800216087FD002801D005F0F3FC01BD80B5DFF836
S315080021703004DFF8301408605FF4E130DFF8241427
S3150800218048600020DFF81C1488600020DFF814146B
S31508002190C8600020DFF80C1408610C20DFF804146E
S315080021A048614FF44070DFF8FC1388610020DFF8BF
S315080021B0F413C861DFF8EC0304F05AFD002801D0D7
S315080021C005F0C6FC01BD10B586B004002068DFF82E
S315080021D0C81388421ED1DFF8D003006850F40030D7
S315080021E0DFF8C4130860DFF8C003006810F4003095
S315080021F0009000980C200190022002900120039084
S31508002200032004900720059001A9DFF8A00305F034
S31508002210B7FC33E02068DFF8881388422ED1DFF850
S315080022208803006850F48020DFF87C130860DFF824
S315080022307803006810F48020009000984FF44060FE
S3150800224001900220029001200390032004900720A9
S31508002250059001A9DFF8580305F092FC4FF4C04039
S31508002260019002200290002003900320049007208A
S31508002270059001A9DFF8380305F082FC06B010BD09
S31508002280F8B504000D002800FFF702FF0700BFB2EB
S31508002290792F01DB01203AE0E4B2002C19D1DFF8EE
S315080022A014030078002801D0022030E04FF40043E0
S315080022B03A0092B22900DFF8E40204F012FD0600A3
S315080022C0F6B2002E02D03000C0B220E03000C0B214
S315080022D01DE0E4B2012C19D1DFF8DC0200780028F1
S315080022E001D0022013E04FF400433A0092B22900CD
S315080022F0DFF8B00204F0F5FC0600F6B2002E02D0B4
S315080023003000C0B203E03000C0B200E00120F2BDE8
S31508002310F8B504000D002800FFF7BAFE0700BFB2A3
S31508002320792F01DB012036E0E4B2002C17D1DFF863
S3150800233084020078002801D002202CE03A0092B2EC
S315080023402900DFF8580204F04AFD0600F6B2002E0E
S3150800235002D03000C0B21EE03000C0B21BE0E4B2CA
S31508002360012C17D1DFF850020078002801D002208E
S3150800237011E03A0092B22900DFF8280204F02FFD96
S315080023800600F6B2002E02D03000C0B203E03000DC
S31508002390C0B200E00120F2BDDFF82002704701203C
S315080023A0DFF81C1208707047854800787047F8B542
S315080023B004000D001600B6B2792E01DB012032E0CA
S315080023C0E4B2002C15D17B480078002801D0022001
S315080023D029E0320092B22900704804F038FD07005F
S315080023E0FFB2002F02D03800C0B21CE03800C0B2DD
S315080023F019E0E4B2012C15D16F480078002801D005
S31508002400022010E0320092B22900664804F01FFD4F
S315080024100700FFB2002F02D03800C0B203E0380030
S31508002420C0B200E00120F2BD10B504002000C0B221
S3150800243000F006F8012801D0002000E0012010BDB8
S315080024400100C9B2002903D1544890F8390007E0C1
S31508002450C9B2012903D1534890F8390000E0042095
S31508002460704701684C4A914203D10121514A1170C3
S3150800247006E001684A4A914202D101214E4A11708A
S315080024807047C0B2002803D100214A4A117005E0FE
S31508002490C0B2012802D10021474A1170704770B5B1
S315080024A0040020683C49884203D10120414908704C
S315080024B04CE020683A49884248D1FFF775FF002862
S315080024C024D0032040490860FFF766FF3F490860AB
S315080024D03E4800684078401C0600002005003A483F
S315080024E0006885420BDA39480068007800F072FB0C
S315080024F036480068401C354908606D1CEFE73248CD
S315080025000660314800682F4908601CE0FFF744FF61
S315080025102E490860002005002B48006885420BDA22
S315080025202A480068007800F055FB28480068401CD7
S31508002530264908606D1CEFE70320234908602248F6
S3150800254000682049086001201B49087070BD704763
S3150800255014480068C06850F0800012490968C860CD
S31508002560704710480068C06850F480700D490968C3
S31508002570C8600C480068406950F0010009490968BC
S31508002580486108480068C06850F020000549096895
S31508002590C86070470000000000440040C8320020B0
S315080025A0004800400833002024380240000002405A
S315080025B000040240A7350020A83500208C340020EE
S315080025C0A935002048000020903500208C350020D1
S315080025D038B504000D00DFF8A00700680471DFF8BD
S315080025E0980700684571DFF89407DFF88C170968C3
S315080025F00860DFF884070068011DDFF87C070068BB
S31508002600006805F028FDDFF878070068001D32BD70
S315080026100020DFF87017A1F820030020DFF86817FC
S3150800262081F896010020DFF8601781F897010020ED
S31508002630DFF8541781F898010020DFF84C1781F865
S3150800264099010020DFF8401781F89A010120DFF888
S31508002650381781F89B017047401CC0B2C82800DBB8
S315080026600020C0B2704738B504000D00002C27D0F2
S31508002670DFF8140790F89301DFF80C1791F8921118
S3150800268088421BD00020DFF8001781F89501DFF893
S31508002690F806DFF8F41691F89311084490F8CA0082
S315080026A028706D1CDFF8E00690F89301FFF7D4FF59
S315080026B0DFF8D41681F89301641ED7E7FFF751FFB8
S315080026C0002032BDDFF8C00690F89501704780B546
S315080026D0FFF79EFF062003F0D3FD0FF2C530DFF8A3
S315080026E0AC160860DFF8A806DFF8A8160860DFF859
S315080026F0A806DFF8A8160860062003F0B3FD01BD9A
S3150800270070B586B00025DFF88006D0F89C01002851
S3150800271005D105F08EFCDFF87016C1F89C01DFF8CC
S315080027206806D0F89C01002800F0EF80DFF858060C
S31508002730D0F89C010068DFF868160840DFF84416F0
S31508002740DFF84026B2F8202341F82200DFF83406E5
S31508002750B0F82003C0B2FFF77FFFDFF82816A1F80C
S315080027602003DFF82406D0F89C010068DFF830164D
S31508002770084004002000DFF82C1688422AD0DFF82B
S315080027802816884258D0DFF82416884200F082803E
S31508002790DFF81C16884229D0DFF81816884279D047
S315080027A0DFF81416884257D0DFF81016884200F072
S315080027B09280DFF80C1688425AD0DFF8081688424D
S315080027C062D0DFF80416884264D0DFF80016884223
S315080027D05AD08BE0DFF8F8150020FFF751FD0120ED
S315080027E005000120DFF8A01581F896010020DFF822
S315080027F0981581F8970102210220FFF7E9FE0600E5
S315080028003088002817D1EDB2002D0FD1DFF8C41596
S315080028100020FFF735FD02210D2005F05BFC01F0D5
S31508002820BFFC0D2005F0A6FC04F05DF80020DFF8DB
S315080028305815C1F89C0168E0DFF89C150020FFF7E1
S315080028401FFD0120DFF8401581F897010020DFF809
S315080028503815C1F89C0158E08FA10020FFF710FD3C
S3150800286001F0ACFC0020DFF82015C1F89C014CE013
S315080028708AA10020FFF704FD01F0A0FC0020DFF884
S315080028800815C1F89C0140E00020DFF8FC14C1F8E7
S315080028909C013AE0DFF844150020FFF7F1FCDFF869
S315080028A0E804D0F89C01807A00280ED0DFF8D80416
S315080028B0D0F89C0110F10B02DFF82415684600F0E9
S315080028C0E1FB69460020FFF7DBFC0020DFF8B814BF
S315080028D0C1F89C0119E0DFF80C150020FFF7D0FCC1
S315080028E00020DFF8A414C1F89C010EE02200DFF8EE
S315080028F0F814684600F0C6FB69460020FFF7C0FCDE
S315080029000020DFF88414C1F89C0106B070BDDFF81A
S31508002910780490F896017047DFF86C0490F89701F0
S315080029207047DFF8640490F89801704700B585B0E1
S31508002930DFF8540490F89901032835D1DFF84804E4
S3150800294090F89B01012801D101202EE0DFF8380418
S3150800295090F89A01401CDFF8301481F89A01DFF8E4
S31508002960280490F89A21DFF88414684600F08AFB58
S3150800297069460020FFF784FCDFF80C0490F89A01FA
S3150800298005280FDBDFF868140020FFF779FC022121
S31508002990122005F09FFB01F003FC122005F0EAFB6C
S315080029A003F0A1FF002000E0012005B000BDDFF81C
S315080029B0D80390F89901032809D1DFF8CC0390F8D9
S315080029C09B01012801D1012002E0002000E001203E
S315080029D07047DFF8B41381F89B017047DFF8A81336
S315080029E091F89911032903D1DFF89C1381F89B010B
S315080029F07047DFF8940390F899017047DFF8881359
S31508002A0081F89901704738B5040020680068000607
S31508002A1026D5DFF8740390F8C900DFF86C1391F82F
S31508002A20C810884215D0DFF86003DFF85C1391F808
S31508002A30C910415C89B2200000F0C1F8DFF84803EC
S31508002A4090F8C900FFF708FEDFF83C1381F8C900C3
S31508002A5006E02068C0687FF0800108402168C860E9
S31508002A602068006810F00F000F2807D10020C6491B
S31508002A7081F89401200000F0A8F80BE020680068AF
S31508002A80800607D5200000F0A0F805002800C0B28F
S31508002A9000F0A0F831BD00002D2A2D002D4F2D0085
S31508002AA02DE9F04104000D0054F07F400600B548BA
S31508002AB0B449B1F8201340F82160B248B0F82003B1
S31508002AC0C0B2FFF7C9FDAF49A1F820032878697895
S31508002AD0090411EB0060A97810EB0120E9780818C1
S31508002AE00600A848A749B1F8201340F82160A54870
S31508002AF0B0F82003C0B2FFF7AFFDA249A1F8200342
S31508002B0028796979090411EB0060A97910EB01208D
S31508002B10E979081806009B489A49B1F8201340F845
S31508002B2021609848B0F82003C0B2FFF795FD954993
S31508002B30A1F820034FF4FA600700002C3DD0924814
S31508002B4090F8C800FFF788FD804640468E4991F800
S31508002B50C910C0B288421ED028788B498A4A92F892
S31508002B60C8208854272003F0B7FE874890F8C80085
S31508002B70854991F8C910884201D1FFF7E9FC8248D6
S31508002B8080F8C880272003F0A0FE641E6D1C4FF451
S31508002B90FA600700D1E73800471E0028CDD100208B
S31508002BA0794981F8960102210F2005F093FA0F2042
S31508002BB005F0E0FA03F097FEBFE7BDE8F08189B2B9
S31508002BC0CA05D20D03685A60704700684068C00598
S31508002BD0C00D704730B58FB004008648864909781D
S31508002BE0445485480078401C83490870E4B20A2C8E
S31508002BF003D0E4B23F2C40F0BB8000207E49087029
S31508002C007C4A7E49684600F03DFA69460020FFF78F
S31508002C1037FB0500EDB2002D02D02800C0B2A9E0AE
S31508002C2004227749734805F0DEFA00280DD1012001
S31508002C30554981F896010020534981F89801714950
S31508002C400020FFF71DFB050092E009226E4969483E
S31508002C5005F0C9FA002815D101204B4981F89701DA
S31508002C600120494981F899010020474981F89A01CC
S31508002C7066490020FFF704FB65490020FFF700FBC3
S31508002C80050075E00C2263495A4805F0ACFA00289D
S31508002C901BD100203C4981F8970100203A4981F868
S31508002CA098010120384981F899010020364981F8B0
S31508002CB09A0156490020FFF7E3FA00F019FB564936
S31508002CC00020FFF7DDFA050052E00422534949487F
S31508002CD005F089FA002809D101202B4981F89801C5
S31508002CE04F490020FFF7CCFA050041E005224D497F
S31508002CF0404805F078FA002824D1234890F899012D
S31508002D0002280DD10320204981F8990100201E4987
S31508002D1081F89A0144490020FFF7B2FA050027E036
S31508002D20194890F89901032822D10020164981F8FC
S31508002D309A013E490020FFF7A3FA05000120FFF794
S31508002D4048FE15E008223A492A4805F04CFA0028B8
S31508002D5009D10221112005F0BDF9112005F00AFA62
S31508002D6003F0C1FD04E033490020FFF789FA0500A6
S31508002D702800C0B20FB030BD0C00002020020301AD
S31508002D8010000020C8200020C02D00204435002057
S31508002D906726000848350020C52600084C3500205F
S31508002DA0F800FFFFA0000100A0000800A00009002D
S31508002DB0A0000801A000080220000A02A0000B02D9
S31508002DC0A0000A0320000A0520000908A000002028
S31508002DD0802C0108882B0108982B01082824010853
S31508002DE08C2C0108C8250108982C0108382A0108E6
S31508002DF04C2A010864340020A3350020E425010884
S31508002E007C2D0108A82B0108A42C010848240108D8
S31508002E10602A0108B82B0108C82B0108842D01086F
S31508002E20E82601088C2D010800260108742A0108E5
S31508002E30B02C0108882A010800210800802804DA35
S31508002E4000218D4A1154401CF8E770478B4870479B
S31508002E5070B504008021200005F0D6FA0500EDB211
S31508002E60002D02D02800C0B217E005F004FB0500CB
S31508002E7000200600C82E0ADA05F0FDFA0500EDB2B4
S31508002E80002D04D0052003F0BEFB761CF2E7C82E01
S31508002E9001DB032001E02800C0B270BD2DE9F8432C
S31508002EA07448FFF7D5FF80465FFA88F8B8F1000F37
S31508002EB002D04046C0B241E000200700802F05DA64
S31508002EC06C48C05D6D49C8557F1CF7E7FFF7B4FF2E
S31508002ED0002307226849674805F0FAFA070017F140
S31508002EE0010F01D1012029E000200700402F23DA35
S31508002EF06048C05D03F006FE05005F48C05D03F04C
S31508002F0001FE06002800290005F002FC8146300073
S31508002F10310005F0FDFB494605F066FC03F080FE2E
S31508002F2005F0A4FC05F01AFD0400200005F05EFD7E
S31508002F305049C8557F1CD9E74046C0B2BDE8F28360
S31508002F4070B582B004000020050048A1200000F0FA
S31508002F5099F800200600102E0BDA4648825D48498B
S31508002F60684600F08FF86946200000F0A5F8761C40
S31508002F70F1E73FA1200000F09FF82800C0B276BD17
S31508002F8070B582B004000020050038A1200000F0CA
S31508002F9079F800200600102E0CDA36483044027CF8
S31508002FA03749684600F06EF86946200000F084F854
S31508002FB0761CF0E72EA1200000F07EF82800C0B2AB
S31508002FC076BD70B582B004000020050027A1200058
S31508002FD000F058F800200600102E0DDA2548304477
S31508002FE090F820202649684600F04CF869462000EB
S31508002FF000F062F8761CEFE71DA1200000F05CF8EF
S315080030002800C0B276BD70B582B004000020050065
S3150800301016A1200000F036F800200600102E0DDA62
S315080030201448304490F830201549684600F02AF8CC
S315080030306946200000F040F8761CEFE70CA1200056
S3150800304000F03AF82800C0B276BD002108008028B2
S315080030500ADA0021074A11540021074A11540021AF
S31508003060064A1154401CF2E77047000000000000B1
S31508003070426E0000F430002074310020F431002044
S31508003080A42E01080CB41CB5044604A801900A46EF
S31508003090009401AB694607487844183005F0C8FC27
S315080030A0009A0021117000285CBF0098001B16BC0E
S315080030B05DF80CFB13F0FFFF024600E0521C137884
S315080030C0002BFBD111F8013B137012F8013B002BC2
S315080030D0F8D170471CB520208DF8000001208DF826
S315080030E0010008208DF8020000208DF8030000205A
S315080030F08DF8040000208DF80500684606F068FD86
S315080031000400E4B2002C05D0022C07D004D3032C0B
S3150800311006D007E0002006E0012004E0032002E0D4
S31508003120012000E0012016BD2DE9FF47040000201C
S315080031300500684606F0FAFD002835D10098814654
S31508003140009803F06DFD0022454B06F065FE06F07B
S315080031504BFF0600360202AA9246009803F060FD6D
S31508003160524606F057FF05F0F9FB80465FF08740A8
S31508003170414605F0CDFA05F039FC070017F0F007CF
S31508003180BE193200374914F10C00FFF77BFFA66120
S31508003190484603F045FD02000B0033492000FFF7BF
S315080031A071FF2800C0B200E0012004B0BDE8F08736
S315080031B030B585B00400684606F0CEFD002801D07B
S315080031C0012046E001A806F0E8FD002840D1019854
S315080031D003F026FD254A264B06F01EFE0022254B47
S315080031E006F074FF05F0BAFB0500BDF80000E082A2
S315080031F0019803F015FD02000B001F492000FFF798
S3150800320041FF280003F00CFD02000B001B49E01DDE
S31508003210FFF738FFBDF90000C0F3072212B20F49C5
S3150800322014F10E00FFF72EFFBDF9000000F0FF02B3
S315080032300A4902A8FFF726FF02A914F10E00FFF7B4
S315080032403BFF05A114F10E00FFF736FF002000E052
S31508003250012005B030BD000052770000542D01084A
S31508003260000004405C2D0108642D0108CDCCCCCCAF
S31508003270CCCCFC3F000040406C2D0108742D0108A1
S3150800328010B5A0B000208DF8040000208DF80500C8
S315080032904FF4FA700090002301AA0F21BA2003F018
S315080032A0C0F80400E4B2002C07D14FF4FA730122E7
S315080032B001A9BA2003F04DF904009DF80400BD28C1
S315080032C001D1002000E0012020B010BD80B501200A
S315080032D03849487000F00CF80020364988700020FC
S315080032E0DFF8B41D08700020DFF8AC1D488001BD6A
S315080032F080B501202F4948702F493048FEF7E8FE6F
S315080033002D492F48FEF7E4FE2B492E48FEF7E0FE2E
S3150800331029492D48FEF7DCFE27492C48FEF7D8FE3A
S315080033202B492C48FEF7D4FE2B492C48FEF7D0FE35
S3150800333021492B48FEF7CCFE1F492A48FEF7C8FE4E
S315080033401D492948FEF7C4FE1B492848FEF7C0FE5A
S3150800335019492748FEF7BCFE1749DFF8EC09FEF7BE
S31508003360B7FE1549DFF8E409FEF7B2FE1249DFF8A1
S31508003370E009FEF7ADFE1049DFF8D809FEF7A8FE0A
S315080033800D49DFF8D409FEF7A3FE0B49DFF8CC098F
S31508003390FEF79EFE0849DFF8780DFEF799FE01BD97
S315080033A00120DFF8BC19087070470120DFF8B01952
S315080033B00870704758290020342D01086329002019
S315080033C0732900208329002092290020A82900209B
S315080033D0782B0108CA290020682C0108E829002052
S315080033E0062A0020182A0020302A0020D42A002085
S315080033F0EC2A002010B58AB000200400DFF8600926
S315080034000078002800F09C84DFF8540980780028AA
S3150800341008D0022846D03AD3042861D04DD30528CF
S3150800342071D085E0DFF83C196846FFF72BFE694640
S315080034300020FEF725FF6846FEF72AFE6946FFF7D5
S315080034402FFB002000F036FE00281FD0DFF81809F1
S3150800345001F08FFE0400E4B2002C69D1DFF80C09F4
S3150800346001F0FDFE0400E4B2002C61D1DFF800098A
S3150800347001F06BFF0400E4B2002C59D1DFF8F40820
S3150800348001F0E0FF0400E4B2002C51D150E0012025
S3150800349000F010FE002804D0DFF8DC0802F0D2FBAA
S315080034A0040045E0022000F005FE002804D0DFF8FD
S315080034B0CC0802F087FD04003AE0032000F0FAFD8C
S315080034C000280CD0DFF8580BFFF72EFE0400E4B2F4
S315080034D0002C2DD1DFF8A808FFF76AFE040027E0C4
S315080034E0042000F0E7FD00280CD0DFF8380B02F0C6
S315080034F098F80400E4B2002C1AD1DFF8880802F024
S315080035000FFA040014E0052000F0D4FD002805D0C9
S31508003510DFF8740801F0D0FA040009E0062000F08C
S31508003520C9FD002804D0DFF8600800F031FF040068
S31508003530DFF82C088078401CDFF824188870DFF83C
S3150800354020088078092807DB0020DFF8141888701F
S315080035500020DFF80C180870E4B2002C02D0200016
S31508003560C0B2EFE303F02BFADFF8E819DFF8E80951
S3150800357006F020FE00281FD0012002F073FEDFF8B7
S31508003580D819DFF8D009FEF7A3FDDFF8DC17DFF856
S31508003590CC09FEF79DFDDFF8C429DFF8C419684693
S315080035A0FFF770FD69460020FEF76AFE6846FEF7DB
S315080035B06FFD6946FFF774FADFF8281ADFF8280A5C
S315080035C006F0F8FD00281FD0012002F04BFEDFF8B8
S315080035D0181ADFF8100AFEF77BFDDFF89017DFF8F8
S315080035E0480AFEF775FDDFF8402ADFF8401A6846F4
S315080035F0FFF748FD69460020FEF742FE6846FEF7DB
S3150800360047FD6946FFF74CFADFF8241ADFF8240A63
S3150800361006F0D0FD00281FD0012002F023FEDFF8B7
S31508003620141ADFF80C0AFEF753FDDFF84417DFF823
S31508003630080AFEF74DFDDFF8002ADFF8001A68468B
S31508003640FFF720FD69460020FEF71AFE6846FEF7DA
S315080036501FFD6946FFF724FADFF8401ADFF8400A2B
S3150800366006F0A8FD00281FD0012002F0FBFDDFF8B8
S31508003670301ADFF8280AFEF72BFDDFF8F816DFF810
S31508003680240AFEF725FDDFF81C2ADFF81C1A68460F
S31508003690FFF7F8FC69460020FEF7F2FD6846FEF7DC
S315080036A0F7FC6946FFF7FCF9DFF8001ADFF8000AAD
S315080036B006F080FD00283ED0012002F0D3FDDFF899
S315080036C0F019DFF8E809FEF703FDDFF8AC16DFF8B6
S315080036D0440AFEF7FDFCDFF8401ADFF8400AFEF759
S315080036E0F7FCDFF8E00AB0F85800DFF87416A1F81E
S315080036F05800DFF8202ADFF8281A6846FFF7C2FCC8
S3150800370069460020FEF7BCFD6846FEF7C1FC69461F
S31508003710FFF7C6F9DFF8042ADFF8081A6846FFF744
S31508003720B1FC69460020FEF7ABFD6846FEF7B0FC23
S315080037306946FFF7B5F9DFF8901ADFF87C0A06F054
S3150800374039FD00285ED0012002F08CFDDFF8681AEA
S31508003750DFF8740AFEF7BCFCDFF82016DFF86C0AFF
S31508003760FEF7B6FCDFF8681ADFF8680AFEF7B0FC61
S31508003770DFF8641ADFF8640AFEF7AAFCDFF8482ABD
S31508003780DFF85C1A6846FFF77DFC69460020FEF7FD
S3150800379077FD6846FEF77CFC6946FFF781F9DFF896
S315080037A02C2ADFF8401A6846FFF76CFC69460020A9
S315080037B0FEF766FD6846FEF76BFC6946FFF770F98B
S315080037C0DFF8102ADFF8201A6846FFF75BFC69461F
S315080037D00020FEF755FD6846FEF75AFC6946FFF7D6
S315080037E05FF9DFF8F829DFF8041A6846FFF74AFC9C
S315080037F069460020FEF744FD6846FEF749FC69461F
S31508003800FFF74EF9DFF8E819DFF8E80906F0D2FC09
S31508003810002827D0012002F025FDDFF8D819DFF8A7
S31508003820D009FEF755FCDFF8F817DFF8CC09FEF7E4
S315080038304FFCDFF89009D0F89C00DFF82415C1F892
S315080038409C00DFF8B429DFF8B4196846FFF71AFCBC
S3150800385069460020FEF714FD6846FEF719FC69461E
S31508003860FFF71EF9DFF89819DFF8980906F0A2FCA9
S31508003870002825D0012002F0F5FCDFF88819DFF8CA
S315080038808009FEF725FCDFF8F814DFF87C09FEF757
S315080038901FFCDFF87819DFF87809FEF719FCDFF85E
S315080038A05829DFF858196846FFF7ECFB69460020E7
S315080038B0FEF7E6FC6846FEF7EBFB6946FFF7F0F80D
S315080038C0DFF85019DFF8500906F074FC002827D0F5
S315080038D0012002F0C7FCDFF84019DFF83809FEF7C7
S315080038E0F7FBDFF84017DFF83409FEF7F1FBDFF8DE
S315080038F0D408B0F8C800DFF86814A1F8C800DFF8E3
S315080039001C29DFF81C196846FFF7BCFB694600202E
S31508003910FEF7B6FC6846FEF7BBFB6946FFF7C0F83C
S31508003920DFF80019DFF8000906F044FC00283ED04D
S31508003930012002F097FCDFF8F018DFF8E808FEF738
S31508003940C7FBDFF84014DFF8E408FEF7C1FBDFF831
S31508003950E018DFF8E008FEF7BBFBDFF86808B0F808
S31508003960E000DFF8FC13A1F8E000DFF8C028DFF874
S31508003970C8186846FFF786FB69460020FEF780FCF4
S315080039806846FEF785FB6946FFF78AF8DFF8A4283C
S31508003990DFF8A8186846FFF775FB69460020FEF7AA
S315080039A06FFC6846FEF774FB6946FFF779F8DFF89F
S315080039B09018DFF8900806F0FDFB00281FD00120BC
S315080039C002F050FCDFF87C18DFF87408FEF780FB7D
S315080039D0DFF8B413DFF87008FEF77AFBDFF868281B
S315080039E0DFF868186846FFF74DFB69460020FEF7C2
S315080039F047FC6846FEF74CFB6946FFF751F8DFF8C7
S31508003A005018DFF8500806F0D5FB002826D001200C
S31508003A1002F028FCDFF83C18DFF83408FEF758FBFC
S31508003A20DFF83418DFF83408FEF752FBDFF894079E
S31508003A30B0F89C01CA49A1F89C01DFF82028DFF8F4
S31508003A4020186846FFF71EFB69460020FEF718FC9B
S31508003A506846FEF71DFB6946FFF722F8BA49DFF804
S31508003A60040806F0A7FB002825D0012002F0FAFB7F
S31508003A70DFF8F017B448FEF72BFBDFF8EC17DFF892
S31508003A80EC07FEF725FBDFF83C07B0F8B401B449AC
S31508003A90A1F8B401DFF8D427DFF8D4176846FFF792
S31508003AA0F1FA69460020FEF7EBFB6846FEF7F0FAE6
S31508003AB06946FEF7F5FFA549DFF8B80706F07AFB71
S31508003AC0002825D0012002F0CDFBDFF8A8179F4873
S31508003AD0FEF7FEFADFF8A017DFF8A007FEF7F8FAF8
S31508003AE0DFF8E006B0F8CC019D49A1F8CC01DFF873
S31508003AF08C27DFF88C176846FFF7C4FA694600205A
S31508003B00FEF7BEFB6846FEF7C3FA6946FEF7C8FF2E
S31508003B10DFF87017DFF8700706F04CFB002825D091
S31508003B20012002F09FFBDFF864178948FEF7D0FAF8
S31508003B30DFF85417DFF84C07FEF7CAFADFF88406F1
S31508003B40B0F8E4018649A1F8E401DFF83827DFF880
S31508003B5040176846FFF796FA69460020FEF790FB7D
S31508003B606846FEF795FA6946FEF79AFF7949DFF83F
S31508003B70240706F01FFB002825D0012002F072FB5F
S31508003B80DFF810177348FEF7A3FADFF80C17DFF80B
S31508003B900C07FEF79DFADFF82C06B0F8FC01704911
S31508003BA0A1F8FC01DFF8F426DFF8F4166846FFF7FB
S31508003BB069FA69460020FEF763FB6846FEF768FA6D
S31508003BC06946FEF76DFF6449DFF8D80606F0F2FA93
S31508003BD0002825D0012002F045FBDFF8C8165E480C
S31508003BE0FEF776FADFF8C016DFF8C006FEF770FAB9
S31508003BF0DFF8D005B0F814025949A1F81402DFF825
S31508003C00AC26DFF8AC166846FFF73CFA6946002092
S31508003C10FEF736FB6846FEF73BFA6946FEF740FFB5
S31508003C204E49DFF8900606F0C5FA002825D001208F
S31508003C3002F018FBDFF87C164848FEF749FADFF869
S31508003C407816DFF87806FEF743FADFF87805B0F855
S31508003C502C024349A1F82C02DFF86026DFF860162B
S31508003C606846FFF70FFA69460020FEF709FB684623
S31508003C70FEF70EFA6946FEF713FFDFF89414DFF82D
S31508003C80440606F097FA002826D0012002F0EAFA40
S31508003C90DFF83016DFF87804FEF71AFADFF8281688
S31508003CA0DFF82806FEF714FADFF81805B0F844021C
S31508003CB02B49A1F84402DFF81426DFF814166846E3
S31508003CC0FFF7E0F969460020FEF7DAFA6846FEF7DC
S31508003CD0DFF96946FEF7E4FE21484078002813D04C
S31508003CE000201F494870DFF8EC25DFF8EC15684618
S31508003CF0FFF7C8F969460020FEF7C2FA6846FEF7DC
S31508003D00C7F96946FEF7CCFE15488078002817D112
S31508003D10DFF8C8156846FFF7B5F969460020FEF7CB
S31508003D20AFFA6846FEF7B4F96946FEF7B9FEDFF85A
S31508003D30B0156846FFF7A6F969460020FEF7A0FA0F
S31508003D402000C0B20AB010BD042B00201C2B002096
S31508003D50342B00204C2B0020642B00207C2B0020C9
S31508003D60582900203C2D010813270020222700206F
S31508003D703227002042270020522700206A270020E9
S31508003D80B0270020DA2700207E28002000B595B04D
S31508003D90FEF7BDFD002800F0CB80FEF7BDFD00282C
S31508003DA000F0C680FEF7BDFD002800F0C180FEF7D2
S31508003DB0FEFD002800F0BC80DFF828156846FFF7EE
S31508003DC061F969460020FEF75BFA6846FEF760F976
S31508003DD06946FEF765FE022002F044FAFFF75EF830
S31508003DE0DFF80405FFF7ACF8DFF80005FFF7C8F8B9
S31508003DF0DFF8FC04FFF7E5F8DFF8F804FFF703F946
S31508003E00012002F02FFADFF8E024DFF8EC14684608
S31508003E10FFF738F969460020FEF732FA6846FEF7DA
S31508003E2037F96946FEF73CFE012002F01BFADFF877
S31508003E30BC24DFF8C8146846FFF724F96946002051
S31508003E40FEF71EFA6846FEF723F96946FEF728FECE
S31508003E50012002F007FADFF89824DFF8A414684670
S31508003E60FFF710F969460020FEF70AFA6846FEF7DA
S31508003E700FF96946FEF714FE012002F0F3F9DFF8A0
S31508003E807424DFF880146846FFF7FCF869460020BA
S31508003E90FEF7F6F96846FEF7FBF86946FEF700FEF8
S31508003EA006F0BBF90200DFF860146846FFF7EAF887
S31508003EB069460020FEF7E4F96846FEF7E9F8694620
S31508003EC0FEF7EEFD0020FEF789FDFEF792FD0128BC
S31508003ED008D10220FEF792FDDFF830140020FEF725
S31508003EE0CFF90BE0FEF785FD022807D10420FEF77F
S31508003EF085FDDFF81C140020FEF7C2F902F05FFD0D
S31508003F00DFF8D8136846FFF7BDF869460020FEF7C4
S31508003F10B7F96846FEF7BCF86946FEF7C1FDDFF853
S31508003F20C0136846FFF7AEF869460020FEF7A8F901
S31508003F3059484088411C584A518080B20E2804DBF3
S31508003F40002055494880FFF7D3F9022002F098F976
S31508003F5015B000BD632900201B2700205B2900201F
S31508003F600828010830B587B00400FEF7D0FC002801
S31508003F7013D014222100684606F062F92000FEF7E5
S31508003F8087F8152803D314F11400050000E025006E
S31508003F9014222900684606F053F907B030BD80B5EB
S31508003FA0FEF7BAFC002816D00020DFF86813088050
S31508003FB000F0FAF8002807D0DFF85C030088401CF8
S31508003FC0DFF8541308800BE00020DFF84C13088054
S31508003FD000F0EDF804E0CF480088401CCD49088081
S31508003FE001BD0000732900202B2700200020CB49A3
S31508003FF008700020C94948700020C8490871002087
S31508004000C649C8700020C54988700020C349487150
S315080040100020C24988710020C049C8717047000055
S3150800402094270020C82700206A2900201C28010898
S31508004030832900203B2700207A2900203028010800
S31508004040C0B200280CD0022810D00CD3042813D0F4
S315080040500FD3062816D012D3082819D015D31AE07C
S31508004060AE4A117017E0AD4A517014E0AB4A917030
S3150800407011E0AA4AD1700EE0A84A11710BE0A74ACE
S31508004080517108E0A54A917105E0A44AD17102E090
S31508004090A24A1172FFE77047403500209229002096
S315080040A04A2700208A29002044280108A829002038
S315080040B0602700200100C9B200290CD0022910D0BF
S315080040C00CD3042913D00FD3062916D012D30829E6
S315080040D019D015D31AE09148007818E08F4840782F
S315080040E015E08E48807812E08C48C0780FE08B483F
S315080040F000790CE08948407909E08848807906E02B
S315080041008648C07903E08548007A00E000207047B9
S31508004110942B00209A29002059270020A129002045
S31508004120582801086C28010810B500240020FFF75C
S31508004130C1FF002800D0641C0120FFF7BBFF002840
S3150800414000D0A41C0220FFF7B5FF002800D0241DCC
S315080041500320FFF7AFFF002800D008340420FFF73C
S31508004160A9FF002800D010340520FFF7A3FF002878
S3150800417000D020340620FFF79DFF002800D04034E9
S315080041800720FFF797FF002800D080340820FFF7A4
S3150800419091FF002801D014F58074200080B210BD6C
S315080041A000205F49488070475D48007870470120C5
S315080041B05B49087070470000822700200020584994
S315080041C00870704710270020CA290020B22900204D
S315080041D072270020BA2900207A270020C229002049
S315080041E08028010894280108A8280108BC28010885
S315080041F0E8290020A0270020DC290020D028010873
S31508004200062A0020BE270020F8290020B72700200C
S31508004210FF290020182A0020D0270020102A002075
S31508004220E4280108302A0020E8270020222A002056
S31508004230E1270020292A0020F82801080C2901086E
S31508004240D42A00208C280020C62A0020202901080C
S31508004250EC2A0020A428002096280020DE2A002028
S3150800426034290108BC280020AE280020F62A0020A0
S3150800427048290108D4280020C62800200E2B002033
S315080042805C290108262B0020DE280020EC280020C7
S315080042907029010804290020F62800203E2B00205A
S315080042A0842901081C2900200E290020562B0020ED
S315080042B09829010834290020262900206E2B002081
S315080042C0AC2901084C2900203E290020862B002015
S315080042D0C0290108742C0108D4290108442D0108B5
S315080042E04C2D01083C2D01083A2A00205D2A0020A1
S315080042F0802A0020A32A0020E8290108FC290108B1
S31508004300102A0108242A0108D0260108E8230108F2
S31508004310082401089C3500209E3500202035002001
S315080043204035002038B50020050000208DF8000033
S31508004330280003009BB26A461221142002F03DF8B9
S315080043400400E4B2002C1FD1642002F03DF90400F9
S31508004350E4B2002C02D02000C0B217E0022269465F
S31508004360142002F011F90400E4B2002C09D16420EB
S3150800437002F02AF90400E4B2002C05D02000C0B2ED
S3150800438004E02000C0B201E02000C0B232BD000047
S315080043902DE9F04F85B004000020039000208DF829
S315080043A00000039803009BB26A461221142002F00B
S315080043B004F80700FFB2002F23D1642002F004F9A5
S315080043C00700FFB2002F02D03800C0B2B9E20222BD
S315080043D06946142002F0D8F80700FFB2002F0DD165
S315080043E0642002F0F1F80700FFB2002F02D038006F
S315080043F0C0B2A6E2FFB2002F69D105E03800C0B20C
S315080044009FE23800C0B29CE29DF801004FF480712B
S315080044109DF8002001FB002082461FFA8AFAD3463F
S315080044200A209BFBF0F002F063FB0500DFF85C0C4A
S31508004430290004F06DF902F0F3FB05F037FF05F0EB
S31508004440BDFD0600280002F0EBFBDFF8442CDFF880
S31508004450443C05F0E1FC0022DFF83C3C05F036FE62
S3150800446004F07CFA8146E682280002F0D9FB0200B5
S315080044700B00DFF8281C2000FEF704FE484602F071
S31508004480CFFB02000B00DFF8181CE01DFEF7FAFD53
S31508004490300080B2020A92B2DFF8081C14F10E004E
S315080044A0FEF7F0FDB6B206F0FF02DFF8F81B01A82A
S315080044B0FEF7E8FD01A914F10E00FEF7FDFDB2A115
S315080044C014F10E00FEF7F8FD0020804602E03800E1
S315080044D0C0B236E2B8F1080F80F2318200200390AC
S315080044E000208DF80000039803009BB26A4618F175
S315080044F01301C9B2142001F060FF0700FFB2002FB4
S3150800450024D1642002F060F80700FFB2002F02D021
S315080045103800C0B215E202226946142002F034F8C7
S315080045200700FFB2002F0ED1642002F04DF80700F5
S31508004530FFB2002F02D03800C0B202E2FFB2002F4D
S3150800454040F0FA8105E03800C0B2FAE13800C0B29E
S31508004550F7E19DF801004FF480719DF8002001FBFA
S31508004560002082461FFA8AFAD3460A209BFBF0F0FF
S3150800457002F0BEFA0500DFF8140B290004F0C8F8AB
S3150800458002F04EFB05F092FE05F018FD0600280025
S3150800459002F046FBDFF8F82ADFF8F83A05F03CFCAB
S315080045A00022DFF8F43A05F091FD04F0D7F98146C8
S315080045B0B8F1000F14D0B8F1020F7AD044D3B8F18D
S315080045C0040F00F0E380C0F0A980B8F1060F00F0F0
S315080045D04781C0F01081B8F1070F00F07681A8E195
S315080045E0E685280002F01CFB02000B00DFF8AC1A77
S315080045F014F11800FEF746FD484602F011FB0200CA
S315080046000B00DFF89C1A14F11F00FEF73BFD300083
S3150800461080B2020A92B2DFF88C1A14F12600FEF76D
S3150800462031FDB6B206F0FF02DFF8781A01A8FEF7E8
S3150800463029FD01A914F12600FEF73EFD52A114F149
S315080046402600FEF739FD74E1A4F84660280002F05A
S31508004650E7FA02000B00DFF8441A14F13000FEF7FF
S3150800466011FD484602F0DCFA02000B00DFF8301AAA
S3150800467014F13700FEF706FD300080B2020A92B246
S31508004680DFF8201A14F13E00FEF7FCFCB6B206F07D
S31508004690FF02DFF8101A01A8FEF7F4FC01A914F1CD
S315080046A03E00FEF709FD38A114F13E00FEF704FDB1
S315080046B03FE1A4F85E60280002F0B2FA02000B009F
S315080046C0DFF8D81914F14800FEF7DCFC484602F07A
S315080046D0A7FA02000B00DFF8C81914F14F00FEF71D
S315080046E0D1FC300080B2020A92B2DFF8B81914F190
S315080046F05600FEF7C7FCB6B206F0FF02DFF8A419AB
S3150800470001A8FEF7BFFC01A914F15600FEF7D4FC78
S315080047101DA114F15600FEF7CFFC0AE1A4F8766055
S31508004720280002F07DFA02000B00DFF8701914F178
S315080047306000FEF7A7FC484602F072FA02000B007A
S31508004740DFF85C1914F16700FEF79CFC300080B2B4
S31508004750020A92B2DFF84C1914F16E00FEF792FCC9
S31508004760B6B206F0FF02DFF83C1901A8FEF78AFC8C
S3150800477001A914F16E00FEF79FFC03A114F16E0067
S31508004780FEF79AFCD5E000BF52770000A4F88E60C9
S31508004790280002F045FA02000B00DFF8001914F1B0
S315080047A07800FEF76FFC484602F03AFA02000B0062
S315080047B0DFF8EC1814F17F00FEF764FC300080B2D5
S315080047C0020A92B2DFF8DC1814F18600FEF75AFCEA
S315080047D0B6B206F0FF02DFF8CC1801A8FEF752FCC5
S315080047E001A914F18600FEF767FC57A114F18600AB
S315080047F0FEF762FC9DE0A4F8A660280002F010FA15
S3150800480002000B00DFF8941814F19000FEF73AFC4A
S31508004810484602F005FA02000B00DFF8841814F186
S315080048209700FEF72FFC300080B2020A92B2DFF83A
S31508004830741814F19E00FEF725FCB6B206F0FF02C6
S31508004840DFF8601801A8FEF71DFC01A914F19E0007
S31508004850FEF732FC3CA114F19E00FEF72DFC68E041
S31508004860A4F8BE60280002F0DBF902000B00DFF8AE
S315080048702C1814F1A800FEF705FC484602F0D0F9FA
S3150800488002000B00DFF8181814F1AF00FEF7FAFB68
S31508004890300080B2020A92B2DFF8081814F1B600A6
S315080048A0FEF7F0FBB6B206F0FF02DFF8F81701A82C
S315080048B0FEF7E8FB01A914F1B600FEF7FDFB22A1FD
S315080048C014F1B600FEF7F8FB33E0A4F8D66028002A
S315080048D002F0A6F902000B00DFF8C01714F1C000B9
S315080048E0FEF7D0FB484602F09BF902000B00DFF802
S315080048F0B01714F1C700FEF7C5FB300080B2020AF4
S3150800490092B2DFF8A01714F1CE00FEF7BBFBB6B2E1
S3150800491006F0FF02DFF88C1701A8FEF7B3FB01A922
S3150800492014F1CE00FEF7C8FB07A114F1CE00FEF77E
S31508004930C3FB18F10108CDE53800C0B201E0380024
S31508004940C0B205B0BDE8F08F5277000038B5002038
S3150800495004000120050000208DF8000000208DF8D5
S315080049600100280003009BB26A460021D02001F00E
S3150800497024FD0400E4B2002C1ED1642001F024FEBC
S315080049800400E4B2002C02D02000C0B248E00120A6
S31508004990050001208DF8000000208DF80100280090
S315080049A003009BB26A460221D02001F006FD0400EE
S315080049B0E4B2002C22D102E02000C0B230E064202C
S315080049C001F002FE0400E4B2002C02D02000C0B2BE
S315080049D026E00120050020208DF8000000208DF833
S315080049E00100280003009BB26A460721D02001F087
S315080049F0E4FC0400E4B2002C10D102E02000C0B2AE
S31508004A000EE0642001F0E0FD0400E4B2002C02D0C0
S31508004A102000C0B204E02000C0B201E02000C0B20D
S31508004A2032BD38B5012005003F208DF80000002072
S31508004A308DF80100280003009BB26A460121D020A8
S31508004A4001F0BBFC0400E4B2002C22D1642001F082
S31508004A50BBFD0400E4B2002C02D02000C0B22AE05C
S31508004A604FF47A7001F0CFFD0120050000208DF883
S31508004A70000000208DF80100280003009BB26A465A
S31508004A800121D02001F099FC0400E4B2002C10D1D9
S31508004A9002E02000C0B20EE0642001F095FD04009B
S31508004AA0E4B2002C02D02000C0B204E02000C0B25C
S31508004AB001E02000C0B232BD2DE9F04F89B00400F4
S31508004AC00020029000208DF80C00029803009BB28B
S31508004AD003AA0E21D02001F070FC0700FFB2002FB8
S31508004AE024D1642001F070FD0700FFB2002F02D028
S31508004AF03800C0B2C5E2022203A9D02001F044FD65
S31508004B000700FFB2002F0ED1642001F05DFD0700FB
S31508004B10FFB2002F02D03800C0B2B2E2FFB2002FB7
S31508004B2040F07F8005E03800C0B2AAE23800C0B283
S31508004B30A7E29DF80D004FF480719DF80C2001FB4B
S31508004B40002082465FEA0A5007D51FFA8AFADFF87C
S31508004B50580550EA0A00834602E01FFA8AFAD34645
S31508004B60584605F0C5FB0022DFF8403505F054F934
S31508004B7003F0F4FE06003000DFF8341505F0D0FB2C
S31508004B8001D896F00046DFF80405310003F0C0FDB1
S31508004B9002F046F805F08AFB05F010FA0500300029
S31508004BA002F03EF8DFF8E824DFF8E83405F034F9D7
S31508004BB00022DFF8E43405F089FA03F0CFFE8146D7
S31508004BC0E582300002F02CF802000B00DFF8CC1466
S31508004BD02000FEF757FA484602F022F802000B00BA
S31508004BE0DFF8BC14E01DFEF74DFA280080B2020A71
S31508004BF092B2DFF8B01414F10E00FEF743FAADB224
S31508004C0005F0FF02DFF89C146846FEF73BFA694692
S31508004C1014F10E00FEF750FA9CA114F10E00FEF7EF
S31508004C204BFA0020029000208DF80C000298030031
S31508004C309BB203AAC021D02001F0BFFB0700FFB238
S31508004C40002F24D1642001F0BFFC0700FFB2002F1B
S31508004C5002D03800C0B214E2102203A9D02001F015
S31508004C6093FC0700FFB2002F0ED1642001F0ACFCC4
S31508004C700700FFB2002F02D03800C0B201E2FFB22F
S31508004C80002F40F0FC8105E03800C0B2F9E1380099
S31508004C90C0B2F6E100208046B8F1080F80F2EF8135
S31508004CA003A800EB480040784FF4807103AA12F875
S31508004CB0182001FB002082465FEA0A5007D51FFA32
S31508004CC08AFADFF8E40350EA0A00834602E01FFA8C
S31508004CD08AFAD346584605F00BFB0022DFF8D43390
S31508004CE005F09AF803F03AFE06005FEA4A5007D53F
S31508004CF01FFA8AFADFF8C00350EA0A00834602E080
S31508004D001FFA8AFAD346E148310003F001FD01F0A3
S31508004D1087FF05F0CBFA05F051F90500300001F0E0
S31508004D207FFFDB4ADB4B05F077F80022DA4B05F00C
S31508004D30CDF903F013FE8146B8F1000F14D0B8F18F
S31508004D40020F72D040D3B8F1040F00F0D280C0F041
S31508004D509F80B8F1060F00F02E81C0F0FB80B8F1F5
S31508004D60070F00F0598187E1E585300001F058FF0B
S31508004D7002000B00C94914F11800FEF783F94846EA
S31508004D8001F04EFF02000B00C54914F11F00FEF7A3
S31508004D9079F9280080B2020A92B2C24914F12600B3
S31508004DA0FEF770F9ADB205F0FF02BE496846FEF798
S31508004DB069F9694614F12600FEF77EF933A114F164
S31508004DC02600FEF779F957E1A4F84650300001F0BD
S31508004DD027FF02000B00B14914F13000FEF752F923
S31508004DE0484601F01DFF02000B00AD4914F13700DB
S31508004DF0FEF748F9280080B2020A92B2A94914F1CE
S31508004E003E00FEF73FF9ADB205F0FF02A549684638
S31508004E10FEF738F9694614F13E00FEF74DF91BA175
S31508004E2014F13E00FEF748F926E1A4F85E5030007A
S31508004E3001F0F6FE02000B00984914F14800FEF74F
S31508004E4021F9484601F0ECFE02000B00944914F1E2
S31508004E504F00FEF717F9280080B2020A92B291496C
S31508004E6014F15600FEF70EF9ADB205F0FF028D49B2
S31508004E706846FEF707F9694614F15600FEF71CF96D
S31508004E8002A114F15600FEF717F9F5E05277000073
S31508004E90A4F87650300001F0C3FE02000B007F49EB
S31508004EA014F16000FEF7EEF8484601F0B9FE02007C
S31508004EB00B007B4914F16700FEF7E4F8280080B27E
S31508004EC0020A92B2774914F16E00FEF7DBF8ADB22A
S31508004ED005F0FF0273496846FEF7D4F8694614F1EF
S31508004EE06E00FEF7E9F868A114F16E00FEF7E4F823
S31508004EF0C2E0A4F88E50300001F092FE02000B00CA
S31508004F00664914F17800FEF7BDF8484601F088FEB8
S31508004F1002000B00624914F17F00FEF7B3F828007F
S31508004F2080B2020A92B25F4914F18600FEF7AAF827
S31508004F30ADB205F0FF025B496846FEF7A3F869467D
S31508004F4014F18600FEF7B8F84FA114F18600FEF7B3
S31508004F50B3F891E0A4F8A650300001F061FE020013
S31508004F600B004E4914F19000FEF78CF8484601F004
S31508004F7057FE02000B004A4914F19700FEF782F823
S31508004F80280080B2020A92B2464914F19E00FEF742
S31508004F9079F8ADB205F0FF0242496846FEF772F8A5
S31508004FA0694614F19E00FEF787F837A114F19E00B2
S31508004FB0FEF782F860E0A4F8BE50300001F030FE3B
S31508004FC002000B00354914F1A800FEF75BF84846C5
S31508004FD001F026FE02000B00314914F1AF00FEF77E
S31508004FE051F8280080B2020A92B22E4914F1B6008E
S31508004FF0FEF748F8ADB205F0FF022A496846FEF703
S3150800500041F8694614F1B600FEF756F81EA114F1E8
S31508005010B600FEF751F82FE0A4F8D650300001F09C
S31508005020FFFD02000B001D4914F1C000FEF72AF827
S31508005030484601F0F5FD02000B00194914F1C700B6
S31508005040FEF720F8280080B2020A92B2154914F138
S31508005050CE00FEF717F8ADB205F0FF021149684613
S31508005060FEF710F8694614F1CE00FEF725F806A1FA
S3150800507014F1CE00FEF720F818F101080CE6380006
S31508005080C0B209B0BDE8F08F527700000000204199
S31508005090CDCCCCCCCCCCFC3F00004040442E010803
S315080050A04C2E0108542E010800F8FFFF0000B03FFF
S315080050B0010080440000D03F00FCFFFF7CB50020C3
S315080050C00500012D2CDA00200400200003009BB205
S315080050D001AA0521822001F070F90600322001F0AC
S315080050E092FAF6B2002E19D1642001F06DFA060084
S315080050F0F6B2002E12D1022201A9822001F044FA4A
S315080051000600322001F07FFAF6B2002E06D164209E
S3150800511001F05AFA0600F6B2002E01D06D1CD0E74F
S31508005120012D02DB3000C0B222E09DF804001028F1
S3150800513005D19DF80500622801D1002018E032202B
S3150800514001F061FA0220040010208DF804006220A4
S315080051508DF805004FF4FA700090200003009BB20A
S3150800516001AA0521822001F05CF906003000C0B2D0
S3150800517076BD2DE9F04184B0040000200600002029
S315080051800600012E26DA00200500280003009BB23F
S315080051906A460121822001F010F90700FFB2002FAC
S315080051A016D1642001F010FA0700FFB2002F0FD1C4
S315080051B002226946822001F0E7F90700FFB2002FB4
S315080051C006D1642001F000FA0700FFB2002F01D0D3
S315080051D0761CD6E7012E02DB3800C0B23CE0FFB2EF
S315080051E0002F37D19DF80020D54914F10800FDF7A6
S315080051F049FF9DF80120D24901A8FDF743FF01A9FF
S3150800520014F10800FDF758FF8DA114F10800FDF709
S3150800521053FF9DF800004FF480719DF8012001FBB3
S31508005220002005F065F8C74AC74B04F0F5FD0022D3
S31508005230C64B04F0F1FD03F091FB8046404601F0B1
S31508005240EFFC02000B00C2492000FDF71BFF3800E7
S31508005250C0B201E03800C0B204B0BDE8F0812DE963
S31508005260F04184B004000020060000200600012E4C
S3150800527026DA00200500280003009BB26A460421AE
S31508005280822001F09AF80700FFB2002F16D1642099
S3150800529001F09AF90700FFB2002F0FD102226946E2
S315080052A0822001F071F90700FFB2002F06D16420B1
S315080052B001F08AF90700FFB2002F01D0761CD6E765
S315080052C0012E02DB3800C0B23CE0FFB2002F37D116
S315080052D09DF800209A4914F10900FDF7D3FE9DF8C0
S315080052E00120974901A8FDF7CDFE01A914F109008F
S315080052F0FDF7E2FE52A114F10900FDF7DDFE9DF867
S3150800530000004FF480719DF8012001FB002004F095
S31508005310EFFF904A904B04F07FFD00228B4B04F080
S315080053207BFD03F01BFB8046404601F079FC02003A
S315080053300B008A492000FDF7A5FE3800C0B201E03F
S315080053403800C0B204B0BDE8F0812DE9F04184B060
S3150800535004000020060000200600012E26DA0020A0
S315080053600500280003009BB26A460321822001F04B
S3150800537024F80700FFB2002F16D1642001F024F9A3
S315080053800700FFB2002F0FD102226946822001F0E2
S31508005390FBF80700FFB2002F06D1642001F014F9CC
S315080053A00700FFB2002F01D0761CD6E7012E02DBDC
S315080053B03800C0B240E0FFB2002F3BD19DF8002074
S315080053C05F4914F10900FDF75DFE9DF801205C496F
S315080053D001A8FDF757FE01A914F10900FDF76CFEB7
S315080053E017A114F10900FDF767FE9DF800004FF4B8
S315080053F080719DF8012001FB002004F079FF584ACE
S31508005400584B04F009FD0022574B04F005FD002215
S315080054104E4B04F001FD03F0A1FA8046404601F028
S31508005420FFFB02000B0051492000FDF72BFE380058
S31508005430C0B201E03800C0B204B0BDE8F081000097
S31508005440527700002DE9F04184B0040000200600E0
S3150800545000200600012E26DA002005002800030099
S315080054609BB26A460221822000F0A7FF0700FFB21E
S31508005470002F16D1642001F0A7F80700FFB2002F0D
S315080054800FD102226946822001F07EF80700FFB29A
S31508005490002F06D1642001F097F80700FFB2002F0D
S315080054A001D0761CD6E7012E02DB3800C0B23FE0F9
S315080054B0FFB2002F3AD19DF80020214914F10800C7
S315080054C0FDF7E0FD9DF801201D4901A8FDF7DAFD6D
S315080054D001A914F10800FDF7EFFD17A114F1080062
S315080054E0FDF7EAFD15A101A8FDF7E6FD9DF8000008
