S02E0000526F616420426F61726420526576204D2E3520424153454C494E4520446563203920323031362E737265637A
S3150800000050110020098201084D8601085186010811
S3150800001055860108598601085D860108000000001A
S31508000020000000000000000000000000175A010848
S315080000306186010800000000C5590108595B0108DE
S31508000040059B000865860108698601086D86010812
S315080000507186010875860108798601087D8601087A
S31508000060818601088586010889860108615B010881
S315080000708D860108918601089586010899860108EA
S315080000809D860108A1860108A5860108A98601089A
S315080000906B5B0108AD860108B1860108B5860108C3
S315080000A0B9860108BD860108C1860108C58601080A
S315080000B0A75B0108B15B0108755B0108935B010842
S315080000C09D5B0108C9860108CD860108D18601080D
S315080000D0D5860108D9860108895B01087F5B010876
S315080000E0DD860108E1860108E58601085D46000807
S315080000F0E986010800000000ED860108F18601087E
S31508000100F5860108F9860108FD86010801870108B8
S3150800011005870108098701080D8701080000000006
S31508000120118701082DE9F04FADF5806D95B00400F3
S31508000130200003F01FF80600DFF8900D007800286D
S315080001401ED020781B2815D10020DFF8801D0870E6
S31508000150DFF87C1D14A803F037F814A9002003F073
S315080001600BF90500EDB2002D02F017872800C0B282
S3150800017002F015BF2100012003F02EFD02F00DBF8D
S31508000180207830282ED0312839D032285BD0332831
S315080001907DD0342800F09F80352800F0C0803628AE
S315080001A000F00E81412800F01681422800F03582C1
S315080001B0432800F0A584442800F01A86452800F054
S315080001C04287462800F04687472800F05587482882
S315080001D000F0BE87502801F04982542801F0648255
S315080001E002F057BE03F07DFF0500EDB2002D04D1E5
S315080001F0DFF8B81D14A802F0E7FF02F04EBEA3A868
S3150800020003F0C1FF0500DFF8A81D14A802F0DCFF03
S3150800021014A9002003F0B0F80500EDB2002D03D0B4
S315080002202800C0B202F0BBBEDFF8881D14A804F08F
S315080002303BF8A3A914A804F051F8C4A114A804F023
S315080002404DF802F02ABEA3A803F0B9FF0500DFF8AF
S31508000250681D14A802F0B8FF14A9002003F08CF852
S315080002600500EDB2002D03D02800C0B202F097BEFB
S31508000270DFF8F01D14A804F017F8A3A914A804F0D1
S315080002802DF8B2A114A804F029F802F006BEA3A816
S3150800029003F0B3FF0500DFF8D01D14A802F094FFA1
S315080002A014A9002003F068F80500EDB2002D03D06C
S315080002B02800C0B202F073BEDFF8B01D14A803F020
S315080002C0F3FFA3A914A804F009F8A0A114A804F040
S315080002D005F802F0E2BDA3A803F0ADFF0500DFF8BC
S315080002E0901D14A802F070FF14A9002003F044F82A
S315080002F00500EDB2002D03D02800C0B202F04FBEB3
S31508000300DFF8701D14A803F0CFFFA3A914A803F003
S31508000310E5FF8EA114A803F0E1FF02F0BEBD03F0CD
S31508000320ADFE4690DFF8EC1D14A802F04DFFA3A819
S3150800033003F029FF050014A9002003F01DF80500A5
S31508000340EDB2002D03D02800C0B202F028BE00206E
S315080003508046ADA114A803F0A7FF00200700802F50
S3150800036027DA4698C257DFF8B01D0CA803F09CFFA1
S315080003700CA914A803F0B2FF18F10108B8F1100F80
S3150800038015DB72A114A803F0A9FF0020804614A962
S31508000390002002F0F1FF0500EDB2002D03D0280081
S315080003A0C0B202F0FCBD98A114A803F07DFF7F1C23
S315080003B0D5E7DFF8681D14A803F076FF02F06DBDD7
S315080003C00020050003F055FFDFF8581D14A802F0B9
S315080003D0FBFE02F062BDF6B2012E00F01C816078C9
S315080003E036282BD0382800F09980392800F0F78075
S315080003F0492840F00B8103F07FFF0500EDB2002D80
S3150800040005D1DFF8241D14A802F0DEFE15E0DFF89A
S315080004101C1D14A802F0D8FE8DF83C5014A9002023
S3150800042002F0AAFF0500EDB2002D03D02800C0B2E5
S3150800043002F0B5BD9DF83C000500ECE0ACA803F061
S31508000440CEFF0500EDB2002D04D10DF5876003F04F
S315080004507DFF0500EDB2002D49D1DFF8041E14A872
S3150800046002F0B2FE14A9002002F086FF0500EDB2E4
S31508000470002D03D02800C0B202F091BDDFF8E41DBC
S3150800048014A803F011FF14A9002002F075FF050057
S31508000490EDB2002D03D02800C0B202F080BD0DF5E4
S315080004A08763ACAADFF8C01D14A803F0FDFE14A9E3
S315080004B0002002F061FF0500EDB2002D03D02800F0
S315080004C0C0B202F06CBDDFF8F81D14A803F0ECFE0C
S315080004D0AFA914A803F002FFB29ADFF8E81D0CA82A
S315080004E003F0E2FE0CA914A803F0F8FE15E0DFF805
S315080004F0D81D14A802F068FE8DF83C5014A90020F7
S3150800050002F03AFF0500EDB2002D03D02800C0B274
S3150800051002F045BD9DF83C0005007CE03CA803F0D0
S31508000520A2FF0500EDB2002D29D1DFF8A01D14A801
S3150800053002F04AFE14A9002002F01EFF0500EDB2E3
S31508000540002D05D02800C0B202F029BD0D0A000012
S31508000550DFF8EC1D14A803F0A7FE0DF1FE0114A8A0
S3150800056003F0BCFECCA114A803F0B8FE14A9002021
S3150800057002F002FF0500EDB2002D01D104E04AE0C9
S315080005802800C0B202F00BBDBDF80621DFF8F81D41
S3150800059014A803F089FE14A9002002F0EDFE050058
S315080005A0EDB2002D03D02800C0B202F0F8BCDFF887
S315080005B0DC1D14A803F078FE3CA914A803F08EFEEF
S315080005C0DFF8CC1D14A803F089FE0DF1F70114A875
S315080005D003F084FEB0A114A803F080FE1BE003F02C
S315080005E0A1FF0500EDB2002D05D1DFF8F01D14A816
S315080005F002F0EAFD06E0DFF8E81D14A802F0E4FDC3
S315080006000020050007E000BF00000000DFF8D41D49
S3150800061014A802F0D9FD02F040BCF6B2012E40F053
S315080006202681052005F0E0F800280BD055A806F02D
S315080006309FFC0500EDB2002D17D1C5A806F012F9EA
S31508000640050012E0062005F0CFF800280BD055A8C3
S3150800065005F0A4FD0500EDB2002D06D1C5A805F0EC
S3150800066032FA050001E001200500EDB2002D40F048
S31508000670FC80DFF8D81D14A802F0A6FD14A90020F6
S3150800068002F07AFE0500EDB2002D03D02800C0B2B4
S3150800069002F085BC00200700092F80F2D380002FC6
S315080006A00FD0022F35D020D3042F5AD045D3062F8A
S315080006B000F07F8069D3082F00F0A380C0F08D80FA
S315080006C0B2E0BDF86A010390C6A8C01C029056A8FD
S315080006D0C01C0190C5A8009055AB0DF5B172DFF8A6
S315080006E0FC1D14A803F0E0FD9EE0BDF8820103900E
S315080006F0CCA8C01C02905CA8C01C0190CBA8009096
S315080007005BAB0DF5BD72DFF8D81D14A803F0CCFD60
S315080007108AE0BDF89A010390D2A8C01C029062A88C
S31508000720C01C0190D1A8009061AB0DF5C972DFF825
S31508000730B01D14A803F0B8FD76E0BDF8B201039029
S31508000740D8A8C01C029068A8C01C0190D7A8009021
S3150800075067AB0DF5D572DFF8881D14A803F0A4FD64
S3150800076062E0BDF8CA010390DEA8C01C02906EA81C
S31508000770C01C0190DDA800906DAB0DF5E172DFF8A5
S31508000780601D14A803F090FD4EE0BDF8E201039049
S31508000790E4A8C01C029074A8C01C0190E3A80090AD
S315080007A073AB0DF5ED72DFF8381D14A803F07CFD68
S315080007B03AE0BDF8FA010390EAA8C01C02907AA8AC
S315080007C0C01C0190E9A8009079AB0DF5F972DFF825
S315080007D0101D14A803F068FD26E0BDF81202039068
S315080007E0F0A8C01C029080A8C01C0190EFA8009039
S315080007F07FAB82AA921CDFF8E81C14A803F054FD0C
S3150800080012E0BDF82A020390F6A8C01C029086A83A
S31508000810C01C0190F5A8009085AB88AA921CDFF849
S31508000820C01C14A803F040FD14A9002002F0A4FD82
S315080008300500EDB2002D03D02800C0B202F0AFBB10
S315080008407F1C29E7DFF8C41D14A803F02DFD44A971
S3150800085014A803F043FD10A114A803F03FFDDFF828
S31508000860F41D14A803F020FD48E102F016BB6078D9
S31508000870302813D0312800F03681492840F03E81CF
S3150800088005F03AFF0500EDB2002D04D1DFF8C81DCA
S3150800089014A802F099FC31E10D0A0000052004F0C5
S315080008A0A3FF00280BD055A806F062FB0500EDB2A1
S315080008B0002D17D1C5A805F0D5FF050012E00620C2
S315080008C004F092FF00280BD055A805F067FC050038
S315080008D0EDB2002D06D1C5A805F0F5F8050001E032
S315080008E001200500EDB2002D40F0FC80DFF85C1B0E
S315080008F014A802F069FC14A9002002F03DFD0500C9
S31508000900EDB2002D03D02800C0B202F048BB00208B
S315080009100700092F80F2D380002F0FD0022F35D081
S3150800092020D3042F5AD045D3062F00F07F8069D3F1
S31508000930082F00F0A380C0F08D80B2E0BDF86A01F0
S315080009400390C6A8C01C029056A8C01C0190C5A852
S31508000950009055AB0DF5B172DFF8801B14A803F0B3
S31508000960A3FC9EE0BDF882010390CCA8C01C0290AF
S315080009705CA8C01C0190CBA800905BAB0DF5BD72BE
S31508000980DFF85C1B14A803F08FFC8AE0BDF89A0117
S315080009900390D2A8C01C029062A8C01C0190D1A8DE
S315080009A0009061AB0DF5C972DFF8341B14A803F08B
S315080009B07BFC76E0BDF8B2010390D8A8C01C029073
S315080009C068A8C01C0190D7A8009067AB0DF5D57232
S315080009D0DFF80C1B14A803F067FC62E0BDF8CA0137
S315080009E00390DEA8C01C02906EA8C01C0190DDA86A
S315080009F000906DAB0DF5E172DFF8E41A14A803F068
S31508000A0053FC4EE0BDF8E2010390E4A8C01C029036
S31508000A1074A8C01C0190E3A8009073AB0DF5ED72A5
S31508000A20DFF8BC1A14A803F03FFC3AE0BDF8FA0157
S31508000A300390EAA8C01C02907AA8C01C0190E9A8F5
S31508000A40009079AB0DF5F972DFF8941A14A803F043
S31508000A502BFC26E0BDF812020390F0A8C01C0290F9
S31508000A6080A8C01C0190EFA800907FAB82AA921CB8
S31508000A70DFF86C1A14A803F017FC12E0BDF82A0276
S31508000A800390F6A8C01C029086A8C01C0190F5A881
S31508000A90009085AB88AA921CDFF8441A14A803F0C4
S31508000AA003FC14A9002002F067FC0500EDB2002D36
S31508000AB003D02800C0B202F072BA7F1C29E7DFF81B
S31508000AC04C1B14A803F0F0FB44A914A803F006FC79
S31508000AD0C6A114A803F002FCDFF8781B14A803F0DB
S31508000AE0E3FB0BE00AE005F072FE0500EDB2002D0F
S31508000AF004D1DFF8B01D14A802F066FB02F0CDB9E8
S31508000B00F6B2012E42D142A807F0A7F80500EDB2C9
S31508000B10002D03D18BA807F027F80500EDB2002DAC
S31508000B2026D1DFF8841D14A802F04EFB14A9002074
S31508000B3002F022FC0500EDB2002D03D02800C0B259
S31508000B4002F02DBADFF8CC1D14A803F0ADFB44A9BA
S31508000B5014A803F0C3FBA5A114A803F0BFFB14A9AE
S31508000B60002002F009FC0500EDB2002D02D105E0D7
S31508000B7002F093B92800C0B202F011BA8BAB42AAB0
S31508000B80DFF8941D14A803F08FFB2CE16078302859
S31508000B9016D0312856D0322800F09980332800F034
S31508000BA0DB80492840F01A8106F0AEFC0500EDB25C
S31508000BB0002D04D1DFF8D01D14A802F005FB12E1C0
S31508000BC042A806F078FD0500EDB2002D03D18BA8EA
S31508000BD006F0F5FC0500EDB2002D26D1DFF86C18FD
S31508000BE014A802F0F1FA14A9002002F0C5FB0500CA
S31508000BF0EDB2002D03D02800C0B202F0D0B9DFF85C
S31508000C000C1A14A803F050FB44A914A803F066FBB9
S31508000C1076A114A803F062FB14A9002002F0ACFB2D
S31508000C200500EDB2002D01D104E0DCE02800C0B2D9
S31508000C3002F0B5B98BAB42AADFF8501D14A803F031
S31508000C4033FBD0E0C1A806F029FE0500EDB2002D61
S31508000C5004D10DF5856006F0A5FD0500EDB2002D61
S31508000C6027D1DFF82C1D14A802F0AEFA14A900202B
S31508000C7002F082FB0500EDB2002D03D02800C0B2B9
S31508000C8002F08DB9DFF80C1D14A803F00DFBC3A9FB
S31508000C90491C14A803F022FB54A114A803F01EFB58
S31508000CA014A9002002F068FB0500EDB2002D01D161
S31508000CB004E098E02800C0B202F071B90DF585632A
S31508000CC0C1AADFF8D01D14A803F0EEFA8BE0BDA880
S31508000CD006F0D5FE0500EDB2002D04D10DF58360B2
S31508000CE006F053FE0500EDB2002D27D1DFF8A81D4A
S31508000CF014A802F069FA14A9002002F03DFB0500C9
S31508000D00EDB2002D03D02800C0B202F048B9DFF8D2
S31508000D108C1D14A803F0C8FABFA9491C14A803F02F
S31508000D20DDFA32A114A803F0D9FA14A9002002F0BA
S31508000D3023FB0500EDB2002D01D104E053E02800A5
S31508000D40C0B202F02CB90DF58363BDAADFF8B01D59
S31508000D5014A803F0A9FA46E042A806F07EFF0500AB
S31508000D60EDB2002D03D18BA806F0FEFE0500EDB20C
S31508000D70002D26D1DFF8301B14A802F025FA14A995
S31508000D80002002F0F9FA0500EDB2002D03D0280084
S31508000D90C0B202F004B9DFF87C1B14A803F084FA89
S31508000DA044A914A803F09AFA10A114A803F096FA15
S31508000DB014A9002002F0E0FA0500EDB2002D01D1D9
S31508000DC004E010E02800C0B202F0E9B88BAB42AAF2
S31508000DD0DFF8441B14A803F067FA04E0DFF80416EA
S31508000DE014A802F0F1F902F058B800BF0D0A000085
S31508000DF0F6B2012E55D150A807F096F90500EDB2C6
S31508000E00002D03D1FBA807F00CF80500EDB2002D64
S31508000E1026D1DFF8941D14A802F0D6F914A90020EB
S31508000E2002F0AAFA0500EDB2002D03D02800C0B2E0
S31508000E3002F0B5B8DFF8741D14A803F035FA52A904
S31508000E4014A803F04BFAB6A114A803F047FA14A99C
S31508000E50002002F091FA0500EDB2002D02D105E05E
S31508000E6002F01BB82800C0B202F099B8BDF85021AC
S31508000E70DFF83C1D14A803F017FA14A9002002F0A5
S31508000E807BFA0500EDB2002D03D02800C0B202F0AF
S31508000E9086B8FBAB50AADFF8E01D14A803F004FAE5
S31508000EA0CFE06078302815D0312867D0492840F03F
S31508000EB0C88006F063FF0500EDB2002D04D1DFF807
S31508000EC0E81D14A802F080F9BBE000BF81360020B7
S31508000ED0C061010850A807F027F90500EDB2002DFA
S31508000EE026D1DFF8C41C14A802F06EF914A9002054
S31508000EF002F042FA0500EDB2002D03D02800C0B278
S31508000F0002F04DB8DFF8A41C14A803F0CDF952A9D5
S31508000F1014A803F0E3F982A114A803F0DFF914A9D1
S31508000F20002002F029FA0500EDB2002D01D104E0F7
S31508000F3087E02800C0B202F032B8BDF85021DFF8C9
S31508000F40701C14A803F0B0F914A9002002F014FAD2
S31508000F500500EDB2002D03D02800C0B202F01FB87C
S31508000F60DFF89C1D14A803F09FF950A914A803F0F4
S31508000F70B5F96BA114A803F0B1F962E03CA807F033
S31508000F80D2FB0500EDB2002D2ED1DFF81C1C14A8EB
S31508000F9002F01AF914A9002002F0EEF90500EDB2E4
S31508000FA0002D0BD02800C0B201F0F9BFC45D0108BE
S31508000FB01C6801084874010844680108E04914A837
S31508000FC003F072F90DF1FE0114A803F087F954A194
S31508000FD014A803F083F914A9002002F0CDF905003E
S31508000FE0EDB2002D01D104E02BE02800C0B201F0DB
S31508000FF0D6BFBDF80621DFF8901314A803F054F9FC
S3150800100014A9002002F0B8F90500EDB2002D03D0AE
S315080010102800C0B201F0C3BFDC4914A803F044F9A4
S315080010203CA914A803F05AF9D94914A803F056F9AB
S315080010300DF1F70114A803F051F939A114A803F02A
S315080010404DF901F02ABFDFF8AC1D14A802F0BCF870
S3150800105001F023BFDFF8DC1D14A802F0B5F801F093
S315080010601CBF00BF687401086C6801088874010811
S3150800107094680108A87401083CA807F089FD0500D2
S31508001080EDB2002D04D10DF5806007F0D5FC050002
S31508001090EDB2002D26D1DFF8A01D14A802F094F8B1
S315080010A014A9002002F068F90500EDB2002D03D05E
S315080010B02800C0B201F073BFA14914A803F0F4F8E0
S315080010C00DF1FE0114A803F009F915A114A803F0FF
S315080010D005F914A9002002F04FF90500EDB2002D1C
S315080010E002D105E001F0D9BE2800C0B201F057BF11
S315080010F0BDF80621A44914A803F0D6F814A90020BF
S3150800110002F03AF90500EDB2002D11D02800C0B260
S3150800111001F045BFBC680108408501083080010818
S315080011200D0A0000946D0108E46801080C690108BD
S31508001130FFA80B3001900DF1F70000900DF58063C4
S315080011403CAADFF8AC1D14A803F0AEF801F0A5BE62
S31508001150F6B2012E63D1B3A807F0CAFE0500EDB2B8
S31508001160002D5AD1DFF8C81D14A802F02DF814A9CD
S31508001170002002F001F90500EDB2002D03D0280089
S31508001180C0B201F00CBFDFF8AC1D14A803F08CF850
S3150800119014A9002002F0F0F80500EDB2002D03D0E6
S315080011A02800C0B201F0FBBEDFF8C81D14A802F083
S315080011B00BF8B9A914A803F091F8CAA114A803F06A
S315080011C08DF814A9002002F0D7F80500EDB2002D1D
S315080011D003D02800C0B201F0E2BEDFF89C1D14A8B7
S315080011E001F0F2FFB3A914A803F078F8DFF88C1D14
S315080011F014A803F073F8B5A914A803F06FF8DFF87C
S31508001200801D14A803F06AF8B7A914A803F066F8B5
S31508001210B4A114A803F062F826E201F03EBE607895
S31508001220302800F06181312800F0C181322800F0B1
S31508001230E081332800F0ED81492840F01082F6B2AB
S31508001240022E13D107F052FD0500EDB2002D40F035
S315080012504381DFF8A41D14A801F0B6FF3CE100BFE6
S3150800126034690108F861010844800108F6B21D2EA8
S3150800127005D0DFF8881D14A801F0A6FF2CE1A07898
S315080012803A2817D160792E2814D1207A2E2811D120
S31508001290E07A2E280ED1A07B2E280BD1607C2E2832
S315080012A008D1207D2E2805D1E07D2E2802D1A07EEA
S315080012B02E280DD0DFF8841D14A801F085FF0BE158
S315080012C0A88101085C8301085C6901088469010832
S315080012D00020359000200700092F26DA032000FB9E
S315080012E007F0204490F903008DF83000032000FB36
S315080012F007F0204490F904008DF8310000208DF89D
S3150800130032000CA801F064FE002807D1DFF8A41DFE
S3150800131014A801F059FF0120359006E00CA801F049
S315080013207CFE8FA9C8557F1CD6E79DF83C02082885
S3150800133008DBDFF8C01D14A801F046FF94E100BFE2
S31508001340588001089DF83C0210F007008DF8CD0082
S315080013509DF83D02022805DBDFF89C1D14A801F064
S3150800136033FF81E19DF83D0210F00100C0B2C000D4
S315080013708DF8CC009DF83E0202280BDBDFF8B81D7D
S3150800138014A801F021FF6FE1C8740108B8810108AB
S31508001390C88101089DF83E0210F00100C0B20001A4
S315080013A08DF8CB009DF83F02022805DBDFF88C1D7F
S315080013B014A801F009FF57E19DF83F0210F001005B
S315080013C0C0B240018DF8CA009DF8400240280BDBE8
S315080013D0DFF8A81D14A801F0F7FE45E1AC6901087D
S315080013E0D4690108E87401089DF8400210F03F002E
S315080013F08DF8C9009DF84102022805DBDFF8BC1DFF
S3150800140014A801F0E1FE2FE19DF8410210F0010059
S31508001410802148438DF8C8009DF84202042805DB60
S31508001420DFF89C1D14A801F0CFFE1DE19DF84202CD
S3150800143010F003008DF83F009DF84302042807DBEF
S31508001440DFF8BC1D14A801F0BFFE0DE1B86D010858
S315080014509DF8430210F00300C0B280008DF83E00EC
S315080014609DF84402022805DBDFF8981D14A801F050
S31508001470ABFEF9E09DF8440210F00100C0B200018D
S315080014808DF83D009DF8CD009DF8CC1008189DF804
S31508001490CB1008189DF8CA1008188DF8E8009DF8B2
S315080014A0C9009DF8C81008188DF8E9009DF83F0096
S315080014B09DF83E1008189DF83D1008188DF8EA00AA
S315080014C03AA807F03BFC0500EDB2002D04D1DFF881
S315080014D0AC1D14A801F078FEC6E000BF146401082C
S315080014E0446401080D0A0000B3A807F001FD0500D1
S315080014F0EDB2002D5AD1DFF8381A14A801F064FEAF
S3150800150014A9002001F038FF0500EDB2002D03D024
S315080015102800C0B201F043BDDFF8181A14A802F07B
S31508001520C3FE14A9002001F027FF0500EDB2002D27
S3150800153003D02800C0B201F032BDDFF8381A14A86B
S3150800154001F042FEB9A914A802F0C8FED4A114A855
S3150800155002F0C4FE14A9002001F00EFF0500EDB24A
S31508001560002D03D02800C0B201F019BDDFF8081A13
S3150800157014A801F029FEB3A914A802F0AFFEDFF8FB
S31508001580FC1914A802F0AAFEB5A914A802F0A6FE32
S31508001590DFF8EC1914A802F0A1FEB7A914A802F006
S315080015A09DFEBFA114A802F099FE5DE05CE04CA880
S315080015B007F057FC0500EDB2002D19D1DFF86C1DB8
S315080015C014A801F001FE9DF83021DFF8641D0CA86F
S315080015D002F06AFE0CA914A802F080FE4CA9491C68
S315080015E014A802F07BFEAEA114A802F077FE3BE039
S315080015F03AE007F0CDFB0500EDB2002D08D1DFF883
S31508001600341D14A801F0E0FD2EE000BF9C78010807
S315080016102AE04EA807F0DEFB0500EDB2002D1DD12D
S31508001620DFF8141D14A801F0CFFD9DF83821DFF866
S31508001630001D0CA802F038FE0CA914A802F04EFEF4
S315080016404EA9491C14A802F049FE95A114A802F057
S3150800165045FE09E06C8001083062010804E0DFF805
S31508001660DC1C14A801F0B0FD01F017BC6078442812
S315080016700AD0552811D1042007F084FDDFF8B81DDB
S3150800168014A801F0A1FD0DE0042007F089FDDFF89C
S31508001690AC1D14A801F098FD04E0DFF8A41D14A8F9
S315080016A001F092FD01F0F9BBF6B2022E06DADFF878
S315080016B0941D14A801F088FD01F0EABB6078432860
S315080016C000F07882442801F0AA8149280DD04B28D9
S315080016D001F0C4814D2801F0BA83522801F0AB818C
S315080016E0552801F0838301F0CFBBF6B2092E05DA3F
S315080016F0DFF8D41D14A801F067FD52E2A07851283E
S3150800170000F0BB81C0F04882532802D0C0F0A38005
S3150800171042E2E0783A2802D1A0792E2805D0DFF8EF
S31508001720AC1D14A801F050FD94E094F904008DF85E
S31508001730300094F905008DF8310000208DF832004C
S315080017400CA801F045FC002805D1DFF8841D14A873
S3150800175001F03AFD7EE00CA801F05FFC139094F9C5
S3150800176007008DF8300094F908008DF83100002044
S315080017708DF832000CA801F02BFC002805D1DFF803
S31508001780D41D14A801F020FD64E00CA801F045FC66
S3150800179034903498002806D1139ADFF8BC1D14A893
S315080017A002F082FD2DE000203590002007003498D5
S315080017B0874226DA032000FB07F0204490F90A0046
S315080017C08DF83000032000FB07F0204490F90B0049
S315080017D08DF8310000208DF832000CA801F0F8FBD6
S315080017E0002807D1DFF8E81C14A801F0EDFC012059
S315080017F0359006E00CA801F010FC8FA9C8557F1C8F
S31508001800D5E73598002805D1139ADFF8D01D14A816
S3150800181002F04AFD00200700349887420BDA8FA8A9
S31508001820C25DB8A10CA802F03FFD0CA914A802F0ED
S3150800183055FD7F1CF0E71AA114A802F04FFD4FF4DE
S31508001840FA733498020092B28FA9139880B207F0FF
S31508001850C5FD0500A5E1E0783A2805D1A0792E282E
S3150800186002D1607A2E2805D0DFF8F41D14A801F0FD
S31508001870ABFC01E194F904008DF8300094F90500F9
S315080018808DF8310000208DF832000CA801F0A0FB7D
S3150800189000280BD1DFF8CC1D14A801F095FCEBE06D
S315080018A00D0A000094650108FC6901080CA801F0FE
S315080018B0B4FB139094F907008DF8300094F90800EA
S315080018C08DF8310000208DF832000CA801F080FB5D
S315080018D0002805D1DFF8901D14A801F075FCCBE0AF
S315080018E00CA801F09AFB349094F90A008DF83000A0
S315080018F094F90B008DF8310000208DF832000CA801
S3150800190001F066FB002809D1DFF8E01D14A801F0F4
S315080019105BFCB1E0B47801084C7701080CA801F02B
S315080019207CFB39903498002806D1139ADFF8C01D3D
S3150800193014A802F0B9FC36E0002035900020070014
S31508001940349887422FDA032000FB07F0204490F9E9
S315080019500D008DF83000032000FB07F0204490F9B5
S315080019600E008DF8310000208DF832000CA801F029
S315080019702FFB002810D1DFF8FC1D14A801F024FC69
S31508001980012035900FE000BFC0650108687701089F
S31508001990DC6D0108808001080CA801F03EFB8FA9C8
S315080019A0C8557F1CCCE73598002805D1139ADFF86F
S315080019B0C81D14A802F078FC002007003498874256
S315080019C00BDA8FA8C25D4FA10CA802F06DFC0CA91A
S315080019D014A802F083FC7F1CF0E7C8A114A802F043
S315080019E07DFC4FF4FA733498020092B28FA91398CB
S315080019F080B207F0F3FC0500EDB2002D0ED14FF4CE
S31508001A00FA733998020092B28FA9139880B207F038
S31508001A1030FD0500EDB2002D05D100E0C1E014202F
S31508001A2007F062FD0500EDB2002D25D114A90020AE
S31508001A3001F0A2FC0500EDB2002D03D02800C0B2CB
S31508001A4001F0ADBADFF8F41D14A802F02DFC002051
S31508001A500700399887420BDA8FA8C25D29A10CA81E
S31508001A6002F022FC0CA914A802F038FC7F1CF0E74F
S31508001A70A2A114A802F032FC93E0E0783A2802D139
S31508001A80A0792E280CD0DFF8B81D14A801F09CFB0D
S31508001A9081E000BFCC780108087501089480010828
S31508001AA094F904008DF8300094F905008DF831009A
S31508001AB000208DF832000CA801F08AFA002805D11A
S31508001AC0DFF8001E14A801F07FFB64E00CA801F003
S31508001AD0A4FA139094F907008DF8300094F90800D9
S31508001AE08DF8310000208DF832000CA801F070FA4C
S31508001AF0002809D1DFF8D01D14A801F065FB4AE0DB
S31508001B00A880010825782E000CA801F086FA3990DD
S31508001B10139ADFF8DC1B14A802F0C6FB4FF4FA731D
S31508001B203998020092B28FA9139880B207F0A1FCE7
S31508001B300500EDB2002D07D1142007F0D5FC0500ED
S31508001B40EDB2002D27D100E02BE014A9002001F00A
S31508001B5013FC0500EDB2002D03D02800C0B201F039
S31508001B601EBADFF8D81C14A802F09EFB0020070056
S31508001B70399887420BDA8FA8C25DCDA10CA802F06E
S31508001B8093FB0CA914A802F0A9FB7F1CF0E75BA144
S31508001B9014A802F0A3FB04E0DFF8A01714A801F0CC
S31508001BA013FB01F075B900BFE4780108FC78010859
S31508001BB0006E010800200500F6B2022E40F07D8076
S31508001BC0052003F011FE002804D055A804F04AFEAB
S31508001BD005000BE0062003F007FE002804D055A8F0
S31508001BE003F071FF050001E001200500EDB2002DAC
S31508001BF05CD13CA806F020FF0500EDB2002D4BD1C4
S31508001C0050A806F00EF90500EDB2002D3DD1ACA89E
S31508001C1002F09CFB0500EDB2002D2FD1ACA809906F
S31508001C2050A808903CA8079055A8069085A8059046
S31508001C307FA8049079A8039073A802906DA80190D4
S31508001C4067A8009061AB5BAADFF8FC1D14A802F038
S31508001C502BFB14A9002001F08FFB0500EDB2002D27
S31508001C6003D02800C0B201F09AB9DFF8E01D14A825
S31508001C7002F01AFB00F0D2BE14790108DFF8D01D75
S31508001C8014A802F011FB00F0C9BEDFF8C81D14A89D
S31508001C9002F00AFB00F0C2BEDFF8BC1D14A802F071
S31508001CA003FB00F0BBBE00BFEC650108DFF8FC1DB6
S31508001CB014A802F0F9FA00F0B1BEA078492800F09D
S31508001CC09F86522800F00D83532804D0542800F02C
S31508001CD06F8600F0A3BEE0783A2805D0DFF8D01D5D
S31508001CE014A801F071FAFBE2F6B2052E0ADADFF85B
S31508001CF0C41D14A801F068FAF2E200BF0D0A00003C
S31508001D00D8810108201D1290129947A801F05CFAA3
S31508001D1000200B9000200A900AA800900BAB36AA68
S31508001D20DFF8001E47A807F0C7FC032840F0D38257
S31508001D300A9807F0D3FCCDE902010B9807F0CEFC10
S31508001D40CDE9000136AADFF8E01D14A802F0ACFAC6
S31508001D500422DFF8D81D36A807F0E7FC002814D1BE
S31508001D600B9A0A99002007F05DFD0500EDB2002DDB
S31508001D7005D1DFF8E01D14A802F096FAA8E2DFF80C
S31508001D80D81D14A802F090FAA2E20422DFF8CC1DAE
S31508001D9036A807F0CAFC002814D10B9A0A99012024
S31508001DA007F040FD0500EDB2002D05D1DFF8B01DA6
S31508001DB014A802F079FA8BE2DFF89C1D14A802F049
S31508001DC073FA85E20422DFF89C1D36A807F0ADFCFD
S31508001DD0002817D10B9A0A99022007F023FD05005F
S31508001DE0EDB2002D08D1DFF8801D14A802F05CFAC8
S31508001DF06EE200BF74640108DFF85C1D14A802F0E7
S31508001E0053FA65E20422DFF8F41D36A807F08DFCC4
S31508001E10002819D10B9A0A99032007F003FD05003B
S31508001E20EDB2002D0AD1DFF8D81D14A802F03CFA4D
S31508001E304EE200BF2C790108BC800108DFF8181DA6
S31508001E4014A802F031FA43E20422DFF8B81D36A8D6
S31508001E5007F06BFC002814D10B9A0A99042007F0A6
S31508001E60E1FC0500EDB2002D05D1DFF89C1D14A894
S31508001E7002F01AFA2CE2DFF8E01C14A802F014FAB1
S31508001E8026E20422DFF8F01D36A807F04EFC0028EB
S31508001E9016D10B9A0A99052007F0C4FC0500EDB285
S31508001EA0002D07D1DFF8D41D14A802F0FDF90FE2C2
S31508001EB025782E00DFF8A01C14A802F0F5F907E231
S31508001EC00422DFF8E01D36A807F02FFC002817D1FA
S31508001ED00B9A0A99062007F0A5FC0500EDB2002D1D
S31508001EE008D1DFF8C41D14A802F0DEF9F0E100BF3E
S31508001EF0246A0108DFF8601C14A802F0D5F9E7E1A6
S31508001F000422DFF8A81D36A807F00FFC002819D10F
S31508001F100B9A0A99072007F085FC0500EDB2002DFB
S31508001F200AD1DFF88C1D14A802F0BEF9D0E100BF73
S31508001F308477010868620108DFF81C1C14A802F0FF
S31508001F40B3F9C5E10422DFF8F41D36A807F0EDFB66
S31508001F5000281DD10B9A0A99082007F063FC050092
S31508001F60EDB2002D0ED1DFF8D81D14A802F09CF9A9
S31508001F70AEE100BFE881010868830108748301089F
S31508001F8080830108DFF8D01B14A802F08DF99FE1C1
S31508001F900422DFF8E81D36A807F0C7FB002814D18D
S31508001FA00B9A0A99092007F03DFC0500EDB2002DB1
S31508001FB005D1DFF8F01D14A802F076F988E1DFF8FC
S31508001FC0981B14A802F070F982E10422DFF8D81DE4
S31508001FD036A807F0AAFB002818D10B9A0A990A20F6
S31508001FE007F020FC0500EDB2002D09D1DFF8EC1D45
S31508001FF014A802F059F96BE1345D0108085E01087E
S31508002000DFF8541B14A802F04FF961E10422DFF847
S31508002010F41D36A807F089FB002817D10B9A0A99F0
S315080020200B2007F0FFFB0500EDB2002D08D1DFF805
S31508002030D81D14A802F038F94AE100BF7C5D0108F2
S31508002040DFF8141B14A802F02FF941E10422DFF887
S31508002050EC1D36A807F069FB002814D10B9A0A99DB
S315080020600C2007F0DFFB0500EDB2002D05D1DFF8E7
S31508002070D01D14A802F018F92AE1DFF8DC1A14A812
S3150800208002F012F924E10422DFF8E01D36A807F071
S315080020904CFB002816D10B9A0A990D2007F0C2FBB3
S315080020A00500EDB2002D07D1DFF8D41D14A802F003
S315080020B0FBF80DE1105F0108DFF89C1A14A802F07E
S315080020C0F3F805E10422DFF8BC1D36A807F02DFB5E
S315080020D0002819D10B9A0A990E2007F0A3FB0500D0
S315080020E0EDB2002D0AD1DFF8C41D14A802F0DCF801
S315080020F0EEE000BFD06001080C610108DFF8581A4D
S3150800210014A802F0D1F8E3E00422DFF8A41D36A8EB
S3150800211007F00BFB002819D10B9A0A990F2007F034
S3150800212081FB0500EDB2002D0AD1DFF8881D14A841
S3150800213002F0BAF8CCE000BF48610108A0620108C5
S31508002140DFF8141A14A802F0AFF8C1E00422DFF889
S31508002150B41D36A807F0E9FA002817D10B9A0A9990
S31508002160102007F05FFB0500EDB2002D08D1DFF85F
S31508002170AC1D14A802F098F8AAE000BF505F010849
S31508002180DFF8D41914A802F08FF8A1E00422DFF8CA
S31508002190AC1D36A807F0C9FA002819D10B9A0A9976
S315080021A0112007F03FFB0500EDB2002D0AD1DFF83C
S315080021B0901D14A802F078F88AE000BF905F010825
S315080021C0D05F0108DFF8901914A802F06DF87FE0D7
S315080021D00422DFF8A01D36A807F0A7FA002819D1AF
S315080021E00B9A0A99122007F01DFB0500EDB2002D87
S315080021F00AD1DFF8841D14A802F056F868E000BF7B
S315080022001060010850600108DFF84C1914A802F0A4
S315080022104BF85DE00422DFF8901D36A807F085FA32
S31508002220002814D10B9A0A99132007F0FBFA050027
S31508002230EDB2002D05D1DFF8741D14A802F034F8AC
S3150800224046E0DFF8141914A802F02EF840E004223C
S31508002250DFF85C1D36A807F068FA002816D10B9A35
S315080022600A99142007F0DEFA0500EDB2002D07D111
S31508002270DFF8401D14A802F017F829E04C5E0108A3
S31508002280DFF8D41814A802F00FF821E00422DFF8CA
S31508002290281D36A807F049FA002814D10B9A0A997E
S315080022A0152007F0BFFA0500EDB2002D05D1DFF8BD
S315080022B00C1D14A801F0F8FF0AE0DFF89C1814A812
S315080022C001F0F2FF04E0DFF8F81C14A801F0ECFFB7
S315080022D00020050004E0DFF8EC1C14A800F074FFE9
S315080022E09CE307F0D1FA0200DFF8DC1C14A801F021
S315080022F0DBFF14A9002001F03FF80500EDB2002D20
S3150800230003D02800C0B200F04ABEDFF8C01C14A8EB
S3150800231001F0CAFF14A9002001F02EF80500EDB25D
S31508002320002D0DD02800C0B200F039BE287501086E
S315080023304885010844630108246E0108E874010809
S3150800234000200700162F80F22D83002F33D0022F8E
S315080023507AD050D3042F00F0BD80C0F09580062FA8
S3150800236000F0FC80C0F0D680082F00F03981C0F05C
S3150800237015810A2F00F07A81C0F052810C2F00F0E7
S31508002380B981C0F093810E2F00F0F881C0F0D28198
S31508002390102F00F03382C0F01182122F00F07282E3
S315080023A0C0F05082142F00F0B182C0F08F82152F32
S315080023B000F0CC82E9E23800C0B207F054FA83464E
S315080023C03800C0B207F055FA81463800C0B207F0A7
S315080023D056FA8246584607F081F9CDE90201484681
S315080023E007F07CF9CDE900015246DFF88C1C14A8E9
S315080023F001F05AFFC9E23800C0B207F034FA834642
S315080024003800C0B207F035FA81463800C0B207F086
S3150800241036FA8246584607F061F9CDE90201484680
S3150800242007F05CF9CDE900015246DFF8501C14A804
S3150800243001F03AFFA9E200BF48750108687501086E
S3150800244018660108887501083800C0B207F00BFA4B
S3150800245083463800C0B207F00CFA81463800C0B28D
S3150800246007F00DFA8246584607F038F9CDE9020119
S31508002470484607F033F9CDE900015246DFF8001C5B
S3150800248014A801F011FF80E23800C0B207F0EBF99A
S3150800249083463800C0B207F0ECF981463800C0B26E
S315080024A007F0EDF98246584607F018F9CDE902011A
S315080024B0484607F013F9CDE900015246DFF8C41B78
S315080024C014A801F0F1FE60E24C6A0108746A01087A
S315080024D0446601083800C0B207F0C5F983463800DB
S315080024E0C0B207F0C6F981463800C0B207F0C7F98E
S315080024F08246584607F0F2F8CDE90201484607F049
S31508002500EDF8CDE900015246DFF87C1B14A801F06E
S31508002510CBFE3AE23800C0B207F0A5F98346380088
S31508002520C0B207F0A6F981463800C0B207F0A7F98D
S315080025308246584607F0D2F8CDE90201484607F028
S31508002540CDF8CDE900015246DFF8401B14A801F08A
S31508002550ABFE1AE278630108447901083800C0B274
S3150800256007F081F983463800C0B207F082F9814640
S315080025703800C0B207F083F98246584607F0AEF82D
S31508002580CDE90201484607F0A9F8CDE9000152460F
S31508002590DFF8FC1A14A801F087FEF6E13800C0B28D
S315080025A007F061F983463800C0B207F062F9814640
S315080025B03800C0B207F063F98246584607F08EF82D
S315080025C0CDE90201484607F089F8CDE900015246EF
S315080025D0DFF8C01A14A801F067FED6E1D08001081A
S315080025E03800C0B207F03FF983463800C0B207F09A
S315080025F040F981463800C0B207F041F9824658468C
S3150800260007F06CF8CDE90201484607F067F8CDE90E
S3150800261000015246DFF8801A14A801F045FEB4E11D
S315080026203800C0B207F01FF983463800C0B207F079
S3150800263020F981463800C0B207F021F9824658468B
S3150800264007F04CF8CDE90201484607F047F8CDE90E
S3150800265000015246DFF8441A14A801F025FE94E159
S315080026609C6A010870660108AC6301083800C0B2AC
S3150800267007F0F9F883463800C0B207F0FAF8814641
S315080026803800C0B207F0FBF88246584607F026F82D
S31508002690CDE90201484607F021F8CDE90001524686
S315080026A0DFF8FC1914A801F0FFFD6EE13800C0B28E
S315080026B007F0D9F883463800C0B207F0DAF8814641
S315080026C03800C0B207F0DBF88246584607F006F82D
S315080026D0CDE90201484607F001F8CDE90001524666
S315080026E0DFF8C01914A801F0DFFD4EE18461010886
S315080026F05C7901083800C0B207F0B5F8834638009F
S31508002700C0B207F0B6F881463800C0B207F0B7F88D
S315080027108246584606F0E2FFCDE90201484606F031
S31508002720DDFFCDE900015246DFF87C1914A801F057
S31508002730BBFD2AE13800C0B207F095F88346380099
S31508002740C0B207F096F881463800C0B207F097F88D
S315080027508246584606F0C2FFCDE90201484606F011
S31508002760BDFFCDE900015246DFF8401914A801F073
S315080027709BFD0AE1C46A0108E48001083800C0B27A
S3150800278007F071F883463800C0B207F072F8814640
S315080027903800C0B207F073F88246584606F09EFF26
S315080027A0CDE90201484606F099FFCDE900015246F7
S315080027B0DFF8FC1814A801F077FDE6E03800C0B28F
S315080027C007F051F883463800C0B207F052F8814640
S315080027D03800C0B207F053F88246584606F07EFF26
S315080027E0CDE90201484606F079FFCDE900015246D7
S315080027F0DFF8C01814A801F057FDC6E03800C0B2CB
S3150800280007F031F883463800C0B207F032F881463F
S315080028103800C0B207F033F88246584606F05EFF25
S31508002820CDE90201484606F059FFCDE900015246B6
S31508002830DFF8841814A801F037FDA6E08C83010898
S31508002840EC6A01083800C0B207F00DF88346380074
S31508002850C0B207F00EF881463800C0B207F00FF88C
S315080028608246584606F03AFFCDE90201484606F088
S3150800287035FFCDE900015246DFF8401814A801F0EB
S3150800288013FD82E03800C0B206F0EDFF834638003B
S31508002890C0B206F0EEFF81463800C0B206F0EFFF80
S315080028A08246584606F01AFFCDE90201484606F068
S315080028B015FFCDE900015246DFF8041814A801F007
S315080028C0F3FC62E09C660108E06301083800C0B2C8
S315080028D006F0C9FF83463800C0B206F0CAFF814633
S315080028E03800C0B206F0CBFF8246584606F0F6FE20
S315080028F0CDE90201484606F0F1FECDE9000152464F
S31508002900DFF8C01714A801F0CFFC3EE03800C0B2CB
S3150800291006F0A9FF83463800C0B206F0AAFF814632
S315080029203800C0B206F0ABFF8246584606F0D6FE1F
S31508002930CDE90201484606F0D1FECDE9000152462E
S31508002940DFF8841714A801F0AFFC1EE03800C0B207
S3150800295006F089FF83463800C0B206F08AFF814632
S315080029603800C0B206F08BFF8246584606F0B6FE1F
S31508002970CDE90201484606F0B1FECDE9000152460E
S31508002980DFF8481714A801F08FFC14A9002000F0FE
S31508002990F3FC0500EDB2002D02D02800C0B2FEE21D
S315080029A07F1CCFE4DFF8281714A801F07DFC35E07A
S315080029B0E0783A2805D0DFF81C1714A800F004FCC4
S315080029C01DE0F6B2052E05DADFF80C1714A800F09C
S315080029D0FBFB14E0201D1290129947A800F0F4FBA7
S315080029E0129806F038FF0500EDB2002D02D0280037
S315080029F0C0B2D4E2DFF8D81614A801F055FC0DE0F1
S31508002A0006F0C5FE0500EDB2002D02D02800C0B2C2
S31508002A10C5E2DFF8BC1614A801F046FC38E202F05D
S31508002A2021FFADF8CE00BDF8CE20DFF8B01614A809
S31508002A3001F03AFC2CE206F0DAFFDFF8A41614A837
S31508002A4001F032FC24E200BF146B010898830108E8
S31508002A50747901088C790108486E01080020050080
S31508002A60F6B2042E05DADFF87C1614A800F0ACFBE3
S31508002A70BBE1A078522800F06581532840F0B08168
S31508002A80E078422800F00581522805D0532858D00E
S31508002A90542800F0AA804BE120793A280CD0DFF8B8
S31508002AA0481614A800F090FB4AE000BF6C6E0108B7
S31508002AB03C6B0108906E0108F6B2062E0FDB01206A
S31508002AC0109005200700F6B2B7420ADAE05D06F074
S31508002AD0BFFF002801D1002010907F1CF3E70020DB
S31508002AE010901098002805D1DFF8001614A800F0F9
S31508002AF06BFB25E0601D1290129947A800F064FB55
S31508002B0047A806F0AAFF1190119842F21071884260
S31508002B1002DA119800280BD5DFF8D01514A800F0B2
S31508002B2053FB0DE0A4830108A47901085085010828
S31508002B30119807F02CF8DFF8B81514A801F0B4FBC3
S31508002B40FBE020793A2811D0DFF8A81514A800F080
S31508002B503BFB49E0A0770108BC77010858850108C6
S31508002B60BC79010860850108F8800108F6B2062ECE
S31508002B700FDB0120109005200700F6B2B7420ADAEB
S31508002B80E05D06F065FF002801D1002010907F1C4B
S31508002B90F3E7002010901098002805D1DFF85815A3
S31508002BA014A800F011FB1FE0601D1290129947A8A7
S31508002BB000F00AFB47A806F050FF1190119842F260
S31508002BC01071884202DA1198002805D5DFF8281511
S31508002BD014A800F0F9FA07E0119806F0F6FFDFF8F6
S31508002BE0101514A801F060FBA7E020793A280DD04B
S31508002BF0DFF8081514A800F0E7FA49E06885010827
S31508002C00D4790108708501080C810108F6B2062EF0
S31508002C100FDB0120109005200700F6B2B7420ADA4A
S31508002C20E05D06F015FF002801D1002010907F1CFA
S31508002C30F3E7002010901098002805D1DFF8C0149B
S31508002C4014A800F0C1FA23E0601D1290129947A853
S31508002C5000F0BAFA47A806F000FF1190119842F260
S31508002C601071884202DA1198002809D5DFF888140D
S31508002C7014A800F0A9FA0BE078850108208101085C
S31508002C80119806F0C9FFDFF8681414A801F00CFBC8
S31508002C9053E020793A280DD0DFF8681414A800F01C
S31508002CA093FA44E080850108EC79010888850108D3
S31508002CB0047A0108F6B2062E0FDB012010900520D3
S31508002CC00700F6B2B7420ADAE05D06F0C1FE002850
S31508002CD001D1002010907F1CF3E700201090109877
S31508002CE0002805D1DFF8201414A800F06DFA1EE0BC
S31508002CF0601D1290129947A800F066FA47A806F0D8
S31508002D00ACFE11901198B0F57A7F02DA1198002876
S31508002D1005D5DFF8F41314A800F056FA07E0119861
S31508002D2006F08CFFDFF8C81314A801F0BDFA04E01A
S31508002D30DFF8D81314A800F047FA56E09085010882
S31508002D401C7A0108E078422839D0522804D0532842
S31508002D5016D054282AD03BE006F082FF06F0A8FFDA
S31508002D60DFF8AC1306F0B4FF06F0B8FC02000B005F
S31508002D70DFF8A01314A801F097FA2EE09885010849
S31508002D8006F071FF06F094FFDFF8841306F0A0FF43
S31508002D9006F0A4FC02000B00DFF87C1314A801F06F
S31508002DA083FA1AE0347A0108A085010806F061FF63
S31508002DB00200DFF8681314A801F076FA0DE006F0B1
S31508002DC05BFF0200DFF8581314A801F06DFA04E05F
S31508002DD0DFF8501314A800F0F7F906E04C7A01085A
S31508002DE0DFF8441314A800F0EFF951E000200500BD
S31508002DF0F6B2032E0ADADFF8341314A800F0E4F961
S31508002E0024E000BFA8850108647A0108A078442850
S31508002E100AD0452816D1C64914A801F045FA01205A
S31508002E2006F0E8FE050011E0C24914A801F03CFAD4
S31508002E30002006F0DFFE050008E000BFB0850108A7
S31508002E407C7A0108BC4914A800F0BEF920E0BB4909
S31508002E5014A800F0B9F914A9002000F08DFA0500AD
S31508002E60EDB2002D04D02800C0B298E0B88501085C
S31508002E70B34914A800F0A8F90120B249087007E080
S31508002E80947A0108C0850108A74914A800F09CF99E
S31508002E9003E0A54914A800F097F9EDB2002D0BD070
S31508002EA0022D44D009D3032D4CD052E0AC7A010848
S31508002EB0C8850108C47A010851E006F00BFB3B906F
S31508002EC03B9801280AD002280DD0042810D00828DB
S31508002ED013D0102818D020281BD021E09A4914A80E
S31508002EE000F072F920E0994914A800F06DF91BE08A
S31508002EF0974914A800F068F916E0964914A800F056
S31508002F0063F911E0D0850108934914A800F05CF92B
S31508002F100AE0924914A800F057F905E0DC7A01089E
S31508002F208F4914A800F050F906F0AFF917E08D495B
S31508002F3014A800F049F906F0A8F910E0D8850108A8
S31508002F40F47A0108884914A800F03EF906F09DF9BC
S31508002F5005E0864914A800F037F906F096F914A991
S31508002F60002000F009FA0500EDB2002D06D0280071
S31508002F70C0B214E0E08501080C7B01087C4914A85E
S31508002F8000F022F914A9002000F0F6F90500EDB2C8
S31508002F90002D02D02800C0B201E02800C0B20DF50D
S31508002FA0806D15B0BDE8F08FE8850108247B01081F
S31508002FB0F08501083C7B0108F8850108547B010867
S31508002FC0A8750108A4640108C8750108B46E01084B
S31508002FD0F8B50400200000F0CDF805000020070031
S31508002FE000200600AE4216DAA05D3A2802DAA05D95
S31508002FF0302805DAA05D472805DAA05D412802DBFE
S315080030000020070001E001200700012F01D1002060
S3150800301002E0761CE6E70120F2BD2DE9F041040046
S3150800302000275FF00008200000F0A4F80500002043
S315080030300600AE421ADAA05D3A2806DAA05D302804
S3150800304003DBA05D303807000CE0A05D472806DAF0
S31508003050A05D412803DBA05D3738070002E05FF07A
S31508003060FF3004E017EB0818761CE2E74046BDE897
S31508003070F0813448007870476C7B0108E8750108D0
S31508003080847B0108087601089C7B0108B47B01084B
S31508003090CC7B0108E47B0108FC7B0108147C010851
S315080030A0287601082C7C0108447C0108487601082A
S315080030B05C7C0108747C01088C7C0108A47C0108EE
S315080030C0BC7C0108D47C0108EC7C0108047D01085D
S315080030D034810108646B0108D86E01081C7D01085B
S315080030E0FC6E01088C6B0108C8660108206F010890
S315080030F098830108F4660108446F010820670108EF
S31508003100686F01084C6701088C6F0108B06F0108E9
S3150800311000002041B46B010878670108347D010876
S3150800312068760108D46F0108E8740108DC6B0108A9
S31508003130046C01082C6C0108546C0108D877010846
S31508003140F4770108813600207C6C0108D4640108F4
S315080031500465010834650108A46C01086465010862
S31508003160CC6C0108F46C01081C6D0108446D01085B
S315080031700086010800F10103810704D010F8011B3D
S3150800318089B18107FAD10268B2F10131914311F090
S31508003190803F04BF50F8042FF6E710F8011B11B161
S315080031A010F8011BFBE7C01A704703681AB95A1EC4
S315080031B0026008467047197800290FBF4FF0FF30A4
S315080031C0591C0160187870475FEA000C830706D01F
S315080031D011F8013B00F8013BB3B18307F8D10A683F
S315080031E0B2F1013323EA020313F0803F02BF40F82D
S315080031F0042B51F8042FF3E711F8013B00F8013BC3
S3150800320013B111F8013BF9E76046704780B5DFF85E
S315080032108004DFF8801408604FF49640DFF87414D1
S3150800322048600020DFF86C1488600020DFF864141A
S31508003230C8600020DFF85C1408610C20DFF854141D
S3150800324048610020DFF84C1488610020DFF8441438
S31508003250C861DFF8400406F0B9FD002801D007F080
S315080032609DFD01BD80B5DFF83004DFF83014086035
S315080032705FF4E130DFF8241448600020DFF81C14FE
S3150800328088600020DFF81414C8600020DFF80C14EA
S3150800329008610C20DFF8041448614FF44070DFF829
S315080032A0FC1388610020DFF8F413C861DFF8EC032B
S315080032B006F08CFD002801D007F070FD01BD10B5A1
S315080032C086B004002068DFF8C81388421ED1DFF8EC
S315080032D0D003006850F40030DFF8C4130860DFF844
S315080032E0C003006810F40030009000980C2001908C
S315080032F002200290012003900320049007200590E5
S3150800330001A9DFF8A00307F061FD33E02068DFF8C4
S31508003310881388422ED1DFF88803006850F480208D
S31508003320DFF87C130860DFF87803006810F4802063
S31508003330009000984FF4406001900220029001200E
S315080033400390032004900720059001A9DFF858038D
S3150800335007F03CFD4FF4C040019002200290002087
S315080033600390032004900720059001A9DFF838038D
S3150800337007F02CFD06B010BDF8B504000D002800B6
S31508003380FFF7F8FE0700BFB2792F01DB01203AE00C
S31508003390E4B2002C19D1DFF814030078002801D014
S315080033A0022030E04FF400433A0092B22900DFF8D9
S315080033B0E40206F044FD0600F6B2002E02D0300004
S315080033C0C0B220E03000C0B21DE0E4B2012C19D131
S315080033D0DFF8DC020078002801D0022013E04FF461
S315080033E000433A0092B22900DFF8B00206F027FD42
S315080033F00600F6B2002E02D03000C0B203E030005C
S31508003400C0B200E00120F2BDF8B504000D002800A6
S31508003410FFF7B0FE0700BFB2792F01DB012036E0C7
S31508003420E4B2002C17D1DFF884020078002801D016
S3150800343002202CE03A0092B22900DFF8580206F082
S315080034407CFD0600F6B2002E02D03000C0B21EE0A7
S315080034503000C0B21BE0E4B2012C17D1DFF85002ED
S315080034600078002801D0022011E03A0092B2290023
S31508003470DFF8280206F061FD0600F6B2002E02D03B
S315080034803000C0B203E03000C0B200E00120F2BD57
S31508003490DFF8200270470120DFF81C120870704719
S315080034A0854800787047F8B504000D001600B6B2D6
S315080034B0792E01DB012032E0E4B2002C15D17B48DD
S315080034C00078002801D0022029E0320092B22900B3
S315080034D0704806F06AFD0700FFB2002F02D03800D8
S315080034E0C0B21CE03800C0B219E0E4B2012C15D114
S315080034F06F480078002801D0022010E0320092B20E
S315080035002900664806F051FD0700FFB2002F02D0D9
S315080035103800C0B203E03800C0B200E00120F2BDB6
S3150800352010B504002000C0B200F006F8012801D04A
S31508003530002000E0012010BD0100C9B2002903D116
S31508003540544890F8390007E0C9B2012903D1534815
S3150800355090F8390000E00420704701684C4A91420F
S3150800356003D10121514A117006E001684A4A914285
S3150800357002D101214E4A11707047C0B2002803D10A
S3150800358000214A4A117005E0C0B2012802D1002183
S31508003590474A1170704770B5040020683C49884254
S315080035A003D10120414908704CE020683A49884215
S315080035B048D1FFF775FF002824D00320404908604A
S315080035C0FFF766FF3F4908603E4800684078401CA0
S315080035D00600002005003A48006885420BDA39489B
S315080035E00068007800F0A0FB36480068401C3549A2
S315080035F008606D1CEFE732480660314800682F49BD
S3150800360008601CE0FFF744FF2E490860002005000B
S315080036102B48006885420BDA2A480068007800F0D3
S3150800362083FB28480068401C264908606D1CEFE7A4
S3150800363003202349086022480068204908600120C1
S315080036401B49087070BD704714480068C06850F080
S31508003650800012490968C860704710480068C06849
S3150800366050F480700D490968C8600C4800684069C4
S3150800367050F0010009490968486108480068C068AF
S3150800368050F0200005490968C8607047000000002E
S31508003690004400409433002000480040D433002002
S315080036A0243802400000024000040240843600200C
S315080036B08536002058350020863600204800002030
S315080036C06C3600206836002038B504000D00DFF897
S315080036D0D00800680471DFF8C80800684571DFF88B
S315080036E0C408DFF8BC1809680860DFF8B408006881
S315080036F0011DDFF8AC080068006807F0D2FDDFF8A6
S31508003700A8080068001D32BD0020DFF8A018A1F83F
S3150800371020030020DFF8981881F896010020DFF8CA
S31508003720901881F897010020DFF8841881F898012D
S315080037300020DFF87C1881F899010020DFF870185E
S3150800374081F89A010020DFF8681881F89B010120AA
S31508003750DFF85C1881F89C017047401CC0B2C82885
S3150800376000DB0020C0B2704738B504000D00002CFD
S3150800377027D0DFF83C0890F89301DFF8341891F861
S31508003780921188421BD00020DFF8241881F8950191
S31508003790DFF81C08DFF8181891F89311084490F818
S315080037A0CA0028706D1CDFF8080890F89301FFF727
S315080037B0D4FFDFF8FC1781F89301641ED7E7FFF7FB
S315080037C04CFF002032BDDFF8E80790F895017047F6
S315080037D080B5FFF799FF062005F0E2FC0FF2F930F5
S315080037E0DFF8D0170860DFF8D007DFF8D0170860D1
S315080037F0DFF8CC07DFF8CC170860062005F0C2FC16
S3150800380001BD70B586B00025DFF8A407D0F8A00181
S31508003810002805D107F033FDDFF89417C1F8A00199
S31508003820DFF88C07D0F8A001002800F0EF80DFF859
S315080038308007D0F8A0010068DFF88C170840DFF889
S315080038406C17DFF86827B2F8202341F82200DFF862
S315080038505C07B0F82003C0B2FFF77FFFDFF84C170C
S31508003860A1F82003DFF84807D0F8A0010068DFF8C0
S315080038705817084004002000DFF8501788422AD05D
S31508003880DFF84C17884258D0DFF84817884200F00E
S315080038908280DFF84417884229D0DFF8401788422B
S315080038A079D0DFF83C17884257D0DFF838178842B6
S315080038B000F09280DFF8301788425AD0DFF82C17CC
S315080038C0884262D0DFF82817884264D0DFF82417C8
S315080038D088425AD08BE0DFF820170020FFF74CFD0E
S315080038E0012005000120DFF8C81681F8960100209E
S315080038F0DFF8BC1681F8970102210220FFF7E4FEE3
S3150800390006003088002817D1EDB2002D0FD1DFF858
S31508003910EC160020FFF730FD02210D2007F000FD10
S3150800392001F0E3FF0D2007F04BFD06F060F80020DC
S31508003930DFF87C16C1F8A00168E0DFF8C41600209D
S31508003940FFF71AFD0120DFF8681681F897010020B5
S31508003950DFF85C16C1F8A00158E09DA10020FFF72A
S315080039600BFD01F0D3FF0020DFF84416C1F8A001D3
S315080039704CE098A10020FFF7FFFC01F0C7FF0020EC
S31508003980DFF82C16C1F8A00140E00020DFF8201669
S31508003990C1F8A0013AE0DFF86C160020FFF7ECFC4E
S315080039A0DFF80C06D0F8A001807A00280ED0DFF8E0
S315080039B00006D0F8A00110F10B02DFF84C16684695
S315080039C000F072FC69460020FFF7D6FC0020DFF8FD
S315080039D0E015C1F8A00119E0DFF830160020FFF75E
S315080039E0CBFC0020DFF8C815C1F8A0010EE02200C4
S315080039F0DFF81C16684600F057FC69460020FFF7FA
S31508003A00BBFC0020DFF8A815C1F8A00106B070BD00
S31508003A10DFF89C0590F896017047DFF8940590F852
S31508003A2097017047DFF8880590F898017047DFF826
S31508003A30800590F899017047DFF8741581F89801A8
S31508003A407047DFF86C1581F89901704700B585B0A5
S31508003A50DFF85C0590F89A01032840D1DFF8500595
S31508003A6090F89C01012801D1012039E000F0F2FD0F
S31508003A70002832D000F0E9FDDFF8340590F89B0104
S31508003A80401CDFF82C1581F89B0106F0F2F80300BC
S31508003A90DFF81C0590F89B21DFF87815684600F0DA
S31508003AA003FC69460020FFF767FC06F0E2F8DFF83A
S31508003AB0001591F89B1188420FD2DFF85C1500209B
S31508003AC0FFF75AFC0221122007F02AFC01F00DFF2D
S31508003AD0122007F075FC05F08AFF002000E001209F
S31508003AE005B000BDDFF8C80490F89A01032809D18B
S31508003AF0DFF8BC0490F89C01012801D1012002E0FE
S31508003B00002000E001207047DFF8A41481F89C012A
S31508003B107047DFF89C1491F89A11032903D1DFF84E
S31508003B20901481F89C017047DFF8840490F89A0194
S31508003B307047DFF87C1481F89A01704738B504009D
S31508003B4020680068000626D5DFF8640490F8C900E6
S31508003B50DFF85C1491F8C810884215D0DFF85004D5
S31508003B60DFF84C1491F8C910415C89B2200000F0C6
S31508003B70D0F8DFF83C0490F8C900FFF7EEFDDFF84F
S31508003B80301481F8C90006E02068C0687FF080011B
S31508003B9008402168C8602068006810F00F000F28E8
S31508003BA008D10020DFF8081481F89401200000F0FD
S31508003BB0B6F80BE020680068800607D5200000F0FC
S31508003BC0AEF805002800C0B200F0AEF831BD00001E
S31508003BD02D2A2D002D4F2D002DE9F04104000D0052
S31508003BE054F07F400600DFF8C403DFF8C013B1F8CD
S31508003BF0201340F82160DFF8B403B0F82003C0B200
S31508003C00FFF7ABFDDFF8A413A1F82003287869783D
S31508003C10090411EB0060A97810EB0120E97808186F
S31508003C200600DFF88803DFF88413B1F8201340F89C
S31508003C302160DFF87803B0F82003C0B2FFF78DFDE6
S31508003C40DFF86813A1F8200328796979090411EBCC
S31508003C500060A97910EB0120E97908180600DFF859
S31508003C604C03DFF84813B1F8201340F82160DFF859
S31508003C703C03B0F82003C0B2FFF76FFDDFF82C1342
S31508003C80A1F820034FF4FA600700002C3FD0DFF8B4
S31508003C90200390F8C800FFF760FD80464046DFF82D
S31508003CA0101391F8C910C0B288421ED02878C049AE
S31508003CB0BF4A92F8C8208854272005F091FEBC48D0
S31508003CC090F8C800BA4991F8C910884201D1FFF79F
S31508003CD0BBFCB74880F8C880272005F07AFE641E2A
S31508003CE06D1C4FF4FA600700CFE73800471E00281E
S31508003CF0CBD10020AE4981F8960102210F2007F0AA
S31508003D000FFB0F2007F05CFB05F071FEBDE7BDE871
S31508003D10F08189B2CA05D20D03685A6070470068F7
S31508003D204068C005C00D704730B58FB00400BB4869
S31508003D30BB4909784454BA480078401CB849087009
S31508003D40E4B20A2C03D0E4B23F2C40F024810020D0
S31508003D50B3490870B14AB349684600F0A5FA6946FE
S31508003D600020FFF709FB0500EDB2002D02D0280060
S31508003D70C0B212E10422AC49A84805F0D6FC0028D6
S31508003D8011D101208A4981F896010020884981F8D5
S31508003D9098010020864981F89901A4490020FFF777
S31508003DA0EBFA0500F7E00922A1499C4805F0BDFC9D
S31508003DB0002815D101207E4981F8970101207C4908
S31508003DC081F89A0100207A4981F89B0199490020D7
S31508003DD0FFF7D2FA98490020FFF7CEFA0500DAE095
S31508003DE00C2296498D4805F0A0FC002821D1002018
S31508003DF06F4981F8970100206D4981F898010020E4
S31508003E006B4981F899010120694981F89A010020D6
S31508003E10674981F89B0187490020FFF7ADFA00F052
S31508003E20BDFB01F077FD86490020FFF7A5FA0500DE
S31508003E30B1E004228349794805F077FC002820D1AF
S31508003E408149764800F030FA74490020FFF794FA61
S31508003E500500EDB2002D02D02800C0B29DE06F48E3
S31508003E60FFF788F96D49FFF7B7FE0A2005F0A4FEAB
S31508003E700120FFF7E6FD75490020FFF77DFA0500EA
S31508003E8089E005227249654805F04FFC00286CD187
S31508003E90FFF7CDFD00282ED06E49604800F004FAE1
S31508003EA05E490020FFF768FA0500EDB2002D02D042
S31508003EB02800C0B271E05948FFF75CF95749FFF787
S31508003EC08BFE0020FFF7BDFD0120FFF7B5FD05F0CD
S31508003ED01EFE05F0C5FE07F0B8FB0320344981F83D
S31508003EE09A010020324981F89B015B490020FFF7BF
S31508003EF043FA05004FE02E4890F89A01022822D18D
S31508003F0003202B4981F89A010020294981F89B0151
S31508003F105049424800F0C8F940490020FFF72CFAFA
S31508003F200500EDB2002D02D02800C0B235E03B48AE
S31508003F30FFF720F93949FFF74FFE47490020FFF7F9
S31508003F401BFA050027E01A4890F89A01032822D19F
S31508003F500020174981F89B0140490020FFF70CFA19
S31508003F6005000120FFF7D0FD15E008223C492B4843
S31508003F7005F0DBFB002809D10221112007F0D0F952
S31508003F80112007F01DFA05F032FD04E0354900203E
S31508003F90FFF7F2F905002800C0B20FB030BD0000E7
S31508003FA00C0000202002030110000020C820002079
S31508003FB0C02D00202036002069370008243600204E
S31508003FC0C737000828360020F800FFFFA0000100C8
S31508003FD0A0000800A0000900A0000801A00008022F
S31508003FE020000A02A0000B02A0000A0320000A050E
S31508003FF020000908A0000020308201085881010825
S3150800400068810108C87301083C820108A476010882
S31508004010488201087C7F0108907F0108303500201E
S3150800402080360020C07601081884010878810108C6
S3150800403054820108E8730108A47F010888810108F1
S3150800404098810108208401086C78010884780108A1
S3150800405028840108DC760108F8760108B87F01088B
S3150800406060820108CC7F010800210800802804DA54
S3150800407000218A4A1154401CF8E77047884870475F
S31508004080F8B504008021200007F0F4FB0500EDB226
S31508004090002D02D02800C0B222E007F022FC05005D
S315080040A000200600C82E0ADA07F01BFC0500EDB250
S315080040B0002D04D0052005F036FA761CF2E7C82E46
S315080040C001DB03200CE0270000200600802E05DA1D
S315080040D03878803838707F1C761CF7E72800C0B21D
S315080040E0F2BD2DE9F8436C48FFF7CAFF80465FFA30
S315080040F088F8B8F1000F02D04046C0B241E000206F
S315080041000700802F05DA6448C05D6549C8557F1CDD
S31508004110F7E7FFF7A9FF0023072260495E4807F083
S315080041200DFC070017F1010F01D1012029E000203D
S315080041300700402F23DA5848C05705F0AFFD0500A1
S315080041405648C05705F0AAFD06002800290007F0C2
S31508004150CBFC81463000310007F0C6FC494607F023
S315080041602FFD05F0BBFA07F06DFD07F0E3FD04002F
S31508004170200007F027FE4849C8557F1CD9E7404666
S31508004180C0B2BDE8F28370B582B004000020050015
S3150800419040A1200000F088F800200600102E0BDA57
S315080041A03D4882573F49684600F07EF86946200038
S315080041B000F094F8761CF1E72800C0B276BD70B519
S315080041C082B004000020050032A1200000F06CF83F
S315080041D000200600102E0DDA2F48304490F91020E2
S315080041E03049684600F060F86946200000F076F825
S315080041F0761CEFE72800C0B276BD70B582B0040021
S315080042000020050023A1200000F04EF8002006003B
S31508004210102E0DDA2048304490F9202021496846AE
S3150800422000F042F86946200000F058F8761CEFE7DF
S315080042302800C0B276BD70B582B004000020050023
S3150800424014A1200000F030F800200600102E0DDA28
S315080042501148304490F930201249684600F024F895
S315080042606946200000F03AF8761CEFE72800C0B24D
S3150800427076BD0021080080280ADA0021064A115472
S315080042800021064A11540021054A1154401CF2E740
S315080042907047000000000000C031002040320020B6
S315080042A0C0320020088601080CB41CB5044604A8D0
S315080042B001900A46009401AB6946074878441830CD
S315080042C007F0A2FD009A0021117000285CBF009833
S315080042D0001B16BC5DF80CFB7F540000024600E08C
S315080042E0521C1378002BFBD111F8013B137012F8FE
S315080042F0013B002BF8D170471CB520208DF8000033
S3150800430001208DF8010008208DF8020000208DF8A4
S31508004310030000208DF8040000208DF8050068468B
S3150800432008F042FE0400E4B2002C05D0022C07D0A7
S3150800433004D3032C06D007E0002006E0012004E0A1
S31508004340032002E0012000E0012016BD2DE9FF4709
S31508004350040000208046684608F0D4FE00283AD1BA
S31508004360009806003100062005F049FA0600009874
S3150800437005F0B4F90022644B08F03AFF09F020F87A
S3150800438005002D0202AA9246009805F0A7F95246A2
S3150800439009F02CF807F0CEFC81465FF087404946C5
S315080043A007F0A2FB07F00EFD070017F0F0077D19CE
S315080043B02A00564914F10C00FFF776FFA561300074
S315080043C005F08CF902000B0051492000FFF76CFF3D
S315080043D04046C0B200E0012004B0BDE8F0872DE9F0
S315080043E0FF47040000200500684608F08BFE0028F9
S315080043F035D100988146009805F070F90022424BA5
S3150800440008F0F6FE08F0DCFF0600360202AA92461D
S31508004410009805F063F9524608F0E8FF07F08AFCB1
S3150800442080465FF08740414607F05EFB07F0CAFC0E
S31508004430070017F0F007BE193200344914F10C00D2
S31508004440FFF732FFA661484605F048F902000B005F
S315080044502F492000FFF728FF2800C0B200E00120FE
S3150800446004B0BDE8F08730B585B00400684608F0AA
S315080044705FFE002801D0012041E001A808F079FE7E
S3150800448000283BD1019805F029F9224A224B08F069
S31508004490AFFE0022214B09F005F807F04BFC05009A
S315080044A0BDF80000E082019805F018F902000B003B
S315080044B01B492000FFF7F8FE280005F00FF9020057
S315080044C00B001749E01DFFF7EFFEBDF90000C0F32A
S315080044D0072212B20B4914F10E00FFF7E5FEBDF9EB
S315080044E0000000F0FF02074902A8FFF7DDFE02A957
S315080044F014F10E00FFF7F2FE002000E0012005B0DF
S3150800450030BD0000F883010800000440008401085B
S3150800451008840108CDCCCCCCCCCCFC3F0000404074
S315080045201084010810B5A0B000208DF80400002002
S315080045308DF805004FF4FA700090002301AA0F21A8
S31508004540BA2004F0FEFE0400E4B2002C07D14FF4B2
S31508004550FA73012201A9BA2004F08BFF04009DF822
S315080045600400BD2801D1002000E0012020B010BDC4
S3150800457080B501203C49487000F010F800203A49FF
S3150800458088700020DFF8181D08700020DFF8101D5D
S3150800459048800020DFF8081D888001BD80B501200D
S315080045A03149487031493248FEF70EFE2F493148E5
S315080045B0FEF70AFE2D493048FEF706FE2B492F481E
S315080045C0FEF702FE29492E48FEF7FEFD2D492E4824
S315080045D0FEF7FAFD2D492E48FEF7F6FD23492D482C
S315080045E0FEF7F2FD21492C48FEF7EEFD1F492B4840
S315080045F0FEF7EAFD1D492A48FEF7E6FD1B4929484C
S31508004600FEF7E2FD19492848FEF7DEFD1749274857
S31508004610FEF7DAFD15492648FEF7D6FD1349254863
S31508004620FEF7D2FD11492448FEF7CEFD0F4923486F
S31508004630FEF7CAFD0D49DFF86C0CFEF7C5FD01BD96
S315080046400120DFF8641C087070470020DFF8581C4A
S3150800465008707047DFF8500C007870470120DFF8C3
S31508004660481C08707047000058290020C8830108B4
S31508004670632900207329002083290020922900201D
S31508004680A829002048810108CA29002018820108A3
S31508004690E8290020062A0020182A0020302A0020AF
S315080046A0D42A0020EC2A0020042B00201C2B0020F2
S315080046B0342B00204C2B0020642B00207C2B002060
S315080046C010B58CB000200400DFF8DC0B0078002859
S315080046D000F0E185DFF8D00B8078002808D00228A2
S315080046E046D03AD3042861D04DD3052871D085E049
S315080046F0DFF8B81B01A8FFF7D7FD01A90020FEF7D0
S315080047003BFE01A8FEF736FD01A9FFF765FA002072
S3150800471001F06AF800281FD0DFF8940B02F04FFF6B
S315080047200400E4B2002C69D1DFF8880B03F03AF8EC
S315080047300400E4B2002C61D1DFF87C0B03F025F904
S315080047400400E4B2002C59D1DFF8700B03F00CFA20
S315080047500400E4B2002C51D150E0012001F044F8E5
S31508004760002804D0DFF8580B04F066F9040045E089
S31508004770022001F039F8002804D0DFF8480B04F0CD
S31508004780B7FB04003AE0032001F02EF800280CD00D
S31508004790DFF8340BFFF7DAFD0400E4B2002C2DD164
S315080047A0DFF8280BFFF75FFE040027E0042001F07E
S315080047B01BF800280CD0DFF8180B03F032FB0400B6
S315080047C0E4B2002C1AD1DFF80C0B03F02BFE040020
S315080047D014E0052001F008F8002805D0DFF8F80AEB
S315080047E002F040F8040009E0062000F0FDFF00286A
S315080047F004D0DFF8E40A01F066F90400DFF8A80A35
S315080048008078401CDFF8A01A8870DFF89C0A807848
S315080048100A2815DBDFF8880A8088052808DADFF811
S31508004820800A8088401CDFF8781A8880FFF7B6FE71
S315080048300020DFF8741A88700020DFF86C1A0870F8
S31508004840E4B2002C03D02000C0B200F026BD05F06B
S315080048503AF9DFF8881ADFF8880A08F097FE002880
S315080048602ED0012004F08EFCDFF8741ADFF86C0AEB
S31508004870FEF7AAFCDFF8381ADFF8680AFEF7A4FC88
S3150800488005F0F4F900280AD0DFF8580A0090222328
S315080048902222DFF8541A01A8FFF706FD06E0DFF822
S315080048A0442ADFF8481A01A8FFF7FEFC01A90020F0
S315080048B0FEF762FD01A8FEF75DFC01A9FFF78CF97A
S315080048C0DFF82C1ADFF82C0A08F060FE00282ED034
S315080048D0012004F057FCDFF81C1ADFF8140AFEF76B
S315080048E073FCDFF8D019DFF8100AFEF76DFC05F047
S315080048F0BDF900280AD0DFF8000A009022232222F8
S31508004900DFF8F81901A8FFF7CFFC06E0DFF8E82979
S31508004910DFF8EC1901A8FFF7C7FC01A90020FEF78C
S315080049202BFD01A8FEF726FC01A9FFF755F9DFF8CC
S31508004930D419DFF8D40908F029FE00282ED0012062
S3150800494004F020FCDFF8C019DFF8B809FEF73CFCD4
S31508004950DFF86419DFF8B409FEF736FC05F086F9C6
S3150800496000280AD0DFF8A409009022232222DFF8C3
S31508004970A01901A8FFF798FC06E0DFF89029DFF8F0
S31508004980941901A8FFF790FC01A90020FEF7F4FC92
S3150800499001A8FEF7EFFB01A9FFF71EF9DFF8781962
S315080049A0DFF8780908F0F2FD00282ED0012004F07F
S315080049B0E9FBDFF86819DFF86009FEF705FCDFF8A0
S315080049C0FC18DFF85C09FEF7FFFB05F04FF9002835
S315080049D00AD0DFF84C09009022232222DFF8441976
S315080049E001A8FFF761FC06E0DFF83429DFF838197B
S315080049F001A8FFF759FC01A90020FEF7BDFC01A894
S31508004A00FEF7B8FB01A9FFF7E7F8DFF82019DFF88A
S31508004A10200908F0BBFD00285CD0012004F0B2FB99
S31508004A20DFF80C19DFF80409FEF7CEFBDFF890185B
S31508004A30DFF80009FEF7C8FBDFF8FC18DFF8FC080A
S31508004A40FEF7C2FBDFF8100DB0F85800DFF858186B
S31508004A50A1F8580005F00AF900280AD0DFF8D408AA
S31508004A60009022232222DFF8D81801A8FFF71CFCA1
S31508004A7006E0DFF8C028DFF8CC1801A8FFF714FC19
S31508004A8001A90020FEF778FC01A8FEF773FB01A92F
S31508004A90FFF7A2F805F0EAF800280AD0DFF89C0824
S31508004AA0009022232222DFF8A01801A8FFF7FCFBBA
S31508004AB006E0DFF88828DFF8941801A8FFF7F4FB6A
S31508004AC001A90020FEF758FC01A8FEF753FB01A92F
S31508004AD0FFF782F8DFF87818DFF8780808F056FD4F
S31508004AE0002800F09B80012004F04CFBDFF86418D6
S31508004AF0DFF85C08FEF768FBDFF8C817DFF8580828
S31508004B00FEF762FBDFF85418DFF85408FEF75CFB83
S31508004B10DFF85018DFF85008FEF756FB05F0A6F840
S31508004B2000280AD0DFF82808009022232222DFF87E
S31508004B303C1801A8FFF7B8FB06E0DFF81428DFF8F1
S31508004B40301801A8FFF7B0FB01A90020FEF714FCF6
S31508004B5001A8FEF70FFB01A9FFF73EF805F086F856
S31508004B6000280AD0DFF8F007009022232222DFF877
S31508004B70041801A8FFF798FB06E0DFF8DC27DFF842
S31508004B80081B01A8FFF790FB01A90020FEF7F4FB1C
S31508004B9001A8FEF7EFFA01A9FFF71EF805F066F877
S31508004BA000280AD0DFF8B807009022232222DFF86F
S31508004BB0DC1A01A8FFF778FB06E0DFF8A427DFF880
S31508004BC0D01A01A8FFF770FB01A90020FEF7D4FB55
S31508004BD001A8FEF7CFFA01A9FEF7FEFF05F046F891
S31508004BE000280AD0DFF88007009022232222DFF867
S31508004BF0A41A01A8FFF758FB06E0DFF86C27DFF8D0
S31508004C00181B01A8FFF750FB01A90020FEF7B4FB0B
S31508004C1001A8FEF7AFFA01A9FEF7DEFFDFF8FC1AD6
S31508004C20DFF8FC0A08F0B2FC002836D0012004F0B0
S31508004C30A9FADFF8EC1ADFF8E40AFEF7C5FADFF896
S31508004C408816DFF8180BFEF7BFFADFF80C0BD0F85A
S31508004C509C00DFF85416C1F89C0005F007F80028F8
S31508004C600AD0DFF8F80A009022232222DFF8F01A89
S31508004C7001A8FFF719FB06E0DFF8E02ADFF8E41AD7
S31508004C8001A8FFF711FB01A90020FEF775FB01A893
S31508004C90FEF770FA01A9FEF79FFFDFF8CC1ADFF8D6
S31508004CA0CC0A08F073FC002836D0012004F06AFA12
S31508004CB0DFF8B81ADFF8B00AFEF786FADFF810163A
S31508004CC0DFF8100BFEF780FADFF88C0AB0F8C80098
S31508004CD0DFF8D415A1F8C80004F0C8FF00280AD0E8
S31508004CE0DFF8F00A009022232222DFF8EC1A01A846
S31508004CF0FFF7DAFA06E0DFF8DC2ADFF8E01A01A89F
S31508004D00FFF7D2FA01A90020FEF736FB01A8FEF745
S31508004D1031FA01A9FEF760FFDFF8C41ADFF8C40A02
S31508004D2008F034FC00285CD0012004F02BFADFF8E8
S31508004D30B41ADFF8AC0AFEF747FADFF89815DFF879
S31508004D40100BFEF741FADFF80C1BDFF80C0BFEF729
S31508004D503BFADFF8040AB0F8E000DFF84C15A1F8D2
S31508004D60E00004F083FF00280AD0DFF8E40A009088
S31508004D7022232222DFF8E41A01A8FFF795FA06E0B3
S31508004D80DFF8CC2ADFF8D81A01A8FFF78DFA01A9AF
S31508004D900020FEF7F1FA01A8FEF7ECF901A9FEF7E3
S31508004DA01BFF04F063FF00280AD0DFF8AC0A009066
S31508004DB022232222DFF83C1B01A8FFF775FA06E03A
S31508004DC0DFF8942ADFF8401B01A8FFF76DFA01A95E
S31508004DD00020FEF7D1FA01A8FEF7CCF901A9FEF7E3
S31508004DE0FBFEDFF8381BDFF8380B08F0CFFB00288E
S31508004DF02ED0012004F0C6F9DFF8241BDFF81C0BBF
S31508004E00FEF7E2F9DFF8D014DFF8180BFEF7DCF945
S31508004E1004F02CFF00280AD0DFF8080B00902223A4
S31508004E202222DFF8041B01A8FFF73EFA06E0DFF8A6
S31508004E30F42ADFF8F81A01A8FFF736FA01A90020C4
S31508004E40FEF79AFA01A8FEF795F901A9FEF7C4FE3E
S31508004E50DFF8DC1ADFF8DC0A08F098FB002836D001
S31508004E60012004F08FF9DFF8CC1ADFF8C40AFEF740
S31508004E70ABF9DFF8C41ADFF8C40AFEF7A5F9DFF8BC
S31508004E80D808B0F89C01DFF82014A1F89C0104F0BA
S31508004E90EDFE00280AD0DFF8A40A00902223222279
S31508004EA0DFF89C1A01A8FFF7FFF906E0DFF88C2A5D
S31508004EB0DFF8901A01A8FFF7F7F901A90020FEF715
S31508004EC05BFA01A8FEF756F901A9FEF785FEDFF899
S31508004ED0781ADFF8780A08F059FB002835D001203F
S31508004EE004F050F9DFF8641ADFF85C0AFEF76CF98B
S31508004EF0DFF85C1ADFF85C0AFEF766F9DFF858088F
S31508004F00B0F8B401E849A1F8B40104F0AFFE0028EE
S31508004F100AD0DFF8400A009022232222DFF8381A46
S31508004F2001A8FFF7C1F906E0DFF8282ADFF82C1AEE
S31508004F3001A8FFF7B9F901A90020FEF71DFA01A893
S31508004F40FEF718F901A9FEF747FEDFF8141ADFF88D
S31508004F50140A08F01BFB002835D0012004F012F9CA
S31508004F60DFF8001ADFF8F809FEF72EF9DFF8F81966
S31508004F70DFF8F809FEF728F9DFF8DC07B0F8CC0106
S31508004F80C949A1F8CC0104F071FE00280AD0DFF85F
S31508004F90DC09009022232222DFF8D41901A8FFF7A2
S31508004FA083F906E0DFF8C429DFF8C81901A8FFF776
S31508004FB07BF901A90020FEF7DFF901A8FEF7DAF868
S31508004FC001A9FEF709FEDFF8B019DFF8B00908F005
S31508004FD0DDFA002835D0012004F0D4F8DFF8A0194E
S31508004FE0DFF8A009FEF7F0F8DFF89019DFF888096E
S31508004FF0FEF7EAF8DFF86007B0F8E401AA49A1F875
S31508005000E40104F033FE00280AD0DFF86C090090AA
S3150800501022232222DFF8701901A8FFF745F906E0D6
S31508005020DFF85429DFF8641901A8FFF73DF901A94B
S315080050300020FEF7A1F901A8FEF79CF801A9FEF7E2
S31508005040CBFDDFF84C19DFF84C0908F09FFA002869
S3150800505035D0012004F096F8DFF83819DFF8300962
S31508005060FEF7B2F8DFF83019DFF83009FEF7ACF8CA
S31508005070DFF8E406B0F8FC018B49A1F8FC0104F05E
S31508005080F5FD00280AD0DFF8140900902223222211
S31508005090DFF80C1901A8FFF707F906E0DFF8FC2886
S315080050A0DFF8001901A8FFF7FFF801A90020FEF7AD
S315080050B063F901A8FEF75EF801A9FEF78DFDDFF892
S315080050C0E818DFF8E80808F061FA002835D001206A
S315080050D004F058F8DFF8D418DFF8CC08FEF774F8AF
S315080050E0DFF8CC18DFF8CC08FEF76EF8DFF86806AC
S315080050F0B0F814026C49A1F8140204F0B7FD0028B0
S315080051000AD0DFF8B008009022232222DFF8A81878
S3150800511001A8FFF7C9F806E0DFF89828DFF89C1819
S3150800512001A8FFF7C1F801A90020FEF725F901A893
S31508005130FEF720F801A9FEF74FFDDFF88418DFF81F
S31508005140840808F023FA002835D0012004F01AF85C
S31508005150DFF87018DFF86808FEF736F8DFF8681821
S31508005160DFF86808FEF730F8DFF8EC05B0F82C022F
S315080051704D49A1F82C0204F079FD00280AD0DFF881
S315080051804C08009022232222DFF8441801A8FFF7D2
S315080051908BF806E0DFF83428DFF8381801A8FFF79F
S315080051A083F801A90020FEF7E7F801A8FDF7E2FF5A
S315080051B001A9FEF711FD3B49DFF81C0808F0E6F9DE
S315080051C0002834D0012003F0DDFFDFF80C1835483D
S315080051D0FDF7FAFFDFF80418DFF80408FDF7F4FF17
S315080051E0DFF87405B0F844022F49A1F8440204F028
S315080051F03DFD00280AD0DFF8E80700902223222286
S31508005200DFF8E01701A8FFF74FF806E0DFF8D02728
S31508005210DFF8D41701A8FFF747F801A90020FEF721
S31508005220ABF801A8FDF7A6FF01A9FEF7D5FC1E48B5
S315080052304078002813D000201B494870DFF8AC27B7
S31508005240DFF8AC1701A8FFF72FF801A90020FEF731
S3150800525093F801A8FDF78EFF01A9FEF7BDFC1248D9
S315080052608078002817D1DFF88C1701A8FFF71CF8FB
S3150800527001A90020FEF780F801A8FDF77BFF01A928
S31508005280FEF7AAFCDFF8701701A8FFF70DF801A9C9
S315080052900020FEF771F82000C0B20CB010BD000067
S315080052A010360020942B002058290020D0830108AE
S315080052B0132700202227002032270020422700201B
S315080052C0522700206A27002094270020B0270020B4
S315080052D0C8270020DA2700207E280020632900201E
S315080052E01B2700205B290020287001084C7D010837
S315080052F0732900202B2700206A29002048700108FE
S31508005300607D0108832900203B2700207A29002098
S3150800531068700108747D0108922900204A27002038
S315080053208A29002088700108887D0108A82900209C
S31508005330602700209A29002059270020A12900204B
S31508005340A87001089C7D0108C8700108B07D010895
S31508005350CA29002082270020B229002072270020AF
S31508005360BA2900207A270020C2290020E8700108FF
S31508005370C47D01080871010800B595B0FEF748FB21
S31508005380002845D0FEF749FB002841D0FEF74FFB21
S3150800539000283DD0DFF864060078401CDFF85C166C
S315080053A00870DFF858060278DFF8541601A8FEF7E9
S315080053B07BFF01A90020FDF7DFFF04F05DFCDFF8A5
S315080053C03C160978814223D3DFF838160020FDF70A
S315080053D0D3FF0020DFF824160870DFF82C1601A882
S315080053E0FEF762FF01A90020FDF7C6FF01A8FDF739
S315080053F0C1FE01A9FEF7F0FB0020FEF722FB012003
S31508005400FEF71AFB04F083FB04F02AFC06F01DF9EC
S31508005410FEF7FEFA002800F01681FEF7FEFA0028CD
S3150800542000F01181FEF7FEFA002800F00C81FEF765
S3150800543059FB002800F00781DFF8D01501A8FEF710
S3150800544033FF01A90020FDF797FF01A8FDF792FE9B
S3150800545001A9FEF7C1FB022003F094FEFEF741FE08
S31508005460DFF8AC05FEF78FFEDFF8A805FEF7A7FE06
S31508005470DFF8A405FEF7C1FEDFF8A005FEF7DBFEA0
S31508005480012003F07FFE04F0F1FB00280AD0DFF8C4
S315080054908005009022232222DFF8841501A8FEF752
S315080054A003FF06E0DFF86825DFF8781501A8FEF7A0
S315080054B0FBFE01A90020FDF75FFF01A8FDF75AFED4
S315080054C001A9FEF789FB012003F05CFE04F0CEFB80
S315080054D000280AD0DFF83C05009022232222DFF8B4
S315080054E0481501A8FEF7E0FE06E0DFF82825DFF8F4
