S02E0000526F616420426F61726420526576204D2E3520424153454C494E4520446563203920323031362E737265637A
S315080000005041002075BB0108F5BF0108ABD90008AF
S31508000010BFD90008F9BF0108D3D9000800000000BD
S3150800002000000000000000000000000087800108B2
S31508000030FDBF01080000000035800108C9810108DC
S3150800004079BF000801C0010805C0010809C00108F8
S315080000500DC0010811C0010815C0010819C0010822
S315080000601DC0010821C0010825C00108D181010869
S3150800007029C001082DC0010831C0010835C0010892
S3150800008039C001083DC0010841C0010845C0010842
S31508000090DB81010849C001084DC0010851C00108AB
S315080000A055C0010859C001085DC0010861C00108B2
S315080000B01782010821820108E581010803820108E7
S315080000C00D82010865C0010869C001086DC00108F4
S315080000D071C0010875C00108F9810108EF8101089E
S315080000E079C001087DC0010881C0010885C00108E2
S315080000F089C00108000000008DC0010891C00108F0
S3150800010095C0010899C001089DC00108A1C0010851
S31508000110A5C00108A9C00108ADC00108000000007B
S31508000120B1C0010801201D4981F828000020704748
S3150800013010B50400194890F82800022801D10220B9
S3150800014016E0164890F82800002801D101200FE093
S31508000150200004F099FD282801D3012008E0210099
S315080001600E4804F0BBFD02200C4981F82800002047
S3150800017010BD10B5094890F8280002280BD10121B6
S31508000180064800F00DF804000120044981F828000B
S315080001902000C0B200E0002010BD00006C65002001
S315080001A02DE9F04FADF5806D97B004000D002000E5
S315080001B004F06AFD8046DFF8FC0D007800281ED0A2
S315080001C020781B2815D10020DFF8E81D0870DFF815
S315080001D0E81D0AA804F082FD0AA9002004F056FECC
S315080001E00600F6B2002E04F049843000C0B204F0CE
S315080001F047BC2100012005F085FA04F03FBC2078B1
S3150800020030282FD0312848D0322879D0332800F02A
S31508000210AA80342800F0DA80352800F00A813628CA
S3150800022000F07E81412800F09481422800F0F18296
S31508000230432800F0B685442800F0B887452801F021
S315080002403381462801F04581472801F05D81482819
S3150800025001F0DA81502801F0BB84542801F0E884C3
S3150800026004F083BB05F0B7FD0600F6B2002E12D1E6
S31508000270EDB2002D0AD0DFF8241E0AA804F02EFDE0
S315080002800AA804F001FD0AA905F03CFADFF8101ED9
S315080002900AA804F023FD04F079BB90A805F0EDFD4B
S315080002A00600DFF8041E0AA804F018FD0AA90020B3
S315080002B004F0ECFD0600F6B2002E03D03000C0B202
S315080002C004F0DEBBEDB2002D0BD090AADFF8DC1DE2
S315080002D00AA805F063FE0AA804F0D6FC0AA905F0E8
S315080002E011FADFF8CC1D0AA805F058FE90A90AA84D
S315080002F005F06EFEDBA10AA805F06AFE04F046BB0F
S3150800030090A805F0D6FD0600DFF8A81D0AA804F097
S31508000310E5FC0AA9002004F0B9FD0600F6B2002E95
S3150800032003D03000C0B204F0ABBBEDB2002D0BD049
S3150800033090AADFF8841D0AA805F030FE0AA804F082
S31508000340A3FC0AA905F0DEF9DFF8141E0AA805F0D1
S3150800035025FE90A90AA805F03BFEC2A10AA805F049
S3150800036037FE04F013BB90A805F0C1FD0600DFF8C0
S31508000370F41D0AA804F0B2FC0AA9002004F086FDC0
S315080003800600F6B2002E03D03000C0B204F078BBE7
S31508000390EDB2002D0BD090AADFF8F81D0AA805F0DB
S315080003A0FDFD0AA804F070FC0AA905F0ABF9DFF810
S315080003B0E81D0AA805F0F2FD90A90AA805F008FEAE
S315080003C0A8A10AA805F004FE04F0E0BA90A805F072
S315080003D0ACFD0600DFF8C41D0AA804F07FFC0AA9D4
S315080003E0002004F053FD0600F6B2002E03D03000BC
S315080003F0C0B204F045BBEDB2002D0BD090AADFF8D1
S31508000400A01D0AA805F0CAFD0AA804F03DFC0AA921
S3150800041005F078F9DFF88C1D0AA805F0BFFD90A94C
S315080004200AA805F0D5FD8FA10AA805F0D1FD04F0AC
S31508000430ADBA05F09DFC4790DFF86C1D0AA804F0DC
S315080004404DFC90A805F019FD06000AA9002004F045
S315080004501DFD0600F6B2002E03D03000C0B204F02F
S315080004600FBBEDB2002D0AD0DFF81C1E0AA804F057
S3150800047035FC0AA804F008FC0AA905F043F900208F
S315080004803A90DBA10AA805F089FD00200700802F15
S3150800049031DA4798C257DFF8F41D2AA805F07EFD21
S315080004A02AA90AA805F094FD3A98401C3A903A9869
S315080004B010281EDB6BA10AA805F08AFD00203A90D9
S315080004C00AA9002004F0E2FC0600F6B2002E03D0CA
S315080004D03000C0B204F0D4BAEDB2002D05D00AA897
S315080004E004F0D2FB0AA905F00DF9C1A10AA805F086
S315080004F055FD7F1CCBE7EDB2002D0AD0DFF8D41DE1
S315080005000AA804F0EBFB0AA804F0BEFB0AA905F04A
S31508000510F9F8DFF8C41D0AA805F040FD04F036BA5C
S315080005200020060005F01FFDEDB2002D0AD0DFF809
S31508000530AC1D0AA804F0D2FB0AA804F0A5FB0AA978
S3150800054005F0E0F8DFF8101E0AA804F0C7FB04F06F
S315080005501DBA5FFA88F8B8F1010F00F05881607883
S31508000560362839D0382800F0BB80392800F0258194
S31508000570492840F0478105F039FD0600EDB2002D07
S315080005800AD0DFF8D81D0AA804F0A8FB0AA804F0C8
S315080005907BFB0AA905F0B6F8F6B2002E05D1DFF8FE
S315080005A0C01D0AA804F09AFB15E0DFF8B81D0AA8D2
S315080005B004F094FB8DF8B4600AA9002004F066FCE8
S315080005C00600F6B2002E03D03000C0B204F058BAC6
S315080005D09DF8B40006001AE1ADA805F07AFD0600FC
S315080005E0F6B2002E04D10DF5856005F029FD06004A
S315080005F0F6B2002E5DD1DFF8081E0AA804F06EFBDD
S315080006000AA9002004F042FC0600F6B2002E03D028
S315080006103000C0B204F034BADFF8E81D0AA805F0C5
S31508000620BDFC0AA9002004F031FC0600F6B2002E33
S3150800063003D03000C0B204F023BA0DF58563ADAA25
S31508000640DFF8C41D0AA805F0A9FC0AA9002004F0D1
S315080006501DFC0600F6B2002E06D03000C0B204F02B
S315080006600FBA00BF0D0A0000EDB2002D0DD00DF532
S315080006708563ADAADFF8981D0AA805F08FFC0AA8BD
S3150800068004F002FB0AA905F03DF8DFF8881D0AA860
S3150800069005F084FCB0A90AA805F09AFCB39ADFF81D
S315080006A0781D2AA805F07AFC2AA90AA805F090FC64
S315080006B015E0DFF8681D0AA804F010FB8DF8B46091
S315080006C00AA9002004F0E2FB0600F6B2002E03D0C9
S315080006D03000C0B204F0D4B99DF8B400060096E024
S315080006E03CA805F03AFD0600F6B2002E27D1DFF841
S315080006F00C1E0AA804F0F2FA0AA9002004F0C6FBA8
S315080007000600F6B2002E03D03000C0B204F0B8B925
S31508000710DFF8EC1D0AA805F041FC0DF1FE010AA858
S3150800072005F056FCDBA10AA805F052FC0AA9002030
S3150800073004F0ACFB0600F6B2002E01D104E066E038
S315080007403000C0B204F09CB9BDF80621DFF8B41D2C
S315080007500AA805F023FC0AA9002004F097FB060066
S31508000760F6B2002E03D03000C0B204F089B9EDB25B
S31508000770002D0AD0DFF8E41B0AA804F0AFFA0AA88D
S3150800078004F082FA0AA904F0BDFFDFF81C1E0AA8C5
S3150800079005F004FC3CA90AA805F01AFCDFF80C1EB3
S315080007A00AA805F015FC0DF1F7010AA805F010FCDA
S315080007B0B8A10AA805F00CFC29E005F02DFD0600F5
S315080007C0EDB2002D0AD0DFF8941B0AA804F086FAC9
S315080007D00AA804F059FA0AA904F094FFF6B2002E02
S315080007E008D1DFF8181E0AA804F078FA09E000BF55
S315080007F000000000DFF8081E0AA804F06FFA0020BF
S31508000800060004E0DFF8FC1D0AA804F067FA04F005
S31508000810BDB85FFA88F8B8F1010F40F0508105209D
S3150800082007F02CF900280BD05AA808F015FD060089
S31508000830F6B2002E17D1D4A808F088F9060012E0FF
S31508000840062007F01BF900280BD05AA807F01AFE55
S315080008500600F6B2002E06D1D4A807F0A8FA0600BC
S3150800086001E001200600EDB2002D0AD0DFF8281EAF
S315080008700AA804F033FA0AA804F006FA0AA904F04A
S3150800088041FFF6B2002E40F00781DFF8101E0AA8D5
S3150800089004F024FA0AA9002004F0F8FA0600F6B2D1
S315080008A0002E03D03000C0B204F0EAB800200700DA
S315080008B0092F80F2DD80002F0FD0022F35D020D3EC
S315080008C0042F5AD045D3062F00F07F8069D3082F0E
S315080008D000F0A380C0F08D80B3E0BDF87E010390E0
S315080008E0D5A8C01C02905BA8C01C0190D4A8009093
S315080008F05AAB0DF5BB72DFF80C1E0AA805F04EFBC5
S315080009009FE0BDF896010390DBA8C01C029061A881
S31508000910C01C0190DAA8009060AB0DF5C772DFF82D
S31508000920E81D0AA805F03AFB8BE0BDF8AE01039076
S31508000930E1A8C01C029067A8C01C0190E0A800901E
S3150800094066AB0DF5D372DFF8C01D0AA805F026FBC5
S3150800095077E0BDF8C6010390E7A8C01C02906DA811
S31508000960C01C0190E6A800906CAB0DF5DF72DFF8AD
S31508000970981D0AA805F012FB63E0BDF8DE01039096
S31508000980EDA8C01C029073A8C01C0190ECA80090AA
S3150800099072AB0DF5EB72DFF8701D0AA805F0FEFACA
S315080009A04FE0BDF8F6010390F3A8C01C029079A8A1
S315080009B0C01C0190F2A8009078AB0DF5F772DFF82D
S315080009C0481D0AA805F0EAFA3BE0BDF80E020390B6
S315080009D0F9A8C01C02907FA8C01C0190F8A8009036
S315080009E07EAB81AA921CDFF8201D0AA805F0D6FA6C
S315080009F027E0BDF826020390FFA8C01C029085A830
S31508000A00C01C0190FEA8009084AB87AA921CDFF850
S31508000A10F81C0AA805F0C2FA13E0BDF83E020390D6
S31508000A20FFA81B3002908BA8C01C01900DF58260B0
S31508000A3000908AAB8DAA921CDFF8CC1C0AA805F098
S31508000A40ADFAEDB2002D05D00AA804F01DF90AA9E1
S31508000A5004F058FE0AA9002004F018FA0600F6B2B7
S31508000A60002E03D03000C0B204F00AB87F1C1FE77E
S31508000A70DFF8041E0AA805F091FA44A90AA805F0A9
S31508000A80A7FA04A10AA805F0A3FAEDB2002D05D12C
S31508000A900FE000BF0D0A000003F078BFDFF8341836
S31508000AA00AA804F01BF90AA804F0EEF80AA904F04B
S31508000AB029FEDFF8101E0AA805F070FA6FE16078C3
S31508000AC030281FD0312800F05181492840F067812D
S31508000AD007F086FF0600EDB2002D0AD0DFF87C1875
S31508000AE00AA804F0FBF80AA804F0CEF80AA904F04C
S31508000AF009FEF6B2002E04D1DFF8101E0AA804F08B
S31508000B00EDF84CE1052006F0B9FF00280BD05AA8ED
S31508000B1008F0A2FB0600F6B2002E17D1D4A808F0FA
S31508000B2015F8060012E0062006F0A8FF00280BD0EC
S31508000B305AA807F0A7FC0600F6B2002E06D1D4A8DC
S31508000B4007F035F9060001E001200600EDB2002D98
S31508000B500AD0DFF808180AA804F0C0F80AA804F0B2
S31508000B6093F80AA904F0CEFDF6B2002E40F0FD80F7
S31508000B70DFF8281B0AA804F0B1F80AA9002004F037
S31508000B8085F90600F6B2002E03D03000C0B203F095
S31508000B9077BF00200700092F80F2D480002F0FD0DE
S31508000BA0022F35D020D3042F5AD045D3062F00F074
S31508000BB07F8069D3082F00F0A380C0F08D80B3E052
S31508000BC0BDF87E010390D5A8C01C02905BA8C01C86
S31508000BD00190D4A800905AAB0DF5BB72DFF8241B20
S31508000BE00AA805F0DBF99FE0BDF896010390DBA89B
S31508000BF0C01C029061A8C01C0190DAA8009060ABE6
S31508000C000DF5C772DFF8001B0AA805F0C7F98BE0D7
S31508000C10BDF8AE010390E1A8C01C029067A8C01CED
S31508000C200190E0A8009066AB0DF5D372DFF8D81AEC
S31508000C300AA805F0B3F977E0BDF8C6010390E7A85E
S31508000C40C01C02906DA8C01C0190E6A800906CAB71
S31508000C500DF5DF72DFF8B01A0AA805F09FF963E010
S31508000C60BDF8DE010390EDA8C01C029073A8C01C55
S31508000C700190ECA8009072AB0DF5EB72DFF8881ABC
S31508000C800AA805F08BF94FE0BDF8F6010390F3A822
S31508000C90C01C029079A8C01C0190F2A8009078ABFD
S31508000CA00DF5F772DFF8601A0AA805F077F93BE048
S31508000CB0BDF80E020390F9A8C01C02907FA8C01CBC
S31508000CC00190F8A800907EAB81AA921CDFF8381A2A
S31508000CD00AA805F063F927E0BDF826020390FFA8E5
S31508000CE0C01C029085A8C01C0190FEA8009084AB89
S31508000CF087AA921CDFF8101A0AA805F04FF913E024
S31508000D00BDF83E020390FFA81B3002908BA8C01CBA
S31508000D1001900DF5826000908AAB8DAA921CDFF8CF
S31508000D20E8190AA805F03AF90AA9002004F0AEF86D
S31508000D300600F6B2002E03D03000C0B203F0A0BE03
S31508000D407F1C28E7DFF8301B0AA805F027F944A915
S31508000D500AA805F03DF9D3A10AA805F039F9DFF884
S31508000D60641B0AA805F01AF919E018E007F0A3FEB3
S31508000D700600EDB2002D0AD0DFF8E0150AA803F048
S31508000D80ADFF0AA803F080FF0AA904F0BBFCF6B27F
S31508000D90002E04D1DFF8BC1D0AA803F09FFF03F05C
S31508000DA0F5BD5FFA88F8B8F1010F52D142A809F0EB
S31508000DB0C8F80600F6B2002E03D14DA809F048F887
S31508000DC00600F6B2002E26D1DFF8EC1D0AA803F0BD
S31508000DD085FF0AA9002004F059F80600F6B2002E8D
S31508000DE003D03000C0B203F04BBEDFF8D01D0AA80E
S31508000DF005F0D4F844A90AA805F0EAF8A9A10AA8B2
S31508000E0005F0E6F80AA9002004F040F80600F6B254
S31508000E10002E02D105E003F0B9BD3000C0B203F0E0
S31508000E202FBEEDB2002D0CD04DAB42AADFF8F81D4F
S31508000E300AA805F0B3F80AA803F026FF0AA904F0E1
S31508000E4061FC4DAB42AADFF8E41D0AA805F0A6F836
S31508000E509DE16078302824D0312874D0322800F0FB
S31508000E60CA80332800F02A81492840F07D8108F09D
S31508000E70BFFC0600EDB2002D0AD0DFF8E0140AA880
S31508000E8003F02CFF0AA803F0FFFE0AA904F03AFCB7
S31508000E90F6B2002E04D1DFF8CC1D0AA803F01EFF17
S31508000EA075E142A808F07BFD0600F6B2002E03D1D4
S31508000EB04DA808F0F8FC0600F6B2002E26D1DFF899
S31508000EC0DC170AA803F00AFF0AA9002003F0DEFFD0
S31508000ED00600F6B2002E03D03000C0B203F0D0BD33
S31508000EE0DFF894190AA805F059F844A90AA805F0E4
S31508000EF06FF86CA10AA805F06BF80AA9002003F0A0
S31508000F00C5FF0600F6B2002E01D104E03FE130002D
S31508000F10C0B203F0B5BDEDB2002D0CD04DAB42AA60
S31508000F20DFF8FC1D0AA805F039F80AA803F0ACFE9C
S31508000F300AA904F0E7FB4DAB42AADFF8E81D0AA8A8
S31508000F4005F02CF823E1D0A808F01CFE0600F6B23E
S31508000F50002E03D1CCA808F099FD0600F6B2002EA3
S31508000F602CD1DFF8C41D0AA803F0B8FE0AA9002090
S31508000F7003F08CFF0600F6B2002E03D03000C0B294
S31508000F8003F07EBDDFF8A41D0AA805F007F8D2A96C
S31508000F90491C0AA805F01CF842A10AA805F018F889
S31508000FA00AA9002003F072FF0600F6B2002E06D149
S31508000FB009E000BF1067002010880108E7E030004C
S31508000FC0C0B203F05DBDEDB2002D0CD0CCABD0AAFB
S31508000FD0DFF8F81D0AA804F0E1FF0AA803F054FE9A
S31508000FE00AA904F08FFBCCABD0AADFF8E41D0AA847
S31508000FF004F0D4FFCBE0C8A808F0B5FE0600F6B2A8
S31508001000002E03D1C4A808F034FE0600F6B2002E5E
S3150800101027D1DFF8C01D0AA803F060FE0AA9002040
S3150800102003F034FF0600F6B2002E03D03000C0B23B
S3150800103003F026BDDFF8A01D0AA804F0AFFFCAA971
S31508001040491C0AA804F0C4FF16A10AA804F0C0FFA8
S315080010500AA9002003F01AFF0600F6B2002E01D1F5
S3150800106004E094E03000C0B203F00ABDEDB2002DF2
S315080010700CD0C4ABC8AADFF8641D0AA804F08EFF1A
S315080010800AA803F001FE0AA904F03CFBC4ABC8AAEF
S31508001090DFF84C1D0AA804F081FF78E0F0970108F4
S315080010A0D48301080D0A0000848F010880A5010871
S315080010B0A0A50108AC8F0108C0A5010842A808F040
S315080010C040FF0600F6B2002E03D14DA808F0C0FE78
S315080010D00600F6B2002E26D1DFF8DC1A0AA803F0BD
S315080010E0FDFD0AA9002003F0D1FE0600F6B2002E87
S315080010F003D03000C0B203F0C3BCDFF8C01A0AA898
S3150800110004F04CFF44A90AA804F062FFBFA10AA88C
S3150800111004F05EFF0AA9002003F0B8FE0600F6B246
S31508001120002E01D104E032E03000C0B203F0A8BCC2
S31508001130EDB2002D0CD04DAB42AADFF8EC1A0AA886
S3150800114004F02CFF0AA803F09FFD0AA904F0DAFAB6
S315080011504DAB42AADFF8D41A0AA804F01FFF16E01E
S31508001160E0A50108D48F0108EDB2002D0AD0DFF8FA
S315080011700C1E0AA803F0B2FD0AA803F085FD0AA909
S3150800118004F0C0FADFF87C140AA803F0A7FD03F000
S31508001190FDBB00BF00A6010820A60108FC8F0108B8
S315080011A040A6010860A60108249001085FFA88F89D
S315080011B0B8F1010F6CD148A809F02AF90600F6B271
S315080011C0002E04D1FFA8483008F09FFF0600F6B2AB
S315080011D0002E26D1DFF8A81D0AA803F07FFD0AA96C
S315080011E0002003F053FE0600F6B2002E03D03000AE
S315080011F0C0B203F045BCDFF8F81D0AA804F0CEFE1D
S315080012004AA90AA804F0E4FE80A10AA804F0E0FEB0
S315080012100AA9002003F03AFE0600F6B2002E02D113
S3150800122005E003F0B3BB3000C0B203F029BCBDF83B
S315080012303021DFF8C01D0AA804F0B0FE0AA9002074
S3150800124003F024FE0600F6B2002E03D03000C0B22A
S3150800125003F016BCEDB2002D0DD0FFAB483348AAFB
S31508001260DFF8941D0AA804F099FE0AA803F00CFDFD
S315080012700AA904F047FAFFAB483348AADFF87C1DF1
S315080012800AA804F08BFE0DE19CAC0108E0BE01083B
S315080012906078302824D0312800F08C80492840F026
S315080012A0018108F0DFFE0600EDB2002D09D02B49BA
S315080012B00AA803F013FD0AA803F0E6FC0AA904F03D
S315080012C021FAF6B2002E04D1DFF8341D0AA803F07D
S315080012D005FDE7E0BCBC01086CB90108B8AC01081B
S315080012E048A809F095F80600EDB2002D09D01B496B
S315080012F00AA803F0F3FC0AA803F0C6FC0AA904F03E
S3150800130001FAF6B2002E2FD1DFF8741C0AA803F0F2
S31508001310E5FC0AA9002003F0B9FD0600F6B2002E86
S3150800132003D03000C0B203F0ABBBDFF8C41C0AA878
S3150800133004F034FE4AA90AA804F04AFE33A10AA812
S3150800134004F046FE0AA9002003F0A0FD0600F6B246
S31508001350002E0AD10DE000BF1498010880A60108E6
S315080013604C900108749001089CE03000C0B203F06C
S3150800137087BBBDF83021DFF87C1C0AA804F00EFEF6
S315080013800AA9002003F082FD0600F6B2002E03D05B
S315080013903000C0B203F074BBDFF8F81D0AA804F0E9
S315080013A0FDFD48A90AA804F013FE18A10AA804F02E
S315080013B00FFE77E03CA809F02AFB0600EDB2002DE7
S315080013C00AD0DFF8D41D0AA803F088FC0AA803F09F
S315080013D05BFC0AA904F096F9F6B2002E36D1DFF8BE
S315080013E0A01B0AA803F07AFC0AA9002003F04EFD08
S315080013F00600F6B2002E13D03000C0B203F040BB90
S315080014009C9001084888010880B901080D0A000067
S315080014103898010804BB0108C8BC0108C490010833
S3150800142037490AA804F0BAFD0DF1FE010AA804F02E
S31508001430CFFDB6A10AA804F0CBFD0AA9002003F047
S3150800144025FD0600F6B2002E01D104E02AE03000A0
S31508001450C0B203F015BBBDF806212A490AA804F054
S315080014609DFD0AA9002003F011FD0600F6B2002E24
S3150800147003D03000C0B203F003BB4B490AA804F0FE
S315080014808DFD3CA90AA804F0A3FD48490AA804F062
S315080014909FFD0DF1F7010AA804F09AFD9BA10AA881
S315080014A004F096FD03F072BAEDB2002D0AD0DFF80B
S315080014B0E81C0AA803F012FC0AA803F0E5FB0AA92F
S315080014C004F020F9DFF87C1D0AA803F007FC03F0F6
S315080014D05DBAEDB2002D0AD0DFF8BC1C0AA803F0ED
S315080014E0FDFB0AA803F0D0FB0AA904F00BF9DFF804
S315080014F0581D0AA803F0F2FB03F048BAEC9001085D
S3150800150094B90108A0A601083CA809F0B5FC060094
S31508001510F6B2002E03D1BEA809F002FC0600F6B208
S31508001520002E27D1DFF8241D0AA803F0D7FB0AA945
S31508001530002003F0ABFC0600F6B2002E03D0300004
S31508001540C0B203F09DBADFF8081D0AA804F026FD0C
S315080015500DF1FE010AA804F03BFD6CA10AA804F0EF
S3150800156037FD0AA9002003F091FC0600F6B2002E0A
S3150800157002D105E003F00ABA3000C0B203F080BA1F
S31508001580BDF80621DFF8EC1D0AA804F007FD0AA934
S31508001590002003F07BFC0600F6B2002E08D03000CF
S315080015A0C0B203F06DBA00BF14BB010824BB010822
S315080015B0EDB2002D12D0BFA8C01C01900DF1F700A6
S315080015C00090BEAB3CAADFF8041E0AA804F0E6FCAD
S315080015D00AA803F059FB0AA904F094F8BFA8C01C8E
S315080015E001900DF1F7000090BEAB3CAADFF8E01DB4
S315080015F00AA804F0D3FC03F0C9B900BF1491010886
S315080016003C910108C0A601085FFA88F8B8F1010FF5
S3150800161040F08080B4A809F0DFFD0600F6B2002E7F
S3150800162076D1DFF8DC1D0AA803F058FB0AA90020CA
S3150800163003F02CFC0600F6B2002E03D03000C0B230
S3150800164003F01EBADFF8E81D0AA804F0A7FC0AA9E9
S31508001650002003F01BFC0600F6B2002E03D0300073
S31508001660C0B203F00DBADFF8CC1D0AA803F036FBAA
S31508001670BAA90AA804F0ACFC24A10AA804F0A8FC9C
S315080016800AA9002003F002FC0600F6B2002E07D0D5
S315080016903000C0B203F0F4B9D4AC01085C98010874
S315080016A0EDB2002D0ED0B8A80090B6ABB4AADFF8FC
S315080016B0D41D0AA804F072FC0AA803F0E5FA0AA9E0
S315080016C004F020F8DFF8C01D0AA803F007FBB4A948
S315080016D00AA804F07DFCDFF8B41D0AA804F078FC1B
S315080016E0B6A90AA804F074FCDFF8D81D0AA804F005
S315080016F06FFCB8A90AA804F06BFC04A10AA804F0B8
S3150800170067FC63E2F88A0108288B01080D0A0000C5
S3150800171003F03CB96078302800F06181312800F088
S31508001720CF81322800F0FC81332800F01682492840
S3150800173040F047825FFA88F8B8F1020F1AD109F02B
S3150800174049FC0600EDB2002D0AD0DFF84C1A0AA8AB
S3150800175003F0C4FA0AA803F097FA0AA903F0D2FF1D
S31508001760F6B2002E40F03A81DFF85C1D0AA803F0B5
S31508001770B5FA33E1EDB2002D0AD0DFF81C1A0AA833
S3150800178003F0ACFA0AA803F07FFA0AA903F0BAFF35
S315080017905FFA88F8B8F11D0F05D0DFF8C81D0AA84A
S315080017A003F09CFA1AE1A0783A2817D160792E2816
S315080017B014D1207A2E2811D1E07A2E280ED1A07BBA
S315080017C02E280BD1607C2E2808D1207D2E2805D105
S315080017D0E07D2E2802D1A07E2E2805D0DFF8081E2F
S315080017E00AA803F07BFAF9E00020359000200700EC
S315080017F0092F26DA032000FB07F0204490F903009E
S315080018008DF8A800032000FB07F0204490F9040097
S315080018108DF8A90000208DF8AA002AA803F048F937
S31508001820002807D1DFF8C41D0AA803F057FA0120DB
S31508001830359006E02AA803F060F999A9C8557F1CD7
S31508001840D6E79DF86402082805DBDFF8A41D0AA878
S3150800185003F044FABAE19DF8640210F007008DF827
S31508001860CD009DF86502022808DBDFF8001E0AA8ED
S3150800187003F034FAAAE100BFD4AE01089DF8650268
S3150800188010F00100C0B2C0008DF8CC009DF86602C9
S31508001890022805DBDFF8D81D0AA803F01FFA95E130
S315080018A09DF8660210F00100C0B200018DF8CB0069
S315080018B09DF86702022807DBDFF8B81D0AA803F0BF
S315080018C00DFA83E1A8B901089DF8670210F0010036
S315080018D0C0B240018DF8CA009DF86802402805DBB1
S315080018E0DFF80C1E0AA803F0F9F96FE19DF8680203
S315080018F010F03F008DF8C9009DF86902022807DB41
S31508001900DFF8F01D0AA803F0E9F95FE1808801080D
S315080019109DF8690210F00100802148438DF8C8003F
S315080019209DF86A02042805DBDFF8CC1D0AA803F037
S31508001930D5F94BE19DF86A0210F003008DF8B7005F
S315080019409DF86B02042805DBDFF8281E0AA803F0B9
S31508001950C5F93BE19DF86B0210F00300C0B28000A8
S315080019608DF8B6009DF86C02022805DBDFF8081E24
S315080019700AA803F0B3F929E19DF86C0210F00100FA
S31508001980C0B200018DF8B5009DF8CD009DF8CC10C9
S3150800199008189DF8CB1008189DF8CA1008188DF875
S315080019A0EC009DF8C9009DF8C81008188DF8ED00E0
S315080019B09DF8B7009DF8B61008189DF8B5100818D8
S315080019C08DF8EE003BA809F02DFB0600F6B2002EB6
S315080019D004D1DFF8A81D0AA803F080F9F6E0B4A838
S315080019E009F0FAFB0600EDB2002D0AD0DFF8A817B9
S315080019F00AA803F073F90AA803F046F90AA903F03E
S31508001A0081FEF6B2002E5AD1DFF8F4190AA803F0BF
S31508001A1065F90AA9002003F039FA0600F6B2002E85
S31508001A2003D03000C0B203F02BB8DFF8041A0AA8B6
S31508001A3004F0B4FA0AA9002003F028FA0600F6B260
S31508001A40002E03D03000C0B203F01AB8DFF8E4194C
S31508001A500AA803F043F9BAA90AA804F0B9FADAA160
S31508001A600AA804F0B5FA0AA9002003F00FFA06003E
S31508001A70F6B2002E03D03000C0B203F001B8DFF88A
S31508001A80081A0AA803F02AF9B4A90AA804F0A0FAC1
S31508001A90DFF8F8190AA804F09BFAB6A90AA804F010
S31508001AA097FADFF8201A0AA804F092FAB8A90AA841
S31508001AB004F08EFAC4A10AA804F08AFA86E085E042
S31508001AC056A809F042FB0600EDB2002D0AD0DFF851
S31508001AD0C8160AA803F002F90AA803F0D5F80AA955
S31508001AE003F010FEF6B2002E19D1DFF8F01D0AA891
S31508001AF003F0F4F89DF85821DFF8E41D2AA804F04D
S31508001B004DFA2AA90AA804F063FA56A9491C0AA894
S31508001B1004F05EFAACA10AA804F05AFA56E055E0B9
S31508001B2009F0AAFA0600EDB2002D0AD0DFF8681609
S31508001B300AA803F0D3F80AA803F0A6F80AA903F03E
S31508001B40E1FDF6B2002E07D1DFF80C1E0AA803F055
S31508001B50C5F83BE0788C010838E058A809F0AEFAD9
S31508001B600600EDB2002D0AD0DFF82C160AA803F0FD
S31508001B70B5F80AA803F088F80AA903F0C3FDF6B277
S31508001B80002E1DD1DFF8D41D0AA803F0A7F89DF88A
S31508001B906021DFF84C1D2AA804F000FA2AA90AA831
S31508001BA004F016FA58A9491C0AA804F011FA86A1E5
S31508001BB00AA804F00DFA09E064910108ECAE0108E0
S31508001BC004E0DFF8101E0AA803F088F802F0DEBE6B
S31508001BD06078442818D055281FD1042009F068FCDD
S31508001BE0EDB2002D0AD0DFF8B0150AA803F076F892
S31508001BF00AA803F049F80AA903F084FDDFF8D81DFE
S31508001C000AA803F06BF80DE0042009F05FFCDFF882
S31508001C10CC1D0AA803F062F804E0DFF8C41D0AA880
S31508001C2003F05CF802F0B2BEE0A60108F0AC0108C9
S31508001C305FFA88F8B8F1020F16DAEDB2002D0AD06D
S31508001C40DFF854150AA803F049F80AA803F01CF8A7
S31508001C500AA903F057FDDFF8001E0AA803F03EF8AC
S31508001C6002F082BEA48C01086078432800F0F28254
S31508001C70442802F01E82462802F01A86492810D007
S31508001C804B2802F051824C2802F02A864D2802F091
S31508001C90E585522802F02C82552802F0778502F055
S31508001CA052BE5FFA88F8B8F1090F13DAEDB2002DC3
S31508001CB00AD0DFF8E4140AA803F010F80AA802F01C
S31508001CC0E3FF0AA903F01EFDDFF8041E0AA803F0C5
S31508001CD005F8B4E2A078512800F00582C0F0AA827F
S31508001CE0532802D0C0F0D680A4E2E0783A2802D180
S31508001CF0A0792E281CD0EDB2002D0AD0DFF8981452
S31508001D000AA802F0EBFF0AA802F0BEFF0AA903F030
S31508001D10F9FCDFF8341E0AA802F0E0FFB9E000BFBC
S31508001D20809801080CAD0108A4980108BCB90108FF
S31508001D30EDB2002D0AD0DFF860140AA802F0CEFF33
S31508001D400AA802F0A1FF0AA903F0DCFC94F9040032
S31508001D508DF8A80094F905008DF8A90000208DF8E3
S31508001D60AA002AA802F0A4FE002805D1DFF8DC1D87
S31508001D700AA802F0B3FF8CE02AA802F0BEFE319052
S31508001D8094F907008DF8A80094F908008DF8A900C1
S31508001D9000208DF8AA002AA802F08AFE002805D19C
S31508001DA0DFF8AC1D0AA802F099FF72E02AA802F033
S31508001DB0A4FE34903498002814D1319ADFF8941D83
S31508001DC00AA804F0EBF83BE00D0A0000C8980108E1
S31508001DD004AF010800A70108D0B9010820A7010827
S31508001DE0E4B901080020359000200700349887429E
S31508001DF026DA032000FB07F0204490F90A008DF844
S31508001E00A800032000FB07F0204490F90B008DF88A
S31508001E10A90000208DF8AA002AA802F049FE002889
S31508001E2007D1DFF8281D0AA802F058FF01203590CF
S31508001E3006E02AA802F061FE99A9C8557F1CD5E7D5
S31508001E403598002805D1319ADFF8F01D0AA804F064
S31508001E50A5F800200700349887420BDA99A8C25DD6
S31508001E60CEA12AA804F09AF82AA90AA804F0B0F87C
S31508001E707F1CF0E7CAA10AA804F0AAF84FF4FA737F
S31508001E803498020092B299A9319880B209F03DFCC3
S31508001E900600D4E1E0783A2805D1A0792E2802D1A7
S31508001EA0607A2E2812D0EDB2002D09D0BA490AA8B8
S31508001EB002F014FF0AA802F0E7FE0AA903F022FCC2
S31508001EC0DFF8F01D0AA802F009FF0BE1EDB2002DBC
S31508001ED009D0B1490AA802F001FF0AA802F0D4FE07
S31508001EE00AA903F00FFC94F904008DF8A80094F9E8
S31508001EF005008DF8A90000208DF8AA002AA802F08E
S31508001F00D7FD002805D1DFF8241E0AA802F0E6FE50
S31508001F10E8E02AA802F0F1FD319094F907008DF85F
S31508001F20A80094F908008DF8A90000208DF8AA00E9
S31508001F302AA802F0BDFD002805D1DFF8F41D0AA87D
S31508001F4002F0CCFECEE02AA802F0D7FD349094F930
S31508001F500A008DF8A80094F90B008DF8A900002056
S31508001F608DF8AA002AA802F0A3FD00280AD1DFF8F6
S31508001F70381E0AA802F0B2FEB4E000BF40A7010866
S31508001F801CAF01082AA802F0B8FD39903498002839
S31508001F9006D1319ADFF8141E0AA803F0FFFF38E0CD
S31508001FA000203590002007003498874231DA032054
S31508001FB000FB07F0204490F90D008DF8A8000320D7
S31508001FC000FB07F0204490F90E008DF8A9000020C8
S31508001FD08DF8AA002AA802F06BFD002812D1DFF8B6
S31508001FE0D01D0AA802F07AFE0120359011E000BF44
S31508001FF034AF0108EC98010860A701084CAF010846
S31508002000D08C01082AA802F078FD99A9C8557F1C2A
S31508002010CAE73598002805D1319ADFF80C1E0AA8B8
S3150800202003F0BCFF00200700349887420BDA99A812
S31508002030C25D5AA12AA803F0B1FF2AA90AA803F08B
S31508002040C7FF7F1CF0E756A10AA803F0C1FF4FF4AB
S31508002050FA733498020092B299A9319880B209F0BD
S3150800206054FB0600F6B2002E0ED14FF4FA733998D7
S31508002070020092B299A9319880B209F091FB060044
S31508002080F6B2002E05D100E0D9E0142009F0C3FB12
S315080020900600F6B2002E25D10AA9002002F0F6FEA7
S315080020A00600F6B2002E03D03000C0B202F0E8BC3B
S315080020B0DFF8EC1D0AA803F071FF00200700399825
S315080020C087420BDA99A8C25D34A12AA803F066FFF5
S315080020D02AA90AA803F07CFF7F1CF0E730A10AA80A
S315080020E003F076FFABE0E0783A2802D1A0792E28F3
S315080020F012D0EDB2002D09D027490AA802F0EEFD4C
S315080021000AA802F0C1FD0AA903F0FCFADFF8081EC6
S315080021100AA802F0E3FD8CE0EDB2002D09D01E49B5
S315080021200AA802F0DBFD0AA802F0AEFD0AA903F030
S31508002130E9FA94F904008DF8A80094F905008DF8D9
S31508002140A90000208DF8AA002AA802F0B1FC0028F0
S3150800215005D1DFF8C81D0AA802F0C0FD69E02AA863
S3150800216002F0CBFC319094F907008DF8A80094F999
S3150800217008008DF8A90000208DF8AA002AA802F008
S3150800218097FC00280ED1DFF8341E0AA802F0A6FD37
S315080021904FE000BF34BB010880A6010825782E0051
S315080021A00D0A00002AA802F0A8FC3990319ADFF837
S315080021B0FC1B0AA803F0F2FE4FF4FA7339980200E2
S315080021C092B299A9319880B209F0EAFA0600F6B2F5
S315080021D0002E07D1142009F01EFB0600F6B2002EC9
S315080021E027D100E02BE00AA9002002F04FFE0600E6
S315080021F0F6B2002E03D03000C0B202F041BCDFF8C0
S31508002200A01C0AA803F0CAFE0020070039988742D6
S315080022100BDA99A8C25DD4A12AA803F0BFFE2AA9A1
S315080022200AA803F0D5FE7F1CF0E7D0A10AA803F0A0
S31508002230CFFE04E0DFF89C170AA802F04FFD02F073
S3150800224093BB00BF588B010864AF0108F8B90108B1
S3150800225094B90108002006005FFA88F8B8F1020F61
S3150800226040F0EA80052005F009FC002804D05AA8A9
S3150800227006F06CFC06000BE0062005F0FFFB0028C4
S3150800228004D05AA805F093FD060001E001200600D7
S31508002290F6B2002E40F0B6803CA808F041FD0600D4
S315080022A0F6B2002E40F0968048A807F02EFF0600EA
S315080022B0F6B2002E75D1ADA803F0C2FE0600F6B23E
S315080022C0002E59D1EDB2002D25D0ADA8099048A809
S315080022D008903CA807905AA806908AA8059084A852
S315080022E004907EA8039078A8029072A801906CA822
S315080022F0009066AB60AADFF8881D0AA803F04EFEB8
S31508002300DFF8801D0AA802F0E9FC0AA802F0BCFC66
S315080023100AA903F0F7F9ADA8099048A808903CA8BF
S3150800232007905AA806908AA8059084A804907EA8C3
S31508002330039078A8029072A801906CA8009066ABEA
S3150800234060AADFF8441D0AA803F028FE0AA900209F
S3150800235002F09CFD0600F6B2002E03D03000C0B293
S3150800236002F08EBBDFF8341E0AA803F017FE01F050
S315080023709EBE00BFA0A60108EDB2002D0AD0DFF868
S31508002380201E0AA802F0AAFC0AA802F07DFC0AA9E7
S3150800239003F0B8F9DFF80C1E0AA803F0FFFD01F0F8
S315080023A086BEEDB2002D0AD0DFF8FC1D0AA802F0A1
S315080023B095FC0AA802F068FC0AA903F0A3F9DFF85D
S315080023C0EC1D0AA803F0EAFD01F071BEFC8C0108B9
S315080023D08C910108EDB2002D0AD0DFF8D41D0AA8A9
S315080023E002F07CFC0AA802F04FFC0AA903F08AF95D
S315080023F0DFF8C01D0AA803F0D1FD01F058BE00BFE2
S3150800240028AD0108EDB2002D0AD0DFF8401E0AA853
S3150800241002F064FC0AA802F037FC0AA903F072F974
S31508002420DFF82C1E0AA803F0B9FD01F040BE00BF74
S31508002430B888010844BB0108A078492801F00A8633
S31508002440522800F0E785532804D0542801F09D85CA
S3150800245001F02DBEE0783A281AD0EDB2002D0AD048
S31508002460DFF8F01D0AA802F039FC0AA802F00CFCF5
S315080024700AA903F047F9DFF8E01D0AA802F02EFCC6
S3150800248000F0C6BD288D0108D4BC0108E0BC0108CF
S315080024905FFA88F8B8F1050F18DAEDB2002D0AD000
S315080024A0DFF84C1E0AA802F019FC0AA802F0ECFB99
S315080024B00AA903F027F9DFF83C1E0AA802F00EFC69
S315080024C000F0A6BDECBC010844830108201D30902D
S315080024D0309951A802F002FC00202990002028908B
S315080024E028A8009029AB36AADFF80C1E51A809F0D7
S315080024F0D9FA032840F07A85289809F0E5FACDE953
S315080025000201299809F0E0FACDE9000136AADFF8B8
S31508002510EC1D0AA803F042FD0422DFF8E41D36A8E4
S3150800252009F0F9FA002838D1299A2899002009F0E3
S315080025306FFB0600F6B2002E1AD1EDB2002D0AD0B6
S31508002540DFF8541E0AA802F0C9FB0AA802F09CFB91
S315080025500AA903F0D7F8DFF8441E0AA803F01EFDFF
S3150800256000F041BD1884010825782E000D0A0000E8
S31508002570EDB2002D0AD0DFF8281E0AA802F0AEFB3D
S315080025800AA802F081FB0AA903F0BCF8DFF8141EBA
S315080025900AA803F003FD00F026BD0422DFF8081E92
S315080025A036A809F0B8FA002839D1299A28990120BD
S315080025B009F02EFB0600F6B2002E1BD1EDB2002D57
S315080025C00AD0DFF8E81D0AA802F088FB0AA802F07C
S315080025D05BFB0AA903F096F8DFF8681E0AA803F061
S315080025E0DDFC00F000BD00BF8C83010820850108D2
S315080025F020870108EDB2002D0AD0DFF84C1E0AA884
S3150800260002F06CFB0AA802F03FFB0AA903F07AF86D
S31508002610DFF8901D0AA803F0C1FC00F0E4BC042210
S31508002620DFF8281E36A809F076FA002839D1299A43
S315080026302899022009F0ECFA0600F6B2002E1BD102
S31508002640EDB2002D0AD0DFF8081E0AA802F046FBF4
S315080026500AA802F019FB0AA903F054F8DFF8F41DDA
S315080026600AA803F09BFC00F0BEBC00BF5C8701080B
S3150800267098870108F0880108EDB2002D0AD0DFF826
S315080026806C1E0AA802F02AFB0AA802F0FDFA0AA99B
S3150800269003F038F8DFF80C1D0AA803F07FFC00F0F9
S315080026A0A2BC0422DFF8481E36A809F034FA00282E
S315080026B039D1299A2899032009F0AAFA0600F6B210
S315080026C0002E1BD1EDB2002D0AD0DFF8281E0AA86D
S315080026D002F004FB0AA802F0D7FA0AA903F012F8D6
S315080026E0DFF8141E0AA803F059FC00F07CBC00BFF2
S315080026F060850108A0850108E0850108EDB2002D76
S315080027000AD0DFF8F81D0AA802F0E8FA0AA802F0CB
S31508002710BBFA0AA902F0F6FFDFF8881C0AA803F03C
S315080027203DFC00F060BC0422DFF8681E36A809F0FC
S31508002730F2F9002839D1299A2899042009F068FA6B
S315080027400600F6B2002E1BD1EDB2002D0AD0DFF836
S31508002750481E0AA802F0C2FA0AA802F095FA0AA9BF
S3150800276002F0D0FFDFF8341E0AA803F017FC00F0C9
S315080027703ABC00BF20860108608601085C8401080F
S31508002780EDB2002D0AD0DFF8181E0AA802F0A6FA44
S315080027900AA802F079FA0AA902F0B4FFDFF8041CC5
S315080027A00AA803F0FBFB00F01EBC0422DFF8F41DA8
S315080027B036A809F0B0F9002831D1299A28990520B8
S315080027C009F026FA0600F6B2002E14D1EDB2002D55
S315080027D00AD0DFF8681E0AA802F080FA0AA802F0F2
S315080027E053FA0AA902F08EFFDFF8541E0AA803F06E
S315080027F0D5FB00F0F8BBEDB2002D0AD0DFF8441E79
S315080028000AA802F06BFA0AA802F03EFA0AA902F030
S3150800281079FFDFF8901B0AA803F0C0FBE3E3042264
S31508002820DFF8241E36A809F076F9002830D1299A4F
S315080028302899062009F0ECF90600F6B2002E13D105
S31508002840EDB2002D0AD0DFF8041E0AA802F046FAF7
S315080028500AA802F019FA0AA902F054FFDFF8841E42
S315080028600AA803F09BFBBEE3EDB2002D0AD0DFF801
S31508002870781E0AA802F032FA0AA802F005FA0AA98E
S3150800288002F040FFDFF81C1B0AA803F087FBAAE347
S315080028900422DFF8581E36A809F03DF9002835D17C
S315080028A0299A2899072009F0B3F90600F6B2002EEE
S315080028B018D1EDB2002D0AD0DFF8341E0AA802F0AE
S315080028C00DFA0AA802F0E0F90AA902F01BFFDFF8E0
S315080028D0241E0AA803F062FB85E300BF80A701084F
S315080028E0E8BE0108EDB2002D0AD0DFF89C1E0AA842
S315080028F002F0F4F90AA802F0C7F90AA902F002FFE1
S31508002900DFF8A01A0AA803F049FB6CE30422DFF8F3
S315080029107C1E36A809F0FFF8002835D1299A28998F
S31508002920082009F075F90600F6B2002E18D1EDB2A6
S31508002930002D0AD0DFF8581E0AA802F0CFF90AA817
S3150800294002F0A2F90AA902F0DDFEDFF8481E0AA87D
S3150800295003F024FB47E300BF948901081099010896
S31508002960EDB2002D0AD0DFF8301E0AA802F0B6F93B
S315080029700AA802F089F90AA902F0C4FEDFF8241AA7
S315080029800AA803F00BFB2EE30422DFF8A01E36A8E4
S3150800299009F0C1F8002839D1299A2899092009F09F
S315080029A037F90600F6B2002E1CD1EDB2002D0AD07A
S315080029B0DFF87C1E0AA802F091F90AA802F064F969
S315080029C00AA902F09FFEDFF86C1E0AA803F0E6FAD1
S315080029D009E300BFC0A60108A0A70108C0A701080F
S315080029E0548D0108EDB2002D0AD0DFF84C1E0AA856
S315080029F002F074F90AA802F047F90AA902F082FE61
S31508002A00DFF8A0190AA803F0C9FAECE20422DFF8F5
S31508002A102C1E36A809F07FF8002833D1299A289960
S31508002A200A2009F0F5F80600F6B2002E16D1EDB226
S31508002A30002D0AD0DFF8981E0AA802F04FF90AA856
S31508002A4002F022F90AA902F05DFEDFF8881E0AA83C
S31508002A5003F0A4FAC7E200BFE0A70108EDB2002D13
S31508002A600AD0DFF8741E0AA802F038F90AA802F09C
S31508002A700BF90AA902F046FEDFF828190AA803F09E
S31508002A808DFAB0E20422DFF8541E36A809F043F89E
S31508002A90002833D1299A28990B2009F0B9F806009D
S31508002AA0F6B2002E16D1EDB2002D0AD0DFF8301E90
S31508002AB00AA802F013F90AA802F0E6F80AA902F031
S31508002AC021FEDFF8B01E0AA803F068FA8BE200BF01
S31508002AD0B4910108EDB2002D0AD0DFF89C1E0AA8B1
S31508002AE002F0FCF80AA802F0CFF80AA902F00AFEDA
S31508002AF0DFF8B0180AA803F051FA74E20422DFF8E6
S31508002B007C1E36A809F007F8002839D1299A289991
S31508002B100C2009F07DF80600F6B2002E1CD1EDB2A5
S31508002B20002D0AD0DFF8581E0AA802F0D7F80AA81E
S31508002B3002F0AAF80AA902F0E5FDDFF8481E0AA87D
S31508002B4003F02CFA4FE200BFDC910108808D0108E2
S31508002B50C88901087CAF0108EDB2002D0AD0DFF85C
S31508002B60B81E0AA802F0BAF80AA802F08DF80AA94F
S31508002B7002F0C8FDDFF82C180AA803F00FFA32E2B3
S31508002B800422DFF8981E36A808F0C5FF002830D1C1
S31508002B90299A28990D2009F03BF80600F6B2002E6E
S31508002BA013D1EDB2002D0AD0DFF8741E0AA802F080
S31508002BB095F80AA802F068F80AA902F0A3FDDFF85A
S31508002BC0641E0AA803F0EAF90DE2EDB2002D0AD058
S31508002BD0DFF8541E0AA802F081F80AA802F054F891
S31508002BE00AA902F08FFDDFF8BC170AA803F0D6F988
S31508002BF0F9E10422DFF8C41E36A808F08CFF002885
S31508002C0032D1299A28990E2009F002F80600F6B260
S31508002C10002E15D1EDB2002D0AD0DFF8A41E0AA8A1
S31508002C2002F05CF80AA802F02FF80AA902F06AFD79
S31508002C30DFF8901E0AA803F0B1F9D4E10CBA01082E
S31508002C40EDB2002D0AD0DFF8801E0AA802F046F879
S31508002C500AA802F019F80AA902F054FDDFF8441789
S31508002C600AA803F09BF9BEE10422DFF8601E36A825
S31508002C7008F051FF002833D1299A28990F2008F027
S31508002C80C7FF0600F6B2002E16D1EDB2002D0AD007
S31508002C90DFF8CC1E0AA802F021F80AA801F0F4FF12
S31508002CA00AA902F02FFDDFF8BC1E0AA803F076F980
S31508002CB099E100BF04920108EDB2002D0AD0DFF8B1
S31508002CC0A81E0AA802F00AF80AA801F0DDFF0AA958
S31508002CD002F018FDDFF8CC160AA803F05FF982E1C6
S31508002CE00422DFF8881E36A808F015FF002835D11B
S31508002CF0299A2899102008F08BFF0600F6B2002EB4
S31508002D0018D1EDB2002D0AD0DFF8641E0AA801F02A
S31508002D10E5FF0AA801F0B8FF0AA902F0F3FCDFF8FC
S31508002D20541E0AA803F03AF95DE100BFAC8D01080C
S31508002D30FC890108EDB2002D0AD0DFF8CC1E0AA8DE
S31508002D4001F0CCFF0AA801F09FFF0AA902F0DAFCFD
S31508002D50DFF850160AA803F021F944E10422DFF847
S31508002D60AC1E36A808F0D7FE002837D1299A28992C
S31508002D70112008F04DFF0600F6B2002E1AD1EDB26A
S31508002D80002D0AD0DFF8881E0AA801F0A7FF0AA8B6
S31508002D9001F07AFF0AA902F0B5FCDFF8781E0AA846
S31508002DA003F0FCF81FE100BFD487010894AF0108BF
S31508002DB02C920108EDB2002D0AD0DFF85C1E0AA895
S31508002DC001F08CFF0AA801F05FFF0AA902F09AFC3D
S31508002DD0DFF8D0150AA803F0E1F804E10422DFF8C9
S31508002DE0CC1E36A808F097FE002833D1299A2899D0
S31508002DF0122008F00DFF0600F6B2002E16D1EDB22D
S31508002E00002D0AD0DFF8A81E0AA801F067FF0AA855
S31508002E1001F03AFF0AA902F075FCDFF8981E0AA825
S31508002E2003F0BCF8DFE000BF20BA0108EDB2002DC0
S31508002E300AD0DFF8841E0AA801F050FF0AA801F09C
S31508002E4023FF0AA902F05EFCDFF858150AA803F06A
S31508002E50A5F8C8E00422DFF8641E36A808F05BFE71
S31508002E60002833D1299A2899132008F0D1FE0600A4
S31508002E70F6B2002E16D1EDB2002D0AD0DFF8D01E1C
S31508002E800AA801F02BFF0AA801F0FEFE0AA902F023
S31508002E9039FCDFF8C01E0AA803F080F8A3E000BFDB
S31508002EA0F8BC0108EDB2002D0AD0DFF8AC1E0AA85E
S31508002EB001F014FF0AA801F0E7FE0AA902F022FCB5
S31508002EC0DFF8E0140AA803F069F88CE00422DFF8BA
S31508002ED08C1E36A808F01FFE002835D1299A289995
S31508002EE0142008F095FE0600F6B2002E18D1EDB2B1
S31508002EF0002D0AD0DFF8F81E0AA801F0EFFE0AA88E
S31508002F0001F0C2FE0AA902F0FDFBDFF8E81E0AA8D6
S31508002F1003F044F867E000BF54920108D88D010811
S31508002F20EDB2002D0AD0DFF8D01E0AA801F0D6FEB1
S31508002F300AA801F0A9FE0AA902F0E4FBDFF8641466
S31508002F400AA803F02BF84EE00422DFF8B01E36A8D4
S31508002F5008F0E1FD002833D1299A2899152008F0B0
S31508002F6057FE0600F6B2002E13D1EDB2002D0AD098
S31508002F70DFF88C1E0AA801F0B1FE0AA801F084FE4B
S31508002F800AA902F0BFFBDFF87C1E0AA803F006F8C0
S31508002F9029E0EDB2002D0AD0DFF8FC1E0AA801F0E0
S31508002FA09DFE0AA801F070FE0AA902F0ABFBDFF845
S31508002FB0F4130AA802F0F2FF15E000BF308A0108F0
S31508002FC0EDB2002D0AD0DFF8D41E0AA801F086FE5D
S31508002FD00AA801F059FE0AA902F094FBDFF8C01E00
S31508002FE00AA802F0DBFF0020060011E0EDB2002D72
S31508002FF009D0BF490AA801F071FE0AA801F044FEEB
S315080030000AA902F07FFBDFF89C1E0AA801F066FEFB
S3150800301001F04DB8EDB2002D0DD008F02BFE0200E0
S31508003020DFF8841E0AA802F0B9FF0AA801F02CFEF0
S315080030300AA902F067FB08F01DFE0200DFF8141F5C
S315080030400AA802F0ABFF0AA9002001F01FFF06003C
S31508003050F6B2002E03D03000C0B201F011BDDFF881
S31508003060F81E0AA802F09AFF0AA9002001F00EFF2E
S315080030700600F6B2002E09D03000C0B201F000BD3D
S31508003080A086010880A601087C9201080020070096
S31508003090162F80F26687002F36D0022F00F0DE80CA
S315080030A0C0F08A80042F00F08381C0F02B81062FA0
S315080030B000F02682C0F0D081082F00F0C982C0F047
S315080030C073820A2F00F06A83C0F016830C2F00F073
S315080030D00984C0F0B5830E2F00F0A884C0F054848C
S315080030E0102F00F04985C0F0F384122F00F0E88510
S315080030F0C0F09485142F00F08786C0F03186152F0E
S3150800310000F0D48600F019BFEDB2002D24D03800A7
S31508003110C0B208F09EFD83463800C0B208F09FFD95
S3150800312081463800C0B208F0A0FD8246584608F02D
S31508003130CBFCCDE90201484608F0C6FCCDE9000102
S315080031405246DFF8E41E0AA802F028FF0AA801F092
S315080031509BFD0AA902F0D6FA3800C0B208F079FD3C
S3150800316083463800C0B208F07AFD81463800C0B2FE
S3150800317008F07BFD8246584608F0A6FCCDE9020118
S31508003180484608F0A1FCCDE900015246DFF8F41ED6
S315080031900AA802F003FF00F0D0BE00BF04BD010874
S315080031A0A4920108ACAF0108CC920108C4AF01088B
S315080031B0048E010834990108EDB2002D24D0380098
S315080031C0C0B208F046FD83463800C0B208F047FD95
S315080031D081463800C0B208F048FD8246584608F0D5
S315080031E073FCCDE90201484608F06EFCCDE9000102
S315080031F05246DFF8F81E0AA802F0D0FE0AA801F027
S3150800320043FD0AA902F07EFA3800C0B208F021FD93
S3150800321083463800C0B208F022FD81463800C0B2A5
S3150800322008F023FD8246584608F04EFCCDE9020117
S31508003230484608F049FCCDE900015246DFF8E41E8D
S315080032400AA802F0ABFE00F078BE00BFF4920108AF
S315080032505899010800A801081C930108EDB2002D31
S3150800326024D03800C0B208F0F4FC83463800C0B257
S3150800327008F0F5FC81463800C0B208F0F6FC824634
S31508003280584608F021FCCDE90201484608F01CFC26
S31508003290CDE900015246DFF8C81E0AA802F07EFEF4
S315080032A00AA801F0F1FC0AA902F02CFA3800C0B20B
S315080032B008F0CFFC83463800C0B208F0D0FC81463F
S315080032C03800C0B208F0D1FC8246584608F0FCFB2C
S315080032D0CDE90201484608F0F7FBCDE90001524660
S315080032E0DFF8D81E0AA802F059FE00F026BE00BF75
S315080032F07C990108A099010810BD0108DCAF0108F6
S31508003300F0BE0108EDB2002D24D03800C0B208F096
S31508003310A0FC83463800C0B208F0A1FC81463800FC
S31508003320C0B208F0A2FC8246584608F0CDFBCDE9AB
S315080033300201484608F0C8FBCDE900015246DFF80D
S31508003340801E0AA802F02AFE0AA801F09DFC0AA916
S3150800335002F0D8F93800C0B208F07BFC8346380082
S31508003360C0B208F07CFC81463800C0B208F07DFC8B
S315080033708246584608F0A8FBCDE90201484608F0FF
S31508003380A3FBCDE900015246DFF8381E0AA802F071
S3150800339005FE00F0D2BD00BFC499010844AD01087E
S315080033A04493010860AD0108F8BE010820A8010889
S315080033B0EDB2002D24D03800C0B208F04AFC83468E
S315080033C03800C0B208F04BFC81463800C0B208F09D
S315080033D04CFC8246584608F077FBCDE90201484680
S315080033E008F072FBCDE900015246DFF8881E0AA8EC
S315080033F002F0D4FD0AA801F047FC0AA902F082F9F6
S315080034003800C0B208F025FC83463800C0B208F080
S3150800341026FC81463800C0B208F027FC824658468A
S3150800342008F052FBCDE90201484608F04DFBCDE90C
S3150800343000015246DFF89C1E0AA802F0AFFD00F014
S315080034407CBD00BFF4AF0108E899010800BF010878
S3150800345040A8010834BA0108EDB2002D24D038007E
S31508003460C0B208F0F6FB83463800C0B208F0F7FB96
S3150800347081463800C0B208F0F8FB8246584608F084
S3150800348023FBCDE90201484608F01EFBCDE9000101
S315080034905246DFF8441E0AA802F080FD0AA801F089
S315080034A0F3FB0AA902F02EF93800C0B208F0D1FBE6
S315080034B083463800C0B208F0D2FB81463800C0B255
S315080034C008F0D3FB8246584608F0FEFACDE9020119
S315080034D0484608F0F9FACDE900015246DFF8FC1D26
S315080034E00AA802F05BFD00F028BD00BF0C9A01088F
S315080034F008BF010860A801080CB00108309A010845
S31508003500EDB2002D24D03800C0B208F0A2FB8346E5
S315080035103800C0B208F0A3FB81463800C0B208F0F4
S31508003520A4FB8246584608F0CFFACDE90201484680
S3150800353008F0CAFACDE900015246DFF8AC1E0AA81F
S3150800354002F02CFD0AA801F09FFB0AA902F0DAF89E
S315080035503800C0B208F07DFB83463800C0B208F0D8
S315080035607EFB81463800C0B208F07FFB824658468B
S3150800357008F0AAFACDE90201484608F0A5FACDE90D
S3150800358000015246DFF8641E0AA802F007FD00F0A3
S31508003590D4BC00BF10BF010880A8010848BA0108BA
S315080035A0549A010818BF0108EDB2002D24D038003E
S315080035B0C0B208F04EFB83463800C0B208F04FFB95
S315080035C081463800C0B208F050FB8246584608F0DB
S315080035D07BFACDE90201484608F076FACDE9000102
S315080035E05246DFF86C1E0AA802F0D8FC0AA801F0B9
S315080035F04BFB0AA902F086F83800C0B208F029FB8E
S3150800360083463800C0B208F02AFB81463800C0B2AB
S3150800361008F02BFB8246584608F056FACDE9020117
S31508003620484608F051FACDE900015246DFF8701E07
S315080036300AA802F0B3FC00F080BC00BFA0A80108ED
S315080036405CBA0108789A010820BF01089C9A01080B
S31508003650EDB2002D24D03800C0B208F0FAFA83463D
S315080036603800C0B208F0FBFA81463800C0B208F04C
S31508003670FCFA8246584608F027FACDE90201484680
S3150800368008F022FACDE900015246DFF8741E0AA8AE
S3150800369002F084FC0AA801F0F7FA0AA902F032F847
S315080036A03800C0B208F0D5FA83463800C0B208F030
S315080036B0D6FA81463800C0B208F0D7FA824658468C
S315080036C008F002FACDE90201484608F0FDF9CDE90D
S315080036D000015246DFF82C1E0AA802F05FFC00F033
S315080036E02CBC00BF24B001086C93010828BF010850
S315080036F0C09A01083CB00108EDB2002D24D038006C
S31508003700C0B208F0A6FA83463800C0B208F0A7FA95
S3150800371081463800C0B208F0A8FA8246584608F032
S31508003720D3F9CDE90201484608F0CEF9CDE9000102
S315080037305246DFF8D41D0AA802F030FC0AA801F0A8
S31508003740A3FA0AA901F0DEFF3800C0B208F081FA30
S3150800375083463800C0B208F082FA81463800C0B203
S3150800376008F083FA8246584608F0AEF9CDE9020118
S31508003770484608F0A9F9CDE900015246DFF8701E5F
S315080037800AA802F00BFCD8E39493010830BF01089D
S31508003790E49A010854B00108BC930108EDB2002D63
S315080037A024D03800C0B208F054FA83463800C0B2B4
S315080037B008F055FA81463800C0B208F056FA824633
S315080037C0584608F081F9CDE90201484608F07CF927
S315080037D0CDE900015246DFF81C1E0AA802F0DEFBFE
S315080037E00AA801F051FA0AA901F08CFF3800C0B204
S315080037F008F02FFA83463800C0B208F030FA81463E
S315080038003800C0B208F031FA8246584608F05CF92A
S31508003810CDE90201484608F057F9CDE900015246BC
S31508003820DFF8441E0AA802F0B9FB86E338BF010890
S31508003830089B01086CB00108E493010840BF010821
S31508003840EDB2002D24D03800C0B208F002FA834643
S315080038503800C0B208F003FA81463800C0B208F052
S3150800386004FA8246584608F02FF9CDE9020148467F
S3150800387008F02AF9CDE900015246DFF8481E0AA8E1
S3150800388002F08CFB0AA801F0FFF90AA901F03AFF39
S315080038903800C0B208F0DDF983463800C0B208F037
S315080038A0DEF981463800C0B208F0DFF9824658468C
S315080038B008F00AF9CDE90201484608F005F9CDE90C
S315080038C000015246DFF8341E0AA802F067FB34E30B
S315080038D0C0A8010884B001082C9B010848BF01084C
S315080038E0509B0108EDB2002D24D03800C0B208F074
S315080038F0B0F983463800C0B208F0B1F981463800FD
S31508003900C0B208F0B2F98246584608F0DDF8CDE9AB
S315080039100201484608F0D8F8CDE900015246DFF81A
S315080039203C1E0AA802F03AFB0AA801F0ADF90AA95A
S3150800393001F0E8FE3800C0B208F08BF9834638007B
S31508003940C0B208F08CF981463800C0B208F08DF98B
S315080039508246584608F0B8F8CDE90201484608F00C
S31508003960B3F8CDE900015246DFF8F41D0AA802F0C3
S3150800397015FBE2E29CB001080C94010850BF01084F
S31508003980749B0108B4B00108EDB2002D24D03800AC
S31508003990C0B208F05EF983463800C0B208F05FF995
S315080039A081463800C0B208F060F98246584608F0E9
S315080039B08BF8CDE90201484608F086F8CDE9000102
S315080039C05246DFF8381E0AA802F0E8FA0AA801F0FB
S315080039D05BF90AA901F096FE3800C0B208F039F979
S315080039E083463800C0B208F03AF981463800C0B2BA
S315080039F008F03BF98246584608F066F8CDE9020118
S31508003A00484608F061F8CDE900015246DFF8201E65
S31508003A100AA802F0C3FA90E23494010858BF0108D4
S31508003A20E0A80108CCB00108989B0108EDB2002D6A
S31508003A3024D03800C0B208F00CF983463800C0B26A
S31508003A4008F00DF981463800C0B208F00EF9824632
S31508003A50584608F039F8CDE90201484608F034F826
S31508003A60CDE900015246DFF8301E0AA802F096FAA0
S31508003A700AA801F009F90AA901F044FE3800C0B203
S31508003A8008F0E7F883463800C0B208F0E8F881463F
S31508003A903800C0B208F0E9F88246584608F014F82B
S31508003AA0CDE90201484608F00FF8CDE90001524673
S31508003AB0DFF8281E0AA802F071FA3EE260BF010884
S31508003AC0BC9B0108E4B001085C94010868BF0108C2
S31508003AD0EDB2002D24D03800C0B208F0BAF88346FB
S31508003AE03800C0B208F0BBF881463800C0B208F00A
S31508003AF0BCF88246584607F0E7FFCDE9020148467A
S31508003B0007F0E2FFCDE900015246DFF8301E0AA8A9
S31508003B1002F044FA0AA801F0B7F80AA901F0F2FD82
S31508003B203800C0B208F095F883463800C0B208F0ED
S31508003B3096F881463800C0B208F097F8824658468B
S31508003B4007F0C2FFCDE90201484607F0BDFFCDE9FF
S31508003B5000015246DFF8E81D0AA802F01FFAECE158
S31508003B60E09B0108FCB001088494010870BF0108B5
S31508003B70049C010814B10108EDB2002D24D03800C8
S31508003B80C0B208F066F883463800C0B208F067F895
S31508003B9081463800C0B208F068F88246584607F0F1
S31508003BA093FFCDE90201484607F08EFFCDE90001F3
S31508003BB05246DFF8EC1D0AA802F0F0F90AA801F04F
S31508003BC063F80AA901F09EFD3800C0B208F041F872
S31508003BD083463800C0B208F042F881463800C0B2C1
S31508003BE008F043F88246584607F06EFFCDE9020111
S31508003BF0484607F069FFCDE900015246DFF8F01D97
S31508003C000AA802F0CBF998E1AC94010878BF01083C
S31508003C10289C01082CB10108D4940108EDB2002DA6
S31508003C2024D03800C0B208F014F883463800C0B271
S31508003C3008F015F881463800C0B208F016F8824632
S31508003C40584607F041FFCDE90201484607F03CFF18
S31508003C50CDE900015246DFF8DC1D0AA802F09EF9FC
S31508003C600AA801F011F80AA901F04CFD3800C0B203
S31508003C7007F0EFFF83463800C0B207F0F0FF814631
S31508003C803800C0B207F0F1FF8246584607F01CFF1D
S31508003C90CDE90201484607F017FFCDE90001524673
S31508003CA0DFF8941D0AA802F079F946E180BF0108F9
S31508003CB04C9C010844B10108FC94010888BF01081E
S31508003CC0EDB2002D24D03800C0B207F0C2FF8346FB
S31508003CD03800C0B207F0C3FF81463800C0B207F00B
S31508003CE0C4FF8246584607F0EFFECDE90201484672
S31508003CF007F0EAFECDE900015246DFF8901D0AA852
S31508003D0002F04CF90AA800F0BFFF0AA901F0FAFC74
S31508003D103800C0B207F09DFF83463800C0B207F0EE
S31508003D209EFF81463800C0B207F09FFF824658467C
S31508003D3007F0CAFECDE90201484607F0C5FECDE9FF
S31508003D4000015246DFF8481D0AA802F027F9F4E0F8
S31508003D50709C01085CB101082495010890BF010810
S31508003D60EDB2002D24D03800C0B207F072FF8346AA
S31508003D703800C0B207F073FF81463800C0B207F0BA
S31508003D8074FF8246584607F09FFECDE90201484671
S31508003D9007F09AFECDE900015246DFF8F81C0AA89A
S31508003DA002F0FCF80AA800F06FFF0AA901F0AAFCC5
S31508003DB03800C0B207F04DFF83463800C0B207F09E
S31508003DC04EFF81463800C0B207F04FFF824658467C
S31508003DD007F07AFECDE90201484607F075FECDE9FF
S31508003DE000015246DFF8B01C0AA802F0D7F8A4E092
S31508003DF0949C010874B101084C95010898BF010804
S31508003E00B89C01088CB10108EDB2002D24D0380009
S31508003E10C0B207F01EFF83463800C0B207F01FFF86
S31508003E2081463800C0B207F020FF8246584607F0A0
S31508003E304BFECDE90201484607F046FECDE90001F2
S31508003E405246DFF8581C0AA802F0A8F80AA800F09B
S31508003E501BFF0AA901F056FC3800C0B207F0F9FEAC
S31508003E6083463800C0B207F0FAFE81463800C0B271
S31508003E7007F0FBFE8246584607F026FECDE902010A
S31508003E80484607F021FECDE900015246DFF8101C2E
S31508003E900AA802F083F850E074950108DC9C010832
S31508003EA000A90108888B010854BB0108EDB2002D52
S31508003EB024D03800C0B207F0CCFE83463800C0B222
S31508003EC007F0CDFE81463800C0B207F0CEFE824626
S31508003ED0584607F0F9FDCDE90201484607F0F4FD1A
S31508003EE0CDE900015246DFF8BC1B0AA802F056F8D5
S31508003EF00AA800F0C9FE0AA901F004FC3800C0B2FD
S31508003F0007F0A7FE83463800C0B207F0A8FE814630
S31508003F103800C0B207F0A9FE8246584607F0D4FD1D
S31508003F20CDE90201484607F0CFFDCDE9000152462A
S31508003F30DFF8741B0AA802F031F80AA9002000F07D
S31508003F40A5FF0600F6B2002E08D03000C0B200F079
S31508003F5097BD00BF20A90108009D01087F1CFFF737
S31508003F6097B8EDB2002D0AD0DFF8401B0AA800F07A
S31508003F70B5FE0AA800F088FE0AA901F0C3FBDFF81F
S31508003F80D81B0AA802F00AF891E0E0783A2813D07C
S31508003F90EDB2002D0AD0DFF8C41B0AA800F09EFE79
S31508003FA00AA800F071FE0AA901F0ACFBDFF8B01B05
S31508003FB00AA800F093FE4CE05FFA88F8B8F1050FFE
S31508003FC013DAEDB2002D0AD0DFF8981B0AA800F024
S31508003FD085FE0AA800F058FE0AA901F093FBDFF84F
S31508003FE0881B0AA800F07AFE33E0201D309030992D
S31508003FF051A800F073FE309807F023FE0600F6B2CB
S31508004000002E13D0EDB2002D0AD0DFF8601B0AA8E7
S3150800401000F064FE0AA800F037FE0AA901F072FB58
S315080040203000C0B200F02CBDA4B10108EDB2002DDD
S315080040300AD0DFF83C1B0AA800F050FE0AA800F0D8
S3150800404023FE0AA901F05EFBDFF80C1B0AA801F0A3
S31508004050A5FF2CE007F091FD0600F6B2002E13D05E
S31508004060EDB2002D0AD0DFF80C1B0AA800F036FEC8
S315080040700AA800F009FE0AA901F044FB3000C0B204
S3150800408000F0FEBCBCB10108EDB2002D0AD0DFF885
S31508004090E81A0AA800F022FE0AA800F0F5FD0AA907
S315080040A001F030FBDFF8B01A0AA801F077FF00F03C
S315080040B05BBC03F021FDADF8CE00EDB2002D0CD0AF
S315080040C0BDF8CE20DFF8B41A0AA801F067FF0AA8DF
S315080040D000F0DAFD0AA901F015FBBDF8CE20DFF8DD
S315080040E0A01A0AA801F05AFF00F03EBCD4B1010894
S315080040F0EDB2002D0DD0DFF88C1A0AA800F0EEFDFF
S315080041000AA800F0C1FD0AA901F0FCFA642007F02C
S31508004110D1FD07F086FEDFF8701A0AA801F03EFF07
S3150800412000F022BC40A90108002006005FFA88F8C2
S31508004130B8F1040F16DAEDB2002D0AD0DFF84C1AE2
S315080041400AA800F0CBFD0AA800F09EFD0AA901F016
S31508004150D9FADFF83C1A0AA800F0C0FD15E300BF3B
S31508004160ECB10108A078522800F04682532840F0A6
S31508004170F982E078422800F0AC81522806D053280C
S3150800418000F09180542800F017812AE220793A2815
S315080041901AD0EDB2002D0AD0DFF8F8190AA800F0F7
S315080041A09DFD0AA800F070FD0AA901F0ABFADFF838
S315080041B0E8190AA800F092FD74E000BF04B20108ED
S315080041C01CB2010860A901085FFA88F8B8F1060F61
S315080041D010DB01202E90052007005FFA88F8474576
S315080041E00ADAE05D07F04EFE002801D100202E9085
S315080041F07F1CF2E700202E902E98002813D1EDB2EE
S31508004200002D0AD0DFF894190AA800F067FD0AA85D
S3150800421000F03AFD0AA901F075FADFF884190AA830
S3150800422000F05CFD3EE0601D3090309951A800F02A
S3150800423055FD51A807F02BFE2F902F9842F21071CA
S31508004240884202DA2F98002816D5EDB2002D0AD03A
S31508004250DFF848190AA800F041FD0AA800F014FD85
S315080042600AA901F04FFADFF838190AA800F036FD56
S3150800427018E000BF34B201082F9807F0C2FEEDB26D
S31508004280002D0AD0DFF81C190AA800F027FD0AA895
S3150800429000F0FAFC0AA901F035FADFF80C190AA8A9
S315080042A001F07CFEA2E120793A2819D0EDB2002D62
S315080042B00AD0DFF8F8180AA800F010FD0AA800F0DE
S315080042C0E3FC0AA901F01EFADFF8E4180AA800F0D0
S315080042D005FD70E04CB2010864B201087CB2010821
S315080042E05FFA88F8B8F1060F10DB01202E9005203A
S315080042F007005FFA88F847450ADAE05D07F0C2FD6D
S31508004300002801D100202E907F1CF2E700202E9075
S315080043102E98002813D1EDB2002D0AD0DFF8941894
S315080043200AA800F0DBFC0AA800F0AEFC0AA901F016
S31508004330E9F9DFF884180AA800F0D0FC3BE0601D14
S315080043403090309951A800F0C9FC51A807F09FFD9C
S315080043502F902F9842F21071884202DA2F9800287F
S3150800436013D5EDB2002D0AD0DFF848180AA800F0D8
S31508004370B5FC0AA800F088FC0AA901F0C3F9DFF821
S3150800438038180AA800F0AAFC15E02F9807F057FE7F
S31508004390EDB2002D0AD0DFF824180AA800F09EFC1A
S315080043A00AA800F071FC0AA901F0ACF9DFF8F817C1
S315080043B00AA801F0F3FD19E120793A2818D0EDB2E0
S315080043C0002D0AD0DFF8F8170AA800F087FC0AA81B
S315080043D000F05AFC0AA901F095F9DFF8E8170AA8CF
S315080043E000F07CFC74E000BF94B20108ACB201088E
S315080043F05FFA88F8B8F1060F10DB01202E90052029
S3150800440007005FFA88F847450ADAE05D07F03AFDE3
S31508004410002801D100202E907F1CF2E700202E9064
S315080044202E98002816D1EDB2002D0AD0DFF898177D
S315080044300AA800F053FC0AA800F026FC0AA901F015
S3150800444061F9DFF888170AA800F048FC40E000BFC9
S31508004450C4B20108601D3090309951A800F03EFCA6
S3150800446051A807F014FD2F902F9842F21071884238
S3150800447002DA2F98002815D5EDB2002D0AD0DFF8FC
S3150800448048170AA800F02AFC0AA800F0FDFB0AA9AA
S3150800449001F038F9DFF820170AA800F01FFC17E02A
S315080044A0DCB201082F9807F0F1FDEDB2002D0AD015
S315080044B0DFF81C170AA800F011FC0AA800F0E4FBB4
S315080044C00AA901F01FF9DFF8E0160AA801F066FD4F
S315080044D08CE020793A2819D0EDB2002D0AD0DFF801
S315080044E0F4160AA800F0FAFB0AA800F0CDFB0AA900
S315080044F001F008F9DFF8E0160AA800F0EFFB6FE014
S31508004500F4B201080CB3010824B301085FFA88F86D
S31508004510B8F1060F10DB01202E90052007005FFA80
S3150800452088F847450ADAE05D07F0ACFC002801D1B7
S3150800453000202E907F1CF2E700202E902E9800284F
S3150800454013D1EDB2002D0AD0DFF890160AA800F0B4
S31508004550C5FB0AA800F098FB0AA901F0D3F8DFF812
S3150800456080160AA800F0BAFB3AE0601D3090309930
S3150800457051A800F0B3FB51A807F089FC2F902F989B
S31508004580B0F57A7F02DA2F98002813D5EDB2002D00
S315080045900AD0DFF848160AA800F0A0FB0AA800F01F
S315080045A073FB0AA901F0AEF8DFF834160AA800F082
S315080045B095FB15E02F9807F07BFDEDB2002D0AD08C
S315080045C0DFF820160AA800F089FB0AA800F05CFBB1
S315080045D00AA901F097F8DFF8D0150AA801F0DEFC61
S315080045E004E0DFF804160AA800F078FBCDE000BF67
S315080045F03CB3010854B30108E078422800F08080F3
S31508004600522804D0532831D054285DD092E0EDB218
S31508004610002D16D007F05EFD07F08AFDDFF8CC15F1
S3150800462007F096FD07F050FA02000B00DFF8C015F8
S315080046300AA801F0B3FC0AA800F026FB0AA901F0B3
S3150800464061F807F047FD07F073FDDFF8A01507F0DE
S315080046507FFD07F039FA02000B00DFF898150AA863
S3150800466001F09CFC79E000BF80A90108EDB2002D9D
S3150800467016D007F032FD07F05BFDDFF8701507F07E
S3150800468067FD07F021FA02000B00DFF86C150AA88F
S3150800469001F084FC0AA800F0F7FA0AA901F032F83A
S315080046A007F01BFD07F044FDDFF8401507F050FD45
S315080046B007F00AFA02000B00DFF840150AA801F015
S315080046C06DFC4AE06CB30108EDB2002D0DD007F081
S315080046D00AFD0200DFF828150AA801F05FFC0AA8FF
S315080046E000F0D2FA0AA901F00DF807F0FCFC020066
S315080046F0DFF810150AA801F051FC2EE084B3010872
S31508004700EDB2002D0DD007F0F1FC0200DFF8F81429
S315080047100AA801F043FC0AA800F0B6FA0AA900F0B4
S31508004720F1FF07F0E3FC0200DFF8E0140AA801F045
S3150800473035FC12E0EDB2002D0AD0DFF8D4140AA831
S3150800474000F0CCFA0AA800F09FFA0AA900F0DAFFEE
S31508004750DFF8C0140AA800F0C1FA16E09CB30108F5
S31508004760B4B30108EDB2002D0AD0DFF820140AA868
S3150800477000F0B4FA0AA800F087FA0AA900F0C2FF06
S31508004780DFF894140AA800F0A9FAEDE00020060064
S315080047905FFA88F8B8F1030F13DAEDB2002D0AD0E4
S315080047A0DFF878140AA800F099FA0AA800F06CFA5B
S315080047B00AA900F0A7FFDFF868140AA800F08EFA25
S315080047C04BE0A07844281BD0452833D1EDB2002D04
S315080047D00AD0DFF850140AA800F080FA0AA800F0F8
S315080047E053FA0AA900F08EFFDFF83C140AA801F074
S315080047F0D5FB012007F038FC06002EE0CCB30108F3
S31508004800EDB2002D0AD0DFF824140AA800F066FAE3
S315080048100AA800F039FA0AA900F074FFDFF81014A4
S315080048200AA801F0BBFB002007F01EFC060014E0F6
S31508004830A0A90108EDB2002D0AD0DFF8E0130AA8F6
S3150800484000F04CFA0AA800F01FFA0AA900F05AFF6D
S31508004850DFF8E0130AA800F041FA85E0EDB2002D72
S315080048600AD0DFF8D4130AA800F038FA0AA800F02C
S315080048700BFA0AA900F046FFDFF8C0130AA800F0F1
S315080048802DFA0AA9002000F001FB0600F6B2002E58
S3150800489004D03000C0B2F3E0E4B30108DFF8A01397
S315080048A00AA800F01BFA0120DFF8981308705BE0ED
S315080048B007F07EFBEDB2002D0AD0DFF88C130AA8AC
S315080048C001F06CFB0AA800F0DFF90AA900F01AFF4C
S315080048D0DFF878130AA801F061FB45E0FCB301088C
S315080048E0EDB2002D0BD0DFF868130AA801F056FBCD
S315080048F00AA800F0C9F90AA900F004FF34E0DFF8B5
S3150800490054130AA801F04AFB0AA9002000F0BEFACF
S315080049100600F6B2002E02D03000C0B2B0E0CE4992
S315080049200AA801F03BFB0AA9002000F0AFFA06002E
S31508004930F6B2002E06D03000C0B2A1E014B40108C9
S315080049402CB40108FEE7EDB2002D09D0BA490AA831
S3150800495000F0C4F90AA800F097F90AA900F0D2FEF7
S31508004960AD490AA800F0BAF910E0EDB2002D09D059
S31508004970B1490AA800F0B2F90AA800F085F90AA90F
S3150800498000F0C0FEA4490AA800F0A8F9F6B2002E65
S3150800499008D0022E3FD006D3032E43D04EE000BFE8
S315080049A044B4010850E006F02CFF469046980128CA
S315080049B00AD002280DD0042810D0082813D01028B1
S315080049C018D020281BD01FE0A4490AA800F086F9B1
S315080049D01EE0A3490AA800F081F919E0A1490AA82E
S315080049E000F07CF914E0A0490AA800F077F90FE076
S315080049F05CB401089D490AA800F070F908E09C49D2
S31508004A000AA800F06BF903E09A490AA800F066F9CB
S31508004A1006F0D1FD18E098490AA800F05FF906F0FB
S31508004A20CAFD11E095490AA800F058F906F0C3FD39
S31508004A300AE000BF74B401088CB4010890490AA8BA
S31508004A4000F04CF906F0B7FD0AA9002000F01EFA9E
S31508004A500600F6B2002E02D03000C0B210E0894936
S31508004A600AA800F03BF90AA9002000F00FFA060090
S31508004A70F6B2002E02D03000C0B201E03000C0B25B
S31508004A800DF5806D17B0BDE8F08F0000A4B40108DD
S31508004A90BCB40108D4B40108ECB4010804B5010893
S31508004AA01CB5010834B501084CB50108BCBC0108A1
S31508004AB0F8B50400200000F0E7F80500002007001C
S31508004AC000200600AE4216DAA05D3A2802DAA05D9A
S31508004AD0302805DAA05D472805DAA05D412802DB03
S31508004AE00020070001E001200700012F01D1002066
S31508004AF002E0761CE6E70120F2BD2DE9F04104004C
S31508004B0000275FF00008200000F0BEF8050000202E
S31508004B100600AE421ADAA05D3A2806DAA05D302809
S31508004B2003DBA05D303807000CE0A05D472806DAF5
S31508004B30A05D412803DBA05D3738070002E05FF07F
S31508004B40FF3004E017EB0818761CE2E74046BDE89C
S31508004B50F0813C480078704770BA0108C0A901087E
S31508004B609C950108249D0108489D0108E0A90108B3
S31508004B707CAD010800AA010898AD010820AA010821
S31508004B8064B5010840AA01086C9D010860AA0108DD
S31508004B90C4950108909D0108308E0108B49D01084E
S31508004BA0D89D010880AA010804BD0108FC9D0108DA
S31508004BB05C8E0108209E0108449E0108A0AA0108EF
S31508004BC0689E0108888E01088C9E0108B09E01081F
S31508004BD0C0AA0108D49E0108B48E0108F89E0108EF
S31508004BE01C9F0108E0AA0108409F01080000204117
S31508004BF000AB0108EC95010820AB0108E08E01081E
S31508004C00B4AD01087CB50108D0AD010840AB010878
S31508004C1060AB0108649F0108C0A6010880AB0108C3
S31508004C2014960108ECAD01083C96010808AE010887
S31508004C30649601088C96010880A6010824AE01082E
S31508004C4040AE01081067002094B50108648A01087F
S31508004C505CAE0108889F0108AC9F0108B49601085C
S31508004C60B88B0108E88B0108188C0108DC96010846
S31508004C70488C0108049701082C97010854970108E5
S31508004C807C970108A0BF010800F10103810704D041
S31508004C9010F8011B89B18107FAD10268B2F1013116
S31508004CA0914311F0803F04BF50F8042FF6E710F83F
S31508004CB0011B11B110F8011BFBE7C01A7047036806
S31508004CC01AB95A1E026008467047197800290FBF9C
S31508004CD04FF0FF30591C0160187870475FEA000CE6
S31508004CE0830706D011F8013B00F8013BB3B18307EF
S31508004CF0F8D10A68B2F1013323EA020313F0803FC0
S31508004D0002BF40F8042B51F8042FF3E711F8013BD2
S31508004D1000F8013B13B111F8013BF9E7604670470B
S31508004D2080B5DFF88004DFF8801408604FF49640F9
S31508004D30DFF8741448600020DFF86C1488600020DF
S31508004D40DFF86414C8600020DFF85C1408610C20E2
S31508004D50DFF8541448610020DFF84C1488610020FD
S31508004D60DFF84414C861DFF8400407F06FFA00283A
S31508004D7001D008F09FFA01BD80B5DFF83004DFF8EE
S31508004D80301408605FF4E130DFF82414486000202E
S31508004D90DFF81C1488600020DFF81414C8600020AF
S31508004DA0DFF80C1408610C20DFF8041448614FF48E
S31508004DB04070DFF8FC1388610020DFF8F413C8613F
S31508004DC0DFF8EC0307F042FA002801D008F072FA7F
S31508004DD001BD10B586B004002068DFF8C813884204
S31508004DE01ED1DFF8D003006850F40030DFF8C41392
S31508004DF00860DFF8C003006810F4003000900098DF
S31508004E000C200190022002900120039003200490B8
S31508004E100720059001A9DFF8A00308F063FA33E03C
S31508004E202068DFF8881388422ED1DFF888030068E7
S31508004E3050F48020DFF87C130860DFF878030068F8
S31508004E4010F48020009000984FF4406001900220F2
S31508004E50029001200390032004900720059001A9E1
S31508004E60DFF8580308F03EFA4FF4C04001900220DC
S31508004E70029000200390032004900720059001A9C2
S31508004E80DFF8380308F02EFA06B010BDF8B50400AE
S31508004E900D002800FFF7F8FE0700BFB2792F01DBE7
S31508004EA001203AE0E4B2002C19D1DFF814030078A7
S31508004EB0002801D0022030E04FF400433A0092B2B5
S31508004EC02900DFF8E40207F0FAF90600F6B2002E28
S31508004ED002D03000C0B220E03000C0B21DE0E4B21B
S31508004EE0012C19D1DFF8DC020078002801D0022055
S31508004EF013E04FF400433A0092B22900DFF8B002FB
S31508004F0007F0DDF90600F6B2002E02D03000C0B276
S31508004F1003E03000C0B200E00120F2BDF8B504009D
S31508004F200D002800FFF7B0FE0700BFB2792F01DB9E
S31508004F30012036E0E4B2002C17D1DFF884020078AD
S31508004F40002801D002202CE03A0092B22900DFF8AE
S31508004F50580207F032FA0600F6B2002E02D03000E8
S31508004F60C0B21EE03000C0B21BE0E4B2012C17D17B
S31508004F70DFF850020078002801D0022011E03A003C
S31508004F8092B22900DFF8280207F017FA0600F6B2EF
S31508004F90002E02D03000C0B203E03000C0B200E0FC
S31508004FA00120F2BDDFF8200270470120DFF81C124D
S31508004FB008707047854800787047F8B504000D00FA
S31508004FC01600B6B2792E01DB012032E0E4B2002CDD
S31508004FD015D17B480078002801D0022029E032004C
S31508004FE092B22900704807F020FA0700FFB2002F96
S31508004FF002D03800C0B21CE03800C0B219E0E4B2F2
S31508005000012C15D16F480078002801D0022010E045
S31508005010320092B22900664807F007FA0700FFB285
S31508005020002F02D03800C0B203E03800C0B200E05A
S315080050300120F2BD10B504002000C0B200F006F849
S31508005040012801D0002000E0012010BD0100C9B2EE
S31508005050002903D1544890F8390007E0C9B201295C
S3150800506003D1534890F8390000E0042070470168DE
S315080050704C4A914203D10121514A117006E0016858
S315080050804A4A914202D101214E4A11707047C0B274
S31508005090002803D100214A4A117005E0C0B2012850
S315080050A002D10021474A1170704770B50400206884
S315080050B03C49884203D10120414908704CE02068E8
S315080050C03A49884248D1FFF775FF002824D00320C3
S315080050D040490860FFF766FF3F4908603E48006898
S315080050E04078401C0600002005003A4800688542C2
S315080050F00BDA39480068007800F0B7FB36480068D4
S31508005100401C354908606D1CEFE732480660314897
S3150800511000682F4908601CE0FFF744FF2E49086025
S31508005120002005002B48006885420BDA2A480068EB
S31508005130007800F09AFB28480068401C2649086059
S315080051406D1CEFE7032023490860224800682049C0
S31508005150086001201B49087070BD70471448006834
S31508005160C06850F0800012490968C8607047104846
S315080051700068C06850F480700D490968C8600C481A
S315080051800068406950F00100094909684861084803
S315080051900068C06850F0200005490968C860704773
S315080051A000000000004400409463002000480040CE
S315080051B0D463002024380240000002400004024064
S315080051C013670020146700209865002015670020E3
S315080051D04C000020FC660020F866002038B5040064
S315080051E00D00DFF8680600680471DFF860060068DD
S315080051F04571DFF85C06DFF8541609680860DFF8C1
S315080052004C060068011DDFF844060068006808F0CF
S31508005210D4FADFF86C0A0068001D32BD0020DFF8FA
S31508005220641AA1F820030020DFF85C1A81F89601B9
S315080052300020DFF8541A81F897010020DFF8481A91
S3150800524081F898010020DFF8401A81F899010020BA
S31508005250DFF8341A81F89A010020DFF82C1AA1F831
S315080052609C010120DFF8201A81F89E017047401C36
S31508005270C0B2C82800DB0020C0B2704738B50400A9
S315080052800D00002C27D0DFF8000A90F89301DFF80C
S31508005290F81991F8921188421BD00020DFF8E81916
S315080052A081F89501DFF8E009DFF8DC1991F8931128
S315080052B0084490F8CA0028706D1CDFF8CC0990F8ED
S315080052C09301FFF7D4FFDFF8C01981F89301641E34
S315080052D0D7E7FFF74CFF002032BDDFF8AC0990F89E
S315080052E09501704780B5FFF799FF062006F0EEF89E
S315080052F00FF21140DFF894190860DFF89409DFF817
S3150800530094190860DFF89009DFF8901908600620FC
S3150800531006F0CEF801BD70B586B00025DFF868093D
S31508005320D0F8A001002805D108F035FADFF8581999
S31508005330C1F8A001DFF85009D0F8A001002800F054
S31508005340EF80DFF84409D0F8A0010068DFF85019AB
S315080053500840DFF83019DFF82C29B2F8202341F885
S315080053602200DFF82009B0F82003C0B2FFF77FFF5C
S31508005370DFF81019A1F82003DFF80C09D0F8A0010E
S315080053800068DFF81C19084004002000DFF814192B
S3150800539088422AD0DFF81019884258D0DFF80C194D
S315080053A0884200F08280DFF80819884229D0DFF8A1
S315080053B00419884279D0DFF80019884257D0DFF8F7
S315080053C0FC18884200F09280DFF8F41888425AD018
S315080053D0DFF8F018884262D0DFF8EC18884264D00B
S315080053E0DFF8E81888425AD08BE0DFF8E418002086
S315080053F0FFF74CFD012005000120DFF88C1881F825
S3150800540096010020DFF8801881F897010221022012
S31508005410FFF7E4FE06003088002817D1EDB2002D0C
S315080054200FD1DFF8B0180020FFF730FD02210D205C
S3150800543008F002FA02F0A3FB0D2008F07DFA06F048
S31508005440F0FC0020DFF84018C1F8A00168E0DFF89A
S3150800545088180020FFF71AFD0120DFF82C1881F8BC
S3150800546097010020DFF82018C1F8A00158E0A3A191
S315080054700020FFF70BFD02F093FB0020DFF8081869
S31508005480C1F8A0014CE09EA10020FFF7FFFC02F046
S3150800549087FB0020DFF8F017C1F8A00140E00020E4
S315080054A0DFF8E417C1F8A0013AE0DFF83018002069
S315080054B0FFF7ECFCDFF8D007D0F8A001807A0028C7
S315080054C00ED0DFF8C407D0F8A00110F10B02DFF800
S315080054D01018684600F062FD69460020FFF7D6FC02
S315080054E00020DFF8A417C1F8A00119E0DFF8F417C7
